{
	"contracts/FundMe.sol": {
		"FundMe": {
			"abi": [
				{
					"inputs": [
						{
							"internalType": "uint256",
							"name": "_lockTime",
							"type": "uint256"
						}
					],
					"stateMutability": "nonpayable",
					"type": "constructor"
				},
				{
					"inputs": [],
					"name": "fund",
					"outputs": [],
					"stateMutability": "payable",
					"type": "function"
				},
				{
					"inputs": [
						{
							"internalType": "address",
							"name": "",
							"type": "address"
						}
					],
					"name": "funderToAmount",
					"outputs": [
						{
							"internalType": "uint256",
							"name": "",
							"type": "uint256"
						}
					],
					"stateMutability": "view",
					"type": "function"
				},
				{
					"inputs": [],
					"name": "getChainlinkDataFeedLatestAnswer",
					"outputs": [
						{
							"internalType": "int256",
							"name": "",
							"type": "int256"
						}
					],
					"stateMutability": "view",
					"type": "function"
				},
				{
					"inputs": [],
					"name": "getFund",
					"outputs": [],
					"stateMutability": "nonpayable",
					"type": "function"
				},
				{
					"inputs": [],
					"name": "owner",
					"outputs": [
						{
							"internalType": "address",
							"name": "",
							"type": "address"
						}
					],
					"stateMutability": "view",
					"type": "function"
				},
				{
					"inputs": [],
					"name": "reFund",
					"outputs": [],
					"stateMutability": "nonpayable",
					"type": "function"
				},
				{
					"inputs": [
						{
							"internalType": "address",
							"name": "_erc20Addr",
							"type": "address"
						}
					],
					"name": "setErc20Addr",
					"outputs": [],
					"stateMutability": "nonpayable",
					"type": "function"
				},
				{
					"inputs": [
						{
							"internalType": "address",
							"name": "funder",
							"type": "address"
						},
						{
							"internalType": "uint256",
							"name": "amountToUpdate",
							"type": "uint256"
						}
					],
					"name": "setFunderToAmount",
					"outputs": [],
					"stateMutability": "nonpayable",
					"type": "function"
				},
				{
					"inputs": [
						{
							"internalType": "address",
							"name": "newOwner",
							"type": "address"
						}
					],
					"name": "transferOwnerShip",
					"outputs": [],
					"stateMutability": "nonpayable",
					"type": "function"
				}
			],
			"devdoc": {
				"kind": "dev",
				"methods": {},
				"version": 1
			},
			"evm": {
				"assembly": "    /* \"contracts/FundMe.sol\":171:4584  contract FundMe {... */\n  mstore(0x40, 0x80)\n    /* \"contracts/FundMe.sol\":272:283  10 * 10**18 */\n  0x8ac7230489e80000\n    /* \"contracts/FundMe.sol\":249:283  uint256 MINMUM_VALUE = 10 * 10**18 */\n  0x01\n  sstore\n    /* \"contracts/FundMe.sol\":581:937  constructor(uint256 _lockTime) {... */\n  callvalue\n  dup1\n  iszero\n  tag_1\n  jumpi\n  0x00\n  dup1\n  revert\ntag_1:\n  pop\n  mload(0x40)\n  sub(codesize, bytecodeSize)\n  dup1\n  bytecodeSize\n  dup4\n  codecopy\n  dup2\n  dup2\n  add\n  0x40\n  mstore\n  dup2\n  add\n  swap1\n  tag_2\n  swap2\n  swap1\n  tag_3\n  jump\t// in\ntag_2:\n    /* \"contracts/FundMe.sol\":695:737  0x694AA1769357215DE4FAC081bf1f309aDC325306 */\n  0x694aa1769357215de4fac081bf1f309adc325306\n    /* \"contracts/FundMe.sol\":649:657  dataFeed */\n  0x02\n  0x00\n    /* \"contracts/FundMe.sol\":649:747  dataFeed = AggregatorV3Interface(... */\n  0x0100\n  exp\n  dup2\n  sload\n  dup2\n  0xffffffffffffffffffffffffffffffffffffffff\n  mul\n  not\n  and\n  swap1\n  dup4\n  0xffffffffffffffffffffffffffffffffffffffff\n  and\n  mul\n  or\n  swap1\n  sstore\n  pop\n    /* \"contracts/FundMe.sol\":765:775  msg.sender */\n  caller\n    /* \"contracts/FundMe.sol\":757:762  owner */\n  0x03\n  0x00\n    /* \"contracts/FundMe.sol\":757:775  owner = msg.sender */\n  0x0100\n  exp\n  dup2\n  sload\n  dup2\n  0xffffffffffffffffffffffffffffffffffffffff\n  mul\n  not\n  and\n  swap1\n  dup4\n  0xffffffffffffffffffffffffffffffffffffffff\n  and\n  mul\n  or\n  swap1\n  sstore\n  pop\n    /* \"contracts/FundMe.sol\":846:861  block.timestamp */\n  timestamp\n    /* \"contracts/FundMe.sol\":824:843  deploymentTimestamp */\n  0x04\n    /* \"contracts/FundMe.sol\":824:861  deploymentTimestamp = block.timestamp */\n  dup2\n  swap1\n  sstore\n  pop\n    /* \"contracts/FundMe.sol\":921:930  _lockTime */\n  dup1\n    /* \"contracts/FundMe.sol\":910:918  lockTime */\n  0x05\n    /* \"contracts/FundMe.sol\":910:930  lockTime = _lockTime */\n  dup2\n  swap1\n  sstore\n  pop\n    /* \"contracts/FundMe.sol\":581:937  constructor(uint256 _lockTime) {... */\n  pop\n    /* \"contracts/FundMe.sol\":171:4584  contract FundMe {... */\n  jump(tag_6)\n    /* \"#utility.yul\":88:205   */\ntag_8:\n    /* \"#utility.yul\":197:198   */\n  0x00\n    /* \"#utility.yul\":194:195   */\n  dup1\n    /* \"#utility.yul\":187:199   */\n  revert\n    /* \"#utility.yul\":334:411   */\ntag_10:\n    /* \"#utility.yul\":371:378   */\n  0x00\n    /* \"#utility.yul\":400:405   */\n  dup2\n    /* \"#utility.yul\":389:405   */\n  swap1\n  pop\n    /* \"#utility.yul\":334:411   */\n  swap2\n  swap1\n  pop\n  jump\t// out\n    /* \"#utility.yul\":417:539   */\ntag_11:\n    /* \"#utility.yul\":490:514   */\n  tag_19\n    /* \"#utility.yul\":508:513   */\n  dup2\n    /* \"#utility.yul\":490:514   */\n  tag_10\n  jump\t// in\ntag_19:\n    /* \"#utility.yul\":483:488   */\n  dup2\n    /* \"#utility.yul\":480:515   */\n  eq\n    /* \"#utility.yul\":470:533   */\n  tag_20\n  jumpi\n    /* \"#utility.yul\":529:530   */\n  0x00\n    /* \"#utility.yul\":526:527   */\n  dup1\n    /* \"#utility.yul\":519:531   */\n  revert\n    /* \"#utility.yul\":470:533   */\ntag_20:\n    /* \"#utility.yul\":417:539   */\n  pop\n  jump\t// out\n    /* \"#utility.yul\":545:688   */\ntag_12:\n    /* \"#utility.yul\":602:607   */\n  0x00\n    /* \"#utility.yul\":633:639   */\n  dup2\n    /* \"#utility.yul\":627:640   */\n  mload\n    /* \"#utility.yul\":618:640   */\n  swap1\n  pop\n    /* \"#utility.yul\":649:682   */\n  tag_22\n    /* \"#utility.yul\":676:681   */\n  dup2\n    /* \"#utility.yul\":649:682   */\n  tag_11\n  jump\t// in\ntag_22:\n    /* \"#utility.yul\":545:688   */\n  swap3\n  swap2\n  pop\n  pop\n  jump\t// out\n    /* \"#utility.yul\":694:1045   */\ntag_3:\n    /* \"#utility.yul\":764:770   */\n  0x00\n    /* \"#utility.yul\":813:815   */\n  0x20\n    /* \"#utility.yul\":801:810   */\n  dup3\n    /* \"#utility.yul\":792:799   */\n  dup5\n    /* \"#utility.yul\":788:811   */\n  sub\n    /* \"#utility.yul\":784:816   */\n  slt\n    /* \"#utility.yul\":781:900   */\n  iszero\n  tag_24\n  jumpi\n    /* \"#utility.yul\":819:898   */\n  tag_25\n  tag_8\n  jump\t// in\ntag_25:\n    /* \"#utility.yul\":781:900   */\ntag_24:\n    /* \"#utility.yul\":939:940   */\n  0x00\n    /* \"#utility.yul\":964:1028   */\n  tag_26\n    /* \"#utility.yul\":1020:1027   */\n  dup5\n    /* \"#utility.yul\":1011:1017   */\n  dup3\n    /* \"#utility.yul\":1000:1009   */\n  dup6\n    /* \"#utility.yul\":996:1018   */\n  add\n    /* \"#utility.yul\":964:1028   */\n  tag_12\n  jump\t// in\ntag_26:\n    /* \"#utility.yul\":954:1028   */\n  swap2\n  pop\n    /* \"#utility.yul\":910:1038   */\n  pop\n    /* \"#utility.yul\":694:1045   */\n  swap3\n  swap2\n  pop\n  pop\n  jump\t// out\n    /* \"contracts/FundMe.sol\":171:4584  contract FundMe {... */\ntag_6:\n  dataSize(sub_0)\n  dup1\n  dataOffset(sub_0)\n  0x00\n  codecopy\n  0x00\n  return\nstop\n\nsub_0: assembly {\n        /* \"contracts/FundMe.sol\":171:4584  contract FundMe {... */\n      mstore(0x40, 0x80)\n      jumpi(tag_1, lt(calldatasize, 0x04))\n      shr(0xe0, calldataload(0x00))\n      dup1\n      0x8da5cb5b\n      gt\n      tag_11\n      jumpi\n      dup1\n      0x8da5cb5b\n      eq\n      tag_6\n      jumpi\n      dup1\n      0x8edd6eb6\n      eq\n      tag_7\n      jumpi\n      dup1\n      0xb60d4288\n      eq\n      tag_8\n      jumpi\n      dup1\n      0xbea4dfb5\n      eq\n      tag_9\n      jumpi\n      dup1\n      0xd39cf006\n      eq\n      tag_10\n      jumpi\n      jump(tag_1)\n    tag_11:\n      dup1\n      0x0ff0a4df\n      eq\n      tag_2\n      jumpi\n      dup1\n      0x13ffff01\n      eq\n      tag_3\n      jumpi\n      dup1\n      0x4407e1e8\n      eq\n      tag_4\n      jumpi\n      dup1\n      0x8863dd1a\n      eq\n      tag_5\n      jumpi\n    tag_1:\n      0x00\n      dup1\n      revert\n        /* \"contracts/FundMe.sol\":3234:3787  function reFund() external windowClosed {... */\n    tag_2:\n      callvalue\n      dup1\n      iszero\n      tag_12\n      jumpi\n      0x00\n      dup1\n      revert\n    tag_12:\n      pop\n      tag_13\n      tag_14\n      jump\t// in\n    tag_13:\n      stop\n        /* \"contracts/FundMe.sol\":4023:4120  function setErc20Addr(address _erc20Addr) public onlyOwner{... */\n    tag_3:\n      callvalue\n      dup1\n      iszero\n      tag_15\n      jumpi\n      0x00\n      dup1\n      revert\n    tag_15:\n      pop\n      tag_16\n      0x04\n      dup1\n      calldatasize\n      sub\n      dup2\n      add\n      swap1\n      tag_17\n      swap2\n      swap1\n      tag_18\n      jump\t// in\n    tag_17:\n      tag_19\n      jump\t// in\n    tag_16:\n      stop\n        /* \"contracts/FundMe.sol\":193:242  mapping(address => uint256) public funderToAmount */\n    tag_4:\n      callvalue\n      dup1\n      iszero\n      tag_20\n      jumpi\n      0x00\n      dup1\n      revert\n    tag_20:\n      pop\n      tag_21\n      0x04\n      dup1\n      calldatasize\n      sub\n      dup2\n      add\n      swap1\n      tag_22\n      swap2\n      swap1\n      tag_18\n      jump\t// in\n    tag_22:\n      tag_23\n      jump\t// in\n    tag_21:\n      mload(0x40)\n      tag_24\n      swap2\n      swap1\n      tag_25\n      jump\t// in\n    tag_24:\n      mload(0x40)\n      dup1\n      swap2\n      sub\n      swap1\n      return\n        /* \"contracts/FundMe.sol\":2207:2301  function transferOwnerShip(address newOwner) public onlyOwner{... */\n    tag_5:\n      callvalue\n      dup1\n      iszero\n      tag_26\n      jumpi\n      0x00\n      dup1\n      revert\n    tag_26:\n      pop\n      tag_27\n      0x04\n      dup1\n      calldatasize\n      sub\n      dup2\n      add\n      swap1\n      tag_28\n      swap2\n      swap1\n      tag_18\n      jump\t// in\n    tag_28:\n      tag_29\n      jump\t// in\n    tag_27:\n      stop\n        /* \"contracts/FundMe.sol\":409:429  address public owner */\n    tag_6:\n      callvalue\n      dup1\n      iszero\n      tag_30\n      jumpi\n      0x00\n      dup1\n      revert\n    tag_30:\n      pop\n      tag_31\n      tag_32\n      jump\t// in\n    tag_31:\n      mload(0x40)\n      tag_33\n      swap2\n      swap1\n      tag_34\n      jump\t// in\n    tag_33:\n      mload(0x40)\n      dup1\n      swap2\n      sub\n      swap1\n      return\n        /* \"contracts/FundMe.sol\":2368:3158  function getFund() external windowClosed onlyOwner{... */\n    tag_7:\n      callvalue\n      dup1\n      iszero\n      tag_35\n      jumpi\n      0x00\n      dup1\n      revert\n    tag_35:\n      pop\n      tag_36\n      tag_37\n      jump\t// in\n    tag_36:\n      stop\n        /* \"contracts/FundMe.sol\":989:1440  function fund() external payable {... */\n    tag_8:\n      tag_38\n      tag_39\n      jump\t// in\n    tag_38:\n      stop\n        /* \"contracts/FundMe.sol\":1496:1837  function getChainlinkDataFeedLatestAnswer() public view returns (int256) {... */\n    tag_9:\n      callvalue\n      dup1\n      iszero\n      tag_40\n      jumpi\n      0x00\n      dup1\n      revert\n    tag_40:\n      pop\n      tag_41\n      tag_42\n      jump\t// in\n    tag_41:\n      mload(0x40)\n      tag_43\n      swap2\n      swap1\n      tag_44\n      jump\t// in\n    tag_43:\n      mload(0x40)\n      dup1\n      swap2\n      sub\n      swap1\n      return\n        /* \"contracts/FundMe.sol\":3793:4017  function setFunderToAmount(address funder,uint256 amountToUpdate) external {... */\n    tag_10:\n      callvalue\n      dup1\n      iszero\n      tag_45\n      jumpi\n      0x00\n      dup1\n      revert\n    tag_45:\n      pop\n      tag_46\n      0x04\n      dup1\n      calldatasize\n      sub\n      dup2\n      add\n      swap1\n      tag_47\n      swap2\n      swap1\n      tag_48\n      jump\t// in\n    tag_47:\n      tag_49\n      jump\t// in\n    tag_46:\n      stop\n        /* \"contracts/FundMe.sol\":3234:3787  function reFund() external windowClosed {... */\n    tag_14:\n        /* \"contracts/FundMe.sol\":4277:4285  lockTime */\n      sload(0x05)\n        /* \"contracts/FundMe.sol\":4255:4274  deploymentTimestamp */\n      sload(0x04)\n        /* \"contracts/FundMe.sol\":4255:4285  deploymentTimestamp + lockTime */\n      tag_51\n      swap2\n      swap1\n      tag_52\n      jump\t// in\n    tag_51:\n        /* \"contracts/FundMe.sol\":4236:4251  block.timestamp */\n      timestamp\n        /* \"contracts/FundMe.sol\":4236:4285  block.timestamp >= deploymentTimestamp + lockTime */\n      lt\n      iszero\n        /* \"contracts/FundMe.sol\":4215:4331  require(... */\n      tag_53\n      jumpi\n      mload(0x40)\n      0x08c379a000000000000000000000000000000000000000000000000000000000\n      dup2\n      mstore\n      0x04\n      add\n      tag_54\n      swap1\n      tag_55\n      jump\t// in\n    tag_54:\n      mload(0x40)\n      dup1\n      swap2\n      sub\n      swap1\n      revert\n    tag_53:\n        /* \"contracts/FundMe.sol\":390:402  100 * 10**18 */\n      0x056bc75e2d63100000\n        /* \"contracts/FundMe.sol\":3305:3343  convertEthToUsd(address(this).balance) */\n      tag_57\n        /* \"contracts/FundMe.sol\":3321:3342  address(this).balance */\n      selfbalance\n        /* \"contracts/FundMe.sol\":3305:3320  convertEthToUsd */\n      tag_58\n        /* \"contracts/FundMe.sol\":3305:3343  convertEthToUsd(address(this).balance) */\n      jump\t// in\n    tag_57:\n        /* \"contracts/FundMe.sol\":3305:3352  convertEthToUsd(address(this).balance) < TARGET */\n      lt\n        /* \"contracts/FundMe.sol\":3284:3395  require(... */\n      tag_59\n      jumpi\n      mload(0x40)\n      0x08c379a000000000000000000000000000000000000000000000000000000000\n      dup2\n      mstore\n      0x04\n      add\n      tag_60\n      swap1\n      tag_61\n      jump\t// in\n    tag_60:\n      mload(0x40)\n      dup1\n      swap2\n      sub\n      swap1\n      revert\n    tag_59:\n        /* \"contracts/FundMe.sol\":3406:3420  uint256 amount */\n      0x00\n        /* \"contracts/FundMe.sol\":3423:3437  funderToAmount */\n      dup1\n        /* \"contracts/FundMe.sol\":3423:3449  funderToAmount[msg.sender] */\n      0x00\n        /* \"contracts/FundMe.sol\":3438:3448  msg.sender */\n      caller\n        /* \"contracts/FundMe.sol\":3423:3449  funderToAmount[msg.sender] */\n      0xffffffffffffffffffffffffffffffffffffffff\n      and\n      0xffffffffffffffffffffffffffffffffffffffff\n      and\n      dup2\n      mstore\n      0x20\n      add\n      swap1\n      dup2\n      mstore\n      0x20\n      add\n      0x00\n      keccak256\n      sload\n        /* \"contracts/FundMe.sol\":3406:3449  uint256 amount = funderToAmount[msg.sender] */\n      swap1\n      pop\n        /* \"contracts/FundMe.sol\":3477:3478  0 */\n      0x00\n        /* \"contracts/FundMe.sol\":3467:3473  amount */\n      dup2\n        /* \"contracts/FundMe.sol\":3467:3478  amount != 0 */\n      sub\n        /* \"contracts/FundMe.sol\":3459:3508  require(amount != 0, \"there is not fund for you\") */\n      tag_62\n      jumpi\n      mload(0x40)\n      0x08c379a000000000000000000000000000000000000000000000000000000000\n      dup2\n      mstore\n      0x04\n      add\n      tag_63\n      swap1\n      tag_64\n      jump\t// in\n    tag_63:\n      mload(0x40)\n      dup1\n      swap2\n      sub\n      swap1\n      revert\n    tag_62:\n        /* \"contracts/FundMe.sol\":3518:3530  bool success */\n      0x00\n        /* \"contracts/FundMe.sol\":3562:3572  msg.sender */\n      caller\n        /* \"contracts/FundMe.sol\":3554:3578  payable(msg.sender).call */\n      0xffffffffffffffffffffffffffffffffffffffff\n      and\n        /* \"contracts/FundMe.sol\":3599:3613  funderToAmount */\n      0x00\n        /* \"contracts/FundMe.sol\":3599:3625  funderToAmount[msg.sender] */\n      dup1\n        /* \"contracts/FundMe.sol\":3614:3624  msg.sender */\n      caller\n        /* \"contracts/FundMe.sol\":3599:3625  funderToAmount[msg.sender] */\n      0xffffffffffffffffffffffffffffffffffffffff\n      and\n      0xffffffffffffffffffffffffffffffffffffffff\n      and\n      dup2\n      mstore\n      0x20\n      add\n      swap1\n      dup2\n      mstore\n      0x20\n      add\n      0x00\n      keccak256\n      sload\n        /* \"contracts/FundMe.sol\":3554:3639  payable(msg.sender).call{... */\n      mload(0x40)\n      tag_65\n      swap1\n      tag_66\n      jump\t// in\n    tag_65:\n      0x00\n      mload(0x40)\n      dup1\n      dup4\n      sub\n      dup2\n      dup6\n      dup8\n      gas\n      call\n      swap3\n      pop\n      pop\n      pop\n      returndatasize\n      dup1\n      0x00\n      dup2\n      eq\n      tag_69\n      jumpi\n      mload(0x40)\n      swap2\n      pop\n      and(add(returndatasize, 0x3f), not(0x1f))\n      dup3\n      add\n      0x40\n      mstore\n      returndatasize\n      dup3\n      mstore\n      returndatasize\n      0x00\n      0x20\n      dup5\n      add\n      returndatacopy\n      jump(tag_68)\n    tag_69:\n      0x60\n      swap2\n      pop\n    tag_68:\n      pop\n        /* \"contracts/FundMe.sol\":3540:3639  (success, ) = payable(msg.sender).call{... */\n      pop\n      dup1\n      swap2\n      pop\n      pop\n        /* \"contracts/FundMe.sol\":3657:3664  success */\n      dup1\n        /* \"contracts/FundMe.sol\":3649:3687  require(success, \"transfer tx failed\") */\n      tag_70\n      jumpi\n      mload(0x40)\n      0x08c379a000000000000000000000000000000000000000000000000000000000\n      dup2\n      mstore\n      0x04\n      add\n      tag_71\n      swap1\n      tag_72\n      jump\t// in\n    tag_71:\n      mload(0x40)\n      dup1\n      swap2\n      sub\n      swap1\n      revert\n    tag_70:\n        /* \"contracts/FundMe.sol\":3779:3780  0 */\n      0x00\n        /* \"contracts/FundMe.sol\":3750:3764  funderToAmount */\n      dup1\n        /* \"contracts/FundMe.sol\":3750:3776  funderToAmount[msg.sender] */\n      0x00\n        /* \"contracts/FundMe.sol\":3765:3775  msg.sender */\n      caller\n        /* \"contracts/FundMe.sol\":3750:3776  funderToAmount[msg.sender] */\n      0xffffffffffffffffffffffffffffffffffffffff\n      and\n      0xffffffffffffffffffffffffffffffffffffffff\n      and\n      dup2\n      mstore\n      0x20\n      add\n      swap1\n      dup2\n      mstore\n      0x20\n      add\n      0x00\n      keccak256\n        /* \"contracts/FundMe.sol\":3750:3780  funderToAmount[msg.sender] = 0 */\n      dup2\n      swap1\n      sstore\n      pop\n        /* \"contracts/FundMe.sol\":3274:3787  {... */\n      pop\n      pop\n        /* \"contracts/FundMe.sol\":3234:3787  function reFund() external windowClosed {... */\n      jump\t// out\n        /* \"contracts/FundMe.sol\":4023:4120  function setErc20Addr(address _erc20Addr) public onlyOwner{... */\n    tag_19:\n        /* \"contracts/FundMe.sol\":4492:4497  owner */\n      0x03\n      0x00\n      swap1\n      sload\n      swap1\n      0x0100\n      exp\n      swap1\n      div\n      0xffffffffffffffffffffffffffffffffffffffff\n      and\n        /* \"contracts/FundMe.sol\":4478:4497  msg.sender == owner */\n      0xffffffffffffffffffffffffffffffffffffffff\n      and\n        /* \"contracts/FundMe.sol\":4478:4488  msg.sender */\n      caller\n        /* \"contracts/FundMe.sol\":4478:4497  msg.sender == owner */\n      0xffffffffffffffffffffffffffffffffffffffff\n      and\n      eq\n        /* \"contracts/FundMe.sol\":4457:4564  require(... */\n      tag_74\n      jumpi\n      mload(0x40)\n      0x08c379a000000000000000000000000000000000000000000000000000000000\n      dup2\n      mstore\n      0x04\n      add\n      tag_75\n      swap1\n      tag_76\n      jump\t// in\n    tag_75:\n      mload(0x40)\n      dup1\n      swap2\n      sub\n      swap1\n      revert\n    tag_74:\n        /* \"contracts/FundMe.sol\":4103:4113  _erc20Addr */\n      dup1\n        /* \"contracts/FundMe.sol\":4091:4100  erc20Addr */\n      0x06\n      0x00\n        /* \"contracts/FundMe.sol\":4091:4113  erc20Addr = _erc20Addr */\n      0x0100\n      exp\n      dup2\n      sload\n      dup2\n      0xffffffffffffffffffffffffffffffffffffffff\n      mul\n      not\n      and\n      swap1\n      dup4\n      0xffffffffffffffffffffffffffffffffffffffff\n      and\n      mul\n      or\n      swap1\n      sstore\n      pop\n        /* \"contracts/FundMe.sol\":4023:4120  function setErc20Addr(address _erc20Addr) public onlyOwner{... */\n      pop\n      jump\t// out\n        /* \"contracts/FundMe.sol\":193:242  mapping(address => uint256) public funderToAmount */\n    tag_23:\n      mstore(0x20, 0x00)\n      dup1\n      0x00\n      mstore\n      keccak256(0x00, 0x40)\n      0x00\n      swap2\n      pop\n      swap1\n      pop\n      sload\n      dup2\n      jump\t// out\n        /* \"contracts/FundMe.sol\":2207:2301  function transferOwnerShip(address newOwner) public onlyOwner{... */\n    tag_29:\n        /* \"contracts/FundMe.sol\":4492:4497  owner */\n      0x03\n      0x00\n      swap1\n      sload\n      swap1\n      0x0100\n      exp\n      swap1\n      div\n      0xffffffffffffffffffffffffffffffffffffffff\n      and\n        /* \"contracts/FundMe.sol\":4478:4497  msg.sender == owner */\n      0xffffffffffffffffffffffffffffffffffffffff\n      and\n        /* \"contracts/FundMe.sol\":4478:4488  msg.sender */\n      caller\n        /* \"contracts/FundMe.sol\":4478:4497  msg.sender == owner */\n      0xffffffffffffffffffffffffffffffffffffffff\n      and\n      eq\n        /* \"contracts/FundMe.sol\":4457:4564  require(... */\n      tag_79\n      jumpi\n      mload(0x40)\n      0x08c379a000000000000000000000000000000000000000000000000000000000\n      dup2\n      mstore\n      0x04\n      add\n      tag_80\n      swap1\n      tag_76\n      jump\t// in\n    tag_80:\n      mload(0x40)\n      dup1\n      swap2\n      sub\n      swap1\n      revert\n    tag_79:\n        /* \"contracts/FundMe.sol\":2286:2294  newOwner */\n      dup1\n        /* \"contracts/FundMe.sol\":2278:2283  owner */\n      0x03\n      0x00\n        /* \"contracts/FundMe.sol\":2278:2294  owner = newOwner */\n      0x0100\n      exp\n      dup2\n      sload\n      dup2\n      0xffffffffffffffffffffffffffffffffffffffff\n      mul\n      not\n      and\n      swap1\n      dup4\n      0xffffffffffffffffffffffffffffffffffffffff\n      and\n      mul\n      or\n      swap1\n      sstore\n      pop\n        /* \"contracts/FundMe.sol\":2207:2301  function transferOwnerShip(address newOwner) public onlyOwner{... */\n      pop\n      jump\t// out\n        /* \"contracts/FundMe.sol\":409:429  address public owner */\n    tag_32:\n      0x03\n      0x00\n      swap1\n      sload\n      swap1\n      0x0100\n      exp\n      swap1\n      div\n      0xffffffffffffffffffffffffffffffffffffffff\n      and\n      dup2\n      jump\t// out\n        /* \"contracts/FundMe.sol\":2368:3158  function getFund() external windowClosed onlyOwner{... */\n    tag_37:\n        /* \"contracts/FundMe.sol\":4277:4285  lockTime */\n      sload(0x05)\n        /* \"contracts/FundMe.sol\":4255:4274  deploymentTimestamp */\n      sload(0x04)\n        /* \"contracts/FundMe.sol\":4255:4285  deploymentTimestamp + lockTime */\n      tag_83\n      swap2\n      swap1\n      tag_52\n      jump\t// in\n    tag_83:\n        /* \"contracts/FundMe.sol\":4236:4251  block.timestamp */\n      timestamp\n        /* \"contracts/FundMe.sol\":4236:4285  block.timestamp >= deploymentTimestamp + lockTime */\n      lt\n      iszero\n        /* \"contracts/FundMe.sol\":4215:4331  require(... */\n      tag_84\n      jumpi\n      mload(0x40)\n      0x08c379a000000000000000000000000000000000000000000000000000000000\n      dup2\n      mstore\n      0x04\n      add\n      tag_85\n      swap1\n      tag_55\n      jump\t// in\n    tag_85:\n      mload(0x40)\n      dup1\n      swap2\n      sub\n      swap1\n      revert\n    tag_84:\n        /* \"contracts/FundMe.sol\":4492:4497  owner */\n      0x03\n      0x00\n      swap1\n      sload\n      swap1\n      0x0100\n      exp\n      swap1\n      div\n      0xffffffffffffffffffffffffffffffffffffffff\n      and\n        /* \"contracts/FundMe.sol\":4478:4497  msg.sender == owner */\n      0xffffffffffffffffffffffffffffffffffffffff\n      and\n        /* \"contracts/FundMe.sol\":4478:4488  msg.sender */\n      caller\n        /* \"contracts/FundMe.sol\":4478:4497  msg.sender == owner */\n      0xffffffffffffffffffffffffffffffffffffffff\n      and\n      eq\n        /* \"contracts/FundMe.sol\":4457:4564  require(... */\n      tag_87\n      jumpi\n      mload(0x40)\n      0x08c379a000000000000000000000000000000000000000000000000000000000\n      dup2\n      mstore\n      0x04\n      add\n      tag_88\n      swap1\n      tag_76\n      jump\t// in\n    tag_88:\n      mload(0x40)\n      dup1\n      swap2\n      sub\n      swap1\n      revert\n    tag_87:\n        /* \"contracts/FundMe.sol\":390:402  100 * 10**18 */\n      0x056bc75e2d63100000\n        /* \"contracts/FundMe.sol\":2449:2487  convertEthToUsd(address(this).balance) */\n      tag_90\n        /* \"contracts/FundMe.sol\":2465:2486  address(this).balance */\n      selfbalance\n        /* \"contracts/FundMe.sol\":2449:2464  convertEthToUsd */\n      tag_58\n        /* \"contracts/FundMe.sol\":2449:2487  convertEthToUsd(address(this).balance) */\n      jump\t// in\n    tag_90:\n        /* \"contracts/FundMe.sol\":2449:2497  convertEthToUsd(address(this).balance) >= TARGET */\n      lt\n      iszero\n        /* \"contracts/FundMe.sol\":2428:2544  require(... */\n      tag_91\n      jumpi\n      mload(0x40)\n      0x08c379a000000000000000000000000000000000000000000000000000000000\n      dup2\n      mstore\n      0x04\n      add\n      tag_92\n      swap1\n      tag_93\n      jump\t// in\n    tag_92:\n      mload(0x40)\n      dup1\n      swap2\n      sub\n      swap1\n      revert\n    tag_91:\n        /* \"contracts/FundMe.sol\":2946:2958  bool success */\n      0x00\n        /* \"contracts/FundMe.sol\":2990:3000  msg.sender */\n      caller\n        /* \"contracts/FundMe.sol\":2982:3006  payable(msg.sender).call */\n      0xffffffffffffffffffffffffffffffffffffffff\n      and\n        /* \"contracts/FundMe.sol\":3014:3035  address(this).balance */\n      selfbalance\n        /* \"contracts/FundMe.sol\":2982:3062  payable(msg.sender).call{value: address(this).balance}(... */\n      mload(0x40)\n      tag_94\n      swap1\n      tag_66\n      jump\t// in\n    tag_94:\n      0x00\n      mload(0x40)\n      dup1\n      dup4\n      sub\n      dup2\n      dup6\n      dup8\n      gas\n      call\n      swap3\n      pop\n      pop\n      pop\n      returndatasize\n      dup1\n      0x00\n      dup2\n      eq\n      tag_97\n      jumpi\n      mload(0x40)\n      swap2\n      pop\n      and(add(returndatasize, 0x3f), not(0x1f))\n      dup3\n      add\n      0x40\n      mstore\n      returndatasize\n      dup3\n      mstore\n      returndatasize\n      0x00\n      0x20\n      dup5\n      add\n      returndatacopy\n      jump(tag_96)\n    tag_97:\n      0x60\n      swap2\n      pop\n    tag_96:\n      pop\n        /* \"contracts/FundMe.sol\":2968:3062  (success, ) = payable(msg.sender).call{value: address(this).balance}(... */\n      pop\n      dup1\n      swap2\n      pop\n      pop\n        /* \"contracts/FundMe.sol\":3080:3087  success */\n      dup1\n        /* \"contracts/FundMe.sol\":3072:3110  require(success, \"transfer tx failed\") */\n      tag_98\n      jumpi\n      mload(0x40)\n      0x08c379a000000000000000000000000000000000000000000000000000000000\n      dup2\n      mstore\n      0x04\n      add\n      tag_99\n      swap1\n      tag_72\n      jump\t// in\n    tag_99:\n      mload(0x40)\n      dup1\n      swap2\n      sub\n      swap1\n      revert\n    tag_98:\n        /* \"contracts/FundMe.sol\":3150:3151  0 */\n      0x00\n        /* \"contracts/FundMe.sol\":3121:3135  funderToAmount */\n      dup1\n        /* \"contracts/FundMe.sol\":3121:3147  funderToAmount[msg.sender] */\n      0x00\n        /* \"contracts/FundMe.sol\":3136:3146  msg.sender */\n      caller\n        /* \"contracts/FundMe.sol\":3121:3147  funderToAmount[msg.sender] */\n      0xffffffffffffffffffffffffffffffffffffffff\n      and\n      0xffffffffffffffffffffffffffffffffffffffff\n      and\n      dup2\n      mstore\n      0x20\n      add\n      swap1\n      dup2\n      mstore\n      0x20\n      add\n      0x00\n      keccak256\n        /* \"contracts/FundMe.sol\":3121:3151  funderToAmount[msg.sender] = 0 */\n      dup2\n      swap1\n      sstore\n      pop\n        /* \"contracts/FundMe.sol\":2418:3158  {... */\n      pop\n        /* \"contracts/FundMe.sol\":2368:3158  function getFund() external windowClosed onlyOwner{... */\n      jump\t// out\n        /* \"contracts/FundMe.sol\":989:1440  function fund() external payable {... */\n    tag_39:\n        /* \"contracts/FundMe.sol\":1173:1181  lockTime */\n      sload(0x05)\n        /* \"contracts/FundMe.sol\":1151:1170  deploymentTimestamp */\n      sload(0x04)\n        /* \"contracts/FundMe.sol\":1151:1181  deploymentTimestamp + lockTime */\n      tag_101\n      swap2\n      swap1\n      tag_52\n      jump\t// in\n    tag_101:\n        /* \"contracts/FundMe.sol\":1133:1148  block.timestamp */\n      timestamp\n        /* \"contracts/FundMe.sol\":1133:1181  block.timestamp < deploymentTimestamp + lockTime */\n      lt\n        /* \"contracts/FundMe.sol\":1112:1223  require(... */\n      tag_102\n      jumpi\n      mload(0x40)\n      0x08c379a000000000000000000000000000000000000000000000000000000000\n      dup2\n      mstore\n      0x04\n      add\n      tag_103\n      swap1\n      tag_104\n      jump\t// in\n    tag_103:\n      mload(0x40)\n      dup1\n      swap2\n      sub\n      swap1\n      revert\n    tag_102:\n        /* \"contracts/FundMe.sol\":1308:1320  MINMUM_VALUE */\n      sload(0x01)\n        /* \"contracts/FundMe.sol\":1278:1304  convertEthToUsd(msg.value) */\n      tag_105\n        /* \"contracts/FundMe.sol\":1294:1303  msg.value */\n      callvalue\n        /* \"contracts/FundMe.sol\":1278:1293  convertEthToUsd */\n      tag_58\n        /* \"contracts/FundMe.sol\":1278:1304  convertEthToUsd(msg.value) */\n      jump\t// in\n    tag_105:\n        /* \"contracts/FundMe.sol\":1278:1320  convertEthToUsd(msg.value) >= MINMUM_VALUE */\n      lt\n      iszero\n        /* \"contracts/FundMe.sol\":1270:1338  require(convertEthToUsd(msg.value) >= MINMUM_VALUE, \"send more ETH\") */\n      tag_106\n      jumpi\n      mload(0x40)\n      0x08c379a000000000000000000000000000000000000000000000000000000000\n      dup2\n      mstore\n      0x04\n      add\n      tag_107\n      swap1\n      tag_108\n      jump\t// in\n    tag_107:\n      mload(0x40)\n      dup1\n      swap2\n      sub\n      swap1\n      revert\n    tag_106:\n        /* \"contracts/FundMe.sol\":1424:1433  msg.value */\n      callvalue\n        /* \"contracts/FundMe.sol\":1395:1409  funderToAmount */\n      0x00\n        /* \"contracts/FundMe.sol\":1395:1421  funderToAmount[msg.sender] */\n      dup1\n        /* \"contracts/FundMe.sol\":1410:1420  msg.sender */\n      caller\n        /* \"contracts/FundMe.sol\":1395:1421  funderToAmount[msg.sender] */\n      0xffffffffffffffffffffffffffffffffffffffff\n      and\n      0xffffffffffffffffffffffffffffffffffffffff\n      and\n      dup2\n      mstore\n      0x20\n      add\n      swap1\n      dup2\n      mstore\n      0x20\n      add\n      0x00\n      keccak256\n        /* \"contracts/FundMe.sol\":1395:1433  funderToAmount[msg.sender] = msg.value */\n      dup2\n      swap1\n      sstore\n      pop\n        /* \"contracts/FundMe.sol\":989:1440  function fund() external payable {... */\n      jump\t// out\n        /* \"contracts/FundMe.sol\":1496:1837  function getChainlinkDataFeedLatestAnswer() public view returns (int256) {... */\n    tag_42:\n        /* \"contracts/FundMe.sol\":1561:1567  int256 */\n      0x00\n        /* \"contracts/FundMe.sol\":1654:1664  int answer */\n      dup1\n        /* \"contracts/FundMe.sol\":1781:1789  dataFeed */\n      0x02\n      0x00\n      swap1\n      sload\n      swap1\n      0x0100\n      exp\n      swap1\n      div\n      0xffffffffffffffffffffffffffffffffffffffff\n      and\n        /* \"contracts/FundMe.sol\":1781:1805  dataFeed.latestRoundData */\n      0xffffffffffffffffffffffffffffffffffffffff\n      and\n      0xfeaf968c\n        /* \"contracts/FundMe.sol\":1781:1807  dataFeed.latestRoundData() */\n      mload(0x40)\n      dup2\n      0xffffffff\n      and\n      0xe0\n      shl\n      dup2\n      mstore\n      0x04\n      add\n      0xa0\n      mload(0x40)\n      dup1\n      dup4\n      sub\n      dup2\n      dup7\n      gas\n      staticcall\n      iszero\n      dup1\n      iszero\n      tag_111\n      jumpi\n      returndatasize\n      0x00\n      dup1\n      returndatacopy\n      revert(0x00, returndatasize)\n    tag_111:\n      pop\n      pop\n      pop\n      pop\n      mload(0x40)\n      returndatasize\n      not(0x1f)\n      0x1f\n      dup3\n      add\n      and\n      dup3\n      add\n      dup1\n      0x40\n      mstore\n      pop\n      dup2\n      add\n      swap1\n      tag_112\n      swap2\n      swap1\n      tag_113\n      jump\t// in\n    tag_112:\n        /* \"contracts/FundMe.sol\":1606:1807  (... */\n      pop\n      pop\n      pop\n      swap2\n      pop\n      pop\n        /* \"contracts/FundMe.sol\":1824:1830  answer */\n      dup1\n        /* \"contracts/FundMe.sol\":1817:1830  return answer */\n      swap2\n      pop\n      pop\n        /* \"contracts/FundMe.sol\":1496:1837  function getChainlinkDataFeedLatestAnswer() public view returns (int256) {... */\n      swap1\n      jump\t// out\n        /* \"contracts/FundMe.sol\":3793:4017  function setFunderToAmount(address funder,uint256 amountToUpdate) external {... */\n    tag_49:\n        /* \"contracts/FundMe.sol\":3900:3909  erc20Addr */\n      0x06\n      0x00\n      swap1\n      sload\n      swap1\n      0x0100\n      exp\n      swap1\n      div\n      0xffffffffffffffffffffffffffffffffffffffff\n      and\n        /* \"contracts/FundMe.sol\":3886:3909  msg.sender == erc20Addr */\n      0xffffffffffffffffffffffffffffffffffffffff\n      and\n        /* \"contracts/FundMe.sol\":3886:3896  msg.sender */\n      caller\n        /* \"contracts/FundMe.sol\":3886:3909  msg.sender == erc20Addr */\n      0xffffffffffffffffffffffffffffffffffffffff\n      and\n      eq\n        /* \"contracts/FundMe.sol\":3878:3961  require(msg.sender == erc20Addr,\"you do not have permission to call this function\") */\n      tag_115\n      jumpi\n      mload(0x40)\n      0x08c379a000000000000000000000000000000000000000000000000000000000\n      dup2\n      mstore\n      0x04\n      add\n      tag_116\n      swap1\n      tag_117\n      jump\t// in\n    tag_116:\n      mload(0x40)\n      dup1\n      swap2\n      sub\n      swap1\n      revert\n    tag_115:\n        /* \"contracts/FundMe.sol\":3996:4010  amountToUpdate */\n      dup1\n        /* \"contracts/FundMe.sol\":3971:3985  funderToAmount */\n      0x00\n        /* \"contracts/FundMe.sol\":3971:3993  funderToAmount[funder] */\n      dup1\n        /* \"contracts/FundMe.sol\":3986:3992  funder */\n      dup5\n        /* \"contracts/FundMe.sol\":3971:3993  funderToAmount[funder] */\n      0xffffffffffffffffffffffffffffffffffffffff\n      and\n      0xffffffffffffffffffffffffffffffffffffffff\n      and\n      dup2\n      mstore\n      0x20\n      add\n      swap1\n      dup2\n      mstore\n      0x20\n      add\n      0x00\n      keccak256\n        /* \"contracts/FundMe.sol\":3971:4010  funderToAmount[funder] = amountToUpdate */\n      dup2\n      swap1\n      sstore\n      pop\n        /* \"contracts/FundMe.sol\":3793:4017  function setFunderToAmount(address funder,uint256 amountToUpdate) external {... */\n      pop\n      pop\n      jump\t// out\n        /* \"contracts/FundMe.sol\":1843:2201  function convertEthToUsd(uint256 ethAmount)... */\n    tag_58:\n        /* \"contracts/FundMe.sol\":1934:1941  uint256 */\n      0x00\n        /* \"contracts/FundMe.sol\":2009:2025  uint256 ethPrice */\n      dup1\n        /* \"contracts/FundMe.sol\":2036:2070  getChainlinkDataFeedLatestAnswer() */\n      tag_119\n        /* \"contracts/FundMe.sol\":2036:2068  getChainlinkDataFeedLatestAnswer */\n      tag_42\n        /* \"contracts/FundMe.sol\":2036:2070  getChainlinkDataFeedLatestAnswer() */\n      jump\t// in\n    tag_119:\n        /* \"contracts/FundMe.sol\":2009:2071  uint256 ethPrice = uint256(getChainlinkDataFeedLatestAnswer()) */\n      swap1\n      pop\n        /* \"contracts/FundMe.sol\":2188:2193  10**8 */\n      0x05f5e100\n        /* \"contracts/FundMe.sol\":2175:2183  ethPrice */\n      dup2\n        /* \"contracts/FundMe.sol\":2163:2172  ethAmount */\n      dup5\n        /* \"contracts/FundMe.sol\":2163:2183  ethAmount * ethPrice */\n      tag_120\n      swap2\n      swap1\n      tag_121\n      jump\t// in\n    tag_120:\n        /* \"contracts/FundMe.sol\":2162:2194  (ethAmount * ethPrice) / (10**8) */\n      tag_122\n      swap2\n      swap1\n      tag_123\n      jump\t// in\n    tag_122:\n        /* \"contracts/FundMe.sol\":2155:2194  return (ethAmount * ethPrice) / (10**8) */\n      swap2\n      pop\n      pop\n        /* \"contracts/FundMe.sol\":1843:2201  function convertEthToUsd(uint256 ethAmount)... */\n      swap2\n      swap1\n      pop\n      jump\t// out\n        /* \"#utility.yul\":88:205   */\n    tag_125:\n        /* \"#utility.yul\":197:198   */\n      0x00\n        /* \"#utility.yul\":194:195   */\n      dup1\n        /* \"#utility.yul\":187:199   */\n      revert\n        /* \"#utility.yul\":334:460   */\n    tag_127:\n        /* \"#utility.yul\":371:378   */\n      0x00\n        /* \"#utility.yul\":411:453   */\n      0xffffffffffffffffffffffffffffffffffffffff\n        /* \"#utility.yul\":404:409   */\n      dup3\n        /* \"#utility.yul\":400:454   */\n      and\n        /* \"#utility.yul\":389:454   */\n      swap1\n      pop\n        /* \"#utility.yul\":334:460   */\n      swap2\n      swap1\n      pop\n      jump\t// out\n        /* \"#utility.yul\":466:562   */\n    tag_128:\n        /* \"#utility.yul\":503:510   */\n      0x00\n        /* \"#utility.yul\":532:556   */\n      tag_174\n        /* \"#utility.yul\":550:555   */\n      dup3\n        /* \"#utility.yul\":532:556   */\n      tag_127\n      jump\t// in\n    tag_174:\n        /* \"#utility.yul\":521:556   */\n      swap1\n      pop\n        /* \"#utility.yul\":466:562   */\n      swap2\n      swap1\n      pop\n      jump\t// out\n        /* \"#utility.yul\":568:690   */\n    tag_129:\n        /* \"#utility.yul\":641:665   */\n      tag_176\n        /* \"#utility.yul\":659:664   */\n      dup2\n        /* \"#utility.yul\":641:665   */\n      tag_128\n      jump\t// in\n    tag_176:\n        /* \"#utility.yul\":634:639   */\n      dup2\n        /* \"#utility.yul\":631:666   */\n      eq\n        /* \"#utility.yul\":621:684   */\n      tag_177\n      jumpi\n        /* \"#utility.yul\":680:681   */\n      0x00\n        /* \"#utility.yul\":677:678   */\n      dup1\n        /* \"#utility.yul\":670:682   */\n      revert\n        /* \"#utility.yul\":621:684   */\n    tag_177:\n        /* \"#utility.yul\":568:690   */\n      pop\n      jump\t// out\n        /* \"#utility.yul\":696:835   */\n    tag_130:\n        /* \"#utility.yul\":742:747   */\n      0x00\n        /* \"#utility.yul\":780:786   */\n      dup2\n        /* \"#utility.yul\":767:787   */\n      calldataload\n        /* \"#utility.yul\":758:787   */\n      swap1\n      pop\n        /* \"#utility.yul\":796:829   */\n      tag_179\n        /* \"#utility.yul\":823:828   */\n      dup2\n        /* \"#utility.yul\":796:829   */\n      tag_129\n      jump\t// in\n    tag_179:\n        /* \"#utility.yul\":696:835   */\n      swap3\n      swap2\n      pop\n      pop\n      jump\t// out\n        /* \"#utility.yul\":841:1170   */\n    tag_18:\n        /* \"#utility.yul\":900:906   */\n      0x00\n        /* \"#utility.yul\":949:951   */\n      0x20\n        /* \"#utility.yul\":937:946   */\n      dup3\n        /* \"#utility.yul\":928:935   */\n      dup5\n        /* \"#utility.yul\":924:947   */\n      sub\n        /* \"#utility.yul\":920:952   */\n      slt\n        /* \"#utility.yul\":917:1036   */\n      iszero\n      tag_181\n      jumpi\n        /* \"#utility.yul\":955:1034   */\n      tag_182\n      tag_125\n      jump\t// in\n    tag_182:\n        /* \"#utility.yul\":917:1036   */\n    tag_181:\n        /* \"#utility.yul\":1075:1076   */\n      0x00\n        /* \"#utility.yul\":1100:1153   */\n      tag_183\n        /* \"#utility.yul\":1145:1152   */\n      dup5\n        /* \"#utility.yul\":1136:1142   */\n      dup3\n        /* \"#utility.yul\":1125:1134   */\n      dup6\n        /* \"#utility.yul\":1121:1143   */\n      add\n        /* \"#utility.yul\":1100:1153   */\n      tag_130\n      jump\t// in\n    tag_183:\n        /* \"#utility.yul\":1090:1153   */\n      swap2\n      pop\n        /* \"#utility.yul\":1046:1163   */\n      pop\n        /* \"#utility.yul\":841:1170   */\n      swap3\n      swap2\n      pop\n      pop\n      jump\t// out\n        /* \"#utility.yul\":1176:1253   */\n    tag_131:\n        /* \"#utility.yul\":1213:1220   */\n      0x00\n        /* \"#utility.yul\":1242:1247   */\n      dup2\n        /* \"#utility.yul\":1231:1247   */\n      swap1\n      pop\n        /* \"#utility.yul\":1176:1253   */\n      swap2\n      swap1\n      pop\n      jump\t// out\n        /* \"#utility.yul\":1259:1377   */\n    tag_132:\n        /* \"#utility.yul\":1346:1370   */\n      tag_186\n        /* \"#utility.yul\":1364:1369   */\n      dup2\n        /* \"#utility.yul\":1346:1370   */\n      tag_131\n      jump\t// in\n    tag_186:\n        /* \"#utility.yul\":1341:1344   */\n      dup3\n        /* \"#utility.yul\":1334:1371   */\n      mstore\n        /* \"#utility.yul\":1259:1377   */\n      pop\n      pop\n      jump\t// out\n        /* \"#utility.yul\":1383:1605   */\n    tag_25:\n        /* \"#utility.yul\":1476:1480   */\n      0x00\n        /* \"#utility.yul\":1514:1516   */\n      0x20\n        /* \"#utility.yul\":1503:1512   */\n      dup3\n        /* \"#utility.yul\":1499:1517   */\n      add\n        /* \"#utility.yul\":1491:1517   */\n      swap1\n      pop\n        /* \"#utility.yul\":1527:1598   */\n      tag_188\n        /* \"#utility.yul\":1595:1596   */\n      0x00\n        /* \"#utility.yul\":1584:1593   */\n      dup4\n        /* \"#utility.yul\":1580:1597   */\n      add\n        /* \"#utility.yul\":1571:1577   */\n      dup5\n        /* \"#utility.yul\":1527:1598   */\n      tag_132\n      jump\t// in\n    tag_188:\n        /* \"#utility.yul\":1383:1605   */\n      swap3\n      swap2\n      pop\n      pop\n      jump\t// out\n        /* \"#utility.yul\":1611:1729   */\n    tag_133:\n        /* \"#utility.yul\":1698:1722   */\n      tag_190\n        /* \"#utility.yul\":1716:1721   */\n      dup2\n        /* \"#utility.yul\":1698:1722   */\n      tag_128\n      jump\t// in\n    tag_190:\n        /* \"#utility.yul\":1693:1696   */\n      dup3\n        /* \"#utility.yul\":1686:1723   */\n      mstore\n        /* \"#utility.yul\":1611:1729   */\n      pop\n      pop\n      jump\t// out\n        /* \"#utility.yul\":1735:1957   */\n    tag_34:\n        /* \"#utility.yul\":1828:1832   */\n      0x00\n        /* \"#utility.yul\":1866:1868   */\n      0x20\n        /* \"#utility.yul\":1855:1864   */\n      dup3\n        /* \"#utility.yul\":1851:1869   */\n      add\n        /* \"#utility.yul\":1843:1869   */\n      swap1\n      pop\n        /* \"#utility.yul\":1879:1950   */\n      tag_192\n        /* \"#utility.yul\":1947:1948   */\n      0x00\n        /* \"#utility.yul\":1936:1945   */\n      dup4\n        /* \"#utility.yul\":1932:1949   */\n      add\n        /* \"#utility.yul\":1923:1929   */\n      dup5\n        /* \"#utility.yul\":1879:1950   */\n      tag_133\n      jump\t// in\n    tag_192:\n        /* \"#utility.yul\":1735:1957   */\n      swap3\n      swap2\n      pop\n      pop\n      jump\t// out\n        /* \"#utility.yul\":1963:2039   */\n    tag_134:\n        /* \"#utility.yul\":1999:2006   */\n      0x00\n        /* \"#utility.yul\":2028:2033   */\n      dup2\n        /* \"#utility.yul\":2017:2033   */\n      swap1\n      pop\n        /* \"#utility.yul\":1963:2039   */\n      swap2\n      swap1\n      pop\n      jump\t// out\n        /* \"#utility.yul\":2045:2160   */\n    tag_135:\n        /* \"#utility.yul\":2130:2153   */\n      tag_195\n        /* \"#utility.yul\":2147:2152   */\n      dup2\n        /* \"#utility.yul\":2130:2153   */\n      tag_134\n      jump\t// in\n    tag_195:\n        /* \"#utility.yul\":2125:2128   */\n      dup3\n        /* \"#utility.yul\":2118:2154   */\n      mstore\n        /* \"#utility.yul\":2045:2160   */\n      pop\n      pop\n      jump\t// out\n        /* \"#utility.yul\":2166:2384   */\n    tag_44:\n        /* \"#utility.yul\":2257:2261   */\n      0x00\n        /* \"#utility.yul\":2295:2297   */\n      0x20\n        /* \"#utility.yul\":2284:2293   */\n      dup3\n        /* \"#utility.yul\":2280:2298   */\n      add\n        /* \"#utility.yul\":2272:2298   */\n      swap1\n      pop\n        /* \"#utility.yul\":2308:2377   */\n      tag_197\n        /* \"#utility.yul\":2374:2375   */\n      0x00\n        /* \"#utility.yul\":2363:2372   */\n      dup4\n        /* \"#utility.yul\":2359:2376   */\n      add\n        /* \"#utility.yul\":2350:2356   */\n      dup5\n        /* \"#utility.yul\":2308:2377   */\n      tag_135\n      jump\t// in\n    tag_197:\n        /* \"#utility.yul\":2166:2384   */\n      swap3\n      swap2\n      pop\n      pop\n      jump\t// out\n        /* \"#utility.yul\":2390:2512   */\n    tag_136:\n        /* \"#utility.yul\":2463:2487   */\n      tag_199\n        /* \"#utility.yul\":2481:2486   */\n      dup2\n        /* \"#utility.yul\":2463:2487   */\n      tag_131\n      jump\t// in\n    tag_199:\n        /* \"#utility.yul\":2456:2461   */\n      dup2\n        /* \"#utility.yul\":2453:2488   */\n      eq\n        /* \"#utility.yul\":2443:2506   */\n      tag_200\n      jumpi\n        /* \"#utility.yul\":2502:2503   */\n      0x00\n        /* \"#utility.yul\":2499:2500   */\n      dup1\n        /* \"#utility.yul\":2492:2504   */\n      revert\n        /* \"#utility.yul\":2443:2506   */\n    tag_200:\n        /* \"#utility.yul\":2390:2512   */\n      pop\n      jump\t// out\n        /* \"#utility.yul\":2518:2657   */\n    tag_137:\n        /* \"#utility.yul\":2564:2569   */\n      0x00\n        /* \"#utility.yul\":2602:2608   */\n      dup2\n        /* \"#utility.yul\":2589:2609   */\n      calldataload\n        /* \"#utility.yul\":2580:2609   */\n      swap1\n      pop\n        /* \"#utility.yul\":2618:2651   */\n      tag_202\n        /* \"#utility.yul\":2645:2650   */\n      dup2\n        /* \"#utility.yul\":2618:2651   */\n      tag_136\n      jump\t// in\n    tag_202:\n        /* \"#utility.yul\":2518:2657   */\n      swap3\n      swap2\n      pop\n      pop\n      jump\t// out\n        /* \"#utility.yul\":2663:3137   */\n    tag_48:\n        /* \"#utility.yul\":2731:2737   */\n      0x00\n        /* \"#utility.yul\":2739:2745   */\n      dup1\n        /* \"#utility.yul\":2788:2790   */\n      0x40\n        /* \"#utility.yul\":2776:2785   */\n      dup4\n        /* \"#utility.yul\":2767:2774   */\n      dup6\n        /* \"#utility.yul\":2763:2786   */\n      sub\n        /* \"#utility.yul\":2759:2791   */\n      slt\n        /* \"#utility.yul\":2756:2875   */\n      iszero\n      tag_204\n      jumpi\n        /* \"#utility.yul\":2794:2873   */\n      tag_205\n      tag_125\n      jump\t// in\n    tag_205:\n        /* \"#utility.yul\":2756:2875   */\n    tag_204:\n        /* \"#utility.yul\":2914:2915   */\n      0x00\n        /* \"#utility.yul\":2939:2992   */\n      tag_206\n        /* \"#utility.yul\":2984:2991   */\n      dup6\n        /* \"#utility.yul\":2975:2981   */\n      dup3\n        /* \"#utility.yul\":2964:2973   */\n      dup7\n        /* \"#utility.yul\":2960:2982   */\n      add\n        /* \"#utility.yul\":2939:2992   */\n      tag_130\n      jump\t// in\n    tag_206:\n        /* \"#utility.yul\":2929:2992   */\n      swap3\n      pop\n        /* \"#utility.yul\":2885:3002   */\n      pop\n        /* \"#utility.yul\":3041:3043   */\n      0x20\n        /* \"#utility.yul\":3067:3120   */\n      tag_207\n        /* \"#utility.yul\":3112:3119   */\n      dup6\n        /* \"#utility.yul\":3103:3109   */\n      dup3\n        /* \"#utility.yul\":3092:3101   */\n      dup7\n        /* \"#utility.yul\":3088:3110   */\n      add\n        /* \"#utility.yul\":3067:3120   */\n      tag_137\n      jump\t// in\n    tag_207:\n        /* \"#utility.yul\":3057:3120   */\n      swap2\n      pop\n        /* \"#utility.yul\":3012:3130   */\n      pop\n        /* \"#utility.yul\":2663:3137   */\n      swap3\n      pop\n      swap3\n      swap1\n      pop\n      jump\t// out\n        /* \"#utility.yul\":3143:3323   */\n    tag_138:\n        /* \"#utility.yul\":3191:3268   */\n      0x4e487b7100000000000000000000000000000000000000000000000000000000\n        /* \"#utility.yul\":3188:3189   */\n      0x00\n        /* \"#utility.yul\":3181:3269   */\n      mstore\n        /* \"#utility.yul\":3288:3292   */\n      0x11\n        /* \"#utility.yul\":3285:3286   */\n      0x04\n        /* \"#utility.yul\":3278:3293   */\n      mstore\n        /* \"#utility.yul\":3312:3316   */\n      0x24\n        /* \"#utility.yul\":3309:3310   */\n      0x00\n        /* \"#utility.yul\":3302:3317   */\n      revert\n        /* \"#utility.yul\":3329:3520   */\n    tag_52:\n        /* \"#utility.yul\":3369:3372   */\n      0x00\n        /* \"#utility.yul\":3388:3408   */\n      tag_210\n        /* \"#utility.yul\":3406:3407   */\n      dup3\n        /* \"#utility.yul\":3388:3408   */\n      tag_131\n      jump\t// in\n    tag_210:\n        /* \"#utility.yul\":3383:3408   */\n      swap2\n      pop\n        /* \"#utility.yul\":3422:3442   */\n      tag_211\n        /* \"#utility.yul\":3440:3441   */\n      dup4\n        /* \"#utility.yul\":3422:3442   */\n      tag_131\n      jump\t// in\n    tag_211:\n        /* \"#utility.yul\":3417:3442   */\n      swap3\n      pop\n        /* \"#utility.yul\":3465:3466   */\n      dup3\n        /* \"#utility.yul\":3462:3463   */\n      dup3\n        /* \"#utility.yul\":3458:3467   */\n      add\n        /* \"#utility.yul\":3451:3467   */\n      swap1\n      pop\n        /* \"#utility.yul\":3486:3489   */\n      dup1\n        /* \"#utility.yul\":3483:3484   */\n      dup3\n        /* \"#utility.yul\":3480:3490   */\n      gt\n        /* \"#utility.yul\":3477:3513   */\n      iszero\n      tag_212\n      jumpi\n        /* \"#utility.yul\":3493:3511   */\n      tag_213\n      tag_138\n      jump\t// in\n    tag_213:\n        /* \"#utility.yul\":3477:3513   */\n    tag_212:\n        /* \"#utility.yul\":3329:3520   */\n      swap3\n      swap2\n      pop\n      pop\n      jump\t// out\n        /* \"#utility.yul\":3526:3695   */\n    tag_139:\n        /* \"#utility.yul\":3610:3621   */\n      0x00\n        /* \"#utility.yul\":3644:3650   */\n      dup3\n        /* \"#utility.yul\":3639:3642   */\n      dup3\n        /* \"#utility.yul\":3632:3651   */\n      mstore\n        /* \"#utility.yul\":3684:3688   */\n      0x20\n        /* \"#utility.yul\":3679:3682   */\n      dup3\n        /* \"#utility.yul\":3675:3689   */\n      add\n        /* \"#utility.yul\":3660:3689   */\n      swap1\n      pop\n        /* \"#utility.yul\":3526:3695   */\n      swap3\n      swap2\n      pop\n      pop\n      jump\t// out\n        /* \"#utility.yul\":3701:3871   */\n    tag_140:\n        /* \"#utility.yul\":3841:3863   */\n      0x77696e646f77206973206e6f7420636c6f736564000000000000000000000000\n        /* \"#utility.yul\":3837:3838   */\n      0x00\n        /* \"#utility.yul\":3829:3835   */\n      dup3\n        /* \"#utility.yul\":3825:3839   */\n      add\n        /* \"#utility.yul\":3818:3864   */\n      mstore\n        /* \"#utility.yul\":3701:3871   */\n      pop\n      jump\t// out\n        /* \"#utility.yul\":3877:4243   */\n    tag_141:\n        /* \"#utility.yul\":4019:4022   */\n      0x00\n        /* \"#utility.yul\":4040:4107   */\n      tag_217\n        /* \"#utility.yul\":4104:4106   */\n      0x14\n        /* \"#utility.yul\":4099:4102   */\n      dup4\n        /* \"#utility.yul\":4040:4107   */\n      tag_139\n      jump\t// in\n    tag_217:\n        /* \"#utility.yul\":4033:4107   */\n      swap2\n      pop\n        /* \"#utility.yul\":4116:4209   */\n      tag_218\n        /* \"#utility.yul\":4205:4208   */\n      dup3\n        /* \"#utility.yul\":4116:4209   */\n      tag_140\n      jump\t// in\n    tag_218:\n        /* \"#utility.yul\":4234:4236   */\n      0x20\n        /* \"#utility.yul\":4229:4232   */\n      dup3\n        /* \"#utility.yul\":4225:4237   */\n      add\n        /* \"#utility.yul\":4218:4237   */\n      swap1\n      pop\n        /* \"#utility.yul\":3877:4243   */\n      swap2\n      swap1\n      pop\n      jump\t// out\n        /* \"#utility.yul\":4249:4668   */\n    tag_55:\n        /* \"#utility.yul\":4415:4419   */\n      0x00\n        /* \"#utility.yul\":4453:4455   */\n      0x20\n        /* \"#utility.yul\":4442:4451   */\n      dup3\n        /* \"#utility.yul\":4438:4456   */\n      add\n        /* \"#utility.yul\":4430:4456   */\n      swap1\n      pop\n        /* \"#utility.yul\":4502:4511   */\n      dup2\n        /* \"#utility.yul\":4496:4500   */\n      dup2\n        /* \"#utility.yul\":4492:4512   */\n      sub\n        /* \"#utility.yul\":4488:4489   */\n      0x00\n        /* \"#utility.yul\":4477:4486   */\n      dup4\n        /* \"#utility.yul\":4473:4490   */\n      add\n        /* \"#utility.yul\":4466:4513   */\n      mstore\n        /* \"#utility.yul\":4530:4661   */\n      tag_220\n        /* \"#utility.yul\":4656:4660   */\n      dup2\n        /* \"#utility.yul\":4530:4661   */\n      tag_141\n      jump\t// in\n    tag_220:\n        /* \"#utility.yul\":4522:4661   */\n      swap1\n      pop\n        /* \"#utility.yul\":4249:4668   */\n      swap2\n      swap1\n      pop\n      jump\t// out\n        /* \"#utility.yul\":4674:4841   */\n    tag_142:\n        /* \"#utility.yul\":4814:4833   */\n      0x7461726765742069732072656163686564000000000000000000000000000000\n        /* \"#utility.yul\":4810:4811   */\n      0x00\n        /* \"#utility.yul\":4802:4808   */\n      dup3\n        /* \"#utility.yul\":4798:4812   */\n      add\n        /* \"#utility.yul\":4791:4834   */\n      mstore\n        /* \"#utility.yul\":4674:4841   */\n      pop\n      jump\t// out\n        /* \"#utility.yul\":4847:5213   */\n    tag_143:\n        /* \"#utility.yul\":4989:4992   */\n      0x00\n        /* \"#utility.yul\":5010:5077   */\n      tag_223\n        /* \"#utility.yul\":5074:5076   */\n      0x11\n        /* \"#utility.yul\":5069:5072   */\n      dup4\n        /* \"#utility.yul\":5010:5077   */\n      tag_139\n      jump\t// in\n    tag_223:\n        /* \"#utility.yul\":5003:5077   */\n      swap2\n      pop\n        /* \"#utility.yul\":5086:5179   */\n      tag_224\n        /* \"#utility.yul\":5175:5178   */\n      dup3\n        /* \"#utility.yul\":5086:5179   */\n      tag_142\n      jump\t// in\n    tag_224:\n        /* \"#utility.yul\":5204:5206   */\n      0x20\n        /* \"#utility.yul\":5199:5202   */\n      dup3\n        /* \"#utility.yul\":5195:5207   */\n      add\n        /* \"#utility.yul\":5188:5207   */\n      swap1\n      pop\n        /* \"#utility.yul\":4847:5213   */\n      swap2\n      swap1\n      pop\n      jump\t// out\n        /* \"#utility.yul\":5219:5638   */\n    tag_61:\n        /* \"#utility.yul\":5385:5389   */\n      0x00\n        /* \"#utility.yul\":5423:5425   */\n      0x20\n        /* \"#utility.yul\":5412:5421   */\n      dup3\n        /* \"#utility.yul\":5408:5426   */\n      add\n        /* \"#utility.yul\":5400:5426   */\n      swap1\n      pop\n        /* \"#utility.yul\":5472:5481   */\n      dup2\n        /* \"#utility.yul\":5466:5470   */\n      dup2\n        /* \"#utility.yul\":5462:5482   */\n      sub\n        /* \"#utility.yul\":5458:5459   */\n      0x00\n        /* \"#utility.yul\":5447:5456   */\n      dup4\n        /* \"#utility.yul\":5443:5460   */\n      add\n        /* \"#utility.yul\":5436:5483   */\n      mstore\n        /* \"#utility.yul\":5500:5631   */\n      tag_226\n        /* \"#utility.yul\":5626:5630   */\n      dup2\n        /* \"#utility.yul\":5500:5631   */\n      tag_143\n      jump\t// in\n    tag_226:\n        /* \"#utility.yul\":5492:5631   */\n      swap1\n      pop\n        /* \"#utility.yul\":5219:5638   */\n      swap2\n      swap1\n      pop\n      jump\t// out\n        /* \"#utility.yul\":5644:5819   */\n    tag_144:\n        /* \"#utility.yul\":5784:5811   */\n      0x7468657265206973206e6f742066756e6420666f7220796f7500000000000000\n        /* \"#utility.yul\":5780:5781   */\n      0x00\n        /* \"#utility.yul\":5772:5778   */\n      dup3\n        /* \"#utility.yul\":5768:5782   */\n      add\n        /* \"#utility.yul\":5761:5812   */\n      mstore\n        /* \"#utility.yul\":5644:5819   */\n      pop\n      jump\t// out\n        /* \"#utility.yul\":5825:6191   */\n    tag_145:\n        /* \"#utility.yul\":5967:5970   */\n      0x00\n        /* \"#utility.yul\":5988:6055   */\n      tag_229\n        /* \"#utility.yul\":6052:6054   */\n      0x19\n        /* \"#utility.yul\":6047:6050   */\n      dup4\n        /* \"#utility.yul\":5988:6055   */\n      tag_139\n      jump\t// in\n    tag_229:\n        /* \"#utility.yul\":5981:6055   */\n      swap2\n      pop\n        /* \"#utility.yul\":6064:6157   */\n      tag_230\n        /* \"#utility.yul\":6153:6156   */\n      dup3\n        /* \"#utility.yul\":6064:6157   */\n      tag_144\n      jump\t// in\n    tag_230:\n        /* \"#utility.yul\":6182:6184   */\n      0x20\n        /* \"#utility.yul\":6177:6180   */\n      dup3\n        /* \"#utility.yul\":6173:6185   */\n      add\n        /* \"#utility.yul\":6166:6185   */\n      swap1\n      pop\n        /* \"#utility.yul\":5825:6191   */\n      swap2\n      swap1\n      pop\n      jump\t// out\n        /* \"#utility.yul\":6197:6616   */\n    tag_64:\n        /* \"#utility.yul\":6363:6367   */\n      0x00\n        /* \"#utility.yul\":6401:6403   */\n      0x20\n        /* \"#utility.yul\":6390:6399   */\n      dup3\n        /* \"#utility.yul\":6386:6404   */\n      add\n        /* \"#utility.yul\":6378:6404   */\n      swap1\n      pop\n        /* \"#utility.yul\":6450:6459   */\n      dup2\n        /* \"#utility.yul\":6444:6448   */\n      dup2\n        /* \"#utility.yul\":6440:6460   */\n      sub\n        /* \"#utility.yul\":6436:6437   */\n      0x00\n        /* \"#utility.yul\":6425:6434   */\n      dup4\n        /* \"#utility.yul\":6421:6438   */\n      add\n        /* \"#utility.yul\":6414:6461   */\n      mstore\n        /* \"#utility.yul\":6478:6609   */\n      tag_232\n        /* \"#utility.yul\":6604:6608   */\n      dup2\n        /* \"#utility.yul\":6478:6609   */\n      tag_145\n      jump\t// in\n    tag_232:\n        /* \"#utility.yul\":6470:6609   */\n      swap1\n      pop\n        /* \"#utility.yul\":6197:6616   */\n      swap2\n      swap1\n      pop\n      jump\t// out\n        /* \"#utility.yul\":6622:6769   */\n    tag_146:\n        /* \"#utility.yul\":6723:6734   */\n      0x00\n        /* \"#utility.yul\":6760:6763   */\n      dup2\n        /* \"#utility.yul\":6745:6763   */\n      swap1\n      pop\n        /* \"#utility.yul\":6622:6769   */\n      swap3\n      swap2\n      pop\n      pop\n      jump\t// out\n        /* \"#utility.yul\":6775:6889   */\n    tag_147:\n      pop\n      jump\t// out\n        /* \"#utility.yul\":6895:7293   */\n    tag_148:\n        /* \"#utility.yul\":7054:7057   */\n      0x00\n        /* \"#utility.yul\":7075:7158   */\n      tag_236\n        /* \"#utility.yul\":7156:7157   */\n      0x00\n        /* \"#utility.yul\":7151:7154   */\n      dup4\n        /* \"#utility.yul\":7075:7158   */\n      tag_146\n      jump\t// in\n    tag_236:\n        /* \"#utility.yul\":7068:7158   */\n      swap2\n      pop\n        /* \"#utility.yul\":7167:7260   */\n      tag_237\n        /* \"#utility.yul\":7256:7259   */\n      dup3\n        /* \"#utility.yul\":7167:7260   */\n      tag_147\n      jump\t// in\n    tag_237:\n        /* \"#utility.yul\":7285:7286   */\n      0x00\n        /* \"#utility.yul\":7280:7283   */\n      dup3\n        /* \"#utility.yul\":7276:7287   */\n      add\n        /* \"#utility.yul\":7269:7287   */\n      swap1\n      pop\n        /* \"#utility.yul\":6895:7293   */\n      swap2\n      swap1\n      pop\n      jump\t// out\n        /* \"#utility.yul\":7299:7678   */\n    tag_66:\n        /* \"#utility.yul\":7483:7486   */\n      0x00\n        /* \"#utility.yul\":7505:7652   */\n      tag_239\n        /* \"#utility.yul\":7648:7651   */\n      dup3\n        /* \"#utility.yul\":7505:7652   */\n      tag_148\n      jump\t// in\n    tag_239:\n        /* \"#utility.yul\":7498:7652   */\n      swap2\n      pop\n        /* \"#utility.yul\":7669:7672   */\n      dup2\n        /* \"#utility.yul\":7662:7672   */\n      swap1\n      pop\n        /* \"#utility.yul\":7299:7678   */\n      swap2\n      swap1\n      pop\n      jump\t// out\n        /* \"#utility.yul\":7684:7852   */\n    tag_149:\n        /* \"#utility.yul\":7824:7844   */\n      0x7472616e73666572207478206661696c65640000000000000000000000000000\n        /* \"#utility.yul\":7820:7821   */\n      0x00\n        /* \"#utility.yul\":7812:7818   */\n      dup3\n        /* \"#utility.yul\":7808:7822   */\n      add\n        /* \"#utility.yul\":7801:7845   */\n      mstore\n        /* \"#utility.yul\":7684:7852   */\n      pop\n      jump\t// out\n        /* \"#utility.yul\":7858:8224   */\n    tag_150:\n        /* \"#utility.yul\":8000:8003   */\n      0x00\n        /* \"#utility.yul\":8021:8088   */\n      tag_242\n        /* \"#utility.yul\":8085:8087   */\n      0x12\n        /* \"#utility.yul\":8080:8083   */\n      dup4\n        /* \"#utility.yul\":8021:8088   */\n      tag_139\n      jump\t// in\n    tag_242:\n        /* \"#utility.yul\":8014:8088   */\n      swap2\n      pop\n        /* \"#utility.yul\":8097:8190   */\n      tag_243\n        /* \"#utility.yul\":8186:8189   */\n      dup3\n        /* \"#utility.yul\":8097:8190   */\n      tag_149\n      jump\t// in\n    tag_243:\n        /* \"#utility.yul\":8215:8217   */\n      0x20\n        /* \"#utility.yul\":8210:8213   */\n      dup3\n        /* \"#utility.yul\":8206:8218   */\n      add\n        /* \"#utility.yul\":8199:8218   */\n      swap1\n      pop\n        /* \"#utility.yul\":7858:8224   */\n      swap2\n      swap1\n      pop\n      jump\t// out\n        /* \"#utility.yul\":8230:8649   */\n    tag_72:\n        /* \"#utility.yul\":8396:8400   */\n      0x00\n        /* \"#utility.yul\":8434:8436   */\n      0x20\n        /* \"#utility.yul\":8423:8432   */\n      dup3\n        /* \"#utility.yul\":8419:8437   */\n      add\n        /* \"#utility.yul\":8411:8437   */\n      swap1\n      pop\n        /* \"#utility.yul\":8483:8492   */\n      dup2\n        /* \"#utility.yul\":8477:8481   */\n      dup2\n        /* \"#utility.yul\":8473:8493   */\n      sub\n        /* \"#utility.yul\":8469:8470   */\n      0x00\n        /* \"#utility.yul\":8458:8467   */\n      dup4\n        /* \"#utility.yul\":8454:8471   */\n      add\n        /* \"#utility.yul\":8447:8494   */\n      mstore\n        /* \"#utility.yul\":8511:8642   */\n      tag_245\n        /* \"#utility.yul\":8637:8641   */\n      dup2\n        /* \"#utility.yul\":8511:8642   */\n      tag_150\n      jump\t// in\n    tag_245:\n        /* \"#utility.yul\":8503:8642   */\n      swap1\n      pop\n        /* \"#utility.yul\":8230:8649   */\n      swap2\n      swap1\n      pop\n      jump\t// out\n        /* \"#utility.yul\":8655:8883   */\n    tag_151:\n        /* \"#utility.yul\":8795:8829   */\n      0x746869732066756e6374696f6e2063616e206f6e6c792062652063616c6c6564\n        /* \"#utility.yul\":8791:8792   */\n      0x00\n        /* \"#utility.yul\":8783:8789   */\n      dup3\n        /* \"#utility.yul\":8779:8793   */\n      add\n        /* \"#utility.yul\":8772:8830   */\n      mstore\n        /* \"#utility.yul\":8864:8875   */\n      0x206279206f776e65720000000000000000000000000000000000000000000000\n        /* \"#utility.yul\":8859:8861   */\n      0x20\n        /* \"#utility.yul\":8851:8857   */\n      dup3\n        /* \"#utility.yul\":8847:8862   */\n      add\n        /* \"#utility.yul\":8840:8876   */\n      mstore\n        /* \"#utility.yul\":8655:8883   */\n      pop\n      jump\t// out\n        /* \"#utility.yul\":8889:9255   */\n    tag_152:\n        /* \"#utility.yul\":9031:9034   */\n      0x00\n        /* \"#utility.yul\":9052:9119   */\n      tag_248\n        /* \"#utility.yul\":9116:9118   */\n      0x29\n        /* \"#utility.yul\":9111:9114   */\n      dup4\n        /* \"#utility.yul\":9052:9119   */\n      tag_139\n      jump\t// in\n    tag_248:\n        /* \"#utility.yul\":9045:9119   */\n      swap2\n      pop\n        /* \"#utility.yul\":9128:9221   */\n      tag_249\n        /* \"#utility.yul\":9217:9220   */\n      dup3\n        /* \"#utility.yul\":9128:9221   */\n      tag_151\n      jump\t// in\n    tag_249:\n        /* \"#utility.yul\":9246:9248   */\n      0x40\n        /* \"#utility.yul\":9241:9244   */\n      dup3\n        /* \"#utility.yul\":9237:9249   */\n      add\n        /* \"#utility.yul\":9230:9249   */\n      swap1\n      pop\n        /* \"#utility.yul\":8889:9255   */\n      swap2\n      swap1\n      pop\n      jump\t// out\n        /* \"#utility.yul\":9261:9680   */\n    tag_76:\n        /* \"#utility.yul\":9427:9431   */\n      0x00\n        /* \"#utility.yul\":9465:9467   */\n      0x20\n        /* \"#utility.yul\":9454:9463   */\n      dup3\n        /* \"#utility.yul\":9450:9468   */\n      add\n        /* \"#utility.yul\":9442:9468   */\n      swap1\n      pop\n        /* \"#utility.yul\":9514:9523   */\n      dup2\n        /* \"#utility.yul\":9508:9512   */\n      dup2\n        /* \"#utility.yul\":9504:9524   */\n      sub\n        /* \"#utility.yul\":9500:9501   */\n      0x00\n        /* \"#utility.yul\":9489:9498   */\n      dup4\n        /* \"#utility.yul\":9485:9502   */\n      add\n        /* \"#utility.yul\":9478:9525   */\n      mstore\n        /* \"#utility.yul\":9542:9673   */\n      tag_251\n        /* \"#utility.yul\":9668:9672   */\n      dup2\n        /* \"#utility.yul\":9542:9673   */\n      tag_152\n      jump\t// in\n    tag_251:\n        /* \"#utility.yul\":9534:9673   */\n      swap1\n      pop\n        /* \"#utility.yul\":9261:9680   */\n      swap2\n      swap1\n      pop\n      jump\t// out\n        /* \"#utility.yul\":9686:9857   */\n    tag_153:\n        /* \"#utility.yul\":9826:9849   */\n      0x746172676574206973206e6f7420726561636865640000000000000000000000\n        /* \"#utility.yul\":9822:9823   */\n      0x00\n        /* \"#utility.yul\":9814:9820   */\n      dup3\n        /* \"#utility.yul\":9810:9824   */\n      add\n        /* \"#utility.yul\":9803:9850   */\n      mstore\n        /* \"#utility.yul\":9686:9857   */\n      pop\n      jump\t// out\n        /* \"#utility.yul\":9863:10229   */\n    tag_154:\n        /* \"#utility.yul\":10005:10008   */\n      0x00\n        /* \"#utility.yul\":10026:10093   */\n      tag_254\n        /* \"#utility.yul\":10090:10092   */\n      0x15\n        /* \"#utility.yul\":10085:10088   */\n      dup4\n        /* \"#utility.yul\":10026:10093   */\n      tag_139\n      jump\t// in\n    tag_254:\n        /* \"#utility.yul\":10019:10093   */\n      swap2\n      pop\n        /* \"#utility.yul\":10102:10195   */\n      tag_255\n        /* \"#utility.yul\":10191:10194   */\n      dup3\n        /* \"#utility.yul\":10102:10195   */\n      tag_153\n      jump\t// in\n    tag_255:\n        /* \"#utility.yul\":10220:10222   */\n      0x20\n        /* \"#utility.yul\":10215:10218   */\n      dup3\n        /* \"#utility.yul\":10211:10223   */\n      add\n        /* \"#utility.yul\":10204:10223   */\n      swap1\n      pop\n        /* \"#utility.yul\":9863:10229   */\n      swap2\n      swap1\n      pop\n      jump\t// out\n        /* \"#utility.yul\":10235:10654   */\n    tag_93:\n        /* \"#utility.yul\":10401:10405   */\n      0x00\n        /* \"#utility.yul\":10439:10441   */\n      0x20\n        /* \"#utility.yul\":10428:10437   */\n      dup3\n        /* \"#utility.yul\":10424:10442   */\n      add\n        /* \"#utility.yul\":10416:10442   */\n      swap1\n      pop\n        /* \"#utility.yul\":10488:10497   */\n      dup2\n        /* \"#utility.yul\":10482:10486   */\n      dup2\n        /* \"#utility.yul\":10478:10498   */\n      sub\n        /* \"#utility.yul\":10474:10475   */\n      0x00\n        /* \"#utility.yul\":10463:10472   */\n      dup4\n        /* \"#utility.yul\":10459:10476   */\n      add\n        /* \"#utility.yul\":10452:10499   */\n      mstore\n        /* \"#utility.yul\":10516:10647   */\n      tag_257\n        /* \"#utility.yul\":10642:10646   */\n      dup2\n        /* \"#utility.yul\":10516:10647   */\n      tag_154\n      jump\t// in\n    tag_257:\n        /* \"#utility.yul\":10508:10647   */\n      swap1\n      pop\n        /* \"#utility.yul\":10235:10654   */\n      swap2\n      swap1\n      pop\n      jump\t// out\n        /* \"#utility.yul\":10660:10826   */\n    tag_155:\n        /* \"#utility.yul\":10800:10818   */\n      0x77696e646f7720697320636c6f73656400000000000000000000000000000000\n        /* \"#utility.yul\":10796:10797   */\n      0x00\n        /* \"#utility.yul\":10788:10794   */\n      dup3\n        /* \"#utility.yul\":10784:10798   */\n      add\n        /* \"#utility.yul\":10777:10819   */\n      mstore\n        /* \"#utility.yul\":10660:10826   */\n      pop\n      jump\t// out\n        /* \"#utility.yul\":10832:11198   */\n    tag_156:\n        /* \"#utility.yul\":10974:10977   */\n      0x00\n        /* \"#utility.yul\":10995:11062   */\n      tag_260\n        /* \"#utility.yul\":11059:11061   */\n      0x10\n        /* \"#utility.yul\":11054:11057   */\n      dup4\n        /* \"#utility.yul\":10995:11062   */\n      tag_139\n      jump\t// in\n    tag_260:\n        /* \"#utility.yul\":10988:11062   */\n      swap2\n      pop\n        /* \"#utility.yul\":11071:11164   */\n      tag_261\n        /* \"#utility.yul\":11160:11163   */\n      dup3\n        /* \"#utility.yul\":11071:11164   */\n      tag_155\n      jump\t// in\n    tag_261:\n        /* \"#utility.yul\":11189:11191   */\n      0x20\n        /* \"#utility.yul\":11184:11187   */\n      dup3\n        /* \"#utility.yul\":11180:11192   */\n      add\n        /* \"#utility.yul\":11173:11192   */\n      swap1\n      pop\n        /* \"#utility.yul\":10832:11198   */\n      swap2\n      swap1\n      pop\n      jump\t// out\n        /* \"#utility.yul\":11204:11623   */\n    tag_104:\n        /* \"#utility.yul\":11370:11374   */\n      0x00\n        /* \"#utility.yul\":11408:11410   */\n      0x20\n        /* \"#utility.yul\":11397:11406   */\n      dup3\n        /* \"#utility.yul\":11393:11411   */\n      add\n        /* \"#utility.yul\":11385:11411   */\n      swap1\n      pop\n        /* \"#utility.yul\":11457:11466   */\n      dup2\n        /* \"#utility.yul\":11451:11455   */\n      dup2\n        /* \"#utility.yul\":11447:11467   */\n      sub\n        /* \"#utility.yul\":11443:11444   */\n      0x00\n        /* \"#utility.yul\":11432:11441   */\n      dup4\n        /* \"#utility.yul\":11428:11445   */\n      add\n        /* \"#utility.yul\":11421:11468   */\n      mstore\n        /* \"#utility.yul\":11485:11616   */\n      tag_263\n        /* \"#utility.yul\":11611:11615   */\n      dup2\n        /* \"#utility.yul\":11485:11616   */\n      tag_156\n      jump\t// in\n    tag_263:\n        /* \"#utility.yul\":11477:11616   */\n      swap1\n      pop\n        /* \"#utility.yul\":11204:11623   */\n      swap2\n      swap1\n      pop\n      jump\t// out\n        /* \"#utility.yul\":11629:11792   */\n    tag_157:\n        /* \"#utility.yul\":11769:11784   */\n      0x73656e64206d6f72652045544800000000000000000000000000000000000000\n        /* \"#utility.yul\":11765:11766   */\n      0x00\n        /* \"#utility.yul\":11757:11763   */\n      dup3\n        /* \"#utility.yul\":11753:11767   */\n      add\n        /* \"#utility.yul\":11746:11785   */\n      mstore\n        /* \"#utility.yul\":11629:11792   */\n      pop\n      jump\t// out\n        /* \"#utility.yul\":11798:12164   */\n    tag_158:\n        /* \"#utility.yul\":11940:11943   */\n      0x00\n        /* \"#utility.yul\":11961:12028   */\n      tag_266\n        /* \"#utility.yul\":12025:12027   */\n      0x0d\n        /* \"#utility.yul\":12020:12023   */\n      dup4\n        /* \"#utility.yul\":11961:12028   */\n      tag_139\n      jump\t// in\n    tag_266:\n        /* \"#utility.yul\":11954:12028   */\n      swap2\n      pop\n        /* \"#utility.yul\":12037:12130   */\n      tag_267\n        /* \"#utility.yul\":12126:12129   */\n      dup3\n        /* \"#utility.yul\":12037:12130   */\n      tag_157\n      jump\t// in\n    tag_267:\n        /* \"#utility.yul\":12155:12157   */\n      0x20\n        /* \"#utility.yul\":12150:12153   */\n      dup3\n        /* \"#utility.yul\":12146:12158   */\n      add\n        /* \"#utility.yul\":12139:12158   */\n      swap1\n      pop\n        /* \"#utility.yul\":11798:12164   */\n      swap2\n      swap1\n      pop\n      jump\t// out\n        /* \"#utility.yul\":12170:12589   */\n    tag_108:\n        /* \"#utility.yul\":12336:12340   */\n      0x00\n        /* \"#utility.yul\":12374:12376   */\n      0x20\n        /* \"#utility.yul\":12363:12372   */\n      dup3\n        /* \"#utility.yul\":12359:12377   */\n      add\n        /* \"#utility.yul\":12351:12377   */\n      swap1\n      pop\n        /* \"#utility.yul\":12423:12432   */\n      dup2\n        /* \"#utility.yul\":12417:12421   */\n      dup2\n        /* \"#utility.yul\":12413:12433   */\n      sub\n        /* \"#utility.yul\":12409:12410   */\n      0x00\n        /* \"#utility.yul\":12398:12407   */\n      dup4\n        /* \"#utility.yul\":12394:12411   */\n      add\n        /* \"#utility.yul\":12387:12434   */\n      mstore\n        /* \"#utility.yul\":12451:12582   */\n      tag_269\n        /* \"#utility.yul\":12577:12581   */\n      dup2\n        /* \"#utility.yul\":12451:12582   */\n      tag_158\n      jump\t// in\n    tag_269:\n        /* \"#utility.yul\":12443:12582   */\n      swap1\n      pop\n        /* \"#utility.yul\":12170:12589   */\n      swap2\n      swap1\n      pop\n      jump\t// out\n        /* \"#utility.yul\":12595:12700   */\n    tag_159:\n        /* \"#utility.yul\":12631:12638   */\n      0x00\n        /* \"#utility.yul\":12671:12693   */\n      0xffffffffffffffffffff\n        /* \"#utility.yul\":12664:12669   */\n      dup3\n        /* \"#utility.yul\":12660:12694   */\n      and\n        /* \"#utility.yul\":12649:12694   */\n      swap1\n      pop\n        /* \"#utility.yul\":12595:12700   */\n      swap2\n      swap1\n      pop\n      jump\t// out\n        /* \"#utility.yul\":12706:12826   */\n    tag_160:\n        /* \"#utility.yul\":12778:12801   */\n      tag_272\n        /* \"#utility.yul\":12795:12800   */\n      dup2\n        /* \"#utility.yul\":12778:12801   */\n      tag_159\n      jump\t// in\n    tag_272:\n        /* \"#utility.yul\":12771:12776   */\n      dup2\n        /* \"#utility.yul\":12768:12802   */\n      eq\n        /* \"#utility.yul\":12758:12820   */\n      tag_273\n      jumpi\n        /* \"#utility.yul\":12816:12817   */\n      0x00\n        /* \"#utility.yul\":12813:12814   */\n      dup1\n        /* \"#utility.yul\":12806:12818   */\n      revert\n        /* \"#utility.yul\":12758:12820   */\n    tag_273:\n        /* \"#utility.yul\":12706:12826   */\n      pop\n      jump\t// out\n        /* \"#utility.yul\":12832:12973   */\n    tag_161:\n        /* \"#utility.yul\":12888:12893   */\n      0x00\n        /* \"#utility.yul\":12919:12925   */\n      dup2\n        /* \"#utility.yul\":12913:12926   */\n      mload\n        /* \"#utility.yul\":12904:12926   */\n      swap1\n      pop\n        /* \"#utility.yul\":12935:12967   */\n      tag_275\n        /* \"#utility.yul\":12961:12966   */\n      dup2\n        /* \"#utility.yul\":12935:12967   */\n      tag_160\n      jump\t// in\n    tag_275:\n        /* \"#utility.yul\":12832:12973   */\n      swap3\n      swap2\n      pop\n      pop\n      jump\t// out\n        /* \"#utility.yul\":12979:13099   */\n    tag_162:\n        /* \"#utility.yul\":13051:13074   */\n      tag_277\n        /* \"#utility.yul\":13068:13073   */\n      dup2\n        /* \"#utility.yul\":13051:13074   */\n      tag_134\n      jump\t// in\n    tag_277:\n        /* \"#utility.yul\":13044:13049   */\n      dup2\n        /* \"#utility.yul\":13041:13075   */\n      eq\n        /* \"#utility.yul\":13031:13093   */\n      tag_278\n      jumpi\n        /* \"#utility.yul\":13089:13090   */\n      0x00\n        /* \"#utility.yul\":13086:13087   */\n      dup1\n        /* \"#utility.yul\":13079:13091   */\n      revert\n        /* \"#utility.yul\":13031:13093   */\n    tag_278:\n        /* \"#utility.yul\":12979:13099   */\n      pop\n      jump\t// out\n        /* \"#utility.yul\":13105:13246   */\n    tag_163:\n        /* \"#utility.yul\":13161:13166   */\n      0x00\n        /* \"#utility.yul\":13192:13198   */\n      dup2\n        /* \"#utility.yul\":13186:13199   */\n      mload\n        /* \"#utility.yul\":13177:13199   */\n      swap1\n      pop\n        /* \"#utility.yul\":13208:13240   */\n      tag_280\n        /* \"#utility.yul\":13234:13239   */\n      dup2\n        /* \"#utility.yul\":13208:13240   */\n      tag_162\n      jump\t// in\n    tag_280:\n        /* \"#utility.yul\":13105:13246   */\n      swap3\n      swap2\n      pop\n      pop\n      jump\t// out\n        /* \"#utility.yul\":13252:13395   */\n    tag_164:\n        /* \"#utility.yul\":13309:13314   */\n      0x00\n        /* \"#utility.yul\":13340:13346   */\n      dup2\n        /* \"#utility.yul\":13334:13347   */\n      mload\n        /* \"#utility.yul\":13325:13347   */\n      swap1\n      pop\n        /* \"#utility.yul\":13356:13389   */\n      tag_282\n        /* \"#utility.yul\":13383:13388   */\n      dup2\n        /* \"#utility.yul\":13356:13389   */\n      tag_136\n      jump\t// in\n    tag_282:\n        /* \"#utility.yul\":13252:13395   */\n      swap3\n      swap2\n      pop\n      pop\n      jump\t// out\n        /* \"#utility.yul\":13401:14372   */\n    tag_113:\n        /* \"#utility.yul\":13504:13510   */\n      0x00\n        /* \"#utility.yul\":13512:13518   */\n      dup1\n        /* \"#utility.yul\":13520:13526   */\n      0x00\n        /* \"#utility.yul\":13528:13534   */\n      dup1\n        /* \"#utility.yul\":13536:13542   */\n      0x00\n        /* \"#utility.yul\":13585:13588   */\n      0xa0\n        /* \"#utility.yul\":13573:13582   */\n      dup7\n        /* \"#utility.yul\":13564:13571   */\n      dup9\n        /* \"#utility.yul\":13560:13583   */\n      sub\n        /* \"#utility.yul\":13556:13589   */\n      slt\n        /* \"#utility.yul\":13553:13673   */\n      iszero\n      tag_284\n      jumpi\n        /* \"#utility.yul\":13592:13671   */\n      tag_285\n      tag_125\n      jump\t// in\n    tag_285:\n        /* \"#utility.yul\":13553:13673   */\n    tag_284:\n        /* \"#utility.yul\":13712:13713   */\n      0x00\n        /* \"#utility.yul\":13737:13800   */\n      tag_286\n        /* \"#utility.yul\":13792:13799   */\n      dup9\n        /* \"#utility.yul\":13783:13789   */\n      dup3\n        /* \"#utility.yul\":13772:13781   */\n      dup10\n        /* \"#utility.yul\":13768:13790   */\n      add\n        /* \"#utility.yul\":13737:13800   */\n      tag_161\n      jump\t// in\n    tag_286:\n        /* \"#utility.yul\":13727:13800   */\n      swap6\n      pop\n        /* \"#utility.yul\":13683:13810   */\n      pop\n        /* \"#utility.yul\":13849:13851   */\n      0x20\n        /* \"#utility.yul\":13875:13938   */\n      tag_287\n        /* \"#utility.yul\":13930:13937   */\n      dup9\n        /* \"#utility.yul\":13921:13927   */\n      dup3\n        /* \"#utility.yul\":13910:13919   */\n      dup10\n        /* \"#utility.yul\":13906:13928   */\n      add\n        /* \"#utility.yul\":13875:13938   */\n      tag_163\n      jump\t// in\n    tag_287:\n        /* \"#utility.yul\":13865:13938   */\n      swap5\n      pop\n        /* \"#utility.yul\":13820:13948   */\n      pop\n        /* \"#utility.yul\":13987:13989   */\n      0x40\n        /* \"#utility.yul\":14013:14077   */\n      tag_288\n        /* \"#utility.yul\":14069:14076   */\n      dup9\n        /* \"#utility.yul\":14060:14066   */\n      dup3\n        /* \"#utility.yul\":14049:14058   */\n      dup10\n        /* \"#utility.yul\":14045:14067   */\n      add\n        /* \"#utility.yul\":14013:14077   */\n      tag_164\n      jump\t// in\n    tag_288:\n        /* \"#utility.yul\":14003:14077   */\n      swap4\n      pop\n        /* \"#utility.yul\":13958:14087   */\n      pop\n        /* \"#utility.yul\":14126:14128   */\n      0x60\n        /* \"#utility.yul\":14152:14216   */\n      tag_289\n        /* \"#utility.yul\":14208:14215   */\n      dup9\n        /* \"#utility.yul\":14199:14205   */\n      dup3\n        /* \"#utility.yul\":14188:14197   */\n      dup10\n        /* \"#utility.yul\":14184:14206   */\n      add\n        /* \"#utility.yul\":14152:14216   */\n      tag_164\n      jump\t// in\n    tag_289:\n        /* \"#utility.yul\":14142:14216   */\n      swap3\n      pop\n        /* \"#utility.yul\":14097:14226   */\n      pop\n        /* \"#utility.yul\":14265:14268   */\n      0x80\n        /* \"#utility.yul\":14292:14355   */\n      tag_290\n        /* \"#utility.yul\":14347:14354   */\n      dup9\n        /* \"#utility.yul\":14338:14344   */\n      dup3\n        /* \"#utility.yul\":14327:14336   */\n      dup10\n        /* \"#utility.yul\":14323:14345   */\n      add\n        /* \"#utility.yul\":14292:14355   */\n      tag_161\n      jump\t// in\n    tag_290:\n        /* \"#utility.yul\":14282:14355   */\n      swap2\n      pop\n        /* \"#utility.yul\":14236:14365   */\n      pop\n        /* \"#utility.yul\":13401:14372   */\n      swap3\n      swap6\n      pop\n      swap3\n      swap6\n      swap1\n      swap4\n      pop\n      jump\t// out\n        /* \"#utility.yul\":14378:14613   */\n    tag_165:\n        /* \"#utility.yul\":14518:14552   */\n      0x796f7520646f206e6f742068617665207065726d697373696f6e20746f206361\n        /* \"#utility.yul\":14514:14515   */\n      0x00\n        /* \"#utility.yul\":14506:14512   */\n      dup3\n        /* \"#utility.yul\":14502:14516   */\n      add\n        /* \"#utility.yul\":14495:14553   */\n      mstore\n        /* \"#utility.yul\":14587:14605   */\n      0x6c6c20746869732066756e6374696f6e00000000000000000000000000000000\n        /* \"#utility.yul\":14582:14584   */\n      0x20\n        /* \"#utility.yul\":14574:14580   */\n      dup3\n        /* \"#utility.yul\":14570:14585   */\n      add\n        /* \"#utility.yul\":14563:14606   */\n      mstore\n        /* \"#utility.yul\":14378:14613   */\n      pop\n      jump\t// out\n        /* \"#utility.yul\":14619:14985   */\n    tag_166:\n        /* \"#utility.yul\":14761:14764   */\n      0x00\n        /* \"#utility.yul\":14782:14849   */\n      tag_293\n        /* \"#utility.yul\":14846:14848   */\n      0x30\n        /* \"#utility.yul\":14841:14844   */\n      dup4\n        /* \"#utility.yul\":14782:14849   */\n      tag_139\n      jump\t// in\n    tag_293:\n        /* \"#utility.yul\":14775:14849   */\n      swap2\n      pop\n        /* \"#utility.yul\":14858:14951   */\n      tag_294\n        /* \"#utility.yul\":14947:14950   */\n      dup3\n        /* \"#utility.yul\":14858:14951   */\n      tag_165\n      jump\t// in\n    tag_294:\n        /* \"#utility.yul\":14976:14978   */\n      0x40\n        /* \"#utility.yul\":14971:14974   */\n      dup3\n        /* \"#utility.yul\":14967:14979   */\n      add\n        /* \"#utility.yul\":14960:14979   */\n      swap1\n      pop\n        /* \"#utility.yul\":14619:14985   */\n      swap2\n      swap1\n      pop\n      jump\t// out\n        /* \"#utility.yul\":14991:15410   */\n    tag_117:\n        /* \"#utility.yul\":15157:15161   */\n      0x00\n        /* \"#utility.yul\":15195:15197   */\n      0x20\n        /* \"#utility.yul\":15184:15193   */\n      dup3\n        /* \"#utility.yul\":15180:15198   */\n      add\n        /* \"#utility.yul\":15172:15198   */\n      swap1\n      pop\n        /* \"#utility.yul\":15244:15253   */\n      dup2\n        /* \"#utility.yul\":15238:15242   */\n      dup2\n        /* \"#utility.yul\":15234:15254   */\n      sub\n        /* \"#utility.yul\":15230:15231   */\n      0x00\n        /* \"#utility.yul\":15219:15228   */\n      dup4\n        /* \"#utility.yul\":15215:15232   */\n      add\n        /* \"#utility.yul\":15208:15255   */\n      mstore\n        /* \"#utility.yul\":15272:15403   */\n      tag_296\n        /* \"#utility.yul\":15398:15402   */\n      dup2\n        /* \"#utility.yul\":15272:15403   */\n      tag_166\n      jump\t// in\n    tag_296:\n        /* \"#utility.yul\":15264:15403   */\n      swap1\n      pop\n        /* \"#utility.yul\":14991:15410   */\n      swap2\n      swap1\n      pop\n      jump\t// out\n        /* \"#utility.yul\":15416:15826   */\n    tag_121:\n        /* \"#utility.yul\":15456:15463   */\n      0x00\n        /* \"#utility.yul\":15479:15499   */\n      tag_298\n        /* \"#utility.yul\":15497:15498   */\n      dup3\n        /* \"#utility.yul\":15479:15499   */\n      tag_131\n      jump\t// in\n    tag_298:\n        /* \"#utility.yul\":15474:15499   */\n      swap2\n      pop\n        /* \"#utility.yul\":15513:15533   */\n      tag_299\n        /* \"#utility.yul\":15531:15532   */\n      dup4\n        /* \"#utility.yul\":15513:15533   */\n      tag_131\n      jump\t// in\n    tag_299:\n        /* \"#utility.yul\":15508:15533   */\n      swap3\n      pop\n        /* \"#utility.yul\":15568:15569   */\n      dup3\n        /* \"#utility.yul\":15565:15566   */\n      dup3\n        /* \"#utility.yul\":15561:15570   */\n      mul\n        /* \"#utility.yul\":15590:15620   */\n      tag_300\n        /* \"#utility.yul\":15608:15619   */\n      dup2\n        /* \"#utility.yul\":15590:15620   */\n      tag_131\n      jump\t// in\n    tag_300:\n        /* \"#utility.yul\":15579:15620   */\n      swap2\n      pop\n        /* \"#utility.yul\":15769:15770   */\n      dup3\n        /* \"#utility.yul\":15760:15767   */\n      dup3\n        /* \"#utility.yul\":15756:15771   */\n      div\n        /* \"#utility.yul\":15753:15754   */\n      dup5\n        /* \"#utility.yul\":15750:15772   */\n      eq\n        /* \"#utility.yul\":15730:15731   */\n      dup4\n        /* \"#utility.yul\":15723:15732   */\n      iszero\n        /* \"#utility.yul\":15703:15786   */\n      or\n        /* \"#utility.yul\":15680:15819   */\n      tag_301\n      jumpi\n        /* \"#utility.yul\":15799:15817   */\n      tag_302\n      tag_138\n      jump\t// in\n    tag_302:\n        /* \"#utility.yul\":15680:15819   */\n    tag_301:\n        /* \"#utility.yul\":15464:15826   */\n      pop\n        /* \"#utility.yul\":15416:15826   */\n      swap3\n      swap2\n      pop\n      pop\n      jump\t// out\n        /* \"#utility.yul\":15832:16012   */\n    tag_167:\n        /* \"#utility.yul\":15880:15957   */\n      0x4e487b7100000000000000000000000000000000000000000000000000000000\n        /* \"#utility.yul\":15877:15878   */\n      0x00\n        /* \"#utility.yul\":15870:15958   */\n      mstore\n        /* \"#utility.yul\":15977:15981   */\n      0x12\n        /* \"#utility.yul\":15974:15975   */\n      0x04\n        /* \"#utility.yul\":15967:15982   */\n      mstore\n        /* \"#utility.yul\":16001:16005   */\n      0x24\n        /* \"#utility.yul\":15998:15999   */\n      0x00\n        /* \"#utility.yul\":15991:16006   */\n      revert\n        /* \"#utility.yul\":16018:16203   */\n    tag_123:\n        /* \"#utility.yul\":16058:16059   */\n      0x00\n        /* \"#utility.yul\":16075:16095   */\n      tag_305\n        /* \"#utility.yul\":16093:16094   */\n      dup3\n        /* \"#utility.yul\":16075:16095   */\n      tag_131\n      jump\t// in\n    tag_305:\n        /* \"#utility.yul\":16070:16095   */\n      swap2\n      pop\n        /* \"#utility.yul\":16109:16129   */\n      tag_306\n        /* \"#utility.yul\":16127:16128   */\n      dup4\n        /* \"#utility.yul\":16109:16129   */\n      tag_131\n      jump\t// in\n    tag_306:\n        /* \"#utility.yul\":16104:16129   */\n      swap3\n      pop\n        /* \"#utility.yul\":16148:16149   */\n      dup3\n        /* \"#utility.yul\":16138:16173   */\n      tag_307\n      jumpi\n        /* \"#utility.yul\":16153:16171   */\n      tag_308\n      tag_167\n      jump\t// in\n    tag_308:\n        /* \"#utility.yul\":16138:16173   */\n    tag_307:\n        /* \"#utility.yul\":16195:16196   */\n      dup3\n        /* \"#utility.yul\":16192:16193   */\n      dup3\n        /* \"#utility.yul\":16188:16197   */\n      div\n        /* \"#utility.yul\":16183:16197   */\n      swap1\n      pop\n        /* \"#utility.yul\":16018:16203   */\n      swap3\n      swap2\n      pop\n      pop\n      jump\t// out\n\n    auxdata: 0xa264697066735822122022dfe033a4eee779ac49586229f0cddbe3f0b5e9f8a35f5427f4ccf4b4cc562f64736f6c634300081a0033\n}\n",
				"bytecode": {
					"linkReferences": {},
					"object": "6080604052678ac7230489e8000060015534801561001b575f80fd5b506040516113d63803806113d6833981810160405281019061003d919061011c565b73694aa1769357215de4fac081bf1f309adc32530660025f6101000a81548173ffffffffffffffffffffffffffffffffffffffff021916908373ffffffffffffffffffffffffffffffffffffffff1602179055503360035f6101000a81548173ffffffffffffffffffffffffffffffffffffffff021916908373ffffffffffffffffffffffffffffffffffffffff160217905550426004819055508060058190555050610147565b5f80fd5b5f819050919050565b6100fb816100e9565b8114610105575f80fd5b50565b5f81519050610116816100f2565b92915050565b5f60208284031215610131576101306100e5565b5b5f61013e84828501610108565b91505092915050565b611282806101545f395ff3fe608060405260043610610085575f3560e01c80638da5cb5b116100585780638da5cb5b1461012b5780638edd6eb614610155578063b60d42881461016b578063bea4dfb514610175578063d39cf0061461019f57610085565b80630ff0a4df1461008957806313ffff011461009f5780634407e1e8146100c75780638863dd1a14610103575b5f80fd5b348015610094575f80fd5b5061009d6101c7565b005b3480156100aa575f80fd5b506100c560048036038101906100c09190610af8565b610419565b005b3480156100d2575f80fd5b506100ed60048036038101906100e89190610af8565b6104eb565b6040516100fa9190610b3b565b60405180910390f35b34801561010e575f80fd5b5061012960048036038101906101249190610af8565b6104ff565b005b348015610136575f80fd5b5061013f6105d1565b60405161014c9190610b63565b60405180910390f35b348015610160575f80fd5b506101696105f6565b005b610173610819565b005b348015610180575f80fd5b506101896108fa565b6040516101969190610b94565b60405180910390f35b3480156101aa575f80fd5b506101c560048036038101906101c09190610bd7565b610997565b005b6005546004546101d79190610c42565b421015610219576040517f08c379a000000000000000000000000000000000000000000000000000000000815260040161021090610ccf565b60405180910390fd5b68056bc75e2d6310000061022c47610a6b565b1061026c576040517f08c379a000000000000000000000000000000000000000000000000000000000815260040161026390610d37565b60405180910390fd5b5f805f3373ffffffffffffffffffffffffffffffffffffffff1673ffffffffffffffffffffffffffffffffffffffff1681526020019081526020015f205490505f81036102ee576040517f08c379a00000000000000000000000000000000000000000000000000000000081526004016102e590610d9f565b60405180910390fd5b5f3373ffffffffffffffffffffffffffffffffffffffff165f803373ffffffffffffffffffffffffffffffffffffffff1673ffffffffffffffffffffffffffffffffffffffff1681526020019081526020015f205460405161034f90610dea565b5f6040518083038185875af1925050503d805f8114610389576040519150601f19603f3d011682016040523d82523d5f602084013e61038e565b606091505b505080915050806103d4576040517f08c379a00000000000000000000000000000000000000000000000000000000081526004016103cb90610e48565b60405180910390fd5b5f805f3373ffffffffffffffffffffffffffffffffffffffff1673ffffffffffffffffffffffffffffffffffffffff1681526020019081526020015f20819055505050565b60035f9054906101000a900473ffffffffffffffffffffffffffffffffffffffff1673ffffffffffffffffffffffffffffffffffffffff163373ffffffffffffffffffffffffffffffffffffffff16146104a8576040517f08c379a000000000000000000000000000000000000000000000000000000000815260040161049f90610ed6565b60405180910390fd5b8060065f6101000a81548173ffffffffffffffffffffffffffffffffffffffff021916908373ffffffffffffffffffffffffffffffffffffffff16021790555050565b5f602052805f5260405f205f915090505481565b60035f9054906101000a900473ffffffffffffffffffffffffffffffffffffffff1673ffffffffffffffffffffffffffffffffffffffff163373ffffffffffffffffffffffffffffffffffffffff161461058e576040517f08c379a000000000000000000000000000000000000000000000000000000000815260040161058590610ed6565b60405180910390fd5b8060035f6101000a81548173ffffffffffffffffffffffffffffffffffffffff021916908373ffffffffffffffffffffffffffffffffffffffff16021790555050565b60035f9054906101000a900473ffffffffffffffffffffffffffffffffffffffff1681565b6005546004546106069190610c42565b421015610648576040517f08c379a000000000000000000000000000000000000000000000000000000000815260040161063f90610ccf565b60405180910390fd5b60035f9054906101000a900473ffffffffffffffffffffffffffffffffffffffff1673ffffffffffffffffffffffffffffffffffffffff163373ffffffffffffffffffffffffffffffffffffffff16146106d7576040517f08c379a00000000000000000000000000000000000000000000000000000000081526004016106ce90610ed6565b60405180910390fd5b68056bc75e2d631000006106ea47610a6b565b101561072b576040517f08c379a000000000000000000000000000000000000000000000000000000000815260040161072290610f3e565b60405180910390fd5b5f3373ffffffffffffffffffffffffffffffffffffffff164760405161075090610dea565b5f6040518083038185875af1925050503d805f811461078a576040519150601f19603f3d011682016040523d82523d5f602084013e61078f565b606091505b505080915050806107d5576040517f08c379a00000000000000000000000000000000000000000000000000000000081526004016107cc90610e48565b60405180910390fd5b5f805f3373ffffffffffffffffffffffffffffffffffffffff1673ffffffffffffffffffffffffffffffffffffffff1681526020019081526020015f208190555050565b6005546004546108299190610c42565b421061086a576040517f08c379a000000000000000000000000000000000000000000000000000000000815260040161086190610fa6565b60405180910390fd5b60015461087634610a6b565b10156108b7576040517f08c379a00000000000000000000000000000000000000000000000000000000081526004016108ae9061100e565b60405180910390fd5b345f803373ffffffffffffffffffffffffffffffffffffffff1673ffffffffffffffffffffffffffffffffffffffff1681526020019081526020015f2081905550565b5f8060025f9054906101000a900473ffffffffffffffffffffffffffffffffffffffff1673ffffffffffffffffffffffffffffffffffffffff1663feaf968c6040518163ffffffff1660e01b815260040160a060405180830381865afa158015610966573d5f803e3d5ffd5b505050506040513d601f19601f8201168201806040525081019061098a91906110a9565b5050509150508091505090565b60065f9054906101000a900473ffffffffffffffffffffffffffffffffffffffff1673ffffffffffffffffffffffffffffffffffffffff163373ffffffffffffffffffffffffffffffffffffffff1614610a26576040517f08c379a0000000000000000000000000000000000000000000000000000000008152600401610a1d90611190565b60405180910390fd5b805f808473ffffffffffffffffffffffffffffffffffffffff1673ffffffffffffffffffffffffffffffffffffffff1681526020019081526020015f20819055505050565b5f80610a756108fa565b90506305f5e1008184610a8891906111ae565b610a92919061121c565b915050919050565b5f80fd5b5f73ffffffffffffffffffffffffffffffffffffffff82169050919050565b5f610ac782610a9e565b9050919050565b610ad781610abd565b8114610ae1575f80fd5b50565b5f81359050610af281610ace565b92915050565b5f60208284031215610b0d57610b0c610a9a565b5b5f610b1a84828501610ae4565b91505092915050565b5f819050919050565b610b3581610b23565b82525050565b5f602082019050610b4e5f830184610b2c565b92915050565b610b5d81610abd565b82525050565b5f602082019050610b765f830184610b54565b92915050565b5f819050919050565b610b8e81610b7c565b82525050565b5f602082019050610ba75f830184610b85565b92915050565b610bb681610b23565b8114610bc0575f80fd5b50565b5f81359050610bd181610bad565b92915050565b5f8060408385031215610bed57610bec610a9a565b5b5f610bfa85828601610ae4565b9250506020610c0b85828601610bc3565b9150509250929050565b7f4e487b71000000000000000000000000000000000000000000000000000000005f52601160045260245ffd5b5f610c4c82610b23565b9150610c5783610b23565b9250828201905080821115610c6f57610c6e610c15565b5b92915050565b5f82825260208201905092915050565b7f77696e646f77206973206e6f7420636c6f7365640000000000000000000000005f82015250565b5f610cb9601483610c75565b9150610cc482610c85565b602082019050919050565b5f6020820190508181035f830152610ce681610cad565b9050919050565b7f74617267657420697320726561636865640000000000000000000000000000005f82015250565b5f610d21601183610c75565b9150610d2c82610ced565b602082019050919050565b5f6020820190508181035f830152610d4e81610d15565b9050919050565b7f7468657265206973206e6f742066756e6420666f7220796f75000000000000005f82015250565b5f610d89601983610c75565b9150610d9482610d55565b602082019050919050565b5f6020820190508181035f830152610db681610d7d565b9050919050565b5f81905092915050565b50565b5f610dd55f83610dbd565b9150610de082610dc7565b5f82019050919050565b5f610df482610dca565b9150819050919050565b7f7472616e73666572207478206661696c656400000000000000000000000000005f82015250565b5f610e32601283610c75565b9150610e3d82610dfe565b602082019050919050565b5f6020820190508181035f830152610e5f81610e26565b9050919050565b7f746869732066756e6374696f6e2063616e206f6e6c792062652063616c6c65645f8201527f206279206f776e65720000000000000000000000000000000000000000000000602082015250565b5f610ec0602983610c75565b9150610ecb82610e66565b604082019050919050565b5f6020820190508181035f830152610eed81610eb4565b9050919050565b7f746172676574206973206e6f74207265616368656400000000000000000000005f82015250565b5f610f28601583610c75565b9150610f3382610ef4565b602082019050919050565b5f6020820190508181035f830152610f5581610f1c565b9050919050565b7f77696e646f7720697320636c6f736564000000000000000000000000000000005f82015250565b5f610f90601083610c75565b9150610f9b82610f5c565b602082019050919050565b5f6020820190508181035f830152610fbd81610f84565b9050919050565b7f73656e64206d6f726520455448000000000000000000000000000000000000005f82015250565b5f610ff8600d83610c75565b915061100382610fc4565b602082019050919050565b5f6020820190508181035f83015261102581610fec565b9050919050565b5f69ffffffffffffffffffff82169050919050565b61104a8161102c565b8114611054575f80fd5b50565b5f8151905061106581611041565b92915050565b61107481610b7c565b811461107e575f80fd5b50565b5f8151905061108f8161106b565b92915050565b5f815190506110a381610bad565b92915050565b5f805f805f60a086880312156110c2576110c1610a9a565b5b5f6110cf88828901611057565b95505060206110e088828901611081565b94505060406110f188828901611095565b935050606061110288828901611095565b925050608061111388828901611057565b9150509295509295909350565b7f796f7520646f206e6f742068617665207065726d697373696f6e20746f2063615f8201527f6c6c20746869732066756e6374696f6e00000000000000000000000000000000602082015250565b5f61117a603083610c75565b915061118582611120565b604082019050919050565b5f6020820190508181035f8301526111a78161116e565b9050919050565b5f6111b882610b23565b91506111c383610b23565b92508282026111d181610b23565b915082820484148315176111e8576111e7610c15565b5b5092915050565b7f4e487b71000000000000000000000000000000000000000000000000000000005f52601260045260245ffd5b5f61122682610b23565b915061123183610b23565b925082611241576112406111ef565b5b82820490509291505056fea264697066735822122022dfe033a4eee779ac49586229f0cddbe3f0b5e9f8a35f5427f4ccf4b4cc562f64736f6c634300081a0033",
					"opcodes": "PUSH1 0x80 PUSH1 0x40 MSTORE PUSH8 0x8AC7230489E80000 PUSH1 0x1 SSTORE CALLVALUE DUP1 ISZERO PUSH2 0x1B JUMPI PUSH0 DUP1 REVERT JUMPDEST POP PUSH1 0x40 MLOAD PUSH2 0x13D6 CODESIZE SUB DUP1 PUSH2 0x13D6 DUP4 CODECOPY DUP2 DUP2 ADD PUSH1 0x40 MSTORE DUP2 ADD SWAP1 PUSH2 0x3D SWAP2 SWAP1 PUSH2 0x11C JUMP JUMPDEST PUSH20 0x694AA1769357215DE4FAC081BF1F309ADC325306 PUSH1 0x2 PUSH0 PUSH2 0x100 EXP DUP2 SLOAD DUP2 PUSH20 0xFFFFFFFFFFFFFFFFFFFFFFFFFFFFFFFFFFFFFFFF MUL NOT AND SWAP1 DUP4 PUSH20 0xFFFFFFFFFFFFFFFFFFFFFFFFFFFFFFFFFFFFFFFF AND MUL OR SWAP1 SSTORE POP CALLER PUSH1 0x3 PUSH0 PUSH2 0x100 EXP DUP2 SLOAD DUP2 PUSH20 0xFFFFFFFFFFFFFFFFFFFFFFFFFFFFFFFFFFFFFFFF MUL NOT AND SWAP1 DUP4 PUSH20 0xFFFFFFFFFFFFFFFFFFFFFFFFFFFFFFFFFFFFFFFF AND MUL OR SWAP1 SSTORE POP TIMESTAMP PUSH1 0x4 DUP2 SWAP1 SSTORE POP DUP1 PUSH1 0x5 DUP2 SWAP1 SSTORE POP POP PUSH2 0x147 JUMP JUMPDEST PUSH0 DUP1 REVERT JUMPDEST PUSH0 DUP2 SWAP1 POP SWAP2 SWAP1 POP JUMP JUMPDEST PUSH2 0xFB DUP2 PUSH2 0xE9 JUMP JUMPDEST DUP2 EQ PUSH2 0x105 JUMPI PUSH0 DUP1 REVERT JUMPDEST POP JUMP JUMPDEST PUSH0 DUP2 MLOAD SWAP1 POP PUSH2 0x116 DUP2 PUSH2 0xF2 JUMP JUMPDEST SWAP3 SWAP2 POP POP JUMP JUMPDEST PUSH0 PUSH1 0x20 DUP3 DUP5 SUB SLT ISZERO PUSH2 0x131 JUMPI PUSH2 0x130 PUSH2 0xE5 JUMP JUMPDEST JUMPDEST PUSH0 PUSH2 0x13E DUP5 DUP3 DUP6 ADD PUSH2 0x108 JUMP JUMPDEST SWAP2 POP POP SWAP3 SWAP2 POP POP JUMP JUMPDEST PUSH2 0x1282 DUP1 PUSH2 0x154 PUSH0 CODECOPY PUSH0 RETURN INVALID PUSH1 0x80 PUSH1 0x40 MSTORE PUSH1 0x4 CALLDATASIZE LT PUSH2 0x85 JUMPI PUSH0 CALLDATALOAD PUSH1 0xE0 SHR DUP1 PUSH4 0x8DA5CB5B GT PUSH2 0x58 JUMPI DUP1 PUSH4 0x8DA5CB5B EQ PUSH2 0x12B JUMPI DUP1 PUSH4 0x8EDD6EB6 EQ PUSH2 0x155 JUMPI DUP1 PUSH4 0xB60D4288 EQ PUSH2 0x16B JUMPI DUP1 PUSH4 0xBEA4DFB5 EQ PUSH2 0x175 JUMPI DUP1 PUSH4 0xD39CF006 EQ PUSH2 0x19F JUMPI PUSH2 0x85 JUMP JUMPDEST DUP1 PUSH4 0xFF0A4DF EQ PUSH2 0x89 JUMPI DUP1 PUSH4 0x13FFFF01 EQ PUSH2 0x9F JUMPI DUP1 PUSH4 0x4407E1E8 EQ PUSH2 0xC7 JUMPI DUP1 PUSH4 0x8863DD1A EQ PUSH2 0x103 JUMPI JUMPDEST PUSH0 DUP1 REVERT JUMPDEST CALLVALUE DUP1 ISZERO PUSH2 0x94 JUMPI PUSH0 DUP1 REVERT JUMPDEST POP PUSH2 0x9D PUSH2 0x1C7 JUMP JUMPDEST STOP JUMPDEST CALLVALUE DUP1 ISZERO PUSH2 0xAA JUMPI PUSH0 DUP1 REVERT JUMPDEST POP PUSH2 0xC5 PUSH1 0x4 DUP1 CALLDATASIZE SUB DUP2 ADD SWAP1 PUSH2 0xC0 SWAP2 SWAP1 PUSH2 0xAF8 JUMP JUMPDEST PUSH2 0x419 JUMP JUMPDEST STOP JUMPDEST CALLVALUE DUP1 ISZERO PUSH2 0xD2 JUMPI PUSH0 DUP1 REVERT JUMPDEST POP PUSH2 0xED PUSH1 0x4 DUP1 CALLDATASIZE SUB DUP2 ADD SWAP1 PUSH2 0xE8 SWAP2 SWAP1 PUSH2 0xAF8 JUMP JUMPDEST PUSH2 0x4EB JUMP JUMPDEST PUSH1 0x40 MLOAD PUSH2 0xFA SWAP2 SWAP1 PUSH2 0xB3B JUMP JUMPDEST PUSH1 0x40 MLOAD DUP1 SWAP2 SUB SWAP1 RETURN JUMPDEST CALLVALUE DUP1 ISZERO PUSH2 0x10E JUMPI PUSH0 DUP1 REVERT JUMPDEST POP PUSH2 0x129 PUSH1 0x4 DUP1 CALLDATASIZE SUB DUP2 ADD SWAP1 PUSH2 0x124 SWAP2 SWAP1 PUSH2 0xAF8 JUMP JUMPDEST PUSH2 0x4FF JUMP JUMPDEST STOP JUMPDEST CALLVALUE DUP1 ISZERO PUSH2 0x136 JUMPI PUSH0 DUP1 REVERT JUMPDEST POP PUSH2 0x13F PUSH2 0x5D1 JUMP JUMPDEST PUSH1 0x40 MLOAD PUSH2 0x14C SWAP2 SWAP1 PUSH2 0xB63 JUMP JUMPDEST PUSH1 0x40 MLOAD DUP1 SWAP2 SUB SWAP1 RETURN JUMPDEST CALLVALUE DUP1 ISZERO PUSH2 0x160 JUMPI PUSH0 DUP1 REVERT JUMPDEST POP PUSH2 0x169 PUSH2 0x5F6 JUMP JUMPDEST STOP JUMPDEST PUSH2 0x173 PUSH2 0x819 JUMP JUMPDEST STOP JUMPDEST CALLVALUE DUP1 ISZERO PUSH2 0x180 JUMPI PUSH0 DUP1 REVERT JUMPDEST POP PUSH2 0x189 PUSH2 0x8FA JUMP JUMPDEST PUSH1 0x40 MLOAD PUSH2 0x196 SWAP2 SWAP1 PUSH2 0xB94 JUMP JUMPDEST PUSH1 0x40 MLOAD DUP1 SWAP2 SUB SWAP1 RETURN JUMPDEST CALLVALUE DUP1 ISZERO PUSH2 0x1AA JUMPI PUSH0 DUP1 REVERT JUMPDEST POP PUSH2 0x1C5 PUSH1 0x4 DUP1 CALLDATASIZE SUB DUP2 ADD SWAP1 PUSH2 0x1C0 SWAP2 SWAP1 PUSH2 0xBD7 JUMP JUMPDEST PUSH2 0x997 JUMP JUMPDEST STOP JUMPDEST PUSH1 0x5 SLOAD PUSH1 0x4 SLOAD PUSH2 0x1D7 SWAP2 SWAP1 PUSH2 0xC42 JUMP JUMPDEST TIMESTAMP LT ISZERO PUSH2 0x219 JUMPI PUSH1 0x40 MLOAD PUSH32 0x8C379A000000000000000000000000000000000000000000000000000000000 DUP2 MSTORE PUSH1 0x4 ADD PUSH2 0x210 SWAP1 PUSH2 0xCCF JUMP JUMPDEST PUSH1 0x40 MLOAD DUP1 SWAP2 SUB SWAP1 REVERT JUMPDEST PUSH9 0x56BC75E2D63100000 PUSH2 0x22C SELFBALANCE PUSH2 0xA6B JUMP JUMPDEST LT PUSH2 0x26C JUMPI PUSH1 0x40 MLOAD PUSH32 0x8C379A000000000000000000000000000000000000000000000000000000000 DUP2 MSTORE PUSH1 0x4 ADD PUSH2 0x263 SWAP1 PUSH2 0xD37 JUMP JUMPDEST PUSH1 0x40 MLOAD DUP1 SWAP2 SUB SWAP1 REVERT JUMPDEST PUSH0 DUP1 PUSH0 CALLER PUSH20 0xFFFFFFFFFFFFFFFFFFFFFFFFFFFFFFFFFFFFFFFF AND PUSH20 0xFFFFFFFFFFFFFFFFFFFFFFFFFFFFFFFFFFFFFFFF AND DUP2 MSTORE PUSH1 0x20 ADD SWAP1 DUP2 MSTORE PUSH1 0x20 ADD PUSH0 KECCAK256 SLOAD SWAP1 POP PUSH0 DUP2 SUB PUSH2 0x2EE JUMPI PUSH1 0x40 MLOAD PUSH32 0x8C379A000000000000000000000000000000000000000000000000000000000 DUP2 MSTORE PUSH1 0x4 ADD PUSH2 0x2E5 SWAP1 PUSH2 0xD9F JUMP JUMPDEST PUSH1 0x40 MLOAD DUP1 SWAP2 SUB SWAP1 REVERT JUMPDEST PUSH0 CALLER PUSH20 0xFFFFFFFFFFFFFFFFFFFFFFFFFFFFFFFFFFFFFFFF AND PUSH0 DUP1 CALLER PUSH20 0xFFFFFFFFFFFFFFFFFFFFFFFFFFFFFFFFFFFFFFFF AND PUSH20 0xFFFFFFFFFFFFFFFFFFFFFFFFFFFFFFFFFFFFFFFF AND DUP2 MSTORE PUSH1 0x20 ADD SWAP1 DUP2 MSTORE PUSH1 0x20 ADD PUSH0 KECCAK256 SLOAD PUSH1 0x40 MLOAD PUSH2 0x34F SWAP1 PUSH2 0xDEA JUMP JUMPDEST PUSH0 PUSH1 0x40 MLOAD DUP1 DUP4 SUB DUP2 DUP6 DUP8 GAS CALL SWAP3 POP POP POP RETURNDATASIZE DUP1 PUSH0 DUP2 EQ PUSH2 0x389 JUMPI PUSH1 0x40 MLOAD SWAP2 POP PUSH1 0x1F NOT PUSH1 0x3F RETURNDATASIZE ADD AND DUP3 ADD PUSH1 0x40 MSTORE RETURNDATASIZE DUP3 MSTORE RETURNDATASIZE PUSH0 PUSH1 0x20 DUP5 ADD RETURNDATACOPY PUSH2 0x38E JUMP JUMPDEST PUSH1 0x60 SWAP2 POP JUMPDEST POP POP DUP1 SWAP2 POP POP DUP1 PUSH2 0x3D4 JUMPI PUSH1 0x40 MLOAD PUSH32 0x8C379A000000000000000000000000000000000000000000000000000000000 DUP2 MSTORE PUSH1 0x4 ADD PUSH2 0x3CB SWAP1 PUSH2 0xE48 JUMP JUMPDEST PUSH1 0x40 MLOAD DUP1 SWAP2 SUB SWAP1 REVERT JUMPDEST PUSH0 DUP1 PUSH0 CALLER PUSH20 0xFFFFFFFFFFFFFFFFFFFFFFFFFFFFFFFFFFFFFFFF AND PUSH20 0xFFFFFFFFFFFFFFFFFFFFFFFFFFFFFFFFFFFFFFFF AND DUP2 MSTORE PUSH1 0x20 ADD SWAP1 DUP2 MSTORE PUSH1 0x20 ADD PUSH0 KECCAK256 DUP2 SWAP1 SSTORE POP POP POP JUMP JUMPDEST PUSH1 0x3 PUSH0 SWAP1 SLOAD SWAP1 PUSH2 0x100 EXP SWAP1 DIV PUSH20 0xFFFFFFFFFFFFFFFFFFFFFFFFFFFFFFFFFFFFFFFF AND PUSH20 0xFFFFFFFFFFFFFFFFFFFFFFFFFFFFFFFFFFFFFFFF AND CALLER PUSH20 0xFFFFFFFFFFFFFFFFFFFFFFFFFFFFFFFFFFFFFFFF AND EQ PUSH2 0x4A8 JUMPI PUSH1 0x40 MLOAD PUSH32 0x8C379A000000000000000000000000000000000000000000000000000000000 DUP2 MSTORE PUSH1 0x4 ADD PUSH2 0x49F SWAP1 PUSH2 0xED6 JUMP JUMPDEST PUSH1 0x40 MLOAD DUP1 SWAP2 SUB SWAP1 REVERT JUMPDEST DUP1 PUSH1 0x6 PUSH0 PUSH2 0x100 EXP DUP2 SLOAD DUP2 PUSH20 0xFFFFFFFFFFFFFFFFFFFFFFFFFFFFFFFFFFFFFFFF MUL NOT AND SWAP1 DUP4 PUSH20 0xFFFFFFFFFFFFFFFFFFFFFFFFFFFFFFFFFFFFFFFF AND MUL OR SWAP1 SSTORE POP POP JUMP JUMPDEST PUSH0 PUSH1 0x20 MSTORE DUP1 PUSH0 MSTORE PUSH1 0x40 PUSH0 KECCAK256 PUSH0 SWAP2 POP SWAP1 POP SLOAD DUP2 JUMP JUMPDEST PUSH1 0x3 PUSH0 SWAP1 SLOAD SWAP1 PUSH2 0x100 EXP SWAP1 DIV PUSH20 0xFFFFFFFFFFFFFFFFFFFFFFFFFFFFFFFFFFFFFFFF AND PUSH20 0xFFFFFFFFFFFFFFFFFFFFFFFFFFFFFFFFFFFFFFFF AND CALLER PUSH20 0xFFFFFFFFFFFFFFFFFFFFFFFFFFFFFFFFFFFFFFFF AND EQ PUSH2 0x58E JUMPI PUSH1 0x40 MLOAD PUSH32 0x8C379A000000000000000000000000000000000000000000000000000000000 DUP2 MSTORE PUSH1 0x4 ADD PUSH2 0x585 SWAP1 PUSH2 0xED6 JUMP JUMPDEST PUSH1 0x40 MLOAD DUP1 SWAP2 SUB SWAP1 REVERT JUMPDEST DUP1 PUSH1 0x3 PUSH0 PUSH2 0x100 EXP DUP2 SLOAD DUP2 PUSH20 0xFFFFFFFFFFFFFFFFFFFFFFFFFFFFFFFFFFFFFFFF MUL NOT AND SWAP1 DUP4 PUSH20 0xFFFFFFFFFFFFFFFFFFFFFFFFFFFFFFFFFFFFFFFF AND MUL OR SWAP1 SSTORE POP POP JUMP JUMPDEST PUSH1 0x3 PUSH0 SWAP1 SLOAD SWAP1 PUSH2 0x100 EXP SWAP1 DIV PUSH20 0xFFFFFFFFFFFFFFFFFFFFFFFFFFFFFFFFFFFFFFFF AND DUP2 JUMP JUMPDEST PUSH1 0x5 SLOAD PUSH1 0x4 SLOAD PUSH2 0x606 SWAP2 SWAP1 PUSH2 0xC42 JUMP JUMPDEST TIMESTAMP LT ISZERO PUSH2 0x648 JUMPI PUSH1 0x40 MLOAD PUSH32 0x8C379A000000000000000000000000000000000000000000000000000000000 DUP2 MSTORE PUSH1 0x4 ADD PUSH2 0x63F SWAP1 PUSH2 0xCCF JUMP JUMPDEST PUSH1 0x40 MLOAD DUP1 SWAP2 SUB SWAP1 REVERT JUMPDEST PUSH1 0x3 PUSH0 SWAP1 SLOAD SWAP1 PUSH2 0x100 EXP SWAP1 DIV PUSH20 0xFFFFFFFFFFFFFFFFFFFFFFFFFFFFFFFFFFFFFFFF AND PUSH20 0xFFFFFFFFFFFFFFFFFFFFFFFFFFFFFFFFFFFFFFFF AND CALLER PUSH20 0xFFFFFFFFFFFFFFFFFFFFFFFFFFFFFFFFFFFFFFFF AND EQ PUSH2 0x6D7 JUMPI PUSH1 0x40 MLOAD PUSH32 0x8C379A000000000000000000000000000000000000000000000000000000000 DUP2 MSTORE PUSH1 0x4 ADD PUSH2 0x6CE SWAP1 PUSH2 0xED6 JUMP JUMPDEST PUSH1 0x40 MLOAD DUP1 SWAP2 SUB SWAP1 REVERT JUMPDEST PUSH9 0x56BC75E2D63100000 PUSH2 0x6EA SELFBALANCE PUSH2 0xA6B JUMP JUMPDEST LT ISZERO PUSH2 0x72B JUMPI PUSH1 0x40 MLOAD PUSH32 0x8C379A000000000000000000000000000000000000000000000000000000000 DUP2 MSTORE PUSH1 0x4 ADD PUSH2 0x722 SWAP1 PUSH2 0xF3E JUMP JUMPDEST PUSH1 0x40 MLOAD DUP1 SWAP2 SUB SWAP1 REVERT JUMPDEST PUSH0 CALLER PUSH20 0xFFFFFFFFFFFFFFFFFFFFFFFFFFFFFFFFFFFFFFFF AND SELFBALANCE PUSH1 0x40 MLOAD PUSH2 0x750 SWAP1 PUSH2 0xDEA JUMP JUMPDEST PUSH0 PUSH1 0x40 MLOAD DUP1 DUP4 SUB DUP2 DUP6 DUP8 GAS CALL SWAP3 POP POP POP RETURNDATASIZE DUP1 PUSH0 DUP2 EQ PUSH2 0x78A JUMPI PUSH1 0x40 MLOAD SWAP2 POP PUSH1 0x1F NOT PUSH1 0x3F RETURNDATASIZE ADD AND DUP3 ADD PUSH1 0x40 MSTORE RETURNDATASIZE DUP3 MSTORE RETURNDATASIZE PUSH0 PUSH1 0x20 DUP5 ADD RETURNDATACOPY PUSH2 0x78F JUMP JUMPDEST PUSH1 0x60 SWAP2 POP JUMPDEST POP POP DUP1 SWAP2 POP POP DUP1 PUSH2 0x7D5 JUMPI PUSH1 0x40 MLOAD PUSH32 0x8C379A000000000000000000000000000000000000000000000000000000000 DUP2 MSTORE PUSH1 0x4 ADD PUSH2 0x7CC SWAP1 PUSH2 0xE48 JUMP JUMPDEST PUSH1 0x40 MLOAD DUP1 SWAP2 SUB SWAP1 REVERT JUMPDEST PUSH0 DUP1 PUSH0 CALLER PUSH20 0xFFFFFFFFFFFFFFFFFFFFFFFFFFFFFFFFFFFFFFFF AND PUSH20 0xFFFFFFFFFFFFFFFFFFFFFFFFFFFFFFFFFFFFFFFF AND DUP2 MSTORE PUSH1 0x20 ADD SWAP1 DUP2 MSTORE PUSH1 0x20 ADD PUSH0 KECCAK256 DUP2 SWAP1 SSTORE POP POP JUMP JUMPDEST PUSH1 0x5 SLOAD PUSH1 0x4 SLOAD PUSH2 0x829 SWAP2 SWAP1 PUSH2 0xC42 JUMP JUMPDEST TIMESTAMP LT PUSH2 0x86A JUMPI PUSH1 0x40 MLOAD PUSH32 0x8C379A000000000000000000000000000000000000000000000000000000000 DUP2 MSTORE PUSH1 0x4 ADD PUSH2 0x861 SWAP1 PUSH2 0xFA6 JUMP JUMPDEST PUSH1 0x40 MLOAD DUP1 SWAP2 SUB SWAP1 REVERT JUMPDEST PUSH1 0x1 SLOAD PUSH2 0x876 CALLVALUE PUSH2 0xA6B JUMP JUMPDEST LT ISZERO PUSH2 0x8B7 JUMPI PUSH1 0x40 MLOAD PUSH32 0x8C379A000000000000000000000000000000000000000000000000000000000 DUP2 MSTORE PUSH1 0x4 ADD PUSH2 0x8AE SWAP1 PUSH2 0x100E JUMP JUMPDEST PUSH1 0x40 MLOAD DUP1 SWAP2 SUB SWAP1 REVERT JUMPDEST CALLVALUE PUSH0 DUP1 CALLER PUSH20 0xFFFFFFFFFFFFFFFFFFFFFFFFFFFFFFFFFFFFFFFF AND PUSH20 0xFFFFFFFFFFFFFFFFFFFFFFFFFFFFFFFFFFFFFFFF AND DUP2 MSTORE PUSH1 0x20 ADD SWAP1 DUP2 MSTORE PUSH1 0x20 ADD PUSH0 KECCAK256 DUP2 SWAP1 SSTORE POP JUMP JUMPDEST PUSH0 DUP1 PUSH1 0x2 PUSH0 SWAP1 SLOAD SWAP1 PUSH2 0x100 EXP SWAP1 DIV PUSH20 0xFFFFFFFFFFFFFFFFFFFFFFFFFFFFFFFFFFFFFFFF AND PUSH20 0xFFFFFFFFFFFFFFFFFFFFFFFFFFFFFFFFFFFFFFFF AND PUSH4 0xFEAF968C PUSH1 0x40 MLOAD DUP2 PUSH4 0xFFFFFFFF AND PUSH1 0xE0 SHL DUP2 MSTORE PUSH1 0x4 ADD PUSH1 0xA0 PUSH1 0x40 MLOAD DUP1 DUP4 SUB DUP2 DUP7 GAS STATICCALL ISZERO DUP1 ISZERO PUSH2 0x966 JUMPI RETURNDATASIZE PUSH0 DUP1 RETURNDATACOPY RETURNDATASIZE PUSH0 REVERT JUMPDEST POP POP POP POP PUSH1 0x40 MLOAD RETURNDATASIZE PUSH1 0x1F NOT PUSH1 0x1F DUP3 ADD AND DUP3 ADD DUP1 PUSH1 0x40 MSTORE POP DUP2 ADD SWAP1 PUSH2 0x98A SWAP2 SWAP1 PUSH2 0x10A9 JUMP JUMPDEST POP POP POP SWAP2 POP POP DUP1 SWAP2 POP POP SWAP1 JUMP JUMPDEST PUSH1 0x6 PUSH0 SWAP1 SLOAD SWAP1 PUSH2 0x100 EXP SWAP1 DIV PUSH20 0xFFFFFFFFFFFFFFFFFFFFFFFFFFFFFFFFFFFFFFFF AND PUSH20 0xFFFFFFFFFFFFFFFFFFFFFFFFFFFFFFFFFFFFFFFF AND CALLER PUSH20 0xFFFFFFFFFFFFFFFFFFFFFFFFFFFFFFFFFFFFFFFF AND EQ PUSH2 0xA26 JUMPI PUSH1 0x40 MLOAD PUSH32 0x8C379A000000000000000000000000000000000000000000000000000000000 DUP2 MSTORE PUSH1 0x4 ADD PUSH2 0xA1D SWAP1 PUSH2 0x1190 JUMP JUMPDEST PUSH1 0x40 MLOAD DUP1 SWAP2 SUB SWAP1 REVERT JUMPDEST DUP1 PUSH0 DUP1 DUP5 PUSH20 0xFFFFFFFFFFFFFFFFFFFFFFFFFFFFFFFFFFFFFFFF AND PUSH20 0xFFFFFFFFFFFFFFFFFFFFFFFFFFFFFFFFFFFFFFFF AND DUP2 MSTORE PUSH1 0x20 ADD SWAP1 DUP2 MSTORE PUSH1 0x20 ADD PUSH0 KECCAK256 DUP2 SWAP1 SSTORE POP POP POP JUMP JUMPDEST PUSH0 DUP1 PUSH2 0xA75 PUSH2 0x8FA JUMP JUMPDEST SWAP1 POP PUSH4 0x5F5E100 DUP2 DUP5 PUSH2 0xA88 SWAP2 SWAP1 PUSH2 0x11AE JUMP JUMPDEST PUSH2 0xA92 SWAP2 SWAP1 PUSH2 0x121C JUMP JUMPDEST SWAP2 POP POP SWAP2 SWAP1 POP JUMP JUMPDEST PUSH0 DUP1 REVERT JUMPDEST PUSH0 PUSH20 0xFFFFFFFFFFFFFFFFFFFFFFFFFFFFFFFFFFFFFFFF DUP3 AND SWAP1 POP SWAP2 SWAP1 POP JUMP JUMPDEST PUSH0 PUSH2 0xAC7 DUP3 PUSH2 0xA9E JUMP JUMPDEST SWAP1 POP SWAP2 SWAP1 POP JUMP JUMPDEST PUSH2 0xAD7 DUP2 PUSH2 0xABD JUMP JUMPDEST DUP2 EQ PUSH2 0xAE1 JUMPI PUSH0 DUP1 REVERT JUMPDEST POP JUMP JUMPDEST PUSH0 DUP2 CALLDATALOAD SWAP1 POP PUSH2 0xAF2 DUP2 PUSH2 0xACE JUMP JUMPDEST SWAP3 SWAP2 POP POP JUMP JUMPDEST PUSH0 PUSH1 0x20 DUP3 DUP5 SUB SLT ISZERO PUSH2 0xB0D JUMPI PUSH2 0xB0C PUSH2 0xA9A JUMP JUMPDEST JUMPDEST PUSH0 PUSH2 0xB1A DUP5 DUP3 DUP6 ADD PUSH2 0xAE4 JUMP JUMPDEST SWAP2 POP POP SWAP3 SWAP2 POP POP JUMP JUMPDEST PUSH0 DUP2 SWAP1 POP SWAP2 SWAP1 POP JUMP JUMPDEST PUSH2 0xB35 DUP2 PUSH2 0xB23 JUMP JUMPDEST DUP3 MSTORE POP POP JUMP JUMPDEST PUSH0 PUSH1 0x20 DUP3 ADD SWAP1 POP PUSH2 0xB4E PUSH0 DUP4 ADD DUP5 PUSH2 0xB2C JUMP JUMPDEST SWAP3 SWAP2 POP POP JUMP JUMPDEST PUSH2 0xB5D DUP2 PUSH2 0xABD JUMP JUMPDEST DUP3 MSTORE POP POP JUMP JUMPDEST PUSH0 PUSH1 0x20 DUP3 ADD SWAP1 POP PUSH2 0xB76 PUSH0 DUP4 ADD DUP5 PUSH2 0xB54 JUMP JUMPDEST SWAP3 SWAP2 POP POP JUMP JUMPDEST PUSH0 DUP2 SWAP1 POP SWAP2 SWAP1 POP JUMP JUMPDEST PUSH2 0xB8E DUP2 PUSH2 0xB7C JUMP JUMPDEST DUP3 MSTORE POP POP JUMP JUMPDEST PUSH0 PUSH1 0x20 DUP3 ADD SWAP1 POP PUSH2 0xBA7 PUSH0 DUP4 ADD DUP5 PUSH2 0xB85 JUMP JUMPDEST SWAP3 SWAP2 POP POP JUMP JUMPDEST PUSH2 0xBB6 DUP2 PUSH2 0xB23 JUMP JUMPDEST DUP2 EQ PUSH2 0xBC0 JUMPI PUSH0 DUP1 REVERT JUMPDEST POP JUMP JUMPDEST PUSH0 DUP2 CALLDATALOAD SWAP1 POP PUSH2 0xBD1 DUP2 PUSH2 0xBAD JUMP JUMPDEST SWAP3 SWAP2 POP POP JUMP JUMPDEST PUSH0 DUP1 PUSH1 0x40 DUP4 DUP6 SUB SLT ISZERO PUSH2 0xBED JUMPI PUSH2 0xBEC PUSH2 0xA9A JUMP JUMPDEST JUMPDEST PUSH0 PUSH2 0xBFA DUP6 DUP3 DUP7 ADD PUSH2 0xAE4 JUMP JUMPDEST SWAP3 POP POP PUSH1 0x20 PUSH2 0xC0B DUP6 DUP3 DUP7 ADD PUSH2 0xBC3 JUMP JUMPDEST SWAP2 POP POP SWAP3 POP SWAP3 SWAP1 POP JUMP JUMPDEST PUSH32 0x4E487B7100000000000000000000000000000000000000000000000000000000 PUSH0 MSTORE PUSH1 0x11 PUSH1 0x4 MSTORE PUSH1 0x24 PUSH0 REVERT JUMPDEST PUSH0 PUSH2 0xC4C DUP3 PUSH2 0xB23 JUMP JUMPDEST SWAP2 POP PUSH2 0xC57 DUP4 PUSH2 0xB23 JUMP JUMPDEST SWAP3 POP DUP3 DUP3 ADD SWAP1 POP DUP1 DUP3 GT ISZERO PUSH2 0xC6F JUMPI PUSH2 0xC6E PUSH2 0xC15 JUMP JUMPDEST JUMPDEST SWAP3 SWAP2 POP POP JUMP JUMPDEST PUSH0 DUP3 DUP3 MSTORE PUSH1 0x20 DUP3 ADD SWAP1 POP SWAP3 SWAP2 POP POP JUMP JUMPDEST PUSH32 0x77696E646F77206973206E6F7420636C6F736564000000000000000000000000 PUSH0 DUP3 ADD MSTORE POP JUMP JUMPDEST PUSH0 PUSH2 0xCB9 PUSH1 0x14 DUP4 PUSH2 0xC75 JUMP JUMPDEST SWAP2 POP PUSH2 0xCC4 DUP3 PUSH2 0xC85 JUMP JUMPDEST PUSH1 0x20 DUP3 ADD SWAP1 POP SWAP2 SWAP1 POP JUMP JUMPDEST PUSH0 PUSH1 0x20 DUP3 ADD SWAP1 POP DUP2 DUP2 SUB PUSH0 DUP4 ADD MSTORE PUSH2 0xCE6 DUP2 PUSH2 0xCAD JUMP JUMPDEST SWAP1 POP SWAP2 SWAP1 POP JUMP JUMPDEST PUSH32 0x7461726765742069732072656163686564000000000000000000000000000000 PUSH0 DUP3 ADD MSTORE POP JUMP JUMPDEST PUSH0 PUSH2 0xD21 PUSH1 0x11 DUP4 PUSH2 0xC75 JUMP JUMPDEST SWAP2 POP PUSH2 0xD2C DUP3 PUSH2 0xCED JUMP JUMPDEST PUSH1 0x20 DUP3 ADD SWAP1 POP SWAP2 SWAP1 POP JUMP JUMPDEST PUSH0 PUSH1 0x20 DUP3 ADD SWAP1 POP DUP2 DUP2 SUB PUSH0 DUP4 ADD MSTORE PUSH2 0xD4E DUP2 PUSH2 0xD15 JUMP JUMPDEST SWAP1 POP SWAP2 SWAP1 POP JUMP JUMPDEST PUSH32 0x7468657265206973206E6F742066756E6420666F7220796F7500000000000000 PUSH0 DUP3 ADD MSTORE POP JUMP JUMPDEST PUSH0 PUSH2 0xD89 PUSH1 0x19 DUP4 PUSH2 0xC75 JUMP JUMPDEST SWAP2 POP PUSH2 0xD94 DUP3 PUSH2 0xD55 JUMP JUMPDEST PUSH1 0x20 DUP3 ADD SWAP1 POP SWAP2 SWAP1 POP JUMP JUMPDEST PUSH0 PUSH1 0x20 DUP3 ADD SWAP1 POP DUP2 DUP2 SUB PUSH0 DUP4 ADD MSTORE PUSH2 0xDB6 DUP2 PUSH2 0xD7D JUMP JUMPDEST SWAP1 POP SWAP2 SWAP1 POP JUMP JUMPDEST PUSH0 DUP2 SWAP1 POP SWAP3 SWAP2 POP POP JUMP JUMPDEST POP JUMP JUMPDEST PUSH0 PUSH2 0xDD5 PUSH0 DUP4 PUSH2 0xDBD JUMP JUMPDEST SWAP2 POP PUSH2 0xDE0 DUP3 PUSH2 0xDC7 JUMP JUMPDEST PUSH0 DUP3 ADD SWAP1 POP SWAP2 SWAP1 POP JUMP JUMPDEST PUSH0 PUSH2 0xDF4 DUP3 PUSH2 0xDCA JUMP JUMPDEST SWAP2 POP DUP2 SWAP1 POP SWAP2 SWAP1 POP JUMP JUMPDEST PUSH32 0x7472616E73666572207478206661696C65640000000000000000000000000000 PUSH0 DUP3 ADD MSTORE POP JUMP JUMPDEST PUSH0 PUSH2 0xE32 PUSH1 0x12 DUP4 PUSH2 0xC75 JUMP JUMPDEST SWAP2 POP PUSH2 0xE3D DUP3 PUSH2 0xDFE JUMP JUMPDEST PUSH1 0x20 DUP3 ADD SWAP1 POP SWAP2 SWAP1 POP JUMP JUMPDEST PUSH0 PUSH1 0x20 DUP3 ADD SWAP1 POP DUP2 DUP2 SUB PUSH0 DUP4 ADD MSTORE PUSH2 0xE5F DUP2 PUSH2 0xE26 JUMP JUMPDEST SWAP1 POP SWAP2 SWAP1 POP JUMP JUMPDEST PUSH32 0x746869732066756E6374696F6E2063616E206F6E6C792062652063616C6C6564 PUSH0 DUP3 ADD MSTORE PUSH32 0x206279206F776E65720000000000000000000000000000000000000000000000 PUSH1 0x20 DUP3 ADD MSTORE POP JUMP JUMPDEST PUSH0 PUSH2 0xEC0 PUSH1 0x29 DUP4 PUSH2 0xC75 JUMP JUMPDEST SWAP2 POP PUSH2 0xECB DUP3 PUSH2 0xE66 JUMP JUMPDEST PUSH1 0x40 DUP3 ADD SWAP1 POP SWAP2 SWAP1 POP JUMP JUMPDEST PUSH0 PUSH1 0x20 DUP3 ADD SWAP1 POP DUP2 DUP2 SUB PUSH0 DUP4 ADD MSTORE PUSH2 0xEED DUP2 PUSH2 0xEB4 JUMP JUMPDEST SWAP1 POP SWAP2 SWAP1 POP JUMP JUMPDEST PUSH32 0x746172676574206973206E6F7420726561636865640000000000000000000000 PUSH0 DUP3 ADD MSTORE POP JUMP JUMPDEST PUSH0 PUSH2 0xF28 PUSH1 0x15 DUP4 PUSH2 0xC75 JUMP JUMPDEST SWAP2 POP PUSH2 0xF33 DUP3 PUSH2 0xEF4 JUMP JUMPDEST PUSH1 0x20 DUP3 ADD SWAP1 POP SWAP2 SWAP1 POP JUMP JUMPDEST PUSH0 PUSH1 0x20 DUP3 ADD SWAP1 POP DUP2 DUP2 SUB PUSH0 DUP4 ADD MSTORE PUSH2 0xF55 DUP2 PUSH2 0xF1C JUMP JUMPDEST SWAP1 POP SWAP2 SWAP1 POP JUMP JUMPDEST PUSH32 0x77696E646F7720697320636C6F73656400000000000000000000000000000000 PUSH0 DUP3 ADD MSTORE POP JUMP JUMPDEST PUSH0 PUSH2 0xF90 PUSH1 0x10 DUP4 PUSH2 0xC75 JUMP JUMPDEST SWAP2 POP PUSH2 0xF9B DUP3 PUSH2 0xF5C JUMP JUMPDEST PUSH1 0x20 DUP3 ADD SWAP1 POP SWAP2 SWAP1 POP JUMP JUMPDEST PUSH0 PUSH1 0x20 DUP3 ADD SWAP1 POP DUP2 DUP2 SUB PUSH0 DUP4 ADD MSTORE PUSH2 0xFBD DUP2 PUSH2 0xF84 JUMP JUMPDEST SWAP1 POP SWAP2 SWAP1 POP JUMP JUMPDEST PUSH32 0x73656E64206D6F72652045544800000000000000000000000000000000000000 PUSH0 DUP3 ADD MSTORE POP JUMP JUMPDEST PUSH0 PUSH2 0xFF8 PUSH1 0xD DUP4 PUSH2 0xC75 JUMP JUMPDEST SWAP2 POP PUSH2 0x1003 DUP3 PUSH2 0xFC4 JUMP JUMPDEST PUSH1 0x20 DUP3 ADD SWAP1 POP SWAP2 SWAP1 POP JUMP JUMPDEST PUSH0 PUSH1 0x20 DUP3 ADD SWAP1 POP DUP2 DUP2 SUB PUSH0 DUP4 ADD MSTORE PUSH2 0x1025 DUP2 PUSH2 0xFEC JUMP JUMPDEST SWAP1 POP SWAP2 SWAP1 POP JUMP JUMPDEST PUSH0 PUSH10 0xFFFFFFFFFFFFFFFFFFFF DUP3 AND SWAP1 POP SWAP2 SWAP1 POP JUMP JUMPDEST PUSH2 0x104A DUP2 PUSH2 0x102C JUMP JUMPDEST DUP2 EQ PUSH2 0x1054 JUMPI PUSH0 DUP1 REVERT JUMPDEST POP JUMP JUMPDEST PUSH0 DUP2 MLOAD SWAP1 POP PUSH2 0x1065 DUP2 PUSH2 0x1041 JUMP JUMPDEST SWAP3 SWAP2 POP POP JUMP JUMPDEST PUSH2 0x1074 DUP2 PUSH2 0xB7C JUMP JUMPDEST DUP2 EQ PUSH2 0x107E JUMPI PUSH0 DUP1 REVERT JUMPDEST POP JUMP JUMPDEST PUSH0 DUP2 MLOAD SWAP1 POP PUSH2 0x108F DUP2 PUSH2 0x106B JUMP JUMPDEST SWAP3 SWAP2 POP POP JUMP JUMPDEST PUSH0 DUP2 MLOAD SWAP1 POP PUSH2 0x10A3 DUP2 PUSH2 0xBAD JUMP JUMPDEST SWAP3 SWAP2 POP POP JUMP JUMPDEST PUSH0 DUP1 PUSH0 DUP1 PUSH0 PUSH1 0xA0 DUP7 DUP9 SUB SLT ISZERO PUSH2 0x10C2 JUMPI PUSH2 0x10C1 PUSH2 0xA9A JUMP JUMPDEST JUMPDEST PUSH0 PUSH2 0x10CF DUP9 DUP3 DUP10 ADD PUSH2 0x1057 JUMP JUMPDEST SWAP6 POP POP PUSH1 0x20 PUSH2 0x10E0 DUP9 DUP3 DUP10 ADD PUSH2 0x1081 JUMP JUMPDEST SWAP5 POP POP PUSH1 0x40 PUSH2 0x10F1 DUP9 DUP3 DUP10 ADD PUSH2 0x1095 JUMP JUMPDEST SWAP4 POP POP PUSH1 0x60 PUSH2 0x1102 DUP9 DUP3 DUP10 ADD PUSH2 0x1095 JUMP JUMPDEST SWAP3 POP POP PUSH1 0x80 PUSH2 0x1113 DUP9 DUP3 DUP10 ADD PUSH2 0x1057 JUMP JUMPDEST SWAP2 POP POP SWAP3 SWAP6 POP SWAP3 SWAP6 SWAP1 SWAP4 POP JUMP JUMPDEST PUSH32 0x796F7520646F206E6F742068617665207065726D697373696F6E20746F206361 PUSH0 DUP3 ADD MSTORE PUSH32 0x6C6C20746869732066756E6374696F6E00000000000000000000000000000000 PUSH1 0x20 DUP3 ADD MSTORE POP JUMP JUMPDEST PUSH0 PUSH2 0x117A PUSH1 0x30 DUP4 PUSH2 0xC75 JUMP JUMPDEST SWAP2 POP PUSH2 0x1185 DUP3 PUSH2 0x1120 JUMP JUMPDEST PUSH1 0x40 DUP3 ADD SWAP1 POP SWAP2 SWAP1 POP JUMP JUMPDEST PUSH0 PUSH1 0x20 DUP3 ADD SWAP1 POP DUP2 DUP2 SUB PUSH0 DUP4 ADD MSTORE PUSH2 0x11A7 DUP2 PUSH2 0x116E JUMP JUMPDEST SWAP1 POP SWAP2 SWAP1 POP JUMP JUMPDEST PUSH0 PUSH2 0x11B8 DUP3 PUSH2 0xB23 JUMP JUMPDEST SWAP2 POP PUSH2 0x11C3 DUP4 PUSH2 0xB23 JUMP JUMPDEST SWAP3 POP DUP3 DUP3 MUL PUSH2 0x11D1 DUP2 PUSH2 0xB23 JUMP JUMPDEST SWAP2 POP DUP3 DUP3 DIV DUP5 EQ DUP4 ISZERO OR PUSH2 0x11E8 JUMPI PUSH2 0x11E7 PUSH2 0xC15 JUMP JUMPDEST JUMPDEST POP SWAP3 SWAP2 POP POP JUMP JUMPDEST PUSH32 0x4E487B7100000000000000000000000000000000000000000000000000000000 PUSH0 MSTORE PUSH1 0x12 PUSH1 0x4 MSTORE PUSH1 0x24 PUSH0 REVERT JUMPDEST PUSH0 PUSH2 0x1226 DUP3 PUSH2 0xB23 JUMP JUMPDEST SWAP2 POP PUSH2 0x1231 DUP4 PUSH2 0xB23 JUMP JUMPDEST SWAP3 POP DUP3 PUSH2 0x1241 JUMPI PUSH2 0x1240 PUSH2 0x11EF JUMP JUMPDEST JUMPDEST DUP3 DUP3 DIV SWAP1 POP SWAP3 SWAP2 POP POP JUMP INVALID LOG2 PUSH5 0x6970667358 0x22 SLT KECCAK256 0x22 0xDF 0xE0 CALLER LOG4 0xEE 0xE7 PUSH26 0xAC49586229F0CDDBE3F0B5E9F8A35F5427F4CCF4B4CC562F6473 PUSH16 0x6C634300081A00330000000000000000 "
				},
				"gasEstimates": {
					"creation": {
						"codeDepositCost": "947600",
						"executionCost": "infinite",
						"totalCost": "infinite"
					},
					"external": {
						"fund()": "infinite",
						"funderToAmount(address)": "2846",
						"getChainlinkDataFeedLatestAnswer()": "infinite",
						"getFund()": "infinite",
						"owner()": "2508",
						"reFund()": "infinite",
						"setErc20Addr(address)": "26907",
						"setFunderToAmount(address,uint256)": "25079",
						"transferOwnerShip(address)": "26951"
					},
					"internal": {
						"convertEthToUsd(uint256)": "infinite"
					}
				},
				"methodIdentifiers": {
					"fund()": "b60d4288",
					"funderToAmount(address)": "4407e1e8",
					"getChainlinkDataFeedLatestAnswer()": "bea4dfb5",
					"getFund()": "8edd6eb6",
					"owner()": "8da5cb5b",
					"reFund()": "0ff0a4df",
					"setErc20Addr(address)": "13ffff01",
					"setFunderToAmount(address,uint256)": "d39cf006",
					"transferOwnerShip(address)": "8863dd1a"
				}
			},
			"storageLayout": {
				"storage": [
					{
						"astId": 53,
						"contract": "contracts/FundMe.sol:FundMe",
						"label": "funderToAmount",
						"offset": 0,
						"slot": "0",
						"type": "t_mapping(t_address,t_uint256)"
					},
					{
						"astId": 60,
						"contract": "contracts/FundMe.sol:FundMe",
						"label": "MINMUM_VALUE",
						"offset": 0,
						"slot": "1",
						"type": "t_uint256"
					},
					{
						"astId": 63,
						"contract": "contracts/FundMe.sol:FundMe",
						"label": "dataFeed",
						"offset": 0,
						"slot": "2",
						"type": "t_contract(AggregatorV3Interface)45"
					},
					{
						"astId": 72,
						"contract": "contracts/FundMe.sol:FundMe",
						"label": "owner",
						"offset": 0,
						"slot": "3",
						"type": "t_address"
					},
					{
						"astId": 74,
						"contract": "contracts/FundMe.sol:FundMe",
						"label": "deploymentTimestamp",
						"offset": 0,
						"slot": "4",
						"type": "t_uint256"
					},
					{
						"astId": 76,
						"contract": "contracts/FundMe.sol:FundMe",
						"label": "lockTime",
						"offset": 0,
						"slot": "5",
						"type": "t_uint256"
					},
					{
						"astId": 78,
						"contract": "contracts/FundMe.sol:FundMe",
						"label": "erc20Addr",
						"offset": 0,
						"slot": "6",
						"type": "t_address"
					}
				],
				"types": {
					"t_address": {
						"encoding": "inplace",
						"label": "address",
						"numberOfBytes": "20"
					},
					"t_contract(AggregatorV3Interface)45": {
						"encoding": "inplace",
						"label": "contract AggregatorV3Interface",
						"numberOfBytes": "20"
					},
					"t_mapping(t_address,t_uint256)": {
						"encoding": "mapping",
						"key": "t_address",
						"label": "mapping(address => uint256)",
						"numberOfBytes": "32",
						"value": "t_uint256"
					},
					"t_uint256": {
						"encoding": "inplace",
						"label": "uint256",
						"numberOfBytes": "32"
					}
				}
			},
			"userdoc": {
				"kind": "user",
				"methods": {
					"fund()": {
						"notice": "1.创建一个收款函数"
					},
					"getChainlinkDataFeedLatestAnswer()": {
						"notice": "Returns the latest answer."
					}
				},
				"version": 1
			}
		}
	}
}