{
	"contracts/FundTokenErc20_flattened.sol": {
		"FundMe": {
			"abi": [
				{
					"inputs": [
						{
							"internalType": "uint256",
							"name": "_lockTime",
							"type": "uint256"
						}
					],
					"stateMutability": "nonpayable",
					"type": "constructor"
				},
				{
					"inputs": [],
					"name": "fund",
					"outputs": [],
					"stateMutability": "payable",
					"type": "function"
				},
				{
					"inputs": [
						{
							"internalType": "address",
							"name": "",
							"type": "address"
						}
					],
					"name": "funderToAmount",
					"outputs": [
						{
							"internalType": "uint256",
							"name": "",
							"type": "uint256"
						}
					],
					"stateMutability": "view",
					"type": "function"
				},
				{
					"inputs": [],
					"name": "getChainlinkDataFeedLatestAnswer",
					"outputs": [
						{
							"internalType": "int256",
							"name": "",
							"type": "int256"
						}
					],
					"stateMutability": "view",
					"type": "function"
				},
				{
					"inputs": [],
					"name": "getFund",
					"outputs": [],
					"stateMutability": "nonpayable",
					"type": "function"
				},
				{
					"inputs": [],
					"name": "getFundSuccess",
					"outputs": [
						{
							"internalType": "bool",
							"name": "",
							"type": "bool"
						}
					],
					"stateMutability": "view",
					"type": "function"
				},
				{
					"inputs": [],
					"name": "owner",
					"outputs": [
						{
							"internalType": "address",
							"name": "",
							"type": "address"
						}
					],
					"stateMutability": "view",
					"type": "function"
				},
				{
					"inputs": [],
					"name": "reFund",
					"outputs": [],
					"stateMutability": "nonpayable",
					"type": "function"
				},
				{
					"inputs": [
						{
							"internalType": "address",
							"name": "_erc20Addr",
							"type": "address"
						}
					],
					"name": "setErc20Addr",
					"outputs": [],
					"stateMutability": "nonpayable",
					"type": "function"
				},
				{
					"inputs": [
						{
							"internalType": "address",
							"name": "funder",
							"type": "address"
						},
						{
							"internalType": "uint256",
							"name": "amountToUpdate",
							"type": "uint256"
						}
					],
					"name": "setFunderToAmount",
					"outputs": [],
					"stateMutability": "nonpayable",
					"type": "function"
				},
				{
					"inputs": [
						{
							"internalType": "address",
							"name": "newOwner",
							"type": "address"
						}
					],
					"name": "transferOwnerShip",
					"outputs": [],
					"stateMutability": "nonpayable",
					"type": "function"
				}
			],
			"devdoc": {
				"kind": "dev",
				"methods": {},
				"version": 1
			},
			"evm": {
				"assembly": "    /* \"contracts/FundTokenErc20_flattened.sol\":22522:27135  contract FundMe {... */\n  mstore(0x40, 0x80)\n    /* \"contracts/FundTokenErc20_flattened.sol\":22623:22634  10 * 10**18 */\n  0x8ac7230489e80000\n    /* \"contracts/FundTokenErc20_flattened.sol\":22600:22634  uint256 MINMUM_VALUE = 10 * 10**18 */\n  0x01\n  sstore\n    /* \"contracts/FundTokenErc20_flattened.sol\":22997:23002  false */\n  0x00\n    /* \"contracts/FundTokenErc20_flattened.sol\":22968:23002  bool public getFundSuccess = false */\n  0x06\n  exp(0x0100, 0x14)\n  dup2\n  sload\n  dup2\n  0xff\n  mul\n  not\n  and\n  swap1\n  dup4\n  iszero\n  iszero\n  mul\n  or\n  swap1\n  sstore\n  pop\n    /* \"contracts/FundTokenErc20_flattened.sol\":23009:23365  constructor(uint256 _lockTime) {... */\n  callvalue\n  dup1\n  iszero\n  tag_1\n  jumpi\n  0x00\n  dup1\n  revert\ntag_1:\n  pop\n  mload(0x40)\n  sub(codesize, bytecodeSize)\n  dup1\n  bytecodeSize\n  dup4\n  codecopy\n  dup2\n  dup2\n  add\n  0x40\n  mstore\n  dup2\n  add\n  swap1\n  tag_2\n  swap2\n  swap1\n  tag_3\n  jump\t// in\ntag_2:\n    /* \"contracts/FundTokenErc20_flattened.sol\":23123:23165  0x694AA1769357215DE4FAC081bf1f309aDC325306 */\n  0x694aa1769357215de4fac081bf1f309adc325306\n    /* \"contracts/FundTokenErc20_flattened.sol\":23077:23085  dataFeed */\n  0x02\n  0x00\n    /* \"contracts/FundTokenErc20_flattened.sol\":23077:23175  dataFeed = AggregatorV3Interface(... */\n  0x0100\n  exp\n  dup2\n  sload\n  dup2\n  0xffffffffffffffffffffffffffffffffffffffff\n  mul\n  not\n  and\n  swap1\n  dup4\n  0xffffffffffffffffffffffffffffffffffffffff\n  and\n  mul\n  or\n  swap1\n  sstore\n  pop\n    /* \"contracts/FundTokenErc20_flattened.sol\":23193:23203  msg.sender */\n  caller\n    /* \"contracts/FundTokenErc20_flattened.sol\":23185:23190  owner */\n  0x03\n  0x00\n    /* \"contracts/FundTokenErc20_flattened.sol\":23185:23203  owner = msg.sender */\n  0x0100\n  exp\n  dup2\n  sload\n  dup2\n  0xffffffffffffffffffffffffffffffffffffffff\n  mul\n  not\n  and\n  swap1\n  dup4\n  0xffffffffffffffffffffffffffffffffffffffff\n  and\n  mul\n  or\n  swap1\n  sstore\n  pop\n    /* \"contracts/FundTokenErc20_flattened.sol\":23274:23289  block.timestamp */\n  timestamp\n    /* \"contracts/FundTokenErc20_flattened.sol\":23252:23271  deploymentTimestamp */\n  0x04\n    /* \"contracts/FundTokenErc20_flattened.sol\":23252:23289  deploymentTimestamp = block.timestamp */\n  dup2\n  swap1\n  sstore\n  pop\n    /* \"contracts/FundTokenErc20_flattened.sol\":23349:23358  _lockTime */\n  dup1\n    /* \"contracts/FundTokenErc20_flattened.sol\":23338:23346  lockTime */\n  0x05\n    /* \"contracts/FundTokenErc20_flattened.sol\":23338:23358  lockTime = _lockTime */\n  dup2\n  swap1\n  sstore\n  pop\n    /* \"contracts/FundTokenErc20_flattened.sol\":23009:23365  constructor(uint256 _lockTime) {... */\n  pop\n    /* \"contracts/FundTokenErc20_flattened.sol\":22522:27135  contract FundMe {... */\n  jump(tag_6)\n    /* \"#utility.yul\":88:205   */\ntag_8:\n    /* \"#utility.yul\":197:198   */\n  0x00\n    /* \"#utility.yul\":194:195   */\n  dup1\n    /* \"#utility.yul\":187:199   */\n  revert\n    /* \"#utility.yul\":334:411   */\ntag_10:\n    /* \"#utility.yul\":371:378   */\n  0x00\n    /* \"#utility.yul\":400:405   */\n  dup2\n    /* \"#utility.yul\":389:405   */\n  swap1\n  pop\n    /* \"#utility.yul\":334:411   */\n  swap2\n  swap1\n  pop\n  jump\t// out\n    /* \"#utility.yul\":417:539   */\ntag_11:\n    /* \"#utility.yul\":490:514   */\n  tag_19\n    /* \"#utility.yul\":508:513   */\n  dup2\n    /* \"#utility.yul\":490:514   */\n  tag_10\n  jump\t// in\ntag_19:\n    /* \"#utility.yul\":483:488   */\n  dup2\n    /* \"#utility.yul\":480:515   */\n  eq\n    /* \"#utility.yul\":470:533   */\n  tag_20\n  jumpi\n    /* \"#utility.yul\":529:530   */\n  0x00\n    /* \"#utility.yul\":526:527   */\n  dup1\n    /* \"#utility.yul\":519:531   */\n  revert\n    /* \"#utility.yul\":470:533   */\ntag_20:\n    /* \"#utility.yul\":417:539   */\n  pop\n  jump\t// out\n    /* \"#utility.yul\":545:688   */\ntag_12:\n    /* \"#utility.yul\":602:607   */\n  0x00\n    /* \"#utility.yul\":633:639   */\n  dup2\n    /* \"#utility.yul\":627:640   */\n  mload\n    /* \"#utility.yul\":618:640   */\n  swap1\n  pop\n    /* \"#utility.yul\":649:682   */\n  tag_22\n    /* \"#utility.yul\":676:681   */\n  dup2\n    /* \"#utility.yul\":649:682   */\n  tag_11\n  jump\t// in\ntag_22:\n    /* \"#utility.yul\":545:688   */\n  swap3\n  swap2\n  pop\n  pop\n  jump\t// out\n    /* \"#utility.yul\":694:1045   */\ntag_3:\n    /* \"#utility.yul\":764:770   */\n  0x00\n    /* \"#utility.yul\":813:815   */\n  0x20\n    /* \"#utility.yul\":801:810   */\n  dup3\n    /* \"#utility.yul\":792:799   */\n  dup5\n    /* \"#utility.yul\":788:811   */\n  sub\n    /* \"#utility.yul\":784:816   */\n  slt\n    /* \"#utility.yul\":781:900   */\n  iszero\n  tag_24\n  jumpi\n    /* \"#utility.yul\":819:898   */\n  tag_25\n  tag_8\n  jump\t// in\ntag_25:\n    /* \"#utility.yul\":781:900   */\ntag_24:\n    /* \"#utility.yul\":939:940   */\n  0x00\n    /* \"#utility.yul\":964:1028   */\n  tag_26\n    /* \"#utility.yul\":1020:1027   */\n  dup5\n    /* \"#utility.yul\":1011:1017   */\n  dup3\n    /* \"#utility.yul\":1000:1009   */\n  dup6\n    /* \"#utility.yul\":996:1018   */\n  add\n    /* \"#utility.yul\":964:1028   */\n  tag_12\n  jump\t// in\ntag_26:\n    /* \"#utility.yul\":954:1028   */\n  swap2\n  pop\n    /* \"#utility.yul\":910:1038   */\n  pop\n    /* \"#utility.yul\":694:1045   */\n  swap3\n  swap2\n  pop\n  pop\n  jump\t// out\n    /* \"contracts/FundTokenErc20_flattened.sol\":22522:27135  contract FundMe {... */\ntag_6:\n  dataSize(sub_0)\n  dup1\n  dataOffset(sub_0)\n  0x00\n  codecopy\n  0x00\n  return\nstop\n\nsub_0: assembly {\n        /* \"contracts/FundTokenErc20_flattened.sol\":22522:27135  contract FundMe {... */\n      mstore(0x40, 0x80)\n      jumpi(tag_1, lt(calldatasize, 0x04))\n      shr(0xe0, calldataload(0x00))\n      dup1\n      0x8edd6eb6\n      gt\n      tag_12\n      jumpi\n      dup1\n      0x8edd6eb6\n      eq\n      tag_7\n      jumpi\n      dup1\n      0xb60d4288\n      eq\n      tag_8\n      jumpi\n      dup1\n      0xbea4dfb5\n      eq\n      tag_9\n      jumpi\n      dup1\n      0xd39cf006\n      eq\n      tag_10\n      jumpi\n      dup1\n      0xda4658e0\n      eq\n      tag_11\n      jumpi\n      jump(tag_1)\n    tag_12:\n      dup1\n      0x0ff0a4df\n      eq\n      tag_2\n      jumpi\n      dup1\n      0x13ffff01\n      eq\n      tag_3\n      jumpi\n      dup1\n      0x4407e1e8\n      eq\n      tag_4\n      jumpi\n      dup1\n      0x8863dd1a\n      eq\n      tag_5\n      jumpi\n      dup1\n      0x8da5cb5b\n      eq\n      tag_6\n      jumpi\n    tag_1:\n      0x00\n      dup1\n      revert\n        /* \"contracts/FundTokenErc20_flattened.sol\":25720:26273  function reFund() external windowClosed {... */\n    tag_2:\n      callvalue\n      dup1\n      iszero\n      tag_13\n      jumpi\n      0x00\n      dup1\n      revert\n    tag_13:\n      pop\n      tag_14\n      tag_15\n      jump\t// in\n    tag_14:\n      stop\n        /* \"contracts/FundTokenErc20_flattened.sol\":26574:26671  function setErc20Addr(address _erc20Addr) public onlyOwner{... */\n    tag_3:\n      callvalue\n      dup1\n      iszero\n      tag_16\n      jumpi\n      0x00\n      dup1\n      revert\n    tag_16:\n      pop\n      tag_17\n      0x04\n      dup1\n      calldatasize\n      sub\n      dup2\n      add\n      swap1\n      tag_18\n      swap2\n      swap1\n      tag_19\n      jump\t// in\n    tag_18:\n      tag_20\n      jump\t// in\n    tag_17:\n      stop\n        /* \"contracts/FundTokenErc20_flattened.sol\":22544:22593  mapping(address => uint256) public funderToAmount */\n    tag_4:\n      callvalue\n      dup1\n      iszero\n      tag_21\n      jumpi\n      0x00\n      dup1\n      revert\n    tag_21:\n      pop\n      tag_22\n      0x04\n      dup1\n      calldatasize\n      sub\n      dup2\n      add\n      swap1\n      tag_23\n      swap2\n      swap1\n      tag_19\n      jump\t// in\n    tag_23:\n      tag_24\n      jump\t// in\n    tag_22:\n      mload(0x40)\n      tag_25\n      swap2\n      swap1\n      tag_26\n      jump\t// in\n    tag_25:\n      mload(0x40)\n      dup1\n      swap2\n      sub\n      swap1\n      return\n        /* \"contracts/FundTokenErc20_flattened.sol\":24635:24729  function transferOwnerShip(address newOwner) public onlyOwner{... */\n    tag_5:\n      callvalue\n      dup1\n      iszero\n      tag_27\n      jumpi\n      0x00\n      dup1\n      revert\n    tag_27:\n      pop\n      tag_28\n      0x04\n      dup1\n      calldatasize\n      sub\n      dup2\n      add\n      swap1\n      tag_29\n      swap2\n      swap1\n      tag_19\n      jump\t// in\n    tag_29:\n      tag_30\n      jump\t// in\n    tag_28:\n      stop\n        /* \"contracts/FundTokenErc20_flattened.sol\":22760:22780  address public owner */\n    tag_6:\n      callvalue\n      dup1\n      iszero\n      tag_31\n      jumpi\n      0x00\n      dup1\n      revert\n    tag_31:\n      pop\n      tag_32\n      tag_33\n      jump\t// in\n    tag_32:\n      mload(0x40)\n      tag_34\n      swap2\n      swap1\n      tag_35\n      jump\t// in\n    tag_34:\n      mload(0x40)\n      dup1\n      swap2\n      sub\n      swap1\n      return\n        /* \"contracts/FundTokenErc20_flattened.sol\":24796:25644  function getFund() external windowClosed onlyOwner{... */\n    tag_7:\n      callvalue\n      dup1\n      iszero\n      tag_36\n      jumpi\n      0x00\n      dup1\n      revert\n    tag_36:\n      pop\n      tag_37\n      tag_38\n      jump\t// in\n    tag_37:\n      stop\n        /* \"contracts/FundTokenErc20_flattened.sol\":23417:23868  function fund() external payable {... */\n    tag_8:\n      tag_39\n      tag_40\n      jump\t// in\n    tag_39:\n      stop\n        /* \"contracts/FundTokenErc20_flattened.sol\":23924:24265  function getChainlinkDataFeedLatestAnswer() public view returns (int256) {... */\n    tag_9:\n      callvalue\n      dup1\n      iszero\n      tag_41\n      jumpi\n      0x00\n      dup1\n      revert\n    tag_41:\n      pop\n      tag_42\n      tag_43\n      jump\t// in\n    tag_42:\n      mload(0x40)\n      tag_44\n      swap2\n      swap1\n      tag_45\n      jump\t// in\n    tag_44:\n      mload(0x40)\n      dup1\n      swap2\n      sub\n      swap1\n      return\n        /* \"contracts/FundTokenErc20_flattened.sol\":26344:26568  function setFunderToAmount(address funder,uint256 amountToUpdate) external {... */\n    tag_10:\n      callvalue\n      dup1\n      iszero\n      tag_46\n      jumpi\n      0x00\n      dup1\n      revert\n    tag_46:\n      pop\n      tag_47\n      0x04\n      dup1\n      calldatasize\n      sub\n      dup2\n      add\n      swap1\n      tag_48\n      swap2\n      swap1\n      tag_49\n      jump\t// in\n    tag_48:\n      tag_50\n      jump\t// in\n    tag_47:\n      stop\n        /* \"contracts/FundTokenErc20_flattened.sol\":22968:23002  bool public getFundSuccess = false */\n    tag_11:\n      callvalue\n      dup1\n      iszero\n      tag_51\n      jumpi\n      0x00\n      dup1\n      revert\n    tag_51:\n      pop\n      tag_52\n      tag_53\n      jump\t// in\n    tag_52:\n      mload(0x40)\n      tag_54\n      swap2\n      swap1\n      tag_55\n      jump\t// in\n    tag_54:\n      mload(0x40)\n      dup1\n      swap2\n      sub\n      swap1\n      return\n        /* \"contracts/FundTokenErc20_flattened.sol\":25720:26273  function reFund() external windowClosed {... */\n    tag_15:\n        /* \"contracts/FundTokenErc20_flattened.sol\":26828:26836  lockTime */\n      sload(0x05)\n        /* \"contracts/FundTokenErc20_flattened.sol\":26806:26825  deploymentTimestamp */\n      sload(0x04)\n        /* \"contracts/FundTokenErc20_flattened.sol\":26806:26836  deploymentTimestamp + lockTime */\n      tag_57\n      swap2\n      swap1\n      tag_58\n      jump\t// in\n    tag_57:\n        /* \"contracts/FundTokenErc20_flattened.sol\":26787:26802  block.timestamp */\n      timestamp\n        /* \"contracts/FundTokenErc20_flattened.sol\":26787:26836  block.timestamp >= deploymentTimestamp + lockTime */\n      lt\n      iszero\n        /* \"contracts/FundTokenErc20_flattened.sol\":26766:26882  require(... */\n      tag_59\n      jumpi\n      mload(0x40)\n      0x08c379a000000000000000000000000000000000000000000000000000000000\n      dup2\n      mstore\n      0x04\n      add\n      tag_60\n      swap1\n      tag_61\n      jump\t// in\n    tag_60:\n      mload(0x40)\n      dup1\n      swap2\n      sub\n      swap1\n      revert\n    tag_59:\n        /* \"contracts/FundTokenErc20_flattened.sol\":22741:22753  100 * 10**18 */\n      0x056bc75e2d63100000\n        /* \"contracts/FundTokenErc20_flattened.sol\":25791:25829  convertEthToUsd(address(this).balance) */\n      tag_63\n        /* \"contracts/FundTokenErc20_flattened.sol\":25807:25828  address(this).balance */\n      selfbalance\n        /* \"contracts/FundTokenErc20_flattened.sol\":25791:25806  convertEthToUsd */\n      tag_64\n        /* \"contracts/FundTokenErc20_flattened.sol\":25791:25829  convertEthToUsd(address(this).balance) */\n      jump\t// in\n    tag_63:\n        /* \"contracts/FundTokenErc20_flattened.sol\":25791:25838  convertEthToUsd(address(this).balance) < TARGET */\n      lt\n        /* \"contracts/FundTokenErc20_flattened.sol\":25770:25881  require(... */\n      tag_65\n      jumpi\n      mload(0x40)\n      0x08c379a000000000000000000000000000000000000000000000000000000000\n      dup2\n      mstore\n      0x04\n      add\n      tag_66\n      swap1\n      tag_67\n      jump\t// in\n    tag_66:\n      mload(0x40)\n      dup1\n      swap2\n      sub\n      swap1\n      revert\n    tag_65:\n        /* \"contracts/FundTokenErc20_flattened.sol\":25892:25906  uint256 amount */\n      0x00\n        /* \"contracts/FundTokenErc20_flattened.sol\":25909:25923  funderToAmount */\n      dup1\n        /* \"contracts/FundTokenErc20_flattened.sol\":25909:25935  funderToAmount[msg.sender] */\n      0x00\n        /* \"contracts/FundTokenErc20_flattened.sol\":25924:25934  msg.sender */\n      caller\n        /* \"contracts/FundTokenErc20_flattened.sol\":25909:25935  funderToAmount[msg.sender] */\n      0xffffffffffffffffffffffffffffffffffffffff\n      and\n      0xffffffffffffffffffffffffffffffffffffffff\n      and\n      dup2\n      mstore\n      0x20\n      add\n      swap1\n      dup2\n      mstore\n      0x20\n      add\n      0x00\n      keccak256\n      sload\n        /* \"contracts/FundTokenErc20_flattened.sol\":25892:25935  uint256 amount = funderToAmount[msg.sender] */\n      swap1\n      pop\n        /* \"contracts/FundTokenErc20_flattened.sol\":25963:25964  0 */\n      0x00\n        /* \"contracts/FundTokenErc20_flattened.sol\":25953:25959  amount */\n      dup2\n        /* \"contracts/FundTokenErc20_flattened.sol\":25953:25964  amount != 0 */\n      sub\n        /* \"contracts/FundTokenErc20_flattened.sol\":25945:25994  require(amount != 0, \"there is not fund for you\") */\n      tag_68\n      jumpi\n      mload(0x40)\n      0x08c379a000000000000000000000000000000000000000000000000000000000\n      dup2\n      mstore\n      0x04\n      add\n      tag_69\n      swap1\n      tag_70\n      jump\t// in\n    tag_69:\n      mload(0x40)\n      dup1\n      swap2\n      sub\n      swap1\n      revert\n    tag_68:\n        /* \"contracts/FundTokenErc20_flattened.sol\":26004:26016  bool success */\n      0x00\n        /* \"contracts/FundTokenErc20_flattened.sol\":26048:26058  msg.sender */\n      caller\n        /* \"contracts/FundTokenErc20_flattened.sol\":26040:26064  payable(msg.sender).call */\n      0xffffffffffffffffffffffffffffffffffffffff\n      and\n        /* \"contracts/FundTokenErc20_flattened.sol\":26085:26099  funderToAmount */\n      0x00\n        /* \"contracts/FundTokenErc20_flattened.sol\":26085:26111  funderToAmount[msg.sender] */\n      dup1\n        /* \"contracts/FundTokenErc20_flattened.sol\":26100:26110  msg.sender */\n      caller\n        /* \"contracts/FundTokenErc20_flattened.sol\":26085:26111  funderToAmount[msg.sender] */\n      0xffffffffffffffffffffffffffffffffffffffff\n      and\n      0xffffffffffffffffffffffffffffffffffffffff\n      and\n      dup2\n      mstore\n      0x20\n      add\n      swap1\n      dup2\n      mstore\n      0x20\n      add\n      0x00\n      keccak256\n      sload\n        /* \"contracts/FundTokenErc20_flattened.sol\":26040:26125  payable(msg.sender).call{... */\n      mload(0x40)\n      tag_71\n      swap1\n      tag_72\n      jump\t// in\n    tag_71:\n      0x00\n      mload(0x40)\n      dup1\n      dup4\n      sub\n      dup2\n      dup6\n      dup8\n      gas\n      call\n      swap3\n      pop\n      pop\n      pop\n      returndatasize\n      dup1\n      0x00\n      dup2\n      eq\n      tag_75\n      jumpi\n      mload(0x40)\n      swap2\n      pop\n      and(add(returndatasize, 0x3f), not(0x1f))\n      dup3\n      add\n      0x40\n      mstore\n      returndatasize\n      dup3\n      mstore\n      returndatasize\n      0x00\n      0x20\n      dup5\n      add\n      returndatacopy\n      jump(tag_74)\n    tag_75:\n      0x60\n      swap2\n      pop\n    tag_74:\n      pop\n        /* \"contracts/FundTokenErc20_flattened.sol\":26026:26125  (success, ) = payable(msg.sender).call{... */\n      pop\n      dup1\n      swap2\n      pop\n      pop\n        /* \"contracts/FundTokenErc20_flattened.sol\":26143:26150  success */\n      dup1\n        /* \"contracts/FundTokenErc20_flattened.sol\":26135:26173  require(success, \"transfer tx failed\") */\n      tag_76\n      jumpi\n      mload(0x40)\n      0x08c379a000000000000000000000000000000000000000000000000000000000\n      dup2\n      mstore\n      0x04\n      add\n      tag_77\n      swap1\n      tag_78\n      jump\t// in\n    tag_77:\n      mload(0x40)\n      dup1\n      swap2\n      sub\n      swap1\n      revert\n    tag_76:\n        /* \"contracts/FundTokenErc20_flattened.sol\":26265:26266  0 */\n      0x00\n        /* \"contracts/FundTokenErc20_flattened.sol\":26236:26250  funderToAmount */\n      dup1\n        /* \"contracts/FundTokenErc20_flattened.sol\":26236:26262  funderToAmount[msg.sender] */\n      0x00\n        /* \"contracts/FundTokenErc20_flattened.sol\":26251:26261  msg.sender */\n      caller\n        /* \"contracts/FundTokenErc20_flattened.sol\":26236:26262  funderToAmount[msg.sender] */\n      0xffffffffffffffffffffffffffffffffffffffff\n      and\n      0xffffffffffffffffffffffffffffffffffffffff\n      and\n      dup2\n      mstore\n      0x20\n      add\n      swap1\n      dup2\n      mstore\n      0x20\n      add\n      0x00\n      keccak256\n        /* \"contracts/FundTokenErc20_flattened.sol\":26236:26266  funderToAmount[msg.sender] = 0 */\n      dup2\n      swap1\n      sstore\n      pop\n        /* \"contracts/FundTokenErc20_flattened.sol\":25760:26273  {... */\n      pop\n      pop\n        /* \"contracts/FundTokenErc20_flattened.sol\":25720:26273  function reFund() external windowClosed {... */\n      jump\t// out\n        /* \"contracts/FundTokenErc20_flattened.sol\":26574:26671  function setErc20Addr(address _erc20Addr) public onlyOwner{... */\n    tag_20:\n        /* \"contracts/FundTokenErc20_flattened.sol\":27043:27048  owner */\n      0x03\n      0x00\n      swap1\n      sload\n      swap1\n      0x0100\n      exp\n      swap1\n      div\n      0xffffffffffffffffffffffffffffffffffffffff\n      and\n        /* \"contracts/FundTokenErc20_flattened.sol\":27029:27048  msg.sender == owner */\n      0xffffffffffffffffffffffffffffffffffffffff\n      and\n        /* \"contracts/FundTokenErc20_flattened.sol\":27029:27039  msg.sender */\n      caller\n        /* \"contracts/FundTokenErc20_flattened.sol\":27029:27048  msg.sender == owner */\n      0xffffffffffffffffffffffffffffffffffffffff\n      and\n      eq\n        /* \"contracts/FundTokenErc20_flattened.sol\":27008:27115  require(... */\n      tag_80\n      jumpi\n      mload(0x40)\n      0x08c379a000000000000000000000000000000000000000000000000000000000\n      dup2\n      mstore\n      0x04\n      add\n      tag_81\n      swap1\n      tag_82\n      jump\t// in\n    tag_81:\n      mload(0x40)\n      dup1\n      swap2\n      sub\n      swap1\n      revert\n    tag_80:\n        /* \"contracts/FundTokenErc20_flattened.sol\":26654:26664  _erc20Addr */\n      dup1\n        /* \"contracts/FundTokenErc20_flattened.sol\":26642:26651  erc20Addr */\n      0x06\n      0x00\n        /* \"contracts/FundTokenErc20_flattened.sol\":26642:26664  erc20Addr = _erc20Addr */\n      0x0100\n      exp\n      dup2\n      sload\n      dup2\n      0xffffffffffffffffffffffffffffffffffffffff\n      mul\n      not\n      and\n      swap1\n      dup4\n      0xffffffffffffffffffffffffffffffffffffffff\n      and\n      mul\n      or\n      swap1\n      sstore\n      pop\n        /* \"contracts/FundTokenErc20_flattened.sol\":26574:26671  function setErc20Addr(address _erc20Addr) public onlyOwner{... */\n      pop\n      jump\t// out\n        /* \"contracts/FundTokenErc20_flattened.sol\":22544:22593  mapping(address => uint256) public funderToAmount */\n    tag_24:\n      mstore(0x20, 0x00)\n      dup1\n      0x00\n      mstore\n      keccak256(0x00, 0x40)\n      0x00\n      swap2\n      pop\n      swap1\n      pop\n      sload\n      dup2\n      jump\t// out\n        /* \"contracts/FundTokenErc20_flattened.sol\":24635:24729  function transferOwnerShip(address newOwner) public onlyOwner{... */\n    tag_30:\n        /* \"contracts/FundTokenErc20_flattened.sol\":27043:27048  owner */\n      0x03\n      0x00\n      swap1\n      sload\n      swap1\n      0x0100\n      exp\n      swap1\n      div\n      0xffffffffffffffffffffffffffffffffffffffff\n      and\n        /* \"contracts/FundTokenErc20_flattened.sol\":27029:27048  msg.sender == owner */\n      0xffffffffffffffffffffffffffffffffffffffff\n      and\n        /* \"contracts/FundTokenErc20_flattened.sol\":27029:27039  msg.sender */\n      caller\n        /* \"contracts/FundTokenErc20_flattened.sol\":27029:27048  msg.sender == owner */\n      0xffffffffffffffffffffffffffffffffffffffff\n      and\n      eq\n        /* \"contracts/FundTokenErc20_flattened.sol\":27008:27115  require(... */\n      tag_85\n      jumpi\n      mload(0x40)\n      0x08c379a000000000000000000000000000000000000000000000000000000000\n      dup2\n      mstore\n      0x04\n      add\n      tag_86\n      swap1\n      tag_82\n      jump\t// in\n    tag_86:\n      mload(0x40)\n      dup1\n      swap2\n      sub\n      swap1\n      revert\n    tag_85:\n        /* \"contracts/FundTokenErc20_flattened.sol\":24714:24722  newOwner */\n      dup1\n        /* \"contracts/FundTokenErc20_flattened.sol\":24706:24711  owner */\n      0x03\n      0x00\n        /* \"contracts/FundTokenErc20_flattened.sol\":24706:24722  owner = newOwner */\n      0x0100\n      exp\n      dup2\n      sload\n      dup2\n      0xffffffffffffffffffffffffffffffffffffffff\n      mul\n      not\n      and\n      swap1\n      dup4\n      0xffffffffffffffffffffffffffffffffffffffff\n      and\n      mul\n      or\n      swap1\n      sstore\n      pop\n        /* \"contracts/FundTokenErc20_flattened.sol\":24635:24729  function transferOwnerShip(address newOwner) public onlyOwner{... */\n      pop\n      jump\t// out\n        /* \"contracts/FundTokenErc20_flattened.sol\":22760:22780  address public owner */\n    tag_33:\n      0x03\n      0x00\n      swap1\n      sload\n      swap1\n      0x0100\n      exp\n      swap1\n      div\n      0xffffffffffffffffffffffffffffffffffffffff\n      and\n      dup2\n      jump\t// out\n        /* \"contracts/FundTokenErc20_flattened.sol\":24796:25644  function getFund() external windowClosed onlyOwner{... */\n    tag_38:\n        /* \"contracts/FundTokenErc20_flattened.sol\":26828:26836  lockTime */\n      sload(0x05)\n        /* \"contracts/FundTokenErc20_flattened.sol\":26806:26825  deploymentTimestamp */\n      sload(0x04)\n        /* \"contracts/FundTokenErc20_flattened.sol\":26806:26836  deploymentTimestamp + lockTime */\n      tag_89\n      swap2\n      swap1\n      tag_58\n      jump\t// in\n    tag_89:\n        /* \"contracts/FundTokenErc20_flattened.sol\":26787:26802  block.timestamp */\n      timestamp\n        /* \"contracts/FundTokenErc20_flattened.sol\":26787:26836  block.timestamp >= deploymentTimestamp + lockTime */\n      lt\n      iszero\n        /* \"contracts/FundTokenErc20_flattened.sol\":26766:26882  require(... */\n      tag_90\n      jumpi\n      mload(0x40)\n      0x08c379a000000000000000000000000000000000000000000000000000000000\n      dup2\n      mstore\n      0x04\n      add\n      tag_91\n      swap1\n      tag_61\n      jump\t// in\n    tag_91:\n      mload(0x40)\n      dup1\n      swap2\n      sub\n      swap1\n      revert\n    tag_90:\n        /* \"contracts/FundTokenErc20_flattened.sol\":27043:27048  owner */\n      0x03\n      0x00\n      swap1\n      sload\n      swap1\n      0x0100\n      exp\n      swap1\n      div\n      0xffffffffffffffffffffffffffffffffffffffff\n      and\n        /* \"contracts/FundTokenErc20_flattened.sol\":27029:27048  msg.sender == owner */\n      0xffffffffffffffffffffffffffffffffffffffff\n      and\n        /* \"contracts/FundTokenErc20_flattened.sol\":27029:27039  msg.sender */\n      caller\n        /* \"contracts/FundTokenErc20_flattened.sol\":27029:27048  msg.sender == owner */\n      0xffffffffffffffffffffffffffffffffffffffff\n      and\n      eq\n        /* \"contracts/FundTokenErc20_flattened.sol\":27008:27115  require(... */\n      tag_93\n      jumpi\n      mload(0x40)\n      0x08c379a000000000000000000000000000000000000000000000000000000000\n      dup2\n      mstore\n      0x04\n      add\n      tag_94\n      swap1\n      tag_82\n      jump\t// in\n    tag_94:\n      mload(0x40)\n      dup1\n      swap2\n      sub\n      swap1\n      revert\n    tag_93:\n        /* \"contracts/FundTokenErc20_flattened.sol\":22741:22753  100 * 10**18 */\n      0x056bc75e2d63100000\n        /* \"contracts/FundTokenErc20_flattened.sol\":24877:24915  convertEthToUsd(address(this).balance) */\n      tag_96\n        /* \"contracts/FundTokenErc20_flattened.sol\":24893:24914  address(this).balance */\n      selfbalance\n        /* \"contracts/FundTokenErc20_flattened.sol\":24877:24892  convertEthToUsd */\n      tag_64\n        /* \"contracts/FundTokenErc20_flattened.sol\":24877:24915  convertEthToUsd(address(this).balance) */\n      jump\t// in\n    tag_96:\n        /* \"contracts/FundTokenErc20_flattened.sol\":24877:24925  convertEthToUsd(address(this).balance) >= TARGET */\n      lt\n      iszero\n        /* \"contracts/FundTokenErc20_flattened.sol\":24856:24972  require(... */\n      tag_97\n      jumpi\n      mload(0x40)\n      0x08c379a000000000000000000000000000000000000000000000000000000000\n      dup2\n      mstore\n      0x04\n      add\n      tag_98\n      swap1\n      tag_99\n      jump\t// in\n    tag_98:\n      mload(0x40)\n      dup1\n      swap2\n      sub\n      swap1\n      revert\n    tag_97:\n        /* \"contracts/FundTokenErc20_flattened.sol\":25374:25386  bool success */\n      0x00\n        /* \"contracts/FundTokenErc20_flattened.sol\":25418:25428  msg.sender */\n      caller\n        /* \"contracts/FundTokenErc20_flattened.sol\":25410:25434  payable(msg.sender).call */\n      0xffffffffffffffffffffffffffffffffffffffff\n      and\n        /* \"contracts/FundTokenErc20_flattened.sol\":25442:25463  address(this).balance */\n      selfbalance\n        /* \"contracts/FundTokenErc20_flattened.sol\":25410:25490  payable(msg.sender).call{value: address(this).balance}(... */\n      mload(0x40)\n      tag_100\n      swap1\n      tag_72\n      jump\t// in\n    tag_100:\n      0x00\n      mload(0x40)\n      dup1\n      dup4\n      sub\n      dup2\n      dup6\n      dup8\n      gas\n      call\n      swap3\n      pop\n      pop\n      pop\n      returndatasize\n      dup1\n      0x00\n      dup2\n      eq\n      tag_103\n      jumpi\n      mload(0x40)\n      swap2\n      pop\n      and(add(returndatasize, 0x3f), not(0x1f))\n      dup3\n      add\n      0x40\n      mstore\n      returndatasize\n      dup3\n      mstore\n      returndatasize\n      0x00\n      0x20\n      dup5\n      add\n      returndatacopy\n      jump(tag_102)\n    tag_103:\n      0x60\n      swap2\n      pop\n    tag_102:\n      pop\n        /* \"contracts/FundTokenErc20_flattened.sol\":25396:25490  (success, ) = payable(msg.sender).call{value: address(this).balance}(... */\n      pop\n      dup1\n      swap2\n      pop\n      pop\n        /* \"contracts/FundTokenErc20_flattened.sol\":25508:25515  success */\n      dup1\n        /* \"contracts/FundTokenErc20_flattened.sol\":25500:25538  require(success, \"transfer tx failed\") */\n      tag_104\n      jumpi\n      mload(0x40)\n      0x08c379a000000000000000000000000000000000000000000000000000000000\n      dup2\n      mstore\n      0x04\n      add\n      tag_105\n      swap1\n      tag_78\n      jump\t// in\n    tag_105:\n      mload(0x40)\n      dup1\n      swap2\n      sub\n      swap1\n      revert\n    tag_104:\n        /* \"contracts/FundTokenErc20_flattened.sol\":25578:25579  0 */\n      0x00\n        /* \"contracts/FundTokenErc20_flattened.sol\":25549:25563  funderToAmount */\n      dup1\n        /* \"contracts/FundTokenErc20_flattened.sol\":25549:25575  funderToAmount[msg.sender] */\n      0x00\n        /* \"contracts/FundTokenErc20_flattened.sol\":25564:25574  msg.sender */\n      caller\n        /* \"contracts/FundTokenErc20_flattened.sol\":25549:25575  funderToAmount[msg.sender] */\n      0xffffffffffffffffffffffffffffffffffffffff\n      and\n      0xffffffffffffffffffffffffffffffffffffffff\n      and\n      dup2\n      mstore\n      0x20\n      add\n      swap1\n      dup2\n      mstore\n      0x20\n      add\n      0x00\n      keccak256\n        /* \"contracts/FundTokenErc20_flattened.sol\":25549:25579  funderToAmount[msg.sender] = 0 */\n      dup2\n      swap1\n      sstore\n      pop\n        /* \"contracts/FundTokenErc20_flattened.sol\":25633:25637  true */\n      0x01\n        /* \"contracts/FundTokenErc20_flattened.sol\":25616:25630  getFundSuccess */\n      0x06\n      0x14\n        /* \"contracts/FundTokenErc20_flattened.sol\":25616:25637  getFundSuccess = true */\n      0x0100\n      exp\n      dup2\n      sload\n      dup2\n      0xff\n      mul\n      not\n      and\n      swap1\n      dup4\n      iszero\n      iszero\n      mul\n      or\n      swap1\n      sstore\n      pop\n        /* \"contracts/FundTokenErc20_flattened.sol\":24846:25644  {... */\n      pop\n        /* \"contracts/FundTokenErc20_flattened.sol\":24796:25644  function getFund() external windowClosed onlyOwner{... */\n      jump\t// out\n        /* \"contracts/FundTokenErc20_flattened.sol\":23417:23868  function fund() external payable {... */\n    tag_40:\n        /* \"contracts/FundTokenErc20_flattened.sol\":23601:23609  lockTime */\n      sload(0x05)\n        /* \"contracts/FundTokenErc20_flattened.sol\":23579:23598  deploymentTimestamp */\n      sload(0x04)\n        /* \"contracts/FundTokenErc20_flattened.sol\":23579:23609  deploymentTimestamp + lockTime */\n      tag_107\n      swap2\n      swap1\n      tag_58\n      jump\t// in\n    tag_107:\n        /* \"contracts/FundTokenErc20_flattened.sol\":23561:23576  block.timestamp */\n      timestamp\n        /* \"contracts/FundTokenErc20_flattened.sol\":23561:23609  block.timestamp < deploymentTimestamp + lockTime */\n      lt\n        /* \"contracts/FundTokenErc20_flattened.sol\":23540:23651  require(... */\n      tag_108\n      jumpi\n      mload(0x40)\n      0x08c379a000000000000000000000000000000000000000000000000000000000\n      dup2\n      mstore\n      0x04\n      add\n      tag_109\n      swap1\n      tag_110\n      jump\t// in\n    tag_109:\n      mload(0x40)\n      dup1\n      swap2\n      sub\n      swap1\n      revert\n    tag_108:\n        /* \"contracts/FundTokenErc20_flattened.sol\":23736:23748  MINMUM_VALUE */\n      sload(0x01)\n        /* \"contracts/FundTokenErc20_flattened.sol\":23706:23732  convertEthToUsd(msg.value) */\n      tag_111\n        /* \"contracts/FundTokenErc20_flattened.sol\":23722:23731  msg.value */\n      callvalue\n        /* \"contracts/FundTokenErc20_flattened.sol\":23706:23721  convertEthToUsd */\n      tag_64\n        /* \"contracts/FundTokenErc20_flattened.sol\":23706:23732  convertEthToUsd(msg.value) */\n      jump\t// in\n    tag_111:\n        /* \"contracts/FundTokenErc20_flattened.sol\":23706:23748  convertEthToUsd(msg.value) >= MINMUM_VALUE */\n      lt\n      iszero\n        /* \"contracts/FundTokenErc20_flattened.sol\":23698:23766  require(convertEthToUsd(msg.value) >= MINMUM_VALUE, \"send more ETH\") */\n      tag_112\n      jumpi\n      mload(0x40)\n      0x08c379a000000000000000000000000000000000000000000000000000000000\n      dup2\n      mstore\n      0x04\n      add\n      tag_113\n      swap1\n      tag_114\n      jump\t// in\n    tag_113:\n      mload(0x40)\n      dup1\n      swap2\n      sub\n      swap1\n      revert\n    tag_112:\n        /* \"contracts/FundTokenErc20_flattened.sol\":23852:23861  msg.value */\n      callvalue\n        /* \"contracts/FundTokenErc20_flattened.sol\":23823:23837  funderToAmount */\n      0x00\n        /* \"contracts/FundTokenErc20_flattened.sol\":23823:23849  funderToAmount[msg.sender] */\n      dup1\n        /* \"contracts/FundTokenErc20_flattened.sol\":23838:23848  msg.sender */\n      caller\n        /* \"contracts/FundTokenErc20_flattened.sol\":23823:23849  funderToAmount[msg.sender] */\n      0xffffffffffffffffffffffffffffffffffffffff\n      and\n      0xffffffffffffffffffffffffffffffffffffffff\n      and\n      dup2\n      mstore\n      0x20\n      add\n      swap1\n      dup2\n      mstore\n      0x20\n      add\n      0x00\n      keccak256\n        /* \"contracts/FundTokenErc20_flattened.sol\":23823:23861  funderToAmount[msg.sender] = msg.value */\n      dup2\n      swap1\n      sstore\n      pop\n        /* \"contracts/FundTokenErc20_flattened.sol\":23417:23868  function fund() external payable {... */\n      jump\t// out\n        /* \"contracts/FundTokenErc20_flattened.sol\":23924:24265  function getChainlinkDataFeedLatestAnswer() public view returns (int256) {... */\n    tag_43:\n        /* \"contracts/FundTokenErc20_flattened.sol\":23989:23995  int256 */\n      0x00\n        /* \"contracts/FundTokenErc20_flattened.sol\":24082:24092  int answer */\n      dup1\n        /* \"contracts/FundTokenErc20_flattened.sol\":24209:24217  dataFeed */\n      0x02\n      0x00\n      swap1\n      sload\n      swap1\n      0x0100\n      exp\n      swap1\n      div\n      0xffffffffffffffffffffffffffffffffffffffff\n      and\n        /* \"contracts/FundTokenErc20_flattened.sol\":24209:24233  dataFeed.latestRoundData */\n      0xffffffffffffffffffffffffffffffffffffffff\n      and\n      0xfeaf968c\n        /* \"contracts/FundTokenErc20_flattened.sol\":24209:24235  dataFeed.latestRoundData() */\n      mload(0x40)\n      dup2\n      0xffffffff\n      and\n      0xe0\n      shl\n      dup2\n      mstore\n      0x04\n      add\n      0xa0\n      mload(0x40)\n      dup1\n      dup4\n      sub\n      dup2\n      dup7\n      gas\n      staticcall\n      iszero\n      dup1\n      iszero\n      tag_117\n      jumpi\n      returndatasize\n      0x00\n      dup1\n      returndatacopy\n      revert(0x00, returndatasize)\n    tag_117:\n      pop\n      pop\n      pop\n      pop\n      mload(0x40)\n      returndatasize\n      not(0x1f)\n      0x1f\n      dup3\n      add\n      and\n      dup3\n      add\n      dup1\n      0x40\n      mstore\n      pop\n      dup2\n      add\n      swap1\n      tag_118\n      swap2\n      swap1\n      tag_119\n      jump\t// in\n    tag_118:\n        /* \"contracts/FundTokenErc20_flattened.sol\":24034:24235  (... */\n      pop\n      pop\n      pop\n      swap2\n      pop\n      pop\n        /* \"contracts/FundTokenErc20_flattened.sol\":24252:24258  answer */\n      dup1\n        /* \"contracts/FundTokenErc20_flattened.sol\":24245:24258  return answer */\n      swap2\n      pop\n      pop\n        /* \"contracts/FundTokenErc20_flattened.sol\":23924:24265  function getChainlinkDataFeedLatestAnswer() public view returns (int256) {... */\n      swap1\n      jump\t// out\n        /* \"contracts/FundTokenErc20_flattened.sol\":26344:26568  function setFunderToAmount(address funder,uint256 amountToUpdate) external {... */\n    tag_50:\n        /* \"contracts/FundTokenErc20_flattened.sol\":26451:26460  erc20Addr */\n      0x06\n      0x00\n      swap1\n      sload\n      swap1\n      0x0100\n      exp\n      swap1\n      div\n      0xffffffffffffffffffffffffffffffffffffffff\n      and\n        /* \"contracts/FundTokenErc20_flattened.sol\":26437:26460  msg.sender == erc20Addr */\n      0xffffffffffffffffffffffffffffffffffffffff\n      and\n        /* \"contracts/FundTokenErc20_flattened.sol\":26437:26447  msg.sender */\n      caller\n        /* \"contracts/FundTokenErc20_flattened.sol\":26437:26460  msg.sender == erc20Addr */\n      0xffffffffffffffffffffffffffffffffffffffff\n      and\n      eq\n        /* \"contracts/FundTokenErc20_flattened.sol\":26429:26512  require(msg.sender == erc20Addr,\"you do not have permission to call this function\") */\n      tag_121\n      jumpi\n      mload(0x40)\n      0x08c379a000000000000000000000000000000000000000000000000000000000\n      dup2\n      mstore\n      0x04\n      add\n      tag_122\n      swap1\n      tag_123\n      jump\t// in\n    tag_122:\n      mload(0x40)\n      dup1\n      swap2\n      sub\n      swap1\n      revert\n    tag_121:\n        /* \"contracts/FundTokenErc20_flattened.sol\":26547:26561  amountToUpdate */\n      dup1\n        /* \"contracts/FundTokenErc20_flattened.sol\":26522:26536  funderToAmount */\n      0x00\n        /* \"contracts/FundTokenErc20_flattened.sol\":26522:26544  funderToAmount[funder] */\n      dup1\n        /* \"contracts/FundTokenErc20_flattened.sol\":26537:26543  funder */\n      dup5\n        /* \"contracts/FundTokenErc20_flattened.sol\":26522:26544  funderToAmount[funder] */\n      0xffffffffffffffffffffffffffffffffffffffff\n      and\n      0xffffffffffffffffffffffffffffffffffffffff\n      and\n      dup2\n      mstore\n      0x20\n      add\n      swap1\n      dup2\n      mstore\n      0x20\n      add\n      0x00\n      keccak256\n        /* \"contracts/FundTokenErc20_flattened.sol\":26522:26561  funderToAmount[funder] = amountToUpdate */\n      dup2\n      swap1\n      sstore\n      pop\n        /* \"contracts/FundTokenErc20_flattened.sol\":26344:26568  function setFunderToAmount(address funder,uint256 amountToUpdate) external {... */\n      pop\n      pop\n      jump\t// out\n        /* \"contracts/FundTokenErc20_flattened.sol\":22968:23002  bool public getFundSuccess = false */\n    tag_53:\n      0x06\n      0x14\n      swap1\n      sload\n      swap1\n      0x0100\n      exp\n      swap1\n      div\n      0xff\n      and\n      dup2\n      jump\t// out\n        /* \"contracts/FundTokenErc20_flattened.sol\":24271:24629  function convertEthToUsd(uint256 ethAmount)... */\n    tag_64:\n        /* \"contracts/FundTokenErc20_flattened.sol\":24362:24369  uint256 */\n      0x00\n        /* \"contracts/FundTokenErc20_flattened.sol\":24437:24453  uint256 ethPrice */\n      dup1\n        /* \"contracts/FundTokenErc20_flattened.sol\":24464:24498  getChainlinkDataFeedLatestAnswer() */\n      tag_125\n        /* \"contracts/FundTokenErc20_flattened.sol\":24464:24496  getChainlinkDataFeedLatestAnswer */\n      tag_43\n        /* \"contracts/FundTokenErc20_flattened.sol\":24464:24498  getChainlinkDataFeedLatestAnswer() */\n      jump\t// in\n    tag_125:\n        /* \"contracts/FundTokenErc20_flattened.sol\":24437:24499  uint256 ethPrice = uint256(getChainlinkDataFeedLatestAnswer()) */\n      swap1\n      pop\n        /* \"contracts/FundTokenErc20_flattened.sol\":24616:24621  10**8 */\n      0x05f5e100\n        /* \"contracts/FundTokenErc20_flattened.sol\":24603:24611  ethPrice */\n      dup2\n        /* \"contracts/FundTokenErc20_flattened.sol\":24591:24600  ethAmount */\n      dup5\n        /* \"contracts/FundTokenErc20_flattened.sol\":24591:24611  ethAmount * ethPrice */\n      tag_126\n      swap2\n      swap1\n      tag_127\n      jump\t// in\n    tag_126:\n        /* \"contracts/FundTokenErc20_flattened.sol\":24590:24622  (ethAmount * ethPrice) / (10**8) */\n      tag_128\n      swap2\n      swap1\n      tag_129\n      jump\t// in\n    tag_128:\n        /* \"contracts/FundTokenErc20_flattened.sol\":24583:24622  return (ethAmount * ethPrice) / (10**8) */\n      swap2\n      pop\n      pop\n        /* \"contracts/FundTokenErc20_flattened.sol\":24271:24629  function convertEthToUsd(uint256 ethAmount)... */\n      swap2\n      swap1\n      pop\n      jump\t// out\n        /* \"#utility.yul\":88:205   */\n    tag_131:\n        /* \"#utility.yul\":197:198   */\n      0x00\n        /* \"#utility.yul\":194:195   */\n      dup1\n        /* \"#utility.yul\":187:199   */\n      revert\n        /* \"#utility.yul\":334:460   */\n    tag_133:\n        /* \"#utility.yul\":371:378   */\n      0x00\n        /* \"#utility.yul\":411:453   */\n      0xffffffffffffffffffffffffffffffffffffffff\n        /* \"#utility.yul\":404:409   */\n      dup3\n        /* \"#utility.yul\":400:454   */\n      and\n        /* \"#utility.yul\":389:454   */\n      swap1\n      pop\n        /* \"#utility.yul\":334:460   */\n      swap2\n      swap1\n      pop\n      jump\t// out\n        /* \"#utility.yul\":466:562   */\n    tag_134:\n        /* \"#utility.yul\":503:510   */\n      0x00\n        /* \"#utility.yul\":532:556   */\n      tag_182\n        /* \"#utility.yul\":550:555   */\n      dup3\n        /* \"#utility.yul\":532:556   */\n      tag_133\n      jump\t// in\n    tag_182:\n        /* \"#utility.yul\":521:556   */\n      swap1\n      pop\n        /* \"#utility.yul\":466:562   */\n      swap2\n      swap1\n      pop\n      jump\t// out\n        /* \"#utility.yul\":568:690   */\n    tag_135:\n        /* \"#utility.yul\":641:665   */\n      tag_184\n        /* \"#utility.yul\":659:664   */\n      dup2\n        /* \"#utility.yul\":641:665   */\n      tag_134\n      jump\t// in\n    tag_184:\n        /* \"#utility.yul\":634:639   */\n      dup2\n        /* \"#utility.yul\":631:666   */\n      eq\n        /* \"#utility.yul\":621:684   */\n      tag_185\n      jumpi\n        /* \"#utility.yul\":680:681   */\n      0x00\n        /* \"#utility.yul\":677:678   */\n      dup1\n        /* \"#utility.yul\":670:682   */\n      revert\n        /* \"#utility.yul\":621:684   */\n    tag_185:\n        /* \"#utility.yul\":568:690   */\n      pop\n      jump\t// out\n        /* \"#utility.yul\":696:835   */\n    tag_136:\n        /* \"#utility.yul\":742:747   */\n      0x00\n        /* \"#utility.yul\":780:786   */\n      dup2\n        /* \"#utility.yul\":767:787   */\n      calldataload\n        /* \"#utility.yul\":758:787   */\n      swap1\n      pop\n        /* \"#utility.yul\":796:829   */\n      tag_187\n        /* \"#utility.yul\":823:828   */\n      dup2\n        /* \"#utility.yul\":796:829   */\n      tag_135\n      jump\t// in\n    tag_187:\n        /* \"#utility.yul\":696:835   */\n      swap3\n      swap2\n      pop\n      pop\n      jump\t// out\n        /* \"#utility.yul\":841:1170   */\n    tag_19:\n        /* \"#utility.yul\":900:906   */\n      0x00\n        /* \"#utility.yul\":949:951   */\n      0x20\n        /* \"#utility.yul\":937:946   */\n      dup3\n        /* \"#utility.yul\":928:935   */\n      dup5\n        /* \"#utility.yul\":924:947   */\n      sub\n        /* \"#utility.yul\":920:952   */\n      slt\n        /* \"#utility.yul\":917:1036   */\n      iszero\n      tag_189\n      jumpi\n        /* \"#utility.yul\":955:1034   */\n      tag_190\n      tag_131\n      jump\t// in\n    tag_190:\n        /* \"#utility.yul\":917:1036   */\n    tag_189:\n        /* \"#utility.yul\":1075:1076   */\n      0x00\n        /* \"#utility.yul\":1100:1153   */\n      tag_191\n        /* \"#utility.yul\":1145:1152   */\n      dup5\n        /* \"#utility.yul\":1136:1142   */\n      dup3\n        /* \"#utility.yul\":1125:1134   */\n      dup6\n        /* \"#utility.yul\":1121:1143   */\n      add\n        /* \"#utility.yul\":1100:1153   */\n      tag_136\n      jump\t// in\n    tag_191:\n        /* \"#utility.yul\":1090:1153   */\n      swap2\n      pop\n        /* \"#utility.yul\":1046:1163   */\n      pop\n        /* \"#utility.yul\":841:1170   */\n      swap3\n      swap2\n      pop\n      pop\n      jump\t// out\n        /* \"#utility.yul\":1176:1253   */\n    tag_137:\n        /* \"#utility.yul\":1213:1220   */\n      0x00\n        /* \"#utility.yul\":1242:1247   */\n      dup2\n        /* \"#utility.yul\":1231:1247   */\n      swap1\n      pop\n        /* \"#utility.yul\":1176:1253   */\n      swap2\n      swap1\n      pop\n      jump\t// out\n        /* \"#utility.yul\":1259:1377   */\n    tag_138:\n        /* \"#utility.yul\":1346:1370   */\n      tag_194\n        /* \"#utility.yul\":1364:1369   */\n      dup2\n        /* \"#utility.yul\":1346:1370   */\n      tag_137\n      jump\t// in\n    tag_194:\n        /* \"#utility.yul\":1341:1344   */\n      dup3\n        /* \"#utility.yul\":1334:1371   */\n      mstore\n        /* \"#utility.yul\":1259:1377   */\n      pop\n      pop\n      jump\t// out\n        /* \"#utility.yul\":1383:1605   */\n    tag_26:\n        /* \"#utility.yul\":1476:1480   */\n      0x00\n        /* \"#utility.yul\":1514:1516   */\n      0x20\n        /* \"#utility.yul\":1503:1512   */\n      dup3\n        /* \"#utility.yul\":1499:1517   */\n      add\n        /* \"#utility.yul\":1491:1517   */\n      swap1\n      pop\n        /* \"#utility.yul\":1527:1598   */\n      tag_196\n        /* \"#utility.yul\":1595:1596   */\n      0x00\n        /* \"#utility.yul\":1584:1593   */\n      dup4\n        /* \"#utility.yul\":1580:1597   */\n      add\n        /* \"#utility.yul\":1571:1577   */\n      dup5\n        /* \"#utility.yul\":1527:1598   */\n      tag_138\n      jump\t// in\n    tag_196:\n        /* \"#utility.yul\":1383:1605   */\n      swap3\n      swap2\n      pop\n      pop\n      jump\t// out\n        /* \"#utility.yul\":1611:1729   */\n    tag_139:\n        /* \"#utility.yul\":1698:1722   */\n      tag_198\n        /* \"#utility.yul\":1716:1721   */\n      dup2\n        /* \"#utility.yul\":1698:1722   */\n      tag_134\n      jump\t// in\n    tag_198:\n        /* \"#utility.yul\":1693:1696   */\n      dup3\n        /* \"#utility.yul\":1686:1723   */\n      mstore\n        /* \"#utility.yul\":1611:1729   */\n      pop\n      pop\n      jump\t// out\n        /* \"#utility.yul\":1735:1957   */\n    tag_35:\n        /* \"#utility.yul\":1828:1832   */\n      0x00\n        /* \"#utility.yul\":1866:1868   */\n      0x20\n        /* \"#utility.yul\":1855:1864   */\n      dup3\n        /* \"#utility.yul\":1851:1869   */\n      add\n        /* \"#utility.yul\":1843:1869   */\n      swap1\n      pop\n        /* \"#utility.yul\":1879:1950   */\n      tag_200\n        /* \"#utility.yul\":1947:1948   */\n      0x00\n        /* \"#utility.yul\":1936:1945   */\n      dup4\n        /* \"#utility.yul\":1932:1949   */\n      add\n        /* \"#utility.yul\":1923:1929   */\n      dup5\n        /* \"#utility.yul\":1879:1950   */\n      tag_139\n      jump\t// in\n    tag_200:\n        /* \"#utility.yul\":1735:1957   */\n      swap3\n      swap2\n      pop\n      pop\n      jump\t// out\n        /* \"#utility.yul\":1963:2039   */\n    tag_140:\n        /* \"#utility.yul\":1999:2006   */\n      0x00\n        /* \"#utility.yul\":2028:2033   */\n      dup2\n        /* \"#utility.yul\":2017:2033   */\n      swap1\n      pop\n        /* \"#utility.yul\":1963:2039   */\n      swap2\n      swap1\n      pop\n      jump\t// out\n        /* \"#utility.yul\":2045:2160   */\n    tag_141:\n        /* \"#utility.yul\":2130:2153   */\n      tag_203\n        /* \"#utility.yul\":2147:2152   */\n      dup2\n        /* \"#utility.yul\":2130:2153   */\n      tag_140\n      jump\t// in\n    tag_203:\n        /* \"#utility.yul\":2125:2128   */\n      dup3\n        /* \"#utility.yul\":2118:2154   */\n      mstore\n        /* \"#utility.yul\":2045:2160   */\n      pop\n      pop\n      jump\t// out\n        /* \"#utility.yul\":2166:2384   */\n    tag_45:\n        /* \"#utility.yul\":2257:2261   */\n      0x00\n        /* \"#utility.yul\":2295:2297   */\n      0x20\n        /* \"#utility.yul\":2284:2293   */\n      dup3\n        /* \"#utility.yul\":2280:2298   */\n      add\n        /* \"#utility.yul\":2272:2298   */\n      swap1\n      pop\n        /* \"#utility.yul\":2308:2377   */\n      tag_205\n        /* \"#utility.yul\":2374:2375   */\n      0x00\n        /* \"#utility.yul\":2363:2372   */\n      dup4\n        /* \"#utility.yul\":2359:2376   */\n      add\n        /* \"#utility.yul\":2350:2356   */\n      dup5\n        /* \"#utility.yul\":2308:2377   */\n      tag_141\n      jump\t// in\n    tag_205:\n        /* \"#utility.yul\":2166:2384   */\n      swap3\n      swap2\n      pop\n      pop\n      jump\t// out\n        /* \"#utility.yul\":2390:2512   */\n    tag_142:\n        /* \"#utility.yul\":2463:2487   */\n      tag_207\n        /* \"#utility.yul\":2481:2486   */\n      dup2\n        /* \"#utility.yul\":2463:2487   */\n      tag_137\n      jump\t// in\n    tag_207:\n        /* \"#utility.yul\":2456:2461   */\n      dup2\n        /* \"#utility.yul\":2453:2488   */\n      eq\n        /* \"#utility.yul\":2443:2506   */\n      tag_208\n      jumpi\n        /* \"#utility.yul\":2502:2503   */\n      0x00\n        /* \"#utility.yul\":2499:2500   */\n      dup1\n        /* \"#utility.yul\":2492:2504   */\n      revert\n        /* \"#utility.yul\":2443:2506   */\n    tag_208:\n        /* \"#utility.yul\":2390:2512   */\n      pop\n      jump\t// out\n        /* \"#utility.yul\":2518:2657   */\n    tag_143:\n        /* \"#utility.yul\":2564:2569   */\n      0x00\n        /* \"#utility.yul\":2602:2608   */\n      dup2\n        /* \"#utility.yul\":2589:2609   */\n      calldataload\n        /* \"#utility.yul\":2580:2609   */\n      swap1\n      pop\n        /* \"#utility.yul\":2618:2651   */\n      tag_210\n        /* \"#utility.yul\":2645:2650   */\n      dup2\n        /* \"#utility.yul\":2618:2651   */\n      tag_142\n      jump\t// in\n    tag_210:\n        /* \"#utility.yul\":2518:2657   */\n      swap3\n      swap2\n      pop\n      pop\n      jump\t// out\n        /* \"#utility.yul\":2663:3137   */\n    tag_49:\n        /* \"#utility.yul\":2731:2737   */\n      0x00\n        /* \"#utility.yul\":2739:2745   */\n      dup1\n        /* \"#utility.yul\":2788:2790   */\n      0x40\n        /* \"#utility.yul\":2776:2785   */\n      dup4\n        /* \"#utility.yul\":2767:2774   */\n      dup6\n        /* \"#utility.yul\":2763:2786   */\n      sub\n        /* \"#utility.yul\":2759:2791   */\n      slt\n        /* \"#utility.yul\":2756:2875   */\n      iszero\n      tag_212\n      jumpi\n        /* \"#utility.yul\":2794:2873   */\n      tag_213\n      tag_131\n      jump\t// in\n    tag_213:\n        /* \"#utility.yul\":2756:2875   */\n    tag_212:\n        /* \"#utility.yul\":2914:2915   */\n      0x00\n        /* \"#utility.yul\":2939:2992   */\n      tag_214\n        /* \"#utility.yul\":2984:2991   */\n      dup6\n        /* \"#utility.yul\":2975:2981   */\n      dup3\n        /* \"#utility.yul\":2964:2973   */\n      dup7\n        /* \"#utility.yul\":2960:2982   */\n      add\n        /* \"#utility.yul\":2939:2992   */\n      tag_136\n      jump\t// in\n    tag_214:\n        /* \"#utility.yul\":2929:2992   */\n      swap3\n      pop\n        /* \"#utility.yul\":2885:3002   */\n      pop\n        /* \"#utility.yul\":3041:3043   */\n      0x20\n        /* \"#utility.yul\":3067:3120   */\n      tag_215\n        /* \"#utility.yul\":3112:3119   */\n      dup6\n        /* \"#utility.yul\":3103:3109   */\n      dup3\n        /* \"#utility.yul\":3092:3101   */\n      dup7\n        /* \"#utility.yul\":3088:3110   */\n      add\n        /* \"#utility.yul\":3067:3120   */\n      tag_143\n      jump\t// in\n    tag_215:\n        /* \"#utility.yul\":3057:3120   */\n      swap2\n      pop\n        /* \"#utility.yul\":3012:3130   */\n      pop\n        /* \"#utility.yul\":2663:3137   */\n      swap3\n      pop\n      swap3\n      swap1\n      pop\n      jump\t// out\n        /* \"#utility.yul\":3143:3233   */\n    tag_144:\n        /* \"#utility.yul\":3177:3184   */\n      0x00\n        /* \"#utility.yul\":3220:3225   */\n      dup2\n        /* \"#utility.yul\":3213:3226   */\n      iszero\n        /* \"#utility.yul\":3206:3227   */\n      iszero\n        /* \"#utility.yul\":3195:3227   */\n      swap1\n      pop\n        /* \"#utility.yul\":3143:3233   */\n      swap2\n      swap1\n      pop\n      jump\t// out\n        /* \"#utility.yul\":3239:3348   */\n    tag_145:\n        /* \"#utility.yul\":3320:3341   */\n      tag_218\n        /* \"#utility.yul\":3335:3340   */\n      dup2\n        /* \"#utility.yul\":3320:3341   */\n      tag_144\n      jump\t// in\n    tag_218:\n        /* \"#utility.yul\":3315:3318   */\n      dup3\n        /* \"#utility.yul\":3308:3342   */\n      mstore\n        /* \"#utility.yul\":3239:3348   */\n      pop\n      pop\n      jump\t// out\n        /* \"#utility.yul\":3354:3564   */\n    tag_55:\n        /* \"#utility.yul\":3441:3445   */\n      0x00\n        /* \"#utility.yul\":3479:3481   */\n      0x20\n        /* \"#utility.yul\":3468:3477   */\n      dup3\n        /* \"#utility.yul\":3464:3482   */\n      add\n        /* \"#utility.yul\":3456:3482   */\n      swap1\n      pop\n        /* \"#utility.yul\":3492:3557   */\n      tag_220\n        /* \"#utility.yul\":3554:3555   */\n      0x00\n        /* \"#utility.yul\":3543:3552   */\n      dup4\n        /* \"#utility.yul\":3539:3556   */\n      add\n        /* \"#utility.yul\":3530:3536   */\n      dup5\n        /* \"#utility.yul\":3492:3557   */\n      tag_145\n      jump\t// in\n    tag_220:\n        /* \"#utility.yul\":3354:3564   */\n      swap3\n      swap2\n      pop\n      pop\n      jump\t// out\n        /* \"#utility.yul\":3570:3750   */\n    tag_146:\n        /* \"#utility.yul\":3618:3695   */\n      0x4e487b7100000000000000000000000000000000000000000000000000000000\n        /* \"#utility.yul\":3615:3616   */\n      0x00\n        /* \"#utility.yul\":3608:3696   */\n      mstore\n        /* \"#utility.yul\":3715:3719   */\n      0x11\n        /* \"#utility.yul\":3712:3713   */\n      0x04\n        /* \"#utility.yul\":3705:3720   */\n      mstore\n        /* \"#utility.yul\":3739:3743   */\n      0x24\n        /* \"#utility.yul\":3736:3737   */\n      0x00\n        /* \"#utility.yul\":3729:3744   */\n      revert\n        /* \"#utility.yul\":3756:3947   */\n    tag_58:\n        /* \"#utility.yul\":3796:3799   */\n      0x00\n        /* \"#utility.yul\":3815:3835   */\n      tag_223\n        /* \"#utility.yul\":3833:3834   */\n      dup3\n        /* \"#utility.yul\":3815:3835   */\n      tag_137\n      jump\t// in\n    tag_223:\n        /* \"#utility.yul\":3810:3835   */\n      swap2\n      pop\n        /* \"#utility.yul\":3849:3869   */\n      tag_224\n        /* \"#utility.yul\":3867:3868   */\n      dup4\n        /* \"#utility.yul\":3849:3869   */\n      tag_137\n      jump\t// in\n    tag_224:\n        /* \"#utility.yul\":3844:3869   */\n      swap3\n      pop\n        /* \"#utility.yul\":3892:3893   */\n      dup3\n        /* \"#utility.yul\":3889:3890   */\n      dup3\n        /* \"#utility.yul\":3885:3894   */\n      add\n        /* \"#utility.yul\":3878:3894   */\n      swap1\n      pop\n        /* \"#utility.yul\":3913:3916   */\n      dup1\n        /* \"#utility.yul\":3910:3911   */\n      dup3\n        /* \"#utility.yul\":3907:3917   */\n      gt\n        /* \"#utility.yul\":3904:3940   */\n      iszero\n      tag_225\n      jumpi\n        /* \"#utility.yul\":3920:3938   */\n      tag_226\n      tag_146\n      jump\t// in\n    tag_226:\n        /* \"#utility.yul\":3904:3940   */\n    tag_225:\n        /* \"#utility.yul\":3756:3947   */\n      swap3\n      swap2\n      pop\n      pop\n      jump\t// out\n        /* \"#utility.yul\":3953:4122   */\n    tag_147:\n        /* \"#utility.yul\":4037:4048   */\n      0x00\n        /* \"#utility.yul\":4071:4077   */\n      dup3\n        /* \"#utility.yul\":4066:4069   */\n      dup3\n        /* \"#utility.yul\":4059:4078   */\n      mstore\n        /* \"#utility.yul\":4111:4115   */\n      0x20\n        /* \"#utility.yul\":4106:4109   */\n      dup3\n        /* \"#utility.yul\":4102:4116   */\n      add\n        /* \"#utility.yul\":4087:4116   */\n      swap1\n      pop\n        /* \"#utility.yul\":3953:4122   */\n      swap3\n      swap2\n      pop\n      pop\n      jump\t// out\n        /* \"#utility.yul\":4128:4298   */\n    tag_148:\n        /* \"#utility.yul\":4268:4290   */\n      0x77696e646f77206973206e6f7420636c6f736564000000000000000000000000\n        /* \"#utility.yul\":4264:4265   */\n      0x00\n        /* \"#utility.yul\":4256:4262   */\n      dup3\n        /* \"#utility.yul\":4252:4266   */\n      add\n        /* \"#utility.yul\":4245:4291   */\n      mstore\n        /* \"#utility.yul\":4128:4298   */\n      pop\n      jump\t// out\n        /* \"#utility.yul\":4304:4670   */\n    tag_149:\n        /* \"#utility.yul\":4446:4449   */\n      0x00\n        /* \"#utility.yul\":4467:4534   */\n      tag_230\n        /* \"#utility.yul\":4531:4533   */\n      0x14\n        /* \"#utility.yul\":4526:4529   */\n      dup4\n        /* \"#utility.yul\":4467:4534   */\n      tag_147\n      jump\t// in\n    tag_230:\n        /* \"#utility.yul\":4460:4534   */\n      swap2\n      pop\n        /* \"#utility.yul\":4543:4636   */\n      tag_231\n        /* \"#utility.yul\":4632:4635   */\n      dup3\n        /* \"#utility.yul\":4543:4636   */\n      tag_148\n      jump\t// in\n    tag_231:\n        /* \"#utility.yul\":4661:4663   */\n      0x20\n        /* \"#utility.yul\":4656:4659   */\n      dup3\n        /* \"#utility.yul\":4652:4664   */\n      add\n        /* \"#utility.yul\":4645:4664   */\n      swap1\n      pop\n        /* \"#utility.yul\":4304:4670   */\n      swap2\n      swap1\n      pop\n      jump\t// out\n        /* \"#utility.yul\":4676:5095   */\n    tag_61:\n        /* \"#utility.yul\":4842:4846   */\n      0x00\n        /* \"#utility.yul\":4880:4882   */\n      0x20\n        /* \"#utility.yul\":4869:4878   */\n      dup3\n        /* \"#utility.yul\":4865:4883   */\n      add\n        /* \"#utility.yul\":4857:4883   */\n      swap1\n      pop\n        /* \"#utility.yul\":4929:4938   */\n      dup2\n        /* \"#utility.yul\":4923:4927   */\n      dup2\n        /* \"#utility.yul\":4919:4939   */\n      sub\n        /* \"#utility.yul\":4915:4916   */\n      0x00\n        /* \"#utility.yul\":4904:4913   */\n      dup4\n        /* \"#utility.yul\":4900:4917   */\n      add\n        /* \"#utility.yul\":4893:4940   */\n      mstore\n        /* \"#utility.yul\":4957:5088   */\n      tag_233\n        /* \"#utility.yul\":5083:5087   */\n      dup2\n        /* \"#utility.yul\":4957:5088   */\n      tag_149\n      jump\t// in\n    tag_233:\n        /* \"#utility.yul\":4949:5088   */\n      swap1\n      pop\n        /* \"#utility.yul\":4676:5095   */\n      swap2\n      swap1\n      pop\n      jump\t// out\n        /* \"#utility.yul\":5101:5268   */\n    tag_150:\n        /* \"#utility.yul\":5241:5260   */\n      0x7461726765742069732072656163686564000000000000000000000000000000\n        /* \"#utility.yul\":5237:5238   */\n      0x00\n        /* \"#utility.yul\":5229:5235   */\n      dup3\n        /* \"#utility.yul\":5225:5239   */\n      add\n        /* \"#utility.yul\":5218:5261   */\n      mstore\n        /* \"#utility.yul\":5101:5268   */\n      pop\n      jump\t// out\n        /* \"#utility.yul\":5274:5640   */\n    tag_151:\n        /* \"#utility.yul\":5416:5419   */\n      0x00\n        /* \"#utility.yul\":5437:5504   */\n      tag_236\n        /* \"#utility.yul\":5501:5503   */\n      0x11\n        /* \"#utility.yul\":5496:5499   */\n      dup4\n        /* \"#utility.yul\":5437:5504   */\n      tag_147\n      jump\t// in\n    tag_236:\n        /* \"#utility.yul\":5430:5504   */\n      swap2\n      pop\n        /* \"#utility.yul\":5513:5606   */\n      tag_237\n        /* \"#utility.yul\":5602:5605   */\n      dup3\n        /* \"#utility.yul\":5513:5606   */\n      tag_150\n      jump\t// in\n    tag_237:\n        /* \"#utility.yul\":5631:5633   */\n      0x20\n        /* \"#utility.yul\":5626:5629   */\n      dup3\n        /* \"#utility.yul\":5622:5634   */\n      add\n        /* \"#utility.yul\":5615:5634   */\n      swap1\n      pop\n        /* \"#utility.yul\":5274:5640   */\n      swap2\n      swap1\n      pop\n      jump\t// out\n        /* \"#utility.yul\":5646:6065   */\n    tag_67:\n        /* \"#utility.yul\":5812:5816   */\n      0x00\n        /* \"#utility.yul\":5850:5852   */\n      0x20\n        /* \"#utility.yul\":5839:5848   */\n      dup3\n        /* \"#utility.yul\":5835:5853   */\n      add\n        /* \"#utility.yul\":5827:5853   */\n      swap1\n      pop\n        /* \"#utility.yul\":5899:5908   */\n      dup2\n        /* \"#utility.yul\":5893:5897   */\n      dup2\n        /* \"#utility.yul\":5889:5909   */\n      sub\n        /* \"#utility.yul\":5885:5886   */\n      0x00\n        /* \"#utility.yul\":5874:5883   */\n      dup4\n        /* \"#utility.yul\":5870:5887   */\n      add\n        /* \"#utility.yul\":5863:5910   */\n      mstore\n        /* \"#utility.yul\":5927:6058   */\n      tag_239\n        /* \"#utility.yul\":6053:6057   */\n      dup2\n        /* \"#utility.yul\":5927:6058   */\n      tag_151\n      jump\t// in\n    tag_239:\n        /* \"#utility.yul\":5919:6058   */\n      swap1\n      pop\n        /* \"#utility.yul\":5646:6065   */\n      swap2\n      swap1\n      pop\n      jump\t// out\n        /* \"#utility.yul\":6071:6246   */\n    tag_152:\n        /* \"#utility.yul\":6211:6238   */\n      0x7468657265206973206e6f742066756e6420666f7220796f7500000000000000\n        /* \"#utility.yul\":6207:6208   */\n      0x00\n        /* \"#utility.yul\":6199:6205   */\n      dup3\n        /* \"#utility.yul\":6195:6209   */\n      add\n        /* \"#utility.yul\":6188:6239   */\n      mstore\n        /* \"#utility.yul\":6071:6246   */\n      pop\n      jump\t// out\n        /* \"#utility.yul\":6252:6618   */\n    tag_153:\n        /* \"#utility.yul\":6394:6397   */\n      0x00\n        /* \"#utility.yul\":6415:6482   */\n      tag_242\n        /* \"#utility.yul\":6479:6481   */\n      0x19\n        /* \"#utility.yul\":6474:6477   */\n      dup4\n        /* \"#utility.yul\":6415:6482   */\n      tag_147\n      jump\t// in\n    tag_242:\n        /* \"#utility.yul\":6408:6482   */\n      swap2\n      pop\n        /* \"#utility.yul\":6491:6584   */\n      tag_243\n        /* \"#utility.yul\":6580:6583   */\n      dup3\n        /* \"#utility.yul\":6491:6584   */\n      tag_152\n      jump\t// in\n    tag_243:\n        /* \"#utility.yul\":6609:6611   */\n      0x20\n        /* \"#utility.yul\":6604:6607   */\n      dup3\n        /* \"#utility.yul\":6600:6612   */\n      add\n        /* \"#utility.yul\":6593:6612   */\n      swap1\n      pop\n        /* \"#utility.yul\":6252:6618   */\n      swap2\n      swap1\n      pop\n      jump\t// out\n        /* \"#utility.yul\":6624:7043   */\n    tag_70:\n        /* \"#utility.yul\":6790:6794   */\n      0x00\n        /* \"#utility.yul\":6828:6830   */\n      0x20\n        /* \"#utility.yul\":6817:6826   */\n      dup3\n        /* \"#utility.yul\":6813:6831   */\n      add\n        /* \"#utility.yul\":6805:6831   */\n      swap1\n      pop\n        /* \"#utility.yul\":6877:6886   */\n      dup2\n        /* \"#utility.yul\":6871:6875   */\n      dup2\n        /* \"#utility.yul\":6867:6887   */\n      sub\n        /* \"#utility.yul\":6863:6864   */\n      0x00\n        /* \"#utility.yul\":6852:6861   */\n      dup4\n        /* \"#utility.yul\":6848:6865   */\n      add\n        /* \"#utility.yul\":6841:6888   */\n      mstore\n        /* \"#utility.yul\":6905:7036   */\n      tag_245\n        /* \"#utility.yul\":7031:7035   */\n      dup2\n        /* \"#utility.yul\":6905:7036   */\n      tag_153\n      jump\t// in\n    tag_245:\n        /* \"#utility.yul\":6897:7036   */\n      swap1\n      pop\n        /* \"#utility.yul\":6624:7043   */\n      swap2\n      swap1\n      pop\n      jump\t// out\n        /* \"#utility.yul\":7049:7196   */\n    tag_154:\n        /* \"#utility.yul\":7150:7161   */\n      0x00\n        /* \"#utility.yul\":7187:7190   */\n      dup2\n        /* \"#utility.yul\":7172:7190   */\n      swap1\n      pop\n        /* \"#utility.yul\":7049:7196   */\n      swap3\n      swap2\n      pop\n      pop\n      jump\t// out\n        /* \"#utility.yul\":7202:7316   */\n    tag_155:\n      pop\n      jump\t// out\n        /* \"#utility.yul\":7322:7720   */\n    tag_156:\n        /* \"#utility.yul\":7481:7484   */\n      0x00\n        /* \"#utility.yul\":7502:7585   */\n      tag_249\n        /* \"#utility.yul\":7583:7584   */\n      0x00\n        /* \"#utility.yul\":7578:7581   */\n      dup4\n        /* \"#utility.yul\":7502:7585   */\n      tag_154\n      jump\t// in\n    tag_249:\n        /* \"#utility.yul\":7495:7585   */\n      swap2\n      pop\n        /* \"#utility.yul\":7594:7687   */\n      tag_250\n        /* \"#utility.yul\":7683:7686   */\n      dup3\n        /* \"#utility.yul\":7594:7687   */\n      tag_155\n      jump\t// in\n    tag_250:\n        /* \"#utility.yul\":7712:7713   */\n      0x00\n        /* \"#utility.yul\":7707:7710   */\n      dup3\n        /* \"#utility.yul\":7703:7714   */\n      add\n        /* \"#utility.yul\":7696:7714   */\n      swap1\n      pop\n        /* \"#utility.yul\":7322:7720   */\n      swap2\n      swap1\n      pop\n      jump\t// out\n        /* \"#utility.yul\":7726:8105   */\n    tag_72:\n        /* \"#utility.yul\":7910:7913   */\n      0x00\n        /* \"#utility.yul\":7932:8079   */\n      tag_252\n        /* \"#utility.yul\":8075:8078   */\n      dup3\n        /* \"#utility.yul\":7932:8079   */\n      tag_156\n      jump\t// in\n    tag_252:\n        /* \"#utility.yul\":7925:8079   */\n      swap2\n      pop\n        /* \"#utility.yul\":8096:8099   */\n      dup2\n        /* \"#utility.yul\":8089:8099   */\n      swap1\n      pop\n        /* \"#utility.yul\":7726:8105   */\n      swap2\n      swap1\n      pop\n      jump\t// out\n        /* \"#utility.yul\":8111:8279   */\n    tag_157:\n        /* \"#utility.yul\":8251:8271   */\n      0x7472616e73666572207478206661696c65640000000000000000000000000000\n        /* \"#utility.yul\":8247:8248   */\n      0x00\n        /* \"#utility.yul\":8239:8245   */\n      dup3\n        /* \"#utility.yul\":8235:8249   */\n      add\n        /* \"#utility.yul\":8228:8272   */\n      mstore\n        /* \"#utility.yul\":8111:8279   */\n      pop\n      jump\t// out\n        /* \"#utility.yul\":8285:8651   */\n    tag_158:\n        /* \"#utility.yul\":8427:8430   */\n      0x00\n        /* \"#utility.yul\":8448:8515   */\n      tag_255\n        /* \"#utility.yul\":8512:8514   */\n      0x12\n        /* \"#utility.yul\":8507:8510   */\n      dup4\n        /* \"#utility.yul\":8448:8515   */\n      tag_147\n      jump\t// in\n    tag_255:\n        /* \"#utility.yul\":8441:8515   */\n      swap2\n      pop\n        /* \"#utility.yul\":8524:8617   */\n      tag_256\n        /* \"#utility.yul\":8613:8616   */\n      dup3\n        /* \"#utility.yul\":8524:8617   */\n      tag_157\n      jump\t// in\n    tag_256:\n        /* \"#utility.yul\":8642:8644   */\n      0x20\n        /* \"#utility.yul\":8637:8640   */\n      dup3\n        /* \"#utility.yul\":8633:8645   */\n      add\n        /* \"#utility.yul\":8626:8645   */\n      swap1\n      pop\n        /* \"#utility.yul\":8285:8651   */\n      swap2\n      swap1\n      pop\n      jump\t// out\n        /* \"#utility.yul\":8657:9076   */\n    tag_78:\n        /* \"#utility.yul\":8823:8827   */\n      0x00\n        /* \"#utility.yul\":8861:8863   */\n      0x20\n        /* \"#utility.yul\":8850:8859   */\n      dup3\n        /* \"#utility.yul\":8846:8864   */\n      add\n        /* \"#utility.yul\":8838:8864   */\n      swap1\n      pop\n        /* \"#utility.yul\":8910:8919   */\n      dup2\n        /* \"#utility.yul\":8904:8908   */\n      dup2\n        /* \"#utility.yul\":8900:8920   */\n      sub\n        /* \"#utility.yul\":8896:8897   */\n      0x00\n        /* \"#utility.yul\":8885:8894   */\n      dup4\n        /* \"#utility.yul\":8881:8898   */\n      add\n        /* \"#utility.yul\":8874:8921   */\n      mstore\n        /* \"#utility.yul\":8938:9069   */\n      tag_258\n        /* \"#utility.yul\":9064:9068   */\n      dup2\n        /* \"#utility.yul\":8938:9069   */\n      tag_158\n      jump\t// in\n    tag_258:\n        /* \"#utility.yul\":8930:9069   */\n      swap1\n      pop\n        /* \"#utility.yul\":8657:9076   */\n      swap2\n      swap1\n      pop\n      jump\t// out\n        /* \"#utility.yul\":9082:9310   */\n    tag_159:\n        /* \"#utility.yul\":9222:9256   */\n      0x746869732066756e6374696f6e2063616e206f6e6c792062652063616c6c6564\n        /* \"#utility.yul\":9218:9219   */\n      0x00\n        /* \"#utility.yul\":9210:9216   */\n      dup3\n        /* \"#utility.yul\":9206:9220   */\n      add\n        /* \"#utility.yul\":9199:9257   */\n      mstore\n        /* \"#utility.yul\":9291:9302   */\n      0x206279206f776e65720000000000000000000000000000000000000000000000\n        /* \"#utility.yul\":9286:9288   */\n      0x20\n        /* \"#utility.yul\":9278:9284   */\n      dup3\n        /* \"#utility.yul\":9274:9289   */\n      add\n        /* \"#utility.yul\":9267:9303   */\n      mstore\n        /* \"#utility.yul\":9082:9310   */\n      pop\n      jump\t// out\n        /* \"#utility.yul\":9316:9682   */\n    tag_160:\n        /* \"#utility.yul\":9458:9461   */\n      0x00\n        /* \"#utility.yul\":9479:9546   */\n      tag_261\n        /* \"#utility.yul\":9543:9545   */\n      0x29\n        /* \"#utility.yul\":9538:9541   */\n      dup4\n        /* \"#utility.yul\":9479:9546   */\n      tag_147\n      jump\t// in\n    tag_261:\n        /* \"#utility.yul\":9472:9546   */\n      swap2\n      pop\n        /* \"#utility.yul\":9555:9648   */\n      tag_262\n        /* \"#utility.yul\":9644:9647   */\n      dup3\n        /* \"#utility.yul\":9555:9648   */\n      tag_159\n      jump\t// in\n    tag_262:\n        /* \"#utility.yul\":9673:9675   */\n      0x40\n        /* \"#utility.yul\":9668:9671   */\n      dup3\n        /* \"#utility.yul\":9664:9676   */\n      add\n        /* \"#utility.yul\":9657:9676   */\n      swap1\n      pop\n        /* \"#utility.yul\":9316:9682   */\n      swap2\n      swap1\n      pop\n      jump\t// out\n        /* \"#utility.yul\":9688:10107   */\n    tag_82:\n        /* \"#utility.yul\":9854:9858   */\n      0x00\n        /* \"#utility.yul\":9892:9894   */\n      0x20\n        /* \"#utility.yul\":9881:9890   */\n      dup3\n        /* \"#utility.yul\":9877:9895   */\n      add\n        /* \"#utility.yul\":9869:9895   */\n      swap1\n      pop\n        /* \"#utility.yul\":9941:9950   */\n      dup2\n        /* \"#utility.yul\":9935:9939   */\n      dup2\n        /* \"#utility.yul\":9931:9951   */\n      sub\n        /* \"#utility.yul\":9927:9928   */\n      0x00\n        /* \"#utility.yul\":9916:9925   */\n      dup4\n        /* \"#utility.yul\":9912:9929   */\n      add\n        /* \"#utility.yul\":9905:9952   */\n      mstore\n        /* \"#utility.yul\":9969:10100   */\n      tag_264\n        /* \"#utility.yul\":10095:10099   */\n      dup2\n        /* \"#utility.yul\":9969:10100   */\n      tag_160\n      jump\t// in\n    tag_264:\n        /* \"#utility.yul\":9961:10100   */\n      swap1\n      pop\n        /* \"#utility.yul\":9688:10107   */\n      swap2\n      swap1\n      pop\n      jump\t// out\n        /* \"#utility.yul\":10113:10284   */\n    tag_161:\n        /* \"#utility.yul\":10253:10276   */\n      0x746172676574206973206e6f7420726561636865640000000000000000000000\n        /* \"#utility.yul\":10249:10250   */\n      0x00\n        /* \"#utility.yul\":10241:10247   */\n      dup3\n        /* \"#utility.yul\":10237:10251   */\n      add\n        /* \"#utility.yul\":10230:10277   */\n      mstore\n        /* \"#utility.yul\":10113:10284   */\n      pop\n      jump\t// out\n        /* \"#utility.yul\":10290:10656   */\n    tag_162:\n        /* \"#utility.yul\":10432:10435   */\n      0x00\n        /* \"#utility.yul\":10453:10520   */\n      tag_267\n        /* \"#utility.yul\":10517:10519   */\n      0x15\n        /* \"#utility.yul\":10512:10515   */\n      dup4\n        /* \"#utility.yul\":10453:10520   */\n      tag_147\n      jump\t// in\n    tag_267:\n        /* \"#utility.yul\":10446:10520   */\n      swap2\n      pop\n        /* \"#utility.yul\":10529:10622   */\n      tag_268\n        /* \"#utility.yul\":10618:10621   */\n      dup3\n        /* \"#utility.yul\":10529:10622   */\n      tag_161\n      jump\t// in\n    tag_268:\n        /* \"#utility.yul\":10647:10649   */\n      0x20\n        /* \"#utility.yul\":10642:10645   */\n      dup3\n        /* \"#utility.yul\":10638:10650   */\n      add\n        /* \"#utility.yul\":10631:10650   */\n      swap1\n      pop\n        /* \"#utility.yul\":10290:10656   */\n      swap2\n      swap1\n      pop\n      jump\t// out\n        /* \"#utility.yul\":10662:11081   */\n    tag_99:\n        /* \"#utility.yul\":10828:10832   */\n      0x00\n        /* \"#utility.yul\":10866:10868   */\n      0x20\n        /* \"#utility.yul\":10855:10864   */\n      dup3\n        /* \"#utility.yul\":10851:10869   */\n      add\n        /* \"#utility.yul\":10843:10869   */\n      swap1\n      pop\n        /* \"#utility.yul\":10915:10924   */\n      dup2\n        /* \"#utility.yul\":10909:10913   */\n      dup2\n        /* \"#utility.yul\":10905:10925   */\n      sub\n        /* \"#utility.yul\":10901:10902   */\n      0x00\n        /* \"#utility.yul\":10890:10899   */\n      dup4\n        /* \"#utility.yul\":10886:10903   */\n      add\n        /* \"#utility.yul\":10879:10926   */\n      mstore\n        /* \"#utility.yul\":10943:11074   */\n      tag_270\n        /* \"#utility.yul\":11069:11073   */\n      dup2\n        /* \"#utility.yul\":10943:11074   */\n      tag_162\n      jump\t// in\n    tag_270:\n        /* \"#utility.yul\":10935:11074   */\n      swap1\n      pop\n        /* \"#utility.yul\":10662:11081   */\n      swap2\n      swap1\n      pop\n      jump\t// out\n        /* \"#utility.yul\":11087:11253   */\n    tag_163:\n        /* \"#utility.yul\":11227:11245   */\n      0x77696e646f7720697320636c6f73656400000000000000000000000000000000\n        /* \"#utility.yul\":11223:11224   */\n      0x00\n        /* \"#utility.yul\":11215:11221   */\n      dup3\n        /* \"#utility.yul\":11211:11225   */\n      add\n        /* \"#utility.yul\":11204:11246   */\n      mstore\n        /* \"#utility.yul\":11087:11253   */\n      pop\n      jump\t// out\n        /* \"#utility.yul\":11259:11625   */\n    tag_164:\n        /* \"#utility.yul\":11401:11404   */\n      0x00\n        /* \"#utility.yul\":11422:11489   */\n      tag_273\n        /* \"#utility.yul\":11486:11488   */\n      0x10\n        /* \"#utility.yul\":11481:11484   */\n      dup4\n        /* \"#utility.yul\":11422:11489   */\n      tag_147\n      jump\t// in\n    tag_273:\n        /* \"#utility.yul\":11415:11489   */\n      swap2\n      pop\n        /* \"#utility.yul\":11498:11591   */\n      tag_274\n        /* \"#utility.yul\":11587:11590   */\n      dup3\n        /* \"#utility.yul\":11498:11591   */\n      tag_163\n      jump\t// in\n    tag_274:\n        /* \"#utility.yul\":11616:11618   */\n      0x20\n        /* \"#utility.yul\":11611:11614   */\n      dup3\n        /* \"#utility.yul\":11607:11619   */\n      add\n        /* \"#utility.yul\":11600:11619   */\n      swap1\n      pop\n        /* \"#utility.yul\":11259:11625   */\n      swap2\n      swap1\n      pop\n      jump\t// out\n        /* \"#utility.yul\":11631:12050   */\n    tag_110:\n        /* \"#utility.yul\":11797:11801   */\n      0x00\n        /* \"#utility.yul\":11835:11837   */\n      0x20\n        /* \"#utility.yul\":11824:11833   */\n      dup3\n        /* \"#utility.yul\":11820:11838   */\n      add\n        /* \"#utility.yul\":11812:11838   */\n      swap1\n      pop\n        /* \"#utility.yul\":11884:11893   */\n      dup2\n        /* \"#utility.yul\":11878:11882   */\n      dup2\n        /* \"#utility.yul\":11874:11894   */\n      sub\n        /* \"#utility.yul\":11870:11871   */\n      0x00\n        /* \"#utility.yul\":11859:11868   */\n      dup4\n        /* \"#utility.yul\":11855:11872   */\n      add\n        /* \"#utility.yul\":11848:11895   */\n      mstore\n        /* \"#utility.yul\":11912:12043   */\n      tag_276\n        /* \"#utility.yul\":12038:12042   */\n      dup2\n        /* \"#utility.yul\":11912:12043   */\n      tag_164\n      jump\t// in\n    tag_276:\n        /* \"#utility.yul\":11904:12043   */\n      swap1\n      pop\n        /* \"#utility.yul\":11631:12050   */\n      swap2\n      swap1\n      pop\n      jump\t// out\n        /* \"#utility.yul\":12056:12219   */\n    tag_165:\n        /* \"#utility.yul\":12196:12211   */\n      0x73656e64206d6f72652045544800000000000000000000000000000000000000\n        /* \"#utility.yul\":12192:12193   */\n      0x00\n        /* \"#utility.yul\":12184:12190   */\n      dup3\n        /* \"#utility.yul\":12180:12194   */\n      add\n        /* \"#utility.yul\":12173:12212   */\n      mstore\n        /* \"#utility.yul\":12056:12219   */\n      pop\n      jump\t// out\n        /* \"#utility.yul\":12225:12591   */\n    tag_166:\n        /* \"#utility.yul\":12367:12370   */\n      0x00\n        /* \"#utility.yul\":12388:12455   */\n      tag_279\n        /* \"#utility.yul\":12452:12454   */\n      0x0d\n        /* \"#utility.yul\":12447:12450   */\n      dup4\n        /* \"#utility.yul\":12388:12455   */\n      tag_147\n      jump\t// in\n    tag_279:\n        /* \"#utility.yul\":12381:12455   */\n      swap2\n      pop\n        /* \"#utility.yul\":12464:12557   */\n      tag_280\n        /* \"#utility.yul\":12553:12556   */\n      dup3\n        /* \"#utility.yul\":12464:12557   */\n      tag_165\n      jump\t// in\n    tag_280:\n        /* \"#utility.yul\":12582:12584   */\n      0x20\n        /* \"#utility.yul\":12577:12580   */\n      dup3\n        /* \"#utility.yul\":12573:12585   */\n      add\n        /* \"#utility.yul\":12566:12585   */\n      swap1\n      pop\n        /* \"#utility.yul\":12225:12591   */\n      swap2\n      swap1\n      pop\n      jump\t// out\n        /* \"#utility.yul\":12597:13016   */\n    tag_114:\n        /* \"#utility.yul\":12763:12767   */\n      0x00\n        /* \"#utility.yul\":12801:12803   */\n      0x20\n        /* \"#utility.yul\":12790:12799   */\n      dup3\n        /* \"#utility.yul\":12786:12804   */\n      add\n        /* \"#utility.yul\":12778:12804   */\n      swap1\n      pop\n        /* \"#utility.yul\":12850:12859   */\n      dup2\n        /* \"#utility.yul\":12844:12848   */\n      dup2\n        /* \"#utility.yul\":12840:12860   */\n      sub\n        /* \"#utility.yul\":12836:12837   */\n      0x00\n        /* \"#utility.yul\":12825:12834   */\n      dup4\n        /* \"#utility.yul\":12821:12838   */\n      add\n        /* \"#utility.yul\":12814:12861   */\n      mstore\n        /* \"#utility.yul\":12878:13009   */\n      tag_282\n        /* \"#utility.yul\":13004:13008   */\n      dup2\n        /* \"#utility.yul\":12878:13009   */\n      tag_166\n      jump\t// in\n    tag_282:\n        /* \"#utility.yul\":12870:13009   */\n      swap1\n      pop\n        /* \"#utility.yul\":12597:13016   */\n      swap2\n      swap1\n      pop\n      jump\t// out\n        /* \"#utility.yul\":13022:13127   */\n    tag_167:\n        /* \"#utility.yul\":13058:13065   */\n      0x00\n        /* \"#utility.yul\":13098:13120   */\n      0xffffffffffffffffffff\n        /* \"#utility.yul\":13091:13096   */\n      dup3\n        /* \"#utility.yul\":13087:13121   */\n      and\n        /* \"#utility.yul\":13076:13121   */\n      swap1\n      pop\n        /* \"#utility.yul\":13022:13127   */\n      swap2\n      swap1\n      pop\n      jump\t// out\n        /* \"#utility.yul\":13133:13253   */\n    tag_168:\n        /* \"#utility.yul\":13205:13228   */\n      tag_285\n        /* \"#utility.yul\":13222:13227   */\n      dup2\n        /* \"#utility.yul\":13205:13228   */\n      tag_167\n      jump\t// in\n    tag_285:\n        /* \"#utility.yul\":13198:13203   */\n      dup2\n        /* \"#utility.yul\":13195:13229   */\n      eq\n        /* \"#utility.yul\":13185:13247   */\n      tag_286\n      jumpi\n        /* \"#utility.yul\":13243:13244   */\n      0x00\n        /* \"#utility.yul\":13240:13241   */\n      dup1\n        /* \"#utility.yul\":13233:13245   */\n      revert\n        /* \"#utility.yul\":13185:13247   */\n    tag_286:\n        /* \"#utility.yul\":13133:13253   */\n      pop\n      jump\t// out\n        /* \"#utility.yul\":13259:13400   */\n    tag_169:\n        /* \"#utility.yul\":13315:13320   */\n      0x00\n        /* \"#utility.yul\":13346:13352   */\n      dup2\n        /* \"#utility.yul\":13340:13353   */\n      mload\n        /* \"#utility.yul\":13331:13353   */\n      swap1\n      pop\n        /* \"#utility.yul\":13362:13394   */\n      tag_288\n        /* \"#utility.yul\":13388:13393   */\n      dup2\n        /* \"#utility.yul\":13362:13394   */\n      tag_168\n      jump\t// in\n    tag_288:\n        /* \"#utility.yul\":13259:13400   */\n      swap3\n      swap2\n      pop\n      pop\n      jump\t// out\n        /* \"#utility.yul\":13406:13526   */\n    tag_170:\n        /* \"#utility.yul\":13478:13501   */\n      tag_290\n        /* \"#utility.yul\":13495:13500   */\n      dup2\n        /* \"#utility.yul\":13478:13501   */\n      tag_140\n      jump\t// in\n    tag_290:\n        /* \"#utility.yul\":13471:13476   */\n      dup2\n        /* \"#utility.yul\":13468:13502   */\n      eq\n        /* \"#utility.yul\":13458:13520   */\n      tag_291\n      jumpi\n        /* \"#utility.yul\":13516:13517   */\n      0x00\n        /* \"#utility.yul\":13513:13514   */\n      dup1\n        /* \"#utility.yul\":13506:13518   */\n      revert\n        /* \"#utility.yul\":13458:13520   */\n    tag_291:\n        /* \"#utility.yul\":13406:13526   */\n      pop\n      jump\t// out\n        /* \"#utility.yul\":13532:13673   */\n    tag_171:\n        /* \"#utility.yul\":13588:13593   */\n      0x00\n        /* \"#utility.yul\":13619:13625   */\n      dup2\n        /* \"#utility.yul\":13613:13626   */\n      mload\n        /* \"#utility.yul\":13604:13626   */\n      swap1\n      pop\n        /* \"#utility.yul\":13635:13667   */\n      tag_293\n        /* \"#utility.yul\":13661:13666   */\n      dup2\n        /* \"#utility.yul\":13635:13667   */\n      tag_170\n      jump\t// in\n    tag_293:\n        /* \"#utility.yul\":13532:13673   */\n      swap3\n      swap2\n      pop\n      pop\n      jump\t// out\n        /* \"#utility.yul\":13679:13822   */\n    tag_172:\n        /* \"#utility.yul\":13736:13741   */\n      0x00\n        /* \"#utility.yul\":13767:13773   */\n      dup2\n        /* \"#utility.yul\":13761:13774   */\n      mload\n        /* \"#utility.yul\":13752:13774   */\n      swap1\n      pop\n        /* \"#utility.yul\":13783:13816   */\n      tag_295\n        /* \"#utility.yul\":13810:13815   */\n      dup2\n        /* \"#utility.yul\":13783:13816   */\n      tag_142\n      jump\t// in\n    tag_295:\n        /* \"#utility.yul\":13679:13822   */\n      swap3\n      swap2\n      pop\n      pop\n      jump\t// out\n        /* \"#utility.yul\":13828:14799   */\n    tag_119:\n        /* \"#utility.yul\":13931:13937   */\n      0x00\n        /* \"#utility.yul\":13939:13945   */\n      dup1\n        /* \"#utility.yul\":13947:13953   */\n      0x00\n        /* \"#utility.yul\":13955:13961   */\n      dup1\n        /* \"#utility.yul\":13963:13969   */\n      0x00\n        /* \"#utility.yul\":14012:14015   */\n      0xa0\n        /* \"#utility.yul\":14000:14009   */\n      dup7\n        /* \"#utility.yul\":13991:13998   */\n      dup9\n        /* \"#utility.yul\":13987:14010   */\n      sub\n        /* \"#utility.yul\":13983:14016   */\n      slt\n        /* \"#utility.yul\":13980:14100   */\n      iszero\n      tag_297\n      jumpi\n        /* \"#utility.yul\":14019:14098   */\n      tag_298\n      tag_131\n      jump\t// in\n    tag_298:\n        /* \"#utility.yul\":13980:14100   */\n    tag_297:\n        /* \"#utility.yul\":14139:14140   */\n      0x00\n        /* \"#utility.yul\":14164:14227   */\n      tag_299\n        /* \"#utility.yul\":14219:14226   */\n      dup9\n        /* \"#utility.yul\":14210:14216   */\n      dup3\n        /* \"#utility.yul\":14199:14208   */\n      dup10\n        /* \"#utility.yul\":14195:14217   */\n      add\n        /* \"#utility.yul\":14164:14227   */\n      tag_169\n      jump\t// in\n    tag_299:\n        /* \"#utility.yul\":14154:14227   */\n      swap6\n      pop\n        /* \"#utility.yul\":14110:14237   */\n      pop\n        /* \"#utility.yul\":14276:14278   */\n      0x20\n        /* \"#utility.yul\":14302:14365   */\n      tag_300\n        /* \"#utility.yul\":14357:14364   */\n      dup9\n        /* \"#utility.yul\":14348:14354   */\n      dup3\n        /* \"#utility.yul\":14337:14346   */\n      dup10\n        /* \"#utility.yul\":14333:14355   */\n      add\n        /* \"#utility.yul\":14302:14365   */\n      tag_171\n      jump\t// in\n    tag_300:\n        /* \"#utility.yul\":14292:14365   */\n      swap5\n      pop\n        /* \"#utility.yul\":14247:14375   */\n      pop\n        /* \"#utility.yul\":14414:14416   */\n      0x40\n        /* \"#utility.yul\":14440:14504   */\n      tag_301\n        /* \"#utility.yul\":14496:14503   */\n      dup9\n        /* \"#utility.yul\":14487:14493   */\n      dup3\n        /* \"#utility.yul\":14476:14485   */\n      dup10\n        /* \"#utility.yul\":14472:14494   */\n      add\n        /* \"#utility.yul\":14440:14504   */\n      tag_172\n      jump\t// in\n    tag_301:\n        /* \"#utility.yul\":14430:14504   */\n      swap4\n      pop\n        /* \"#utility.yul\":14385:14514   */\n      pop\n        /* \"#utility.yul\":14553:14555   */\n      0x60\n        /* \"#utility.yul\":14579:14643   */\n      tag_302\n        /* \"#utility.yul\":14635:14642   */\n      dup9\n        /* \"#utility.yul\":14626:14632   */\n      dup3\n        /* \"#utility.yul\":14615:14624   */\n      dup10\n        /* \"#utility.yul\":14611:14633   */\n      add\n        /* \"#utility.yul\":14579:14643   */\n      tag_172\n      jump\t// in\n    tag_302:\n        /* \"#utility.yul\":14569:14643   */\n      swap3\n      pop\n        /* \"#utility.yul\":14524:14653   */\n      pop\n        /* \"#utility.yul\":14692:14695   */\n      0x80\n        /* \"#utility.yul\":14719:14782   */\n      tag_303\n        /* \"#utility.yul\":14774:14781   */\n      dup9\n        /* \"#utility.yul\":14765:14771   */\n      dup3\n        /* \"#utility.yul\":14754:14763   */\n      dup10\n        /* \"#utility.yul\":14750:14772   */\n      add\n        /* \"#utility.yul\":14719:14782   */\n      tag_169\n      jump\t// in\n    tag_303:\n        /* \"#utility.yul\":14709:14782   */\n      swap2\n      pop\n        /* \"#utility.yul\":14663:14792   */\n      pop\n        /* \"#utility.yul\":13828:14799   */\n      swap3\n      swap6\n      pop\n      swap3\n      swap6\n      swap1\n      swap4\n      pop\n      jump\t// out\n        /* \"#utility.yul\":14805:15040   */\n    tag_173:\n        /* \"#utility.yul\":14945:14979   */\n      0x796f7520646f206e6f742068617665207065726d697373696f6e20746f206361\n        /* \"#utility.yul\":14941:14942   */\n      0x00\n        /* \"#utility.yul\":14933:14939   */\n      dup3\n        /* \"#utility.yul\":14929:14943   */\n      add\n        /* \"#utility.yul\":14922:14980   */\n      mstore\n        /* \"#utility.yul\":15014:15032   */\n      0x6c6c20746869732066756e6374696f6e00000000000000000000000000000000\n        /* \"#utility.yul\":15009:15011   */\n      0x20\n        /* \"#utility.yul\":15001:15007   */\n      dup3\n        /* \"#utility.yul\":14997:15012   */\n      add\n        /* \"#utility.yul\":14990:15033   */\n      mstore\n        /* \"#utility.yul\":14805:15040   */\n      pop\n      jump\t// out\n        /* \"#utility.yul\":15046:15412   */\n    tag_174:\n        /* \"#utility.yul\":15188:15191   */\n      0x00\n        /* \"#utility.yul\":15209:15276   */\n      tag_306\n        /* \"#utility.yul\":15273:15275   */\n      0x30\n        /* \"#utility.yul\":15268:15271   */\n      dup4\n        /* \"#utility.yul\":15209:15276   */\n      tag_147\n      jump\t// in\n    tag_306:\n        /* \"#utility.yul\":15202:15276   */\n      swap2\n      pop\n        /* \"#utility.yul\":15285:15378   */\n      tag_307\n        /* \"#utility.yul\":15374:15377   */\n      dup3\n        /* \"#utility.yul\":15285:15378   */\n      tag_173\n      jump\t// in\n    tag_307:\n        /* \"#utility.yul\":15403:15405   */\n      0x40\n        /* \"#utility.yul\":15398:15401   */\n      dup3\n        /* \"#utility.yul\":15394:15406   */\n      add\n        /* \"#utility.yul\":15387:15406   */\n      swap1\n      pop\n        /* \"#utility.yul\":15046:15412   */\n      swap2\n      swap1\n      pop\n      jump\t// out\n        /* \"#utility.yul\":15418:15837   */\n    tag_123:\n        /* \"#utility.yul\":15584:15588   */\n      0x00\n        /* \"#utility.yul\":15622:15624   */\n      0x20\n        /* \"#utility.yul\":15611:15620   */\n      dup3\n        /* \"#utility.yul\":15607:15625   */\n      add\n        /* \"#utility.yul\":15599:15625   */\n      swap1\n      pop\n        /* \"#utility.yul\":15671:15680   */\n      dup2\n        /* \"#utility.yul\":15665:15669   */\n      dup2\n        /* \"#utility.yul\":15661:15681   */\n      sub\n        /* \"#utility.yul\":15657:15658   */\n      0x00\n        /* \"#utility.yul\":15646:15655   */\n      dup4\n        /* \"#utility.yul\":15642:15659   */\n      add\n        /* \"#utility.yul\":15635:15682   */\n      mstore\n        /* \"#utility.yul\":15699:15830   */\n      tag_309\n        /* \"#utility.yul\":15825:15829   */\n      dup2\n        /* \"#utility.yul\":15699:15830   */\n      tag_174\n      jump\t// in\n    tag_309:\n        /* \"#utility.yul\":15691:15830   */\n      swap1\n      pop\n        /* \"#utility.yul\":15418:15837   */\n      swap2\n      swap1\n      pop\n      jump\t// out\n        /* \"#utility.yul\":15843:16253   */\n    tag_127:\n        /* \"#utility.yul\":15883:15890   */\n      0x00\n        /* \"#utility.yul\":15906:15926   */\n      tag_311\n        /* \"#utility.yul\":15924:15925   */\n      dup3\n        /* \"#utility.yul\":15906:15926   */\n      tag_137\n      jump\t// in\n    tag_311:\n        /* \"#utility.yul\":15901:15926   */\n      swap2\n      pop\n        /* \"#utility.yul\":15940:15960   */\n      tag_312\n        /* \"#utility.yul\":15958:15959   */\n      dup4\n        /* \"#utility.yul\":15940:15960   */\n      tag_137\n      jump\t// in\n    tag_312:\n        /* \"#utility.yul\":15935:15960   */\n      swap3\n      pop\n        /* \"#utility.yul\":15995:15996   */\n      dup3\n        /* \"#utility.yul\":15992:15993   */\n      dup3\n        /* \"#utility.yul\":15988:15997   */\n      mul\n        /* \"#utility.yul\":16017:16047   */\n      tag_313\n        /* \"#utility.yul\":16035:16046   */\n      dup2\n        /* \"#utility.yul\":16017:16047   */\n      tag_137\n      jump\t// in\n    tag_313:\n        /* \"#utility.yul\":16006:16047   */\n      swap2\n      pop\n        /* \"#utility.yul\":16196:16197   */\n      dup3\n        /* \"#utility.yul\":16187:16194   */\n      dup3\n        /* \"#utility.yul\":16183:16198   */\n      div\n        /* \"#utility.yul\":16180:16181   */\n      dup5\n        /* \"#utility.yul\":16177:16199   */\n      eq\n        /* \"#utility.yul\":16157:16158   */\n      dup4\n        /* \"#utility.yul\":16150:16159   */\n      iszero\n        /* \"#utility.yul\":16130:16213   */\n      or\n        /* \"#utility.yul\":16107:16246   */\n      tag_314\n      jumpi\n        /* \"#utility.yul\":16226:16244   */\n      tag_315\n      tag_146\n      jump\t// in\n    tag_315:\n        /* \"#utility.yul\":16107:16246   */\n    tag_314:\n        /* \"#utility.yul\":15891:16253   */\n      pop\n        /* \"#utility.yul\":15843:16253   */\n      swap3\n      swap2\n      pop\n      pop\n      jump\t// out\n        /* \"#utility.yul\":16259:16439   */\n    tag_175:\n        /* \"#utility.yul\":16307:16384   */\n      0x4e487b7100000000000000000000000000000000000000000000000000000000\n        /* \"#utility.yul\":16304:16305   */\n      0x00\n        /* \"#utility.yul\":16297:16385   */\n      mstore\n        /* \"#utility.yul\":16404:16408   */\n      0x12\n        /* \"#utility.yul\":16401:16402   */\n      0x04\n        /* \"#utility.yul\":16394:16409   */\n      mstore\n        /* \"#utility.yul\":16428:16432   */\n      0x24\n        /* \"#utility.yul\":16425:16426   */\n      0x00\n        /* \"#utility.yul\":16418:16433   */\n      revert\n        /* \"#utility.yul\":16445:16630   */\n    tag_129:\n        /* \"#utility.yul\":16485:16486   */\n      0x00\n        /* \"#utility.yul\":16502:16522   */\n      tag_318\n        /* \"#utility.yul\":16520:16521   */\n      dup3\n        /* \"#utility.yul\":16502:16522   */\n      tag_137\n      jump\t// in\n    tag_318:\n        /* \"#utility.yul\":16497:16522   */\n      swap2\n      pop\n        /* \"#utility.yul\":16536:16556   */\n      tag_319\n        /* \"#utility.yul\":16554:16555   */\n      dup4\n        /* \"#utility.yul\":16536:16556   */\n      tag_137\n      jump\t// in\n    tag_319:\n        /* \"#utility.yul\":16531:16556   */\n      swap3\n      pop\n        /* \"#utility.yul\":16575:16576   */\n      dup3\n        /* \"#utility.yul\":16565:16600   */\n      tag_320\n      jumpi\n        /* \"#utility.yul\":16580:16598   */\n      tag_321\n      tag_175\n      jump\t// in\n    tag_321:\n        /* \"#utility.yul\":16565:16600   */\n    tag_320:\n        /* \"#utility.yul\":16622:16623   */\n      dup3\n        /* \"#utility.yul\":16619:16620   */\n      dup3\n        /* \"#utility.yul\":16615:16624   */\n      div\n        /* \"#utility.yul\":16610:16624   */\n      swap1\n      pop\n        /* \"#utility.yul\":16445:16630   */\n      swap3\n      swap2\n      pop\n      pop\n      jump\t// out\n\n    auxdata: 0xa26469706673582212202c5ce76e299e0715b3264fe77cf295a5e2b0dca45e8d4e7970047f84138d5da064736f6c634300081a0033\n}\n",
				"bytecode": {
					"linkReferences": {},
					"object": "6080604052678ac7230489e800006001555f600660146101000a81548160ff021916908315150217905550348015610035575f80fd5b5060405161148638038061148683398181016040528101906100579190610136565b73694aa1769357215de4fac081bf1f309adc32530660025f6101000a81548173ffffffffffffffffffffffffffffffffffffffff021916908373ffffffffffffffffffffffffffffffffffffffff1602179055503360035f6101000a81548173ffffffffffffffffffffffffffffffffffffffff021916908373ffffffffffffffffffffffffffffffffffffffff160217905550426004819055508060058190555050610161565b5f80fd5b5f819050919050565b61011581610103565b811461011f575f80fd5b50565b5f815190506101308161010c565b92915050565b5f6020828403121561014b5761014a6100ff565b5b5f61015884828501610122565b91505092915050565b6113188061016e5f395ff3fe608060405260043610610090575f3560e01c80638edd6eb6116100585780638edd6eb614610160578063b60d428814610176578063bea4dfb514610180578063d39cf006146101aa578063da4658e0146101d257610090565b80630ff0a4df1461009457806313ffff01146100aa5780634407e1e8146100d25780638863dd1a1461010e5780638da5cb5b14610136575b5f80fd5b34801561009f575f80fd5b506100a86101fc565b005b3480156100b5575f80fd5b506100d060048036038101906100cb9190610b5b565b61044e565b005b3480156100dd575f80fd5b506100f860048036038101906100f39190610b5b565b610520565b6040516101059190610b9e565b60405180910390f35b348015610119575f80fd5b50610134600480360381019061012f9190610b5b565b610534565b005b348015610141575f80fd5b5061014a610606565b6040516101579190610bc6565b60405180910390f35b34801561016b575f80fd5b5061017461062b565b005b61017e610869565b005b34801561018b575f80fd5b5061019461094a565b6040516101a19190610bf7565b60405180910390f35b3480156101b5575f80fd5b506101d060048036038101906101cb9190610c3a565b6109e7565b005b3480156101dd575f80fd5b506101e6610abb565b6040516101f39190610c92565b60405180910390f35b60055460045461020c9190610cd8565b42101561024e576040517f08c379a000000000000000000000000000000000000000000000000000000000815260040161024590610d65565b60405180910390fd5b68056bc75e2d6310000061026147610ace565b106102a1576040517f08c379a000000000000000000000000000000000000000000000000000000000815260040161029890610dcd565b60405180910390fd5b5f805f3373ffffffffffffffffffffffffffffffffffffffff1673ffffffffffffffffffffffffffffffffffffffff1681526020019081526020015f205490505f8103610323576040517f08c379a000000000000000000000000000000000000000000000000000000000815260040161031a90610e35565b60405180910390fd5b5f3373ffffffffffffffffffffffffffffffffffffffff165f803373ffffffffffffffffffffffffffffffffffffffff1673ffffffffffffffffffffffffffffffffffffffff1681526020019081526020015f205460405161038490610e80565b5f6040518083038185875af1925050503d805f81146103be576040519150601f19603f3d011682016040523d82523d5f602084013e6103c3565b606091505b50508091505080610409576040517f08c379a000000000000000000000000000000000000000000000000000000000815260040161040090610ede565b60405180910390fd5b5f805f3373ffffffffffffffffffffffffffffffffffffffff1673ffffffffffffffffffffffffffffffffffffffff1681526020019081526020015f20819055505050565b60035f9054906101000a900473ffffffffffffffffffffffffffffffffffffffff1673ffffffffffffffffffffffffffffffffffffffff163373ffffffffffffffffffffffffffffffffffffffff16146104dd576040517f08c379a00000000000000000000000000000000000000000000000000000000081526004016104d490610f6c565b60405180910390fd5b8060065f6101000a81548173ffffffffffffffffffffffffffffffffffffffff021916908373ffffffffffffffffffffffffffffffffffffffff16021790555050565b5f602052805f5260405f205f915090505481565b60035f9054906101000a900473ffffffffffffffffffffffffffffffffffffffff1673ffffffffffffffffffffffffffffffffffffffff163373ffffffffffffffffffffffffffffffffffffffff16146105c3576040517f08c379a00000000000000000000000000000000000000000000000000000000081526004016105ba90610f6c565b60405180910390fd5b8060035f6101000a81548173ffffffffffffffffffffffffffffffffffffffff021916908373ffffffffffffffffffffffffffffffffffffffff16021790555050565b60035f9054906101000a900473ffffffffffffffffffffffffffffffffffffffff1681565b60055460045461063b9190610cd8565b42101561067d576040517f08c379a000000000000000000000000000000000000000000000000000000000815260040161067490610d65565b60405180910390fd5b60035f9054906101000a900473ffffffffffffffffffffffffffffffffffffffff1673ffffffffffffffffffffffffffffffffffffffff163373ffffffffffffffffffffffffffffffffffffffff161461070c576040517f08c379a000000000000000000000000000000000000000000000000000000000815260040161070390610f6c565b60405180910390fd5b68056bc75e2d6310000061071f47610ace565b1015610760576040517f08c379a000000000000000000000000000000000000000000000000000000000815260040161075790610fd4565b60405180910390fd5b5f3373ffffffffffffffffffffffffffffffffffffffff164760405161078590610e80565b5f6040518083038185875af1925050503d805f81146107bf576040519150601f19603f3d011682016040523d82523d5f602084013e6107c4565b606091505b5050809150508061080a576040517f08c379a000000000000000000000000000000000000000000000000000000000815260040161080190610ede565b60405180910390fd5b5f805f3373ffffffffffffffffffffffffffffffffffffffff1673ffffffffffffffffffffffffffffffffffffffff1681526020019081526020015f20819055506001600660146101000a81548160ff02191690831515021790555050565b6005546004546108799190610cd8565b42106108ba576040517f08c379a00000000000000000000000000000000000000000000000000000000081526004016108b19061103c565b60405180910390fd5b6001546108c634610ace565b1015610907576040517f08c379a00000000000000000000000000000000000000000000000000000000081526004016108fe906110a4565b60405180910390fd5b345f803373ffffffffffffffffffffffffffffffffffffffff1673ffffffffffffffffffffffffffffffffffffffff1681526020019081526020015f2081905550565b5f8060025f9054906101000a900473ffffffffffffffffffffffffffffffffffffffff1673ffffffffffffffffffffffffffffffffffffffff1663feaf968c6040518163ffffffff1660e01b815260040160a060405180830381865afa1580156109b6573d5f803e3d5ffd5b505050506040513d601f19601f820116820180604052508101906109da919061113f565b5050509150508091505090565b60065f9054906101000a900473ffffffffffffffffffffffffffffffffffffffff1673ffffffffffffffffffffffffffffffffffffffff163373ffffffffffffffffffffffffffffffffffffffff1614610a76576040517f08c379a0000000000000000000000000000000000000000000000000000000008152600401610a6d90611226565b60405180910390fd5b805f808473ffffffffffffffffffffffffffffffffffffffff1673ffffffffffffffffffffffffffffffffffffffff1681526020019081526020015f20819055505050565b600660149054906101000a900460ff1681565b5f80610ad861094a565b90506305f5e1008184610aeb9190611244565b610af591906112b2565b915050919050565b5f80fd5b5f73ffffffffffffffffffffffffffffffffffffffff82169050919050565b5f610b2a82610b01565b9050919050565b610b3a81610b20565b8114610b44575f80fd5b50565b5f81359050610b5581610b31565b92915050565b5f60208284031215610b7057610b6f610afd565b5b5f610b7d84828501610b47565b91505092915050565b5f819050919050565b610b9881610b86565b82525050565b5f602082019050610bb15f830184610b8f565b92915050565b610bc081610b20565b82525050565b5f602082019050610bd95f830184610bb7565b92915050565b5f819050919050565b610bf181610bdf565b82525050565b5f602082019050610c0a5f830184610be8565b92915050565b610c1981610b86565b8114610c23575f80fd5b50565b5f81359050610c3481610c10565b92915050565b5f8060408385031215610c5057610c4f610afd565b5b5f610c5d85828601610b47565b9250506020610c6e85828601610c26565b9150509250929050565b5f8115159050919050565b610c8c81610c78565b82525050565b5f602082019050610ca55f830184610c83565b92915050565b7f4e487b71000000000000000000000000000000000000000000000000000000005f52601160045260245ffd5b5f610ce282610b86565b9150610ced83610b86565b9250828201905080821115610d0557610d04610cab565b5b92915050565b5f82825260208201905092915050565b7f77696e646f77206973206e6f7420636c6f7365640000000000000000000000005f82015250565b5f610d4f601483610d0b565b9150610d5a82610d1b565b602082019050919050565b5f6020820190508181035f830152610d7c81610d43565b9050919050565b7f74617267657420697320726561636865640000000000000000000000000000005f82015250565b5f610db7601183610d0b565b9150610dc282610d83565b602082019050919050565b5f6020820190508181035f830152610de481610dab565b9050919050565b7f7468657265206973206e6f742066756e6420666f7220796f75000000000000005f82015250565b5f610e1f601983610d0b565b9150610e2a82610deb565b602082019050919050565b5f6020820190508181035f830152610e4c81610e13565b9050919050565b5f81905092915050565b50565b5f610e6b5f83610e53565b9150610e7682610e5d565b5f82019050919050565b5f610e8a82610e60565b9150819050919050565b7f7472616e73666572207478206661696c656400000000000000000000000000005f82015250565b5f610ec8601283610d0b565b9150610ed382610e94565b602082019050919050565b5f6020820190508181035f830152610ef581610ebc565b9050919050565b7f746869732066756e6374696f6e2063616e206f6e6c792062652063616c6c65645f8201527f206279206f776e65720000000000000000000000000000000000000000000000602082015250565b5f610f56602983610d0b565b9150610f6182610efc565b604082019050919050565b5f6020820190508181035f830152610f8381610f4a565b9050919050565b7f746172676574206973206e6f74207265616368656400000000000000000000005f82015250565b5f610fbe601583610d0b565b9150610fc982610f8a565b602082019050919050565b5f6020820190508181035f830152610feb81610fb2565b9050919050565b7f77696e646f7720697320636c6f736564000000000000000000000000000000005f82015250565b5f611026601083610d0b565b915061103182610ff2565b602082019050919050565b5f6020820190508181035f8301526110538161101a565b9050919050565b7f73656e64206d6f726520455448000000000000000000000000000000000000005f82015250565b5f61108e600d83610d0b565b91506110998261105a565b602082019050919050565b5f6020820190508181035f8301526110bb81611082565b9050919050565b5f69ffffffffffffffffffff82169050919050565b6110e0816110c2565b81146110ea575f80fd5b50565b5f815190506110fb816110d7565b92915050565b61110a81610bdf565b8114611114575f80fd5b50565b5f8151905061112581611101565b92915050565b5f8151905061113981610c10565b92915050565b5f805f805f60a0868803121561115857611157610afd565b5b5f611165888289016110ed565b955050602061117688828901611117565b94505060406111878882890161112b565b93505060606111988882890161112b565b92505060806111a9888289016110ed565b9150509295509295909350565b7f796f7520646f206e6f742068617665207065726d697373696f6e20746f2063615f8201527f6c6c20746869732066756e6374696f6e00000000000000000000000000000000602082015250565b5f611210603083610d0b565b915061121b826111b6565b604082019050919050565b5f6020820190508181035f83015261123d81611204565b9050919050565b5f61124e82610b86565b915061125983610b86565b925082820261126781610b86565b9150828204841483151761127e5761127d610cab565b5b5092915050565b7f4e487b71000000000000000000000000000000000000000000000000000000005f52601260045260245ffd5b5f6112bc82610b86565b91506112c783610b86565b9250826112d7576112d6611285565b5b82820490509291505056fea26469706673582212202c5ce76e299e0715b3264fe77cf295a5e2b0dca45e8d4e7970047f84138d5da064736f6c634300081a0033",
					"opcodes": "PUSH1 0x80 PUSH1 0x40 MSTORE PUSH8 0x8AC7230489E80000 PUSH1 0x1 SSTORE PUSH0 PUSH1 0x6 PUSH1 0x14 PUSH2 0x100 EXP DUP2 SLOAD DUP2 PUSH1 0xFF MUL NOT AND SWAP1 DUP4 ISZERO ISZERO MUL OR SWAP1 SSTORE POP CALLVALUE DUP1 ISZERO PUSH2 0x35 JUMPI PUSH0 DUP1 REVERT JUMPDEST POP PUSH1 0x40 MLOAD PUSH2 0x1486 CODESIZE SUB DUP1 PUSH2 0x1486 DUP4 CODECOPY DUP2 DUP2 ADD PUSH1 0x40 MSTORE DUP2 ADD SWAP1 PUSH2 0x57 SWAP2 SWAP1 PUSH2 0x136 JUMP JUMPDEST PUSH20 0x694AA1769357215DE4FAC081BF1F309ADC325306 PUSH1 0x2 PUSH0 PUSH2 0x100 EXP DUP2 SLOAD DUP2 PUSH20 0xFFFFFFFFFFFFFFFFFFFFFFFFFFFFFFFFFFFFFFFF MUL NOT AND SWAP1 DUP4 PUSH20 0xFFFFFFFFFFFFFFFFFFFFFFFFFFFFFFFFFFFFFFFF AND MUL OR SWAP1 SSTORE POP CALLER PUSH1 0x3 PUSH0 PUSH2 0x100 EXP DUP2 SLOAD DUP2 PUSH20 0xFFFFFFFFFFFFFFFFFFFFFFFFFFFFFFFFFFFFFFFF MUL NOT AND SWAP1 DUP4 PUSH20 0xFFFFFFFFFFFFFFFFFFFFFFFFFFFFFFFFFFFFFFFF AND MUL OR SWAP1 SSTORE POP TIMESTAMP PUSH1 0x4 DUP2 SWAP1 SSTORE POP DUP1 PUSH1 0x5 DUP2 SWAP1 SSTORE POP POP PUSH2 0x161 JUMP JUMPDEST PUSH0 DUP1 REVERT JUMPDEST PUSH0 DUP2 SWAP1 POP SWAP2 SWAP1 POP JUMP JUMPDEST PUSH2 0x115 DUP2 PUSH2 0x103 JUMP JUMPDEST DUP2 EQ PUSH2 0x11F JUMPI PUSH0 DUP1 REVERT JUMPDEST POP JUMP JUMPDEST PUSH0 DUP2 MLOAD SWAP1 POP PUSH2 0x130 DUP2 PUSH2 0x10C JUMP JUMPDEST SWAP3 SWAP2 POP POP JUMP JUMPDEST PUSH0 PUSH1 0x20 DUP3 DUP5 SUB SLT ISZERO PUSH2 0x14B JUMPI PUSH2 0x14A PUSH2 0xFF JUMP JUMPDEST JUMPDEST PUSH0 PUSH2 0x158 DUP5 DUP3 DUP6 ADD PUSH2 0x122 JUMP JUMPDEST SWAP2 POP POP SWAP3 SWAP2 POP POP JUMP JUMPDEST PUSH2 0x1318 DUP1 PUSH2 0x16E PUSH0 CODECOPY PUSH0 RETURN INVALID PUSH1 0x80 PUSH1 0x40 MSTORE PUSH1 0x4 CALLDATASIZE LT PUSH2 0x90 JUMPI PUSH0 CALLDATALOAD PUSH1 0xE0 SHR DUP1 PUSH4 0x8EDD6EB6 GT PUSH2 0x58 JUMPI DUP1 PUSH4 0x8EDD6EB6 EQ PUSH2 0x160 JUMPI DUP1 PUSH4 0xB60D4288 EQ PUSH2 0x176 JUMPI DUP1 PUSH4 0xBEA4DFB5 EQ PUSH2 0x180 JUMPI DUP1 PUSH4 0xD39CF006 EQ PUSH2 0x1AA JUMPI DUP1 PUSH4 0xDA4658E0 EQ PUSH2 0x1D2 JUMPI PUSH2 0x90 JUMP JUMPDEST DUP1 PUSH4 0xFF0A4DF EQ PUSH2 0x94 JUMPI DUP1 PUSH4 0x13FFFF01 EQ PUSH2 0xAA JUMPI DUP1 PUSH4 0x4407E1E8 EQ PUSH2 0xD2 JUMPI DUP1 PUSH4 0x8863DD1A EQ PUSH2 0x10E JUMPI DUP1 PUSH4 0x8DA5CB5B EQ PUSH2 0x136 JUMPI JUMPDEST PUSH0 DUP1 REVERT JUMPDEST CALLVALUE DUP1 ISZERO PUSH2 0x9F JUMPI PUSH0 DUP1 REVERT JUMPDEST POP PUSH2 0xA8 PUSH2 0x1FC JUMP JUMPDEST STOP JUMPDEST CALLVALUE DUP1 ISZERO PUSH2 0xB5 JUMPI PUSH0 DUP1 REVERT JUMPDEST POP PUSH2 0xD0 PUSH1 0x4 DUP1 CALLDATASIZE SUB DUP2 ADD SWAP1 PUSH2 0xCB SWAP2 SWAP1 PUSH2 0xB5B JUMP JUMPDEST PUSH2 0x44E JUMP JUMPDEST STOP JUMPDEST CALLVALUE DUP1 ISZERO PUSH2 0xDD JUMPI PUSH0 DUP1 REVERT JUMPDEST POP PUSH2 0xF8 PUSH1 0x4 DUP1 CALLDATASIZE SUB DUP2 ADD SWAP1 PUSH2 0xF3 SWAP2 SWAP1 PUSH2 0xB5B JUMP JUMPDEST PUSH2 0x520 JUMP JUMPDEST PUSH1 0x40 MLOAD PUSH2 0x105 SWAP2 SWAP1 PUSH2 0xB9E JUMP JUMPDEST PUSH1 0x40 MLOAD DUP1 SWAP2 SUB SWAP1 RETURN JUMPDEST CALLVALUE DUP1 ISZERO PUSH2 0x119 JUMPI PUSH0 DUP1 REVERT JUMPDEST POP PUSH2 0x134 PUSH1 0x4 DUP1 CALLDATASIZE SUB DUP2 ADD SWAP1 PUSH2 0x12F SWAP2 SWAP1 PUSH2 0xB5B JUMP JUMPDEST PUSH2 0x534 JUMP JUMPDEST STOP JUMPDEST CALLVALUE DUP1 ISZERO PUSH2 0x141 JUMPI PUSH0 DUP1 REVERT JUMPDEST POP PUSH2 0x14A PUSH2 0x606 JUMP JUMPDEST PUSH1 0x40 MLOAD PUSH2 0x157 SWAP2 SWAP1 PUSH2 0xBC6 JUMP JUMPDEST PUSH1 0x40 MLOAD DUP1 SWAP2 SUB SWAP1 RETURN JUMPDEST CALLVALUE DUP1 ISZERO PUSH2 0x16B JUMPI PUSH0 DUP1 REVERT JUMPDEST POP PUSH2 0x174 PUSH2 0x62B JUMP JUMPDEST STOP JUMPDEST PUSH2 0x17E PUSH2 0x869 JUMP JUMPDEST STOP JUMPDEST CALLVALUE DUP1 ISZERO PUSH2 0x18B JUMPI PUSH0 DUP1 REVERT JUMPDEST POP PUSH2 0x194 PUSH2 0x94A JUMP JUMPDEST PUSH1 0x40 MLOAD PUSH2 0x1A1 SWAP2 SWAP1 PUSH2 0xBF7 JUMP JUMPDEST PUSH1 0x40 MLOAD DUP1 SWAP2 SUB SWAP1 RETURN JUMPDEST CALLVALUE DUP1 ISZERO PUSH2 0x1B5 JUMPI PUSH0 DUP1 REVERT JUMPDEST POP PUSH2 0x1D0 PUSH1 0x4 DUP1 CALLDATASIZE SUB DUP2 ADD SWAP1 PUSH2 0x1CB SWAP2 SWAP1 PUSH2 0xC3A JUMP JUMPDEST PUSH2 0x9E7 JUMP JUMPDEST STOP JUMPDEST CALLVALUE DUP1 ISZERO PUSH2 0x1DD JUMPI PUSH0 DUP1 REVERT JUMPDEST POP PUSH2 0x1E6 PUSH2 0xABB JUMP JUMPDEST PUSH1 0x40 MLOAD PUSH2 0x1F3 SWAP2 SWAP1 PUSH2 0xC92 JUMP JUMPDEST PUSH1 0x40 MLOAD DUP1 SWAP2 SUB SWAP1 RETURN JUMPDEST PUSH1 0x5 SLOAD PUSH1 0x4 SLOAD PUSH2 0x20C SWAP2 SWAP1 PUSH2 0xCD8 JUMP JUMPDEST TIMESTAMP LT ISZERO PUSH2 0x24E JUMPI PUSH1 0x40 MLOAD PUSH32 0x8C379A000000000000000000000000000000000000000000000000000000000 DUP2 MSTORE PUSH1 0x4 ADD PUSH2 0x245 SWAP1 PUSH2 0xD65 JUMP JUMPDEST PUSH1 0x40 MLOAD DUP1 SWAP2 SUB SWAP1 REVERT JUMPDEST PUSH9 0x56BC75E2D63100000 PUSH2 0x261 SELFBALANCE PUSH2 0xACE JUMP JUMPDEST LT PUSH2 0x2A1 JUMPI PUSH1 0x40 MLOAD PUSH32 0x8C379A000000000000000000000000000000000000000000000000000000000 DUP2 MSTORE PUSH1 0x4 ADD PUSH2 0x298 SWAP1 PUSH2 0xDCD JUMP JUMPDEST PUSH1 0x40 MLOAD DUP1 SWAP2 SUB SWAP1 REVERT JUMPDEST PUSH0 DUP1 PUSH0 CALLER PUSH20 0xFFFFFFFFFFFFFFFFFFFFFFFFFFFFFFFFFFFFFFFF AND PUSH20 0xFFFFFFFFFFFFFFFFFFFFFFFFFFFFFFFFFFFFFFFF AND DUP2 MSTORE PUSH1 0x20 ADD SWAP1 DUP2 MSTORE PUSH1 0x20 ADD PUSH0 KECCAK256 SLOAD SWAP1 POP PUSH0 DUP2 SUB PUSH2 0x323 JUMPI PUSH1 0x40 MLOAD PUSH32 0x8C379A000000000000000000000000000000000000000000000000000000000 DUP2 MSTORE PUSH1 0x4 ADD PUSH2 0x31A SWAP1 PUSH2 0xE35 JUMP JUMPDEST PUSH1 0x40 MLOAD DUP1 SWAP2 SUB SWAP1 REVERT JUMPDEST PUSH0 CALLER PUSH20 0xFFFFFFFFFFFFFFFFFFFFFFFFFFFFFFFFFFFFFFFF AND PUSH0 DUP1 CALLER PUSH20 0xFFFFFFFFFFFFFFFFFFFFFFFFFFFFFFFFFFFFFFFF AND PUSH20 0xFFFFFFFFFFFFFFFFFFFFFFFFFFFFFFFFFFFFFFFF AND DUP2 MSTORE PUSH1 0x20 ADD SWAP1 DUP2 MSTORE PUSH1 0x20 ADD PUSH0 KECCAK256 SLOAD PUSH1 0x40 MLOAD PUSH2 0x384 SWAP1 PUSH2 0xE80 JUMP JUMPDEST PUSH0 PUSH1 0x40 MLOAD DUP1 DUP4 SUB DUP2 DUP6 DUP8 GAS CALL SWAP3 POP POP POP RETURNDATASIZE DUP1 PUSH0 DUP2 EQ PUSH2 0x3BE JUMPI PUSH1 0x40 MLOAD SWAP2 POP PUSH1 0x1F NOT PUSH1 0x3F RETURNDATASIZE ADD AND DUP3 ADD PUSH1 0x40 MSTORE RETURNDATASIZE DUP3 MSTORE RETURNDATASIZE PUSH0 PUSH1 0x20 DUP5 ADD RETURNDATACOPY PUSH2 0x3C3 JUMP JUMPDEST PUSH1 0x60 SWAP2 POP JUMPDEST POP POP DUP1 SWAP2 POP POP DUP1 PUSH2 0x409 JUMPI PUSH1 0x40 MLOAD PUSH32 0x8C379A000000000000000000000000000000000000000000000000000000000 DUP2 MSTORE PUSH1 0x4 ADD PUSH2 0x400 SWAP1 PUSH2 0xEDE JUMP JUMPDEST PUSH1 0x40 MLOAD DUP1 SWAP2 SUB SWAP1 REVERT JUMPDEST PUSH0 DUP1 PUSH0 CALLER PUSH20 0xFFFFFFFFFFFFFFFFFFFFFFFFFFFFFFFFFFFFFFFF AND PUSH20 0xFFFFFFFFFFFFFFFFFFFFFFFFFFFFFFFFFFFFFFFF AND DUP2 MSTORE PUSH1 0x20 ADD SWAP1 DUP2 MSTORE PUSH1 0x20 ADD PUSH0 KECCAK256 DUP2 SWAP1 SSTORE POP POP POP JUMP JUMPDEST PUSH1 0x3 PUSH0 SWAP1 SLOAD SWAP1 PUSH2 0x100 EXP SWAP1 DIV PUSH20 0xFFFFFFFFFFFFFFFFFFFFFFFFFFFFFFFFFFFFFFFF AND PUSH20 0xFFFFFFFFFFFFFFFFFFFFFFFFFFFFFFFFFFFFFFFF AND CALLER PUSH20 0xFFFFFFFFFFFFFFFFFFFFFFFFFFFFFFFFFFFFFFFF AND EQ PUSH2 0x4DD JUMPI PUSH1 0x40 MLOAD PUSH32 0x8C379A000000000000000000000000000000000000000000000000000000000 DUP2 MSTORE PUSH1 0x4 ADD PUSH2 0x4D4 SWAP1 PUSH2 0xF6C JUMP JUMPDEST PUSH1 0x40 MLOAD DUP1 SWAP2 SUB SWAP1 REVERT JUMPDEST DUP1 PUSH1 0x6 PUSH0 PUSH2 0x100 EXP DUP2 SLOAD DUP2 PUSH20 0xFFFFFFFFFFFFFFFFFFFFFFFFFFFFFFFFFFFFFFFF MUL NOT AND SWAP1 DUP4 PUSH20 0xFFFFFFFFFFFFFFFFFFFFFFFFFFFFFFFFFFFFFFFF AND MUL OR SWAP1 SSTORE POP POP JUMP JUMPDEST PUSH0 PUSH1 0x20 MSTORE DUP1 PUSH0 MSTORE PUSH1 0x40 PUSH0 KECCAK256 PUSH0 SWAP2 POP SWAP1 POP SLOAD DUP2 JUMP JUMPDEST PUSH1 0x3 PUSH0 SWAP1 SLOAD SWAP1 PUSH2 0x100 EXP SWAP1 DIV PUSH20 0xFFFFFFFFFFFFFFFFFFFFFFFFFFFFFFFFFFFFFFFF AND PUSH20 0xFFFFFFFFFFFFFFFFFFFFFFFFFFFFFFFFFFFFFFFF AND CALLER PUSH20 0xFFFFFFFFFFFFFFFFFFFFFFFFFFFFFFFFFFFFFFFF AND EQ PUSH2 0x5C3 JUMPI PUSH1 0x40 MLOAD PUSH32 0x8C379A000000000000000000000000000000000000000000000000000000000 DUP2 MSTORE PUSH1 0x4 ADD PUSH2 0x5BA SWAP1 PUSH2 0xF6C JUMP JUMPDEST PUSH1 0x40 MLOAD DUP1 SWAP2 SUB SWAP1 REVERT JUMPDEST DUP1 PUSH1 0x3 PUSH0 PUSH2 0x100 EXP DUP2 SLOAD DUP2 PUSH20 0xFFFFFFFFFFFFFFFFFFFFFFFFFFFFFFFFFFFFFFFF MUL NOT AND SWAP1 DUP4 PUSH20 0xFFFFFFFFFFFFFFFFFFFFFFFFFFFFFFFFFFFFFFFF AND MUL OR SWAP1 SSTORE POP POP JUMP JUMPDEST PUSH1 0x3 PUSH0 SWAP1 SLOAD SWAP1 PUSH2 0x100 EXP SWAP1 DIV PUSH20 0xFFFFFFFFFFFFFFFFFFFFFFFFFFFFFFFFFFFFFFFF AND DUP2 JUMP JUMPDEST PUSH1 0x5 SLOAD PUSH1 0x4 SLOAD PUSH2 0x63B SWAP2 SWAP1 PUSH2 0xCD8 JUMP JUMPDEST TIMESTAMP LT ISZERO PUSH2 0x67D JUMPI PUSH1 0x40 MLOAD PUSH32 0x8C379A000000000000000000000000000000000000000000000000000000000 DUP2 MSTORE PUSH1 0x4 ADD PUSH2 0x674 SWAP1 PUSH2 0xD65 JUMP JUMPDEST PUSH1 0x40 MLOAD DUP1 SWAP2 SUB SWAP1 REVERT JUMPDEST PUSH1 0x3 PUSH0 SWAP1 SLOAD SWAP1 PUSH2 0x100 EXP SWAP1 DIV PUSH20 0xFFFFFFFFFFFFFFFFFFFFFFFFFFFFFFFFFFFFFFFF AND PUSH20 0xFFFFFFFFFFFFFFFFFFFFFFFFFFFFFFFFFFFFFFFF AND CALLER PUSH20 0xFFFFFFFFFFFFFFFFFFFFFFFFFFFFFFFFFFFFFFFF AND EQ PUSH2 0x70C JUMPI PUSH1 0x40 MLOAD PUSH32 0x8C379A000000000000000000000000000000000000000000000000000000000 DUP2 MSTORE PUSH1 0x4 ADD PUSH2 0x703 SWAP1 PUSH2 0xF6C JUMP JUMPDEST PUSH1 0x40 MLOAD DUP1 SWAP2 SUB SWAP1 REVERT JUMPDEST PUSH9 0x56BC75E2D63100000 PUSH2 0x71F SELFBALANCE PUSH2 0xACE JUMP JUMPDEST LT ISZERO PUSH2 0x760 JUMPI PUSH1 0x40 MLOAD PUSH32 0x8C379A000000000000000000000000000000000000000000000000000000000 DUP2 MSTORE PUSH1 0x4 ADD PUSH2 0x757 SWAP1 PUSH2 0xFD4 JUMP JUMPDEST PUSH1 0x40 MLOAD DUP1 SWAP2 SUB SWAP1 REVERT JUMPDEST PUSH0 CALLER PUSH20 0xFFFFFFFFFFFFFFFFFFFFFFFFFFFFFFFFFFFFFFFF AND SELFBALANCE PUSH1 0x40 MLOAD PUSH2 0x785 SWAP1 PUSH2 0xE80 JUMP JUMPDEST PUSH0 PUSH1 0x40 MLOAD DUP1 DUP4 SUB DUP2 DUP6 DUP8 GAS CALL SWAP3 POP POP POP RETURNDATASIZE DUP1 PUSH0 DUP2 EQ PUSH2 0x7BF JUMPI PUSH1 0x40 MLOAD SWAP2 POP PUSH1 0x1F NOT PUSH1 0x3F RETURNDATASIZE ADD AND DUP3 ADD PUSH1 0x40 MSTORE RETURNDATASIZE DUP3 MSTORE RETURNDATASIZE PUSH0 PUSH1 0x20 DUP5 ADD RETURNDATACOPY PUSH2 0x7C4 JUMP JUMPDEST PUSH1 0x60 SWAP2 POP JUMPDEST POP POP DUP1 SWAP2 POP POP DUP1 PUSH2 0x80A JUMPI PUSH1 0x40 MLOAD PUSH32 0x8C379A000000000000000000000000000000000000000000000000000000000 DUP2 MSTORE PUSH1 0x4 ADD PUSH2 0x801 SWAP1 PUSH2 0xEDE JUMP JUMPDEST PUSH1 0x40 MLOAD DUP1 SWAP2 SUB SWAP1 REVERT JUMPDEST PUSH0 DUP1 PUSH0 CALLER PUSH20 0xFFFFFFFFFFFFFFFFFFFFFFFFFFFFFFFFFFFFFFFF AND PUSH20 0xFFFFFFFFFFFFFFFFFFFFFFFFFFFFFFFFFFFFFFFF AND DUP2 MSTORE PUSH1 0x20 ADD SWAP1 DUP2 MSTORE PUSH1 0x20 ADD PUSH0 KECCAK256 DUP2 SWAP1 SSTORE POP PUSH1 0x1 PUSH1 0x6 PUSH1 0x14 PUSH2 0x100 EXP DUP2 SLOAD DUP2 PUSH1 0xFF MUL NOT AND SWAP1 DUP4 ISZERO ISZERO MUL OR SWAP1 SSTORE POP POP JUMP JUMPDEST PUSH1 0x5 SLOAD PUSH1 0x4 SLOAD PUSH2 0x879 SWAP2 SWAP1 PUSH2 0xCD8 JUMP JUMPDEST TIMESTAMP LT PUSH2 0x8BA JUMPI PUSH1 0x40 MLOAD PUSH32 0x8C379A000000000000000000000000000000000000000000000000000000000 DUP2 MSTORE PUSH1 0x4 ADD PUSH2 0x8B1 SWAP1 PUSH2 0x103C JUMP JUMPDEST PUSH1 0x40 MLOAD DUP1 SWAP2 SUB SWAP1 REVERT JUMPDEST PUSH1 0x1 SLOAD PUSH2 0x8C6 CALLVALUE PUSH2 0xACE JUMP JUMPDEST LT ISZERO PUSH2 0x907 JUMPI PUSH1 0x40 MLOAD PUSH32 0x8C379A000000000000000000000000000000000000000000000000000000000 DUP2 MSTORE PUSH1 0x4 ADD PUSH2 0x8FE SWAP1 PUSH2 0x10A4 JUMP JUMPDEST PUSH1 0x40 MLOAD DUP1 SWAP2 SUB SWAP1 REVERT JUMPDEST CALLVALUE PUSH0 DUP1 CALLER PUSH20 0xFFFFFFFFFFFFFFFFFFFFFFFFFFFFFFFFFFFFFFFF AND PUSH20 0xFFFFFFFFFFFFFFFFFFFFFFFFFFFFFFFFFFFFFFFF AND DUP2 MSTORE PUSH1 0x20 ADD SWAP1 DUP2 MSTORE PUSH1 0x20 ADD PUSH0 KECCAK256 DUP2 SWAP1 SSTORE POP JUMP JUMPDEST PUSH0 DUP1 PUSH1 0x2 PUSH0 SWAP1 SLOAD SWAP1 PUSH2 0x100 EXP SWAP1 DIV PUSH20 0xFFFFFFFFFFFFFFFFFFFFFFFFFFFFFFFFFFFFFFFF AND PUSH20 0xFFFFFFFFFFFFFFFFFFFFFFFFFFFFFFFFFFFFFFFF AND PUSH4 0xFEAF968C PUSH1 0x40 MLOAD DUP2 PUSH4 0xFFFFFFFF AND PUSH1 0xE0 SHL DUP2 MSTORE PUSH1 0x4 ADD PUSH1 0xA0 PUSH1 0x40 MLOAD DUP1 DUP4 SUB DUP2 DUP7 GAS STATICCALL ISZERO DUP1 ISZERO PUSH2 0x9B6 JUMPI RETURNDATASIZE PUSH0 DUP1 RETURNDATACOPY RETURNDATASIZE PUSH0 REVERT JUMPDEST POP POP POP POP PUSH1 0x40 MLOAD RETURNDATASIZE PUSH1 0x1F NOT PUSH1 0x1F DUP3 ADD AND DUP3 ADD DUP1 PUSH1 0x40 MSTORE POP DUP2 ADD SWAP1 PUSH2 0x9DA SWAP2 SWAP1 PUSH2 0x113F JUMP JUMPDEST POP POP POP SWAP2 POP POP DUP1 SWAP2 POP POP SWAP1 JUMP JUMPDEST PUSH1 0x6 PUSH0 SWAP1 SLOAD SWAP1 PUSH2 0x100 EXP SWAP1 DIV PUSH20 0xFFFFFFFFFFFFFFFFFFFFFFFFFFFFFFFFFFFFFFFF AND PUSH20 0xFFFFFFFFFFFFFFFFFFFFFFFFFFFFFFFFFFFFFFFF AND CALLER PUSH20 0xFFFFFFFFFFFFFFFFFFFFFFFFFFFFFFFFFFFFFFFF AND EQ PUSH2 0xA76 JUMPI PUSH1 0x40 MLOAD PUSH32 0x8C379A000000000000000000000000000000000000000000000000000000000 DUP2 MSTORE PUSH1 0x4 ADD PUSH2 0xA6D SWAP1 PUSH2 0x1226 JUMP JUMPDEST PUSH1 0x40 MLOAD DUP1 SWAP2 SUB SWAP1 REVERT JUMPDEST DUP1 PUSH0 DUP1 DUP5 PUSH20 0xFFFFFFFFFFFFFFFFFFFFFFFFFFFFFFFFFFFFFFFF AND PUSH20 0xFFFFFFFFFFFFFFFFFFFFFFFFFFFFFFFFFFFFFFFF AND DUP2 MSTORE PUSH1 0x20 ADD SWAP1 DUP2 MSTORE PUSH1 0x20 ADD PUSH0 KECCAK256 DUP2 SWAP1 SSTORE POP POP POP JUMP JUMPDEST PUSH1 0x6 PUSH1 0x14 SWAP1 SLOAD SWAP1 PUSH2 0x100 EXP SWAP1 DIV PUSH1 0xFF AND DUP2 JUMP JUMPDEST PUSH0 DUP1 PUSH2 0xAD8 PUSH2 0x94A JUMP JUMPDEST SWAP1 POP PUSH4 0x5F5E100 DUP2 DUP5 PUSH2 0xAEB SWAP2 SWAP1 PUSH2 0x1244 JUMP JUMPDEST PUSH2 0xAF5 SWAP2 SWAP1 PUSH2 0x12B2 JUMP JUMPDEST SWAP2 POP POP SWAP2 SWAP1 POP JUMP JUMPDEST PUSH0 DUP1 REVERT JUMPDEST PUSH0 PUSH20 0xFFFFFFFFFFFFFFFFFFFFFFFFFFFFFFFFFFFFFFFF DUP3 AND SWAP1 POP SWAP2 SWAP1 POP JUMP JUMPDEST PUSH0 PUSH2 0xB2A DUP3 PUSH2 0xB01 JUMP JUMPDEST SWAP1 POP SWAP2 SWAP1 POP JUMP JUMPDEST PUSH2 0xB3A DUP2 PUSH2 0xB20 JUMP JUMPDEST DUP2 EQ PUSH2 0xB44 JUMPI PUSH0 DUP1 REVERT JUMPDEST POP JUMP JUMPDEST PUSH0 DUP2 CALLDATALOAD SWAP1 POP PUSH2 0xB55 DUP2 PUSH2 0xB31 JUMP JUMPDEST SWAP3 SWAP2 POP POP JUMP JUMPDEST PUSH0 PUSH1 0x20 DUP3 DUP5 SUB SLT ISZERO PUSH2 0xB70 JUMPI PUSH2 0xB6F PUSH2 0xAFD JUMP JUMPDEST JUMPDEST PUSH0 PUSH2 0xB7D DUP5 DUP3 DUP6 ADD PUSH2 0xB47 JUMP JUMPDEST SWAP2 POP POP SWAP3 SWAP2 POP POP JUMP JUMPDEST PUSH0 DUP2 SWAP1 POP SWAP2 SWAP1 POP JUMP JUMPDEST PUSH2 0xB98 DUP2 PUSH2 0xB86 JUMP JUMPDEST DUP3 MSTORE POP POP JUMP JUMPDEST PUSH0 PUSH1 0x20 DUP3 ADD SWAP1 POP PUSH2 0xBB1 PUSH0 DUP4 ADD DUP5 PUSH2 0xB8F JUMP JUMPDEST SWAP3 SWAP2 POP POP JUMP JUMPDEST PUSH2 0xBC0 DUP2 PUSH2 0xB20 JUMP JUMPDEST DUP3 MSTORE POP POP JUMP JUMPDEST PUSH0 PUSH1 0x20 DUP3 ADD SWAP1 POP PUSH2 0xBD9 PUSH0 DUP4 ADD DUP5 PUSH2 0xBB7 JUMP JUMPDEST SWAP3 SWAP2 POP POP JUMP JUMPDEST PUSH0 DUP2 SWAP1 POP SWAP2 SWAP1 POP JUMP JUMPDEST PUSH2 0xBF1 DUP2 PUSH2 0xBDF JUMP JUMPDEST DUP3 MSTORE POP POP JUMP JUMPDEST PUSH0 PUSH1 0x20 DUP3 ADD SWAP1 POP PUSH2 0xC0A PUSH0 DUP4 ADD DUP5 PUSH2 0xBE8 JUMP JUMPDEST SWAP3 SWAP2 POP POP JUMP JUMPDEST PUSH2 0xC19 DUP2 PUSH2 0xB86 JUMP JUMPDEST DUP2 EQ PUSH2 0xC23 JUMPI PUSH0 DUP1 REVERT JUMPDEST POP JUMP JUMPDEST PUSH0 DUP2 CALLDATALOAD SWAP1 POP PUSH2 0xC34 DUP2 PUSH2 0xC10 JUMP JUMPDEST SWAP3 SWAP2 POP POP JUMP JUMPDEST PUSH0 DUP1 PUSH1 0x40 DUP4 DUP6 SUB SLT ISZERO PUSH2 0xC50 JUMPI PUSH2 0xC4F PUSH2 0xAFD JUMP JUMPDEST JUMPDEST PUSH0 PUSH2 0xC5D DUP6 DUP3 DUP7 ADD PUSH2 0xB47 JUMP JUMPDEST SWAP3 POP POP PUSH1 0x20 PUSH2 0xC6E DUP6 DUP3 DUP7 ADD PUSH2 0xC26 JUMP JUMPDEST SWAP2 POP POP SWAP3 POP SWAP3 SWAP1 POP JUMP JUMPDEST PUSH0 DUP2 ISZERO ISZERO SWAP1 POP SWAP2 SWAP1 POP JUMP JUMPDEST PUSH2 0xC8C DUP2 PUSH2 0xC78 JUMP JUMPDEST DUP3 MSTORE POP POP JUMP JUMPDEST PUSH0 PUSH1 0x20 DUP3 ADD SWAP1 POP PUSH2 0xCA5 PUSH0 DUP4 ADD DUP5 PUSH2 0xC83 JUMP JUMPDEST SWAP3 SWAP2 POP POP JUMP JUMPDEST PUSH32 0x4E487B7100000000000000000000000000000000000000000000000000000000 PUSH0 MSTORE PUSH1 0x11 PUSH1 0x4 MSTORE PUSH1 0x24 PUSH0 REVERT JUMPDEST PUSH0 PUSH2 0xCE2 DUP3 PUSH2 0xB86 JUMP JUMPDEST SWAP2 POP PUSH2 0xCED DUP4 PUSH2 0xB86 JUMP JUMPDEST SWAP3 POP DUP3 DUP3 ADD SWAP1 POP DUP1 DUP3 GT ISZERO PUSH2 0xD05 JUMPI PUSH2 0xD04 PUSH2 0xCAB JUMP JUMPDEST JUMPDEST SWAP3 SWAP2 POP POP JUMP JUMPDEST PUSH0 DUP3 DUP3 MSTORE PUSH1 0x20 DUP3 ADD SWAP1 POP SWAP3 SWAP2 POP POP JUMP JUMPDEST PUSH32 0x77696E646F77206973206E6F7420636C6F736564000000000000000000000000 PUSH0 DUP3 ADD MSTORE POP JUMP JUMPDEST PUSH0 PUSH2 0xD4F PUSH1 0x14 DUP4 PUSH2 0xD0B JUMP JUMPDEST SWAP2 POP PUSH2 0xD5A DUP3 PUSH2 0xD1B JUMP JUMPDEST PUSH1 0x20 DUP3 ADD SWAP1 POP SWAP2 SWAP1 POP JUMP JUMPDEST PUSH0 PUSH1 0x20 DUP3 ADD SWAP1 POP DUP2 DUP2 SUB PUSH0 DUP4 ADD MSTORE PUSH2 0xD7C DUP2 PUSH2 0xD43 JUMP JUMPDEST SWAP1 POP SWAP2 SWAP1 POP JUMP JUMPDEST PUSH32 0x7461726765742069732072656163686564000000000000000000000000000000 PUSH0 DUP3 ADD MSTORE POP JUMP JUMPDEST PUSH0 PUSH2 0xDB7 PUSH1 0x11 DUP4 PUSH2 0xD0B JUMP JUMPDEST SWAP2 POP PUSH2 0xDC2 DUP3 PUSH2 0xD83 JUMP JUMPDEST PUSH1 0x20 DUP3 ADD SWAP1 POP SWAP2 SWAP1 POP JUMP JUMPDEST PUSH0 PUSH1 0x20 DUP3 ADD SWAP1 POP DUP2 DUP2 SUB PUSH0 DUP4 ADD MSTORE PUSH2 0xDE4 DUP2 PUSH2 0xDAB JUMP JUMPDEST SWAP1 POP SWAP2 SWAP1 POP JUMP JUMPDEST PUSH32 0x7468657265206973206E6F742066756E6420666F7220796F7500000000000000 PUSH0 DUP3 ADD MSTORE POP JUMP JUMPDEST PUSH0 PUSH2 0xE1F PUSH1 0x19 DUP4 PUSH2 0xD0B JUMP JUMPDEST SWAP2 POP PUSH2 0xE2A DUP3 PUSH2 0xDEB JUMP JUMPDEST PUSH1 0x20 DUP3 ADD SWAP1 POP SWAP2 SWAP1 POP JUMP JUMPDEST PUSH0 PUSH1 0x20 DUP3 ADD SWAP1 POP DUP2 DUP2 SUB PUSH0 DUP4 ADD MSTORE PUSH2 0xE4C DUP2 PUSH2 0xE13 JUMP JUMPDEST SWAP1 POP SWAP2 SWAP1 POP JUMP JUMPDEST PUSH0 DUP2 SWAP1 POP SWAP3 SWAP2 POP POP JUMP JUMPDEST POP JUMP JUMPDEST PUSH0 PUSH2 0xE6B PUSH0 DUP4 PUSH2 0xE53 JUMP JUMPDEST SWAP2 POP PUSH2 0xE76 DUP3 PUSH2 0xE5D JUMP JUMPDEST PUSH0 DUP3 ADD SWAP1 POP SWAP2 SWAP1 POP JUMP JUMPDEST PUSH0 PUSH2 0xE8A DUP3 PUSH2 0xE60 JUMP JUMPDEST SWAP2 POP DUP2 SWAP1 POP SWAP2 SWAP1 POP JUMP JUMPDEST PUSH32 0x7472616E73666572207478206661696C65640000000000000000000000000000 PUSH0 DUP3 ADD MSTORE POP JUMP JUMPDEST PUSH0 PUSH2 0xEC8 PUSH1 0x12 DUP4 PUSH2 0xD0B JUMP JUMPDEST SWAP2 POP PUSH2 0xED3 DUP3 PUSH2 0xE94 JUMP JUMPDEST PUSH1 0x20 DUP3 ADD SWAP1 POP SWAP2 SWAP1 POP JUMP JUMPDEST PUSH0 PUSH1 0x20 DUP3 ADD SWAP1 POP DUP2 DUP2 SUB PUSH0 DUP4 ADD MSTORE PUSH2 0xEF5 DUP2 PUSH2 0xEBC JUMP JUMPDEST SWAP1 POP SWAP2 SWAP1 POP JUMP JUMPDEST PUSH32 0x746869732066756E6374696F6E2063616E206F6E6C792062652063616C6C6564 PUSH0 DUP3 ADD MSTORE PUSH32 0x206279206F776E65720000000000000000000000000000000000000000000000 PUSH1 0x20 DUP3 ADD MSTORE POP JUMP JUMPDEST PUSH0 PUSH2 0xF56 PUSH1 0x29 DUP4 PUSH2 0xD0B JUMP JUMPDEST SWAP2 POP PUSH2 0xF61 DUP3 PUSH2 0xEFC JUMP JUMPDEST PUSH1 0x40 DUP3 ADD SWAP1 POP SWAP2 SWAP1 POP JUMP JUMPDEST PUSH0 PUSH1 0x20 DUP3 ADD SWAP1 POP DUP2 DUP2 SUB PUSH0 DUP4 ADD MSTORE PUSH2 0xF83 DUP2 PUSH2 0xF4A JUMP JUMPDEST SWAP1 POP SWAP2 SWAP1 POP JUMP JUMPDEST PUSH32 0x746172676574206973206E6F7420726561636865640000000000000000000000 PUSH0 DUP3 ADD MSTORE POP JUMP JUMPDEST PUSH0 PUSH2 0xFBE PUSH1 0x15 DUP4 PUSH2 0xD0B JUMP JUMPDEST SWAP2 POP PUSH2 0xFC9 DUP3 PUSH2 0xF8A JUMP JUMPDEST PUSH1 0x20 DUP3 ADD SWAP1 POP SWAP2 SWAP1 POP JUMP JUMPDEST PUSH0 PUSH1 0x20 DUP3 ADD SWAP1 POP DUP2 DUP2 SUB PUSH0 DUP4 ADD MSTORE PUSH2 0xFEB DUP2 PUSH2 0xFB2 JUMP JUMPDEST SWAP1 POP SWAP2 SWAP1 POP JUMP JUMPDEST PUSH32 0x77696E646F7720697320636C6F73656400000000000000000000000000000000 PUSH0 DUP3 ADD MSTORE POP JUMP JUMPDEST PUSH0 PUSH2 0x1026 PUSH1 0x10 DUP4 PUSH2 0xD0B JUMP JUMPDEST SWAP2 POP PUSH2 0x1031 DUP3 PUSH2 0xFF2 JUMP JUMPDEST PUSH1 0x20 DUP3 ADD SWAP1 POP SWAP2 SWAP1 POP JUMP JUMPDEST PUSH0 PUSH1 0x20 DUP3 ADD SWAP1 POP DUP2 DUP2 SUB PUSH0 DUP4 ADD MSTORE PUSH2 0x1053 DUP2 PUSH2 0x101A JUMP JUMPDEST SWAP1 POP SWAP2 SWAP1 POP JUMP JUMPDEST PUSH32 0x73656E64206D6F72652045544800000000000000000000000000000000000000 PUSH0 DUP3 ADD MSTORE POP JUMP JUMPDEST PUSH0 PUSH2 0x108E PUSH1 0xD DUP4 PUSH2 0xD0B JUMP JUMPDEST SWAP2 POP PUSH2 0x1099 DUP3 PUSH2 0x105A JUMP JUMPDEST PUSH1 0x20 DUP3 ADD SWAP1 POP SWAP2 SWAP1 POP JUMP JUMPDEST PUSH0 PUSH1 0x20 DUP3 ADD SWAP1 POP DUP2 DUP2 SUB PUSH0 DUP4 ADD MSTORE PUSH2 0x10BB DUP2 PUSH2 0x1082 JUMP JUMPDEST SWAP1 POP SWAP2 SWAP1 POP JUMP JUMPDEST PUSH0 PUSH10 0xFFFFFFFFFFFFFFFFFFFF DUP3 AND SWAP1 POP SWAP2 SWAP1 POP JUMP JUMPDEST PUSH2 0x10E0 DUP2 PUSH2 0x10C2 JUMP JUMPDEST DUP2 EQ PUSH2 0x10EA JUMPI PUSH0 DUP1 REVERT JUMPDEST POP JUMP JUMPDEST PUSH0 DUP2 MLOAD SWAP1 POP PUSH2 0x10FB DUP2 PUSH2 0x10D7 JUMP JUMPDEST SWAP3 SWAP2 POP POP JUMP JUMPDEST PUSH2 0x110A DUP2 PUSH2 0xBDF JUMP JUMPDEST DUP2 EQ PUSH2 0x1114 JUMPI PUSH0 DUP1 REVERT JUMPDEST POP JUMP JUMPDEST PUSH0 DUP2 MLOAD SWAP1 POP PUSH2 0x1125 DUP2 PUSH2 0x1101 JUMP JUMPDEST SWAP3 SWAP2 POP POP JUMP JUMPDEST PUSH0 DUP2 MLOAD SWAP1 POP PUSH2 0x1139 DUP2 PUSH2 0xC10 JUMP JUMPDEST SWAP3 SWAP2 POP POP JUMP JUMPDEST PUSH0 DUP1 PUSH0 DUP1 PUSH0 PUSH1 0xA0 DUP7 DUP9 SUB SLT ISZERO PUSH2 0x1158 JUMPI PUSH2 0x1157 PUSH2 0xAFD JUMP JUMPDEST JUMPDEST PUSH0 PUSH2 0x1165 DUP9 DUP3 DUP10 ADD PUSH2 0x10ED JUMP JUMPDEST SWAP6 POP POP PUSH1 0x20 PUSH2 0x1176 DUP9 DUP3 DUP10 ADD PUSH2 0x1117 JUMP JUMPDEST SWAP5 POP POP PUSH1 0x40 PUSH2 0x1187 DUP9 DUP3 DUP10 ADD PUSH2 0x112B JUMP JUMPDEST SWAP4 POP POP PUSH1 0x60 PUSH2 0x1198 DUP9 DUP3 DUP10 ADD PUSH2 0x112B JUMP JUMPDEST SWAP3 POP POP PUSH1 0x80 PUSH2 0x11A9 DUP9 DUP3 DUP10 ADD PUSH2 0x10ED JUMP JUMPDEST SWAP2 POP POP SWAP3 SWAP6 POP SWAP3 SWAP6 SWAP1 SWAP4 POP JUMP JUMPDEST PUSH32 0x796F7520646F206E6F742068617665207065726D697373696F6E20746F206361 PUSH0 DUP3 ADD MSTORE PUSH32 0x6C6C20746869732066756E6374696F6E00000000000000000000000000000000 PUSH1 0x20 DUP3 ADD MSTORE POP JUMP JUMPDEST PUSH0 PUSH2 0x1210 PUSH1 0x30 DUP4 PUSH2 0xD0B JUMP JUMPDEST SWAP2 POP PUSH2 0x121B DUP3 PUSH2 0x11B6 JUMP JUMPDEST PUSH1 0x40 DUP3 ADD SWAP1 POP SWAP2 SWAP1 POP JUMP JUMPDEST PUSH0 PUSH1 0x20 DUP3 ADD SWAP1 POP DUP2 DUP2 SUB PUSH0 DUP4 ADD MSTORE PUSH2 0x123D DUP2 PUSH2 0x1204 JUMP JUMPDEST SWAP1 POP SWAP2 SWAP1 POP JUMP JUMPDEST PUSH0 PUSH2 0x124E DUP3 PUSH2 0xB86 JUMP JUMPDEST SWAP2 POP PUSH2 0x1259 DUP4 PUSH2 0xB86 JUMP JUMPDEST SWAP3 POP DUP3 DUP3 MUL PUSH2 0x1267 DUP2 PUSH2 0xB86 JUMP JUMPDEST SWAP2 POP DUP3 DUP3 DIV DUP5 EQ DUP4 ISZERO OR PUSH2 0x127E JUMPI PUSH2 0x127D PUSH2 0xCAB JUMP JUMPDEST JUMPDEST POP SWAP3 SWAP2 POP POP JUMP JUMPDEST PUSH32 0x4E487B7100000000000000000000000000000000000000000000000000000000 PUSH0 MSTORE PUSH1 0x12 PUSH1 0x4 MSTORE PUSH1 0x24 PUSH0 REVERT JUMPDEST PUSH0 PUSH2 0x12BC DUP3 PUSH2 0xB86 JUMP JUMPDEST SWAP2 POP PUSH2 0x12C7 DUP4 PUSH2 0xB86 JUMP JUMPDEST SWAP3 POP DUP3 PUSH2 0x12D7 JUMPI PUSH2 0x12D6 PUSH2 0x1285 JUMP JUMPDEST JUMPDEST DUP3 DUP3 DIV SWAP1 POP SWAP3 SWAP2 POP POP JUMP INVALID LOG2 PUSH5 0x6970667358 0x22 SLT KECCAK256 0x2C TLOAD 0xE7 PUSH15 0x299E0715B3264FE77CF295A5E2B0DC LOG4 MCOPY DUP14 0x4E PUSH26 0x70047F84138D5DA064736F6C634300081A003300000000000000 "
				},
				"gasEstimates": {
					"creation": {
						"codeDepositCost": "977600",
						"executionCost": "infinite",
						"totalCost": "infinite"
					},
					"external": {
						"fund()": "infinite",
						"funderToAmount(address)": "2846",
						"getChainlinkDataFeedLatestAnswer()": "infinite",
						"getFund()": "infinite",
						"getFundSuccess()": "2605",
						"owner()": "2597",
						"reFund()": "infinite",
						"setErc20Addr(address)": "26907",
						"setFunderToAmount(address,uint256)": "25057",
						"transferOwnerShip(address)": "26951"
					},
					"internal": {
						"convertEthToUsd(uint256)": "infinite"
					}
				},
				"methodIdentifiers": {
					"fund()": "b60d4288",
					"funderToAmount(address)": "4407e1e8",
					"getChainlinkDataFeedLatestAnswer()": "bea4dfb5",
					"getFund()": "8edd6eb6",
					"getFundSuccess()": "da4658e0",
					"owner()": "8da5cb5b",
					"reFund()": "0ff0a4df",
					"setErc20Addr(address)": "13ffff01",
					"setFunderToAmount(address,uint256)": "d39cf006",
					"transferOwnerShip(address)": "8863dd1a"
				}
			},
			"storageLayout": {
				"storage": [
					{
						"astId": 821,
						"contract": "contracts/FundTokenErc20_flattened.sol:FundMe",
						"label": "funderToAmount",
						"offset": 0,
						"slot": "0",
						"type": "t_mapping(t_address,t_uint256)"
					},
					{
						"astId": 828,
						"contract": "contracts/FundTokenErc20_flattened.sol:FundMe",
						"label": "MINMUM_VALUE",
						"offset": 0,
						"slot": "1",
						"type": "t_uint256"
					},
					{
						"astId": 831,
						"contract": "contracts/FundTokenErc20_flattened.sol:FundMe",
						"label": "dataFeed",
						"offset": 0,
						"slot": "2",
						"type": "t_contract(AggregatorV3Interface)816"
					},
					{
						"astId": 840,
						"contract": "contracts/FundTokenErc20_flattened.sol:FundMe",
						"label": "owner",
						"offset": 0,
						"slot": "3",
						"type": "t_address"
					},
					{
						"astId": 842,
						"contract": "contracts/FundTokenErc20_flattened.sol:FundMe",
						"label": "deploymentTimestamp",
						"offset": 0,
						"slot": "4",
						"type": "t_uint256"
					},
					{
						"astId": 844,
						"contract": "contracts/FundTokenErc20_flattened.sol:FundMe",
						"label": "lockTime",
						"offset": 0,
						"slot": "5",
						"type": "t_uint256"
					},
					{
						"astId": 846,
						"contract": "contracts/FundTokenErc20_flattened.sol:FundMe",
						"label": "erc20Addr",
						"offset": 0,
						"slot": "6",
						"type": "t_address"
					},
					{
						"astId": 849,
						"contract": "contracts/FundTokenErc20_flattened.sol:FundMe",
						"label": "getFundSuccess",
						"offset": 20,
						"slot": "6",
						"type": "t_bool"
					}
				],
				"types": {
					"t_address": {
						"encoding": "inplace",
						"label": "address",
						"numberOfBytes": "20"
					},
					"t_bool": {
						"encoding": "inplace",
						"label": "bool",
						"numberOfBytes": "1"
					},
					"t_contract(AggregatorV3Interface)816": {
						"encoding": "inplace",
						"label": "contract AggregatorV3Interface",
						"numberOfBytes": "20"
					},
					"t_mapping(t_address,t_uint256)": {
						"encoding": "mapping",
						"key": "t_address",
						"label": "mapping(address => uint256)",
						"numberOfBytes": "32",
						"value": "t_uint256"
					},
					"t_uint256": {
						"encoding": "inplace",
						"label": "uint256",
						"numberOfBytes": "32"
					}
				}
			},
			"userdoc": {
				"kind": "user",
				"methods": {
					"fund()": {
						"notice": "1.创建一个收款函数"
					},
					"getChainlinkDataFeedLatestAnswer()": {
						"notice": "Returns the latest answer."
					}
				},
				"version": 1
			}
		}
	}
}