{
	"contracts/FundTokenErc20_flattened.sol": {
		"FundTokenErc20": {
			"abi": [
				{
					"inputs": [
						{
							"internalType": "address",
							"name": "fundMeAddr",
							"type": "address"
						}
					],
					"stateMutability": "nonpayable",
					"type": "constructor"
				},
				{
					"inputs": [
						{
							"internalType": "address",
							"name": "spender",
							"type": "address"
						},
						{
							"internalType": "uint256",
							"name": "allowance",
							"type": "uint256"
						},
						{
							"internalType": "uint256",
							"name": "needed",
							"type": "uint256"
						}
					],
					"name": "ERC20InsufficientAllowance",
					"type": "error"
				},
				{
					"inputs": [
						{
							"internalType": "address",
							"name": "sender",
							"type": "address"
						},
						{
							"internalType": "uint256",
							"name": "balance",
							"type": "uint256"
						},
						{
							"internalType": "uint256",
							"name": "needed",
							"type": "uint256"
						}
					],
					"name": "ERC20InsufficientBalance",
					"type": "error"
				},
				{
					"inputs": [
						{
							"internalType": "address",
							"name": "approver",
							"type": "address"
						}
					],
					"name": "ERC20InvalidApprover",
					"type": "error"
				},
				{
					"inputs": [
						{
							"internalType": "address",
							"name": "receiver",
							"type": "address"
						}
					],
					"name": "ERC20InvalidReceiver",
					"type": "error"
				},
				{
					"inputs": [
						{
							"internalType": "address",
							"name": "sender",
							"type": "address"
						}
					],
					"name": "ERC20InvalidSender",
					"type": "error"
				},
				{
					"inputs": [
						{
							"internalType": "address",
							"name": "spender",
							"type": "address"
						}
					],
					"name": "ERC20InvalidSpender",
					"type": "error"
				},
				{
					"anonymous": false,
					"inputs": [
						{
							"indexed": true,
							"internalType": "address",
							"name": "owner",
							"type": "address"
						},
						{
							"indexed": true,
							"internalType": "address",
							"name": "spender",
							"type": "address"
						},
						{
							"indexed": false,
							"internalType": "uint256",
							"name": "value",
							"type": "uint256"
						}
					],
					"name": "Approval",
					"type": "event"
				},
				{
					"anonymous": false,
					"inputs": [
						{
							"indexed": true,
							"internalType": "address",
							"name": "from",
							"type": "address"
						},
						{
							"indexed": true,
							"internalType": "address",
							"name": "to",
							"type": "address"
						},
						{
							"indexed": false,
							"internalType": "uint256",
							"name": "value",
							"type": "uint256"
						}
					],
					"name": "Transfer",
					"type": "event"
				},
				{
					"inputs": [
						{
							"internalType": "address",
							"name": "owner",
							"type": "address"
						},
						{
							"internalType": "address",
							"name": "spender",
							"type": "address"
						}
					],
					"name": "allowance",
					"outputs": [
						{
							"internalType": "uint256",
							"name": "",
							"type": "uint256"
						}
					],
					"stateMutability": "view",
					"type": "function"
				},
				{
					"inputs": [
						{
							"internalType": "address",
							"name": "spender",
							"type": "address"
						},
						{
							"internalType": "uint256",
							"name": "value",
							"type": "uint256"
						}
					],
					"name": "approve",
					"outputs": [
						{
							"internalType": "bool",
							"name": "",
							"type": "bool"
						}
					],
					"stateMutability": "nonpayable",
					"type": "function"
				},
				{
					"inputs": [
						{
							"internalType": "address",
							"name": "account",
							"type": "address"
						}
					],
					"name": "balanceOf",
					"outputs": [
						{
							"internalType": "uint256",
							"name": "",
							"type": "uint256"
						}
					],
					"stateMutability": "view",
					"type": "function"
				},
				{
					"inputs": [
						{
							"internalType": "uint256",
							"name": "amountToClaim",
							"type": "uint256"
						}
					],
					"name": "claim",
					"outputs": [],
					"stateMutability": "nonpayable",
					"type": "function"
				},
				{
					"inputs": [],
					"name": "decimals",
					"outputs": [
						{
							"internalType": "uint8",
							"name": "",
							"type": "uint8"
						}
					],
					"stateMutability": "view",
					"type": "function"
				},
				{
					"inputs": [
						{
							"internalType": "uint256",
							"name": "amountToMint",
							"type": "uint256"
						}
					],
					"name": "mint",
					"outputs": [],
					"stateMutability": "nonpayable",
					"type": "function"
				},
				{
					"inputs": [],
					"name": "name",
					"outputs": [
						{
							"internalType": "string",
							"name": "",
							"type": "string"
						}
					],
					"stateMutability": "view",
					"type": "function"
				},
				{
					"inputs": [],
					"name": "symbol",
					"outputs": [
						{
							"internalType": "string",
							"name": "",
							"type": "string"
						}
					],
					"stateMutability": "view",
					"type": "function"
				},
				{
					"inputs": [],
					"name": "totalSupply",
					"outputs": [
						{
							"internalType": "uint256",
							"name": "",
							"type": "uint256"
						}
					],
					"stateMutability": "view",
					"type": "function"
				},
				{
					"inputs": [
						{
							"internalType": "address",
							"name": "to",
							"type": "address"
						},
						{
							"internalType": "uint256",
							"name": "value",
							"type": "uint256"
						}
					],
					"name": "transfer",
					"outputs": [
						{
							"internalType": "bool",
							"name": "",
							"type": "bool"
						}
					],
					"stateMutability": "nonpayable",
					"type": "function"
				},
				{
					"inputs": [
						{
							"internalType": "address",
							"name": "from",
							"type": "address"
						},
						{
							"internalType": "address",
							"name": "to",
							"type": "address"
						},
						{
							"internalType": "uint256",
							"name": "value",
							"type": "uint256"
						}
					],
					"name": "transferFrom",
					"outputs": [
						{
							"internalType": "bool",
							"name": "",
							"type": "bool"
						}
					],
					"stateMutability": "nonpayable",
					"type": "function"
				}
			],
			"devdoc": {
				"errors": {
					"ERC20InsufficientAllowance(address,uint256,uint256)": [
						{
							"details": "Indicates a failure with the `spender`’s `allowance`. Used in transfers.",
							"params": {
								"allowance": "Amount of tokens a `spender` is allowed to operate with.",
								"needed": "Minimum amount required to perform a transfer.",
								"spender": "Address that may be allowed to operate on tokens without being their owner."
							}
						}
					],
					"ERC20InsufficientBalance(address,uint256,uint256)": [
						{
							"details": "Indicates an error related to the current `balance` of a `sender`. Used in transfers.",
							"params": {
								"balance": "Current balance for the interacting account.",
								"needed": "Minimum amount required to perform a transfer.",
								"sender": "Address whose tokens are being transferred."
							}
						}
					],
					"ERC20InvalidApprover(address)": [
						{
							"details": "Indicates a failure with the `approver` of a token to be approved. Used in approvals.",
							"params": {
								"approver": "Address initiating an approval operation."
							}
						}
					],
					"ERC20InvalidReceiver(address)": [
						{
							"details": "Indicates a failure with the token `receiver`. Used in transfers.",
							"params": {
								"receiver": "Address to which tokens are being transferred."
							}
						}
					],
					"ERC20InvalidSender(address)": [
						{
							"details": "Indicates a failure with the token `sender`. Used in transfers.",
							"params": {
								"sender": "Address whose tokens are being transferred."
							}
						}
					],
					"ERC20InvalidSpender(address)": [
						{
							"details": "Indicates a failure with the `spender` to be approved. Used in approvals.",
							"params": {
								"spender": "Address that may be allowed to operate on tokens without being their owner."
							}
						}
					]
				},
				"events": {
					"Approval(address,address,uint256)": {
						"details": "Emitted when the allowance of a `spender` for an `owner` is set by a call to {approve}. `value` is the new allowance."
					},
					"Transfer(address,address,uint256)": {
						"details": "Emitted when `value` tokens are moved from one account (`from`) to another (`to`). Note that `value` may be zero."
					}
				},
				"kind": "dev",
				"methods": {
					"allowance(address,address)": {
						"details": "See {IERC20-allowance}."
					},
					"approve(address,uint256)": {
						"details": "See {IERC20-approve}. NOTE: If `value` is the maximum `uint256`, the allowance is not updated on `transferFrom`. This is semantically equivalent to an infinite approval. Requirements: - `spender` cannot be the zero address."
					},
					"balanceOf(address)": {
						"details": "See {IERC20-balanceOf}."
					},
					"decimals()": {
						"details": "Returns the number of decimals used to get its user representation. For example, if `decimals` equals `2`, a balance of `505` tokens should be displayed to a user as `5.05` (`505 / 10 ** 2`). Tokens usually opt for a value of 18, imitating the relationship between Ether and Wei. This is the default value returned by this function, unless it's overridden. NOTE: This information is only used for _display_ purposes: it in no way affects any of the arithmetic of the contract, including {IERC20-balanceOf} and {IERC20-transfer}."
					},
					"name()": {
						"details": "Returns the name of the token."
					},
					"symbol()": {
						"details": "Returns the symbol of the token, usually a shorter version of the name."
					},
					"totalSupply()": {
						"details": "See {IERC20-totalSupply}."
					},
					"transfer(address,uint256)": {
						"details": "See {IERC20-transfer}. Requirements: - `to` cannot be the zero address. - the caller must have a balance of at least `value`."
					},
					"transferFrom(address,address,uint256)": {
						"details": "See {IERC20-transferFrom}. Skips emitting an {Approval} event indicating an allowance update. This is not required by the ERC. See {xref-ERC20-_approve-address-address-uint256-bool-}[_approve]. NOTE: Does not update the allowance if the current allowance is the maximum `uint256`. Requirements: - `from` and `to` cannot be the zero address. - `from` must have a balance of at least `value`. - the caller must have allowance for ``from``'s tokens of at least `value`."
					}
				},
				"version": 1
			},
			"evm": {
				"assembly": "    /* \"contracts/FundTokenErc20_flattened.sol\":27376:28802  contract FundTokenErc20 is ERC20 {... */\n  mstore(0x40, 0x80)\n    /* \"contracts/FundTokenErc20_flattened.sol\":27434:27538  constructor(address fundMeAddr) ERC20(\"FundTokenErc20\",\"FT\"){... */\n  callvalue\n  dup1\n  iszero\n  tag_1\n  jumpi\n  0x00\n  dup1\n  revert\ntag_1:\n  pop\n  mload(0x40)\n  sub(codesize, bytecodeSize)\n  dup1\n  bytecodeSize\n  dup4\n  codecopy\n  dup2\n  dup2\n  add\n  0x40\n  mstore\n  dup2\n  add\n  swap1\n  tag_2\n  swap2\n  swap1\n  tag_3\n  jump\t// in\ntag_2:\n    /* \"contracts/FundTokenErc20_flattened.sol\":12470:12583  constructor(string memory name_, string memory symbol_) {... */\n  mload(0x40)\n  dup1\n  0x40\n  add\n  0x40\n  mstore\n  dup1\n  0x0e\n  dup2\n  mstore\n  0x20\n  add\n  0x46756e64546f6b656e4572633230000000000000000000000000000000000000\n  dup2\n  mstore\n  pop\n  mload(0x40)\n  dup1\n  0x40\n  add\n  0x40\n  mstore\n  dup1\n  0x02\n  dup2\n  mstore\n  0x20\n  add\n  0x4654000000000000000000000000000000000000000000000000000000000000\n  dup2\n  mstore\n  pop\n    /* \"contracts/FundTokenErc20_flattened.sol\":12544:12549  name_ */\n  dup2\n    /* \"contracts/FundTokenErc20_flattened.sol\":12536:12541  _name */\n  0x03\n    /* \"contracts/FundTokenErc20_flattened.sol\":12536:12549  _name = name_ */\n  swap1\n  dup2\n  tag_7\n  swap2\n  swap1\n  tag_8\n  jump\t// in\ntag_7:\n  pop\n    /* \"contracts/FundTokenErc20_flattened.sol\":12569:12576  symbol_ */\n  dup1\n    /* \"contracts/FundTokenErc20_flattened.sol\":12559:12566  _symbol */\n  0x04\n    /* \"contracts/FundTokenErc20_flattened.sol\":12559:12576  _symbol = symbol_ */\n  swap1\n  dup2\n  tag_9\n  swap2\n  swap1\n  tag_8\n  jump\t// in\ntag_9:\n  pop\n    /* \"contracts/FundTokenErc20_flattened.sol\":12470:12583  constructor(string memory name_, string memory symbol_) {... */\n  pop\n  pop\n    /* \"contracts/FundTokenErc20_flattened.sol\":27520:27530  fundMeAddr */\n  dup1\n    /* \"contracts/FundTokenErc20_flattened.sol\":27504:27510  fundMe */\n  0x05\n  0x00\n    /* \"contracts/FundTokenErc20_flattened.sol\":27504:27531  fundMe = FundMe(fundMeAddr) */\n  0x0100\n  exp\n  dup2\n  sload\n  dup2\n  0xffffffffffffffffffffffffffffffffffffffff\n  mul\n  not\n  and\n  swap1\n  dup4\n  0xffffffffffffffffffffffffffffffffffffffff\n  and\n  mul\n  or\n  swap1\n  sstore\n  pop\n    /* \"contracts/FundTokenErc20_flattened.sol\":27434:27538  constructor(address fundMeAddr) ERC20(\"FundTokenErc20\",\"FT\"){... */\n  pop\n    /* \"contracts/FundTokenErc20_flattened.sol\":27376:28802  contract FundTokenErc20 is ERC20 {... */\n  jump(tag_11)\n    /* \"#utility.yul\":88:205   */\ntag_13:\n    /* \"#utility.yul\":197:198   */\n  0x00\n    /* \"#utility.yul\":194:195   */\n  dup1\n    /* \"#utility.yul\":187:199   */\n  revert\n    /* \"#utility.yul\":334:460   */\ntag_15:\n    /* \"#utility.yul\":371:378   */\n  0x00\n    /* \"#utility.yul\":411:453   */\n  0xffffffffffffffffffffffffffffffffffffffff\n    /* \"#utility.yul\":404:409   */\n  dup3\n    /* \"#utility.yul\":400:454   */\n  and\n    /* \"#utility.yul\":389:454   */\n  swap1\n  pop\n    /* \"#utility.yul\":334:460   */\n  swap2\n  swap1\n  pop\n  jump\t// out\n    /* \"#utility.yul\":466:562   */\ntag_16:\n    /* \"#utility.yul\":503:510   */\n  0x00\n    /* \"#utility.yul\":532:556   */\n  tag_45\n    /* \"#utility.yul\":550:555   */\n  dup3\n    /* \"#utility.yul\":532:556   */\n  tag_15\n  jump\t// in\ntag_45:\n    /* \"#utility.yul\":521:556   */\n  swap1\n  pop\n    /* \"#utility.yul\":466:562   */\n  swap2\n  swap1\n  pop\n  jump\t// out\n    /* \"#utility.yul\":568:690   */\ntag_17:\n    /* \"#utility.yul\":641:665   */\n  tag_47\n    /* \"#utility.yul\":659:664   */\n  dup2\n    /* \"#utility.yul\":641:665   */\n  tag_16\n  jump\t// in\ntag_47:\n    /* \"#utility.yul\":634:639   */\n  dup2\n    /* \"#utility.yul\":631:666   */\n  eq\n    /* \"#utility.yul\":621:684   */\n  tag_48\n  jumpi\n    /* \"#utility.yul\":680:681   */\n  0x00\n    /* \"#utility.yul\":677:678   */\n  dup1\n    /* \"#utility.yul\":670:682   */\n  revert\n    /* \"#utility.yul\":621:684   */\ntag_48:\n    /* \"#utility.yul\":568:690   */\n  pop\n  jump\t// out\n    /* \"#utility.yul\":696:839   */\ntag_18:\n    /* \"#utility.yul\":753:758   */\n  0x00\n    /* \"#utility.yul\":784:790   */\n  dup2\n    /* \"#utility.yul\":778:791   */\n  mload\n    /* \"#utility.yul\":769:791   */\n  swap1\n  pop\n    /* \"#utility.yul\":800:833   */\n  tag_50\n    /* \"#utility.yul\":827:832   */\n  dup2\n    /* \"#utility.yul\":800:833   */\n  tag_17\n  jump\t// in\ntag_50:\n    /* \"#utility.yul\":696:839   */\n  swap3\n  swap2\n  pop\n  pop\n  jump\t// out\n    /* \"#utility.yul\":845:1196   */\ntag_3:\n    /* \"#utility.yul\":915:921   */\n  0x00\n    /* \"#utility.yul\":964:966   */\n  0x20\n    /* \"#utility.yul\":952:961   */\n  dup3\n    /* \"#utility.yul\":943:950   */\n  dup5\n    /* \"#utility.yul\":939:962   */\n  sub\n    /* \"#utility.yul\":935:967   */\n  slt\n    /* \"#utility.yul\":932:1051   */\n  iszero\n  tag_52\n  jumpi\n    /* \"#utility.yul\":970:1049   */\n  tag_53\n  tag_13\n  jump\t// in\ntag_53:\n    /* \"#utility.yul\":932:1051   */\ntag_52:\n    /* \"#utility.yul\":1090:1091   */\n  0x00\n    /* \"#utility.yul\":1115:1179   */\n  tag_54\n    /* \"#utility.yul\":1171:1178   */\n  dup5\n    /* \"#utility.yul\":1162:1168   */\n  dup3\n    /* \"#utility.yul\":1151:1160   */\n  dup6\n    /* \"#utility.yul\":1147:1169   */\n  add\n    /* \"#utility.yul\":1115:1179   */\n  tag_18\n  jump\t// in\ntag_54:\n    /* \"#utility.yul\":1105:1179   */\n  swap2\n  pop\n    /* \"#utility.yul\":1061:1189   */\n  pop\n    /* \"#utility.yul\":845:1196   */\n  swap3\n  swap2\n  pop\n  pop\n  jump\t// out\n    /* \"#utility.yul\":1202:1301   */\ntag_19:\n    /* \"#utility.yul\":1254:1260   */\n  0x00\n    /* \"#utility.yul\":1288:1293   */\n  dup2\n    /* \"#utility.yul\":1282:1294   */\n  mload\n    /* \"#utility.yul\":1272:1294   */\n  swap1\n  pop\n    /* \"#utility.yul\":1202:1301   */\n  swap2\n  swap1\n  pop\n  jump\t// out\n    /* \"#utility.yul\":1307:1487   */\ntag_20:\n    /* \"#utility.yul\":1355:1432   */\n  0x4e487b7100000000000000000000000000000000000000000000000000000000\n    /* \"#utility.yul\":1352:1353   */\n  0x00\n    /* \"#utility.yul\":1345:1433   */\n  mstore\n    /* \"#utility.yul\":1452:1456   */\n  0x41\n    /* \"#utility.yul\":1449:1450   */\n  0x04\n    /* \"#utility.yul\":1442:1457   */\n  mstore\n    /* \"#utility.yul\":1476:1480   */\n  0x24\n    /* \"#utility.yul\":1473:1474   */\n  0x00\n    /* \"#utility.yul\":1466:1481   */\n  revert\n    /* \"#utility.yul\":1493:1673   */\ntag_21:\n    /* \"#utility.yul\":1541:1618   */\n  0x4e487b7100000000000000000000000000000000000000000000000000000000\n    /* \"#utility.yul\":1538:1539   */\n  0x00\n    /* \"#utility.yul\":1531:1619   */\n  mstore\n    /* \"#utility.yul\":1638:1642   */\n  0x22\n    /* \"#utility.yul\":1635:1636   */\n  0x04\n    /* \"#utility.yul\":1628:1643   */\n  mstore\n    /* \"#utility.yul\":1662:1666   */\n  0x24\n    /* \"#utility.yul\":1659:1660   */\n  0x00\n    /* \"#utility.yul\":1652:1667   */\n  revert\n    /* \"#utility.yul\":1679:1999   */\ntag_22:\n    /* \"#utility.yul\":1723:1729   */\n  0x00\n    /* \"#utility.yul\":1760:1761   */\n  0x02\n    /* \"#utility.yul\":1754:1758   */\n  dup3\n    /* \"#utility.yul\":1750:1762   */\n  div\n    /* \"#utility.yul\":1740:1762   */\n  swap1\n  pop\n    /* \"#utility.yul\":1807:1808   */\n  0x01\n    /* \"#utility.yul\":1801:1805   */\n  dup3\n    /* \"#utility.yul\":1797:1809   */\n  and\n    /* \"#utility.yul\":1828:1846   */\n  dup1\n    /* \"#utility.yul\":1818:1899   */\n  tag_59\n  jumpi\n    /* \"#utility.yul\":1884:1888   */\n  0x7f\n    /* \"#utility.yul\":1876:1882   */\n  dup3\n    /* \"#utility.yul\":1872:1889   */\n  and\n    /* \"#utility.yul\":1862:1889   */\n  swap2\n  pop\n    /* \"#utility.yul\":1818:1899   */\ntag_59:\n    /* \"#utility.yul\":1946:1948   */\n  0x20\n    /* \"#utility.yul\":1938:1944   */\n  dup3\n    /* \"#utility.yul\":1935:1949   */\n  lt\n    /* \"#utility.yul\":1915:1933   */\n  dup2\n    /* \"#utility.yul\":1912:1950   */\n  sub\n    /* \"#utility.yul\":1909:1993   */\n  tag_60\n  jumpi\n    /* \"#utility.yul\":1965:1983   */\n  tag_61\n  tag_21\n  jump\t// in\ntag_61:\n    /* \"#utility.yul\":1909:1993   */\ntag_60:\n    /* \"#utility.yul\":1730:1999   */\n  pop\n    /* \"#utility.yul\":1679:1999   */\n  swap2\n  swap1\n  pop\n  jump\t// out\n    /* \"#utility.yul\":2005:2146   */\ntag_23:\n    /* \"#utility.yul\":2054:2058   */\n  0x00\n    /* \"#utility.yul\":2077:2080   */\n  dup2\n    /* \"#utility.yul\":2069:2080   */\n  swap1\n  pop\n    /* \"#utility.yul\":2100:2103   */\n  dup2\n    /* \"#utility.yul\":2097:2098   */\n  0x00\n    /* \"#utility.yul\":2090:2104   */\n  mstore\n    /* \"#utility.yul\":2134:2138   */\n  0x20\n    /* \"#utility.yul\":2131:2132   */\n  0x00\n    /* \"#utility.yul\":2121:2139   */\n  keccak256\n    /* \"#utility.yul\":2113:2139   */\n  swap1\n  pop\n    /* \"#utility.yul\":2005:2146   */\n  swap2\n  swap1\n  pop\n  jump\t// out\n    /* \"#utility.yul\":2152:2245   */\ntag_24:\n    /* \"#utility.yul\":2189:2195   */\n  0x00\n    /* \"#utility.yul\":2236:2238   */\n  0x20\n    /* \"#utility.yul\":2231:2233   */\n  0x1f\n    /* \"#utility.yul\":2224:2229   */\n  dup4\n    /* \"#utility.yul\":2220:2234   */\n  add\n    /* \"#utility.yul\":2216:2239   */\n  div\n    /* \"#utility.yul\":2206:2239   */\n  swap1\n  pop\n    /* \"#utility.yul\":2152:2245   */\n  swap2\n  swap1\n  pop\n  jump\t// out\n    /* \"#utility.yul\":2251:2358   */\ntag_25:\n    /* \"#utility.yul\":2295:2303   */\n  0x00\n    /* \"#utility.yul\":2345:2350   */\n  dup3\n    /* \"#utility.yul\":2339:2343   */\n  dup3\n    /* \"#utility.yul\":2335:2351   */\n  shl\n    /* \"#utility.yul\":2314:2351   */\n  swap1\n  pop\n    /* \"#utility.yul\":2251:2358   */\n  swap3\n  swap2\n  pop\n  pop\n  jump\t// out\n    /* \"#utility.yul\":2364:2757   */\ntag_26:\n    /* \"#utility.yul\":2433:2439   */\n  0x00\n    /* \"#utility.yul\":2483:2484   */\n  0x08\n    /* \"#utility.yul\":2471:2481   */\n  dup4\n    /* \"#utility.yul\":2467:2485   */\n  mul\n    /* \"#utility.yul\":2506:2603   */\n  tag_66\n    /* \"#utility.yul\":2536:2602   */\n  0xffffffffffffffffffffffffffffffffffffffffffffffffffffffffffffffff\n    /* \"#utility.yul\":2525:2534   */\n  dup3\n    /* \"#utility.yul\":2506:2603   */\n  tag_25\n  jump\t// in\ntag_66:\n    /* \"#utility.yul\":2624:2663   */\n  tag_67\n    /* \"#utility.yul\":2654:2662   */\n  dup7\n    /* \"#utility.yul\":2643:2652   */\n  dup4\n    /* \"#utility.yul\":2624:2663   */\n  tag_25\n  jump\t// in\ntag_67:\n    /* \"#utility.yul\":2612:2663   */\n  swap6\n  pop\n    /* \"#utility.yul\":2696:2700   */\n  dup1\n    /* \"#utility.yul\":2692:2701   */\n  not\n    /* \"#utility.yul\":2685:2690   */\n  dup5\n    /* \"#utility.yul\":2681:2702   */\n  and\n    /* \"#utility.yul\":2672:2702   */\n  swap4\n  pop\n    /* \"#utility.yul\":2745:2749   */\n  dup1\n    /* \"#utility.yul\":2735:2743   */\n  dup7\n    /* \"#utility.yul\":2731:2750   */\n  and\n    /* \"#utility.yul\":2724:2729   */\n  dup5\n    /* \"#utility.yul\":2721:2751   */\n  or\n    /* \"#utility.yul\":2711:2751   */\n  swap3\n  pop\n    /* \"#utility.yul\":2440:2757   */\n  pop\n  pop\n    /* \"#utility.yul\":2364:2757   */\n  swap4\n  swap3\n  pop\n  pop\n  pop\n  jump\t// out\n    /* \"#utility.yul\":2763:2840   */\ntag_27:\n    /* \"#utility.yul\":2800:2807   */\n  0x00\n    /* \"#utility.yul\":2829:2834   */\n  dup2\n    /* \"#utility.yul\":2818:2834   */\n  swap1\n  pop\n    /* \"#utility.yul\":2763:2840   */\n  swap2\n  swap1\n  pop\n  jump\t// out\n    /* \"#utility.yul\":2846:2906   */\ntag_28:\n    /* \"#utility.yul\":2874:2877   */\n  0x00\n    /* \"#utility.yul\":2895:2900   */\n  dup2\n    /* \"#utility.yul\":2888:2900   */\n  swap1\n  pop\n    /* \"#utility.yul\":2846:2906   */\n  swap2\n  swap1\n  pop\n  jump\t// out\n    /* \"#utility.yul\":2912:3054   */\ntag_29:\n    /* \"#utility.yul\":2962:2971   */\n  0x00\n    /* \"#utility.yul\":2995:3048   */\n  tag_71\n    /* \"#utility.yul\":3013:3047   */\n  tag_72\n    /* \"#utility.yul\":3022:3046   */\n  tag_73\n    /* \"#utility.yul\":3040:3045   */\n  dup5\n    /* \"#utility.yul\":3022:3046   */\n  tag_27\n  jump\t// in\ntag_73:\n    /* \"#utility.yul\":3013:3047   */\n  tag_28\n  jump\t// in\ntag_72:\n    /* \"#utility.yul\":2995:3048   */\n  tag_27\n  jump\t// in\ntag_71:\n    /* \"#utility.yul\":2982:3048   */\n  swap1\n  pop\n    /* \"#utility.yul\":2912:3054   */\n  swap2\n  swap1\n  pop\n  jump\t// out\n    /* \"#utility.yul\":3060:3135   */\ntag_30:\n    /* \"#utility.yul\":3103:3106   */\n  0x00\n    /* \"#utility.yul\":3124:3129   */\n  dup2\n    /* \"#utility.yul\":3117:3129   */\n  swap1\n  pop\n    /* \"#utility.yul\":3060:3135   */\n  swap2\n  swap1\n  pop\n  jump\t// out\n    /* \"#utility.yul\":3141:3410   */\ntag_31:\n    /* \"#utility.yul\":3251:3290   */\n  tag_76\n    /* \"#utility.yul\":3282:3289   */\n  dup4\n    /* \"#utility.yul\":3251:3290   */\n  tag_29\n  jump\t// in\ntag_76:\n    /* \"#utility.yul\":3312:3403   */\n  tag_77\n    /* \"#utility.yul\":3361:3402   */\n  tag_78\n    /* \"#utility.yul\":3385:3401   */\n  dup3\n    /* \"#utility.yul\":3361:3402   */\n  tag_30\n  jump\t// in\ntag_78:\n    /* \"#utility.yul\":3353:3359   */\n  dup5\n    /* \"#utility.yul\":3346:3350   */\n  dup5\n    /* \"#utility.yul\":3340:3351   */\n  sload\n    /* \"#utility.yul\":3312:3403   */\n  tag_26\n  jump\t// in\ntag_77:\n    /* \"#utility.yul\":3306:3310   */\n  dup3\n    /* \"#utility.yul\":3299:3404   */\n  sstore\n    /* \"#utility.yul\":3217:3410   */\n  pop\n    /* \"#utility.yul\":3141:3410   */\n  pop\n  pop\n  pop\n  jump\t// out\n    /* \"#utility.yul\":3416:3489   */\ntag_32:\n    /* \"#utility.yul\":3461:3464   */\n  0x00\n    /* \"#utility.yul\":3416:3489   */\n  swap1\n  jump\t// out\n    /* \"#utility.yul\":3495:3684   */\ntag_33:\n    /* \"#utility.yul\":3572:3604   */\n  tag_81\n  tag_32\n  jump\t// in\ntag_81:\n    /* \"#utility.yul\":3613:3678   */\n  tag_82\n    /* \"#utility.yul\":3671:3677   */\n  dup2\n    /* \"#utility.yul\":3663:3669   */\n  dup5\n    /* \"#utility.yul\":3657:3661   */\n  dup5\n    /* \"#utility.yul\":3613:3678   */\n  tag_31\n  jump\t// in\ntag_82:\n    /* \"#utility.yul\":3548:3684   */\n  pop\n    /* \"#utility.yul\":3495:3684   */\n  pop\n  pop\n  jump\t// out\n    /* \"#utility.yul\":3690:3876   */\ntag_34:\n    /* \"#utility.yul\":3750:3870   */\ntag_84:\n    /* \"#utility.yul\":3767:3770   */\n  dup2\n    /* \"#utility.yul\":3760:3765   */\n  dup2\n    /* \"#utility.yul\":3757:3771   */\n  lt\n    /* \"#utility.yul\":3750:3870   */\n  iszero\n  tag_86\n  jumpi\n    /* \"#utility.yul\":3821:3860   */\n  tag_87\n    /* \"#utility.yul\":3858:3859   */\n  0x00\n    /* \"#utility.yul\":3851:3856   */\n  dup3\n    /* \"#utility.yul\":3821:3860   */\n  tag_33\n  jump\t// in\ntag_87:\n    /* \"#utility.yul\":3794:3795   */\n  0x01\n    /* \"#utility.yul\":3787:3792   */\n  dup2\n    /* \"#utility.yul\":3783:3796   */\n  add\n    /* \"#utility.yul\":3774:3796   */\n  swap1\n  pop\n    /* \"#utility.yul\":3750:3870   */\n  jump(tag_84)\ntag_86:\n    /* \"#utility.yul\":3690:3876   */\n  pop\n  pop\n  jump\t// out\n    /* \"#utility.yul\":3882:4425   */\ntag_35:\n    /* \"#utility.yul\":3983:3985   */\n  0x1f\n    /* \"#utility.yul\":3978:3981   */\n  dup3\n    /* \"#utility.yul\":3975:3986   */\n  gt\n    /* \"#utility.yul\":3972:4418   */\n  iszero\n  tag_89\n  jumpi\n    /* \"#utility.yul\":4017:4055   */\n  tag_90\n    /* \"#utility.yul\":4049:4054   */\n  dup2\n    /* \"#utility.yul\":4017:4055   */\n  tag_23\n  jump\t// in\ntag_90:\n    /* \"#utility.yul\":4101:4130   */\n  tag_91\n    /* \"#utility.yul\":4119:4129   */\n  dup5\n    /* \"#utility.yul\":4101:4130   */\n  tag_24\n  jump\t// in\ntag_91:\n    /* \"#utility.yul\":4091:4099   */\n  dup2\n    /* \"#utility.yul\":4087:4131   */\n  add\n    /* \"#utility.yul\":4284:4286   */\n  0x20\n    /* \"#utility.yul\":4272:4282   */\n  dup6\n    /* \"#utility.yul\":4269:4287   */\n  lt\n    /* \"#utility.yul\":4266:4315   */\n  iszero\n  tag_92\n  jumpi\n    /* \"#utility.yul\":4305:4313   */\n  dup2\n    /* \"#utility.yul\":4290:4313   */\n  swap1\n  pop\n    /* \"#utility.yul\":4266:4315   */\ntag_92:\n    /* \"#utility.yul\":4328:4408   */\n  tag_93\n    /* \"#utility.yul\":4384:4406   */\n  tag_94\n    /* \"#utility.yul\":4402:4405   */\n  dup6\n    /* \"#utility.yul\":4384:4406   */\n  tag_24\n  jump\t// in\ntag_94:\n    /* \"#utility.yul\":4374:4382   */\n  dup4\n    /* \"#utility.yul\":4370:4407   */\n  add\n    /* \"#utility.yul\":4357:4368   */\n  dup3\n    /* \"#utility.yul\":4328:4408   */\n  tag_34\n  jump\t// in\ntag_93:\n    /* \"#utility.yul\":3987:4418   */\n  pop\n  pop\n    /* \"#utility.yul\":3972:4418   */\ntag_89:\n    /* \"#utility.yul\":3882:4425   */\n  pop\n  pop\n  pop\n  jump\t// out\n    /* \"#utility.yul\":4431:4548   */\ntag_36:\n    /* \"#utility.yul\":4485:4493   */\n  0x00\n    /* \"#utility.yul\":4535:4540   */\n  dup3\n    /* \"#utility.yul\":4529:4533   */\n  dup3\n    /* \"#utility.yul\":4525:4541   */\n  shr\n    /* \"#utility.yul\":4504:4541   */\n  swap1\n  pop\n    /* \"#utility.yul\":4431:4548   */\n  swap3\n  swap2\n  pop\n  pop\n  jump\t// out\n    /* \"#utility.yul\":4554:4723   */\ntag_37:\n    /* \"#utility.yul\":4598:4604   */\n  0x00\n    /* \"#utility.yul\":4631:4682   */\n  tag_97\n    /* \"#utility.yul\":4679:4680   */\n  0x00\n    /* \"#utility.yul\":4675:4681   */\n  not\n    /* \"#utility.yul\":4667:4672   */\n  dup5\n    /* \"#utility.yul\":4664:4665   */\n  0x08\n    /* \"#utility.yul\":4660:4673   */\n  mul\n    /* \"#utility.yul\":4631:4682   */\n  tag_36\n  jump\t// in\ntag_97:\n    /* \"#utility.yul\":4627:4683   */\n  not\n    /* \"#utility.yul\":4712:4716   */\n  dup1\n    /* \"#utility.yul\":4706:4710   */\n  dup4\n    /* \"#utility.yul\":4702:4717   */\n  and\n    /* \"#utility.yul\":4692:4717   */\n  swap2\n  pop\n    /* \"#utility.yul\":4605:4723   */\n  pop\n    /* \"#utility.yul\":4554:4723   */\n  swap3\n  swap2\n  pop\n  pop\n  jump\t// out\n    /* \"#utility.yul\":4728:5023   */\ntag_38:\n    /* \"#utility.yul\":4804:4808   */\n  0x00\n    /* \"#utility.yul\":4950:4979   */\n  tag_99\n    /* \"#utility.yul\":4975:4978   */\n  dup4\n    /* \"#utility.yul\":4969:4973   */\n  dup4\n    /* \"#utility.yul\":4950:4979   */\n  tag_37\n  jump\t// in\ntag_99:\n    /* \"#utility.yul\":4942:4979   */\n  swap2\n  pop\n    /* \"#utility.yul\":5012:5015   */\n  dup3\n    /* \"#utility.yul\":5009:5010   */\n  0x02\n    /* \"#utility.yul\":5005:5016   */\n  mul\n    /* \"#utility.yul\":4999:5003   */\n  dup3\n    /* \"#utility.yul\":4996:5017   */\n  or\n    /* \"#utility.yul\":4988:5017   */\n  swap1\n  pop\n    /* \"#utility.yul\":4728:5023   */\n  swap3\n  swap2\n  pop\n  pop\n  jump\t// out\n    /* \"#utility.yul\":5028:6423   */\ntag_8:\n    /* \"#utility.yul\":5145:5182   */\n  tag_101\n    /* \"#utility.yul\":5178:5181   */\n  dup3\n    /* \"#utility.yul\":5145:5182   */\n  tag_19\n  jump\t// in\ntag_101:\n    /* \"#utility.yul\":5247:5265   */\n  0xffffffffffffffff\n    /* \"#utility.yul\":5239:5245   */\n  dup2\n    /* \"#utility.yul\":5236:5266   */\n  gt\n    /* \"#utility.yul\":5233:5289   */\n  iszero\n  tag_102\n  jumpi\n    /* \"#utility.yul\":5269:5287   */\n  tag_103\n  tag_20\n  jump\t// in\ntag_103:\n    /* \"#utility.yul\":5233:5289   */\ntag_102:\n    /* \"#utility.yul\":5313:5351   */\n  tag_104\n    /* \"#utility.yul\":5345:5349   */\n  dup3\n    /* \"#utility.yul\":5339:5350   */\n  sload\n    /* \"#utility.yul\":5313:5351   */\n  tag_22\n  jump\t// in\ntag_104:\n    /* \"#utility.yul\":5398:5465   */\n  tag_105\n    /* \"#utility.yul\":5458:5464   */\n  dup3\n    /* \"#utility.yul\":5450:5456   */\n  dup3\n    /* \"#utility.yul\":5444:5448   */\n  dup6\n    /* \"#utility.yul\":5398:5465   */\n  tag_35\n  jump\t// in\ntag_105:\n    /* \"#utility.yul\":5492:5493   */\n  0x00\n    /* \"#utility.yul\":5516:5520   */\n  0x20\n    /* \"#utility.yul\":5503:5520   */\n  swap1\n  pop\n    /* \"#utility.yul\":5548:5550   */\n  0x1f\n    /* \"#utility.yul\":5540:5546   */\n  dup4\n    /* \"#utility.yul\":5537:5551   */\n  gt\n    /* \"#utility.yul\":5565:5566   */\n  0x01\n    /* \"#utility.yul\":5560:6178   */\n  dup2\n  eq\n  tag_107\n  jumpi\n    /* \"#utility.yul\":6222:6223   */\n  0x00\n    /* \"#utility.yul\":6239:6245   */\n  dup5\n    /* \"#utility.yul\":6236:6313   */\n  iszero\n  tag_108\n  jumpi\n    /* \"#utility.yul\":6288:6297   */\n  dup3\n    /* \"#utility.yul\":6283:6286   */\n  dup8\n    /* \"#utility.yul\":6279:6298   */\n  add\n    /* \"#utility.yul\":6273:6299   */\n  mload\n    /* \"#utility.yul\":6264:6299   */\n  swap1\n  pop\n    /* \"#utility.yul\":6236:6313   */\ntag_108:\n    /* \"#utility.yul\":6339:6406   */\n  tag_109\n    /* \"#utility.yul\":6399:6405   */\n  dup6\n    /* \"#utility.yul\":6392:6397   */\n  dup3\n    /* \"#utility.yul\":6339:6406   */\n  tag_38\n  jump\t// in\ntag_109:\n    /* \"#utility.yul\":6333:6337   */\n  dup7\n    /* \"#utility.yul\":6326:6407   */\n  sstore\n    /* \"#utility.yul\":6195:6417   */\n  pop\n    /* \"#utility.yul\":5530:6417   */\n  jump(tag_106)\n    /* \"#utility.yul\":5560:6178   */\ntag_107:\n    /* \"#utility.yul\":5612:5616   */\n  0x1f\n    /* \"#utility.yul\":5608:5617   */\n  not\n    /* \"#utility.yul\":5600:5606   */\n  dup5\n    /* \"#utility.yul\":5596:5618   */\n  and\n    /* \"#utility.yul\":5646:5683   */\n  tag_110\n    /* \"#utility.yul\":5678:5682   */\n  dup7\n    /* \"#utility.yul\":5646:5683   */\n  tag_23\n  jump\t// in\ntag_110:\n    /* \"#utility.yul\":5705:5706   */\n  0x00\n    /* \"#utility.yul\":5719:5927   */\ntag_111:\n    /* \"#utility.yul\":5733:5740   */\n  dup3\n    /* \"#utility.yul\":5730:5731   */\n  dup2\n    /* \"#utility.yul\":5727:5741   */\n  lt\n    /* \"#utility.yul\":5719:5927   */\n  iszero\n  tag_113\n  jumpi\n    /* \"#utility.yul\":5812:5821   */\n  dup5\n    /* \"#utility.yul\":5807:5810   */\n  dup10\n    /* \"#utility.yul\":5803:5822   */\n  add\n    /* \"#utility.yul\":5797:5823   */\n  mload\n    /* \"#utility.yul\":5789:5795   */\n  dup3\n    /* \"#utility.yul\":5782:5824   */\n  sstore\n    /* \"#utility.yul\":5863:5864   */\n  0x01\n    /* \"#utility.yul\":5855:5861   */\n  dup3\n    /* \"#utility.yul\":5851:5865   */\n  add\n    /* \"#utility.yul\":5841:5865   */\n  swap2\n  pop\n    /* \"#utility.yul\":5910:5912   */\n  0x20\n    /* \"#utility.yul\":5899:5908   */\n  dup6\n    /* \"#utility.yul\":5895:5913   */\n  add\n    /* \"#utility.yul\":5882:5913   */\n  swap5\n  pop\n    /* \"#utility.yul\":5756:5760   */\n  0x20\n    /* \"#utility.yul\":5753:5754   */\n  dup2\n    /* \"#utility.yul\":5749:5761   */\n  add\n    /* \"#utility.yul\":5744:5761   */\n  swap1\n  pop\n    /* \"#utility.yul\":5719:5927   */\n  jump(tag_111)\ntag_113:\n    /* \"#utility.yul\":5955:5961   */\n  dup7\n    /* \"#utility.yul\":5946:5953   */\n  dup4\n    /* \"#utility.yul\":5943:5962   */\n  lt\n    /* \"#utility.yul\":5940:6119   */\n  iszero\n  tag_114\n  jumpi\n    /* \"#utility.yul\":6013:6022   */\n  dup5\n    /* \"#utility.yul\":6008:6011   */\n  dup10\n    /* \"#utility.yul\":6004:6023   */\n  add\n    /* \"#utility.yul\":5998:6024   */\n  mload\n    /* \"#utility.yul\":6056:6104   */\n  tag_115\n    /* \"#utility.yul\":6098:6102   */\n  0x1f\n    /* \"#utility.yul\":6090:6096   */\n  dup10\n    /* \"#utility.yul\":6086:6103   */\n  and\n    /* \"#utility.yul\":6075:6084   */\n  dup3\n    /* \"#utility.yul\":6056:6104   */\n  tag_37\n  jump\t// in\ntag_115:\n    /* \"#utility.yul\":6048:6054   */\n  dup4\n    /* \"#utility.yul\":6041:6105   */\n  sstore\n    /* \"#utility.yul\":5963:6119   */\n  pop\n    /* \"#utility.yul\":5940:6119   */\ntag_114:\n    /* \"#utility.yul\":6165:6166   */\n  0x01\n    /* \"#utility.yul\":6161:6162   */\n  0x02\n    /* \"#utility.yul\":6153:6159   */\n  dup9\n    /* \"#utility.yul\":6149:6163   */\n  mul\n    /* \"#utility.yul\":6145:6167   */\n  add\n    /* \"#utility.yul\":6139:6143   */\n  dup9\n    /* \"#utility.yul\":6132:6168   */\n  sstore\n    /* \"#utility.yul\":5567:6178   */\n  pop\n  pop\n  pop\n    /* \"#utility.yul\":5530:6417   */\ntag_106:\n  pop\n    /* \"#utility.yul\":5120:6423   */\n  pop\n  pop\n  pop\n    /* \"#utility.yul\":5028:6423   */\n  pop\n  pop\n  jump\t// out\n    /* \"contracts/FundTokenErc20_flattened.sol\":27376:28802  contract FundTokenErc20 is ERC20 {... */\ntag_11:\n  dataSize(sub_0)\n  dup1\n  dataOffset(sub_0)\n  0x00\n  codecopy\n  0x00\n  return\nstop\n\nsub_0: assembly {\n        /* \"contracts/FundTokenErc20_flattened.sol\":27376:28802  contract FundTokenErc20 is ERC20 {... */\n      mstore(0x40, 0x80)\n      callvalue\n      dup1\n      iszero\n      tag_1\n      jumpi\n      0x00\n      dup1\n      revert\n    tag_1:\n      pop\n      jumpi(tag_2, lt(calldatasize, 0x04))\n      shr(0xe0, calldataload(0x00))\n      dup1\n      0x379607f5\n      gt\n      tag_14\n      jumpi\n      dup1\n      0x379607f5\n      eq\n      tag_8\n      jumpi\n      dup1\n      0x70a08231\n      eq\n      tag_9\n      jumpi\n      dup1\n      0x95d89b41\n      eq\n      tag_10\n      jumpi\n      dup1\n      0xa0712d68\n      eq\n      tag_11\n      jumpi\n      dup1\n      0xa9059cbb\n      eq\n      tag_12\n      jumpi\n      dup1\n      0xdd62ed3e\n      eq\n      tag_13\n      jumpi\n      jump(tag_2)\n    tag_14:\n      dup1\n      0x06fdde03\n      eq\n      tag_3\n      jumpi\n      dup1\n      0x095ea7b3\n      eq\n      tag_4\n      jumpi\n      dup1\n      0x18160ddd\n      eq\n      tag_5\n      jumpi\n      dup1\n      0x23b872dd\n      eq\n      tag_6\n      jumpi\n      dup1\n      0x313ce567\n      eq\n      tag_7\n      jumpi\n    tag_2:\n      0x00\n      dup1\n      revert\n        /* \"contracts/FundTokenErc20_flattened.sol\":12648:12737  function name() public view virtual returns (string memory) {... */\n    tag_3:\n      tag_15\n      tag_16\n      jump\t// in\n    tag_15:\n      mload(0x40)\n      tag_17\n      swap2\n      swap1\n      tag_18\n      jump\t// in\n    tag_17:\n      mload(0x40)\n      dup1\n      swap2\n      sub\n      swap1\n      return\n        /* \"contracts/FundTokenErc20_flattened.sol\":14867:15053  function approve(address spender, uint256 value) public virtual returns (bool) {... */\n    tag_4:\n      tag_19\n      0x04\n      dup1\n      calldatasize\n      sub\n      dup2\n      add\n      swap1\n      tag_20\n      swap2\n      swap1\n      tag_21\n      jump\t// in\n    tag_20:\n      tag_22\n      jump\t// in\n    tag_19:\n      mload(0x40)\n      tag_23\n      swap2\n      swap1\n      tag_24\n      jump\t// in\n    tag_23:\n      mload(0x40)\n      dup1\n      swap2\n      sub\n      swap1\n      return\n        /* \"contracts/FundTokenErc20_flattened.sol\":13718:13815  function totalSupply() public view virtual returns (uint256) {... */\n    tag_5:\n      tag_25\n      tag_26\n      jump\t// in\n    tag_25:\n      mload(0x40)\n      tag_27\n      swap2\n      swap1\n      tag_28\n      jump\t// in\n    tag_27:\n      mload(0x40)\n      dup1\n      swap2\n      sub\n      swap1\n      return\n        /* \"contracts/FundTokenErc20_flattened.sol\":15645:15889  function transferFrom(address from, address to, uint256 value) public virtual returns (bool) {... */\n    tag_6:\n      tag_29\n      0x04\n      dup1\n      calldatasize\n      sub\n      dup2\n      add\n      swap1\n      tag_30\n      swap2\n      swap1\n      tag_31\n      jump\t// in\n    tag_30:\n      tag_32\n      jump\t// in\n    tag_29:\n      mload(0x40)\n      tag_33\n      swap2\n      swap1\n      tag_24\n      jump\t// in\n    tag_33:\n      mload(0x40)\n      dup1\n      swap2\n      sub\n      swap1\n      return\n        /* \"contracts/FundTokenErc20_flattened.sol\":13576:13658  function decimals() public view virtual returns (uint8) {... */\n    tag_7:\n      tag_34\n      tag_35\n      jump\t// in\n    tag_34:\n      mload(0x40)\n      tag_36\n      swap2\n      swap1\n      tag_37\n      jump\t// in\n    tag_36:\n      mload(0x40)\n      dup1\n      swap2\n      sub\n      swap1\n      return\n        /* \"contracts/FundTokenErc20_flattened.sol\":28294:28800  function claim(uint256 amountToClaim) public {... */\n    tag_8:\n      tag_38\n      0x04\n      dup1\n      calldatasize\n      sub\n      dup2\n      add\n      swap1\n      tag_39\n      swap2\n      swap1\n      tag_40\n      jump\t// in\n    tag_39:\n      tag_41\n      jump\t// in\n    tag_38:\n      stop\n        /* \"contracts/FundTokenErc20_flattened.sol\":13873:13989  function balanceOf(address account) public view virtual returns (uint256) {... */\n    tag_9:\n      tag_42\n      0x04\n      dup1\n      calldatasize\n      sub\n      dup2\n      add\n      swap1\n      tag_43\n      swap2\n      swap1\n      tag_44\n      jump\t// in\n    tag_43:\n      tag_45\n      jump\t// in\n    tag_42:\n      mload(0x40)\n      tag_46\n      swap2\n      swap1\n      tag_28\n      jump\t// in\n    tag_46:\n      mload(0x40)\n      dup1\n      swap2\n      sub\n      swap1\n      return\n        /* \"contracts/FundTokenErc20_flattened.sol\":12850:12943  function symbol() public view virtual returns (string memory) {... */\n    tag_10:\n      tag_47\n      tag_48\n      jump\t// in\n    tag_47:\n      mload(0x40)\n      tag_49\n      swap2\n      swap1\n      tag_18\n      jump\t// in\n    tag_49:\n      mload(0x40)\n      dup1\n      swap2\n      sub\n      swap1\n      return\n        /* \"contracts/FundTokenErc20_flattened.sol\":27844:28275  function mint(uint256 amountToMint) public  {... */\n    tag_11:\n      tag_50\n      0x04\n      dup1\n      calldatasize\n      sub\n      dup2\n      add\n      swap1\n      tag_51\n      swap2\n      swap1\n      tag_40\n      jump\t// in\n    tag_51:\n      tag_52\n      jump\t// in\n    tag_50:\n      stop\n        /* \"contracts/FundTokenErc20_flattened.sol\":14184:14362  function transfer(address to, uint256 value) public virtual returns (bool) {... */\n    tag_12:\n      tag_53\n      0x04\n      dup1\n      calldatasize\n      sub\n      dup2\n      add\n      swap1\n      tag_54\n      swap2\n      swap1\n      tag_21\n      jump\t// in\n    tag_54:\n      tag_55\n      jump\t// in\n    tag_53:\n      mload(0x40)\n      tag_56\n      swap2\n      swap1\n      tag_24\n      jump\t// in\n    tag_56:\n      mload(0x40)\n      dup1\n      swap2\n      sub\n      swap1\n      return\n        /* \"contracts/FundTokenErc20_flattened.sol\":14420:14560  function allowance(address owner, address spender) public view virtual returns (uint256) {... */\n    tag_13:\n      tag_57\n      0x04\n      dup1\n      calldatasize\n      sub\n      dup2\n      add\n      swap1\n      tag_58\n      swap2\n      swap1\n      tag_59\n      jump\t// in\n    tag_58:\n      tag_60\n      jump\t// in\n    tag_57:\n      mload(0x40)\n      tag_61\n      swap2\n      swap1\n      tag_28\n      jump\t// in\n    tag_61:\n      mload(0x40)\n      dup1\n      swap2\n      sub\n      swap1\n      return\n        /* \"contracts/FundTokenErc20_flattened.sol\":12648:12737  function name() public view virtual returns (string memory) {... */\n    tag_16:\n        /* \"contracts/FundTokenErc20_flattened.sol\":12693:12706  string memory */\n      0x60\n        /* \"contracts/FundTokenErc20_flattened.sol\":12725:12730  _name */\n      0x03\n        /* \"contracts/FundTokenErc20_flattened.sol\":12718:12730  return _name */\n      dup1\n      sload\n      tag_63\n      swap1\n      tag_64\n      jump\t// in\n    tag_63:\n      dup1\n      0x1f\n      add\n      0x20\n      dup1\n      swap2\n      div\n      mul\n      0x20\n      add\n      mload(0x40)\n      swap1\n      dup2\n      add\n      0x40\n      mstore\n      dup1\n      swap3\n      swap2\n      swap1\n      dup2\n      dup2\n      mstore\n      0x20\n      add\n      dup3\n      dup1\n      sload\n      tag_65\n      swap1\n      tag_64\n      jump\t// in\n    tag_65:\n      dup1\n      iszero\n      tag_66\n      jumpi\n      dup1\n      0x1f\n      lt\n      tag_67\n      jumpi\n      0x0100\n      dup1\n      dup4\n      sload\n      div\n      mul\n      dup4\n      mstore\n      swap2\n      0x20\n      add\n      swap2\n      jump(tag_66)\n    tag_67:\n      dup3\n      add\n      swap2\n      swap1\n      0x00\n      mstore\n      keccak256(0x00, 0x20)\n      swap1\n    tag_68:\n      dup2\n      sload\n      dup2\n      mstore\n      swap1\n      0x01\n      add\n      swap1\n      0x20\n      add\n      dup1\n      dup4\n      gt\n      tag_68\n      jumpi\n      dup3\n      swap1\n      sub\n      0x1f\n      and\n      dup3\n      add\n      swap2\n    tag_66:\n      pop\n      pop\n      pop\n      pop\n      pop\n      swap1\n      pop\n        /* \"contracts/FundTokenErc20_flattened.sol\":12648:12737  function name() public view virtual returns (string memory) {... */\n      swap1\n      jump\t// out\n        /* \"contracts/FundTokenErc20_flattened.sol\":14867:15053  function approve(address spender, uint256 value) public virtual returns (bool) {... */\n    tag_22:\n        /* \"contracts/FundTokenErc20_flattened.sol\":14940:14944  bool */\n      0x00\n        /* \"contracts/FundTokenErc20_flattened.sol\":14956:14969  address owner */\n      dup1\n        /* \"contracts/FundTokenErc20_flattened.sol\":14972:14984  _msgSender() */\n      tag_70\n        /* \"contracts/FundTokenErc20_flattened.sol\":14972:14982  _msgSender */\n      tag_71\n        /* \"contracts/FundTokenErc20_flattened.sol\":14972:14984  _msgSender() */\n      jump\t// in\n    tag_70:\n        /* \"contracts/FundTokenErc20_flattened.sol\":14956:14984  address owner = _msgSender() */\n      swap1\n      pop\n        /* \"contracts/FundTokenErc20_flattened.sol\":14994:15025  _approve(owner, spender, value) */\n      tag_72\n        /* \"contracts/FundTokenErc20_flattened.sol\":15003:15008  owner */\n      dup2\n        /* \"contracts/FundTokenErc20_flattened.sol\":15010:15017  spender */\n      dup6\n        /* \"contracts/FundTokenErc20_flattened.sol\":15019:15024  value */\n      dup6\n        /* \"contracts/FundTokenErc20_flattened.sol\":14994:15002  _approve */\n      tag_73\n        /* \"contracts/FundTokenErc20_flattened.sol\":14994:15025  _approve(owner, spender, value) */\n      jump\t// in\n    tag_72:\n        /* \"contracts/FundTokenErc20_flattened.sol\":15042:15046  true */\n      0x01\n        /* \"contracts/FundTokenErc20_flattened.sol\":15035:15046  return true */\n      swap2\n      pop\n      pop\n        /* \"contracts/FundTokenErc20_flattened.sol\":14867:15053  function approve(address spender, uint256 value) public virtual returns (bool) {... */\n      swap3\n      swap2\n      pop\n      pop\n      jump\t// out\n        /* \"contracts/FundTokenErc20_flattened.sol\":13718:13815  function totalSupply() public view virtual returns (uint256) {... */\n    tag_26:\n        /* \"contracts/FundTokenErc20_flattened.sol\":13770:13777  uint256 */\n      0x00\n        /* \"contracts/FundTokenErc20_flattened.sol\":13796:13808  _totalSupply */\n      sload(0x02)\n        /* \"contracts/FundTokenErc20_flattened.sol\":13789:13808  return _totalSupply */\n      swap1\n      pop\n        /* \"contracts/FundTokenErc20_flattened.sol\":13718:13815  function totalSupply() public view virtual returns (uint256) {... */\n      swap1\n      jump\t// out\n        /* \"contracts/FundTokenErc20_flattened.sol\":15645:15889  function transferFrom(address from, address to, uint256 value) public virtual returns (bool) {... */\n    tag_32:\n        /* \"contracts/FundTokenErc20_flattened.sol\":15732:15736  bool */\n      0x00\n        /* \"contracts/FundTokenErc20_flattened.sol\":15748:15763  address spender */\n      dup1\n        /* \"contracts/FundTokenErc20_flattened.sol\":15766:15778  _msgSender() */\n      tag_76\n        /* \"contracts/FundTokenErc20_flattened.sol\":15766:15776  _msgSender */\n      tag_71\n        /* \"contracts/FundTokenErc20_flattened.sol\":15766:15778  _msgSender() */\n      jump\t// in\n    tag_76:\n        /* \"contracts/FundTokenErc20_flattened.sol\":15748:15778  address spender = _msgSender() */\n      swap1\n      pop\n        /* \"contracts/FundTokenErc20_flattened.sol\":15788:15825  _spendAllowance(from, spender, value) */\n      tag_77\n        /* \"contracts/FundTokenErc20_flattened.sol\":15804:15808  from */\n      dup6\n        /* \"contracts/FundTokenErc20_flattened.sol\":15810:15817  spender */\n      dup3\n        /* \"contracts/FundTokenErc20_flattened.sol\":15819:15824  value */\n      dup6\n        /* \"contracts/FundTokenErc20_flattened.sol\":15788:15803  _spendAllowance */\n      tag_78\n        /* \"contracts/FundTokenErc20_flattened.sol\":15788:15825  _spendAllowance(from, spender, value) */\n      jump\t// in\n    tag_77:\n        /* \"contracts/FundTokenErc20_flattened.sol\":15835:15861  _transfer(from, to, value) */\n      tag_79\n        /* \"contracts/FundTokenErc20_flattened.sol\":15845:15849  from */\n      dup6\n        /* \"contracts/FundTokenErc20_flattened.sol\":15851:15853  to */\n      dup6\n        /* \"contracts/FundTokenErc20_flattened.sol\":15855:15860  value */\n      dup6\n        /* \"contracts/FundTokenErc20_flattened.sol\":15835:15844  _transfer */\n      tag_80\n        /* \"contracts/FundTokenErc20_flattened.sol\":15835:15861  _transfer(from, to, value) */\n      jump\t// in\n    tag_79:\n        /* \"contracts/FundTokenErc20_flattened.sol\":15878:15882  true */\n      0x01\n        /* \"contracts/FundTokenErc20_flattened.sol\":15871:15882  return true */\n      swap2\n      pop\n      pop\n        /* \"contracts/FundTokenErc20_flattened.sol\":15645:15889  function transferFrom(address from, address to, uint256 value) public virtual returns (bool) {... */\n      swap4\n      swap3\n      pop\n      pop\n      pop\n      jump\t// out\n        /* \"contracts/FundTokenErc20_flattened.sol\":13576:13658  function decimals() public view virtual returns (uint8) {... */\n    tag_35:\n        /* \"contracts/FundTokenErc20_flattened.sol\":13625:13630  uint8 */\n      0x00\n        /* \"contracts/FundTokenErc20_flattened.sol\":13649:13651  18 */\n      0x12\n        /* \"contracts/FundTokenErc20_flattened.sol\":13642:13651  return 18 */\n      swap1\n      pop\n        /* \"contracts/FundTokenErc20_flattened.sol\":13576:13658  function decimals() public view virtual returns (uint8) {... */\n      swap1\n      jump\t// out\n        /* \"contracts/FundTokenErc20_flattened.sol\":28294:28800  function claim(uint256 amountToClaim) public {... */\n    tag_41:\n        /* \"contracts/FundTokenErc20_flattened.sol\":28499:28512  amountToClaim */\n      dup1\n        /* \"contracts/FundTokenErc20_flattened.sol\":28474:28495  balanceOf(msg.sender) */\n      tag_83\n        /* \"contracts/FundTokenErc20_flattened.sol\":28484:28494  msg.sender */\n      caller\n        /* \"contracts/FundTokenErc20_flattened.sol\":28474:28483  balanceOf */\n      tag_45\n        /* \"contracts/FundTokenErc20_flattened.sol\":28474:28495  balanceOf(msg.sender) */\n      jump\t// in\n    tag_83:\n        /* \"contracts/FundTokenErc20_flattened.sol\":28474:28512  balanceOf(msg.sender) >= amountToClaim */\n      lt\n      iszero\n        /* \"contracts/FundTokenErc20_flattened.sol\":28466:28549  require(balanceOf(msg.sender) >= amountToClaim,\"you dont have enough Erc20 tokens\") */\n      tag_84\n      jumpi\n      mload(0x40)\n      0x08c379a000000000000000000000000000000000000000000000000000000000\n      dup2\n      mstore\n      0x04\n      add\n      tag_85\n      swap1\n      tag_86\n      jump\t// in\n    tag_85:\n      mload(0x40)\n      dup1\n      swap2\n      sub\n      swap1\n      revert\n    tag_84:\n        /* \"contracts/FundTokenErc20_flattened.sol\":28567:28573  fundMe */\n      0x05\n      0x00\n      swap1\n      sload\n      swap1\n      0x0100\n      exp\n      swap1\n      div\n      0xffffffffffffffffffffffffffffffffffffffff\n      and\n        /* \"contracts/FundTokenErc20_flattened.sol\":28567:28588  fundMe.getFundSuccess */\n      0xffffffffffffffffffffffffffffffffffffffff\n      and\n      0xda4658e0\n        /* \"contracts/FundTokenErc20_flattened.sol\":28567:28590  fundMe.getFundSuccess() */\n      mload(0x40)\n      dup2\n      0xffffffff\n      and\n      0xe0\n      shl\n      dup2\n      mstore\n      0x04\n      add\n      0x20\n      mload(0x40)\n      dup1\n      dup4\n      sub\n      dup2\n      dup7\n      gas\n      staticcall\n      iszero\n      dup1\n      iszero\n      tag_88\n      jumpi\n      returndatasize\n      0x00\n      dup1\n      returndatacopy\n      revert(0x00, returndatasize)\n    tag_88:\n      pop\n      pop\n      pop\n      pop\n      mload(0x40)\n      returndatasize\n      not(0x1f)\n      0x1f\n      dup3\n      add\n      and\n      dup3\n      add\n      dup1\n      0x40\n      mstore\n      pop\n      dup2\n      add\n      swap1\n      tag_89\n      swap2\n      swap1\n      tag_90\n      jump\t// in\n    tag_89:\n        /* \"contracts/FundTokenErc20_flattened.sol\":28559:28625  require(fundMe.getFundSuccess(),\"The fundMe is not completed yet\") */\n      tag_91\n      jumpi\n      mload(0x40)\n      0x08c379a000000000000000000000000000000000000000000000000000000000\n      dup2\n      mstore\n      0x04\n      add\n      tag_92\n      swap1\n      tag_93\n      jump\t// in\n    tag_92:\n      mload(0x40)\n      dup1\n      swap2\n      sub\n      swap1\n      revert\n    tag_91:\n        /* \"contracts/FundTokenErc20_flattened.sol\":28762:28793  _burn(msg.sender,amountToClaim) */\n      tag_94\n        /* \"contracts/FundTokenErc20_flattened.sol\":28768:28778  msg.sender */\n      caller\n        /* \"contracts/FundTokenErc20_flattened.sol\":28779:28792  amountToClaim */\n      dup3\n        /* \"contracts/FundTokenErc20_flattened.sol\":28762:28767  _burn */\n      tag_95\n        /* \"contracts/FundTokenErc20_flattened.sol\":28762:28793  _burn(msg.sender,amountToClaim) */\n      jump\t// in\n    tag_94:\n        /* \"contracts/FundTokenErc20_flattened.sol\":28294:28800  function claim(uint256 amountToClaim) public {... */\n      pop\n      jump\t// out\n        /* \"contracts/FundTokenErc20_flattened.sol\":13873:13989  function balanceOf(address account) public view virtual returns (uint256) {... */\n    tag_45:\n        /* \"contracts/FundTokenErc20_flattened.sol\":13938:13945  uint256 */\n      0x00\n        /* \"contracts/FundTokenErc20_flattened.sol\":13964:13973  _balances */\n      dup1\n        /* \"contracts/FundTokenErc20_flattened.sol\":13964:13982  _balances[account] */\n      0x00\n        /* \"contracts/FundTokenErc20_flattened.sol\":13974:13981  account */\n      dup4\n        /* \"contracts/FundTokenErc20_flattened.sol\":13964:13982  _balances[account] */\n      0xffffffffffffffffffffffffffffffffffffffff\n      and\n      0xffffffffffffffffffffffffffffffffffffffff\n      and\n      dup2\n      mstore\n      0x20\n      add\n      swap1\n      dup2\n      mstore\n      0x20\n      add\n      0x00\n      keccak256\n      sload\n        /* \"contracts/FundTokenErc20_flattened.sol\":13957:13982  return _balances[account] */\n      swap1\n      pop\n        /* \"contracts/FundTokenErc20_flattened.sol\":13873:13989  function balanceOf(address account) public view virtual returns (uint256) {... */\n      swap2\n      swap1\n      pop\n      jump\t// out\n        /* \"contracts/FundTokenErc20_flattened.sol\":12850:12943  function symbol() public view virtual returns (string memory) {... */\n    tag_48:\n        /* \"contracts/FundTokenErc20_flattened.sol\":12897:12910  string memory */\n      0x60\n        /* \"contracts/FundTokenErc20_flattened.sol\":12929:12936  _symbol */\n      0x04\n        /* \"contracts/FundTokenErc20_flattened.sol\":12922:12936  return _symbol */\n      dup1\n      sload\n      tag_98\n      swap1\n      tag_64\n      jump\t// in\n    tag_98:\n      dup1\n      0x1f\n      add\n      0x20\n      dup1\n      swap2\n      div\n      mul\n      0x20\n      add\n      mload(0x40)\n      swap1\n      dup2\n      add\n      0x40\n      mstore\n      dup1\n      swap3\n      swap2\n      swap1\n      dup2\n      dup2\n      mstore\n      0x20\n      add\n      dup3\n      dup1\n      sload\n      tag_99\n      swap1\n      tag_64\n      jump\t// in\n    tag_99:\n      dup1\n      iszero\n      tag_100\n      jumpi\n      dup1\n      0x1f\n      lt\n      tag_101\n      jumpi\n      0x0100\n      dup1\n      dup4\n      sload\n      div\n      mul\n      dup4\n      mstore\n      swap2\n      0x20\n      add\n      swap2\n      jump(tag_100)\n    tag_101:\n      dup3\n      add\n      swap2\n      swap1\n      0x00\n      mstore\n      keccak256(0x00, 0x20)\n      swap1\n    tag_102:\n      dup2\n      sload\n      dup2\n      mstore\n      swap1\n      0x01\n      add\n      swap1\n      0x20\n      add\n      dup1\n      dup4\n      gt\n      tag_102\n      jumpi\n      dup3\n      swap1\n      sub\n      0x1f\n      and\n      dup3\n      add\n      swap2\n    tag_100:\n      pop\n      pop\n      pop\n      pop\n      pop\n      swap1\n      pop\n        /* \"contracts/FundTokenErc20_flattened.sol\":12850:12943  function symbol() public view virtual returns (string memory) {... */\n      swap1\n      jump\t// out\n        /* \"contracts/FundTokenErc20_flattened.sol\":27844:28275  function mint(uint256 amountToMint) public  {... */\n    tag_52:\n        /* \"contracts/FundTokenErc20_flattened.sol\":27944:27956  amountToMint */\n      dup1\n        /* \"contracts/FundTokenErc20_flattened.sol\":27907:27913  fundMe */\n      0x05\n      0x00\n      swap1\n      sload\n      swap1\n      0x0100\n      exp\n      swap1\n      div\n      0xffffffffffffffffffffffffffffffffffffffff\n      and\n        /* \"contracts/FundTokenErc20_flattened.sol\":27907:27928  fundMe.funderToAmount */\n      0xffffffffffffffffffffffffffffffffffffffff\n      and\n      0x4407e1e8\n        /* \"contracts/FundTokenErc20_flattened.sol\":27929:27939  msg.sender */\n      caller\n        /* \"contracts/FundTokenErc20_flattened.sol\":27907:27940  fundMe.funderToAmount(msg.sender) */\n      mload(0x40)\n      dup3\n      0xffffffff\n      and\n      0xe0\n      shl\n      dup2\n      mstore\n      0x04\n      add\n      tag_104\n      swap2\n      swap1\n      tag_105\n      jump\t// in\n    tag_104:\n      0x20\n      mload(0x40)\n      dup1\n      dup4\n      sub\n      dup2\n      dup7\n      gas\n      staticcall\n      iszero\n      dup1\n      iszero\n      tag_107\n      jumpi\n      returndatasize\n      0x00\n      dup1\n      returndatacopy\n      revert(0x00, returndatasize)\n    tag_107:\n      pop\n      pop\n      pop\n      pop\n      mload(0x40)\n      returndatasize\n      not(0x1f)\n      0x1f\n      dup3\n      add\n      and\n      dup3\n      add\n      dup1\n      0x40\n      mstore\n      pop\n      dup2\n      add\n      swap1\n      tag_108\n      swap2\n      swap1\n      tag_109\n      jump\t// in\n    tag_108:\n        /* \"contracts/FundTokenErc20_flattened.sol\":27907:27956  fundMe.funderToAmount(msg.sender) >= amountToMint */\n      lt\n      iszero\n        /* \"contracts/FundTokenErc20_flattened.sol\":27898:27994  require((fundMe.funderToAmount(msg.sender) >= amountToMint),\"you can not mint this many tokens\") */\n      tag_110\n      jumpi\n      mload(0x40)\n      0x08c379a000000000000000000000000000000000000000000000000000000000\n      dup2\n      mstore\n      0x04\n      add\n      tag_111\n      swap1\n      tag_112\n      jump\t// in\n    tag_111:\n      mload(0x40)\n      dup1\n      swap2\n      sub\n      swap1\n      revert\n    tag_110:\n        /* \"contracts/FundTokenErc20_flattened.sol\":28012:28018  fundMe */\n      0x05\n      0x00\n      swap1\n      sload\n      swap1\n      0x0100\n      exp\n      swap1\n      div\n      0xffffffffffffffffffffffffffffffffffffffff\n      and\n        /* \"contracts/FundTokenErc20_flattened.sol\":28012:28033  fundMe.getFundSuccess */\n      0xffffffffffffffffffffffffffffffffffffffff\n      and\n      0xda4658e0\n        /* \"contracts/FundTokenErc20_flattened.sol\":28012:28035  fundMe.getFundSuccess() */\n      mload(0x40)\n      dup2\n      0xffffffff\n      and\n      0xe0\n      shl\n      dup2\n      mstore\n      0x04\n      add\n      0x20\n      mload(0x40)\n      dup1\n      dup4\n      sub\n      dup2\n      dup7\n      gas\n      staticcall\n      iszero\n      dup1\n      iszero\n      tag_114\n      jumpi\n      returndatasize\n      0x00\n      dup1\n      returndatacopy\n      revert(0x00, returndatasize)\n    tag_114:\n      pop\n      pop\n      pop\n      pop\n      mload(0x40)\n      returndatasize\n      not(0x1f)\n      0x1f\n      dup3\n      add\n      and\n      dup3\n      add\n      dup1\n      0x40\n      mstore\n      pop\n      dup2\n      add\n      swap1\n      tag_115\n      swap2\n      swap1\n      tag_90\n      jump\t// in\n    tag_115:\n        /* \"contracts/FundTokenErc20_flattened.sol\":28004:28070  require(fundMe.getFundSuccess(),\"The fundMe is not completed yet\") */\n      tag_116\n      jumpi\n      mload(0x40)\n      0x08c379a000000000000000000000000000000000000000000000000000000000\n      dup2\n      mstore\n      0x04\n      add\n      tag_117\n      swap1\n      tag_93\n      jump\t// in\n    tag_117:\n      mload(0x40)\n      dup1\n      swap2\n      sub\n      swap1\n      revert\n    tag_116:\n        /* \"contracts/FundTokenErc20_flattened.sol\":28178:28208  _mint(msg.sender,amountToMint) */\n      tag_118\n        /* \"contracts/FundTokenErc20_flattened.sol\":28184:28194  msg.sender */\n      caller\n        /* \"contracts/FundTokenErc20_flattened.sol\":28195:28207  amountToMint */\n      dup3\n        /* \"contracts/FundTokenErc20_flattened.sol\":28178:28183  _mint */\n      tag_119\n        /* \"contracts/FundTokenErc20_flattened.sol\":28178:28208  _mint(msg.sender,amountToMint) */\n      jump\t// in\n    tag_118:\n        /* \"contracts/FundTokenErc20_flattened.sol\":28218:28224  fundMe */\n      0x05\n      0x00\n      swap1\n      sload\n      swap1\n      0x0100\n      exp\n      swap1\n      div\n      0xffffffffffffffffffffffffffffffffffffffff\n      and\n        /* \"contracts/FundTokenErc20_flattened.sol\":28218:28242  fundMe.setFunderToAmount */\n      0xffffffffffffffffffffffffffffffffffffffff\n      and\n      0xd39cf006\n        /* \"contracts/FundTokenErc20_flattened.sol\":28243:28253  msg.sender */\n      caller\n        /* \"contracts/FundTokenErc20_flattened.sol\":28255:28267  amountToMint */\n      dup4\n        /* \"contracts/FundTokenErc20_flattened.sol\":28218:28268  fundMe.setFunderToAmount(msg.sender, amountToMint) */\n      mload(0x40)\n      dup4\n      0xffffffff\n      and\n      0xe0\n      shl\n      dup2\n      mstore\n      0x04\n      add\n      tag_120\n      swap3\n      swap2\n      swap1\n      tag_121\n      jump\t// in\n    tag_120:\n      0x00\n      mload(0x40)\n      dup1\n      dup4\n      sub\n      dup2\n      0x00\n      dup8\n      dup1\n      extcodesize\n      iszero\n      dup1\n      iszero\n      tag_122\n      jumpi\n      0x00\n      dup1\n      revert\n    tag_122:\n      pop\n      gas\n      call\n      iszero\n      dup1\n      iszero\n      tag_124\n      jumpi\n      returndatasize\n      0x00\n      dup1\n      returndatacopy\n      revert(0x00, returndatasize)\n    tag_124:\n      pop\n      pop\n      pop\n      pop\n        /* \"contracts/FundTokenErc20_flattened.sol\":27844:28275  function mint(uint256 amountToMint) public  {... */\n      pop\n      jump\t// out\n        /* \"contracts/FundTokenErc20_flattened.sol\":14184:14362  function transfer(address to, uint256 value) public virtual returns (bool) {... */\n    tag_55:\n        /* \"contracts/FundTokenErc20_flattened.sol\":14253:14257  bool */\n      0x00\n        /* \"contracts/FundTokenErc20_flattened.sol\":14269:14282  address owner */\n      dup1\n        /* \"contracts/FundTokenErc20_flattened.sol\":14285:14297  _msgSender() */\n      tag_126\n        /* \"contracts/FundTokenErc20_flattened.sol\":14285:14295  _msgSender */\n      tag_71\n        /* \"contracts/FundTokenErc20_flattened.sol\":14285:14297  _msgSender() */\n      jump\t// in\n    tag_126:\n        /* \"contracts/FundTokenErc20_flattened.sol\":14269:14297  address owner = _msgSender() */\n      swap1\n      pop\n        /* \"contracts/FundTokenErc20_flattened.sol\":14307:14334  _transfer(owner, to, value) */\n      tag_127\n        /* \"contracts/FundTokenErc20_flattened.sol\":14317:14322  owner */\n      dup2\n        /* \"contracts/FundTokenErc20_flattened.sol\":14324:14326  to */\n      dup6\n        /* \"contracts/FundTokenErc20_flattened.sol\":14328:14333  value */\n      dup6\n        /* \"contracts/FundTokenErc20_flattened.sol\":14307:14316  _transfer */\n      tag_80\n        /* \"contracts/FundTokenErc20_flattened.sol\":14307:14334  _transfer(owner, to, value) */\n      jump\t// in\n    tag_127:\n        /* \"contracts/FundTokenErc20_flattened.sol\":14351:14355  true */\n      0x01\n        /* \"contracts/FundTokenErc20_flattened.sol\":14344:14355  return true */\n      swap2\n      pop\n      pop\n        /* \"contracts/FundTokenErc20_flattened.sol\":14184:14362  function transfer(address to, uint256 value) public virtual returns (bool) {... */\n      swap3\n      swap2\n      pop\n      pop\n      jump\t// out\n        /* \"contracts/FundTokenErc20_flattened.sol\":14420:14560  function allowance(address owner, address spender) public view virtual returns (uint256) {... */\n    tag_60:\n        /* \"contracts/FundTokenErc20_flattened.sol\":14500:14507  uint256 */\n      0x00\n        /* \"contracts/FundTokenErc20_flattened.sol\":14526:14537  _allowances */\n      0x01\n        /* \"contracts/FundTokenErc20_flattened.sol\":14526:14544  _allowances[owner] */\n      0x00\n        /* \"contracts/FundTokenErc20_flattened.sol\":14538:14543  owner */\n      dup5\n        /* \"contracts/FundTokenErc20_flattened.sol\":14526:14544  _allowances[owner] */\n      0xffffffffffffffffffffffffffffffffffffffff\n      and\n      0xffffffffffffffffffffffffffffffffffffffff\n      and\n      dup2\n      mstore\n      0x20\n      add\n      swap1\n      dup2\n      mstore\n      0x20\n      add\n      0x00\n      keccak256\n        /* \"contracts/FundTokenErc20_flattened.sol\":14526:14553  _allowances[owner][spender] */\n      0x00\n        /* \"contracts/FundTokenErc20_flattened.sol\":14545:14552  spender */\n      dup4\n        /* \"contracts/FundTokenErc20_flattened.sol\":14526:14553  _allowances[owner][spender] */\n      0xffffffffffffffffffffffffffffffffffffffff\n      and\n      0xffffffffffffffffffffffffffffffffffffffff\n      and\n      dup2\n      mstore\n      0x20\n      add\n      swap1\n      dup2\n      mstore\n      0x20\n      add\n      0x00\n      keccak256\n      sload\n        /* \"contracts/FundTokenErc20_flattened.sol\":14519:14553  return _allowances[owner][spender] */\n      swap1\n      pop\n        /* \"contracts/FundTokenErc20_flattened.sol\":14420:14560  function allowance(address owner, address spender) public view virtual returns (uint256) {... */\n      swap3\n      swap2\n      pop\n      pop\n      jump\t// out\n        /* \"contracts/FundTokenErc20_flattened.sol\":4177:4273  function _msgSender() internal view virtual returns (address) {... */\n    tag_71:\n        /* \"contracts/FundTokenErc20_flattened.sol\":4230:4237  address */\n      0x00\n        /* \"contracts/FundTokenErc20_flattened.sol\":4256:4266  msg.sender */\n      caller\n        /* \"contracts/FundTokenErc20_flattened.sol\":4249:4266  return msg.sender */\n      swap1\n      pop\n        /* \"contracts/FundTokenErc20_flattened.sol\":4177:4273  function _msgSender() internal view virtual returns (address) {... */\n      swap1\n      jump\t// out\n        /* \"contracts/FundTokenErc20_flattened.sol\":19595:19723  function _approve(address owner, address spender, uint256 value) internal {... */\n    tag_73:\n        /* \"contracts/FundTokenErc20_flattened.sol\":19679:19716  _approve(owner, spender, value, true) */\n      tag_131\n        /* \"contracts/FundTokenErc20_flattened.sol\":19688:19693  owner */\n      dup4\n        /* \"contracts/FundTokenErc20_flattened.sol\":19695:19702  spender */\n      dup4\n        /* \"contracts/FundTokenErc20_flattened.sol\":19704:19709  value */\n      dup4\n        /* \"contracts/FundTokenErc20_flattened.sol\":19711:19715  true */\n      0x01\n        /* \"contracts/FundTokenErc20_flattened.sol\":19679:19687  _approve */\n      tag_132\n        /* \"contracts/FundTokenErc20_flattened.sol\":19679:19716  _approve(owner, spender, value, true) */\n      jump\t// in\n    tag_131:\n        /* \"contracts/FundTokenErc20_flattened.sol\":19595:19723  function _approve(address owner, address spender, uint256 value) internal {... */\n      pop\n      pop\n      pop\n      jump\t// out\n        /* \"contracts/FundTokenErc20_flattened.sol\":21284:21761  function _spendAllowance(address owner, address spender, uint256 value) internal virtual {... */\n    tag_78:\n        /* \"contracts/FundTokenErc20_flattened.sol\":21383:21407  uint256 currentAllowance */\n      0x00\n        /* \"contracts/FundTokenErc20_flattened.sol\":21410:21435  allowance(owner, spender) */\n      tag_134\n        /* \"contracts/FundTokenErc20_flattened.sol\":21420:21425  owner */\n      dup5\n        /* \"contracts/FundTokenErc20_flattened.sol\":21427:21434  spender */\n      dup5\n        /* \"contracts/FundTokenErc20_flattened.sol\":21410:21419  allowance */\n      tag_60\n        /* \"contracts/FundTokenErc20_flattened.sol\":21410:21435  allowance(owner, spender) */\n      jump\t// in\n    tag_134:\n        /* \"contracts/FundTokenErc20_flattened.sol\":21383:21435  uint256 currentAllowance = allowance(owner, spender) */\n      swap1\n      pop\n        /* \"contracts/FundTokenErc20_flattened.sol\":21469:21486  type(uint256).max */\n      0xffffffffffffffffffffffffffffffffffffffffffffffffffffffffffffffff\n        /* \"contracts/FundTokenErc20_flattened.sol\":21449:21465  currentAllowance */\n      dup2\n        /* \"contracts/FundTokenErc20_flattened.sol\":21449:21486  currentAllowance != type(uint256).max */\n      eq\n        /* \"contracts/FundTokenErc20_flattened.sol\":21445:21755  if (currentAllowance != type(uint256).max) {... */\n      tag_135\n      jumpi\n        /* \"contracts/FundTokenErc20_flattened.sol\":21525:21530  value */\n      dup2\n        /* \"contracts/FundTokenErc20_flattened.sol\":21506:21522  currentAllowance */\n      dup2\n        /* \"contracts/FundTokenErc20_flattened.sol\":21506:21530  currentAllowance < value */\n      lt\n        /* \"contracts/FundTokenErc20_flattened.sol\":21502:21632  if (currentAllowance < value) {... */\n      iszero\n      tag_136\n      jumpi\n        /* \"contracts/FundTokenErc20_flattened.sol\":21584:21591  spender */\n      dup3\n        /* \"contracts/FundTokenErc20_flattened.sol\":21593:21609  currentAllowance */\n      dup2\n        /* \"contracts/FundTokenErc20_flattened.sol\":21611:21616  value */\n      dup4\n        /* \"contracts/FundTokenErc20_flattened.sol\":21557:21617  ERC20InsufficientAllowance(spender, currentAllowance, value) */\n      mload(0x40)\n      0xfb8f41b200000000000000000000000000000000000000000000000000000000\n      dup2\n      mstore\n      0x04\n      add\n      tag_137\n      swap4\n      swap3\n      swap2\n      swap1\n      tag_138\n      jump\t// in\n    tag_137:\n      mload(0x40)\n      dup1\n      swap2\n      sub\n      swap1\n      revert\n        /* \"contracts/FundTokenErc20_flattened.sol\":21502:21632  if (currentAllowance < value) {... */\n    tag_136:\n        /* \"contracts/FundTokenErc20_flattened.sol\":21673:21730  _approve(owner, spender, currentAllowance - value, false) */\n      tag_139\n        /* \"contracts/FundTokenErc20_flattened.sol\":21682:21687  owner */\n      dup5\n        /* \"contracts/FundTokenErc20_flattened.sol\":21689:21696  spender */\n      dup5\n        /* \"contracts/FundTokenErc20_flattened.sol\":21717:21722  value */\n      dup5\n        /* \"contracts/FundTokenErc20_flattened.sol\":21698:21714  currentAllowance */\n      dup5\n        /* \"contracts/FundTokenErc20_flattened.sol\":21698:21722  currentAllowance - value */\n      sub\n        /* \"contracts/FundTokenErc20_flattened.sol\":21724:21729  false */\n      0x00\n        /* \"contracts/FundTokenErc20_flattened.sol\":21673:21681  _approve */\n      tag_132\n        /* \"contracts/FundTokenErc20_flattened.sol\":21673:21730  _approve(owner, spender, currentAllowance - value, false) */\n      jump\t// in\n    tag_139:\n        /* \"contracts/FundTokenErc20_flattened.sol\":21445:21755  if (currentAllowance != type(uint256).max) {... */\n    tag_135:\n        /* \"contracts/FundTokenErc20_flattened.sol\":21373:21761  {... */\n      pop\n        /* \"contracts/FundTokenErc20_flattened.sol\":21284:21761  function _spendAllowance(address owner, address spender, uint256 value) internal virtual {... */\n      pop\n      pop\n      pop\n      jump\t// out\n        /* \"contracts/FundTokenErc20_flattened.sol\":16262:16562  function _transfer(address from, address to, uint256 value) internal {... */\n    tag_80:\n        /* \"contracts/FundTokenErc20_flattened.sol\":16361:16362  0 */\n      0x00\n        /* \"contracts/FundTokenErc20_flattened.sol\":16345:16363  from == address(0) */\n      0xffffffffffffffffffffffffffffffffffffffff\n      and\n        /* \"contracts/FundTokenErc20_flattened.sol\":16345:16349  from */\n      dup4\n        /* \"contracts/FundTokenErc20_flattened.sol\":16345:16363  from == address(0) */\n      0xffffffffffffffffffffffffffffffffffffffff\n      and\n      sub\n        /* \"contracts/FundTokenErc20_flattened.sol\":16341:16427  if (from == address(0)) {... */\n      tag_141\n      jumpi\n        /* \"contracts/FundTokenErc20_flattened.sol\":16413:16414  0 */\n      0x00\n        /* \"contracts/FundTokenErc20_flattened.sol\":16386:16416  ERC20InvalidSender(address(0)) */\n      mload(0x40)\n      0x96c6fd1e00000000000000000000000000000000000000000000000000000000\n      dup2\n      mstore\n      0x04\n      add\n      tag_142\n      swap2\n      swap1\n      tag_105\n      jump\t// in\n    tag_142:\n      mload(0x40)\n      dup1\n      swap2\n      sub\n      swap1\n      revert\n        /* \"contracts/FundTokenErc20_flattened.sol\":16341:16427  if (from == address(0)) {... */\n    tag_141:\n        /* \"contracts/FundTokenErc20_flattened.sol\":16454:16455  0 */\n      0x00\n        /* \"contracts/FundTokenErc20_flattened.sol\":16440:16456  to == address(0) */\n      0xffffffffffffffffffffffffffffffffffffffff\n      and\n        /* \"contracts/FundTokenErc20_flattened.sol\":16440:16442  to */\n      dup3\n        /* \"contracts/FundTokenErc20_flattened.sol\":16440:16456  to == address(0) */\n      0xffffffffffffffffffffffffffffffffffffffff\n      and\n      sub\n        /* \"contracts/FundTokenErc20_flattened.sol\":16436:16522  if (to == address(0)) {... */\n      tag_143\n      jumpi\n        /* \"contracts/FundTokenErc20_flattened.sol\":16508:16509  0 */\n      0x00\n        /* \"contracts/FundTokenErc20_flattened.sol\":16479:16511  ERC20InvalidReceiver(address(0)) */\n      mload(0x40)\n      0xec442f0500000000000000000000000000000000000000000000000000000000\n      dup2\n      mstore\n      0x04\n      add\n      tag_144\n      swap2\n      swap1\n      tag_105\n      jump\t// in\n    tag_144:\n      mload(0x40)\n      dup1\n      swap2\n      sub\n      swap1\n      revert\n        /* \"contracts/FundTokenErc20_flattened.sol\":16436:16522  if (to == address(0)) {... */\n    tag_143:\n        /* \"contracts/FundTokenErc20_flattened.sol\":16531:16555  _update(from, to, value) */\n      tag_145\n        /* \"contracts/FundTokenErc20_flattened.sol\":16539:16543  from */\n      dup4\n        /* \"contracts/FundTokenErc20_flattened.sol\":16545:16547  to */\n      dup4\n        /* \"contracts/FundTokenErc20_flattened.sol\":16549:16554  value */\n      dup4\n        /* \"contracts/FundTokenErc20_flattened.sol\":16531:16538  _update */\n      tag_146\n        /* \"contracts/FundTokenErc20_flattened.sol\":16531:16555  _update(from, to, value) */\n      jump\t// in\n    tag_145:\n        /* \"contracts/FundTokenErc20_flattened.sol\":16262:16562  function _transfer(address from, address to, uint256 value) internal {... */\n      pop\n      pop\n      pop\n      jump\t// out\n        /* \"contracts/FundTokenErc20_flattened.sol\":18853:19059  function _burn(address account, uint256 value) internal {... */\n    tag_95:\n        /* \"contracts/FundTokenErc20_flattened.sol\":18942:18943  0 */\n      0x00\n        /* \"contracts/FundTokenErc20_flattened.sol\":18923:18944  account == address(0) */\n      0xffffffffffffffffffffffffffffffffffffffff\n      and\n        /* \"contracts/FundTokenErc20_flattened.sol\":18923:18930  account */\n      dup3\n        /* \"contracts/FundTokenErc20_flattened.sol\":18923:18944  account == address(0) */\n      0xffffffffffffffffffffffffffffffffffffffff\n      and\n      sub\n        /* \"contracts/FundTokenErc20_flattened.sol\":18919:19008  if (account == address(0)) {... */\n      tag_148\n      jumpi\n        /* \"contracts/FundTokenErc20_flattened.sol\":18994:18995  0 */\n      0x00\n        /* \"contracts/FundTokenErc20_flattened.sol\":18967:18997  ERC20InvalidSender(address(0)) */\n      mload(0x40)\n      0x96c6fd1e00000000000000000000000000000000000000000000000000000000\n      dup2\n      mstore\n      0x04\n      add\n      tag_149\n      swap2\n      swap1\n      tag_105\n      jump\t// in\n    tag_149:\n      mload(0x40)\n      dup1\n      swap2\n      sub\n      swap1\n      revert\n        /* \"contracts/FundTokenErc20_flattened.sol\":18919:19008  if (account == address(0)) {... */\n    tag_148:\n        /* \"contracts/FundTokenErc20_flattened.sol\":19017:19052  _update(account, address(0), value) */\n      tag_150\n        /* \"contracts/FundTokenErc20_flattened.sol\":19025:19032  account */\n      dup3\n        /* \"contracts/FundTokenErc20_flattened.sol\":19042:19043  0 */\n      0x00\n        /* \"contracts/FundTokenErc20_flattened.sol\":19046:19051  value */\n      dup4\n        /* \"contracts/FundTokenErc20_flattened.sol\":19017:19024  _update */\n      tag_146\n        /* \"contracts/FundTokenErc20_flattened.sol\":19017:19052  _update(account, address(0), value) */\n      jump\t// in\n    tag_150:\n        /* \"contracts/FundTokenErc20_flattened.sol\":18853:19059  function _burn(address account, uint256 value) internal {... */\n      pop\n      pop\n      jump\t// out\n        /* \"contracts/FundTokenErc20_flattened.sol\":18327:18535  function _mint(address account, uint256 value) internal {... */\n    tag_119:\n        /* \"contracts/FundTokenErc20_flattened.sol\":18416:18417  0 */\n      0x00\n        /* \"contracts/FundTokenErc20_flattened.sol\":18397:18418  account == address(0) */\n      0xffffffffffffffffffffffffffffffffffffffff\n      and\n        /* \"contracts/FundTokenErc20_flattened.sol\":18397:18404  account */\n      dup3\n        /* \"contracts/FundTokenErc20_flattened.sol\":18397:18418  account == address(0) */\n      0xffffffffffffffffffffffffffffffffffffffff\n      and\n      sub\n        /* \"contracts/FundTokenErc20_flattened.sol\":18393:18484  if (account == address(0)) {... */\n      tag_152\n      jumpi\n        /* \"contracts/FundTokenErc20_flattened.sol\":18470:18471  0 */\n      0x00\n        /* \"contracts/FundTokenErc20_flattened.sol\":18441:18473  ERC20InvalidReceiver(address(0)) */\n      mload(0x40)\n      0xec442f0500000000000000000000000000000000000000000000000000000000\n      dup2\n      mstore\n      0x04\n      add\n      tag_153\n      swap2\n      swap1\n      tag_105\n      jump\t// in\n    tag_153:\n      mload(0x40)\n      dup1\n      swap2\n      sub\n      swap1\n      revert\n        /* \"contracts/FundTokenErc20_flattened.sol\":18393:18484  if (account == address(0)) {... */\n    tag_152:\n        /* \"contracts/FundTokenErc20_flattened.sol\":18493:18528  _update(address(0), account, value) */\n      tag_154\n        /* \"contracts/FundTokenErc20_flattened.sol\":18509:18510  0 */\n      0x00\n        /* \"contracts/FundTokenErc20_flattened.sol\":18513:18520  account */\n      dup4\n        /* \"contracts/FundTokenErc20_flattened.sol\":18522:18527  value */\n      dup4\n        /* \"contracts/FundTokenErc20_flattened.sol\":18493:18500  _update */\n      tag_146\n        /* \"contracts/FundTokenErc20_flattened.sol\":18493:18528  _update(address(0), account, value) */\n      jump\t// in\n    tag_154:\n        /* \"contracts/FundTokenErc20_flattened.sol\":18327:18535  function _mint(address account, uint256 value) internal {... */\n      pop\n      pop\n      jump\t// out\n        /* \"contracts/FundTokenErc20_flattened.sol\":20570:21002  function _approve(address owner, address spender, uint256 value, bool emitEvent) internal virtual {... */\n    tag_132:\n        /* \"contracts/FundTokenErc20_flattened.sol\":20699:20700  0 */\n      0x00\n        /* \"contracts/FundTokenErc20_flattened.sol\":20682:20701  owner == address(0) */\n      0xffffffffffffffffffffffffffffffffffffffff\n      and\n        /* \"contracts/FundTokenErc20_flattened.sol\":20682:20687  owner */\n      dup5\n        /* \"contracts/FundTokenErc20_flattened.sol\":20682:20701  owner == address(0) */\n      0xffffffffffffffffffffffffffffffffffffffff\n      and\n      sub\n        /* \"contracts/FundTokenErc20_flattened.sol\":20678:20767  if (owner == address(0)) {... */\n      tag_156\n      jumpi\n        /* \"contracts/FundTokenErc20_flattened.sol\":20753:20754  0 */\n      0x00\n        /* \"contracts/FundTokenErc20_flattened.sol\":20724:20756  ERC20InvalidApprover(address(0)) */\n      mload(0x40)\n      0xe602df0500000000000000000000000000000000000000000000000000000000\n      dup2\n      mstore\n      0x04\n      add\n      tag_157\n      swap2\n      swap1\n      tag_105\n      jump\t// in\n    tag_157:\n      mload(0x40)\n      dup1\n      swap2\n      sub\n      swap1\n      revert\n        /* \"contracts/FundTokenErc20_flattened.sol\":20678:20767  if (owner == address(0)) {... */\n    tag_156:\n        /* \"contracts/FundTokenErc20_flattened.sol\":20799:20800  0 */\n      0x00\n        /* \"contracts/FundTokenErc20_flattened.sol\":20780:20801  spender == address(0) */\n      0xffffffffffffffffffffffffffffffffffffffff\n      and\n        /* \"contracts/FundTokenErc20_flattened.sol\":20780:20787  spender */\n      dup4\n        /* \"contracts/FundTokenErc20_flattened.sol\":20780:20801  spender == address(0) */\n      0xffffffffffffffffffffffffffffffffffffffff\n      and\n      sub\n        /* \"contracts/FundTokenErc20_flattened.sol\":20776:20866  if (spender == address(0)) {... */\n      tag_158\n      jumpi\n        /* \"contracts/FundTokenErc20_flattened.sol\":20852:20853  0 */\n      0x00\n        /* \"contracts/FundTokenErc20_flattened.sol\":20824:20855  ERC20InvalidSpender(address(0)) */\n      mload(0x40)\n      0x94280d6200000000000000000000000000000000000000000000000000000000\n      dup2\n      mstore\n      0x04\n      add\n      tag_159\n      swap2\n      swap1\n      tag_105\n      jump\t// in\n    tag_159:\n      mload(0x40)\n      dup1\n      swap2\n      sub\n      swap1\n      revert\n        /* \"contracts/FundTokenErc20_flattened.sol\":20776:20866  if (spender == address(0)) {... */\n    tag_158:\n        /* \"contracts/FundTokenErc20_flattened.sol\":20905:20910  value */\n      dup2\n        /* \"contracts/FundTokenErc20_flattened.sol\":20875:20886  _allowances */\n      0x01\n        /* \"contracts/FundTokenErc20_flattened.sol\":20875:20893  _allowances[owner] */\n      0x00\n        /* \"contracts/FundTokenErc20_flattened.sol\":20887:20892  owner */\n      dup7\n        /* \"contracts/FundTokenErc20_flattened.sol\":20875:20893  _allowances[owner] */\n      0xffffffffffffffffffffffffffffffffffffffff\n      and\n      0xffffffffffffffffffffffffffffffffffffffff\n      and\n      dup2\n      mstore\n      0x20\n      add\n      swap1\n      dup2\n      mstore\n      0x20\n      add\n      0x00\n      keccak256\n        /* \"contracts/FundTokenErc20_flattened.sol\":20875:20902  _allowances[owner][spender] */\n      0x00\n        /* \"contracts/FundTokenErc20_flattened.sol\":20894:20901  spender */\n      dup6\n        /* \"contracts/FundTokenErc20_flattened.sol\":20875:20902  _allowances[owner][spender] */\n      0xffffffffffffffffffffffffffffffffffffffff\n      and\n      0xffffffffffffffffffffffffffffffffffffffff\n      and\n      dup2\n      mstore\n      0x20\n      add\n      swap1\n      dup2\n      mstore\n      0x20\n      add\n      0x00\n      keccak256\n        /* \"contracts/FundTokenErc20_flattened.sol\":20875:20910  _allowances[owner][spender] = value */\n      dup2\n      swap1\n      sstore\n      pop\n        /* \"contracts/FundTokenErc20_flattened.sol\":20924:20933  emitEvent */\n      dup1\n        /* \"contracts/FundTokenErc20_flattened.sol\":20920:20996  if (emitEvent) {... */\n      iszero\n      tag_160\n      jumpi\n        /* \"contracts/FundTokenErc20_flattened.sol\":20970:20977  spender */\n      dup3\n        /* \"contracts/FundTokenErc20_flattened.sol\":20954:20985  Approval(owner, spender, value) */\n      0xffffffffffffffffffffffffffffffffffffffff\n      and\n        /* \"contracts/FundTokenErc20_flattened.sol\":20963:20968  owner */\n      dup5\n        /* \"contracts/FundTokenErc20_flattened.sol\":20954:20985  Approval(owner, spender, value) */\n      0xffffffffffffffffffffffffffffffffffffffff\n      and\n      0x8c5be1e5ebec7d5bd14f71427d1e84f3dd0314c0f7b2291e5b200ac8c7c3b925\n        /* \"contracts/FundTokenErc20_flattened.sol\":20979:20984  value */\n      dup5\n        /* \"contracts/FundTokenErc20_flattened.sol\":20954:20985  Approval(owner, spender, value) */\n      mload(0x40)\n      tag_161\n      swap2\n      swap1\n      tag_28\n      jump\t// in\n    tag_161:\n      mload(0x40)\n      dup1\n      swap2\n      sub\n      swap1\n      log3\n        /* \"contracts/FundTokenErc20_flattened.sol\":20920:20996  if (emitEvent) {... */\n    tag_160:\n        /* \"contracts/FundTokenErc20_flattened.sol\":20570:21002  function _approve(address owner, address spender, uint256 value, bool emitEvent) internal virtual {... */\n      pop\n      pop\n      pop\n      pop\n      jump\t// out\n        /* \"contracts/FundTokenErc20_flattened.sol\":16877:17984  function _update(address from, address to, uint256 value) internal virtual {... */\n    tag_146:\n        /* \"contracts/FundTokenErc20_flattened.sol\":16982:16983  0 */\n      0x00\n        /* \"contracts/FundTokenErc20_flattened.sol\":16966:16984  from == address(0) */\n      0xffffffffffffffffffffffffffffffffffffffff\n      and\n        /* \"contracts/FundTokenErc20_flattened.sol\":16966:16970  from */\n      dup4\n        /* \"contracts/FundTokenErc20_flattened.sol\":16966:16984  from == address(0) */\n      0xffffffffffffffffffffffffffffffffffffffff\n      and\n      sub\n        /* \"contracts/FundTokenErc20_flattened.sol\":16962:17502  if (from == address(0)) {... */\n      tag_163\n      jumpi\n        /* \"contracts/FundTokenErc20_flattened.sol\":17118:17123  value */\n      dup1\n        /* \"contracts/FundTokenErc20_flattened.sol\":17102:17114  _totalSupply */\n      0x02\n      0x00\n        /* \"contracts/FundTokenErc20_flattened.sol\":17102:17123  _totalSupply += value */\n      dup3\n      dup3\n      sload\n      tag_164\n      swap2\n      swap1\n      tag_165\n      jump\t// in\n    tag_164:\n      swap3\n      pop\n      pop\n      dup2\n      swap1\n      sstore\n      pop\n        /* \"contracts/FundTokenErc20_flattened.sol\":16962:17502  if (from == address(0)) {... */\n      jump(tag_166)\n    tag_163:\n        /* \"contracts/FundTokenErc20_flattened.sol\":17154:17173  uint256 fromBalance */\n      0x00\n        /* \"contracts/FundTokenErc20_flattened.sol\":17176:17185  _balances */\n      dup1\n        /* \"contracts/FundTokenErc20_flattened.sol\":17176:17191  _balances[from] */\n      0x00\n        /* \"contracts/FundTokenErc20_flattened.sol\":17186:17190  from */\n      dup6\n        /* \"contracts/FundTokenErc20_flattened.sol\":17176:17191  _balances[from] */\n      0xffffffffffffffffffffffffffffffffffffffff\n      and\n      0xffffffffffffffffffffffffffffffffffffffff\n      and\n      dup2\n      mstore\n      0x20\n      add\n      swap1\n      dup2\n      mstore\n      0x20\n      add\n      0x00\n      keccak256\n      sload\n        /* \"contracts/FundTokenErc20_flattened.sol\":17154:17191  uint256 fromBalance = _balances[from] */\n      swap1\n      pop\n        /* \"contracts/FundTokenErc20_flattened.sol\":17223:17228  value */\n      dup2\n        /* \"contracts/FundTokenErc20_flattened.sol\":17209:17220  fromBalance */\n      dup2\n        /* \"contracts/FundTokenErc20_flattened.sol\":17209:17228  fromBalance < value */\n      lt\n        /* \"contracts/FundTokenErc20_flattened.sol\":17205:17320  if (fromBalance < value) {... */\n      iszero\n      tag_167\n      jumpi\n        /* \"contracts/FundTokenErc20_flattened.sol\":17280:17284  from */\n      dup4\n        /* \"contracts/FundTokenErc20_flattened.sol\":17286:17297  fromBalance */\n      dup2\n        /* \"contracts/FundTokenErc20_flattened.sol\":17299:17304  value */\n      dup4\n        /* \"contracts/FundTokenErc20_flattened.sol\":17255:17305  ERC20InsufficientBalance(from, fromBalance, value) */\n      mload(0x40)\n      0xe450d38c00000000000000000000000000000000000000000000000000000000\n      dup2\n      mstore\n      0x04\n      add\n      tag_168\n      swap4\n      swap3\n      swap2\n      swap1\n      tag_138\n      jump\t// in\n    tag_168:\n      mload(0x40)\n      dup1\n      swap2\n      sub\n      swap1\n      revert\n        /* \"contracts/FundTokenErc20_flattened.sol\":17205:17320  if (fromBalance < value) {... */\n    tag_167:\n        /* \"contracts/FundTokenErc20_flattened.sol\":17472:17477  value */\n      dup2\n        /* \"contracts/FundTokenErc20_flattened.sol\":17458:17469  fromBalance */\n      dup2\n        /* \"contracts/FundTokenErc20_flattened.sol\":17458:17477  fromBalance - value */\n      sub\n        /* \"contracts/FundTokenErc20_flattened.sol\":17440:17449  _balances */\n      0x00\n        /* \"contracts/FundTokenErc20_flattened.sol\":17440:17455  _balances[from] */\n      dup1\n        /* \"contracts/FundTokenErc20_flattened.sol\":17450:17454  from */\n      dup7\n        /* \"contracts/FundTokenErc20_flattened.sol\":17440:17455  _balances[from] */\n      0xffffffffffffffffffffffffffffffffffffffff\n      and\n      0xffffffffffffffffffffffffffffffffffffffff\n      and\n      dup2\n      mstore\n      0x20\n      add\n      swap1\n      dup2\n      mstore\n      0x20\n      add\n      0x00\n      keccak256\n        /* \"contracts/FundTokenErc20_flattened.sol\":17440:17477  _balances[from] = fromBalance - value */\n      dup2\n      swap1\n      sstore\n      pop\n        /* \"contracts/FundTokenErc20_flattened.sol\":17140:17502  {... */\n      pop\n        /* \"contracts/FundTokenErc20_flattened.sol\":16962:17502  if (from == address(0)) {... */\n    tag_166:\n        /* \"contracts/FundTokenErc20_flattened.sol\":17530:17531  0 */\n      0x00\n        /* \"contracts/FundTokenErc20_flattened.sol\":17516:17532  to == address(0) */\n      0xffffffffffffffffffffffffffffffffffffffff\n      and\n        /* \"contracts/FundTokenErc20_flattened.sol\":17516:17518  to */\n      dup3\n        /* \"contracts/FundTokenErc20_flattened.sol\":17516:17532  to == address(0) */\n      0xffffffffffffffffffffffffffffffffffffffff\n      and\n      sub\n        /* \"contracts/FundTokenErc20_flattened.sol\":17512:17937  if (to == address(0)) {... */\n      tag_169\n      jumpi\n        /* \"contracts/FundTokenErc20_flattened.sol\":17695:17700  value */\n      dup1\n        /* \"contracts/FundTokenErc20_flattened.sol\":17679:17691  _totalSupply */\n      0x02\n      0x00\n        /* \"contracts/FundTokenErc20_flattened.sol\":17679:17700  _totalSupply -= value */\n      dup3\n      dup3\n      sload\n      sub\n      swap3\n      pop\n      pop\n      dup2\n      swap1\n      sstore\n      pop\n        /* \"contracts/FundTokenErc20_flattened.sol\":17512:17937  if (to == address(0)) {... */\n      jump(tag_170)\n    tag_169:\n        /* \"contracts/FundTokenErc20_flattened.sol\":17907:17912  value */\n      dup1\n        /* \"contracts/FundTokenErc20_flattened.sol\":17890:17899  _balances */\n      0x00\n        /* \"contracts/FundTokenErc20_flattened.sol\":17890:17903  _balances[to] */\n      dup1\n        /* \"contracts/FundTokenErc20_flattened.sol\":17900:17902  to */\n      dup5\n        /* \"contracts/FundTokenErc20_flattened.sol\":17890:17903  _balances[to] */\n      0xffffffffffffffffffffffffffffffffffffffff\n      and\n      0xffffffffffffffffffffffffffffffffffffffff\n      and\n      dup2\n      mstore\n      0x20\n      add\n      swap1\n      dup2\n      mstore\n      0x20\n      add\n      0x00\n      keccak256\n      0x00\n        /* \"contracts/FundTokenErc20_flattened.sol\":17890:17912  _balances[to] += value */\n      dup3\n      dup3\n      sload\n      add\n      swap3\n      pop\n      pop\n      dup2\n      swap1\n      sstore\n      pop\n        /* \"contracts/FundTokenErc20_flattened.sol\":17512:17937  if (to == address(0)) {... */\n    tag_170:\n        /* \"contracts/FundTokenErc20_flattened.sol\":17967:17969  to */\n      dup2\n        /* \"contracts/FundTokenErc20_flattened.sol\":17952:17977  Transfer(from, to, value) */\n      0xffffffffffffffffffffffffffffffffffffffff\n      and\n        /* \"contracts/FundTokenErc20_flattened.sol\":17961:17965  from */\n      dup4\n        /* \"contracts/FundTokenErc20_flattened.sol\":17952:17977  Transfer(from, to, value) */\n      0xffffffffffffffffffffffffffffffffffffffff\n      and\n      0xddf252ad1be2c89b69c2b068fc378daa952ba7f163c4a11628f55a4df523b3ef\n        /* \"contracts/FundTokenErc20_flattened.sol\":17971:17976  value */\n      dup4\n        /* \"contracts/FundTokenErc20_flattened.sol\":17952:17977  Transfer(from, to, value) */\n      mload(0x40)\n      tag_171\n      swap2\n      swap1\n      tag_28\n      jump\t// in\n    tag_171:\n      mload(0x40)\n      dup1\n      swap2\n      sub\n      swap1\n      log3\n        /* \"contracts/FundTokenErc20_flattened.sol\":16877:17984  function _update(address from, address to, uint256 value) internal virtual {... */\n      pop\n      pop\n      pop\n      jump\t// out\n        /* \"#utility.yul\":7:106   */\n    tag_172:\n        /* \"#utility.yul\":59:65   */\n      0x00\n        /* \"#utility.yul\":93:98   */\n      dup2\n        /* \"#utility.yul\":87:99   */\n      mload\n        /* \"#utility.yul\":77:99   */\n      swap1\n      pop\n        /* \"#utility.yul\":7:106   */\n      swap2\n      swap1\n      pop\n      jump\t// out\n        /* \"#utility.yul\":112:281   */\n    tag_173:\n        /* \"#utility.yul\":196:207   */\n      0x00\n        /* \"#utility.yul\":230:236   */\n      dup3\n        /* \"#utility.yul\":225:228   */\n      dup3\n        /* \"#utility.yul\":218:237   */\n      mstore\n        /* \"#utility.yul\":270:274   */\n      0x20\n        /* \"#utility.yul\":265:268   */\n      dup3\n        /* \"#utility.yul\":261:275   */\n      add\n        /* \"#utility.yul\":246:275   */\n      swap1\n      pop\n        /* \"#utility.yul\":112:281   */\n      swap3\n      swap2\n      pop\n      pop\n      jump\t// out\n        /* \"#utility.yul\":287:426   */\n    tag_174:\n        /* \"#utility.yul\":376:382   */\n      dup3\n        /* \"#utility.yul\":371:374   */\n      dup2\n        /* \"#utility.yul\":366:369   */\n      dup4\n        /* \"#utility.yul\":360:383   */\n      mcopy\n        /* \"#utility.yul\":417:418   */\n      0x00\n        /* \"#utility.yul\":408:414   */\n      dup4\n        /* \"#utility.yul\":403:406   */\n      dup4\n        /* \"#utility.yul\":399:415   */\n      add\n        /* \"#utility.yul\":392:419   */\n      mstore\n        /* \"#utility.yul\":287:426   */\n      pop\n      pop\n      pop\n      jump\t// out\n        /* \"#utility.yul\":432:534   */\n    tag_175:\n        /* \"#utility.yul\":473:479   */\n      0x00\n        /* \"#utility.yul\":524:526   */\n      0x1f\n        /* \"#utility.yul\":520:527   */\n      not\n        /* \"#utility.yul\":515:517   */\n      0x1f\n        /* \"#utility.yul\":508:513   */\n      dup4\n        /* \"#utility.yul\":504:518   */\n      add\n        /* \"#utility.yul\":500:528   */\n      and\n        /* \"#utility.yul\":490:528   */\n      swap1\n      pop\n        /* \"#utility.yul\":432:534   */\n      swap2\n      swap1\n      pop\n      jump\t// out\n        /* \"#utility.yul\":540:917   */\n    tag_176:\n        /* \"#utility.yul\":628:631   */\n      0x00\n        /* \"#utility.yul\":656:695   */\n      tag_210\n        /* \"#utility.yul\":689:694   */\n      dup3\n        /* \"#utility.yul\":656:695   */\n      tag_172\n      jump\t// in\n    tag_210:\n        /* \"#utility.yul\":711:782   */\n      tag_211\n        /* \"#utility.yul\":775:781   */\n      dup2\n        /* \"#utility.yul\":770:773   */\n      dup6\n        /* \"#utility.yul\":711:782   */\n      tag_173\n      jump\t// in\n    tag_211:\n        /* \"#utility.yul\":704:782   */\n      swap4\n      pop\n        /* \"#utility.yul\":791:856   */\n      tag_212\n        /* \"#utility.yul\":849:855   */\n      dup2\n        /* \"#utility.yul\":844:847   */\n      dup6\n        /* \"#utility.yul\":837:841   */\n      0x20\n        /* \"#utility.yul\":830:835   */\n      dup7\n        /* \"#utility.yul\":826:842   */\n      add\n        /* \"#utility.yul\":791:856   */\n      tag_174\n      jump\t// in\n    tag_212:\n        /* \"#utility.yul\":881:910   */\n      tag_213\n        /* \"#utility.yul\":903:909   */\n      dup2\n        /* \"#utility.yul\":881:910   */\n      tag_175\n      jump\t// in\n    tag_213:\n        /* \"#utility.yul\":876:879   */\n      dup5\n        /* \"#utility.yul\":872:911   */\n      add\n        /* \"#utility.yul\":865:911   */\n      swap2\n      pop\n        /* \"#utility.yul\":632:917   */\n      pop\n        /* \"#utility.yul\":540:917   */\n      swap3\n      swap2\n      pop\n      pop\n      jump\t// out\n        /* \"#utility.yul\":923:1236   */\n    tag_18:\n        /* \"#utility.yul\":1036:1040   */\n      0x00\n        /* \"#utility.yul\":1074:1076   */\n      0x20\n        /* \"#utility.yul\":1063:1072   */\n      dup3\n        /* \"#utility.yul\":1059:1077   */\n      add\n        /* \"#utility.yul\":1051:1077   */\n      swap1\n      pop\n        /* \"#utility.yul\":1123:1132   */\n      dup2\n        /* \"#utility.yul\":1117:1121   */\n      dup2\n        /* \"#utility.yul\":1113:1133   */\n      sub\n        /* \"#utility.yul\":1109:1110   */\n      0x00\n        /* \"#utility.yul\":1098:1107   */\n      dup4\n        /* \"#utility.yul\":1094:1111   */\n      add\n        /* \"#utility.yul\":1087:1134   */\n      mstore\n        /* \"#utility.yul\":1151:1229   */\n      tag_215\n        /* \"#utility.yul\":1224:1228   */\n      dup2\n        /* \"#utility.yul\":1215:1221   */\n      dup5\n        /* \"#utility.yul\":1151:1229   */\n      tag_176\n      jump\t// in\n    tag_215:\n        /* \"#utility.yul\":1143:1229   */\n      swap1\n      pop\n        /* \"#utility.yul\":923:1236   */\n      swap3\n      swap2\n      pop\n      pop\n      jump\t// out\n        /* \"#utility.yul\":1323:1440   */\n    tag_178:\n        /* \"#utility.yul\":1432:1433   */\n      0x00\n        /* \"#utility.yul\":1429:1430   */\n      dup1\n        /* \"#utility.yul\":1422:1434   */\n      revert\n        /* \"#utility.yul\":1569:1695   */\n    tag_180:\n        /* \"#utility.yul\":1606:1613   */\n      0x00\n        /* \"#utility.yul\":1646:1688   */\n      0xffffffffffffffffffffffffffffffffffffffff\n        /* \"#utility.yul\":1639:1644   */\n      dup3\n        /* \"#utility.yul\":1635:1689   */\n      and\n        /* \"#utility.yul\":1624:1689   */\n      swap1\n      pop\n        /* \"#utility.yul\":1569:1695   */\n      swap2\n      swap1\n      pop\n      jump\t// out\n        /* \"#utility.yul\":1701:1797   */\n    tag_181:\n        /* \"#utility.yul\":1738:1745   */\n      0x00\n        /* \"#utility.yul\":1767:1791   */\n      tag_221\n        /* \"#utility.yul\":1785:1790   */\n      dup3\n        /* \"#utility.yul\":1767:1791   */\n      tag_180\n      jump\t// in\n    tag_221:\n        /* \"#utility.yul\":1756:1791   */\n      swap1\n      pop\n        /* \"#utility.yul\":1701:1797   */\n      swap2\n      swap1\n      pop\n      jump\t// out\n        /* \"#utility.yul\":1803:1925   */\n    tag_182:\n        /* \"#utility.yul\":1876:1900   */\n      tag_223\n        /* \"#utility.yul\":1894:1899   */\n      dup2\n        /* \"#utility.yul\":1876:1900   */\n      tag_181\n      jump\t// in\n    tag_223:\n        /* \"#utility.yul\":1869:1874   */\n      dup2\n        /* \"#utility.yul\":1866:1901   */\n      eq\n        /* \"#utility.yul\":1856:1919   */\n      tag_224\n      jumpi\n        /* \"#utility.yul\":1915:1916   */\n      0x00\n        /* \"#utility.yul\":1912:1913   */\n      dup1\n        /* \"#utility.yul\":1905:1917   */\n      revert\n        /* \"#utility.yul\":1856:1919   */\n    tag_224:\n        /* \"#utility.yul\":1803:1925   */\n      pop\n      jump\t// out\n        /* \"#utility.yul\":1931:2070   */\n    tag_183:\n        /* \"#utility.yul\":1977:1982   */\n      0x00\n        /* \"#utility.yul\":2015:2021   */\n      dup2\n        /* \"#utility.yul\":2002:2022   */\n      calldataload\n        /* \"#utility.yul\":1993:2022   */\n      swap1\n      pop\n        /* \"#utility.yul\":2031:2064   */\n      tag_226\n        /* \"#utility.yul\":2058:2063   */\n      dup2\n        /* \"#utility.yul\":2031:2064   */\n      tag_182\n      jump\t// in\n    tag_226:\n        /* \"#utility.yul\":1931:2070   */\n      swap3\n      swap2\n      pop\n      pop\n      jump\t// out\n        /* \"#utility.yul\":2076:2153   */\n    tag_184:\n        /* \"#utility.yul\":2113:2120   */\n      0x00\n        /* \"#utility.yul\":2142:2147   */\n      dup2\n        /* \"#utility.yul\":2131:2147   */\n      swap1\n      pop\n        /* \"#utility.yul\":2076:2153   */\n      swap2\n      swap1\n      pop\n      jump\t// out\n        /* \"#utility.yul\":2159:2281   */\n    tag_185:\n        /* \"#utility.yul\":2232:2256   */\n      tag_229\n        /* \"#utility.yul\":2250:2255   */\n      dup2\n        /* \"#utility.yul\":2232:2256   */\n      tag_184\n      jump\t// in\n    tag_229:\n        /* \"#utility.yul\":2225:2230   */\n      dup2\n        /* \"#utility.yul\":2222:2257   */\n      eq\n        /* \"#utility.yul\":2212:2275   */\n      tag_230\n      jumpi\n        /* \"#utility.yul\":2271:2272   */\n      0x00\n        /* \"#utility.yul\":2268:2269   */\n      dup1\n        /* \"#utility.yul\":2261:2273   */\n      revert\n        /* \"#utility.yul\":2212:2275   */\n    tag_230:\n        /* \"#utility.yul\":2159:2281   */\n      pop\n      jump\t// out\n        /* \"#utility.yul\":2287:2426   */\n    tag_186:\n        /* \"#utility.yul\":2333:2338   */\n      0x00\n        /* \"#utility.yul\":2371:2377   */\n      dup2\n        /* \"#utility.yul\":2358:2378   */\n      calldataload\n        /* \"#utility.yul\":2349:2378   */\n      swap1\n      pop\n        /* \"#utility.yul\":2387:2420   */\n      tag_232\n        /* \"#utility.yul\":2414:2419   */\n      dup2\n        /* \"#utility.yul\":2387:2420   */\n      tag_185\n      jump\t// in\n    tag_232:\n        /* \"#utility.yul\":2287:2426   */\n      swap3\n      swap2\n      pop\n      pop\n      jump\t// out\n        /* \"#utility.yul\":2432:2906   */\n    tag_21:\n        /* \"#utility.yul\":2500:2506   */\n      0x00\n        /* \"#utility.yul\":2508:2514   */\n      dup1\n        /* \"#utility.yul\":2557:2559   */\n      0x40\n        /* \"#utility.yul\":2545:2554   */\n      dup4\n        /* \"#utility.yul\":2536:2543   */\n      dup6\n        /* \"#utility.yul\":2532:2555   */\n      sub\n        /* \"#utility.yul\":2528:2560   */\n      slt\n        /* \"#utility.yul\":2525:2644   */\n      iszero\n      tag_234\n      jumpi\n        /* \"#utility.yul\":2563:2642   */\n      tag_235\n      tag_178\n      jump\t// in\n    tag_235:\n        /* \"#utility.yul\":2525:2644   */\n    tag_234:\n        /* \"#utility.yul\":2683:2684   */\n      0x00\n        /* \"#utility.yul\":2708:2761   */\n      tag_236\n        /* \"#utility.yul\":2753:2760   */\n      dup6\n        /* \"#utility.yul\":2744:2750   */\n      dup3\n        /* \"#utility.yul\":2733:2742   */\n      dup7\n        /* \"#utility.yul\":2729:2751   */\n      add\n        /* \"#utility.yul\":2708:2761   */\n      tag_183\n      jump\t// in\n    tag_236:\n        /* \"#utility.yul\":2698:2761   */\n      swap3\n      pop\n        /* \"#utility.yul\":2654:2771   */\n      pop\n        /* \"#utility.yul\":2810:2812   */\n      0x20\n        /* \"#utility.yul\":2836:2889   */\n      tag_237\n        /* \"#utility.yul\":2881:2888   */\n      dup6\n        /* \"#utility.yul\":2872:2878   */\n      dup3\n        /* \"#utility.yul\":2861:2870   */\n      dup7\n        /* \"#utility.yul\":2857:2879   */\n      add\n        /* \"#utility.yul\":2836:2889   */\n      tag_186\n      jump\t// in\n    tag_237:\n        /* \"#utility.yul\":2826:2889   */\n      swap2\n      pop\n        /* \"#utility.yul\":2781:2899   */\n      pop\n        /* \"#utility.yul\":2432:2906   */\n      swap3\n      pop\n      swap3\n      swap1\n      pop\n      jump\t// out\n        /* \"#utility.yul\":2912:3002   */\n    tag_187:\n        /* \"#utility.yul\":2946:2953   */\n      0x00\n        /* \"#utility.yul\":2989:2994   */\n      dup2\n        /* \"#utility.yul\":2982:2995   */\n      iszero\n        /* \"#utility.yul\":2975:2996   */\n      iszero\n        /* \"#utility.yul\":2964:2996   */\n      swap1\n      pop\n        /* \"#utility.yul\":2912:3002   */\n      swap2\n      swap1\n      pop\n      jump\t// out\n        /* \"#utility.yul\":3008:3117   */\n    tag_188:\n        /* \"#utility.yul\":3089:3110   */\n      tag_240\n        /* \"#utility.yul\":3104:3109   */\n      dup2\n        /* \"#utility.yul\":3089:3110   */\n      tag_187\n      jump\t// in\n    tag_240:\n        /* \"#utility.yul\":3084:3087   */\n      dup3\n        /* \"#utility.yul\":3077:3111   */\n      mstore\n        /* \"#utility.yul\":3008:3117   */\n      pop\n      pop\n      jump\t// out\n        /* \"#utility.yul\":3123:3333   */\n    tag_24:\n        /* \"#utility.yul\":3210:3214   */\n      0x00\n        /* \"#utility.yul\":3248:3250   */\n      0x20\n        /* \"#utility.yul\":3237:3246   */\n      dup3\n        /* \"#utility.yul\":3233:3251   */\n      add\n        /* \"#utility.yul\":3225:3251   */\n      swap1\n      pop\n        /* \"#utility.yul\":3261:3326   */\n      tag_242\n        /* \"#utility.yul\":3323:3324   */\n      0x00\n        /* \"#utility.yul\":3312:3321   */\n      dup4\n        /* \"#utility.yul\":3308:3325   */\n      add\n        /* \"#utility.yul\":3299:3305   */\n      dup5\n        /* \"#utility.yul\":3261:3326   */\n      tag_188\n      jump\t// in\n    tag_242:\n        /* \"#utility.yul\":3123:3333   */\n      swap3\n      swap2\n      pop\n      pop\n      jump\t// out\n        /* \"#utility.yul\":3339:3457   */\n    tag_189:\n        /* \"#utility.yul\":3426:3450   */\n      tag_244\n        /* \"#utility.yul\":3444:3449   */\n      dup2\n        /* \"#utility.yul\":3426:3450   */\n      tag_184\n      jump\t// in\n    tag_244:\n        /* \"#utility.yul\":3421:3424   */\n      dup3\n        /* \"#utility.yul\":3414:3451   */\n      mstore\n        /* \"#utility.yul\":3339:3457   */\n      pop\n      pop\n      jump\t// out\n        /* \"#utility.yul\":3463:3685   */\n    tag_28:\n        /* \"#utility.yul\":3556:3560   */\n      0x00\n        /* \"#utility.yul\":3594:3596   */\n      0x20\n        /* \"#utility.yul\":3583:3592   */\n      dup3\n        /* \"#utility.yul\":3579:3597   */\n      add\n        /* \"#utility.yul\":3571:3597   */\n      swap1\n      pop\n        /* \"#utility.yul\":3607:3678   */\n      tag_246\n        /* \"#utility.yul\":3675:3676   */\n      0x00\n        /* \"#utility.yul\":3664:3673   */\n      dup4\n        /* \"#utility.yul\":3660:3677   */\n      add\n        /* \"#utility.yul\":3651:3657   */\n      dup5\n        /* \"#utility.yul\":3607:3678   */\n      tag_189\n      jump\t// in\n    tag_246:\n        /* \"#utility.yul\":3463:3685   */\n      swap3\n      swap2\n      pop\n      pop\n      jump\t// out\n        /* \"#utility.yul\":3691:4310   */\n    tag_31:\n        /* \"#utility.yul\":3768:3774   */\n      0x00\n        /* \"#utility.yul\":3776:3782   */\n      dup1\n        /* \"#utility.yul\":3784:3790   */\n      0x00\n        /* \"#utility.yul\":3833:3835   */\n      0x60\n        /* \"#utility.yul\":3821:3830   */\n      dup5\n        /* \"#utility.yul\":3812:3819   */\n      dup7\n        /* \"#utility.yul\":3808:3831   */\n      sub\n        /* \"#utility.yul\":3804:3836   */\n      slt\n        /* \"#utility.yul\":3801:3920   */\n      iszero\n      tag_248\n      jumpi\n        /* \"#utility.yul\":3839:3918   */\n      tag_249\n      tag_178\n      jump\t// in\n    tag_249:\n        /* \"#utility.yul\":3801:3920   */\n    tag_248:\n        /* \"#utility.yul\":3959:3960   */\n      0x00\n        /* \"#utility.yul\":3984:4037   */\n      tag_250\n        /* \"#utility.yul\":4029:4036   */\n      dup7\n        /* \"#utility.yul\":4020:4026   */\n      dup3\n        /* \"#utility.yul\":4009:4018   */\n      dup8\n        /* \"#utility.yul\":4005:4027   */\n      add\n        /* \"#utility.yul\":3984:4037   */\n      tag_183\n      jump\t// in\n    tag_250:\n        /* \"#utility.yul\":3974:4037   */\n      swap4\n      pop\n        /* \"#utility.yul\":3930:4047   */\n      pop\n        /* \"#utility.yul\":4086:4088   */\n      0x20\n        /* \"#utility.yul\":4112:4165   */\n      tag_251\n        /* \"#utility.yul\":4157:4164   */\n      dup7\n        /* \"#utility.yul\":4148:4154   */\n      dup3\n        /* \"#utility.yul\":4137:4146   */\n      dup8\n        /* \"#utility.yul\":4133:4155   */\n      add\n        /* \"#utility.yul\":4112:4165   */\n      tag_183\n      jump\t// in\n    tag_251:\n        /* \"#utility.yul\":4102:4165   */\n      swap3\n      pop\n        /* \"#utility.yul\":4057:4175   */\n      pop\n        /* \"#utility.yul\":4214:4216   */\n      0x40\n        /* \"#utility.yul\":4240:4293   */\n      tag_252\n        /* \"#utility.yul\":4285:4292   */\n      dup7\n        /* \"#utility.yul\":4276:4282   */\n      dup3\n        /* \"#utility.yul\":4265:4274   */\n      dup8\n        /* \"#utility.yul\":4261:4283   */\n      add\n        /* \"#utility.yul\":4240:4293   */\n      tag_186\n      jump\t// in\n    tag_252:\n        /* \"#utility.yul\":4230:4293   */\n      swap2\n      pop\n        /* \"#utility.yul\":4185:4303   */\n      pop\n        /* \"#utility.yul\":3691:4310   */\n      swap3\n      pop\n      swap3\n      pop\n      swap3\n      jump\t// out\n        /* \"#utility.yul\":4316:4402   */\n    tag_190:\n        /* \"#utility.yul\":4351:4358   */\n      0x00\n        /* \"#utility.yul\":4391:4395   */\n      0xff\n        /* \"#utility.yul\":4384:4389   */\n      dup3\n        /* \"#utility.yul\":4380:4396   */\n      and\n        /* \"#utility.yul\":4369:4396   */\n      swap1\n      pop\n        /* \"#utility.yul\":4316:4402   */\n      swap2\n      swap1\n      pop\n      jump\t// out\n        /* \"#utility.yul\":4408:4520   */\n    tag_191:\n        /* \"#utility.yul\":4491:4513   */\n      tag_255\n        /* \"#utility.yul\":4507:4512   */\n      dup2\n        /* \"#utility.yul\":4491:4513   */\n      tag_190\n      jump\t// in\n    tag_255:\n        /* \"#utility.yul\":4486:4489   */\n      dup3\n        /* \"#utility.yul\":4479:4514   */\n      mstore\n        /* \"#utility.yul\":4408:4520   */\n      pop\n      pop\n      jump\t// out\n        /* \"#utility.yul\":4526:4740   */\n    tag_37:\n        /* \"#utility.yul\":4615:4619   */\n      0x00\n        /* \"#utility.yul\":4653:4655   */\n      0x20\n        /* \"#utility.yul\":4642:4651   */\n      dup3\n        /* \"#utility.yul\":4638:4656   */\n      add\n        /* \"#utility.yul\":4630:4656   */\n      swap1\n      pop\n        /* \"#utility.yul\":4666:4733   */\n      tag_257\n        /* \"#utility.yul\":4730:4731   */\n      0x00\n        /* \"#utility.yul\":4719:4728   */\n      dup4\n        /* \"#utility.yul\":4715:4732   */\n      add\n        /* \"#utility.yul\":4706:4712   */\n      dup5\n        /* \"#utility.yul\":4666:4733   */\n      tag_191\n      jump\t// in\n    tag_257:\n        /* \"#utility.yul\":4526:4740   */\n      swap3\n      swap2\n      pop\n      pop\n      jump\t// out\n        /* \"#utility.yul\":4746:5075   */\n    tag_40:\n        /* \"#utility.yul\":4805:4811   */\n      0x00\n        /* \"#utility.yul\":4854:4856   */\n      0x20\n        /* \"#utility.yul\":4842:4851   */\n      dup3\n        /* \"#utility.yul\":4833:4840   */\n      dup5\n        /* \"#utility.yul\":4829:4852   */\n      sub\n        /* \"#utility.yul\":4825:4857   */\n      slt\n        /* \"#utility.yul\":4822:4941   */\n      iszero\n      tag_259\n      jumpi\n        /* \"#utility.yul\":4860:4939   */\n      tag_260\n      tag_178\n      jump\t// in\n    tag_260:\n        /* \"#utility.yul\":4822:4941   */\n    tag_259:\n        /* \"#utility.yul\":4980:4981   */\n      0x00\n        /* \"#utility.yul\":5005:5058   */\n      tag_261\n        /* \"#utility.yul\":5050:5057   */\n      dup5\n        /* \"#utility.yul\":5041:5047   */\n      dup3\n        /* \"#utility.yul\":5030:5039   */\n      dup6\n        /* \"#utility.yul\":5026:5048   */\n      add\n        /* \"#utility.yul\":5005:5058   */\n      tag_186\n      jump\t// in\n    tag_261:\n        /* \"#utility.yul\":4995:5058   */\n      swap2\n      pop\n        /* \"#utility.yul\":4951:5068   */\n      pop\n        /* \"#utility.yul\":4746:5075   */\n      swap3\n      swap2\n      pop\n      pop\n      jump\t// out\n        /* \"#utility.yul\":5081:5410   */\n    tag_44:\n        /* \"#utility.yul\":5140:5146   */\n      0x00\n        /* \"#utility.yul\":5189:5191   */\n      0x20\n        /* \"#utility.yul\":5177:5186   */\n      dup3\n        /* \"#utility.yul\":5168:5175   */\n      dup5\n        /* \"#utility.yul\":5164:5187   */\n      sub\n        /* \"#utility.yul\":5160:5192   */\n      slt\n        /* \"#utility.yul\":5157:5276   */\n      iszero\n      tag_263\n      jumpi\n        /* \"#utility.yul\":5195:5274   */\n      tag_264\n      tag_178\n      jump\t// in\n    tag_264:\n        /* \"#utility.yul\":5157:5276   */\n    tag_263:\n        /* \"#utility.yul\":5315:5316   */\n      0x00\n        /* \"#utility.yul\":5340:5393   */\n      tag_265\n        /* \"#utility.yul\":5385:5392   */\n      dup5\n        /* \"#utility.yul\":5376:5382   */\n      dup3\n        /* \"#utility.yul\":5365:5374   */\n      dup6\n        /* \"#utility.yul\":5361:5383   */\n      add\n        /* \"#utility.yul\":5340:5393   */\n      tag_183\n      jump\t// in\n    tag_265:\n        /* \"#utility.yul\":5330:5393   */\n      swap2\n      pop\n        /* \"#utility.yul\":5286:5403   */\n      pop\n        /* \"#utility.yul\":5081:5410   */\n      swap3\n      swap2\n      pop\n      pop\n      jump\t// out\n        /* \"#utility.yul\":5416:5890   */\n    tag_59:\n        /* \"#utility.yul\":5484:5490   */\n      0x00\n        /* \"#utility.yul\":5492:5498   */\n      dup1\n        /* \"#utility.yul\":5541:5543   */\n      0x40\n        /* \"#utility.yul\":5529:5538   */\n      dup4\n        /* \"#utility.yul\":5520:5527   */\n      dup6\n        /* \"#utility.yul\":5516:5539   */\n      sub\n        /* \"#utility.yul\":5512:5544   */\n      slt\n        /* \"#utility.yul\":5509:5628   */\n      iszero\n      tag_267\n      jumpi\n        /* \"#utility.yul\":5547:5626   */\n      tag_268\n      tag_178\n      jump\t// in\n    tag_268:\n        /* \"#utility.yul\":5509:5628   */\n    tag_267:\n        /* \"#utility.yul\":5667:5668   */\n      0x00\n        /* \"#utility.yul\":5692:5745   */\n      tag_269\n        /* \"#utility.yul\":5737:5744   */\n      dup6\n        /* \"#utility.yul\":5728:5734   */\n      dup3\n        /* \"#utility.yul\":5717:5726   */\n      dup7\n        /* \"#utility.yul\":5713:5735   */\n      add\n        /* \"#utility.yul\":5692:5745   */\n      tag_183\n      jump\t// in\n    tag_269:\n        /* \"#utility.yul\":5682:5745   */\n      swap3\n      pop\n        /* \"#utility.yul\":5638:5755   */\n      pop\n        /* \"#utility.yul\":5794:5796   */\n      0x20\n        /* \"#utility.yul\":5820:5873   */\n      tag_270\n        /* \"#utility.yul\":5865:5872   */\n      dup6\n        /* \"#utility.yul\":5856:5862   */\n      dup3\n        /* \"#utility.yul\":5845:5854   */\n      dup7\n        /* \"#utility.yul\":5841:5863   */\n      add\n        /* \"#utility.yul\":5820:5873   */\n      tag_183\n      jump\t// in\n    tag_270:\n        /* \"#utility.yul\":5810:5873   */\n      swap2\n      pop\n        /* \"#utility.yul\":5765:5883   */\n      pop\n        /* \"#utility.yul\":5416:5890   */\n      swap3\n      pop\n      swap3\n      swap1\n      pop\n      jump\t// out\n        /* \"#utility.yul\":5896:6076   */\n    tag_192:\n        /* \"#utility.yul\":5944:6021   */\n      0x4e487b7100000000000000000000000000000000000000000000000000000000\n        /* \"#utility.yul\":5941:5942   */\n      0x00\n        /* \"#utility.yul\":5934:6022   */\n      mstore\n        /* \"#utility.yul\":6041:6045   */\n      0x22\n        /* \"#utility.yul\":6038:6039   */\n      0x04\n        /* \"#utility.yul\":6031:6046   */\n      mstore\n        /* \"#utility.yul\":6065:6069   */\n      0x24\n        /* \"#utility.yul\":6062:6063   */\n      0x00\n        /* \"#utility.yul\":6055:6070   */\n      revert\n        /* \"#utility.yul\":6082:6402   */\n    tag_64:\n        /* \"#utility.yul\":6126:6132   */\n      0x00\n        /* \"#utility.yul\":6163:6164   */\n      0x02\n        /* \"#utility.yul\":6157:6161   */\n      dup3\n        /* \"#utility.yul\":6153:6165   */\n      div\n        /* \"#utility.yul\":6143:6165   */\n      swap1\n      pop\n        /* \"#utility.yul\":6210:6211   */\n      0x01\n        /* \"#utility.yul\":6204:6208   */\n      dup3\n        /* \"#utility.yul\":6200:6212   */\n      and\n        /* \"#utility.yul\":6231:6249   */\n      dup1\n        /* \"#utility.yul\":6221:6302   */\n      tag_273\n      jumpi\n        /* \"#utility.yul\":6287:6291   */\n      0x7f\n        /* \"#utility.yul\":6279:6285   */\n      dup3\n        /* \"#utility.yul\":6275:6292   */\n      and\n        /* \"#utility.yul\":6265:6292   */\n      swap2\n      pop\n        /* \"#utility.yul\":6221:6302   */\n    tag_273:\n        /* \"#utility.yul\":6349:6351   */\n      0x20\n        /* \"#utility.yul\":6341:6347   */\n      dup3\n        /* \"#utility.yul\":6338:6352   */\n      lt\n        /* \"#utility.yul\":6318:6336   */\n      dup2\n        /* \"#utility.yul\":6315:6353   */\n      sub\n        /* \"#utility.yul\":6312:6396   */\n      tag_274\n      jumpi\n        /* \"#utility.yul\":6368:6386   */\n      tag_275\n      tag_192\n      jump\t// in\n    tag_275:\n        /* \"#utility.yul\":6312:6396   */\n    tag_274:\n        /* \"#utility.yul\":6133:6402   */\n      pop\n        /* \"#utility.yul\":6082:6402   */\n      swap2\n      swap1\n      pop\n      jump\t// out\n        /* \"#utility.yul\":6408:6628   */\n    tag_193:\n        /* \"#utility.yul\":6548:6582   */\n      0x796f7520646f6e74206861766520656e6f75676820457263323020746f6b656e\n        /* \"#utility.yul\":6544:6545   */\n      0x00\n        /* \"#utility.yul\":6536:6542   */\n      dup3\n        /* \"#utility.yul\":6532:6546   */\n      add\n        /* \"#utility.yul\":6525:6583   */\n      mstore\n        /* \"#utility.yul\":6617:6620   */\n      0x7300000000000000000000000000000000000000000000000000000000000000\n        /* \"#utility.yul\":6612:6614   */\n      0x20\n        /* \"#utility.yul\":6604:6610   */\n      dup3\n        /* \"#utility.yul\":6600:6615   */\n      add\n        /* \"#utility.yul\":6593:6621   */\n      mstore\n        /* \"#utility.yul\":6408:6628   */\n      pop\n      jump\t// out\n        /* \"#utility.yul\":6634:7000   */\n    tag_194:\n        /* \"#utility.yul\":6776:6779   */\n      0x00\n        /* \"#utility.yul\":6797:6864   */\n      tag_278\n        /* \"#utility.yul\":6861:6863   */\n      0x21\n        /* \"#utility.yul\":6856:6859   */\n      dup4\n        /* \"#utility.yul\":6797:6864   */\n      tag_173\n      jump\t// in\n    tag_278:\n        /* \"#utility.yul\":6790:6864   */\n      swap2\n      pop\n        /* \"#utility.yul\":6873:6966   */\n      tag_279\n        /* \"#utility.yul\":6962:6965   */\n      dup3\n        /* \"#utility.yul\":6873:6966   */\n      tag_193\n      jump\t// in\n    tag_279:\n        /* \"#utility.yul\":6991:6993   */\n      0x40\n        /* \"#utility.yul\":6986:6989   */\n      dup3\n        /* \"#utility.yul\":6982:6994   */\n      add\n        /* \"#utility.yul\":6975:6994   */\n      swap1\n      pop\n        /* \"#utility.yul\":6634:7000   */\n      swap2\n      swap1\n      pop\n      jump\t// out\n        /* \"#utility.yul\":7006:7425   */\n    tag_86:\n        /* \"#utility.yul\":7172:7176   */\n      0x00\n        /* \"#utility.yul\":7210:7212   */\n      0x20\n        /* \"#utility.yul\":7199:7208   */\n      dup3\n        /* \"#utility.yul\":7195:7213   */\n      add\n        /* \"#utility.yul\":7187:7213   */\n      swap1\n      pop\n        /* \"#utility.yul\":7259:7268   */\n      dup2\n        /* \"#utility.yul\":7253:7257   */\n      dup2\n        /* \"#utility.yul\":7249:7269   */\n      sub\n        /* \"#utility.yul\":7245:7246   */\n      0x00\n        /* \"#utility.yul\":7234:7243   */\n      dup4\n        /* \"#utility.yul\":7230:7247   */\n      add\n        /* \"#utility.yul\":7223:7270   */\n      mstore\n        /* \"#utility.yul\":7287:7418   */\n      tag_281\n        /* \"#utility.yul\":7413:7417   */\n      dup2\n        /* \"#utility.yul\":7287:7418   */\n      tag_194\n      jump\t// in\n    tag_281:\n        /* \"#utility.yul\":7279:7418   */\n      swap1\n      pop\n        /* \"#utility.yul\":7006:7425   */\n      swap2\n      swap1\n      pop\n      jump\t// out\n        /* \"#utility.yul\":7431:7547   */\n    tag_195:\n        /* \"#utility.yul\":7501:7522   */\n      tag_283\n        /* \"#utility.yul\":7516:7521   */\n      dup2\n        /* \"#utility.yul\":7501:7522   */\n      tag_187\n      jump\t// in\n    tag_283:\n        /* \"#utility.yul\":7494:7499   */\n      dup2\n        /* \"#utility.yul\":7491:7523   */\n      eq\n        /* \"#utility.yul\":7481:7541   */\n      tag_284\n      jumpi\n        /* \"#utility.yul\":7537:7538   */\n      0x00\n        /* \"#utility.yul\":7534:7535   */\n      dup1\n        /* \"#utility.yul\":7527:7539   */\n      revert\n        /* \"#utility.yul\":7481:7541   */\n    tag_284:\n        /* \"#utility.yul\":7431:7547   */\n      pop\n      jump\t// out\n        /* \"#utility.yul\":7553:7690   */\n    tag_196:\n        /* \"#utility.yul\":7607:7612   */\n      0x00\n        /* \"#utility.yul\":7638:7644   */\n      dup2\n        /* \"#utility.yul\":7632:7645   */\n      mload\n        /* \"#utility.yul\":7623:7645   */\n      swap1\n      pop\n        /* \"#utility.yul\":7654:7684   */\n      tag_286\n        /* \"#utility.yul\":7678:7683   */\n      dup2\n        /* \"#utility.yul\":7654:7684   */\n      tag_195\n      jump\t// in\n    tag_286:\n        /* \"#utility.yul\":7553:7690   */\n      swap3\n      swap2\n      pop\n      pop\n      jump\t// out\n        /* \"#utility.yul\":7696:8041   */\n    tag_90:\n        /* \"#utility.yul\":7763:7769   */\n      0x00\n        /* \"#utility.yul\":7812:7814   */\n      0x20\n        /* \"#utility.yul\":7800:7809   */\n      dup3\n        /* \"#utility.yul\":7791:7798   */\n      dup5\n        /* \"#utility.yul\":7787:7810   */\n      sub\n        /* \"#utility.yul\":7783:7815   */\n      slt\n        /* \"#utility.yul\":7780:7899   */\n      iszero\n      tag_288\n      jumpi\n        /* \"#utility.yul\":7818:7897   */\n      tag_289\n      tag_178\n      jump\t// in\n    tag_289:\n        /* \"#utility.yul\":7780:7899   */\n    tag_288:\n        /* \"#utility.yul\":7938:7939   */\n      0x00\n        /* \"#utility.yul\":7963:8024   */\n      tag_290\n        /* \"#utility.yul\":8016:8023   */\n      dup5\n        /* \"#utility.yul\":8007:8013   */\n      dup3\n        /* \"#utility.yul\":7996:8005   */\n      dup6\n        /* \"#utility.yul\":7992:8014   */\n      add\n        /* \"#utility.yul\":7963:8024   */\n      tag_196\n      jump\t// in\n    tag_290:\n        /* \"#utility.yul\":7953:8024   */\n      swap2\n      pop\n        /* \"#utility.yul\":7909:8034   */\n      pop\n        /* \"#utility.yul\":7696:8041   */\n      swap3\n      swap2\n      pop\n      pop\n      jump\t// out\n        /* \"#utility.yul\":8047:8228   */\n    tag_197:\n        /* \"#utility.yul\":8187:8220   */\n      0x5468652066756e644d65206973206e6f7420636f6d706c657465642079657400\n        /* \"#utility.yul\":8183:8184   */\n      0x00\n        /* \"#utility.yul\":8175:8181   */\n      dup3\n        /* \"#utility.yul\":8171:8185   */\n      add\n        /* \"#utility.yul\":8164:8221   */\n      mstore\n        /* \"#utility.yul\":8047:8228   */\n      pop\n      jump\t// out\n        /* \"#utility.yul\":8234:8600   */\n    tag_198:\n        /* \"#utility.yul\":8376:8379   */\n      0x00\n        /* \"#utility.yul\":8397:8464   */\n      tag_293\n        /* \"#utility.yul\":8461:8463   */\n      0x1f\n        /* \"#utility.yul\":8456:8459   */\n      dup4\n        /* \"#utility.yul\":8397:8464   */\n      tag_173\n      jump\t// in\n    tag_293:\n        /* \"#utility.yul\":8390:8464   */\n      swap2\n      pop\n        /* \"#utility.yul\":8473:8566   */\n      tag_294\n        /* \"#utility.yul\":8562:8565   */\n      dup3\n        /* \"#utility.yul\":8473:8566   */\n      tag_197\n      jump\t// in\n    tag_294:\n        /* \"#utility.yul\":8591:8593   */\n      0x20\n        /* \"#utility.yul\":8586:8589   */\n      dup3\n        /* \"#utility.yul\":8582:8594   */\n      add\n        /* \"#utility.yul\":8575:8594   */\n      swap1\n      pop\n        /* \"#utility.yul\":8234:8600   */\n      swap2\n      swap1\n      pop\n      jump\t// out\n        /* \"#utility.yul\":8606:9025   */\n    tag_93:\n        /* \"#utility.yul\":8772:8776   */\n      0x00\n        /* \"#utility.yul\":8810:8812   */\n      0x20\n        /* \"#utility.yul\":8799:8808   */\n      dup3\n        /* \"#utility.yul\":8795:8813   */\n      add\n        /* \"#utility.yul\":8787:8813   */\n      swap1\n      pop\n        /* \"#utility.yul\":8859:8868   */\n      dup2\n        /* \"#utility.yul\":8853:8857   */\n      dup2\n        /* \"#utility.yul\":8849:8869   */\n      sub\n        /* \"#utility.yul\":8845:8846   */\n      0x00\n        /* \"#utility.yul\":8834:8843   */\n      dup4\n        /* \"#utility.yul\":8830:8847   */\n      add\n        /* \"#utility.yul\":8823:8870   */\n      mstore\n        /* \"#utility.yul\":8887:9018   */\n      tag_296\n        /* \"#utility.yul\":9013:9017   */\n      dup2\n        /* \"#utility.yul\":8887:9018   */\n      tag_198\n      jump\t// in\n    tag_296:\n        /* \"#utility.yul\":8879:9018   */\n      swap1\n      pop\n        /* \"#utility.yul\":8606:9025   */\n      swap2\n      swap1\n      pop\n      jump\t// out\n        /* \"#utility.yul\":9031:9149   */\n    tag_199:\n        /* \"#utility.yul\":9118:9142   */\n      tag_298\n        /* \"#utility.yul\":9136:9141   */\n      dup2\n        /* \"#utility.yul\":9118:9142   */\n      tag_181\n      jump\t// in\n    tag_298:\n        /* \"#utility.yul\":9113:9116   */\n      dup3\n        /* \"#utility.yul\":9106:9143   */\n      mstore\n        /* \"#utility.yul\":9031:9149   */\n      pop\n      pop\n      jump\t// out\n        /* \"#utility.yul\":9155:9377   */\n    tag_105:\n        /* \"#utility.yul\":9248:9252   */\n      0x00\n        /* \"#utility.yul\":9286:9288   */\n      0x20\n        /* \"#utility.yul\":9275:9284   */\n      dup3\n        /* \"#utility.yul\":9271:9289   */\n      add\n        /* \"#utility.yul\":9263:9289   */\n      swap1\n      pop\n        /* \"#utility.yul\":9299:9370   */\n      tag_300\n        /* \"#utility.yul\":9367:9368   */\n      0x00\n        /* \"#utility.yul\":9356:9365   */\n      dup4\n        /* \"#utility.yul\":9352:9369   */\n      add\n        /* \"#utility.yul\":9343:9349   */\n      dup5\n        /* \"#utility.yul\":9299:9370   */\n      tag_199\n      jump\t// in\n    tag_300:\n        /* \"#utility.yul\":9155:9377   */\n      swap3\n      swap2\n      pop\n      pop\n      jump\t// out\n        /* \"#utility.yul\":9383:9526   */\n    tag_200:\n        /* \"#utility.yul\":9440:9445   */\n      0x00\n        /* \"#utility.yul\":9471:9477   */\n      dup2\n        /* \"#utility.yul\":9465:9478   */\n      mload\n        /* \"#utility.yul\":9456:9478   */\n      swap1\n      pop\n        /* \"#utility.yul\":9487:9520   */\n      tag_302\n        /* \"#utility.yul\":9514:9519   */\n      dup2\n        /* \"#utility.yul\":9487:9520   */\n      tag_185\n      jump\t// in\n    tag_302:\n        /* \"#utility.yul\":9383:9526   */\n      swap3\n      swap2\n      pop\n      pop\n      jump\t// out\n        /* \"#utility.yul\":9532:9883   */\n    tag_109:\n        /* \"#utility.yul\":9602:9608   */\n      0x00\n        /* \"#utility.yul\":9651:9653   */\n      0x20\n        /* \"#utility.yul\":9639:9648   */\n      dup3\n        /* \"#utility.yul\":9630:9637   */\n      dup5\n        /* \"#utility.yul\":9626:9649   */\n      sub\n        /* \"#utility.yul\":9622:9654   */\n      slt\n        /* \"#utility.yul\":9619:9738   */\n      iszero\n      tag_304\n      jumpi\n        /* \"#utility.yul\":9657:9736   */\n      tag_305\n      tag_178\n      jump\t// in\n    tag_305:\n        /* \"#utility.yul\":9619:9738   */\n    tag_304:\n        /* \"#utility.yul\":9777:9778   */\n      0x00\n        /* \"#utility.yul\":9802:9866   */\n      tag_306\n        /* \"#utility.yul\":9858:9865   */\n      dup5\n        /* \"#utility.yul\":9849:9855   */\n      dup3\n        /* \"#utility.yul\":9838:9847   */\n      dup6\n        /* \"#utility.yul\":9834:9856   */\n      add\n        /* \"#utility.yul\":9802:9866   */\n      tag_200\n      jump\t// in\n    tag_306:\n        /* \"#utility.yul\":9792:9866   */\n      swap2\n      pop\n        /* \"#utility.yul\":9748:9876   */\n      pop\n        /* \"#utility.yul\":9532:9883   */\n      swap3\n      swap2\n      pop\n      pop\n      jump\t// out\n        /* \"#utility.yul\":9889:10109   */\n    tag_201:\n        /* \"#utility.yul\":10029:10063   */\n      0x796f752063616e206e6f74206d696e742074686973206d616e7920746f6b656e\n        /* \"#utility.yul\":10025:10026   */\n      0x00\n        /* \"#utility.yul\":10017:10023   */\n      dup3\n        /* \"#utility.yul\":10013:10027   */\n      add\n        /* \"#utility.yul\":10006:10064   */\n      mstore\n        /* \"#utility.yul\":10098:10101   */\n      0x7300000000000000000000000000000000000000000000000000000000000000\n        /* \"#utility.yul\":10093:10095   */\n      0x20\n        /* \"#utility.yul\":10085:10091   */\n      dup3\n        /* \"#utility.yul\":10081:10096   */\n      add\n        /* \"#utility.yul\":10074:10102   */\n      mstore\n        /* \"#utility.yul\":9889:10109   */\n      pop\n      jump\t// out\n        /* \"#utility.yul\":10115:10481   */\n    tag_202:\n        /* \"#utility.yul\":10257:10260   */\n      0x00\n        /* \"#utility.yul\":10278:10345   */\n      tag_309\n        /* \"#utility.yul\":10342:10344   */\n      0x21\n        /* \"#utility.yul\":10337:10340   */\n      dup4\n        /* \"#utility.yul\":10278:10345   */\n      tag_173\n      jump\t// in\n    tag_309:\n        /* \"#utility.yul\":10271:10345   */\n      swap2\n      pop\n        /* \"#utility.yul\":10354:10447   */\n      tag_310\n        /* \"#utility.yul\":10443:10446   */\n      dup3\n        /* \"#utility.yul\":10354:10447   */\n      tag_201\n      jump\t// in\n    tag_310:\n        /* \"#utility.yul\":10472:10474   */\n      0x40\n        /* \"#utility.yul\":10467:10470   */\n      dup3\n        /* \"#utility.yul\":10463:10475   */\n      add\n        /* \"#utility.yul\":10456:10475   */\n      swap1\n      pop\n        /* \"#utility.yul\":10115:10481   */\n      swap2\n      swap1\n      pop\n      jump\t// out\n        /* \"#utility.yul\":10487:10906   */\n    tag_112:\n        /* \"#utility.yul\":10653:10657   */\n      0x00\n        /* \"#utility.yul\":10691:10693   */\n      0x20\n        /* \"#utility.yul\":10680:10689   */\n      dup3\n        /* \"#utility.yul\":10676:10694   */\n      add\n        /* \"#utility.yul\":10668:10694   */\n      swap1\n      pop\n        /* \"#utility.yul\":10740:10749   */\n      dup2\n        /* \"#utility.yul\":10734:10738   */\n      dup2\n        /* \"#utility.yul\":10730:10750   */\n      sub\n        /* \"#utility.yul\":10726:10727   */\n      0x00\n        /* \"#utility.yul\":10715:10724   */\n      dup4\n        /* \"#utility.yul\":10711:10728   */\n      add\n        /* \"#utility.yul\":10704:10751   */\n      mstore\n        /* \"#utility.yul\":10768:10899   */\n      tag_312\n        /* \"#utility.yul\":10894:10898   */\n      dup2\n        /* \"#utility.yul\":10768:10899   */\n      tag_202\n      jump\t// in\n    tag_312:\n        /* \"#utility.yul\":10760:10899   */\n      swap1\n      pop\n        /* \"#utility.yul\":10487:10906   */\n      swap2\n      swap1\n      pop\n      jump\t// out\n        /* \"#utility.yul\":10912:11244   */\n    tag_121:\n        /* \"#utility.yul\":11033:11037   */\n      0x00\n        /* \"#utility.yul\":11071:11073   */\n      0x40\n        /* \"#utility.yul\":11060:11069   */\n      dup3\n        /* \"#utility.yul\":11056:11074   */\n      add\n        /* \"#utility.yul\":11048:11074   */\n      swap1\n      pop\n        /* \"#utility.yul\":11084:11155   */\n      tag_314\n        /* \"#utility.yul\":11152:11153   */\n      0x00\n        /* \"#utility.yul\":11141:11150   */\n      dup4\n        /* \"#utility.yul\":11137:11154   */\n      add\n        /* \"#utility.yul\":11128:11134   */\n      dup6\n        /* \"#utility.yul\":11084:11155   */\n      tag_199\n      jump\t// in\n    tag_314:\n        /* \"#utility.yul\":11165:11237   */\n      tag_315\n        /* \"#utility.yul\":11233:11235   */\n      0x20\n        /* \"#utility.yul\":11222:11231   */\n      dup4\n        /* \"#utility.yul\":11218:11236   */\n      add\n        /* \"#utility.yul\":11209:11215   */\n      dup5\n        /* \"#utility.yul\":11165:11237   */\n      tag_189\n      jump\t// in\n    tag_315:\n        /* \"#utility.yul\":10912:11244   */\n      swap4\n      swap3\n      pop\n      pop\n      pop\n      jump\t// out\n        /* \"#utility.yul\":11250:11692   */\n    tag_138:\n        /* \"#utility.yul\":11399:11403   */\n      0x00\n        /* \"#utility.yul\":11437:11439   */\n      0x60\n        /* \"#utility.yul\":11426:11435   */\n      dup3\n        /* \"#utility.yul\":11422:11440   */\n      add\n        /* \"#utility.yul\":11414:11440   */\n      swap1\n      pop\n        /* \"#utility.yul\":11450:11521   */\n      tag_317\n        /* \"#utility.yul\":11518:11519   */\n      0x00\n        /* \"#utility.yul\":11507:11516   */\n      dup4\n        /* \"#utility.yul\":11503:11520   */\n      add\n        /* \"#utility.yul\":11494:11500   */\n      dup7\n        /* \"#utility.yul\":11450:11521   */\n      tag_199\n      jump\t// in\n    tag_317:\n        /* \"#utility.yul\":11531:11603   */\n      tag_318\n        /* \"#utility.yul\":11599:11601   */\n      0x20\n        /* \"#utility.yul\":11588:11597   */\n      dup4\n        /* \"#utility.yul\":11584:11602   */\n      add\n        /* \"#utility.yul\":11575:11581   */\n      dup6\n        /* \"#utility.yul\":11531:11603   */\n      tag_189\n      jump\t// in\n    tag_318:\n        /* \"#utility.yul\":11613:11685   */\n      tag_319\n        /* \"#utility.yul\":11681:11683   */\n      0x40\n        /* \"#utility.yul\":11670:11679   */\n      dup4\n        /* \"#utility.yul\":11666:11684   */\n      add\n        /* \"#utility.yul\":11657:11663   */\n      dup5\n        /* \"#utility.yul\":11613:11685   */\n      tag_189\n      jump\t// in\n    tag_319:\n        /* \"#utility.yul\":11250:11692   */\n      swap5\n      swap4\n      pop\n      pop\n      pop\n      pop\n      jump\t// out\n        /* \"#utility.yul\":11698:11878   */\n    tag_203:\n        /* \"#utility.yul\":11746:11823   */\n      0x4e487b7100000000000000000000000000000000000000000000000000000000\n        /* \"#utility.yul\":11743:11744   */\n      0x00\n        /* \"#utility.yul\":11736:11824   */\n      mstore\n        /* \"#utility.yul\":11843:11847   */\n      0x11\n        /* \"#utility.yul\":11840:11841   */\n      0x04\n        /* \"#utility.yul\":11833:11848   */\n      mstore\n        /* \"#utility.yul\":11867:11871   */\n      0x24\n        /* \"#utility.yul\":11864:11865   */\n      0x00\n        /* \"#utility.yul\":11857:11872   */\n      revert\n        /* \"#utility.yul\":11884:12075   */\n    tag_165:\n        /* \"#utility.yul\":11924:11927   */\n      0x00\n        /* \"#utility.yul\":11943:11963   */\n      tag_322\n        /* \"#utility.yul\":11961:11962   */\n      dup3\n        /* \"#utility.yul\":11943:11963   */\n      tag_184\n      jump\t// in\n    tag_322:\n        /* \"#utility.yul\":11938:11963   */\n      swap2\n      pop\n        /* \"#utility.yul\":11977:11997   */\n      tag_323\n        /* \"#utility.yul\":11995:11996   */\n      dup4\n        /* \"#utility.yul\":11977:11997   */\n      tag_184\n      jump\t// in\n    tag_323:\n        /* \"#utility.yul\":11972:11997   */\n      swap3\n      pop\n        /* \"#utility.yul\":12020:12021   */\n      dup3\n        /* \"#utility.yul\":12017:12018   */\n      dup3\n        /* \"#utility.yul\":12013:12022   */\n      add\n        /* \"#utility.yul\":12006:12022   */\n      swap1\n      pop\n        /* \"#utility.yul\":12041:12044   */\n      dup1\n        /* \"#utility.yul\":12038:12039   */\n      dup3\n        /* \"#utility.yul\":12035:12045   */\n      gt\n        /* \"#utility.yul\":12032:12068   */\n      iszero\n      tag_324\n      jumpi\n        /* \"#utility.yul\":12048:12066   */\n      tag_325\n      tag_203\n      jump\t// in\n    tag_325:\n        /* \"#utility.yul\":12032:12068   */\n    tag_324:\n        /* \"#utility.yul\":11884:12075   */\n      swap3\n      swap2\n      pop\n      pop\n      jump\t// out\n\n    auxdata: 0xa2646970667358221220d85c0f9fb453f8e79a0bdf8041bd9d126c0da9d282b84dd58bf346721b19affd64736f6c634300081a0033\n}\n",
				"bytecode": {
					"linkReferences": {},
					"object": "608060405234801561000f575f80fd5b5060405161199e38038061199e83398181016040528101906100319190610163565b6040518060400160405280600e81526020017f46756e64546f6b656e45726332300000000000000000000000000000000000008152506040518060400160405280600281526020017f465400000000000000000000000000000000000000000000000000000000000081525081600390816100ac91906103c8565b5080600490816100bc91906103c8565b5050508060055f6101000a81548173ffffffffffffffffffffffffffffffffffffffff021916908373ffffffffffffffffffffffffffffffffffffffff16021790555050610497565b5f80fd5b5f73ffffffffffffffffffffffffffffffffffffffff82169050919050565b5f61013282610109565b9050919050565b61014281610128565b811461014c575f80fd5b50565b5f8151905061015d81610139565b92915050565b5f6020828403121561017857610177610105565b5b5f6101858482850161014f565b91505092915050565b5f81519050919050565b7f4e487b71000000000000000000000000000000000000000000000000000000005f52604160045260245ffd5b7f4e487b71000000000000000000000000000000000000000000000000000000005f52602260045260245ffd5b5f600282049050600182168061020957607f821691505b60208210810361021c5761021b6101c5565b5b50919050565b5f819050815f5260205f209050919050565b5f6020601f8301049050919050565b5f82821b905092915050565b5f6008830261027e7fffffffffffffffffffffffffffffffffffffffffffffffffffffffffffffffff82610243565b6102888683610243565b95508019841693508086168417925050509392505050565b5f819050919050565b5f819050919050565b5f6102cc6102c76102c2846102a0565b6102a9565b6102a0565b9050919050565b5f819050919050565b6102e5836102b2565b6102f96102f1826102d3565b84845461024f565b825550505050565b5f90565b61030d610301565b6103188184846102dc565b505050565b5b8181101561033b576103305f82610305565b60018101905061031e565b5050565b601f8211156103805761035181610222565b61035a84610234565b81016020851015610369578190505b61037d61037585610234565b83018261031d565b50505b505050565b5f82821c905092915050565b5f6103a05f1984600802610385565b1980831691505092915050565b5f6103b88383610391565b9150826002028217905092915050565b6103d18261018e565b67ffffffffffffffff8111156103ea576103e9610198565b5b6103f482546101f2565b6103ff82828561033f565b5f60209050601f831160018114610430575f841561041e578287015190505b61042885826103ad565b86555061048f565b601f19841661043e86610222565b5f5b8281101561046557848901518255600182019150602085019450602081019050610440565b86831015610482578489015161047e601f891682610391565b8355505b6001600288020188555050505b505050505050565b6114fa806104a45f395ff3fe608060405234801561000f575f80fd5b50600436106100a7575f3560e01c8063379607f51161006f578063379607f51461016557806370a082311461018157806395d89b41146101b1578063a0712d68146101cf578063a9059cbb146101eb578063dd62ed3e1461021b576100a7565b806306fdde03146100ab578063095ea7b3146100c957806318160ddd146100f957806323b872dd14610117578063313ce56714610147575b5f80fd5b6100b361024b565b6040516100c09190610f09565b60405180910390f35b6100e360048036038101906100de9190610fba565b6102db565b6040516100f09190611012565b60405180910390f35b6101016102fd565b60405161010e919061103a565b60405180910390f35b610131600480360381019061012c9190611053565b610306565b60405161013e9190611012565b60405180910390f35b61014f610334565b60405161015c91906110be565b60405180910390f35b61017f600480360381019061017a91906110d7565b61033c565b005b61019b60048036038101906101969190611102565b610461565b6040516101a8919061103a565b60405180910390f35b6101b96104a6565b6040516101c69190610f09565b60405180910390f35b6101e960048036038101906101e491906110d7565b610536565b005b61020560048036038101906102009190610fba565b610774565b6040516102129190611012565b60405180910390f35b6102356004803603810190610230919061112d565b610796565b604051610242919061103a565b60405180910390f35b60606003805461025a90611198565b80601f016020809104026020016040519081016040528092919081815260200182805461028690611198565b80156102d15780601f106102a8576101008083540402835291602001916102d1565b820191905f5260205f20905b8154815290600101906020018083116102b457829003601f168201915b5050505050905090565b5f806102e5610818565b90506102f281858561081f565b600191505092915050565b5f600254905090565b5f80610310610818565b905061031d858285610831565b6103288585856108c3565b60019150509392505050565b5f6012905090565b8061034633610461565b1015610387576040517f08c379a000000000000000000000000000000000000000000000000000000000815260040161037e90611238565b60405180910390fd5b60055f9054906101000a900473ffffffffffffffffffffffffffffffffffffffff1673ffffffffffffffffffffffffffffffffffffffff1663da4658e06040518163ffffffff1660e01b8152600401602060405180830381865afa1580156103f1573d5f803e3d5ffd5b505050506040513d601f19601f820116820180604052508101906104159190611280565b610454576040517f08c379a000000000000000000000000000000000000000000000000000000000815260040161044b906112f5565b60405180910390fd5b61045e33826109b3565b50565b5f805f8373ffffffffffffffffffffffffffffffffffffffff1673ffffffffffffffffffffffffffffffffffffffff1681526020019081526020015f20549050919050565b6060600480546104b590611198565b80601f01602080910402602001604051908101604052809291908181526020018280546104e190611198565b801561052c5780601f106105035761010080835404028352916020019161052c565b820191905f5260205f20905b81548152906001019060200180831161050f57829003601f168201915b5050505050905090565b8060055f9054906101000a900473ffffffffffffffffffffffffffffffffffffffff1673ffffffffffffffffffffffffffffffffffffffff16634407e1e8336040518263ffffffff1660e01b81526004016105919190611322565b602060405180830381865afa1580156105ac573d5f803e3d5ffd5b505050506040513d601f19601f820116820180604052508101906105d0919061134f565b1015610611576040517f08c379a0000000000000000000000000000000000000000000000000000000008152600401610608906113ea565b60405180910390fd5b60055f9054906101000a900473ffffffffffffffffffffffffffffffffffffffff1673ffffffffffffffffffffffffffffffffffffffff1663da4658e06040518163ffffffff1660e01b8152600401602060405180830381865afa15801561067b573d5f803e3d5ffd5b505050506040513d601f19601f8201168201806040525081019061069f9190611280565b6106de576040517f08c379a00000000000000000000000000000000000000000000000000000000081526004016106d5906112f5565b60405180910390fd5b6106e83382610a32565b60055f9054906101000a900473ffffffffffffffffffffffffffffffffffffffff1673ffffffffffffffffffffffffffffffffffffffff1663d39cf00633836040518363ffffffff1660e01b8152600401610744929190611408565b5f604051808303815f87803b15801561075b575f80fd5b505af115801561076d573d5f803e3d5ffd5b5050505050565b5f8061077e610818565b905061078b8185856108c3565b600191505092915050565b5f60015f8473ffffffffffffffffffffffffffffffffffffffff1673ffffffffffffffffffffffffffffffffffffffff1681526020019081526020015f205f8373ffffffffffffffffffffffffffffffffffffffff1673ffffffffffffffffffffffffffffffffffffffff1681526020019081526020015f2054905092915050565b5f33905090565b61082c8383836001610ab1565b505050565b5f61083c8484610796565b90507fffffffffffffffffffffffffffffffffffffffffffffffffffffffffffffffff81146108bd57818110156108ae578281836040517ffb8f41b20000000000000000000000000000000000000000000000000000000081526004016108a59392919061142f565b60405180910390fd5b6108bc84848484035f610ab1565b5b50505050565b5f73ffffffffffffffffffffffffffffffffffffffff168373ffffffffffffffffffffffffffffffffffffffff1603610933575f6040517f96c6fd1e00000000000000000000000000000000000000000000000000000000815260040161092a9190611322565b60405180910390fd5b5f73ffffffffffffffffffffffffffffffffffffffff168273ffffffffffffffffffffffffffffffffffffffff16036109a3575f6040517fec442f0500000000000000000000000000000000000000000000000000000000815260040161099a9190611322565b60405180910390fd5b6109ae838383610c80565b505050565b5f73ffffffffffffffffffffffffffffffffffffffff168273ffffffffffffffffffffffffffffffffffffffff1603610a23575f6040517f96c6fd1e000000000000000000000000000000000000000000000000000000008152600401610a1a9190611322565b60405180910390fd5b610a2e825f83610c80565b5050565b5f73ffffffffffffffffffffffffffffffffffffffff168273ffffffffffffffffffffffffffffffffffffffff1603610aa2575f6040517fec442f05000000000000000000000000000000000000000000000000000000008152600401610a999190611322565b60405180910390fd5b610aad5f8383610c80565b5050565b5f73ffffffffffffffffffffffffffffffffffffffff168473ffffffffffffffffffffffffffffffffffffffff1603610b21575f6040517fe602df05000000000000000000000000000000000000000000000000000000008152600401610b189190611322565b60405180910390fd5b5f73ffffffffffffffffffffffffffffffffffffffff168373ffffffffffffffffffffffffffffffffffffffff1603610b91575f6040517f94280d62000000000000000000000000000000000000000000000000000000008152600401610b889190611322565b60405180910390fd5b8160015f8673ffffffffffffffffffffffffffffffffffffffff1673ffffffffffffffffffffffffffffffffffffffff1681526020019081526020015f205f8573ffffffffffffffffffffffffffffffffffffffff1673ffffffffffffffffffffffffffffffffffffffff1681526020019081526020015f20819055508015610c7a578273ffffffffffffffffffffffffffffffffffffffff168473ffffffffffffffffffffffffffffffffffffffff167f8c5be1e5ebec7d5bd14f71427d1e84f3dd0314c0f7b2291e5b200ac8c7c3b92584604051610c71919061103a565b60405180910390a35b50505050565b5f73ffffffffffffffffffffffffffffffffffffffff168373ffffffffffffffffffffffffffffffffffffffff1603610cd0578060025f828254610cc49190611491565b92505081905550610d9e565b5f805f8573ffffffffffffffffffffffffffffffffffffffff1673ffffffffffffffffffffffffffffffffffffffff1681526020019081526020015f2054905081811015610d59578381836040517fe450d38c000000000000000000000000000000000000000000000000000000008152600401610d509392919061142f565b60405180910390fd5b8181035f808673ffffffffffffffffffffffffffffffffffffffff1673ffffffffffffffffffffffffffffffffffffffff1681526020019081526020015f2081905550505b5f73ffffffffffffffffffffffffffffffffffffffff168273ffffffffffffffffffffffffffffffffffffffff1603610de5578060025f8282540392505081905550610e2f565b805f808473ffffffffffffffffffffffffffffffffffffffff1673ffffffffffffffffffffffffffffffffffffffff1681526020019081526020015f205f82825401925050819055505b8173ffffffffffffffffffffffffffffffffffffffff168373ffffffffffffffffffffffffffffffffffffffff167fddf252ad1be2c89b69c2b068fc378daa952ba7f163c4a11628f55a4df523b3ef83604051610e8c919061103a565b60405180910390a3505050565b5f81519050919050565b5f82825260208201905092915050565b8281835e5f83830152505050565b5f601f19601f8301169050919050565b5f610edb82610e99565b610ee58185610ea3565b9350610ef5818560208601610eb3565b610efe81610ec1565b840191505092915050565b5f6020820190508181035f830152610f218184610ed1565b905092915050565b5f80fd5b5f73ffffffffffffffffffffffffffffffffffffffff82169050919050565b5f610f5682610f2d565b9050919050565b610f6681610f4c565b8114610f70575f80fd5b50565b5f81359050610f8181610f5d565b92915050565b5f819050919050565b610f9981610f87565b8114610fa3575f80fd5b50565b5f81359050610fb481610f90565b92915050565b5f8060408385031215610fd057610fcf610f29565b5b5f610fdd85828601610f73565b9250506020610fee85828601610fa6565b9150509250929050565b5f8115159050919050565b61100c81610ff8565b82525050565b5f6020820190506110255f830184611003565b92915050565b61103481610f87565b82525050565b5f60208201905061104d5f83018461102b565b92915050565b5f805f6060848603121561106a57611069610f29565b5b5f61107786828701610f73565b935050602061108886828701610f73565b925050604061109986828701610fa6565b9150509250925092565b5f60ff82169050919050565b6110b8816110a3565b82525050565b5f6020820190506110d15f8301846110af565b92915050565b5f602082840312156110ec576110eb610f29565b5b5f6110f984828501610fa6565b91505092915050565b5f6020828403121561111757611116610f29565b5b5f61112484828501610f73565b91505092915050565b5f806040838503121561114357611142610f29565b5b5f61115085828601610f73565b925050602061116185828601610f73565b9150509250929050565b7f4e487b71000000000000000000000000000000000000000000000000000000005f52602260045260245ffd5b5f60028204905060018216806111af57607f821691505b6020821081036111c2576111c161116b565b5b50919050565b7f796f7520646f6e74206861766520656e6f75676820457263323020746f6b656e5f8201527f7300000000000000000000000000000000000000000000000000000000000000602082015250565b5f611222602183610ea3565b915061122d826111c8565b604082019050919050565b5f6020820190508181035f83015261124f81611216565b9050919050565b61125f81610ff8565b8114611269575f80fd5b50565b5f8151905061127a81611256565b92915050565b5f6020828403121561129557611294610f29565b5b5f6112a28482850161126c565b91505092915050565b7f5468652066756e644d65206973206e6f7420636f6d706c6574656420796574005f82015250565b5f6112df601f83610ea3565b91506112ea826112ab565b602082019050919050565b5f6020820190508181035f83015261130c816112d3565b9050919050565b61131c81610f4c565b82525050565b5f6020820190506113355f830184611313565b92915050565b5f8151905061134981610f90565b92915050565b5f6020828403121561136457611363610f29565b5b5f6113718482850161133b565b91505092915050565b7f796f752063616e206e6f74206d696e742074686973206d616e7920746f6b656e5f8201527f7300000000000000000000000000000000000000000000000000000000000000602082015250565b5f6113d4602183610ea3565b91506113df8261137a565b604082019050919050565b5f6020820190508181035f830152611401816113c8565b9050919050565b5f60408201905061141b5f830185611313565b611428602083018461102b565b9392505050565b5f6060820190506114425f830186611313565b61144f602083018561102b565b61145c604083018461102b565b949350505050565b7f4e487b71000000000000000000000000000000000000000000000000000000005f52601160045260245ffd5b5f61149b82610f87565b91506114a683610f87565b92508282019050808211156114be576114bd611464565b5b9291505056fea2646970667358221220d85c0f9fb453f8e79a0bdf8041bd9d126c0da9d282b84dd58bf346721b19affd64736f6c634300081a0033",
					"opcodes": "PUSH1 0x80 PUSH1 0x40 MSTORE CALLVALUE DUP1 ISZERO PUSH2 0xF JUMPI PUSH0 DUP1 REVERT JUMPDEST POP PUSH1 0x40 MLOAD PUSH2 0x199E CODESIZE SUB DUP1 PUSH2 0x199E DUP4 CODECOPY DUP2 DUP2 ADD PUSH1 0x40 MSTORE DUP2 ADD SWAP1 PUSH2 0x31 SWAP2 SWAP1 PUSH2 0x163 JUMP JUMPDEST PUSH1 0x40 MLOAD DUP1 PUSH1 0x40 ADD PUSH1 0x40 MSTORE DUP1 PUSH1 0xE DUP2 MSTORE PUSH1 0x20 ADD PUSH32 0x46756E64546F6B656E4572633230000000000000000000000000000000000000 DUP2 MSTORE POP PUSH1 0x40 MLOAD DUP1 PUSH1 0x40 ADD PUSH1 0x40 MSTORE DUP1 PUSH1 0x2 DUP2 MSTORE PUSH1 0x20 ADD PUSH32 0x4654000000000000000000000000000000000000000000000000000000000000 DUP2 MSTORE POP DUP2 PUSH1 0x3 SWAP1 DUP2 PUSH2 0xAC SWAP2 SWAP1 PUSH2 0x3C8 JUMP JUMPDEST POP DUP1 PUSH1 0x4 SWAP1 DUP2 PUSH2 0xBC SWAP2 SWAP1 PUSH2 0x3C8 JUMP JUMPDEST POP POP POP DUP1 PUSH1 0x5 PUSH0 PUSH2 0x100 EXP DUP2 SLOAD DUP2 PUSH20 0xFFFFFFFFFFFFFFFFFFFFFFFFFFFFFFFFFFFFFFFF MUL NOT AND SWAP1 DUP4 PUSH20 0xFFFFFFFFFFFFFFFFFFFFFFFFFFFFFFFFFFFFFFFF AND MUL OR SWAP1 SSTORE POP POP PUSH2 0x497 JUMP JUMPDEST PUSH0 DUP1 REVERT JUMPDEST PUSH0 PUSH20 0xFFFFFFFFFFFFFFFFFFFFFFFFFFFFFFFFFFFFFFFF DUP3 AND SWAP1 POP SWAP2 SWAP1 POP JUMP JUMPDEST PUSH0 PUSH2 0x132 DUP3 PUSH2 0x109 JUMP JUMPDEST SWAP1 POP SWAP2 SWAP1 POP JUMP JUMPDEST PUSH2 0x142 DUP2 PUSH2 0x128 JUMP JUMPDEST DUP2 EQ PUSH2 0x14C JUMPI PUSH0 DUP1 REVERT JUMPDEST POP JUMP JUMPDEST PUSH0 DUP2 MLOAD SWAP1 POP PUSH2 0x15D DUP2 PUSH2 0x139 JUMP JUMPDEST SWAP3 SWAP2 POP POP JUMP JUMPDEST PUSH0 PUSH1 0x20 DUP3 DUP5 SUB SLT ISZERO PUSH2 0x178 JUMPI PUSH2 0x177 PUSH2 0x105 JUMP JUMPDEST JUMPDEST PUSH0 PUSH2 0x185 DUP5 DUP3 DUP6 ADD PUSH2 0x14F JUMP JUMPDEST SWAP2 POP POP SWAP3 SWAP2 POP POP JUMP JUMPDEST PUSH0 DUP2 MLOAD SWAP1 POP SWAP2 SWAP1 POP JUMP JUMPDEST PUSH32 0x4E487B7100000000000000000000000000000000000000000000000000000000 PUSH0 MSTORE PUSH1 0x41 PUSH1 0x4 MSTORE PUSH1 0x24 PUSH0 REVERT JUMPDEST PUSH32 0x4E487B7100000000000000000000000000000000000000000000000000000000 PUSH0 MSTORE PUSH1 0x22 PUSH1 0x4 MSTORE PUSH1 0x24 PUSH0 REVERT JUMPDEST PUSH0 PUSH1 0x2 DUP3 DIV SWAP1 POP PUSH1 0x1 DUP3 AND DUP1 PUSH2 0x209 JUMPI PUSH1 0x7F DUP3 AND SWAP2 POP JUMPDEST PUSH1 0x20 DUP3 LT DUP2 SUB PUSH2 0x21C JUMPI PUSH2 0x21B PUSH2 0x1C5 JUMP JUMPDEST JUMPDEST POP SWAP2 SWAP1 POP JUMP JUMPDEST PUSH0 DUP2 SWAP1 POP DUP2 PUSH0 MSTORE PUSH1 0x20 PUSH0 KECCAK256 SWAP1 POP SWAP2 SWAP1 POP JUMP JUMPDEST PUSH0 PUSH1 0x20 PUSH1 0x1F DUP4 ADD DIV SWAP1 POP SWAP2 SWAP1 POP JUMP JUMPDEST PUSH0 DUP3 DUP3 SHL SWAP1 POP SWAP3 SWAP2 POP POP JUMP JUMPDEST PUSH0 PUSH1 0x8 DUP4 MUL PUSH2 0x27E PUSH32 0xFFFFFFFFFFFFFFFFFFFFFFFFFFFFFFFFFFFFFFFFFFFFFFFFFFFFFFFFFFFFFFFF DUP3 PUSH2 0x243 JUMP JUMPDEST PUSH2 0x288 DUP7 DUP4 PUSH2 0x243 JUMP JUMPDEST SWAP6 POP DUP1 NOT DUP5 AND SWAP4 POP DUP1 DUP7 AND DUP5 OR SWAP3 POP POP POP SWAP4 SWAP3 POP POP POP JUMP JUMPDEST PUSH0 DUP2 SWAP1 POP SWAP2 SWAP1 POP JUMP JUMPDEST PUSH0 DUP2 SWAP1 POP SWAP2 SWAP1 POP JUMP JUMPDEST PUSH0 PUSH2 0x2CC PUSH2 0x2C7 PUSH2 0x2C2 DUP5 PUSH2 0x2A0 JUMP JUMPDEST PUSH2 0x2A9 JUMP JUMPDEST PUSH2 0x2A0 JUMP JUMPDEST SWAP1 POP SWAP2 SWAP1 POP JUMP JUMPDEST PUSH0 DUP2 SWAP1 POP SWAP2 SWAP1 POP JUMP JUMPDEST PUSH2 0x2E5 DUP4 PUSH2 0x2B2 JUMP JUMPDEST PUSH2 0x2F9 PUSH2 0x2F1 DUP3 PUSH2 0x2D3 JUMP JUMPDEST DUP5 DUP5 SLOAD PUSH2 0x24F JUMP JUMPDEST DUP3 SSTORE POP POP POP POP JUMP JUMPDEST PUSH0 SWAP1 JUMP JUMPDEST PUSH2 0x30D PUSH2 0x301 JUMP JUMPDEST PUSH2 0x318 DUP2 DUP5 DUP5 PUSH2 0x2DC JUMP JUMPDEST POP POP POP JUMP JUMPDEST JUMPDEST DUP2 DUP2 LT ISZERO PUSH2 0x33B JUMPI PUSH2 0x330 PUSH0 DUP3 PUSH2 0x305 JUMP JUMPDEST PUSH1 0x1 DUP2 ADD SWAP1 POP PUSH2 0x31E JUMP JUMPDEST POP POP JUMP JUMPDEST PUSH1 0x1F DUP3 GT ISZERO PUSH2 0x380 JUMPI PUSH2 0x351 DUP2 PUSH2 0x222 JUMP JUMPDEST PUSH2 0x35A DUP5 PUSH2 0x234 JUMP JUMPDEST DUP2 ADD PUSH1 0x20 DUP6 LT ISZERO PUSH2 0x369 JUMPI DUP2 SWAP1 POP JUMPDEST PUSH2 0x37D PUSH2 0x375 DUP6 PUSH2 0x234 JUMP JUMPDEST DUP4 ADD DUP3 PUSH2 0x31D JUMP JUMPDEST POP POP JUMPDEST POP POP POP JUMP JUMPDEST PUSH0 DUP3 DUP3 SHR SWAP1 POP SWAP3 SWAP2 POP POP JUMP JUMPDEST PUSH0 PUSH2 0x3A0 PUSH0 NOT DUP5 PUSH1 0x8 MUL PUSH2 0x385 JUMP JUMPDEST NOT DUP1 DUP4 AND SWAP2 POP POP SWAP3 SWAP2 POP POP JUMP JUMPDEST PUSH0 PUSH2 0x3B8 DUP4 DUP4 PUSH2 0x391 JUMP JUMPDEST SWAP2 POP DUP3 PUSH1 0x2 MUL DUP3 OR SWAP1 POP SWAP3 SWAP2 POP POP JUMP JUMPDEST PUSH2 0x3D1 DUP3 PUSH2 0x18E JUMP JUMPDEST PUSH8 0xFFFFFFFFFFFFFFFF DUP2 GT ISZERO PUSH2 0x3EA JUMPI PUSH2 0x3E9 PUSH2 0x198 JUMP JUMPDEST JUMPDEST PUSH2 0x3F4 DUP3 SLOAD PUSH2 0x1F2 JUMP JUMPDEST PUSH2 0x3FF DUP3 DUP3 DUP6 PUSH2 0x33F JUMP JUMPDEST PUSH0 PUSH1 0x20 SWAP1 POP PUSH1 0x1F DUP4 GT PUSH1 0x1 DUP2 EQ PUSH2 0x430 JUMPI PUSH0 DUP5 ISZERO PUSH2 0x41E JUMPI DUP3 DUP8 ADD MLOAD SWAP1 POP JUMPDEST PUSH2 0x428 DUP6 DUP3 PUSH2 0x3AD JUMP JUMPDEST DUP7 SSTORE POP PUSH2 0x48F JUMP JUMPDEST PUSH1 0x1F NOT DUP5 AND PUSH2 0x43E DUP7 PUSH2 0x222 JUMP JUMPDEST PUSH0 JUMPDEST DUP3 DUP2 LT ISZERO PUSH2 0x465 JUMPI DUP5 DUP10 ADD MLOAD DUP3 SSTORE PUSH1 0x1 DUP3 ADD SWAP2 POP PUSH1 0x20 DUP6 ADD SWAP5 POP PUSH1 0x20 DUP2 ADD SWAP1 POP PUSH2 0x440 JUMP JUMPDEST DUP7 DUP4 LT ISZERO PUSH2 0x482 JUMPI DUP5 DUP10 ADD MLOAD PUSH2 0x47E PUSH1 0x1F DUP10 AND DUP3 PUSH2 0x391 JUMP JUMPDEST DUP4 SSTORE POP JUMPDEST PUSH1 0x1 PUSH1 0x2 DUP9 MUL ADD DUP9 SSTORE POP POP POP JUMPDEST POP POP POP POP POP POP JUMP JUMPDEST PUSH2 0x14FA DUP1 PUSH2 0x4A4 PUSH0 CODECOPY PUSH0 RETURN INVALID PUSH1 0x80 PUSH1 0x40 MSTORE CALLVALUE DUP1 ISZERO PUSH2 0xF JUMPI PUSH0 DUP1 REVERT JUMPDEST POP PUSH1 0x4 CALLDATASIZE LT PUSH2 0xA7 JUMPI PUSH0 CALLDATALOAD PUSH1 0xE0 SHR DUP1 PUSH4 0x379607F5 GT PUSH2 0x6F JUMPI DUP1 PUSH4 0x379607F5 EQ PUSH2 0x165 JUMPI DUP1 PUSH4 0x70A08231 EQ PUSH2 0x181 JUMPI DUP1 PUSH4 0x95D89B41 EQ PUSH2 0x1B1 JUMPI DUP1 PUSH4 0xA0712D68 EQ PUSH2 0x1CF JUMPI DUP1 PUSH4 0xA9059CBB EQ PUSH2 0x1EB JUMPI DUP1 PUSH4 0xDD62ED3E EQ PUSH2 0x21B JUMPI PUSH2 0xA7 JUMP JUMPDEST DUP1 PUSH4 0x6FDDE03 EQ PUSH2 0xAB JUMPI DUP1 PUSH4 0x95EA7B3 EQ PUSH2 0xC9 JUMPI DUP1 PUSH4 0x18160DDD EQ PUSH2 0xF9 JUMPI DUP1 PUSH4 0x23B872DD EQ PUSH2 0x117 JUMPI DUP1 PUSH4 0x313CE567 EQ PUSH2 0x147 JUMPI JUMPDEST PUSH0 DUP1 REVERT JUMPDEST PUSH2 0xB3 PUSH2 0x24B JUMP JUMPDEST PUSH1 0x40 MLOAD PUSH2 0xC0 SWAP2 SWAP1 PUSH2 0xF09 JUMP JUMPDEST PUSH1 0x40 MLOAD DUP1 SWAP2 SUB SWAP1 RETURN JUMPDEST PUSH2 0xE3 PUSH1 0x4 DUP1 CALLDATASIZE SUB DUP2 ADD SWAP1 PUSH2 0xDE SWAP2 SWAP1 PUSH2 0xFBA JUMP JUMPDEST PUSH2 0x2DB JUMP JUMPDEST PUSH1 0x40 MLOAD PUSH2 0xF0 SWAP2 SWAP1 PUSH2 0x1012 JUMP JUMPDEST PUSH1 0x40 MLOAD DUP1 SWAP2 SUB SWAP1 RETURN JUMPDEST PUSH2 0x101 PUSH2 0x2FD JUMP JUMPDEST PUSH1 0x40 MLOAD PUSH2 0x10E SWAP2 SWAP1 PUSH2 0x103A JUMP JUMPDEST PUSH1 0x40 MLOAD DUP1 SWAP2 SUB SWAP1 RETURN JUMPDEST PUSH2 0x131 PUSH1 0x4 DUP1 CALLDATASIZE SUB DUP2 ADD SWAP1 PUSH2 0x12C SWAP2 SWAP1 PUSH2 0x1053 JUMP JUMPDEST PUSH2 0x306 JUMP JUMPDEST PUSH1 0x40 MLOAD PUSH2 0x13E SWAP2 SWAP1 PUSH2 0x1012 JUMP JUMPDEST PUSH1 0x40 MLOAD DUP1 SWAP2 SUB SWAP1 RETURN JUMPDEST PUSH2 0x14F PUSH2 0x334 JUMP JUMPDEST PUSH1 0x40 MLOAD PUSH2 0x15C SWAP2 SWAP1 PUSH2 0x10BE JUMP JUMPDEST PUSH1 0x40 MLOAD DUP1 SWAP2 SUB SWAP1 RETURN JUMPDEST PUSH2 0x17F PUSH1 0x4 DUP1 CALLDATASIZE SUB DUP2 ADD SWAP1 PUSH2 0x17A SWAP2 SWAP1 PUSH2 0x10D7 JUMP JUMPDEST PUSH2 0x33C JUMP JUMPDEST STOP JUMPDEST PUSH2 0x19B PUSH1 0x4 DUP1 CALLDATASIZE SUB DUP2 ADD SWAP1 PUSH2 0x196 SWAP2 SWAP1 PUSH2 0x1102 JUMP JUMPDEST PUSH2 0x461 JUMP JUMPDEST PUSH1 0x40 MLOAD PUSH2 0x1A8 SWAP2 SWAP1 PUSH2 0x103A JUMP JUMPDEST PUSH1 0x40 MLOAD DUP1 SWAP2 SUB SWAP1 RETURN JUMPDEST PUSH2 0x1B9 PUSH2 0x4A6 JUMP JUMPDEST PUSH1 0x40 MLOAD PUSH2 0x1C6 SWAP2 SWAP1 PUSH2 0xF09 JUMP JUMPDEST PUSH1 0x40 MLOAD DUP1 SWAP2 SUB SWAP1 RETURN JUMPDEST PUSH2 0x1E9 PUSH1 0x4 DUP1 CALLDATASIZE SUB DUP2 ADD SWAP1 PUSH2 0x1E4 SWAP2 SWAP1 PUSH2 0x10D7 JUMP JUMPDEST PUSH2 0x536 JUMP JUMPDEST STOP JUMPDEST PUSH2 0x205 PUSH1 0x4 DUP1 CALLDATASIZE SUB DUP2 ADD SWAP1 PUSH2 0x200 SWAP2 SWAP1 PUSH2 0xFBA JUMP JUMPDEST PUSH2 0x774 JUMP JUMPDEST PUSH1 0x40 MLOAD PUSH2 0x212 SWAP2 SWAP1 PUSH2 0x1012 JUMP JUMPDEST PUSH1 0x40 MLOAD DUP1 SWAP2 SUB SWAP1 RETURN JUMPDEST PUSH2 0x235 PUSH1 0x4 DUP1 CALLDATASIZE SUB DUP2 ADD SWAP1 PUSH2 0x230 SWAP2 SWAP1 PUSH2 0x112D JUMP JUMPDEST PUSH2 0x796 JUMP JUMPDEST PUSH1 0x40 MLOAD PUSH2 0x242 SWAP2 SWAP1 PUSH2 0x103A JUMP JUMPDEST PUSH1 0x40 MLOAD DUP1 SWAP2 SUB SWAP1 RETURN JUMPDEST PUSH1 0x60 PUSH1 0x3 DUP1 SLOAD PUSH2 0x25A SWAP1 PUSH2 0x1198 JUMP JUMPDEST DUP1 PUSH1 0x1F ADD PUSH1 0x20 DUP1 SWAP2 DIV MUL PUSH1 0x20 ADD PUSH1 0x40 MLOAD SWAP1 DUP2 ADD PUSH1 0x40 MSTORE DUP1 SWAP3 SWAP2 SWAP1 DUP2 DUP2 MSTORE PUSH1 0x20 ADD DUP3 DUP1 SLOAD PUSH2 0x286 SWAP1 PUSH2 0x1198 JUMP JUMPDEST DUP1 ISZERO PUSH2 0x2D1 JUMPI DUP1 PUSH1 0x1F LT PUSH2 0x2A8 JUMPI PUSH2 0x100 DUP1 DUP4 SLOAD DIV MUL DUP4 MSTORE SWAP2 PUSH1 0x20 ADD SWAP2 PUSH2 0x2D1 JUMP JUMPDEST DUP3 ADD SWAP2 SWAP1 PUSH0 MSTORE PUSH1 0x20 PUSH0 KECCAK256 SWAP1 JUMPDEST DUP2 SLOAD DUP2 MSTORE SWAP1 PUSH1 0x1 ADD SWAP1 PUSH1 0x20 ADD DUP1 DUP4 GT PUSH2 0x2B4 JUMPI DUP3 SWAP1 SUB PUSH1 0x1F AND DUP3 ADD SWAP2 JUMPDEST POP POP POP POP POP SWAP1 POP SWAP1 JUMP JUMPDEST PUSH0 DUP1 PUSH2 0x2E5 PUSH2 0x818 JUMP JUMPDEST SWAP1 POP PUSH2 0x2F2 DUP2 DUP6 DUP6 PUSH2 0x81F JUMP JUMPDEST PUSH1 0x1 SWAP2 POP POP SWAP3 SWAP2 POP POP JUMP JUMPDEST PUSH0 PUSH1 0x2 SLOAD SWAP1 POP SWAP1 JUMP JUMPDEST PUSH0 DUP1 PUSH2 0x310 PUSH2 0x818 JUMP JUMPDEST SWAP1 POP PUSH2 0x31D DUP6 DUP3 DUP6 PUSH2 0x831 JUMP JUMPDEST PUSH2 0x328 DUP6 DUP6 DUP6 PUSH2 0x8C3 JUMP JUMPDEST PUSH1 0x1 SWAP2 POP POP SWAP4 SWAP3 POP POP POP JUMP JUMPDEST PUSH0 PUSH1 0x12 SWAP1 POP SWAP1 JUMP JUMPDEST DUP1 PUSH2 0x346 CALLER PUSH2 0x461 JUMP JUMPDEST LT ISZERO PUSH2 0x387 JUMPI PUSH1 0x40 MLOAD PUSH32 0x8C379A000000000000000000000000000000000000000000000000000000000 DUP2 MSTORE PUSH1 0x4 ADD PUSH2 0x37E SWAP1 PUSH2 0x1238 JUMP JUMPDEST PUSH1 0x40 MLOAD DUP1 SWAP2 SUB SWAP1 REVERT JUMPDEST PUSH1 0x5 PUSH0 SWAP1 SLOAD SWAP1 PUSH2 0x100 EXP SWAP1 DIV PUSH20 0xFFFFFFFFFFFFFFFFFFFFFFFFFFFFFFFFFFFFFFFF AND PUSH20 0xFFFFFFFFFFFFFFFFFFFFFFFFFFFFFFFFFFFFFFFF AND PUSH4 0xDA4658E0 PUSH1 0x40 MLOAD DUP2 PUSH4 0xFFFFFFFF AND PUSH1 0xE0 SHL DUP2 MSTORE PUSH1 0x4 ADD PUSH1 0x20 PUSH1 0x40 MLOAD DUP1 DUP4 SUB DUP2 DUP7 GAS STATICCALL ISZERO DUP1 ISZERO PUSH2 0x3F1 JUMPI RETURNDATASIZE PUSH0 DUP1 RETURNDATACOPY RETURNDATASIZE PUSH0 REVERT JUMPDEST POP POP POP POP PUSH1 0x40 MLOAD RETURNDATASIZE PUSH1 0x1F NOT PUSH1 0x1F DUP3 ADD AND DUP3 ADD DUP1 PUSH1 0x40 MSTORE POP DUP2 ADD SWAP1 PUSH2 0x415 SWAP2 SWAP1 PUSH2 0x1280 JUMP JUMPDEST PUSH2 0x454 JUMPI PUSH1 0x40 MLOAD PUSH32 0x8C379A000000000000000000000000000000000000000000000000000000000 DUP2 MSTORE PUSH1 0x4 ADD PUSH2 0x44B SWAP1 PUSH2 0x12F5 JUMP JUMPDEST PUSH1 0x40 MLOAD DUP1 SWAP2 SUB SWAP1 REVERT JUMPDEST PUSH2 0x45E CALLER DUP3 PUSH2 0x9B3 JUMP JUMPDEST POP JUMP JUMPDEST PUSH0 DUP1 PUSH0 DUP4 PUSH20 0xFFFFFFFFFFFFFFFFFFFFFFFFFFFFFFFFFFFFFFFF AND PUSH20 0xFFFFFFFFFFFFFFFFFFFFFFFFFFFFFFFFFFFFFFFF AND DUP2 MSTORE PUSH1 0x20 ADD SWAP1 DUP2 MSTORE PUSH1 0x20 ADD PUSH0 KECCAK256 SLOAD SWAP1 POP SWAP2 SWAP1 POP JUMP JUMPDEST PUSH1 0x60 PUSH1 0x4 DUP1 SLOAD PUSH2 0x4B5 SWAP1 PUSH2 0x1198 JUMP JUMPDEST DUP1 PUSH1 0x1F ADD PUSH1 0x20 DUP1 SWAP2 DIV MUL PUSH1 0x20 ADD PUSH1 0x40 MLOAD SWAP1 DUP2 ADD PUSH1 0x40 MSTORE DUP1 SWAP3 SWAP2 SWAP1 DUP2 DUP2 MSTORE PUSH1 0x20 ADD DUP3 DUP1 SLOAD PUSH2 0x4E1 SWAP1 PUSH2 0x1198 JUMP JUMPDEST DUP1 ISZERO PUSH2 0x52C JUMPI DUP1 PUSH1 0x1F LT PUSH2 0x503 JUMPI PUSH2 0x100 DUP1 DUP4 SLOAD DIV MUL DUP4 MSTORE SWAP2 PUSH1 0x20 ADD SWAP2 PUSH2 0x52C JUMP JUMPDEST DUP3 ADD SWAP2 SWAP1 PUSH0 MSTORE PUSH1 0x20 PUSH0 KECCAK256 SWAP1 JUMPDEST DUP2 SLOAD DUP2 MSTORE SWAP1 PUSH1 0x1 ADD SWAP1 PUSH1 0x20 ADD DUP1 DUP4 GT PUSH2 0x50F JUMPI DUP3 SWAP1 SUB PUSH1 0x1F AND DUP3 ADD SWAP2 JUMPDEST POP POP POP POP POP SWAP1 POP SWAP1 JUMP JUMPDEST DUP1 PUSH1 0x5 PUSH0 SWAP1 SLOAD SWAP1 PUSH2 0x100 EXP SWAP1 DIV PUSH20 0xFFFFFFFFFFFFFFFFFFFFFFFFFFFFFFFFFFFFFFFF AND PUSH20 0xFFFFFFFFFFFFFFFFFFFFFFFFFFFFFFFFFFFFFFFF AND PUSH4 0x4407E1E8 CALLER PUSH1 0x40 MLOAD DUP3 PUSH4 0xFFFFFFFF AND PUSH1 0xE0 SHL DUP2 MSTORE PUSH1 0x4 ADD PUSH2 0x591 SWAP2 SWAP1 PUSH2 0x1322 JUMP JUMPDEST PUSH1 0x20 PUSH1 0x40 MLOAD DUP1 DUP4 SUB DUP2 DUP7 GAS STATICCALL ISZERO DUP1 ISZERO PUSH2 0x5AC JUMPI RETURNDATASIZE PUSH0 DUP1 RETURNDATACOPY RETURNDATASIZE PUSH0 REVERT JUMPDEST POP POP POP POP PUSH1 0x40 MLOAD RETURNDATASIZE PUSH1 0x1F NOT PUSH1 0x1F DUP3 ADD AND DUP3 ADD DUP1 PUSH1 0x40 MSTORE POP DUP2 ADD SWAP1 PUSH2 0x5D0 SWAP2 SWAP1 PUSH2 0x134F JUMP JUMPDEST LT ISZERO PUSH2 0x611 JUMPI PUSH1 0x40 MLOAD PUSH32 0x8C379A000000000000000000000000000000000000000000000000000000000 DUP2 MSTORE PUSH1 0x4 ADD PUSH2 0x608 SWAP1 PUSH2 0x13EA JUMP JUMPDEST PUSH1 0x40 MLOAD DUP1 SWAP2 SUB SWAP1 REVERT JUMPDEST PUSH1 0x5 PUSH0 SWAP1 SLOAD SWAP1 PUSH2 0x100 EXP SWAP1 DIV PUSH20 0xFFFFFFFFFFFFFFFFFFFFFFFFFFFFFFFFFFFFFFFF AND PUSH20 0xFFFFFFFFFFFFFFFFFFFFFFFFFFFFFFFFFFFFFFFF AND PUSH4 0xDA4658E0 PUSH1 0x40 MLOAD DUP2 PUSH4 0xFFFFFFFF AND PUSH1 0xE0 SHL DUP2 MSTORE PUSH1 0x4 ADD PUSH1 0x20 PUSH1 0x40 MLOAD DUP1 DUP4 SUB DUP2 DUP7 GAS STATICCALL ISZERO DUP1 ISZERO PUSH2 0x67B JUMPI RETURNDATASIZE PUSH0 DUP1 RETURNDATACOPY RETURNDATASIZE PUSH0 REVERT JUMPDEST POP POP POP POP PUSH1 0x40 MLOAD RETURNDATASIZE PUSH1 0x1F NOT PUSH1 0x1F DUP3 ADD AND DUP3 ADD DUP1 PUSH1 0x40 MSTORE POP DUP2 ADD SWAP1 PUSH2 0x69F SWAP2 SWAP1 PUSH2 0x1280 JUMP JUMPDEST PUSH2 0x6DE JUMPI PUSH1 0x40 MLOAD PUSH32 0x8C379A000000000000000000000000000000000000000000000000000000000 DUP2 MSTORE PUSH1 0x4 ADD PUSH2 0x6D5 SWAP1 PUSH2 0x12F5 JUMP JUMPDEST PUSH1 0x40 MLOAD DUP1 SWAP2 SUB SWAP1 REVERT JUMPDEST PUSH2 0x6E8 CALLER DUP3 PUSH2 0xA32 JUMP JUMPDEST PUSH1 0x5 PUSH0 SWAP1 SLOAD SWAP1 PUSH2 0x100 EXP SWAP1 DIV PUSH20 0xFFFFFFFFFFFFFFFFFFFFFFFFFFFFFFFFFFFFFFFF AND PUSH20 0xFFFFFFFFFFFFFFFFFFFFFFFFFFFFFFFFFFFFFFFF AND PUSH4 0xD39CF006 CALLER DUP4 PUSH1 0x40 MLOAD DUP4 PUSH4 0xFFFFFFFF AND PUSH1 0xE0 SHL DUP2 MSTORE PUSH1 0x4 ADD PUSH2 0x744 SWAP3 SWAP2 SWAP1 PUSH2 0x1408 JUMP JUMPDEST PUSH0 PUSH1 0x40 MLOAD DUP1 DUP4 SUB DUP2 PUSH0 DUP8 DUP1 EXTCODESIZE ISZERO DUP1 ISZERO PUSH2 0x75B JUMPI PUSH0 DUP1 REVERT JUMPDEST POP GAS CALL ISZERO DUP1 ISZERO PUSH2 0x76D JUMPI RETURNDATASIZE PUSH0 DUP1 RETURNDATACOPY RETURNDATASIZE PUSH0 REVERT JUMPDEST POP POP POP POP POP JUMP JUMPDEST PUSH0 DUP1 PUSH2 0x77E PUSH2 0x818 JUMP JUMPDEST SWAP1 POP PUSH2 0x78B DUP2 DUP6 DUP6 PUSH2 0x8C3 JUMP JUMPDEST PUSH1 0x1 SWAP2 POP POP SWAP3 SWAP2 POP POP JUMP JUMPDEST PUSH0 PUSH1 0x1 PUSH0 DUP5 PUSH20 0xFFFFFFFFFFFFFFFFFFFFFFFFFFFFFFFFFFFFFFFF AND PUSH20 0xFFFFFFFFFFFFFFFFFFFFFFFFFFFFFFFFFFFFFFFF AND DUP2 MSTORE PUSH1 0x20 ADD SWAP1 DUP2 MSTORE PUSH1 0x20 ADD PUSH0 KECCAK256 PUSH0 DUP4 PUSH20 0xFFFFFFFFFFFFFFFFFFFFFFFFFFFFFFFFFFFFFFFF AND PUSH20 0xFFFFFFFFFFFFFFFFFFFFFFFFFFFFFFFFFFFFFFFF AND DUP2 MSTORE PUSH1 0x20 ADD SWAP1 DUP2 MSTORE PUSH1 0x20 ADD PUSH0 KECCAK256 SLOAD SWAP1 POP SWAP3 SWAP2 POP POP JUMP JUMPDEST PUSH0 CALLER SWAP1 POP SWAP1 JUMP JUMPDEST PUSH2 0x82C DUP4 DUP4 DUP4 PUSH1 0x1 PUSH2 0xAB1 JUMP JUMPDEST POP POP POP JUMP JUMPDEST PUSH0 PUSH2 0x83C DUP5 DUP5 PUSH2 0x796 JUMP JUMPDEST SWAP1 POP PUSH32 0xFFFFFFFFFFFFFFFFFFFFFFFFFFFFFFFFFFFFFFFFFFFFFFFFFFFFFFFFFFFFFFFF DUP2 EQ PUSH2 0x8BD JUMPI DUP2 DUP2 LT ISZERO PUSH2 0x8AE JUMPI DUP3 DUP2 DUP4 PUSH1 0x40 MLOAD PUSH32 0xFB8F41B200000000000000000000000000000000000000000000000000000000 DUP2 MSTORE PUSH1 0x4 ADD PUSH2 0x8A5 SWAP4 SWAP3 SWAP2 SWAP1 PUSH2 0x142F JUMP JUMPDEST PUSH1 0x40 MLOAD DUP1 SWAP2 SUB SWAP1 REVERT JUMPDEST PUSH2 0x8BC DUP5 DUP5 DUP5 DUP5 SUB PUSH0 PUSH2 0xAB1 JUMP JUMPDEST JUMPDEST POP POP POP POP JUMP JUMPDEST PUSH0 PUSH20 0xFFFFFFFFFFFFFFFFFFFFFFFFFFFFFFFFFFFFFFFF AND DUP4 PUSH20 0xFFFFFFFFFFFFFFFFFFFFFFFFFFFFFFFFFFFFFFFF AND SUB PUSH2 0x933 JUMPI PUSH0 PUSH1 0x40 MLOAD PUSH32 0x96C6FD1E00000000000000000000000000000000000000000000000000000000 DUP2 MSTORE PUSH1 0x4 ADD PUSH2 0x92A SWAP2 SWAP1 PUSH2 0x1322 JUMP JUMPDEST PUSH1 0x40 MLOAD DUP1 SWAP2 SUB SWAP1 REVERT JUMPDEST PUSH0 PUSH20 0xFFFFFFFFFFFFFFFFFFFFFFFFFFFFFFFFFFFFFFFF AND DUP3 PUSH20 0xFFFFFFFFFFFFFFFFFFFFFFFFFFFFFFFFFFFFFFFF AND SUB PUSH2 0x9A3 JUMPI PUSH0 PUSH1 0x40 MLOAD PUSH32 0xEC442F0500000000000000000000000000000000000000000000000000000000 DUP2 MSTORE PUSH1 0x4 ADD PUSH2 0x99A SWAP2 SWAP1 PUSH2 0x1322 JUMP JUMPDEST PUSH1 0x40 MLOAD DUP1 SWAP2 SUB SWAP1 REVERT JUMPDEST PUSH2 0x9AE DUP4 DUP4 DUP4 PUSH2 0xC80 JUMP JUMPDEST POP POP POP JUMP JUMPDEST PUSH0 PUSH20 0xFFFFFFFFFFFFFFFFFFFFFFFFFFFFFFFFFFFFFFFF AND DUP3 PUSH20 0xFFFFFFFFFFFFFFFFFFFFFFFFFFFFFFFFFFFFFFFF AND SUB PUSH2 0xA23 JUMPI PUSH0 PUSH1 0x40 MLOAD PUSH32 0x96C6FD1E00000000000000000000000000000000000000000000000000000000 DUP2 MSTORE PUSH1 0x4 ADD PUSH2 0xA1A SWAP2 SWAP1 PUSH2 0x1322 JUMP JUMPDEST PUSH1 0x40 MLOAD DUP1 SWAP2 SUB SWAP1 REVERT JUMPDEST PUSH2 0xA2E DUP3 PUSH0 DUP4 PUSH2 0xC80 JUMP JUMPDEST POP POP JUMP JUMPDEST PUSH0 PUSH20 0xFFFFFFFFFFFFFFFFFFFFFFFFFFFFFFFFFFFFFFFF AND DUP3 PUSH20 0xFFFFFFFFFFFFFFFFFFFFFFFFFFFFFFFFFFFFFFFF AND SUB PUSH2 0xAA2 JUMPI PUSH0 PUSH1 0x40 MLOAD PUSH32 0xEC442F0500000000000000000000000000000000000000000000000000000000 DUP2 MSTORE PUSH1 0x4 ADD PUSH2 0xA99 SWAP2 SWAP1 PUSH2 0x1322 JUMP JUMPDEST PUSH1 0x40 MLOAD DUP1 SWAP2 SUB SWAP1 REVERT JUMPDEST PUSH2 0xAAD PUSH0 DUP4 DUP4 PUSH2 0xC80 JUMP JUMPDEST POP POP JUMP JUMPDEST PUSH0 PUSH20 0xFFFFFFFFFFFFFFFFFFFFFFFFFFFFFFFFFFFFFFFF AND DUP5 PUSH20 0xFFFFFFFFFFFFFFFFFFFFFFFFFFFFFFFFFFFFFFFF AND SUB PUSH2 0xB21 JUMPI PUSH0 PUSH1 0x40 MLOAD PUSH32 0xE602DF0500000000000000000000000000000000000000000000000000000000 DUP2 MSTORE PUSH1 0x4 ADD PUSH2 0xB18 SWAP2 SWAP1 PUSH2 0x1322 JUMP JUMPDEST PUSH1 0x40 MLOAD DUP1 SWAP2 SUB SWAP1 REVERT JUMPDEST PUSH0 PUSH20 0xFFFFFFFFFFFFFFFFFFFFFFFFFFFFFFFFFFFFFFFF AND DUP4 PUSH20 0xFFFFFFFFFFFFFFFFFFFFFFFFFFFFFFFFFFFFFFFF AND SUB PUSH2 0xB91 JUMPI PUSH0 PUSH1 0x40 MLOAD PUSH32 0x94280D6200000000000000000000000000000000000000000000000000000000 DUP2 MSTORE PUSH1 0x4 ADD PUSH2 0xB88 SWAP2 SWAP1 PUSH2 0x1322 JUMP JUMPDEST PUSH1 0x40 MLOAD DUP1 SWAP2 SUB SWAP1 REVERT JUMPDEST DUP2 PUSH1 0x1 PUSH0 DUP7 PUSH20 0xFFFFFFFFFFFFFFFFFFFFFFFFFFFFFFFFFFFFFFFF AND PUSH20 0xFFFFFFFFFFFFFFFFFFFFFFFFFFFFFFFFFFFFFFFF AND DUP2 MSTORE PUSH1 0x20 ADD SWAP1 DUP2 MSTORE PUSH1 0x20 ADD PUSH0 KECCAK256 PUSH0 DUP6 PUSH20 0xFFFFFFFFFFFFFFFFFFFFFFFFFFFFFFFFFFFFFFFF AND PUSH20 0xFFFFFFFFFFFFFFFFFFFFFFFFFFFFFFFFFFFFFFFF AND DUP2 MSTORE PUSH1 0x20 ADD SWAP1 DUP2 MSTORE PUSH1 0x20 ADD PUSH0 KECCAK256 DUP2 SWAP1 SSTORE POP DUP1 ISZERO PUSH2 0xC7A JUMPI DUP3 PUSH20 0xFFFFFFFFFFFFFFFFFFFFFFFFFFFFFFFFFFFFFFFF AND DUP5 PUSH20 0xFFFFFFFFFFFFFFFFFFFFFFFFFFFFFFFFFFFFFFFF AND PUSH32 0x8C5BE1E5EBEC7D5BD14F71427D1E84F3DD0314C0F7B2291E5B200AC8C7C3B925 DUP5 PUSH1 0x40 MLOAD PUSH2 0xC71 SWAP2 SWAP1 PUSH2 0x103A JUMP JUMPDEST PUSH1 0x40 MLOAD DUP1 SWAP2 SUB SWAP1 LOG3 JUMPDEST POP POP POP POP JUMP JUMPDEST PUSH0 PUSH20 0xFFFFFFFFFFFFFFFFFFFFFFFFFFFFFFFFFFFFFFFF AND DUP4 PUSH20 0xFFFFFFFFFFFFFFFFFFFFFFFFFFFFFFFFFFFFFFFF AND SUB PUSH2 0xCD0 JUMPI DUP1 PUSH1 0x2 PUSH0 DUP3 DUP3 SLOAD PUSH2 0xCC4 SWAP2 SWAP1 PUSH2 0x1491 JUMP JUMPDEST SWAP3 POP POP DUP2 SWAP1 SSTORE POP PUSH2 0xD9E JUMP JUMPDEST PUSH0 DUP1 PUSH0 DUP6 PUSH20 0xFFFFFFFFFFFFFFFFFFFFFFFFFFFFFFFFFFFFFFFF AND PUSH20 0xFFFFFFFFFFFFFFFFFFFFFFFFFFFFFFFFFFFFFFFF AND DUP2 MSTORE PUSH1 0x20 ADD SWAP1 DUP2 MSTORE PUSH1 0x20 ADD PUSH0 KECCAK256 SLOAD SWAP1 POP DUP2 DUP2 LT ISZERO PUSH2 0xD59 JUMPI DUP4 DUP2 DUP4 PUSH1 0x40 MLOAD PUSH32 0xE450D38C00000000000000000000000000000000000000000000000000000000 DUP2 MSTORE PUSH1 0x4 ADD PUSH2 0xD50 SWAP4 SWAP3 SWAP2 SWAP1 PUSH2 0x142F JUMP JUMPDEST PUSH1 0x40 MLOAD DUP1 SWAP2 SUB SWAP1 REVERT JUMPDEST DUP2 DUP2 SUB PUSH0 DUP1 DUP7 PUSH20 0xFFFFFFFFFFFFFFFFFFFFFFFFFFFFFFFFFFFFFFFF AND PUSH20 0xFFFFFFFFFFFFFFFFFFFFFFFFFFFFFFFFFFFFFFFF AND DUP2 MSTORE PUSH1 0x20 ADD SWAP1 DUP2 MSTORE PUSH1 0x20 ADD PUSH0 KECCAK256 DUP2 SWAP1 SSTORE POP POP JUMPDEST PUSH0 PUSH20 0xFFFFFFFFFFFFFFFFFFFFFFFFFFFFFFFFFFFFFFFF AND DUP3 PUSH20 0xFFFFFFFFFFFFFFFFFFFFFFFFFFFFFFFFFFFFFFFF AND SUB PUSH2 0xDE5 JUMPI DUP1 PUSH1 0x2 PUSH0 DUP3 DUP3 SLOAD SUB SWAP3 POP POP DUP2 SWAP1 SSTORE POP PUSH2 0xE2F JUMP JUMPDEST DUP1 PUSH0 DUP1 DUP5 PUSH20 0xFFFFFFFFFFFFFFFFFFFFFFFFFFFFFFFFFFFFFFFF AND PUSH20 0xFFFFFFFFFFFFFFFFFFFFFFFFFFFFFFFFFFFFFFFF AND DUP2 MSTORE PUSH1 0x20 ADD SWAP1 DUP2 MSTORE PUSH1 0x20 ADD PUSH0 KECCAK256 PUSH0 DUP3 DUP3 SLOAD ADD SWAP3 POP POP DUP2 SWAP1 SSTORE POP JUMPDEST DUP2 PUSH20 0xFFFFFFFFFFFFFFFFFFFFFFFFFFFFFFFFFFFFFFFF AND DUP4 PUSH20 0xFFFFFFFFFFFFFFFFFFFFFFFFFFFFFFFFFFFFFFFF AND PUSH32 0xDDF252AD1BE2C89B69C2B068FC378DAA952BA7F163C4A11628F55A4DF523B3EF DUP4 PUSH1 0x40 MLOAD PUSH2 0xE8C SWAP2 SWAP1 PUSH2 0x103A JUMP JUMPDEST PUSH1 0x40 MLOAD DUP1 SWAP2 SUB SWAP1 LOG3 POP POP POP JUMP JUMPDEST PUSH0 DUP2 MLOAD SWAP1 POP SWAP2 SWAP1 POP JUMP JUMPDEST PUSH0 DUP3 DUP3 MSTORE PUSH1 0x20 DUP3 ADD SWAP1 POP SWAP3 SWAP2 POP POP JUMP JUMPDEST DUP3 DUP2 DUP4 MCOPY PUSH0 DUP4 DUP4 ADD MSTORE POP POP POP JUMP JUMPDEST PUSH0 PUSH1 0x1F NOT PUSH1 0x1F DUP4 ADD AND SWAP1 POP SWAP2 SWAP1 POP JUMP JUMPDEST PUSH0 PUSH2 0xEDB DUP3 PUSH2 0xE99 JUMP JUMPDEST PUSH2 0xEE5 DUP2 DUP6 PUSH2 0xEA3 JUMP JUMPDEST SWAP4 POP PUSH2 0xEF5 DUP2 DUP6 PUSH1 0x20 DUP7 ADD PUSH2 0xEB3 JUMP JUMPDEST PUSH2 0xEFE DUP2 PUSH2 0xEC1 JUMP JUMPDEST DUP5 ADD SWAP2 POP POP SWAP3 SWAP2 POP POP JUMP JUMPDEST PUSH0 PUSH1 0x20 DUP3 ADD SWAP1 POP DUP2 DUP2 SUB PUSH0 DUP4 ADD MSTORE PUSH2 0xF21 DUP2 DUP5 PUSH2 0xED1 JUMP JUMPDEST SWAP1 POP SWAP3 SWAP2 POP POP JUMP JUMPDEST PUSH0 DUP1 REVERT JUMPDEST PUSH0 PUSH20 0xFFFFFFFFFFFFFFFFFFFFFFFFFFFFFFFFFFFFFFFF DUP3 AND SWAP1 POP SWAP2 SWAP1 POP JUMP JUMPDEST PUSH0 PUSH2 0xF56 DUP3 PUSH2 0xF2D JUMP JUMPDEST SWAP1 POP SWAP2 SWAP1 POP JUMP JUMPDEST PUSH2 0xF66 DUP2 PUSH2 0xF4C JUMP JUMPDEST DUP2 EQ PUSH2 0xF70 JUMPI PUSH0 DUP1 REVERT JUMPDEST POP JUMP JUMPDEST PUSH0 DUP2 CALLDATALOAD SWAP1 POP PUSH2 0xF81 DUP2 PUSH2 0xF5D JUMP JUMPDEST SWAP3 SWAP2 POP POP JUMP JUMPDEST PUSH0 DUP2 SWAP1 POP SWAP2 SWAP1 POP JUMP JUMPDEST PUSH2 0xF99 DUP2 PUSH2 0xF87 JUMP JUMPDEST DUP2 EQ PUSH2 0xFA3 JUMPI PUSH0 DUP1 REVERT JUMPDEST POP JUMP JUMPDEST PUSH0 DUP2 CALLDATALOAD SWAP1 POP PUSH2 0xFB4 DUP2 PUSH2 0xF90 JUMP JUMPDEST SWAP3 SWAP2 POP POP JUMP JUMPDEST PUSH0 DUP1 PUSH1 0x40 DUP4 DUP6 SUB SLT ISZERO PUSH2 0xFD0 JUMPI PUSH2 0xFCF PUSH2 0xF29 JUMP JUMPDEST JUMPDEST PUSH0 PUSH2 0xFDD DUP6 DUP3 DUP7 ADD PUSH2 0xF73 JUMP JUMPDEST SWAP3 POP POP PUSH1 0x20 PUSH2 0xFEE DUP6 DUP3 DUP7 ADD PUSH2 0xFA6 JUMP JUMPDEST SWAP2 POP POP SWAP3 POP SWAP3 SWAP1 POP JUMP JUMPDEST PUSH0 DUP2 ISZERO ISZERO SWAP1 POP SWAP2 SWAP1 POP JUMP JUMPDEST PUSH2 0x100C DUP2 PUSH2 0xFF8 JUMP JUMPDEST DUP3 MSTORE POP POP JUMP JUMPDEST PUSH0 PUSH1 0x20 DUP3 ADD SWAP1 POP PUSH2 0x1025 PUSH0 DUP4 ADD DUP5 PUSH2 0x1003 JUMP JUMPDEST SWAP3 SWAP2 POP POP JUMP JUMPDEST PUSH2 0x1034 DUP2 PUSH2 0xF87 JUMP JUMPDEST DUP3 MSTORE POP POP JUMP JUMPDEST PUSH0 PUSH1 0x20 DUP3 ADD SWAP1 POP PUSH2 0x104D PUSH0 DUP4 ADD DUP5 PUSH2 0x102B JUMP JUMPDEST SWAP3 SWAP2 POP POP JUMP JUMPDEST PUSH0 DUP1 PUSH0 PUSH1 0x60 DUP5 DUP7 SUB SLT ISZERO PUSH2 0x106A JUMPI PUSH2 0x1069 PUSH2 0xF29 JUMP JUMPDEST JUMPDEST PUSH0 PUSH2 0x1077 DUP7 DUP3 DUP8 ADD PUSH2 0xF73 JUMP JUMPDEST SWAP4 POP POP PUSH1 0x20 PUSH2 0x1088 DUP7 DUP3 DUP8 ADD PUSH2 0xF73 JUMP JUMPDEST SWAP3 POP POP PUSH1 0x40 PUSH2 0x1099 DUP7 DUP3 DUP8 ADD PUSH2 0xFA6 JUMP JUMPDEST SWAP2 POP POP SWAP3 POP SWAP3 POP SWAP3 JUMP JUMPDEST PUSH0 PUSH1 0xFF DUP3 AND SWAP1 POP SWAP2 SWAP1 POP JUMP JUMPDEST PUSH2 0x10B8 DUP2 PUSH2 0x10A3 JUMP JUMPDEST DUP3 MSTORE POP POP JUMP JUMPDEST PUSH0 PUSH1 0x20 DUP3 ADD SWAP1 POP PUSH2 0x10D1 PUSH0 DUP4 ADD DUP5 PUSH2 0x10AF JUMP JUMPDEST SWAP3 SWAP2 POP POP JUMP JUMPDEST PUSH0 PUSH1 0x20 DUP3 DUP5 SUB SLT ISZERO PUSH2 0x10EC JUMPI PUSH2 0x10EB PUSH2 0xF29 JUMP JUMPDEST JUMPDEST PUSH0 PUSH2 0x10F9 DUP5 DUP3 DUP6 ADD PUSH2 0xFA6 JUMP JUMPDEST SWAP2 POP POP SWAP3 SWAP2 POP POP JUMP JUMPDEST PUSH0 PUSH1 0x20 DUP3 DUP5 SUB SLT ISZERO PUSH2 0x1117 JUMPI PUSH2 0x1116 PUSH2 0xF29 JUMP JUMPDEST JUMPDEST PUSH0 PUSH2 0x1124 DUP5 DUP3 DUP6 ADD PUSH2 0xF73 JUMP JUMPDEST SWAP2 POP POP SWAP3 SWAP2 POP POP JUMP JUMPDEST PUSH0 DUP1 PUSH1 0x40 DUP4 DUP6 SUB SLT ISZERO PUSH2 0x1143 JUMPI PUSH2 0x1142 PUSH2 0xF29 JUMP JUMPDEST JUMPDEST PUSH0 PUSH2 0x1150 DUP6 DUP3 DUP7 ADD PUSH2 0xF73 JUMP JUMPDEST SWAP3 POP POP PUSH1 0x20 PUSH2 0x1161 DUP6 DUP3 DUP7 ADD PUSH2 0xF73 JUMP JUMPDEST SWAP2 POP POP SWAP3 POP SWAP3 SWAP1 POP JUMP JUMPDEST PUSH32 0x4E487B7100000000000000000000000000000000000000000000000000000000 PUSH0 MSTORE PUSH1 0x22 PUSH1 0x4 MSTORE PUSH1 0x24 PUSH0 REVERT JUMPDEST PUSH0 PUSH1 0x2 DUP3 DIV SWAP1 POP PUSH1 0x1 DUP3 AND DUP1 PUSH2 0x11AF JUMPI PUSH1 0x7F DUP3 AND SWAP2 POP JUMPDEST PUSH1 0x20 DUP3 LT DUP2 SUB PUSH2 0x11C2 JUMPI PUSH2 0x11C1 PUSH2 0x116B JUMP JUMPDEST JUMPDEST POP SWAP2 SWAP1 POP JUMP JUMPDEST PUSH32 0x796F7520646F6E74206861766520656E6F75676820457263323020746F6B656E PUSH0 DUP3 ADD MSTORE PUSH32 0x7300000000000000000000000000000000000000000000000000000000000000 PUSH1 0x20 DUP3 ADD MSTORE POP JUMP JUMPDEST PUSH0 PUSH2 0x1222 PUSH1 0x21 DUP4 PUSH2 0xEA3 JUMP JUMPDEST SWAP2 POP PUSH2 0x122D DUP3 PUSH2 0x11C8 JUMP JUMPDEST PUSH1 0x40 DUP3 ADD SWAP1 POP SWAP2 SWAP1 POP JUMP JUMPDEST PUSH0 PUSH1 0x20 DUP3 ADD SWAP1 POP DUP2 DUP2 SUB PUSH0 DUP4 ADD MSTORE PUSH2 0x124F DUP2 PUSH2 0x1216 JUMP JUMPDEST SWAP1 POP SWAP2 SWAP1 POP JUMP JUMPDEST PUSH2 0x125F DUP2 PUSH2 0xFF8 JUMP JUMPDEST DUP2 EQ PUSH2 0x1269 JUMPI PUSH0 DUP1 REVERT JUMPDEST POP JUMP JUMPDEST PUSH0 DUP2 MLOAD SWAP1 POP PUSH2 0x127A DUP2 PUSH2 0x1256 JUMP JUMPDEST SWAP3 SWAP2 POP POP JUMP JUMPDEST PUSH0 PUSH1 0x20 DUP3 DUP5 SUB SLT ISZERO PUSH2 0x1295 JUMPI PUSH2 0x1294 PUSH2 0xF29 JUMP JUMPDEST JUMPDEST PUSH0 PUSH2 0x12A2 DUP5 DUP3 DUP6 ADD PUSH2 0x126C JUMP JUMPDEST SWAP2 POP POP SWAP3 SWAP2 POP POP JUMP JUMPDEST PUSH32 0x5468652066756E644D65206973206E6F7420636F6D706C657465642079657400 PUSH0 DUP3 ADD MSTORE POP JUMP JUMPDEST PUSH0 PUSH2 0x12DF PUSH1 0x1F DUP4 PUSH2 0xEA3 JUMP JUMPDEST SWAP2 POP PUSH2 0x12EA DUP3 PUSH2 0x12AB JUMP JUMPDEST PUSH1 0x20 DUP3 ADD SWAP1 POP SWAP2 SWAP1 POP JUMP JUMPDEST PUSH0 PUSH1 0x20 DUP3 ADD SWAP1 POP DUP2 DUP2 SUB PUSH0 DUP4 ADD MSTORE PUSH2 0x130C DUP2 PUSH2 0x12D3 JUMP JUMPDEST SWAP1 POP SWAP2 SWAP1 POP JUMP JUMPDEST PUSH2 0x131C DUP2 PUSH2 0xF4C JUMP JUMPDEST DUP3 MSTORE POP POP JUMP JUMPDEST PUSH0 PUSH1 0x20 DUP3 ADD SWAP1 POP PUSH2 0x1335 PUSH0 DUP4 ADD DUP5 PUSH2 0x1313 JUMP JUMPDEST SWAP3 SWAP2 POP POP JUMP JUMPDEST PUSH0 DUP2 MLOAD SWAP1 POP PUSH2 0x1349 DUP2 PUSH2 0xF90 JUMP JUMPDEST SWAP3 SWAP2 POP POP JUMP JUMPDEST PUSH0 PUSH1 0x20 DUP3 DUP5 SUB SLT ISZERO PUSH2 0x1364 JUMPI PUSH2 0x1363 PUSH2 0xF29 JUMP JUMPDEST JUMPDEST PUSH0 PUSH2 0x1371 DUP5 DUP3 DUP6 ADD PUSH2 0x133B JUMP JUMPDEST SWAP2 POP POP SWAP3 SWAP2 POP POP JUMP JUMPDEST PUSH32 0x796F752063616E206E6F74206D696E742074686973206D616E7920746F6B656E PUSH0 DUP3 ADD MSTORE PUSH32 0x7300000000000000000000000000000000000000000000000000000000000000 PUSH1 0x20 DUP3 ADD MSTORE POP JUMP JUMPDEST PUSH0 PUSH2 0x13D4 PUSH1 0x21 DUP4 PUSH2 0xEA3 JUMP JUMPDEST SWAP2 POP PUSH2 0x13DF DUP3 PUSH2 0x137A JUMP JUMPDEST PUSH1 0x40 DUP3 ADD SWAP1 POP SWAP2 SWAP1 POP JUMP JUMPDEST PUSH0 PUSH1 0x20 DUP3 ADD SWAP1 POP DUP2 DUP2 SUB PUSH0 DUP4 ADD MSTORE PUSH2 0x1401 DUP2 PUSH2 0x13C8 JUMP JUMPDEST SWAP1 POP SWAP2 SWAP1 POP JUMP JUMPDEST PUSH0 PUSH1 0x40 DUP3 ADD SWAP1 POP PUSH2 0x141B PUSH0 DUP4 ADD DUP6 PUSH2 0x1313 JUMP JUMPDEST PUSH2 0x1428 PUSH1 0x20 DUP4 ADD DUP5 PUSH2 0x102B JUMP JUMPDEST SWAP4 SWAP3 POP POP POP JUMP JUMPDEST PUSH0 PUSH1 0x60 DUP3 ADD SWAP1 POP PUSH2 0x1442 PUSH0 DUP4 ADD DUP7 PUSH2 0x1313 JUMP JUMPDEST PUSH2 0x144F PUSH1 0x20 DUP4 ADD DUP6 PUSH2 0x102B JUMP JUMPDEST PUSH2 0x145C PUSH1 0x40 DUP4 ADD DUP5 PUSH2 0x102B JUMP JUMPDEST SWAP5 SWAP4 POP POP POP POP JUMP JUMPDEST PUSH32 0x4E487B7100000000000000000000000000000000000000000000000000000000 PUSH0 MSTORE PUSH1 0x11 PUSH1 0x4 MSTORE PUSH1 0x24 PUSH0 REVERT JUMPDEST PUSH0 PUSH2 0x149B DUP3 PUSH2 0xF87 JUMP JUMPDEST SWAP2 POP PUSH2 0x14A6 DUP4 PUSH2 0xF87 JUMP JUMPDEST SWAP3 POP DUP3 DUP3 ADD SWAP1 POP DUP1 DUP3 GT ISZERO PUSH2 0x14BE JUMPI PUSH2 0x14BD PUSH2 0x1464 JUMP JUMPDEST JUMPDEST SWAP3 SWAP2 POP POP JUMP INVALID LOG2 PUSH5 0x6970667358 0x22 SLT KECCAK256 0xD8 TLOAD 0xF SWAP16 0xB4 MSTORE8 0xF8 0xE7 SWAP11 SIGNEXTEND 0xDF DUP1 COINBASE 0xBD SWAP14 SLT PUSH13 0xDA9D282B84DD58BF346721B19 0xAF REVERT PUSH5 0x736F6C6343 STOP ADDMOD BYTE STOP CALLER "
				},
				"gasEstimates": {
					"creation": {
						"codeDepositCost": "1074000",
						"executionCost": "infinite",
						"totalCost": "infinite"
					},
					"external": {
						"allowance(address,address)": "infinite",
						"approve(address,uint256)": "infinite",
						"balanceOf(address)": "2851",
						"claim(uint256)": "infinite",
						"decimals()": "427",
						"mint(uint256)": "infinite",
						"name()": "infinite",
						"symbol()": "infinite",
						"totalSupply()": "2477",
						"transfer(address,uint256)": "infinite",
						"transferFrom(address,address,uint256)": "infinite"
					}
				},
				"methodIdentifiers": {
					"allowance(address,address)": "dd62ed3e",
					"approve(address,uint256)": "095ea7b3",
					"balanceOf(address)": "70a08231",
					"claim(uint256)": "379607f5",
					"decimals()": "313ce567",
					"mint(uint256)": "a0712d68",
					"name()": "06fdde03",
					"symbol()": "95d89b41",
					"totalSupply()": "18160ddd",
					"transfer(address,uint256)": "a9059cbb",
					"transferFrom(address,address,uint256)": "23b872dd"
				}
			},
			"storageLayout": {
				"storage": [
					{
						"astId": 279,
						"contract": "contracts/FundTokenErc20_flattened.sol:FundTokenErc20",
						"label": "_balances",
						"offset": 0,
						"slot": "0",
						"type": "t_mapping(t_address,t_uint256)"
					},
					{
						"astId": 285,
						"contract": "contracts/FundTokenErc20_flattened.sol:FundTokenErc20",
						"label": "_allowances",
						"offset": 0,
						"slot": "1",
						"type": "t_mapping(t_address,t_mapping(t_address,t_uint256))"
					},
					{
						"astId": 287,
						"contract": "contracts/FundTokenErc20_flattened.sol:FundTokenErc20",
						"label": "_totalSupply",
						"offset": 0,
						"slot": "2",
						"type": "t_uint256"
					},
					{
						"astId": 289,
						"contract": "contracts/FundTokenErc20_flattened.sol:FundTokenErc20",
						"label": "_name",
						"offset": 0,
						"slot": "3",
						"type": "t_string_storage"
					},
					{
						"astId": 291,
						"contract": "contracts/FundTokenErc20_flattened.sol:FundTokenErc20",
						"label": "_symbol",
						"offset": 0,
						"slot": "4",
						"type": "t_string_storage"
					},
					{
						"astId": 1151,
						"contract": "contracts/FundTokenErc20_flattened.sol:FundTokenErc20",
						"label": "fundMe",
						"offset": 0,
						"slot": "5",
						"type": "t_contract(FundMe)1145"
					}
				],
				"types": {
					"t_address": {
						"encoding": "inplace",
						"label": "address",
						"numberOfBytes": "20"
					},
					"t_contract(FundMe)1145": {
						"encoding": "inplace",
						"label": "contract FundMe",
						"numberOfBytes": "20"
					},
					"t_mapping(t_address,t_mapping(t_address,t_uint256))": {
						"encoding": "mapping",
						"key": "t_address",
						"label": "mapping(address => mapping(address => uint256))",
						"numberOfBytes": "32",
						"value": "t_mapping(t_address,t_uint256)"
					},
					"t_mapping(t_address,t_uint256)": {
						"encoding": "mapping",
						"key": "t_address",
						"label": "mapping(address => uint256)",
						"numberOfBytes": "32",
						"value": "t_uint256"
					},
					"t_string_storage": {
						"encoding": "bytes",
						"label": "string",
						"numberOfBytes": "32"
					},
					"t_uint256": {
						"encoding": "inplace",
						"label": "uint256",
						"numberOfBytes": "32"
					}
				}
			},
			"userdoc": {
				"kind": "user",
				"methods": {},
				"version": 1
			}
		}
	}
}