{
	"contracts/FundMe.sol": {
		"FundMe": {
			"abi": [
				{
					"inputs": [],
					"stateMutability": "nonpayable",
					"type": "constructor"
				},
				{
					"inputs": [],
					"name": "fund",
					"outputs": [],
					"stateMutability": "payable",
					"type": "function"
				},
				{
					"inputs": [
						{
							"internalType": "address",
							"name": "",
							"type": "address"
						}
					],
					"name": "funderToAmount",
					"outputs": [
						{
							"internalType": "uint256",
							"name": "",
							"type": "uint256"
						}
					],
					"stateMutability": "view",
					"type": "function"
				},
				{
					"inputs": [],
					"name": "getChainlinkDataFeedLatestAnswer",
					"outputs": [
						{
							"internalType": "int256",
							"name": "",
							"type": "int256"
						}
					],
					"stateMutability": "view",
					"type": "function"
				},
				{
					"inputs": [],
					"name": "getFund",
					"outputs": [],
					"stateMutability": "nonpayable",
					"type": "function"
				},
				{
					"inputs": [],
					"name": "owner",
					"outputs": [
						{
							"internalType": "address",
							"name": "",
							"type": "address"
						}
					],
					"stateMutability": "view",
					"type": "function"
				},
				{
					"inputs": [],
					"name": "reFund",
					"outputs": [],
					"stateMutability": "nonpayable",
					"type": "function"
				},
				{
					"inputs": [
						{
							"internalType": "address",
							"name": "newOwner",
							"type": "address"
						}
					],
					"name": "transferOwnerShip",
					"outputs": [],
					"stateMutability": "nonpayable",
					"type": "function"
				}
			],
			"devdoc": {
				"kind": "dev",
				"methods": {},
				"version": 1
			},
			"evm": {
				"assembly": "    /* \"contracts/FundMe.sol\":171:3441  contract FundMe {... */\n  mstore(0x40, 0x80)\n    /* \"contracts/FundMe.sol\":272:283  10 * 10**18 */\n  0x8ac7230489e80000\n    /* \"contracts/FundMe.sol\":249:283  uint256 MINMUM_VALUE = 10 * 10**18 */\n  0x01\n  sstore\n    /* \"contracts/FundMe.sol\":436:620  constructor() {... */\n  callvalue\n  dup1\n  iszero\n  tag_1\n  jumpi\n  0x00\n  dup1\n  revert\ntag_1:\n  pop\n    /* \"contracts/FundMe.sol\":533:575  0x694AA1769357215DE4FAC081bf1f309aDC325306 */\n  0x694aa1769357215de4fac081bf1f309adc325306\n    /* \"contracts/FundMe.sol\":487:495  dataFeed */\n  0x02\n  0x00\n    /* \"contracts/FundMe.sol\":487:585  dataFeed = AggregatorV3Interface(... */\n  0x0100\n  exp\n  dup2\n  sload\n  dup2\n  0xffffffffffffffffffffffffffffffffffffffff\n  mul\n  not\n  and\n  swap1\n  dup4\n  0xffffffffffffffffffffffffffffffffffffffff\n  and\n  mul\n  or\n  swap1\n  sstore\n  pop\n    /* \"contracts/FundMe.sol\":603:613  msg.sender */\n  caller\n    /* \"contracts/FundMe.sol\":595:600  owner */\n  0x03\n  0x00\n    /* \"contracts/FundMe.sol\":595:613  owner = msg.sender */\n  0x0100\n  exp\n  dup2\n  sload\n  dup2\n  0xffffffffffffffffffffffffffffffffffffffff\n  mul\n  not\n  and\n  swap1\n  dup4\n  0xffffffffffffffffffffffffffffffffffffffff\n  and\n  mul\n  or\n  swap1\n  sstore\n  pop\n    /* \"contracts/FundMe.sol\":171:3441  contract FundMe {... */\n  dataSize(sub_0)\n  dup1\n  dataOffset(sub_0)\n  0x00\n  codecopy\n  0x00\n  return\nstop\n\nsub_0: assembly {\n        /* \"contracts/FundMe.sol\":171:3441  contract FundMe {... */\n      mstore(0x40, 0x80)\n      jumpi(tag_1, lt(calldatasize, 0x04))\n      shr(0xe0, calldataload(0x00))\n      dup1\n      0x8da5cb5b\n      gt\n      tag_9\n      jumpi\n      dup1\n      0x8da5cb5b\n      eq\n      tag_5\n      jumpi\n      dup1\n      0x8edd6eb6\n      eq\n      tag_6\n      jumpi\n      dup1\n      0xb60d4288\n      eq\n      tag_7\n      jumpi\n      dup1\n      0xbea4dfb5\n      eq\n      tag_8\n      jumpi\n      jump(tag_1)\n    tag_9:\n      dup1\n      0x0ff0a4df\n      eq\n      tag_2\n      jumpi\n      dup1\n      0x4407e1e8\n      eq\n      tag_3\n      jumpi\n      dup1\n      0x8863dd1a\n      eq\n      tag_4\n      jumpi\n    tag_1:\n      0x00\n      dup1\n      revert\n        /* \"contracts/FundMe.sol\":2992:3439  function reFund() external {... */\n    tag_2:\n      callvalue\n      dup1\n      iszero\n      tag_10\n      jumpi\n      0x00\n      dup1\n      revert\n    tag_10:\n      pop\n      tag_11\n      tag_12\n      jump\t// in\n    tag_11:\n      stop\n        /* \"contracts/FundMe.sol\":193:242  mapping(address => uint256) public funderToAmount */\n    tag_3:\n      callvalue\n      dup1\n      iszero\n      tag_13\n      jumpi\n      0x00\n      dup1\n      revert\n    tag_13:\n      pop\n      tag_14\n      0x04\n      dup1\n      calldatasize\n      sub\n      dup2\n      add\n      swap1\n      tag_15\n      swap2\n      swap1\n      tag_16\n      jump\t// in\n    tag_15:\n      tag_17\n      jump\t// in\n    tag_14:\n      mload(0x40)\n      tag_18\n      swap2\n      swap1\n      tag_19\n      jump\t// in\n    tag_18:\n      mload(0x40)\n      dup1\n      swap2\n      sub\n      swap1\n      return\n        /* \"contracts/FundMe.sol\":1677:2005  function transferOwnerShip(address newOwner) public {... */\n    tag_4:\n      callvalue\n      dup1\n      iszero\n      tag_20\n      jumpi\n      0x00\n      dup1\n      revert\n    tag_20:\n      pop\n      tag_21\n      0x04\n      dup1\n      calldatasize\n      sub\n      dup2\n      add\n      swap1\n      tag_22\n      swap2\n      swap1\n      tag_16\n      jump\t// in\n    tag_22:\n      tag_23\n      jump\t// in\n    tag_21:\n      stop\n        /* \"contracts/FundMe.sol\":409:429  address public owner */\n    tag_5:\n      callvalue\n      dup1\n      iszero\n      tag_24\n      jumpi\n      0x00\n      dup1\n      revert\n    tag_24:\n      pop\n      tag_25\n      tag_26\n      jump\t// in\n    tag_25:\n      mload(0x40)\n      tag_27\n      swap2\n      swap1\n      tag_28\n      jump\t// in\n    tag_27:\n      mload(0x40)\n      dup1\n      swap2\n      sub\n      swap1\n      return\n        /* \"contracts/FundMe.sol\":2072:2916  function getFund() external {... */\n    tag_6:\n      callvalue\n      dup1\n      iszero\n      tag_29\n      jumpi\n      0x00\n      dup1\n      revert\n    tag_29:\n      pop\n      tag_30\n      tag_31\n      jump\t// in\n    tag_30:\n      stop\n        /* \"contracts/FundMe.sol\":660:910  function fund() external payable {... */\n    tag_7:\n      tag_32\n      tag_33\n      jump\t// in\n    tag_32:\n      stop\n        /* \"contracts/FundMe.sol\":966:1307  function getChainlinkDataFeedLatestAnswer() public view returns (int256) {... */\n    tag_8:\n      callvalue\n      dup1\n      iszero\n      tag_34\n      jumpi\n      0x00\n      dup1\n      revert\n    tag_34:\n      pop\n      tag_35\n      tag_36\n      jump\t// in\n    tag_35:\n      mload(0x40)\n      tag_37\n      swap2\n      swap1\n      tag_38\n      jump\t// in\n    tag_37:\n      mload(0x40)\n      dup1\n      swap2\n      sub\n      swap1\n      return\n        /* \"contracts/FundMe.sol\":2992:3439  function reFund() external {... */\n    tag_12:\n        /* \"contracts/FundMe.sol\":390:402  100 * 10**18 */\n      0x056bc75e2d63100000\n        /* \"contracts/FundMe.sol\":3050:3088  convertEthToUsd(address(this).balance) */\n      tag_40\n        /* \"contracts/FundMe.sol\":3066:3087  address(this).balance */\n      selfbalance\n        /* \"contracts/FundMe.sol\":3050:3065  convertEthToUsd */\n      tag_41\n        /* \"contracts/FundMe.sol\":3050:3088  convertEthToUsd(address(this).balance) */\n      jump\t// in\n    tag_40:\n        /* \"contracts/FundMe.sol\":3050:3097  convertEthToUsd(address(this).balance) < TARGET */\n      lt\n        /* \"contracts/FundMe.sol\":3029:3140  require(... */\n      tag_42\n      jumpi\n      mload(0x40)\n      0x08c379a000000000000000000000000000000000000000000000000000000000\n      dup2\n      mstore\n      0x04\n      add\n      tag_43\n      swap1\n      tag_44\n      jump\t// in\n    tag_43:\n      mload(0x40)\n      dup1\n      swap2\n      sub\n      swap1\n      revert\n    tag_42:\n        /* \"contracts/FundMe.sol\":3151:3165  uint256 amount */\n      0x00\n        /* \"contracts/FundMe.sol\":3168:3182  funderToAmount */\n      dup1\n        /* \"contracts/FundMe.sol\":3168:3194  funderToAmount[msg.sender] */\n      0x00\n        /* \"contracts/FundMe.sol\":3183:3193  msg.sender */\n      caller\n        /* \"contracts/FundMe.sol\":3168:3194  funderToAmount[msg.sender] */\n      0xffffffffffffffffffffffffffffffffffffffff\n      and\n      0xffffffffffffffffffffffffffffffffffffffff\n      and\n      dup2\n      mstore\n      0x20\n      add\n      swap1\n      dup2\n      mstore\n      0x20\n      add\n      0x00\n      keccak256\n      sload\n        /* \"contracts/FundMe.sol\":3151:3194  uint256 amount = funderToAmount[msg.sender] */\n      swap1\n      pop\n        /* \"contracts/FundMe.sol\":3222:3223  0 */\n      0x00\n        /* \"contracts/FundMe.sol\":3212:3218  amount */\n      dup2\n        /* \"contracts/FundMe.sol\":3212:3223  amount != 0 */\n      sub\n        /* \"contracts/FundMe.sol\":3204:3253  require(amount != 0, \"there is not fund for you\") */\n      tag_45\n      jumpi\n      mload(0x40)\n      0x08c379a000000000000000000000000000000000000000000000000000000000\n      dup2\n      mstore\n      0x04\n      add\n      tag_46\n      swap1\n      tag_47\n      jump\t// in\n    tag_46:\n      mload(0x40)\n      dup1\n      swap2\n      sub\n      swap1\n      revert\n    tag_45:\n        /* \"contracts/FundMe.sol\":3263:3275  bool success */\n      0x00\n        /* \"contracts/FundMe.sol\":3307:3317  msg.sender */\n      caller\n        /* \"contracts/FundMe.sol\":3299:3323  payable(msg.sender).call */\n      0xffffffffffffffffffffffffffffffffffffffff\n      and\n        /* \"contracts/FundMe.sol\":3344:3358  funderToAmount */\n      0x00\n        /* \"contracts/FundMe.sol\":3344:3370  funderToAmount[msg.sender] */\n      dup1\n        /* \"contracts/FundMe.sol\":3359:3369  msg.sender */\n      caller\n        /* \"contracts/FundMe.sol\":3344:3370  funderToAmount[msg.sender] */\n      0xffffffffffffffffffffffffffffffffffffffff\n      and\n      0xffffffffffffffffffffffffffffffffffffffff\n      and\n      dup2\n      mstore\n      0x20\n      add\n      swap1\n      dup2\n      mstore\n      0x20\n      add\n      0x00\n      keccak256\n      sload\n        /* \"contracts/FundMe.sol\":3299:3384  payable(msg.sender).call{... */\n      mload(0x40)\n      tag_48\n      swap1\n      tag_49\n      jump\t// in\n    tag_48:\n      0x00\n      mload(0x40)\n      dup1\n      dup4\n      sub\n      dup2\n      dup6\n      dup8\n      gas\n      call\n      swap3\n      pop\n      pop\n      pop\n      returndatasize\n      dup1\n      0x00\n      dup2\n      eq\n      tag_52\n      jumpi\n      mload(0x40)\n      swap2\n      pop\n      and(add(returndatasize, 0x3f), not(0x1f))\n      dup3\n      add\n      0x40\n      mstore\n      returndatasize\n      dup3\n      mstore\n      returndatasize\n      0x00\n      0x20\n      dup5\n      add\n      returndatacopy\n      jump(tag_51)\n    tag_52:\n      0x60\n      swap2\n      pop\n    tag_51:\n      pop\n        /* \"contracts/FundMe.sol\":3285:3384  (success, ) = payable(msg.sender).call{... */\n      pop\n      dup1\n      swap2\n      pop\n      pop\n        /* \"contracts/FundMe.sol\":3402:3409  success */\n      dup1\n        /* \"contracts/FundMe.sol\":3394:3432  require(success, \"transfer tx failed\") */\n      tag_53\n      jumpi\n      mload(0x40)\n      0x08c379a000000000000000000000000000000000000000000000000000000000\n      dup2\n      mstore\n      0x04\n      add\n      tag_54\n      swap1\n      tag_55\n      jump\t// in\n    tag_54:\n      mload(0x40)\n      dup1\n      swap2\n      sub\n      swap1\n      revert\n    tag_53:\n        /* \"contracts/FundMe.sol\":3019:3439  {... */\n      pop\n      pop\n        /* \"contracts/FundMe.sol\":2992:3439  function reFund() external {... */\n      jump\t// out\n        /* \"contracts/FundMe.sol\":193:242  mapping(address => uint256) public funderToAmount */\n    tag_17:\n      mstore(0x20, 0x00)\n      dup1\n      0x00\n      mstore\n      keccak256(0x00, 0x40)\n      0x00\n      swap2\n      pop\n      swap1\n      pop\n      sload\n      dup2\n      jump\t// out\n        /* \"contracts/FundMe.sol\":1677:2005  function transferOwnerShip(address newOwner) public {... */\n    tag_23:\n        /* \"contracts/FundMe.sol\":1774:1779  owner */\n      0x03\n      0x00\n      swap1\n      sload\n      swap1\n      0x0100\n      exp\n      swap1\n      div\n      0xffffffffffffffffffffffffffffffffffffffff\n      and\n        /* \"contracts/FundMe.sol\":1760:1779  msg.sender == owner */\n      0xffffffffffffffffffffffffffffffffffffffff\n      and\n        /* \"contracts/FundMe.sol\":1760:1770  msg.sender */\n      caller\n        /* \"contracts/FundMe.sol\":1760:1779  msg.sender == owner */\n      0xffffffffffffffffffffffffffffffffffffffff\n      and\n      eq\n        /* \"contracts/FundMe.sol\":1739:1846  require(... */\n      tag_57\n      jumpi\n      mload(0x40)\n      0x08c379a000000000000000000000000000000000000000000000000000000000\n      dup2\n      mstore\n      0x04\n      add\n      tag_58\n      swap1\n      tag_59\n      jump\t// in\n    tag_58:\n      mload(0x40)\n      dup1\n      swap2\n      sub\n      swap1\n      revert\n    tag_57:\n        /* \"contracts/FundMe.sol\":1864:1872  newOwner */\n      dup1\n        /* \"contracts/FundMe.sol\":1856:1861  owner */\n      0x03\n      0x00\n        /* \"contracts/FundMe.sol\":1856:1872  owner = newOwner */\n      0x0100\n      exp\n      dup2\n      sload\n      dup2\n      0xffffffffffffffffffffffffffffffffffffffff\n      mul\n      not\n      and\n      swap1\n      dup4\n      0xffffffffffffffffffffffffffffffffffffffff\n      and\n      mul\n      or\n      swap1\n      sstore\n      pop\n        /* \"contracts/FundMe.sol\":390:402  100 * 10**18 */\n      0x056bc75e2d63100000\n        /* \"contracts/FundMe.sol\":1903:1941  convertEthToUsd(address(this).balance) */\n      tag_60\n        /* \"contracts/FundMe.sol\":1919:1940  address(this).balance */\n      selfbalance\n        /* \"contracts/FundMe.sol\":1903:1918  convertEthToUsd */\n      tag_41\n        /* \"contracts/FundMe.sol\":1903:1941  convertEthToUsd(address(this).balance) */\n      jump\t// in\n    tag_60:\n        /* \"contracts/FundMe.sol\":1903:1951  convertEthToUsd(address(this).balance) >= TARGET */\n      lt\n      iszero\n        /* \"contracts/FundMe.sol\":1882:1998  require(... */\n      tag_61\n      jumpi\n      mload(0x40)\n      0x08c379a000000000000000000000000000000000000000000000000000000000\n      dup2\n      mstore\n      0x04\n      add\n      tag_62\n      swap1\n      tag_63\n      jump\t// in\n    tag_62:\n      mload(0x40)\n      dup1\n      swap2\n      sub\n      swap1\n      revert\n    tag_61:\n        /* \"contracts/FundMe.sol\":1677:2005  function transferOwnerShip(address newOwner) public {... */\n      pop\n      jump\t// out\n        /* \"contracts/FundMe.sol\":409:429  address public owner */\n    tag_26:\n      0x03\n      0x00\n      swap1\n      sload\n      swap1\n      0x0100\n      exp\n      swap1\n      div\n      0xffffffffffffffffffffffffffffffffffffffff\n      and\n      dup2\n      jump\t// out\n        /* \"contracts/FundMe.sol\":2072:2916  function getFund() external {... */\n    tag_31:\n        /* \"contracts/FundMe.sol\":390:402  100 * 10**18 */\n      0x056bc75e2d63100000\n        /* \"contracts/FundMe.sol\":2131:2169  convertEthToUsd(address(this).balance) */\n      tag_65\n        /* \"contracts/FundMe.sol\":2147:2168  address(this).balance */\n      selfbalance\n        /* \"contracts/FundMe.sol\":2131:2146  convertEthToUsd */\n      tag_41\n        /* \"contracts/FundMe.sol\":2131:2169  convertEthToUsd(address(this).balance) */\n      jump\t// in\n    tag_65:\n        /* \"contracts/FundMe.sol\":2131:2179  convertEthToUsd(address(this).balance) >= TARGET */\n      lt\n      iszero\n        /* \"contracts/FundMe.sol\":2110:2226  require(... */\n      tag_66\n      jumpi\n      mload(0x40)\n      0x08c379a000000000000000000000000000000000000000000000000000000000\n      dup2\n      mstore\n      0x04\n      add\n      tag_67\n      swap1\n      tag_63\n      jump\t// in\n    tag_67:\n      mload(0x40)\n      dup1\n      swap2\n      sub\n      swap1\n      revert\n    tag_66:\n        /* \"contracts/FundMe.sol\":2271:2276  owner */\n      0x03\n      0x00\n      swap1\n      sload\n      swap1\n      0x0100\n      exp\n      swap1\n      div\n      0xffffffffffffffffffffffffffffffffffffffff\n      and\n        /* \"contracts/FundMe.sol\":2257:2276  msg.sender == owner */\n      0xffffffffffffffffffffffffffffffffffffffff\n      and\n        /* \"contracts/FundMe.sol\":2257:2267  msg.sender */\n      caller\n        /* \"contracts/FundMe.sol\":2257:2276  msg.sender == owner */\n      0xffffffffffffffffffffffffffffffffffffffff\n      and\n      eq\n        /* \"contracts/FundMe.sol\":2236:2343  require(... */\n      tag_68\n      jumpi\n      mload(0x40)\n      0x08c379a000000000000000000000000000000000000000000000000000000000\n      dup2\n      mstore\n      0x04\n      add\n      tag_69\n      swap1\n      tag_59\n      jump\t// in\n    tag_69:\n      mload(0x40)\n      dup1\n      swap2\n      sub\n      swap1\n      revert\n    tag_68:\n        /* \"contracts/FundMe.sol\":2745:2757  bool success */\n      0x00\n        /* \"contracts/FundMe.sol\":2789:2799  msg.sender */\n      caller\n        /* \"contracts/FundMe.sol\":2781:2805  payable(msg.sender).call */\n      0xffffffffffffffffffffffffffffffffffffffff\n      and\n        /* \"contracts/FundMe.sol\":2813:2834  address(this).balance */\n      selfbalance\n        /* \"contracts/FundMe.sol\":2781:2861  payable(msg.sender).call{value: address(this).balance}(... */\n      mload(0x40)\n      tag_70\n      swap1\n      tag_49\n      jump\t// in\n    tag_70:\n      0x00\n      mload(0x40)\n      dup1\n      dup4\n      sub\n      dup2\n      dup6\n      dup8\n      gas\n      call\n      swap3\n      pop\n      pop\n      pop\n      returndatasize\n      dup1\n      0x00\n      dup2\n      eq\n      tag_73\n      jumpi\n      mload(0x40)\n      swap2\n      pop\n      and(add(returndatasize, 0x3f), not(0x1f))\n      dup3\n      add\n      0x40\n      mstore\n      returndatasize\n      dup3\n      mstore\n      returndatasize\n      0x00\n      0x20\n      dup5\n      add\n      returndatacopy\n      jump(tag_72)\n    tag_73:\n      0x60\n      swap2\n      pop\n    tag_72:\n      pop\n        /* \"contracts/FundMe.sol\":2767:2861  (success, ) = payable(msg.sender).call{value: address(this).balance}(... */\n      pop\n      dup1\n      swap2\n      pop\n      pop\n        /* \"contracts/FundMe.sol\":2879:2886  success */\n      dup1\n        /* \"contracts/FundMe.sol\":2871:2909  require(success, \"transfer tx failed\") */\n      tag_74\n      jumpi\n      mload(0x40)\n      0x08c379a000000000000000000000000000000000000000000000000000000000\n      dup2\n      mstore\n      0x04\n      add\n      tag_75\n      swap1\n      tag_55\n      jump\t// in\n    tag_75:\n      mload(0x40)\n      dup1\n      swap2\n      sub\n      swap1\n      revert\n    tag_74:\n        /* \"contracts/FundMe.sol\":2100:2916  {... */\n      pop\n        /* \"contracts/FundMe.sol\":2072:2916  function getFund() external {... */\n      jump\t// out\n        /* \"contracts/FundMe.sol\":660:910  function fund() external payable {... */\n    tag_33:\n        /* \"contracts/FundMe.sol\":778:790  MINMUM_VALUE */\n      sload(0x01)\n        /* \"contracts/FundMe.sol\":748:774  convertEthToUsd(msg.value) */\n      tag_77\n        /* \"contracts/FundMe.sol\":764:773  msg.value */\n      callvalue\n        /* \"contracts/FundMe.sol\":748:763  convertEthToUsd */\n      tag_41\n        /* \"contracts/FundMe.sol\":748:774  convertEthToUsd(msg.value) */\n      jump\t// in\n    tag_77:\n        /* \"contracts/FundMe.sol\":748:790  convertEthToUsd(msg.value) >= MINMUM_VALUE */\n      lt\n      iszero\n        /* \"contracts/FundMe.sol\":740:808  require(convertEthToUsd(msg.value) >= MINMUM_VALUE, \"send more ETH\") */\n      tag_78\n      jumpi\n      mload(0x40)\n      0x08c379a000000000000000000000000000000000000000000000000000000000\n      dup2\n      mstore\n      0x04\n      add\n      tag_79\n      swap1\n      tag_80\n      jump\t// in\n    tag_79:\n      mload(0x40)\n      dup1\n      swap2\n      sub\n      swap1\n      revert\n    tag_78:\n        /* \"contracts/FundMe.sol\":894:903  msg.value */\n      callvalue\n        /* \"contracts/FundMe.sol\":865:879  funderToAmount */\n      0x00\n        /* \"contracts/FundMe.sol\":865:891  funderToAmount[msg.sender] */\n      dup1\n        /* \"contracts/FundMe.sol\":880:890  msg.sender */\n      caller\n        /* \"contracts/FundMe.sol\":865:891  funderToAmount[msg.sender] */\n      0xffffffffffffffffffffffffffffffffffffffff\n      and\n      0xffffffffffffffffffffffffffffffffffffffff\n      and\n      dup2\n      mstore\n      0x20\n      add\n      swap1\n      dup2\n      mstore\n      0x20\n      add\n      0x00\n      keccak256\n        /* \"contracts/FundMe.sol\":865:903  funderToAmount[msg.sender] = msg.value */\n      dup2\n      swap1\n      sstore\n      pop\n        /* \"contracts/FundMe.sol\":660:910  function fund() external payable {... */\n      jump\t// out\n        /* \"contracts/FundMe.sol\":966:1307  function getChainlinkDataFeedLatestAnswer() public view returns (int256) {... */\n    tag_36:\n        /* \"contracts/FundMe.sol\":1031:1037  int256 */\n      0x00\n        /* \"contracts/FundMe.sol\":1124:1134  int answer */\n      dup1\n        /* \"contracts/FundMe.sol\":1251:1259  dataFeed */\n      0x02\n      0x00\n      swap1\n      sload\n      swap1\n      0x0100\n      exp\n      swap1\n      div\n      0xffffffffffffffffffffffffffffffffffffffff\n      and\n        /* \"contracts/FundMe.sol\":1251:1275  dataFeed.latestRoundData */\n      0xffffffffffffffffffffffffffffffffffffffff\n      and\n      0xfeaf968c\n        /* \"contracts/FundMe.sol\":1251:1277  dataFeed.latestRoundData() */\n      mload(0x40)\n      dup2\n      0xffffffff\n      and\n      0xe0\n      shl\n      dup2\n      mstore\n      0x04\n      add\n      0xa0\n      mload(0x40)\n      dup1\n      dup4\n      sub\n      dup2\n      dup7\n      gas\n      staticcall\n      iszero\n      dup1\n      iszero\n      tag_83\n      jumpi\n      returndatasize\n      0x00\n      dup1\n      returndatacopy\n      revert(0x00, returndatasize)\n    tag_83:\n      pop\n      pop\n      pop\n      pop\n      mload(0x40)\n      returndatasize\n      not(0x1f)\n      0x1f\n      dup3\n      add\n      and\n      dup3\n      add\n      dup1\n      0x40\n      mstore\n      pop\n      dup2\n      add\n      swap1\n      tag_84\n      swap2\n      swap1\n      tag_85\n      jump\t// in\n    tag_84:\n        /* \"contracts/FundMe.sol\":1076:1277  (... */\n      pop\n      pop\n      pop\n      swap2\n      pop\n      pop\n        /* \"contracts/FundMe.sol\":1294:1300  answer */\n      dup1\n        /* \"contracts/FundMe.sol\":1287:1300  return answer */\n      swap2\n      pop\n      pop\n        /* \"contracts/FundMe.sol\":966:1307  function getChainlinkDataFeedLatestAnswer() public view returns (int256) {... */\n      swap1\n      jump\t// out\n        /* \"contracts/FundMe.sol\":1313:1671  function convertEthToUsd(uint256 ethAmount)... */\n    tag_41:\n        /* \"contracts/FundMe.sol\":1404:1411  uint256 */\n      0x00\n        /* \"contracts/FundMe.sol\":1479:1495  uint256 ethPrice */\n      dup1\n        /* \"contracts/FundMe.sol\":1506:1540  getChainlinkDataFeedLatestAnswer() */\n      tag_87\n        /* \"contracts/FundMe.sol\":1506:1538  getChainlinkDataFeedLatestAnswer */\n      tag_36\n        /* \"contracts/FundMe.sol\":1506:1540  getChainlinkDataFeedLatestAnswer() */\n      jump\t// in\n    tag_87:\n        /* \"contracts/FundMe.sol\":1479:1541  uint256 ethPrice = uint256(getChainlinkDataFeedLatestAnswer()) */\n      swap1\n      pop\n        /* \"contracts/FundMe.sol\":1658:1663  10**8 */\n      0x05f5e100\n        /* \"contracts/FundMe.sol\":1645:1653  ethPrice */\n      dup2\n        /* \"contracts/FundMe.sol\":1633:1642  ethAmount */\n      dup5\n        /* \"contracts/FundMe.sol\":1633:1653  ethAmount * ethPrice */\n      tag_88\n      swap2\n      swap1\n      tag_89\n      jump\t// in\n    tag_88:\n        /* \"contracts/FundMe.sol\":1632:1664  (ethAmount * ethPrice) / (10**8) */\n      tag_90\n      swap2\n      swap1\n      tag_91\n      jump\t// in\n    tag_90:\n        /* \"contracts/FundMe.sol\":1625:1664  return (ethAmount * ethPrice) / (10**8) */\n      swap2\n      pop\n      pop\n        /* \"contracts/FundMe.sol\":1313:1671  function convertEthToUsd(uint256 ethAmount)... */\n      swap2\n      swap1\n      pop\n      jump\t// out\n        /* \"#utility.yul\":88:205   */\n    tag_93:\n        /* \"#utility.yul\":197:198   */\n      0x00\n        /* \"#utility.yul\":194:195   */\n      dup1\n        /* \"#utility.yul\":187:199   */\n      revert\n        /* \"#utility.yul\":334:460   */\n    tag_95:\n        /* \"#utility.yul\":371:378   */\n      0x00\n        /* \"#utility.yul\":411:453   */\n      0xffffffffffffffffffffffffffffffffffffffff\n        /* \"#utility.yul\":404:409   */\n      dup3\n        /* \"#utility.yul\":400:454   */\n      and\n        /* \"#utility.yul\":389:454   */\n      swap1\n      pop\n        /* \"#utility.yul\":334:460   */\n      swap2\n      swap1\n      pop\n      jump\t// out\n        /* \"#utility.yul\":466:562   */\n    tag_96:\n        /* \"#utility.yul\":503:510   */\n      0x00\n        /* \"#utility.yul\":532:556   */\n      tag_135\n        /* \"#utility.yul\":550:555   */\n      dup3\n        /* \"#utility.yul\":532:556   */\n      tag_95\n      jump\t// in\n    tag_135:\n        /* \"#utility.yul\":521:556   */\n      swap1\n      pop\n        /* \"#utility.yul\":466:562   */\n      swap2\n      swap1\n      pop\n      jump\t// out\n        /* \"#utility.yul\":568:690   */\n    tag_97:\n        /* \"#utility.yul\":641:665   */\n      tag_137\n        /* \"#utility.yul\":659:664   */\n      dup2\n        /* \"#utility.yul\":641:665   */\n      tag_96\n      jump\t// in\n    tag_137:\n        /* \"#utility.yul\":634:639   */\n      dup2\n        /* \"#utility.yul\":631:666   */\n      eq\n        /* \"#utility.yul\":621:684   */\n      tag_138\n      jumpi\n        /* \"#utility.yul\":680:681   */\n      0x00\n        /* \"#utility.yul\":677:678   */\n      dup1\n        /* \"#utility.yul\":670:682   */\n      revert\n        /* \"#utility.yul\":621:684   */\n    tag_138:\n        /* \"#utility.yul\":568:690   */\n      pop\n      jump\t// out\n        /* \"#utility.yul\":696:835   */\n    tag_98:\n        /* \"#utility.yul\":742:747   */\n      0x00\n        /* \"#utility.yul\":780:786   */\n      dup2\n        /* \"#utility.yul\":767:787   */\n      calldataload\n        /* \"#utility.yul\":758:787   */\n      swap1\n      pop\n        /* \"#utility.yul\":796:829   */\n      tag_140\n        /* \"#utility.yul\":823:828   */\n      dup2\n        /* \"#utility.yul\":796:829   */\n      tag_97\n      jump\t// in\n    tag_140:\n        /* \"#utility.yul\":696:835   */\n      swap3\n      swap2\n      pop\n      pop\n      jump\t// out\n        /* \"#utility.yul\":841:1170   */\n    tag_16:\n        /* \"#utility.yul\":900:906   */\n      0x00\n        /* \"#utility.yul\":949:951   */\n      0x20\n        /* \"#utility.yul\":937:946   */\n      dup3\n        /* \"#utility.yul\":928:935   */\n      dup5\n        /* \"#utility.yul\":924:947   */\n      sub\n        /* \"#utility.yul\":920:952   */\n      slt\n        /* \"#utility.yul\":917:1036   */\n      iszero\n      tag_142\n      jumpi\n        /* \"#utility.yul\":955:1034   */\n      tag_143\n      tag_93\n      jump\t// in\n    tag_143:\n        /* \"#utility.yul\":917:1036   */\n    tag_142:\n        /* \"#utility.yul\":1075:1076   */\n      0x00\n        /* \"#utility.yul\":1100:1153   */\n      tag_144\n        /* \"#utility.yul\":1145:1152   */\n      dup5\n        /* \"#utility.yul\":1136:1142   */\n      dup3\n        /* \"#utility.yul\":1125:1134   */\n      dup6\n        /* \"#utility.yul\":1121:1143   */\n      add\n        /* \"#utility.yul\":1100:1153   */\n      tag_98\n      jump\t// in\n    tag_144:\n        /* \"#utility.yul\":1090:1153   */\n      swap2\n      pop\n        /* \"#utility.yul\":1046:1163   */\n      pop\n        /* \"#utility.yul\":841:1170   */\n      swap3\n      swap2\n      pop\n      pop\n      jump\t// out\n        /* \"#utility.yul\":1176:1253   */\n    tag_99:\n        /* \"#utility.yul\":1213:1220   */\n      0x00\n        /* \"#utility.yul\":1242:1247   */\n      dup2\n        /* \"#utility.yul\":1231:1247   */\n      swap1\n      pop\n        /* \"#utility.yul\":1176:1253   */\n      swap2\n      swap1\n      pop\n      jump\t// out\n        /* \"#utility.yul\":1259:1377   */\n    tag_100:\n        /* \"#utility.yul\":1346:1370   */\n      tag_147\n        /* \"#utility.yul\":1364:1369   */\n      dup2\n        /* \"#utility.yul\":1346:1370   */\n      tag_99\n      jump\t// in\n    tag_147:\n        /* \"#utility.yul\":1341:1344   */\n      dup3\n        /* \"#utility.yul\":1334:1371   */\n      mstore\n        /* \"#utility.yul\":1259:1377   */\n      pop\n      pop\n      jump\t// out\n        /* \"#utility.yul\":1383:1605   */\n    tag_19:\n        /* \"#utility.yul\":1476:1480   */\n      0x00\n        /* \"#utility.yul\":1514:1516   */\n      0x20\n        /* \"#utility.yul\":1503:1512   */\n      dup3\n        /* \"#utility.yul\":1499:1517   */\n      add\n        /* \"#utility.yul\":1491:1517   */\n      swap1\n      pop\n        /* \"#utility.yul\":1527:1598   */\n      tag_149\n        /* \"#utility.yul\":1595:1596   */\n      0x00\n        /* \"#utility.yul\":1584:1593   */\n      dup4\n        /* \"#utility.yul\":1580:1597   */\n      add\n        /* \"#utility.yul\":1571:1577   */\n      dup5\n        /* \"#utility.yul\":1527:1598   */\n      tag_100\n      jump\t// in\n    tag_149:\n        /* \"#utility.yul\":1383:1605   */\n      swap3\n      swap2\n      pop\n      pop\n      jump\t// out\n        /* \"#utility.yul\":1611:1729   */\n    tag_101:\n        /* \"#utility.yul\":1698:1722   */\n      tag_151\n        /* \"#utility.yul\":1716:1721   */\n      dup2\n        /* \"#utility.yul\":1698:1722   */\n      tag_96\n      jump\t// in\n    tag_151:\n        /* \"#utility.yul\":1693:1696   */\n      dup3\n        /* \"#utility.yul\":1686:1723   */\n      mstore\n        /* \"#utility.yul\":1611:1729   */\n      pop\n      pop\n      jump\t// out\n        /* \"#utility.yul\":1735:1957   */\n    tag_28:\n        /* \"#utility.yul\":1828:1832   */\n      0x00\n        /* \"#utility.yul\":1866:1868   */\n      0x20\n        /* \"#utility.yul\":1855:1864   */\n      dup3\n        /* \"#utility.yul\":1851:1869   */\n      add\n        /* \"#utility.yul\":1843:1869   */\n      swap1\n      pop\n        /* \"#utility.yul\":1879:1950   */\n      tag_153\n        /* \"#utility.yul\":1947:1948   */\n      0x00\n        /* \"#utility.yul\":1936:1945   */\n      dup4\n        /* \"#utility.yul\":1932:1949   */\n      add\n        /* \"#utility.yul\":1923:1929   */\n      dup5\n        /* \"#utility.yul\":1879:1950   */\n      tag_101\n      jump\t// in\n    tag_153:\n        /* \"#utility.yul\":1735:1957   */\n      swap3\n      swap2\n      pop\n      pop\n      jump\t// out\n        /* \"#utility.yul\":1963:2039   */\n    tag_102:\n        /* \"#utility.yul\":1999:2006   */\n      0x00\n        /* \"#utility.yul\":2028:2033   */\n      dup2\n        /* \"#utility.yul\":2017:2033   */\n      swap1\n      pop\n        /* \"#utility.yul\":1963:2039   */\n      swap2\n      swap1\n      pop\n      jump\t// out\n        /* \"#utility.yul\":2045:2160   */\n    tag_103:\n        /* \"#utility.yul\":2130:2153   */\n      tag_156\n        /* \"#utility.yul\":2147:2152   */\n      dup2\n        /* \"#utility.yul\":2130:2153   */\n      tag_102\n      jump\t// in\n    tag_156:\n        /* \"#utility.yul\":2125:2128   */\n      dup3\n        /* \"#utility.yul\":2118:2154   */\n      mstore\n        /* \"#utility.yul\":2045:2160   */\n      pop\n      pop\n      jump\t// out\n        /* \"#utility.yul\":2166:2384   */\n    tag_38:\n        /* \"#utility.yul\":2257:2261   */\n      0x00\n        /* \"#utility.yul\":2295:2297   */\n      0x20\n        /* \"#utility.yul\":2284:2293   */\n      dup3\n        /* \"#utility.yul\":2280:2298   */\n      add\n        /* \"#utility.yul\":2272:2298   */\n      swap1\n      pop\n        /* \"#utility.yul\":2308:2377   */\n      tag_158\n        /* \"#utility.yul\":2374:2375   */\n      0x00\n        /* \"#utility.yul\":2363:2372   */\n      dup4\n        /* \"#utility.yul\":2359:2376   */\n      add\n        /* \"#utility.yul\":2350:2356   */\n      dup5\n        /* \"#utility.yul\":2308:2377   */\n      tag_103\n      jump\t// in\n    tag_158:\n        /* \"#utility.yul\":2166:2384   */\n      swap3\n      swap2\n      pop\n      pop\n      jump\t// out\n        /* \"#utility.yul\":2390:2559   */\n    tag_104:\n        /* \"#utility.yul\":2474:2485   */\n      0x00\n        /* \"#utility.yul\":2508:2514   */\n      dup3\n        /* \"#utility.yul\":2503:2506   */\n      dup3\n        /* \"#utility.yul\":2496:2515   */\n      mstore\n        /* \"#utility.yul\":2548:2552   */\n      0x20\n        /* \"#utility.yul\":2543:2546   */\n      dup3\n        /* \"#utility.yul\":2539:2553   */\n      add\n        /* \"#utility.yul\":2524:2553   */\n      swap1\n      pop\n        /* \"#utility.yul\":2390:2559   */\n      swap3\n      swap2\n      pop\n      pop\n      jump\t// out\n        /* \"#utility.yul\":2565:2732   */\n    tag_105:\n        /* \"#utility.yul\":2705:2724   */\n      0x7461726765742069732072656163686564000000000000000000000000000000\n        /* \"#utility.yul\":2701:2702   */\n      0x00\n        /* \"#utility.yul\":2693:2699   */\n      dup3\n        /* \"#utility.yul\":2689:2703   */\n      add\n        /* \"#utility.yul\":2682:2725   */\n      mstore\n        /* \"#utility.yul\":2565:2732   */\n      pop\n      jump\t// out\n        /* \"#utility.yul\":2738:3104   */\n    tag_106:\n        /* \"#utility.yul\":2880:2883   */\n      0x00\n        /* \"#utility.yul\":2901:2968   */\n      tag_162\n        /* \"#utility.yul\":2965:2967   */\n      0x11\n        /* \"#utility.yul\":2960:2963   */\n      dup4\n        /* \"#utility.yul\":2901:2968   */\n      tag_104\n      jump\t// in\n    tag_162:\n        /* \"#utility.yul\":2894:2968   */\n      swap2\n      pop\n        /* \"#utility.yul\":2977:3070   */\n      tag_163\n        /* \"#utility.yul\":3066:3069   */\n      dup3\n        /* \"#utility.yul\":2977:3070   */\n      tag_105\n      jump\t// in\n    tag_163:\n        /* \"#utility.yul\":3095:3097   */\n      0x20\n        /* \"#utility.yul\":3090:3093   */\n      dup3\n        /* \"#utility.yul\":3086:3098   */\n      add\n        /* \"#utility.yul\":3079:3098   */\n      swap1\n      pop\n        /* \"#utility.yul\":2738:3104   */\n      swap2\n      swap1\n      pop\n      jump\t// out\n        /* \"#utility.yul\":3110:3529   */\n    tag_44:\n        /* \"#utility.yul\":3276:3280   */\n      0x00\n        /* \"#utility.yul\":3314:3316   */\n      0x20\n        /* \"#utility.yul\":3303:3312   */\n      dup3\n        /* \"#utility.yul\":3299:3317   */\n      add\n        /* \"#utility.yul\":3291:3317   */\n      swap1\n      pop\n        /* \"#utility.yul\":3363:3372   */\n      dup2\n        /* \"#utility.yul\":3357:3361   */\n      dup2\n        /* \"#utility.yul\":3353:3373   */\n      sub\n        /* \"#utility.yul\":3349:3350   */\n      0x00\n        /* \"#utility.yul\":3338:3347   */\n      dup4\n        /* \"#utility.yul\":3334:3351   */\n      add\n        /* \"#utility.yul\":3327:3374   */\n      mstore\n        /* \"#utility.yul\":3391:3522   */\n      tag_165\n        /* \"#utility.yul\":3517:3521   */\n      dup2\n        /* \"#utility.yul\":3391:3522   */\n      tag_106\n      jump\t// in\n    tag_165:\n        /* \"#utility.yul\":3383:3522   */\n      swap1\n      pop\n        /* \"#utility.yul\":3110:3529   */\n      swap2\n      swap1\n      pop\n      jump\t// out\n        /* \"#utility.yul\":3535:3710   */\n    tag_107:\n        /* \"#utility.yul\":3675:3702   */\n      0x7468657265206973206e6f742066756e6420666f7220796f7500000000000000\n        /* \"#utility.yul\":3671:3672   */\n      0x00\n        /* \"#utility.yul\":3663:3669   */\n      dup3\n        /* \"#utility.yul\":3659:3673   */\n      add\n        /* \"#utility.yul\":3652:3703   */\n      mstore\n        /* \"#utility.yul\":3535:3710   */\n      pop\n      jump\t// out\n        /* \"#utility.yul\":3716:4082   */\n    tag_108:\n        /* \"#utility.yul\":3858:3861   */\n      0x00\n        /* \"#utility.yul\":3879:3946   */\n      tag_168\n        /* \"#utility.yul\":3943:3945   */\n      0x19\n        /* \"#utility.yul\":3938:3941   */\n      dup4\n        /* \"#utility.yul\":3879:3946   */\n      tag_104\n      jump\t// in\n    tag_168:\n        /* \"#utility.yul\":3872:3946   */\n      swap2\n      pop\n        /* \"#utility.yul\":3955:4048   */\n      tag_169\n        /* \"#utility.yul\":4044:4047   */\n      dup3\n        /* \"#utility.yul\":3955:4048   */\n      tag_107\n      jump\t// in\n    tag_169:\n        /* \"#utility.yul\":4073:4075   */\n      0x20\n        /* \"#utility.yul\":4068:4071   */\n      dup3\n        /* \"#utility.yul\":4064:4076   */\n      add\n        /* \"#utility.yul\":4057:4076   */\n      swap1\n      pop\n        /* \"#utility.yul\":3716:4082   */\n      swap2\n      swap1\n      pop\n      jump\t// out\n        /* \"#utility.yul\":4088:4507   */\n    tag_47:\n        /* \"#utility.yul\":4254:4258   */\n      0x00\n        /* \"#utility.yul\":4292:4294   */\n      0x20\n        /* \"#utility.yul\":4281:4290   */\n      dup3\n        /* \"#utility.yul\":4277:4295   */\n      add\n        /* \"#utility.yul\":4269:4295   */\n      swap1\n      pop\n        /* \"#utility.yul\":4341:4350   */\n      dup2\n        /* \"#utility.yul\":4335:4339   */\n      dup2\n        /* \"#utility.yul\":4331:4351   */\n      sub\n        /* \"#utility.yul\":4327:4328   */\n      0x00\n        /* \"#utility.yul\":4316:4325   */\n      dup4\n        /* \"#utility.yul\":4312:4329   */\n      add\n        /* \"#utility.yul\":4305:4352   */\n      mstore\n        /* \"#utility.yul\":4369:4500   */\n      tag_171\n        /* \"#utility.yul\":4495:4499   */\n      dup2\n        /* \"#utility.yul\":4369:4500   */\n      tag_108\n      jump\t// in\n    tag_171:\n        /* \"#utility.yul\":4361:4500   */\n      swap1\n      pop\n        /* \"#utility.yul\":4088:4507   */\n      swap2\n      swap1\n      pop\n      jump\t// out\n        /* \"#utility.yul\":4513:4660   */\n    tag_109:\n        /* \"#utility.yul\":4614:4625   */\n      0x00\n        /* \"#utility.yul\":4651:4654   */\n      dup2\n        /* \"#utility.yul\":4636:4654   */\n      swap1\n      pop\n        /* \"#utility.yul\":4513:4660   */\n      swap3\n      swap2\n      pop\n      pop\n      jump\t// out\n        /* \"#utility.yul\":4666:4780   */\n    tag_110:\n      pop\n      jump\t// out\n        /* \"#utility.yul\":4786:5184   */\n    tag_111:\n        /* \"#utility.yul\":4945:4948   */\n      0x00\n        /* \"#utility.yul\":4966:5049   */\n      tag_175\n        /* \"#utility.yul\":5047:5048   */\n      0x00\n        /* \"#utility.yul\":5042:5045   */\n      dup4\n        /* \"#utility.yul\":4966:5049   */\n      tag_109\n      jump\t// in\n    tag_175:\n        /* \"#utility.yul\":4959:5049   */\n      swap2\n      pop\n        /* \"#utility.yul\":5058:5151   */\n      tag_176\n        /* \"#utility.yul\":5147:5150   */\n      dup3\n        /* \"#utility.yul\":5058:5151   */\n      tag_110\n      jump\t// in\n    tag_176:\n        /* \"#utility.yul\":5176:5177   */\n      0x00\n        /* \"#utility.yul\":5171:5174   */\n      dup3\n        /* \"#utility.yul\":5167:5178   */\n      add\n        /* \"#utility.yul\":5160:5178   */\n      swap1\n      pop\n        /* \"#utility.yul\":4786:5184   */\n      swap2\n      swap1\n      pop\n      jump\t// out\n        /* \"#utility.yul\":5190:5569   */\n    tag_49:\n        /* \"#utility.yul\":5374:5377   */\n      0x00\n        /* \"#utility.yul\":5396:5543   */\n      tag_178\n        /* \"#utility.yul\":5539:5542   */\n      dup3\n        /* \"#utility.yul\":5396:5543   */\n      tag_111\n      jump\t// in\n    tag_178:\n        /* \"#utility.yul\":5389:5543   */\n      swap2\n      pop\n        /* \"#utility.yul\":5560:5563   */\n      dup2\n        /* \"#utility.yul\":5553:5563   */\n      swap1\n      pop\n        /* \"#utility.yul\":5190:5569   */\n      swap2\n      swap1\n      pop\n      jump\t// out\n        /* \"#utility.yul\":5575:5743   */\n    tag_112:\n        /* \"#utility.yul\":5715:5735   */\n      0x7472616e73666572207478206661696c65640000000000000000000000000000\n        /* \"#utility.yul\":5711:5712   */\n      0x00\n        /* \"#utility.yul\":5703:5709   */\n      dup3\n        /* \"#utility.yul\":5699:5713   */\n      add\n        /* \"#utility.yul\":5692:5736   */\n      mstore\n        /* \"#utility.yul\":5575:5743   */\n      pop\n      jump\t// out\n        /* \"#utility.yul\":5749:6115   */\n    tag_113:\n        /* \"#utility.yul\":5891:5894   */\n      0x00\n        /* \"#utility.yul\":5912:5979   */\n      tag_181\n        /* \"#utility.yul\":5976:5978   */\n      0x12\n        /* \"#utility.yul\":5971:5974   */\n      dup4\n        /* \"#utility.yul\":5912:5979   */\n      tag_104\n      jump\t// in\n    tag_181:\n        /* \"#utility.yul\":5905:5979   */\n      swap2\n      pop\n        /* \"#utility.yul\":5988:6081   */\n      tag_182\n        /* \"#utility.yul\":6077:6080   */\n      dup3\n        /* \"#utility.yul\":5988:6081   */\n      tag_112\n      jump\t// in\n    tag_182:\n        /* \"#utility.yul\":6106:6108   */\n      0x20\n        /* \"#utility.yul\":6101:6104   */\n      dup3\n        /* \"#utility.yul\":6097:6109   */\n      add\n        /* \"#utility.yul\":6090:6109   */\n      swap1\n      pop\n        /* \"#utility.yul\":5749:6115   */\n      swap2\n      swap1\n      pop\n      jump\t// out\n        /* \"#utility.yul\":6121:6540   */\n    tag_55:\n        /* \"#utility.yul\":6287:6291   */\n      0x00\n        /* \"#utility.yul\":6325:6327   */\n      0x20\n        /* \"#utility.yul\":6314:6323   */\n      dup3\n        /* \"#utility.yul\":6310:6328   */\n      add\n        /* \"#utility.yul\":6302:6328   */\n      swap1\n      pop\n        /* \"#utility.yul\":6374:6383   */\n      dup2\n        /* \"#utility.yul\":6368:6372   */\n      dup2\n        /* \"#utility.yul\":6364:6384   */\n      sub\n        /* \"#utility.yul\":6360:6361   */\n      0x00\n        /* \"#utility.yul\":6349:6358   */\n      dup4\n        /* \"#utility.yul\":6345:6362   */\n      add\n        /* \"#utility.yul\":6338:6385   */\n      mstore\n        /* \"#utility.yul\":6402:6533   */\n      tag_184\n        /* \"#utility.yul\":6528:6532   */\n      dup2\n        /* \"#utility.yul\":6402:6533   */\n      tag_113\n      jump\t// in\n    tag_184:\n        /* \"#utility.yul\":6394:6533   */\n      swap1\n      pop\n        /* \"#utility.yul\":6121:6540   */\n      swap2\n      swap1\n      pop\n      jump\t// out\n        /* \"#utility.yul\":6546:6774   */\n    tag_114:\n        /* \"#utility.yul\":6686:6720   */\n      0x746869732066756e6374696f6e2063616e206f6e6c792062652063616c6c6564\n        /* \"#utility.yul\":6682:6683   */\n      0x00\n        /* \"#utility.yul\":6674:6680   */\n      dup3\n        /* \"#utility.yul\":6670:6684   */\n      add\n        /* \"#utility.yul\":6663:6721   */\n      mstore\n        /* \"#utility.yul\":6755:6766   */\n      0x206279206f776e65720000000000000000000000000000000000000000000000\n        /* \"#utility.yul\":6750:6752   */\n      0x20\n        /* \"#utility.yul\":6742:6748   */\n      dup3\n        /* \"#utility.yul\":6738:6753   */\n      add\n        /* \"#utility.yul\":6731:6767   */\n      mstore\n        /* \"#utility.yul\":6546:6774   */\n      pop\n      jump\t// out\n        /* \"#utility.yul\":6780:7146   */\n    tag_115:\n        /* \"#utility.yul\":6922:6925   */\n      0x00\n        /* \"#utility.yul\":6943:7010   */\n      tag_187\n        /* \"#utility.yul\":7007:7009   */\n      0x29\n        /* \"#utility.yul\":7002:7005   */\n      dup4\n        /* \"#utility.yul\":6943:7010   */\n      tag_104\n      jump\t// in\n    tag_187:\n        /* \"#utility.yul\":6936:7010   */\n      swap2\n      pop\n        /* \"#utility.yul\":7019:7112   */\n      tag_188\n        /* \"#utility.yul\":7108:7111   */\n      dup3\n        /* \"#utility.yul\":7019:7112   */\n      tag_114\n      jump\t// in\n    tag_188:\n        /* \"#utility.yul\":7137:7139   */\n      0x40\n        /* \"#utility.yul\":7132:7135   */\n      dup3\n        /* \"#utility.yul\":7128:7140   */\n      add\n        /* \"#utility.yul\":7121:7140   */\n      swap1\n      pop\n        /* \"#utility.yul\":6780:7146   */\n      swap2\n      swap1\n      pop\n      jump\t// out\n        /* \"#utility.yul\":7152:7571   */\n    tag_59:\n        /* \"#utility.yul\":7318:7322   */\n      0x00\n        /* \"#utility.yul\":7356:7358   */\n      0x20\n        /* \"#utility.yul\":7345:7354   */\n      dup3\n        /* \"#utility.yul\":7341:7359   */\n      add\n        /* \"#utility.yul\":7333:7359   */\n      swap1\n      pop\n        /* \"#utility.yul\":7405:7414   */\n      dup2\n        /* \"#utility.yul\":7399:7403   */\n      dup2\n        /* \"#utility.yul\":7395:7415   */\n      sub\n        /* \"#utility.yul\":7391:7392   */\n      0x00\n        /* \"#utility.yul\":7380:7389   */\n      dup4\n        /* \"#utility.yul\":7376:7393   */\n      add\n        /* \"#utility.yul\":7369:7416   */\n      mstore\n        /* \"#utility.yul\":7433:7564   */\n      tag_190\n        /* \"#utility.yul\":7559:7563   */\n      dup2\n        /* \"#utility.yul\":7433:7564   */\n      tag_115\n      jump\t// in\n    tag_190:\n        /* \"#utility.yul\":7425:7564   */\n      swap1\n      pop\n        /* \"#utility.yul\":7152:7571   */\n      swap2\n      swap1\n      pop\n      jump\t// out\n        /* \"#utility.yul\":7577:7748   */\n    tag_116:\n        /* \"#utility.yul\":7717:7740   */\n      0x746172676574206973206e6f7420726561636865640000000000000000000000\n        /* \"#utility.yul\":7713:7714   */\n      0x00\n        /* \"#utility.yul\":7705:7711   */\n      dup3\n        /* \"#utility.yul\":7701:7715   */\n      add\n        /* \"#utility.yul\":7694:7741   */\n      mstore\n        /* \"#utility.yul\":7577:7748   */\n      pop\n      jump\t// out\n        /* \"#utility.yul\":7754:8120   */\n    tag_117:\n        /* \"#utility.yul\":7896:7899   */\n      0x00\n        /* \"#utility.yul\":7917:7984   */\n      tag_193\n        /* \"#utility.yul\":7981:7983   */\n      0x15\n        /* \"#utility.yul\":7976:7979   */\n      dup4\n        /* \"#utility.yul\":7917:7984   */\n      tag_104\n      jump\t// in\n    tag_193:\n        /* \"#utility.yul\":7910:7984   */\n      swap2\n      pop\n        /* \"#utility.yul\":7993:8086   */\n      tag_194\n        /* \"#utility.yul\":8082:8085   */\n      dup3\n        /* \"#utility.yul\":7993:8086   */\n      tag_116\n      jump\t// in\n    tag_194:\n        /* \"#utility.yul\":8111:8113   */\n      0x20\n        /* \"#utility.yul\":8106:8109   */\n      dup3\n        /* \"#utility.yul\":8102:8114   */\n      add\n        /* \"#utility.yul\":8095:8114   */\n      swap1\n      pop\n        /* \"#utility.yul\":7754:8120   */\n      swap2\n      swap1\n      pop\n      jump\t// out\n        /* \"#utility.yul\":8126:8545   */\n    tag_63:\n        /* \"#utility.yul\":8292:8296   */\n      0x00\n        /* \"#utility.yul\":8330:8332   */\n      0x20\n        /* \"#utility.yul\":8319:8328   */\n      dup3\n        /* \"#utility.yul\":8315:8333   */\n      add\n        /* \"#utility.yul\":8307:8333   */\n      swap1\n      pop\n        /* \"#utility.yul\":8379:8388   */\n      dup2\n        /* \"#utility.yul\":8373:8377   */\n      dup2\n        /* \"#utility.yul\":8369:8389   */\n      sub\n        /* \"#utility.yul\":8365:8366   */\n      0x00\n        /* \"#utility.yul\":8354:8363   */\n      dup4\n        /* \"#utility.yul\":8350:8367   */\n      add\n        /* \"#utility.yul\":8343:8390   */\n      mstore\n        /* \"#utility.yul\":8407:8538   */\n      tag_196\n        /* \"#utility.yul\":8533:8537   */\n      dup2\n        /* \"#utility.yul\":8407:8538   */\n      tag_117\n      jump\t// in\n    tag_196:\n        /* \"#utility.yul\":8399:8538   */\n      swap1\n      pop\n        /* \"#utility.yul\":8126:8545   */\n      swap2\n      swap1\n      pop\n      jump\t// out\n        /* \"#utility.yul\":8551:8714   */\n    tag_118:\n        /* \"#utility.yul\":8691:8706   */\n      0x73656e64206d6f72652045544800000000000000000000000000000000000000\n        /* \"#utility.yul\":8687:8688   */\n      0x00\n        /* \"#utility.yul\":8679:8685   */\n      dup3\n        /* \"#utility.yul\":8675:8689   */\n      add\n        /* \"#utility.yul\":8668:8707   */\n      mstore\n        /* \"#utility.yul\":8551:8714   */\n      pop\n      jump\t// out\n        /* \"#utility.yul\":8720:9086   */\n    tag_119:\n        /* \"#utility.yul\":8862:8865   */\n      0x00\n        /* \"#utility.yul\":8883:8950   */\n      tag_199\n        /* \"#utility.yul\":8947:8949   */\n      0x0d\n        /* \"#utility.yul\":8942:8945   */\n      dup4\n        /* \"#utility.yul\":8883:8950   */\n      tag_104\n      jump\t// in\n    tag_199:\n        /* \"#utility.yul\":8876:8950   */\n      swap2\n      pop\n        /* \"#utility.yul\":8959:9052   */\n      tag_200\n        /* \"#utility.yul\":9048:9051   */\n      dup3\n        /* \"#utility.yul\":8959:9052   */\n      tag_118\n      jump\t// in\n    tag_200:\n        /* \"#utility.yul\":9077:9079   */\n      0x20\n        /* \"#utility.yul\":9072:9075   */\n      dup3\n        /* \"#utility.yul\":9068:9080   */\n      add\n        /* \"#utility.yul\":9061:9080   */\n      swap1\n      pop\n        /* \"#utility.yul\":8720:9086   */\n      swap2\n      swap1\n      pop\n      jump\t// out\n        /* \"#utility.yul\":9092:9511   */\n    tag_80:\n        /* \"#utility.yul\":9258:9262   */\n      0x00\n        /* \"#utility.yul\":9296:9298   */\n      0x20\n        /* \"#utility.yul\":9285:9294   */\n      dup3\n        /* \"#utility.yul\":9281:9299   */\n      add\n        /* \"#utility.yul\":9273:9299   */\n      swap1\n      pop\n        /* \"#utility.yul\":9345:9354   */\n      dup2\n        /* \"#utility.yul\":9339:9343   */\n      dup2\n        /* \"#utility.yul\":9335:9355   */\n      sub\n        /* \"#utility.yul\":9331:9332   */\n      0x00\n        /* \"#utility.yul\":9320:9329   */\n      dup4\n        /* \"#utility.yul\":9316:9333   */\n      add\n        /* \"#utility.yul\":9309:9356   */\n      mstore\n        /* \"#utility.yul\":9373:9504   */\n      tag_202\n        /* \"#utility.yul\":9499:9503   */\n      dup2\n        /* \"#utility.yul\":9373:9504   */\n      tag_119\n      jump\t// in\n    tag_202:\n        /* \"#utility.yul\":9365:9504   */\n      swap1\n      pop\n        /* \"#utility.yul\":9092:9511   */\n      swap2\n      swap1\n      pop\n      jump\t// out\n        /* \"#utility.yul\":9517:9622   */\n    tag_120:\n        /* \"#utility.yul\":9553:9560   */\n      0x00\n        /* \"#utility.yul\":9593:9615   */\n      0xffffffffffffffffffff\n        /* \"#utility.yul\":9586:9591   */\n      dup3\n        /* \"#utility.yul\":9582:9616   */\n      and\n        /* \"#utility.yul\":9571:9616   */\n      swap1\n      pop\n        /* \"#utility.yul\":9517:9622   */\n      swap2\n      swap1\n      pop\n      jump\t// out\n        /* \"#utility.yul\":9628:9748   */\n    tag_121:\n        /* \"#utility.yul\":9700:9723   */\n      tag_205\n        /* \"#utility.yul\":9717:9722   */\n      dup2\n        /* \"#utility.yul\":9700:9723   */\n      tag_120\n      jump\t// in\n    tag_205:\n        /* \"#utility.yul\":9693:9698   */\n      dup2\n        /* \"#utility.yul\":9690:9724   */\n      eq\n        /* \"#utility.yul\":9680:9742   */\n      tag_206\n      jumpi\n        /* \"#utility.yul\":9738:9739   */\n      0x00\n        /* \"#utility.yul\":9735:9736   */\n      dup1\n        /* \"#utility.yul\":9728:9740   */\n      revert\n        /* \"#utility.yul\":9680:9742   */\n    tag_206:\n        /* \"#utility.yul\":9628:9748   */\n      pop\n      jump\t// out\n        /* \"#utility.yul\":9754:9895   */\n    tag_122:\n        /* \"#utility.yul\":9810:9815   */\n      0x00\n        /* \"#utility.yul\":9841:9847   */\n      dup2\n        /* \"#utility.yul\":9835:9848   */\n      mload\n        /* \"#utility.yul\":9826:9848   */\n      swap1\n      pop\n        /* \"#utility.yul\":9857:9889   */\n      tag_208\n        /* \"#utility.yul\":9883:9888   */\n      dup2\n        /* \"#utility.yul\":9857:9889   */\n      tag_121\n      jump\t// in\n    tag_208:\n        /* \"#utility.yul\":9754:9895   */\n      swap3\n      swap2\n      pop\n      pop\n      jump\t// out\n        /* \"#utility.yul\":9901:10021   */\n    tag_123:\n        /* \"#utility.yul\":9973:9996   */\n      tag_210\n        /* \"#utility.yul\":9990:9995   */\n      dup2\n        /* \"#utility.yul\":9973:9996   */\n      tag_102\n      jump\t// in\n    tag_210:\n        /* \"#utility.yul\":9966:9971   */\n      dup2\n        /* \"#utility.yul\":9963:9997   */\n      eq\n        /* \"#utility.yul\":9953:10015   */\n      tag_211\n      jumpi\n        /* \"#utility.yul\":10011:10012   */\n      0x00\n        /* \"#utility.yul\":10008:10009   */\n      dup1\n        /* \"#utility.yul\":10001:10013   */\n      revert\n        /* \"#utility.yul\":9953:10015   */\n    tag_211:\n        /* \"#utility.yul\":9901:10021   */\n      pop\n      jump\t// out\n        /* \"#utility.yul\":10027:10168   */\n    tag_124:\n        /* \"#utility.yul\":10083:10088   */\n      0x00\n        /* \"#utility.yul\":10114:10120   */\n      dup2\n        /* \"#utility.yul\":10108:10121   */\n      mload\n        /* \"#utility.yul\":10099:10121   */\n      swap1\n      pop\n        /* \"#utility.yul\":10130:10162   */\n      tag_213\n        /* \"#utility.yul\":10156:10161   */\n      dup2\n        /* \"#utility.yul\":10130:10162   */\n      tag_123\n      jump\t// in\n    tag_213:\n        /* \"#utility.yul\":10027:10168   */\n      swap3\n      swap2\n      pop\n      pop\n      jump\t// out\n        /* \"#utility.yul\":10174:10296   */\n    tag_125:\n        /* \"#utility.yul\":10247:10271   */\n      tag_215\n        /* \"#utility.yul\":10265:10270   */\n      dup2\n        /* \"#utility.yul\":10247:10271   */\n      tag_99\n      jump\t// in\n    tag_215:\n        /* \"#utility.yul\":10240:10245   */\n      dup2\n        /* \"#utility.yul\":10237:10272   */\n      eq\n        /* \"#utility.yul\":10227:10290   */\n      tag_216\n      jumpi\n        /* \"#utility.yul\":10286:10287   */\n      0x00\n        /* \"#utility.yul\":10283:10284   */\n      dup1\n        /* \"#utility.yul\":10276:10288   */\n      revert\n        /* \"#utility.yul\":10227:10290   */\n    tag_216:\n        /* \"#utility.yul\":10174:10296   */\n      pop\n      jump\t// out\n        /* \"#utility.yul\":10302:10445   */\n    tag_126:\n        /* \"#utility.yul\":10359:10364   */\n      0x00\n        /* \"#utility.yul\":10390:10396   */\n      dup2\n        /* \"#utility.yul\":10384:10397   */\n      mload\n        /* \"#utility.yul\":10375:10397   */\n      swap1\n      pop\n        /* \"#utility.yul\":10406:10439   */\n      tag_218\n        /* \"#utility.yul\":10433:10438   */\n      dup2\n        /* \"#utility.yul\":10406:10439   */\n      tag_125\n      jump\t// in\n    tag_218:\n        /* \"#utility.yul\":10302:10445   */\n      swap3\n      swap2\n      pop\n      pop\n      jump\t// out\n        /* \"#utility.yul\":10451:11422   */\n    tag_85:\n        /* \"#utility.yul\":10554:10560   */\n      0x00\n        /* \"#utility.yul\":10562:10568   */\n      dup1\n        /* \"#utility.yul\":10570:10576   */\n      0x00\n        /* \"#utility.yul\":10578:10584   */\n      dup1\n        /* \"#utility.yul\":10586:10592   */\n      0x00\n        /* \"#utility.yul\":10635:10638   */\n      0xa0\n        /* \"#utility.yul\":10623:10632   */\n      dup7\n        /* \"#utility.yul\":10614:10621   */\n      dup9\n        /* \"#utility.yul\":10610:10633   */\n      sub\n        /* \"#utility.yul\":10606:10639   */\n      slt\n        /* \"#utility.yul\":10603:10723   */\n      iszero\n      tag_220\n      jumpi\n        /* \"#utility.yul\":10642:10721   */\n      tag_221\n      tag_93\n      jump\t// in\n    tag_221:\n        /* \"#utility.yul\":10603:10723   */\n    tag_220:\n        /* \"#utility.yul\":10762:10763   */\n      0x00\n        /* \"#utility.yul\":10787:10850   */\n      tag_222\n        /* \"#utility.yul\":10842:10849   */\n      dup9\n        /* \"#utility.yul\":10833:10839   */\n      dup3\n        /* \"#utility.yul\":10822:10831   */\n      dup10\n        /* \"#utility.yul\":10818:10840   */\n      add\n        /* \"#utility.yul\":10787:10850   */\n      tag_122\n      jump\t// in\n    tag_222:\n        /* \"#utility.yul\":10777:10850   */\n      swap6\n      pop\n        /* \"#utility.yul\":10733:10860   */\n      pop\n        /* \"#utility.yul\":10899:10901   */\n      0x20\n        /* \"#utility.yul\":10925:10988   */\n      tag_223\n        /* \"#utility.yul\":10980:10987   */\n      dup9\n        /* \"#utility.yul\":10971:10977   */\n      dup3\n        /* \"#utility.yul\":10960:10969   */\n      dup10\n        /* \"#utility.yul\":10956:10978   */\n      add\n        /* \"#utility.yul\":10925:10988   */\n      tag_124\n      jump\t// in\n    tag_223:\n        /* \"#utility.yul\":10915:10988   */\n      swap5\n      pop\n        /* \"#utility.yul\":10870:10998   */\n      pop\n        /* \"#utility.yul\":11037:11039   */\n      0x40\n        /* \"#utility.yul\":11063:11127   */\n      tag_224\n        /* \"#utility.yul\":11119:11126   */\n      dup9\n        /* \"#utility.yul\":11110:11116   */\n      dup3\n        /* \"#utility.yul\":11099:11108   */\n      dup10\n        /* \"#utility.yul\":11095:11117   */\n      add\n        /* \"#utility.yul\":11063:11127   */\n      tag_126\n      jump\t// in\n    tag_224:\n        /* \"#utility.yul\":11053:11127   */\n      swap4\n      pop\n        /* \"#utility.yul\":11008:11137   */\n      pop\n        /* \"#utility.yul\":11176:11178   */\n      0x60\n        /* \"#utility.yul\":11202:11266   */\n      tag_225\n        /* \"#utility.yul\":11258:11265   */\n      dup9\n        /* \"#utility.yul\":11249:11255   */\n      dup3\n        /* \"#utility.yul\":11238:11247   */\n      dup10\n        /* \"#utility.yul\":11234:11256   */\n      add\n        /* \"#utility.yul\":11202:11266   */\n      tag_126\n      jump\t// in\n    tag_225:\n        /* \"#utility.yul\":11192:11266   */\n      swap3\n      pop\n        /* \"#utility.yul\":11147:11276   */\n      pop\n        /* \"#utility.yul\":11315:11318   */\n      0x80\n        /* \"#utility.yul\":11342:11405   */\n      tag_226\n        /* \"#utility.yul\":11397:11404   */\n      dup9\n        /* \"#utility.yul\":11388:11394   */\n      dup3\n        /* \"#utility.yul\":11377:11386   */\n      dup10\n        /* \"#utility.yul\":11373:11395   */\n      add\n        /* \"#utility.yul\":11342:11405   */\n      tag_122\n      jump\t// in\n    tag_226:\n        /* \"#utility.yul\":11332:11405   */\n      swap2\n      pop\n        /* \"#utility.yul\":11286:11415   */\n      pop\n        /* \"#utility.yul\":10451:11422   */\n      swap3\n      swap6\n      pop\n      swap3\n      swap6\n      swap1\n      swap4\n      pop\n      jump\t// out\n        /* \"#utility.yul\":11428:11608   */\n    tag_127:\n        /* \"#utility.yul\":11476:11553   */\n      0x4e487b7100000000000000000000000000000000000000000000000000000000\n        /* \"#utility.yul\":11473:11474   */\n      0x00\n        /* \"#utility.yul\":11466:11554   */\n      mstore\n        /* \"#utility.yul\":11573:11577   */\n      0x11\n        /* \"#utility.yul\":11570:11571   */\n      0x04\n        /* \"#utility.yul\":11563:11578   */\n      mstore\n        /* \"#utility.yul\":11597:11601   */\n      0x24\n        /* \"#utility.yul\":11594:11595   */\n      0x00\n        /* \"#utility.yul\":11587:11602   */\n      revert\n        /* \"#utility.yul\":11614:12024   */\n    tag_89:\n        /* \"#utility.yul\":11654:11661   */\n      0x00\n        /* \"#utility.yul\":11677:11697   */\n      tag_229\n        /* \"#utility.yul\":11695:11696   */\n      dup3\n        /* \"#utility.yul\":11677:11697   */\n      tag_99\n      jump\t// in\n    tag_229:\n        /* \"#utility.yul\":11672:11697   */\n      swap2\n      pop\n        /* \"#utility.yul\":11711:11731   */\n      tag_230\n        /* \"#utility.yul\":11729:11730   */\n      dup4\n        /* \"#utility.yul\":11711:11731   */\n      tag_99\n      jump\t// in\n    tag_230:\n        /* \"#utility.yul\":11706:11731   */\n      swap3\n      pop\n        /* \"#utility.yul\":11766:11767   */\n      dup3\n        /* \"#utility.yul\":11763:11764   */\n      dup3\n        /* \"#utility.yul\":11759:11768   */\n      mul\n        /* \"#utility.yul\":11788:11818   */\n      tag_231\n        /* \"#utility.yul\":11806:11817   */\n      dup2\n        /* \"#utility.yul\":11788:11818   */\n      tag_99\n      jump\t// in\n    tag_231:\n        /* \"#utility.yul\":11777:11818   */\n      swap2\n      pop\n        /* \"#utility.yul\":11967:11968   */\n      dup3\n        /* \"#utility.yul\":11958:11965   */\n      dup3\n        /* \"#utility.yul\":11954:11969   */\n      div\n        /* \"#utility.yul\":11951:11952   */\n      dup5\n        /* \"#utility.yul\":11948:11970   */\n      eq\n        /* \"#utility.yul\":11928:11929   */\n      dup4\n        /* \"#utility.yul\":11921:11930   */\n      iszero\n        /* \"#utility.yul\":11901:11984   */\n      or\n        /* \"#utility.yul\":11878:12017   */\n      tag_232\n      jumpi\n        /* \"#utility.yul\":11997:12015   */\n      tag_233\n      tag_127\n      jump\t// in\n    tag_233:\n        /* \"#utility.yul\":11878:12017   */\n    tag_232:\n        /* \"#utility.yul\":11662:12024   */\n      pop\n        /* \"#utility.yul\":11614:12024   */\n      swap3\n      swap2\n      pop\n      pop\n      jump\t// out\n        /* \"#utility.yul\":12030:12210   */\n    tag_128:\n        /* \"#utility.yul\":12078:12155   */\n      0x4e487b7100000000000000000000000000000000000000000000000000000000\n        /* \"#utility.yul\":12075:12076   */\n      0x00\n        /* \"#utility.yul\":12068:12156   */\n      mstore\n        /* \"#utility.yul\":12175:12179   */\n      0x12\n        /* \"#utility.yul\":12172:12173   */\n      0x04\n        /* \"#utility.yul\":12165:12180   */\n      mstore\n        /* \"#utility.yul\":12199:12203   */\n      0x24\n        /* \"#utility.yul\":12196:12197   */\n      0x00\n        /* \"#utility.yul\":12189:12204   */\n      revert\n        /* \"#utility.yul\":12216:12401   */\n    tag_91:\n        /* \"#utility.yul\":12256:12257   */\n      0x00\n        /* \"#utility.yul\":12273:12293   */\n      tag_236\n        /* \"#utility.yul\":12291:12292   */\n      dup3\n        /* \"#utility.yul\":12273:12293   */\n      tag_99\n      jump\t// in\n    tag_236:\n        /* \"#utility.yul\":12268:12293   */\n      swap2\n      pop\n        /* \"#utility.yul\":12307:12327   */\n      tag_237\n        /* \"#utility.yul\":12325:12326   */\n      dup4\n        /* \"#utility.yul\":12307:12327   */\n      tag_99\n      jump\t// in\n    tag_237:\n        /* \"#utility.yul\":12302:12327   */\n      swap3\n      pop\n        /* \"#utility.yul\":12346:12347   */\n      dup3\n        /* \"#utility.yul\":12336:12371   */\n      tag_238\n      jumpi\n        /* \"#utility.yul\":12351:12369   */\n      tag_239\n      tag_128\n      jump\t// in\n    tag_239:\n        /* \"#utility.yul\":12336:12371   */\n    tag_238:\n        /* \"#utility.yul\":12393:12394   */\n      dup3\n        /* \"#utility.yul\":12390:12391   */\n      dup3\n        /* \"#utility.yul\":12386:12395   */\n      div\n        /* \"#utility.yul\":12381:12395   */\n      swap1\n      pop\n        /* \"#utility.yul\":12216:12401   */\n      swap3\n      swap2\n      pop\n      pop\n      jump\t// out\n\n    auxdata: 0xa2646970667358221220ad654770dbbcb65dc6a2a20d0f2a57f7dc7681959b8c53d18c5ebb4f56ef106064736f6c634300081a0033\n}\n",
				"bytecode": {
					"linkReferences": {},
					"object": "6080604052678ac7230489e80000600155348015601a575f80fd5b5073694aa1769357215de4fac081bf1f309adc32530660025f6101000a81548173ffffffffffffffffffffffffffffffffffffffff021916908373ffffffffffffffffffffffffffffffffffffffff1602179055503360035f6101000a81548173ffffffffffffffffffffffffffffffffffffffff021916908373ffffffffffffffffffffffffffffffffffffffff160217905550610d70806100bc5f395ff3fe60806040526004361061006f575f3560e01c80638da5cb5b1161004d5780638da5cb5b146100ed5780638edd6eb614610117578063b60d42881461012d578063bea4dfb5146101375761006f565b80630ff0a4df146100735780634407e1e8146100895780638863dd1a146100c5575b5f80fd5b34801561007e575f80fd5b50610087610161565b005b348015610094575f80fd5b506100af60048036038101906100aa91906107c9565b610320565b6040516100bc919061080c565b60405180910390f35b3480156100d0575f80fd5b506100eb60048036038101906100e691906107c9565b610334565b005b3480156100f8575f80fd5b5061010161045a565b60405161010e9190610834565b60405180910390f35b348015610122575f80fd5b5061012b61047f565b005b61013561060f565b005b348015610142575f80fd5b5061014b61069f565b6040516101589190610865565b60405180910390f35b68056bc75e2d631000006101744761073c565b106101b4576040517f08c379a00000000000000000000000000000000000000000000000000000000081526004016101ab906108d8565b60405180910390fd5b5f805f3373ffffffffffffffffffffffffffffffffffffffff1673ffffffffffffffffffffffffffffffffffffffff1681526020019081526020015f205490505f8103610236576040517f08c379a000000000000000000000000000000000000000000000000000000000815260040161022d90610940565b60405180910390fd5b5f3373ffffffffffffffffffffffffffffffffffffffff165f803373ffffffffffffffffffffffffffffffffffffffff1673ffffffffffffffffffffffffffffffffffffffff1681526020019081526020015f20546040516102979061098b565b5f6040518083038185875af1925050503d805f81146102d1576040519150601f19603f3d011682016040523d82523d5f602084013e6102d6565b606091505b5050809150508061031c576040517f08c379a0000000000000000000000000000000000000000000000000000000008152600401610313906109e9565b60405180910390fd5b5050565b5f602052805f5260405f205f915090505481565b60035f9054906101000a900473ffffffffffffffffffffffffffffffffffffffff1673ffffffffffffffffffffffffffffffffffffffff163373ffffffffffffffffffffffffffffffffffffffff16146103c3576040517f08c379a00000000000000000000000000000000000000000000000000000000081526004016103ba90610a77565b60405180910390fd5b8060035f6101000a81548173ffffffffffffffffffffffffffffffffffffffff021916908373ffffffffffffffffffffffffffffffffffffffff16021790555068056bc75e2d631000006104164761073c565b1015610457576040517f08c379a000000000000000000000000000000000000000000000000000000000815260040161044e90610adf565b60405180910390fd5b50565b60035f9054906101000a900473ffffffffffffffffffffffffffffffffffffffff1681565b68056bc75e2d631000006104924761073c565b10156104d3576040517f08c379a00000000000000000000000000000000000000000000000000000000081526004016104ca90610adf565b60405180910390fd5b60035f9054906101000a900473ffffffffffffffffffffffffffffffffffffffff1673ffffffffffffffffffffffffffffffffffffffff163373ffffffffffffffffffffffffffffffffffffffff1614610562576040517f08c379a000000000000000000000000000000000000000000000000000000000815260040161055990610a77565b60405180910390fd5b5f3373ffffffffffffffffffffffffffffffffffffffff16476040516105879061098b565b5f6040518083038185875af1925050503d805f81146105c1576040519150601f19603f3d011682016040523d82523d5f602084013e6105c6565b606091505b5050809150508061060c576040517f08c379a0000000000000000000000000000000000000000000000000000000008152600401610603906109e9565b60405180910390fd5b50565b60015461061b3461073c565b101561065c576040517f08c379a000000000000000000000000000000000000000000000000000000000815260040161065390610b47565b60405180910390fd5b345f803373ffffffffffffffffffffffffffffffffffffffff1673ffffffffffffffffffffffffffffffffffffffff1681526020019081526020015f2081905550565b5f8060025f9054906101000a900473ffffffffffffffffffffffffffffffffffffffff1673ffffffffffffffffffffffffffffffffffffffff1663feaf968c6040518163ffffffff1660e01b815260040160a060405180830381865afa15801561070b573d5f803e3d5ffd5b505050506040513d601f19601f8201168201806040525081019061072f9190610bf8565b5050509150508091505090565b5f8061074661069f565b90506305f5e10081846107599190610c9c565b6107639190610d0a565b915050919050565b5f80fd5b5f73ffffffffffffffffffffffffffffffffffffffff82169050919050565b5f6107988261076f565b9050919050565b6107a88161078e565b81146107b2575f80fd5b50565b5f813590506107c38161079f565b92915050565b5f602082840312156107de576107dd61076b565b5b5f6107eb848285016107b5565b91505092915050565b5f819050919050565b610806816107f4565b82525050565b5f60208201905061081f5f8301846107fd565b92915050565b61082e8161078e565b82525050565b5f6020820190506108475f830184610825565b92915050565b5f819050919050565b61085f8161084d565b82525050565b5f6020820190506108785f830184610856565b92915050565b5f82825260208201905092915050565b7f74617267657420697320726561636865640000000000000000000000000000005f82015250565b5f6108c260118361087e565b91506108cd8261088e565b602082019050919050565b5f6020820190508181035f8301526108ef816108b6565b9050919050565b7f7468657265206973206e6f742066756e6420666f7220796f75000000000000005f82015250565b5f61092a60198361087e565b9150610935826108f6565b602082019050919050565b5f6020820190508181035f8301526109578161091e565b9050919050565b5f81905092915050565b50565b5f6109765f8361095e565b915061098182610968565b5f82019050919050565b5f6109958261096b565b9150819050919050565b7f7472616e73666572207478206661696c656400000000000000000000000000005f82015250565b5f6109d360128361087e565b91506109de8261099f565b602082019050919050565b5f6020820190508181035f830152610a00816109c7565b9050919050565b7f746869732066756e6374696f6e2063616e206f6e6c792062652063616c6c65645f8201527f206279206f776e65720000000000000000000000000000000000000000000000602082015250565b5f610a6160298361087e565b9150610a6c82610a07565b604082019050919050565b5f6020820190508181035f830152610a8e81610a55565b9050919050565b7f746172676574206973206e6f74207265616368656400000000000000000000005f82015250565b5f610ac960158361087e565b9150610ad482610a95565b602082019050919050565b5f6020820190508181035f830152610af681610abd565b9050919050565b7f73656e64206d6f726520455448000000000000000000000000000000000000005f82015250565b5f610b31600d8361087e565b9150610b3c82610afd565b602082019050919050565b5f6020820190508181035f830152610b5e81610b25565b9050919050565b5f69ffffffffffffffffffff82169050919050565b610b8381610b65565b8114610b8d575f80fd5b50565b5f81519050610b9e81610b7a565b92915050565b610bad8161084d565b8114610bb7575f80fd5b50565b5f81519050610bc881610ba4565b92915050565b610bd7816107f4565b8114610be1575f80fd5b50565b5f81519050610bf281610bce565b92915050565b5f805f805f60a08688031215610c1157610c1061076b565b5b5f610c1e88828901610b90565b9550506020610c2f88828901610bba565b9450506040610c4088828901610be4565b9350506060610c5188828901610be4565b9250506080610c6288828901610b90565b9150509295509295909350565b7f4e487b71000000000000000000000000000000000000000000000000000000005f52601160045260245ffd5b5f610ca6826107f4565b9150610cb1836107f4565b9250828202610cbf816107f4565b91508282048414831517610cd657610cd5610c6f565b5b5092915050565b7f4e487b71000000000000000000000000000000000000000000000000000000005f52601260045260245ffd5b5f610d14826107f4565b9150610d1f836107f4565b925082610d2f57610d2e610cdd565b5b82820490509291505056fea2646970667358221220ad654770dbbcb65dc6a2a20d0f2a57f7dc7681959b8c53d18c5ebb4f56ef106064736f6c634300081a0033",
					"opcodes": "PUSH1 0x80 PUSH1 0x40 MSTORE PUSH8 0x8AC7230489E80000 PUSH1 0x1 SSTORE CALLVALUE DUP1 ISZERO PUSH1 0x1A JUMPI PUSH0 DUP1 REVERT JUMPDEST POP PUSH20 0x694AA1769357215DE4FAC081BF1F309ADC325306 PUSH1 0x2 PUSH0 PUSH2 0x100 EXP DUP2 SLOAD DUP2 PUSH20 0xFFFFFFFFFFFFFFFFFFFFFFFFFFFFFFFFFFFFFFFF MUL NOT AND SWAP1 DUP4 PUSH20 0xFFFFFFFFFFFFFFFFFFFFFFFFFFFFFFFFFFFFFFFF AND MUL OR SWAP1 SSTORE POP CALLER PUSH1 0x3 PUSH0 PUSH2 0x100 EXP DUP2 SLOAD DUP2 PUSH20 0xFFFFFFFFFFFFFFFFFFFFFFFFFFFFFFFFFFFFFFFF MUL NOT AND SWAP1 DUP4 PUSH20 0xFFFFFFFFFFFFFFFFFFFFFFFFFFFFFFFFFFFFFFFF AND MUL OR SWAP1 SSTORE POP PUSH2 0xD70 DUP1 PUSH2 0xBC PUSH0 CODECOPY PUSH0 RETURN INVALID PUSH1 0x80 PUSH1 0x40 MSTORE PUSH1 0x4 CALLDATASIZE LT PUSH2 0x6F JUMPI PUSH0 CALLDATALOAD PUSH1 0xE0 SHR DUP1 PUSH4 0x8DA5CB5B GT PUSH2 0x4D JUMPI DUP1 PUSH4 0x8DA5CB5B EQ PUSH2 0xED JUMPI DUP1 PUSH4 0x8EDD6EB6 EQ PUSH2 0x117 JUMPI DUP1 PUSH4 0xB60D4288 EQ PUSH2 0x12D JUMPI DUP1 PUSH4 0xBEA4DFB5 EQ PUSH2 0x137 JUMPI PUSH2 0x6F JUMP JUMPDEST DUP1 PUSH4 0xFF0A4DF EQ PUSH2 0x73 JUMPI DUP1 PUSH4 0x4407E1E8 EQ PUSH2 0x89 JUMPI DUP1 PUSH4 0x8863DD1A EQ PUSH2 0xC5 JUMPI JUMPDEST PUSH0 DUP1 REVERT JUMPDEST CALLVALUE DUP1 ISZERO PUSH2 0x7E JUMPI PUSH0 DUP1 REVERT JUMPDEST POP PUSH2 0x87 PUSH2 0x161 JUMP JUMPDEST STOP JUMPDEST CALLVALUE DUP1 ISZERO PUSH2 0x94 JUMPI PUSH0 DUP1 REVERT JUMPDEST POP PUSH2 0xAF PUSH1 0x4 DUP1 CALLDATASIZE SUB DUP2 ADD SWAP1 PUSH2 0xAA SWAP2 SWAP1 PUSH2 0x7C9 JUMP JUMPDEST PUSH2 0x320 JUMP JUMPDEST PUSH1 0x40 MLOAD PUSH2 0xBC SWAP2 SWAP1 PUSH2 0x80C JUMP JUMPDEST PUSH1 0x40 MLOAD DUP1 SWAP2 SUB SWAP1 RETURN JUMPDEST CALLVALUE DUP1 ISZERO PUSH2 0xD0 JUMPI PUSH0 DUP1 REVERT JUMPDEST POP PUSH2 0xEB PUSH1 0x4 DUP1 CALLDATASIZE SUB DUP2 ADD SWAP1 PUSH2 0xE6 SWAP2 SWAP1 PUSH2 0x7C9 JUMP JUMPDEST PUSH2 0x334 JUMP JUMPDEST STOP JUMPDEST CALLVALUE DUP1 ISZERO PUSH2 0xF8 JUMPI PUSH0 DUP1 REVERT JUMPDEST POP PUSH2 0x101 PUSH2 0x45A JUMP JUMPDEST PUSH1 0x40 MLOAD PUSH2 0x10E SWAP2 SWAP1 PUSH2 0x834 JUMP JUMPDEST PUSH1 0x40 MLOAD DUP1 SWAP2 SUB SWAP1 RETURN JUMPDEST CALLVALUE DUP1 ISZERO PUSH2 0x122 JUMPI PUSH0 DUP1 REVERT JUMPDEST POP PUSH2 0x12B PUSH2 0x47F JUMP JUMPDEST STOP JUMPDEST PUSH2 0x135 PUSH2 0x60F JUMP JUMPDEST STOP JUMPDEST CALLVALUE DUP1 ISZERO PUSH2 0x142 JUMPI PUSH0 DUP1 REVERT JUMPDEST POP PUSH2 0x14B PUSH2 0x69F JUMP JUMPDEST PUSH1 0x40 MLOAD PUSH2 0x158 SWAP2 SWAP1 PUSH2 0x865 JUMP JUMPDEST PUSH1 0x40 MLOAD DUP1 SWAP2 SUB SWAP1 RETURN JUMPDEST PUSH9 0x56BC75E2D63100000 PUSH2 0x174 SELFBALANCE PUSH2 0x73C JUMP JUMPDEST LT PUSH2 0x1B4 JUMPI PUSH1 0x40 MLOAD PUSH32 0x8C379A000000000000000000000000000000000000000000000000000000000 DUP2 MSTORE PUSH1 0x4 ADD PUSH2 0x1AB SWAP1 PUSH2 0x8D8 JUMP JUMPDEST PUSH1 0x40 MLOAD DUP1 SWAP2 SUB SWAP1 REVERT JUMPDEST PUSH0 DUP1 PUSH0 CALLER PUSH20 0xFFFFFFFFFFFFFFFFFFFFFFFFFFFFFFFFFFFFFFFF AND PUSH20 0xFFFFFFFFFFFFFFFFFFFFFFFFFFFFFFFFFFFFFFFF AND DUP2 MSTORE PUSH1 0x20 ADD SWAP1 DUP2 MSTORE PUSH1 0x20 ADD PUSH0 KECCAK256 SLOAD SWAP1 POP PUSH0 DUP2 SUB PUSH2 0x236 JUMPI PUSH1 0x40 MLOAD PUSH32 0x8C379A000000000000000000000000000000000000000000000000000000000 DUP2 MSTORE PUSH1 0x4 ADD PUSH2 0x22D SWAP1 PUSH2 0x940 JUMP JUMPDEST PUSH1 0x40 MLOAD DUP1 SWAP2 SUB SWAP1 REVERT JUMPDEST PUSH0 CALLER PUSH20 0xFFFFFFFFFFFFFFFFFFFFFFFFFFFFFFFFFFFFFFFF AND PUSH0 DUP1 CALLER PUSH20 0xFFFFFFFFFFFFFFFFFFFFFFFFFFFFFFFFFFFFFFFF AND PUSH20 0xFFFFFFFFFFFFFFFFFFFFFFFFFFFFFFFFFFFFFFFF AND DUP2 MSTORE PUSH1 0x20 ADD SWAP1 DUP2 MSTORE PUSH1 0x20 ADD PUSH0 KECCAK256 SLOAD PUSH1 0x40 MLOAD PUSH2 0x297 SWAP1 PUSH2 0x98B JUMP JUMPDEST PUSH0 PUSH1 0x40 MLOAD DUP1 DUP4 SUB DUP2 DUP6 DUP8 GAS CALL SWAP3 POP POP POP RETURNDATASIZE DUP1 PUSH0 DUP2 EQ PUSH2 0x2D1 JUMPI PUSH1 0x40 MLOAD SWAP2 POP PUSH1 0x1F NOT PUSH1 0x3F RETURNDATASIZE ADD AND DUP3 ADD PUSH1 0x40 MSTORE RETURNDATASIZE DUP3 MSTORE RETURNDATASIZE PUSH0 PUSH1 0x20 DUP5 ADD RETURNDATACOPY PUSH2 0x2D6 JUMP JUMPDEST PUSH1 0x60 SWAP2 POP JUMPDEST POP POP DUP1 SWAP2 POP POP DUP1 PUSH2 0x31C JUMPI PUSH1 0x40 MLOAD PUSH32 0x8C379A000000000000000000000000000000000000000000000000000000000 DUP2 MSTORE PUSH1 0x4 ADD PUSH2 0x313 SWAP1 PUSH2 0x9E9 JUMP JUMPDEST PUSH1 0x40 MLOAD DUP1 SWAP2 SUB SWAP1 REVERT JUMPDEST POP POP JUMP JUMPDEST PUSH0 PUSH1 0x20 MSTORE DUP1 PUSH0 MSTORE PUSH1 0x40 PUSH0 KECCAK256 PUSH0 SWAP2 POP SWAP1 POP SLOAD DUP2 JUMP JUMPDEST PUSH1 0x3 PUSH0 SWAP1 SLOAD SWAP1 PUSH2 0x100 EXP SWAP1 DIV PUSH20 0xFFFFFFFFFFFFFFFFFFFFFFFFFFFFFFFFFFFFFFFF AND PUSH20 0xFFFFFFFFFFFFFFFFFFFFFFFFFFFFFFFFFFFFFFFF AND CALLER PUSH20 0xFFFFFFFFFFFFFFFFFFFFFFFFFFFFFFFFFFFFFFFF AND EQ PUSH2 0x3C3 JUMPI PUSH1 0x40 MLOAD PUSH32 0x8C379A000000000000000000000000000000000000000000000000000000000 DUP2 MSTORE PUSH1 0x4 ADD PUSH2 0x3BA SWAP1 PUSH2 0xA77 JUMP JUMPDEST PUSH1 0x40 MLOAD DUP1 SWAP2 SUB SWAP1 REVERT JUMPDEST DUP1 PUSH1 0x3 PUSH0 PUSH2 0x100 EXP DUP2 SLOAD DUP2 PUSH20 0xFFFFFFFFFFFFFFFFFFFFFFFFFFFFFFFFFFFFFFFF MUL NOT AND SWAP1 DUP4 PUSH20 0xFFFFFFFFFFFFFFFFFFFFFFFFFFFFFFFFFFFFFFFF AND MUL OR SWAP1 SSTORE POP PUSH9 0x56BC75E2D63100000 PUSH2 0x416 SELFBALANCE PUSH2 0x73C JUMP JUMPDEST LT ISZERO PUSH2 0x457 JUMPI PUSH1 0x40 MLOAD PUSH32 0x8C379A000000000000000000000000000000000000000000000000000000000 DUP2 MSTORE PUSH1 0x4 ADD PUSH2 0x44E SWAP1 PUSH2 0xADF JUMP JUMPDEST PUSH1 0x40 MLOAD DUP1 SWAP2 SUB SWAP1 REVERT JUMPDEST POP JUMP JUMPDEST PUSH1 0x3 PUSH0 SWAP1 SLOAD SWAP1 PUSH2 0x100 EXP SWAP1 DIV PUSH20 0xFFFFFFFFFFFFFFFFFFFFFFFFFFFFFFFFFFFFFFFF AND DUP2 JUMP JUMPDEST PUSH9 0x56BC75E2D63100000 PUSH2 0x492 SELFBALANCE PUSH2 0x73C JUMP JUMPDEST LT ISZERO PUSH2 0x4D3 JUMPI PUSH1 0x40 MLOAD PUSH32 0x8C379A000000000000000000000000000000000000000000000000000000000 DUP2 MSTORE PUSH1 0x4 ADD PUSH2 0x4CA SWAP1 PUSH2 0xADF JUMP JUMPDEST PUSH1 0x40 MLOAD DUP1 SWAP2 SUB SWAP1 REVERT JUMPDEST PUSH1 0x3 PUSH0 SWAP1 SLOAD SWAP1 PUSH2 0x100 EXP SWAP1 DIV PUSH20 0xFFFFFFFFFFFFFFFFFFFFFFFFFFFFFFFFFFFFFFFF AND PUSH20 0xFFFFFFFFFFFFFFFFFFFFFFFFFFFFFFFFFFFFFFFF AND CALLER PUSH20 0xFFFFFFFFFFFFFFFFFFFFFFFFFFFFFFFFFFFFFFFF AND EQ PUSH2 0x562 JUMPI PUSH1 0x40 MLOAD PUSH32 0x8C379A000000000000000000000000000000000000000000000000000000000 DUP2 MSTORE PUSH1 0x4 ADD PUSH2 0x559 SWAP1 PUSH2 0xA77 JUMP JUMPDEST PUSH1 0x40 MLOAD DUP1 SWAP2 SUB SWAP1 REVERT JUMPDEST PUSH0 CALLER PUSH20 0xFFFFFFFFFFFFFFFFFFFFFFFFFFFFFFFFFFFFFFFF AND SELFBALANCE PUSH1 0x40 MLOAD PUSH2 0x587 SWAP1 PUSH2 0x98B JUMP JUMPDEST PUSH0 PUSH1 0x40 MLOAD DUP1 DUP4 SUB DUP2 DUP6 DUP8 GAS CALL SWAP3 POP POP POP RETURNDATASIZE DUP1 PUSH0 DUP2 EQ PUSH2 0x5C1 JUMPI PUSH1 0x40 MLOAD SWAP2 POP PUSH1 0x1F NOT PUSH1 0x3F RETURNDATASIZE ADD AND DUP3 ADD PUSH1 0x40 MSTORE RETURNDATASIZE DUP3 MSTORE RETURNDATASIZE PUSH0 PUSH1 0x20 DUP5 ADD RETURNDATACOPY PUSH2 0x5C6 JUMP JUMPDEST PUSH1 0x60 SWAP2 POP JUMPDEST POP POP DUP1 SWAP2 POP POP DUP1 PUSH2 0x60C JUMPI PUSH1 0x40 MLOAD PUSH32 0x8C379A000000000000000000000000000000000000000000000000000000000 DUP2 MSTORE PUSH1 0x4 ADD PUSH2 0x603 SWAP1 PUSH2 0x9E9 JUMP JUMPDEST PUSH1 0x40 MLOAD DUP1 SWAP2 SUB SWAP1 REVERT JUMPDEST POP JUMP JUMPDEST PUSH1 0x1 SLOAD PUSH2 0x61B CALLVALUE PUSH2 0x73C JUMP JUMPDEST LT ISZERO PUSH2 0x65C JUMPI PUSH1 0x40 MLOAD PUSH32 0x8C379A000000000000000000000000000000000000000000000000000000000 DUP2 MSTORE PUSH1 0x4 ADD PUSH2 0x653 SWAP1 PUSH2 0xB47 JUMP JUMPDEST PUSH1 0x40 MLOAD DUP1 SWAP2 SUB SWAP1 REVERT JUMPDEST CALLVALUE PUSH0 DUP1 CALLER PUSH20 0xFFFFFFFFFFFFFFFFFFFFFFFFFFFFFFFFFFFFFFFF AND PUSH20 0xFFFFFFFFFFFFFFFFFFFFFFFFFFFFFFFFFFFFFFFF AND DUP2 MSTORE PUSH1 0x20 ADD SWAP1 DUP2 MSTORE PUSH1 0x20 ADD PUSH0 KECCAK256 DUP2 SWAP1 SSTORE POP JUMP JUMPDEST PUSH0 DUP1 PUSH1 0x2 PUSH0 SWAP1 SLOAD SWAP1 PUSH2 0x100 EXP SWAP1 DIV PUSH20 0xFFFFFFFFFFFFFFFFFFFFFFFFFFFFFFFFFFFFFFFF AND PUSH20 0xFFFFFFFFFFFFFFFFFFFFFFFFFFFFFFFFFFFFFFFF AND PUSH4 0xFEAF968C PUSH1 0x40 MLOAD DUP2 PUSH4 0xFFFFFFFF AND PUSH1 0xE0 SHL DUP2 MSTORE PUSH1 0x4 ADD PUSH1 0xA0 PUSH1 0x40 MLOAD DUP1 DUP4 SUB DUP2 DUP7 GAS STATICCALL ISZERO DUP1 ISZERO PUSH2 0x70B JUMPI RETURNDATASIZE PUSH0 DUP1 RETURNDATACOPY RETURNDATASIZE PUSH0 REVERT JUMPDEST POP POP POP POP PUSH1 0x40 MLOAD RETURNDATASIZE PUSH1 0x1F NOT PUSH1 0x1F DUP3 ADD AND DUP3 ADD DUP1 PUSH1 0x40 MSTORE POP DUP2 ADD SWAP1 PUSH2 0x72F SWAP2 SWAP1 PUSH2 0xBF8 JUMP JUMPDEST POP POP POP SWAP2 POP POP DUP1 SWAP2 POP POP SWAP1 JUMP JUMPDEST PUSH0 DUP1 PUSH2 0x746 PUSH2 0x69F JUMP JUMPDEST SWAP1 POP PUSH4 0x5F5E100 DUP2 DUP5 PUSH2 0x759 SWAP2 SWAP1 PUSH2 0xC9C JUMP JUMPDEST PUSH2 0x763 SWAP2 SWAP1 PUSH2 0xD0A JUMP JUMPDEST SWAP2 POP POP SWAP2 SWAP1 POP JUMP JUMPDEST PUSH0 DUP1 REVERT JUMPDEST PUSH0 PUSH20 0xFFFFFFFFFFFFFFFFFFFFFFFFFFFFFFFFFFFFFFFF DUP3 AND SWAP1 POP SWAP2 SWAP1 POP JUMP JUMPDEST PUSH0 PUSH2 0x798 DUP3 PUSH2 0x76F JUMP JUMPDEST SWAP1 POP SWAP2 SWAP1 POP JUMP JUMPDEST PUSH2 0x7A8 DUP2 PUSH2 0x78E JUMP JUMPDEST DUP2 EQ PUSH2 0x7B2 JUMPI PUSH0 DUP1 REVERT JUMPDEST POP JUMP JUMPDEST PUSH0 DUP2 CALLDATALOAD SWAP1 POP PUSH2 0x7C3 DUP2 PUSH2 0x79F JUMP JUMPDEST SWAP3 SWAP2 POP POP JUMP JUMPDEST PUSH0 PUSH1 0x20 DUP3 DUP5 SUB SLT ISZERO PUSH2 0x7DE JUMPI PUSH2 0x7DD PUSH2 0x76B JUMP JUMPDEST JUMPDEST PUSH0 PUSH2 0x7EB DUP5 DUP3 DUP6 ADD PUSH2 0x7B5 JUMP JUMPDEST SWAP2 POP POP SWAP3 SWAP2 POP POP JUMP JUMPDEST PUSH0 DUP2 SWAP1 POP SWAP2 SWAP1 POP JUMP JUMPDEST PUSH2 0x806 DUP2 PUSH2 0x7F4 JUMP JUMPDEST DUP3 MSTORE POP POP JUMP JUMPDEST PUSH0 PUSH1 0x20 DUP3 ADD SWAP1 POP PUSH2 0x81F PUSH0 DUP4 ADD DUP5 PUSH2 0x7FD JUMP JUMPDEST SWAP3 SWAP2 POP POP JUMP JUMPDEST PUSH2 0x82E DUP2 PUSH2 0x78E JUMP JUMPDEST DUP3 MSTORE POP POP JUMP JUMPDEST PUSH0 PUSH1 0x20 DUP3 ADD SWAP1 POP PUSH2 0x847 PUSH0 DUP4 ADD DUP5 PUSH2 0x825 JUMP JUMPDEST SWAP3 SWAP2 POP POP JUMP JUMPDEST PUSH0 DUP2 SWAP1 POP SWAP2 SWAP1 POP JUMP JUMPDEST PUSH2 0x85F DUP2 PUSH2 0x84D JUMP JUMPDEST DUP3 MSTORE POP POP JUMP JUMPDEST PUSH0 PUSH1 0x20 DUP3 ADD SWAP1 POP PUSH2 0x878 PUSH0 DUP4 ADD DUP5 PUSH2 0x856 JUMP JUMPDEST SWAP3 SWAP2 POP POP JUMP JUMPDEST PUSH0 DUP3 DUP3 MSTORE PUSH1 0x20 DUP3 ADD SWAP1 POP SWAP3 SWAP2 POP POP JUMP JUMPDEST PUSH32 0x7461726765742069732072656163686564000000000000000000000000000000 PUSH0 DUP3 ADD MSTORE POP JUMP JUMPDEST PUSH0 PUSH2 0x8C2 PUSH1 0x11 DUP4 PUSH2 0x87E JUMP JUMPDEST SWAP2 POP PUSH2 0x8CD DUP3 PUSH2 0x88E JUMP JUMPDEST PUSH1 0x20 DUP3 ADD SWAP1 POP SWAP2 SWAP1 POP JUMP JUMPDEST PUSH0 PUSH1 0x20 DUP3 ADD SWAP1 POP DUP2 DUP2 SUB PUSH0 DUP4 ADD MSTORE PUSH2 0x8EF DUP2 PUSH2 0x8B6 JUMP JUMPDEST SWAP1 POP SWAP2 SWAP1 POP JUMP JUMPDEST PUSH32 0x7468657265206973206E6F742066756E6420666F7220796F7500000000000000 PUSH0 DUP3 ADD MSTORE POP JUMP JUMPDEST PUSH0 PUSH2 0x92A PUSH1 0x19 DUP4 PUSH2 0x87E JUMP JUMPDEST SWAP2 POP PUSH2 0x935 DUP3 PUSH2 0x8F6 JUMP JUMPDEST PUSH1 0x20 DUP3 ADD SWAP1 POP SWAP2 SWAP1 POP JUMP JUMPDEST PUSH0 PUSH1 0x20 DUP3 ADD SWAP1 POP DUP2 DUP2 SUB PUSH0 DUP4 ADD MSTORE PUSH2 0x957 DUP2 PUSH2 0x91E JUMP JUMPDEST SWAP1 POP SWAP2 SWAP1 POP JUMP JUMPDEST PUSH0 DUP2 SWAP1 POP SWAP3 SWAP2 POP POP JUMP JUMPDEST POP JUMP JUMPDEST PUSH0 PUSH2 0x976 PUSH0 DUP4 PUSH2 0x95E JUMP JUMPDEST SWAP2 POP PUSH2 0x981 DUP3 PUSH2 0x968 JUMP JUMPDEST PUSH0 DUP3 ADD SWAP1 POP SWAP2 SWAP1 POP JUMP JUMPDEST PUSH0 PUSH2 0x995 DUP3 PUSH2 0x96B JUMP JUMPDEST SWAP2 POP DUP2 SWAP1 POP SWAP2 SWAP1 POP JUMP JUMPDEST PUSH32 0x7472616E73666572207478206661696C65640000000000000000000000000000 PUSH0 DUP3 ADD MSTORE POP JUMP JUMPDEST PUSH0 PUSH2 0x9D3 PUSH1 0x12 DUP4 PUSH2 0x87E JUMP JUMPDEST SWAP2 POP PUSH2 0x9DE DUP3 PUSH2 0x99F JUMP JUMPDEST PUSH1 0x20 DUP3 ADD SWAP1 POP SWAP2 SWAP1 POP JUMP JUMPDEST PUSH0 PUSH1 0x20 DUP3 ADD SWAP1 POP DUP2 DUP2 SUB PUSH0 DUP4 ADD MSTORE PUSH2 0xA00 DUP2 PUSH2 0x9C7 JUMP JUMPDEST SWAP1 POP SWAP2 SWAP1 POP JUMP JUMPDEST PUSH32 0x746869732066756E6374696F6E2063616E206F6E6C792062652063616C6C6564 PUSH0 DUP3 ADD MSTORE PUSH32 0x206279206F776E65720000000000000000000000000000000000000000000000 PUSH1 0x20 DUP3 ADD MSTORE POP JUMP JUMPDEST PUSH0 PUSH2 0xA61 PUSH1 0x29 DUP4 PUSH2 0x87E JUMP JUMPDEST SWAP2 POP PUSH2 0xA6C DUP3 PUSH2 0xA07 JUMP JUMPDEST PUSH1 0x40 DUP3 ADD SWAP1 POP SWAP2 SWAP1 POP JUMP JUMPDEST PUSH0 PUSH1 0x20 DUP3 ADD SWAP1 POP DUP2 DUP2 SUB PUSH0 DUP4 ADD MSTORE PUSH2 0xA8E DUP2 PUSH2 0xA55 JUMP JUMPDEST SWAP1 POP SWAP2 SWAP1 POP JUMP JUMPDEST PUSH32 0x746172676574206973206E6F7420726561636865640000000000000000000000 PUSH0 DUP3 ADD MSTORE POP JUMP JUMPDEST PUSH0 PUSH2 0xAC9 PUSH1 0x15 DUP4 PUSH2 0x87E JUMP JUMPDEST SWAP2 POP PUSH2 0xAD4 DUP3 PUSH2 0xA95 JUMP JUMPDEST PUSH1 0x20 DUP3 ADD SWAP1 POP SWAP2 SWAP1 POP JUMP JUMPDEST PUSH0 PUSH1 0x20 DUP3 ADD SWAP1 POP DUP2 DUP2 SUB PUSH0 DUP4 ADD MSTORE PUSH2 0xAF6 DUP2 PUSH2 0xABD JUMP JUMPDEST SWAP1 POP SWAP2 SWAP1 POP JUMP JUMPDEST PUSH32 0x73656E64206D6F72652045544800000000000000000000000000000000000000 PUSH0 DUP3 ADD MSTORE POP JUMP JUMPDEST PUSH0 PUSH2 0xB31 PUSH1 0xD DUP4 PUSH2 0x87E JUMP JUMPDEST SWAP2 POP PUSH2 0xB3C DUP3 PUSH2 0xAFD JUMP JUMPDEST PUSH1 0x20 DUP3 ADD SWAP1 POP SWAP2 SWAP1 POP JUMP JUMPDEST PUSH0 PUSH1 0x20 DUP3 ADD SWAP1 POP DUP2 DUP2 SUB PUSH0 DUP4 ADD MSTORE PUSH2 0xB5E DUP2 PUSH2 0xB25 JUMP JUMPDEST SWAP1 POP SWAP2 SWAP1 POP JUMP JUMPDEST PUSH0 PUSH10 0xFFFFFFFFFFFFFFFFFFFF DUP3 AND SWAP1 POP SWAP2 SWAP1 POP JUMP JUMPDEST PUSH2 0xB83 DUP2 PUSH2 0xB65 JUMP JUMPDEST DUP2 EQ PUSH2 0xB8D JUMPI PUSH0 DUP1 REVERT JUMPDEST POP JUMP JUMPDEST PUSH0 DUP2 MLOAD SWAP1 POP PUSH2 0xB9E DUP2 PUSH2 0xB7A JUMP JUMPDEST SWAP3 SWAP2 POP POP JUMP JUMPDEST PUSH2 0xBAD DUP2 PUSH2 0x84D JUMP JUMPDEST DUP2 EQ PUSH2 0xBB7 JUMPI PUSH0 DUP1 REVERT JUMPDEST POP JUMP JUMPDEST PUSH0 DUP2 MLOAD SWAP1 POP PUSH2 0xBC8 DUP2 PUSH2 0xBA4 JUMP JUMPDEST SWAP3 SWAP2 POP POP JUMP JUMPDEST PUSH2 0xBD7 DUP2 PUSH2 0x7F4 JUMP JUMPDEST DUP2 EQ PUSH2 0xBE1 JUMPI PUSH0 DUP1 REVERT JUMPDEST POP JUMP JUMPDEST PUSH0 DUP2 MLOAD SWAP1 POP PUSH2 0xBF2 DUP2 PUSH2 0xBCE JUMP JUMPDEST SWAP3 SWAP2 POP POP JUMP JUMPDEST PUSH0 DUP1 PUSH0 DUP1 PUSH0 PUSH1 0xA0 DUP7 DUP9 SUB SLT ISZERO PUSH2 0xC11 JUMPI PUSH2 0xC10 PUSH2 0x76B JUMP JUMPDEST JUMPDEST PUSH0 PUSH2 0xC1E DUP9 DUP3 DUP10 ADD PUSH2 0xB90 JUMP JUMPDEST SWAP6 POP POP PUSH1 0x20 PUSH2 0xC2F DUP9 DUP3 DUP10 ADD PUSH2 0xBBA JUMP JUMPDEST SWAP5 POP POP PUSH1 0x40 PUSH2 0xC40 DUP9 DUP3 DUP10 ADD PUSH2 0xBE4 JUMP JUMPDEST SWAP4 POP POP PUSH1 0x60 PUSH2 0xC51 DUP9 DUP3 DUP10 ADD PUSH2 0xBE4 JUMP JUMPDEST SWAP3 POP POP PUSH1 0x80 PUSH2 0xC62 DUP9 DUP3 DUP10 ADD PUSH2 0xB90 JUMP JUMPDEST SWAP2 POP POP SWAP3 SWAP6 POP SWAP3 SWAP6 SWAP1 SWAP4 POP JUMP JUMPDEST PUSH32 0x4E487B7100000000000000000000000000000000000000000000000000000000 PUSH0 MSTORE PUSH1 0x11 PUSH1 0x4 MSTORE PUSH1 0x24 PUSH0 REVERT JUMPDEST PUSH0 PUSH2 0xCA6 DUP3 PUSH2 0x7F4 JUMP JUMPDEST SWAP2 POP PUSH2 0xCB1 DUP4 PUSH2 0x7F4 JUMP JUMPDEST SWAP3 POP DUP3 DUP3 MUL PUSH2 0xCBF DUP2 PUSH2 0x7F4 JUMP JUMPDEST SWAP2 POP DUP3 DUP3 DIV DUP5 EQ DUP4 ISZERO OR PUSH2 0xCD6 JUMPI PUSH2 0xCD5 PUSH2 0xC6F JUMP JUMPDEST JUMPDEST POP SWAP3 SWAP2 POP POP JUMP JUMPDEST PUSH32 0x4E487B7100000000000000000000000000000000000000000000000000000000 PUSH0 MSTORE PUSH1 0x12 PUSH1 0x4 MSTORE PUSH1 0x24 PUSH0 REVERT JUMPDEST PUSH0 PUSH2 0xD14 DUP3 PUSH2 0x7F4 JUMP JUMPDEST SWAP2 POP PUSH2 0xD1F DUP4 PUSH2 0x7F4 JUMP JUMPDEST SWAP3 POP DUP3 PUSH2 0xD2F JUMPI PUSH2 0xD2E PUSH2 0xCDD JUMP JUMPDEST JUMPDEST DUP3 DUP3 DIV SWAP1 POP SWAP3 SWAP2 POP POP JUMP INVALID LOG2 PUSH5 0x6970667358 0x22 SLT KECCAK256 0xAD PUSH6 0x4770DBBCB65D 0xC6 LOG2 LOG2 0xD 0xF 0x2A JUMPI 0xF7 0xDC PUSH23 0x81959B8C53D18C5EBB4F56EF106064736F6C634300081A STOP CALLER "
				},
				"gasEstimates": {
					"creation": {
						"codeDepositCost": "688000",
						"executionCost": "71356",
						"totalCost": "759356"
					},
					"external": {
						"fund()": "infinite",
						"funderToAmount(address)": "2824",
						"getChainlinkDataFeedLatestAnswer()": "infinite",
						"getFund()": "infinite",
						"owner()": "2508",
						"reFund()": "infinite",
						"transferOwnerShip(address)": "infinite"
					},
					"internal": {
						"convertEthToUsd(uint256)": "infinite"
					}
				},
				"methodIdentifiers": {
					"fund()": "b60d4288",
					"funderToAmount(address)": "4407e1e8",
					"getChainlinkDataFeedLatestAnswer()": "bea4dfb5",
					"getFund()": "8edd6eb6",
					"owner()": "8da5cb5b",
					"reFund()": "0ff0a4df",
					"transferOwnerShip(address)": "8863dd1a"
				}
			},
			"storageLayout": {
				"storage": [
					{
						"astId": 53,
						"contract": "contracts/FundMe.sol:FundMe",
						"label": "funderToAmount",
						"offset": 0,
						"slot": "0",
						"type": "t_mapping(t_address,t_uint256)"
					},
					{
						"astId": 60,
						"contract": "contracts/FundMe.sol:FundMe",
						"label": "MINMUM_VALUE",
						"offset": 0,
						"slot": "1",
						"type": "t_uint256"
					},
					{
						"astId": 63,
						"contract": "contracts/FundMe.sol:FundMe",
						"label": "dataFeed",
						"offset": 0,
						"slot": "2",
						"type": "t_contract(AggregatorV3Interface)45"
					},
					{
						"astId": 72,
						"contract": "contracts/FundMe.sol:FundMe",
						"label": "owner",
						"offset": 0,
						"slot": "3",
						"type": "t_address"
					}
				],
				"types": {
					"t_address": {
						"encoding": "inplace",
						"label": "address",
						"numberOfBytes": "20"
					},
					"t_contract(AggregatorV3Interface)45": {
						"encoding": "inplace",
						"label": "contract AggregatorV3Interface",
						"numberOfBytes": "20"
					},
					"t_mapping(t_address,t_uint256)": {
						"encoding": "mapping",
						"key": "t_address",
						"label": "mapping(address => uint256)",
						"numberOfBytes": "32",
						"value": "t_uint256"
					},
					"t_uint256": {
						"encoding": "inplace",
						"label": "uint256",
						"numberOfBytes": "32"
					}
				}
			},
			"userdoc": {
				"kind": "user",
				"methods": {
					"getChainlinkDataFeedLatestAnswer()": {
						"notice": "Returns the latest answer."
					}
				},
				"version": 1
			}
		}
	}
}