{
	"contracts/FundMe.sol": {
		"FundMe": {
			"abi": [
				{
					"inputs": [
						{
							"internalType": "uint256",
							"name": "_lockTime",
							"type": "uint256"
						}
					],
					"stateMutability": "nonpayable",
					"type": "constructor"
				},
				{
					"inputs": [],
					"name": "fund",
					"outputs": [],
					"stateMutability": "payable",
					"type": "function"
				},
				{
					"inputs": [
						{
							"internalType": "address",
							"name": "",
							"type": "address"
						}
					],
					"name": "funderToAmount",
					"outputs": [
						{
							"internalType": "uint256",
							"name": "",
							"type": "uint256"
						}
					],
					"stateMutability": "view",
					"type": "function"
				},
				{
					"inputs": [],
					"name": "getChainlinkDataFeedLatestAnswer",
					"outputs": [
						{
							"internalType": "int256",
							"name": "",
							"type": "int256"
						}
					],
					"stateMutability": "view",
					"type": "function"
				},
				{
					"inputs": [],
					"name": "getFund",
					"outputs": [],
					"stateMutability": "nonpayable",
					"type": "function"
				},
				{
					"inputs": [],
					"name": "owner",
					"outputs": [
						{
							"internalType": "address",
							"name": "",
							"type": "address"
						}
					],
					"stateMutability": "view",
					"type": "function"
				},
				{
					"inputs": [],
					"name": "reFund",
					"outputs": [],
					"stateMutability": "nonpayable",
					"type": "function"
				},
				{
					"inputs": [
						{
							"internalType": "address",
							"name": "newOwner",
							"type": "address"
						}
					],
					"name": "transferOwnerShip",
					"outputs": [],
					"stateMutability": "nonpayable",
					"type": "function"
				}
			],
			"devdoc": {
				"kind": "dev",
				"methods": {},
				"version": 1
			},
			"evm": {
				"assembly": "    /* \"contracts/FundMe.sol\":171:4228  contract FundMe {... */\n  mstore(0x40, 0x80)\n    /* \"contracts/FundMe.sol\":272:283  10 * 10**18 */\n  0x8ac7230489e80000\n    /* \"contracts/FundMe.sol\":249:283  uint256 MINMUM_VALUE = 10 * 10**18 */\n  0x01\n  sstore\n    /* \"contracts/FundMe.sol\":557:913  constructor(uint256 _lockTime) {... */\n  callvalue\n  dup1\n  iszero\n  tag_1\n  jumpi\n  0x00\n  dup1\n  revert\ntag_1:\n  pop\n  mload(0x40)\n  sub(codesize, bytecodeSize)\n  dup1\n  bytecodeSize\n  dup4\n  codecopy\n  dup2\n  dup2\n  add\n  0x40\n  mstore\n  dup2\n  add\n  swap1\n  tag_2\n  swap2\n  swap1\n  tag_3\n  jump\t// in\ntag_2:\n    /* \"contracts/FundMe.sol\":671:713  0x694AA1769357215DE4FAC081bf1f309aDC325306 */\n  0x694aa1769357215de4fac081bf1f309adc325306\n    /* \"contracts/FundMe.sol\":625:633  dataFeed */\n  0x02\n  0x00\n    /* \"contracts/FundMe.sol\":625:723  dataFeed = AggregatorV3Interface(... */\n  0x0100\n  exp\n  dup2\n  sload\n  dup2\n  0xffffffffffffffffffffffffffffffffffffffff\n  mul\n  not\n  and\n  swap1\n  dup4\n  0xffffffffffffffffffffffffffffffffffffffff\n  and\n  mul\n  or\n  swap1\n  sstore\n  pop\n    /* \"contracts/FundMe.sol\":741:751  msg.sender */\n  caller\n    /* \"contracts/FundMe.sol\":733:738  owner */\n  0x03\n  0x00\n    /* \"contracts/FundMe.sol\":733:751  owner = msg.sender */\n  0x0100\n  exp\n  dup2\n  sload\n  dup2\n  0xffffffffffffffffffffffffffffffffffffffff\n  mul\n  not\n  and\n  swap1\n  dup4\n  0xffffffffffffffffffffffffffffffffffffffff\n  and\n  mul\n  or\n  swap1\n  sstore\n  pop\n    /* \"contracts/FundMe.sol\":822:837  block.timestamp */\n  timestamp\n    /* \"contracts/FundMe.sol\":800:819  deploymentTimestamp */\n  0x04\n    /* \"contracts/FundMe.sol\":800:837  deploymentTimestamp = block.timestamp */\n  dup2\n  swap1\n  sstore\n  pop\n    /* \"contracts/FundMe.sol\":897:906  _lockTime */\n  dup1\n    /* \"contracts/FundMe.sol\":886:894  lockTime */\n  0x05\n    /* \"contracts/FundMe.sol\":886:906  lockTime = _lockTime */\n  dup2\n  swap1\n  sstore\n  pop\n    /* \"contracts/FundMe.sol\":557:913  constructor(uint256 _lockTime) {... */\n  pop\n    /* \"contracts/FundMe.sol\":171:4228  contract FundMe {... */\n  jump(tag_6)\n    /* \"#utility.yul\":88:205   */\ntag_8:\n    /* \"#utility.yul\":197:198   */\n  0x00\n    /* \"#utility.yul\":194:195   */\n  dup1\n    /* \"#utility.yul\":187:199   */\n  revert\n    /* \"#utility.yul\":334:411   */\ntag_10:\n    /* \"#utility.yul\":371:378   */\n  0x00\n    /* \"#utility.yul\":400:405   */\n  dup2\n    /* \"#utility.yul\":389:405   */\n  swap1\n  pop\n    /* \"#utility.yul\":334:411   */\n  swap2\n  swap1\n  pop\n  jump\t// out\n    /* \"#utility.yul\":417:539   */\ntag_11:\n    /* \"#utility.yul\":490:514   */\n  tag_19\n    /* \"#utility.yul\":508:513   */\n  dup2\n    /* \"#utility.yul\":490:514   */\n  tag_10\n  jump\t// in\ntag_19:\n    /* \"#utility.yul\":483:488   */\n  dup2\n    /* \"#utility.yul\":480:515   */\n  eq\n    /* \"#utility.yul\":470:533   */\n  tag_20\n  jumpi\n    /* \"#utility.yul\":529:530   */\n  0x00\n    /* \"#utility.yul\":526:527   */\n  dup1\n    /* \"#utility.yul\":519:531   */\n  revert\n    /* \"#utility.yul\":470:533   */\ntag_20:\n    /* \"#utility.yul\":417:539   */\n  pop\n  jump\t// out\n    /* \"#utility.yul\":545:688   */\ntag_12:\n    /* \"#utility.yul\":602:607   */\n  0x00\n    /* \"#utility.yul\":633:639   */\n  dup2\n    /* \"#utility.yul\":627:640   */\n  mload\n    /* \"#utility.yul\":618:640   */\n  swap1\n  pop\n    /* \"#utility.yul\":649:682   */\n  tag_22\n    /* \"#utility.yul\":676:681   */\n  dup2\n    /* \"#utility.yul\":649:682   */\n  tag_11\n  jump\t// in\ntag_22:\n    /* \"#utility.yul\":545:688   */\n  swap3\n  swap2\n  pop\n  pop\n  jump\t// out\n    /* \"#utility.yul\":694:1045   */\ntag_3:\n    /* \"#utility.yul\":764:770   */\n  0x00\n    /* \"#utility.yul\":813:815   */\n  0x20\n    /* \"#utility.yul\":801:810   */\n  dup3\n    /* \"#utility.yul\":792:799   */\n  dup5\n    /* \"#utility.yul\":788:811   */\n  sub\n    /* \"#utility.yul\":784:816   */\n  slt\n    /* \"#utility.yul\":781:900   */\n  iszero\n  tag_24\n  jumpi\n    /* \"#utility.yul\":819:898   */\n  tag_25\n  tag_8\n  jump\t// in\ntag_25:\n    /* \"#utility.yul\":781:900   */\ntag_24:\n    /* \"#utility.yul\":939:940   */\n  0x00\n    /* \"#utility.yul\":964:1028   */\n  tag_26\n    /* \"#utility.yul\":1020:1027   */\n  dup5\n    /* \"#utility.yul\":1011:1017   */\n  dup3\n    /* \"#utility.yul\":1000:1009   */\n  dup6\n    /* \"#utility.yul\":996:1018   */\n  add\n    /* \"#utility.yul\":964:1028   */\n  tag_12\n  jump\t// in\ntag_26:\n    /* \"#utility.yul\":954:1028   */\n  swap2\n  pop\n    /* \"#utility.yul\":910:1038   */\n  pop\n    /* \"#utility.yul\":694:1045   */\n  swap3\n  swap2\n  pop\n  pop\n  jump\t// out\n    /* \"contracts/FundMe.sol\":171:4228  contract FundMe {... */\ntag_6:\n  dataSize(sub_0)\n  dup1\n  dataOffset(sub_0)\n  0x00\n  codecopy\n  0x00\n  return\nstop\n\nsub_0: assembly {\n        /* \"contracts/FundMe.sol\":171:4228  contract FundMe {... */\n      mstore(0x40, 0x80)\n      jumpi(tag_1, lt(calldatasize, 0x04))\n      shr(0xe0, calldataload(0x00))\n      dup1\n      0x8da5cb5b\n      gt\n      tag_9\n      jumpi\n      dup1\n      0x8da5cb5b\n      eq\n      tag_5\n      jumpi\n      dup1\n      0x8edd6eb6\n      eq\n      tag_6\n      jumpi\n      dup1\n      0xb60d4288\n      eq\n      tag_7\n      jumpi\n      dup1\n      0xbea4dfb5\n      eq\n      tag_8\n      jumpi\n      jump(tag_1)\n    tag_9:\n      dup1\n      0x0ff0a4df\n      eq\n      tag_2\n      jumpi\n      dup1\n      0x4407e1e8\n      eq\n      tag_3\n      jumpi\n      dup1\n      0x8863dd1a\n      eq\n      tag_4\n      jumpi\n    tag_1:\n      0x00\n      dup1\n      revert\n        /* \"contracts/FundMe.sol\":3210:3763  function reFund() external windowClosed {... */\n    tag_2:\n      callvalue\n      dup1\n      iszero\n      tag_10\n      jumpi\n      0x00\n      dup1\n      revert\n    tag_10:\n      pop\n      tag_11\n      tag_12\n      jump\t// in\n    tag_11:\n      stop\n        /* \"contracts/FundMe.sol\":193:242  mapping(address => uint256) public funderToAmount */\n    tag_3:\n      callvalue\n      dup1\n      iszero\n      tag_13\n      jumpi\n      0x00\n      dup1\n      revert\n    tag_13:\n      pop\n      tag_14\n      0x04\n      dup1\n      calldatasize\n      sub\n      dup2\n      add\n      swap1\n      tag_15\n      swap2\n      swap1\n      tag_16\n      jump\t// in\n    tag_15:\n      tag_17\n      jump\t// in\n    tag_14:\n      mload(0x40)\n      tag_18\n      swap2\n      swap1\n      tag_19\n      jump\t// in\n    tag_18:\n      mload(0x40)\n      dup1\n      swap2\n      sub\n      swap1\n      return\n        /* \"contracts/FundMe.sol\":2183:2277  function transferOwnerShip(address newOwner) public onlyOwner{... */\n    tag_4:\n      callvalue\n      dup1\n      iszero\n      tag_20\n      jumpi\n      0x00\n      dup1\n      revert\n    tag_20:\n      pop\n      tag_21\n      0x04\n      dup1\n      calldatasize\n      sub\n      dup2\n      add\n      swap1\n      tag_22\n      swap2\n      swap1\n      tag_16\n      jump\t// in\n    tag_22:\n      tag_23\n      jump\t// in\n    tag_21:\n      stop\n        /* \"contracts/FundMe.sol\":409:429  address public owner */\n    tag_5:\n      callvalue\n      dup1\n      iszero\n      tag_24\n      jumpi\n      0x00\n      dup1\n      revert\n    tag_24:\n      pop\n      tag_25\n      tag_26\n      jump\t// in\n    tag_25:\n      mload(0x40)\n      tag_27\n      swap2\n      swap1\n      tag_28\n      jump\t// in\n    tag_27:\n      mload(0x40)\n      dup1\n      swap2\n      sub\n      swap1\n      return\n        /* \"contracts/FundMe.sol\":2344:3134  function getFund() external windowClosed onlyOwner{... */\n    tag_6:\n      callvalue\n      dup1\n      iszero\n      tag_29\n      jumpi\n      0x00\n      dup1\n      revert\n    tag_29:\n      pop\n      tag_30\n      tag_31\n      jump\t// in\n    tag_30:\n      stop\n        /* \"contracts/FundMe.sol\":965:1416  function fund() external payable {... */\n    tag_7:\n      tag_32\n      tag_33\n      jump\t// in\n    tag_32:\n      stop\n        /* \"contracts/FundMe.sol\":1472:1813  function getChainlinkDataFeedLatestAnswer() public view returns (int256) {... */\n    tag_8:\n      callvalue\n      dup1\n      iszero\n      tag_34\n      jumpi\n      0x00\n      dup1\n      revert\n    tag_34:\n      pop\n      tag_35\n      tag_36\n      jump\t// in\n    tag_35:\n      mload(0x40)\n      tag_37\n      swap2\n      swap1\n      tag_38\n      jump\t// in\n    tag_37:\n      mload(0x40)\n      dup1\n      swap2\n      sub\n      swap1\n      return\n        /* \"contracts/FundMe.sol\":3210:3763  function reFund() external windowClosed {... */\n    tag_12:\n        /* \"contracts/FundMe.sol\":3921:3929  lockTime */\n      sload(0x05)\n        /* \"contracts/FundMe.sol\":3899:3918  deploymentTimestamp */\n      sload(0x04)\n        /* \"contracts/FundMe.sol\":3899:3929  deploymentTimestamp + lockTime */\n      tag_40\n      swap2\n      swap1\n      tag_41\n      jump\t// in\n    tag_40:\n        /* \"contracts/FundMe.sol\":3880:3895  block.timestamp */\n      timestamp\n        /* \"contracts/FundMe.sol\":3880:3929  block.timestamp >= deploymentTimestamp + lockTime */\n      lt\n      iszero\n        /* \"contracts/FundMe.sol\":3859:3975  require(... */\n      tag_42\n      jumpi\n      mload(0x40)\n      0x08c379a000000000000000000000000000000000000000000000000000000000\n      dup2\n      mstore\n      0x04\n      add\n      tag_43\n      swap1\n      tag_44\n      jump\t// in\n    tag_43:\n      mload(0x40)\n      dup1\n      swap2\n      sub\n      swap1\n      revert\n    tag_42:\n        /* \"contracts/FundMe.sol\":390:402  100 * 10**18 */\n      0x056bc75e2d63100000\n        /* \"contracts/FundMe.sol\":3281:3319  convertEthToUsd(address(this).balance) */\n      tag_46\n        /* \"contracts/FundMe.sol\":3297:3318  address(this).balance */\n      selfbalance\n        /* \"contracts/FundMe.sol\":3281:3296  convertEthToUsd */\n      tag_47\n        /* \"contracts/FundMe.sol\":3281:3319  convertEthToUsd(address(this).balance) */\n      jump\t// in\n    tag_46:\n        /* \"contracts/FundMe.sol\":3281:3328  convertEthToUsd(address(this).balance) < TARGET */\n      lt\n        /* \"contracts/FundMe.sol\":3260:3371  require(... */\n      tag_48\n      jumpi\n      mload(0x40)\n      0x08c379a000000000000000000000000000000000000000000000000000000000\n      dup2\n      mstore\n      0x04\n      add\n      tag_49\n      swap1\n      tag_50\n      jump\t// in\n    tag_49:\n      mload(0x40)\n      dup1\n      swap2\n      sub\n      swap1\n      revert\n    tag_48:\n        /* \"contracts/FundMe.sol\":3382:3396  uint256 amount */\n      0x00\n        /* \"contracts/FundMe.sol\":3399:3413  funderToAmount */\n      dup1\n        /* \"contracts/FundMe.sol\":3399:3425  funderToAmount[msg.sender] */\n      0x00\n        /* \"contracts/FundMe.sol\":3414:3424  msg.sender */\n      caller\n        /* \"contracts/FundMe.sol\":3399:3425  funderToAmount[msg.sender] */\n      0xffffffffffffffffffffffffffffffffffffffff\n      and\n      0xffffffffffffffffffffffffffffffffffffffff\n      and\n      dup2\n      mstore\n      0x20\n      add\n      swap1\n      dup2\n      mstore\n      0x20\n      add\n      0x00\n      keccak256\n      sload\n        /* \"contracts/FundMe.sol\":3382:3425  uint256 amount = funderToAmount[msg.sender] */\n      swap1\n      pop\n        /* \"contracts/FundMe.sol\":3453:3454  0 */\n      0x00\n        /* \"contracts/FundMe.sol\":3443:3449  amount */\n      dup2\n        /* \"contracts/FundMe.sol\":3443:3454  amount != 0 */\n      sub\n        /* \"contracts/FundMe.sol\":3435:3484  require(amount != 0, \"there is not fund for you\") */\n      tag_51\n      jumpi\n      mload(0x40)\n      0x08c379a000000000000000000000000000000000000000000000000000000000\n      dup2\n      mstore\n      0x04\n      add\n      tag_52\n      swap1\n      tag_53\n      jump\t// in\n    tag_52:\n      mload(0x40)\n      dup1\n      swap2\n      sub\n      swap1\n      revert\n    tag_51:\n        /* \"contracts/FundMe.sol\":3494:3506  bool success */\n      0x00\n        /* \"contracts/FundMe.sol\":3538:3548  msg.sender */\n      caller\n        /* \"contracts/FundMe.sol\":3530:3554  payable(msg.sender).call */\n      0xffffffffffffffffffffffffffffffffffffffff\n      and\n        /* \"contracts/FundMe.sol\":3575:3589  funderToAmount */\n      0x00\n        /* \"contracts/FundMe.sol\":3575:3601  funderToAmount[msg.sender] */\n      dup1\n        /* \"contracts/FundMe.sol\":3590:3600  msg.sender */\n      caller\n        /* \"contracts/FundMe.sol\":3575:3601  funderToAmount[msg.sender] */\n      0xffffffffffffffffffffffffffffffffffffffff\n      and\n      0xffffffffffffffffffffffffffffffffffffffff\n      and\n      dup2\n      mstore\n      0x20\n      add\n      swap1\n      dup2\n      mstore\n      0x20\n      add\n      0x00\n      keccak256\n      sload\n        /* \"contracts/FundMe.sol\":3530:3615  payable(msg.sender).call{... */\n      mload(0x40)\n      tag_54\n      swap1\n      tag_55\n      jump\t// in\n    tag_54:\n      0x00\n      mload(0x40)\n      dup1\n      dup4\n      sub\n      dup2\n      dup6\n      dup8\n      gas\n      call\n      swap3\n      pop\n      pop\n      pop\n      returndatasize\n      dup1\n      0x00\n      dup2\n      eq\n      tag_58\n      jumpi\n      mload(0x40)\n      swap2\n      pop\n      and(add(returndatasize, 0x3f), not(0x1f))\n      dup3\n      add\n      0x40\n      mstore\n      returndatasize\n      dup3\n      mstore\n      returndatasize\n      0x00\n      0x20\n      dup5\n      add\n      returndatacopy\n      jump(tag_57)\n    tag_58:\n      0x60\n      swap2\n      pop\n    tag_57:\n      pop\n        /* \"contracts/FundMe.sol\":3516:3615  (success, ) = payable(msg.sender).call{... */\n      pop\n      dup1\n      swap2\n      pop\n      pop\n        /* \"contracts/FundMe.sol\":3633:3640  success */\n      dup1\n        /* \"contracts/FundMe.sol\":3625:3663  require(success, \"transfer tx failed\") */\n      tag_59\n      jumpi\n      mload(0x40)\n      0x08c379a000000000000000000000000000000000000000000000000000000000\n      dup2\n      mstore\n      0x04\n      add\n      tag_60\n      swap1\n      tag_61\n      jump\t// in\n    tag_60:\n      mload(0x40)\n      dup1\n      swap2\n      sub\n      swap1\n      revert\n    tag_59:\n        /* \"contracts/FundMe.sol\":3755:3756  0 */\n      0x00\n        /* \"contracts/FundMe.sol\":3726:3740  funderToAmount */\n      dup1\n        /* \"contracts/FundMe.sol\":3726:3752  funderToAmount[msg.sender] */\n      0x00\n        /* \"contracts/FundMe.sol\":3741:3751  msg.sender */\n      caller\n        /* \"contracts/FundMe.sol\":3726:3752  funderToAmount[msg.sender] */\n      0xffffffffffffffffffffffffffffffffffffffff\n      and\n      0xffffffffffffffffffffffffffffffffffffffff\n      and\n      dup2\n      mstore\n      0x20\n      add\n      swap1\n      dup2\n      mstore\n      0x20\n      add\n      0x00\n      keccak256\n        /* \"contracts/FundMe.sol\":3726:3756  funderToAmount[msg.sender] = 0 */\n      dup2\n      swap1\n      sstore\n      pop\n        /* \"contracts/FundMe.sol\":3250:3763  {... */\n      pop\n      pop\n        /* \"contracts/FundMe.sol\":3210:3763  function reFund() external windowClosed {... */\n      jump\t// out\n        /* \"contracts/FundMe.sol\":193:242  mapping(address => uint256) public funderToAmount */\n    tag_17:\n      mstore(0x20, 0x00)\n      dup1\n      0x00\n      mstore\n      keccak256(0x00, 0x40)\n      0x00\n      swap2\n      pop\n      swap1\n      pop\n      sload\n      dup2\n      jump\t// out\n        /* \"contracts/FundMe.sol\":2183:2277  function transferOwnerShip(address newOwner) public onlyOwner{... */\n    tag_23:\n        /* \"contracts/FundMe.sol\":4136:4141  owner */\n      0x03\n      0x00\n      swap1\n      sload\n      swap1\n      0x0100\n      exp\n      swap1\n      div\n      0xffffffffffffffffffffffffffffffffffffffff\n      and\n        /* \"contracts/FundMe.sol\":4122:4141  msg.sender == owner */\n      0xffffffffffffffffffffffffffffffffffffffff\n      and\n        /* \"contracts/FundMe.sol\":4122:4132  msg.sender */\n      caller\n        /* \"contracts/FundMe.sol\":4122:4141  msg.sender == owner */\n      0xffffffffffffffffffffffffffffffffffffffff\n      and\n      eq\n        /* \"contracts/FundMe.sol\":4101:4208  require(... */\n      tag_63\n      jumpi\n      mload(0x40)\n      0x08c379a000000000000000000000000000000000000000000000000000000000\n      dup2\n      mstore\n      0x04\n      add\n      tag_64\n      swap1\n      tag_65\n      jump\t// in\n    tag_64:\n      mload(0x40)\n      dup1\n      swap2\n      sub\n      swap1\n      revert\n    tag_63:\n        /* \"contracts/FundMe.sol\":2262:2270  newOwner */\n      dup1\n        /* \"contracts/FundMe.sol\":2254:2259  owner */\n      0x03\n      0x00\n        /* \"contracts/FundMe.sol\":2254:2270  owner = newOwner */\n      0x0100\n      exp\n      dup2\n      sload\n      dup2\n      0xffffffffffffffffffffffffffffffffffffffff\n      mul\n      not\n      and\n      swap1\n      dup4\n      0xffffffffffffffffffffffffffffffffffffffff\n      and\n      mul\n      or\n      swap1\n      sstore\n      pop\n        /* \"contracts/FundMe.sol\":2183:2277  function transferOwnerShip(address newOwner) public onlyOwner{... */\n      pop\n      jump\t// out\n        /* \"contracts/FundMe.sol\":409:429  address public owner */\n    tag_26:\n      0x03\n      0x00\n      swap1\n      sload\n      swap1\n      0x0100\n      exp\n      swap1\n      div\n      0xffffffffffffffffffffffffffffffffffffffff\n      and\n      dup2\n      jump\t// out\n        /* \"contracts/FundMe.sol\":2344:3134  function getFund() external windowClosed onlyOwner{... */\n    tag_31:\n        /* \"contracts/FundMe.sol\":3921:3929  lockTime */\n      sload(0x05)\n        /* \"contracts/FundMe.sol\":3899:3918  deploymentTimestamp */\n      sload(0x04)\n        /* \"contracts/FundMe.sol\":3899:3929  deploymentTimestamp + lockTime */\n      tag_68\n      swap2\n      swap1\n      tag_41\n      jump\t// in\n    tag_68:\n        /* \"contracts/FundMe.sol\":3880:3895  block.timestamp */\n      timestamp\n        /* \"contracts/FundMe.sol\":3880:3929  block.timestamp >= deploymentTimestamp + lockTime */\n      lt\n      iszero\n        /* \"contracts/FundMe.sol\":3859:3975  require(... */\n      tag_69\n      jumpi\n      mload(0x40)\n      0x08c379a000000000000000000000000000000000000000000000000000000000\n      dup2\n      mstore\n      0x04\n      add\n      tag_70\n      swap1\n      tag_44\n      jump\t// in\n    tag_70:\n      mload(0x40)\n      dup1\n      swap2\n      sub\n      swap1\n      revert\n    tag_69:\n        /* \"contracts/FundMe.sol\":4136:4141  owner */\n      0x03\n      0x00\n      swap1\n      sload\n      swap1\n      0x0100\n      exp\n      swap1\n      div\n      0xffffffffffffffffffffffffffffffffffffffff\n      and\n        /* \"contracts/FundMe.sol\":4122:4141  msg.sender == owner */\n      0xffffffffffffffffffffffffffffffffffffffff\n      and\n        /* \"contracts/FundMe.sol\":4122:4132  msg.sender */\n      caller\n        /* \"contracts/FundMe.sol\":4122:4141  msg.sender == owner */\n      0xffffffffffffffffffffffffffffffffffffffff\n      and\n      eq\n        /* \"contracts/FundMe.sol\":4101:4208  require(... */\n      tag_72\n      jumpi\n      mload(0x40)\n      0x08c379a000000000000000000000000000000000000000000000000000000000\n      dup2\n      mstore\n      0x04\n      add\n      tag_73\n      swap1\n      tag_65\n      jump\t// in\n    tag_73:\n      mload(0x40)\n      dup1\n      swap2\n      sub\n      swap1\n      revert\n    tag_72:\n        /* \"contracts/FundMe.sol\":390:402  100 * 10**18 */\n      0x056bc75e2d63100000\n        /* \"contracts/FundMe.sol\":2425:2463  convertEthToUsd(address(this).balance) */\n      tag_75\n        /* \"contracts/FundMe.sol\":2441:2462  address(this).balance */\n      selfbalance\n        /* \"contracts/FundMe.sol\":2425:2440  convertEthToUsd */\n      tag_47\n        /* \"contracts/FundMe.sol\":2425:2463  convertEthToUsd(address(this).balance) */\n      jump\t// in\n    tag_75:\n        /* \"contracts/FundMe.sol\":2425:2473  convertEthToUsd(address(this).balance) >= TARGET */\n      lt\n      iszero\n        /* \"contracts/FundMe.sol\":2404:2520  require(... */\n      tag_76\n      jumpi\n      mload(0x40)\n      0x08c379a000000000000000000000000000000000000000000000000000000000\n      dup2\n      mstore\n      0x04\n      add\n      tag_77\n      swap1\n      tag_78\n      jump\t// in\n    tag_77:\n      mload(0x40)\n      dup1\n      swap2\n      sub\n      swap1\n      revert\n    tag_76:\n        /* \"contracts/FundMe.sol\":2922:2934  bool success */\n      0x00\n        /* \"contracts/FundMe.sol\":2966:2976  msg.sender */\n      caller\n        /* \"contracts/FundMe.sol\":2958:2982  payable(msg.sender).call */\n      0xffffffffffffffffffffffffffffffffffffffff\n      and\n        /* \"contracts/FundMe.sol\":2990:3011  address(this).balance */\n      selfbalance\n        /* \"contracts/FundMe.sol\":2958:3038  payable(msg.sender).call{value: address(this).balance}(... */\n      mload(0x40)\n      tag_79\n      swap1\n      tag_55\n      jump\t// in\n    tag_79:\n      0x00\n      mload(0x40)\n      dup1\n      dup4\n      sub\n      dup2\n      dup6\n      dup8\n      gas\n      call\n      swap3\n      pop\n      pop\n      pop\n      returndatasize\n      dup1\n      0x00\n      dup2\n      eq\n      tag_82\n      jumpi\n      mload(0x40)\n      swap2\n      pop\n      and(add(returndatasize, 0x3f), not(0x1f))\n      dup3\n      add\n      0x40\n      mstore\n      returndatasize\n      dup3\n      mstore\n      returndatasize\n      0x00\n      0x20\n      dup5\n      add\n      returndatacopy\n      jump(tag_81)\n    tag_82:\n      0x60\n      swap2\n      pop\n    tag_81:\n      pop\n        /* \"contracts/FundMe.sol\":2944:3038  (success, ) = payable(msg.sender).call{value: address(this).balance}(... */\n      pop\n      dup1\n      swap2\n      pop\n      pop\n        /* \"contracts/FundMe.sol\":3056:3063  success */\n      dup1\n        /* \"contracts/FundMe.sol\":3048:3086  require(success, \"transfer tx failed\") */\n      tag_83\n      jumpi\n      mload(0x40)\n      0x08c379a000000000000000000000000000000000000000000000000000000000\n      dup2\n      mstore\n      0x04\n      add\n      tag_84\n      swap1\n      tag_61\n      jump\t// in\n    tag_84:\n      mload(0x40)\n      dup1\n      swap2\n      sub\n      swap1\n      revert\n    tag_83:\n        /* \"contracts/FundMe.sol\":3126:3127  0 */\n      0x00\n        /* \"contracts/FundMe.sol\":3097:3111  funderToAmount */\n      dup1\n        /* \"contracts/FundMe.sol\":3097:3123  funderToAmount[msg.sender] */\n      0x00\n        /* \"contracts/FundMe.sol\":3112:3122  msg.sender */\n      caller\n        /* \"contracts/FundMe.sol\":3097:3123  funderToAmount[msg.sender] */\n      0xffffffffffffffffffffffffffffffffffffffff\n      and\n      0xffffffffffffffffffffffffffffffffffffffff\n      and\n      dup2\n      mstore\n      0x20\n      add\n      swap1\n      dup2\n      mstore\n      0x20\n      add\n      0x00\n      keccak256\n        /* \"contracts/FundMe.sol\":3097:3127  funderToAmount[msg.sender] = 0 */\n      dup2\n      swap1\n      sstore\n      pop\n        /* \"contracts/FundMe.sol\":2394:3134  {... */\n      pop\n        /* \"contracts/FundMe.sol\":2344:3134  function getFund() external windowClosed onlyOwner{... */\n      jump\t// out\n        /* \"contracts/FundMe.sol\":965:1416  function fund() external payable {... */\n    tag_33:\n        /* \"contracts/FundMe.sol\":1149:1157  lockTime */\n      sload(0x05)\n        /* \"contracts/FundMe.sol\":1127:1146  deploymentTimestamp */\n      sload(0x04)\n        /* \"contracts/FundMe.sol\":1127:1157  deploymentTimestamp + lockTime */\n      tag_86\n      swap2\n      swap1\n      tag_41\n      jump\t// in\n    tag_86:\n        /* \"contracts/FundMe.sol\":1109:1124  block.timestamp */\n      timestamp\n        /* \"contracts/FundMe.sol\":1109:1157  block.timestamp < deploymentTimestamp + lockTime */\n      lt\n        /* \"contracts/FundMe.sol\":1088:1199  require(... */\n      tag_87\n      jumpi\n      mload(0x40)\n      0x08c379a000000000000000000000000000000000000000000000000000000000\n      dup2\n      mstore\n      0x04\n      add\n      tag_88\n      swap1\n      tag_89\n      jump\t// in\n    tag_88:\n      mload(0x40)\n      dup1\n      swap2\n      sub\n      swap1\n      revert\n    tag_87:\n        /* \"contracts/FundMe.sol\":1284:1296  MINMUM_VALUE */\n      sload(0x01)\n        /* \"contracts/FundMe.sol\":1254:1280  convertEthToUsd(msg.value) */\n      tag_90\n        /* \"contracts/FundMe.sol\":1270:1279  msg.value */\n      callvalue\n        /* \"contracts/FundMe.sol\":1254:1269  convertEthToUsd */\n      tag_47\n        /* \"contracts/FundMe.sol\":1254:1280  convertEthToUsd(msg.value) */\n      jump\t// in\n    tag_90:\n        /* \"contracts/FundMe.sol\":1254:1296  convertEthToUsd(msg.value) >= MINMUM_VALUE */\n      lt\n      iszero\n        /* \"contracts/FundMe.sol\":1246:1314  require(convertEthToUsd(msg.value) >= MINMUM_VALUE, \"send more ETH\") */\n      tag_91\n      jumpi\n      mload(0x40)\n      0x08c379a000000000000000000000000000000000000000000000000000000000\n      dup2\n      mstore\n      0x04\n      add\n      tag_92\n      swap1\n      tag_93\n      jump\t// in\n    tag_92:\n      mload(0x40)\n      dup1\n      swap2\n      sub\n      swap1\n      revert\n    tag_91:\n        /* \"contracts/FundMe.sol\":1400:1409  msg.value */\n      callvalue\n        /* \"contracts/FundMe.sol\":1371:1385  funderToAmount */\n      0x00\n        /* \"contracts/FundMe.sol\":1371:1397  funderToAmount[msg.sender] */\n      dup1\n        /* \"contracts/FundMe.sol\":1386:1396  msg.sender */\n      caller\n        /* \"contracts/FundMe.sol\":1371:1397  funderToAmount[msg.sender] */\n      0xffffffffffffffffffffffffffffffffffffffff\n      and\n      0xffffffffffffffffffffffffffffffffffffffff\n      and\n      dup2\n      mstore\n      0x20\n      add\n      swap1\n      dup2\n      mstore\n      0x20\n      add\n      0x00\n      keccak256\n        /* \"contracts/FundMe.sol\":1371:1409  funderToAmount[msg.sender] = msg.value */\n      dup2\n      swap1\n      sstore\n      pop\n        /* \"contracts/FundMe.sol\":965:1416  function fund() external payable {... */\n      jump\t// out\n        /* \"contracts/FundMe.sol\":1472:1813  function getChainlinkDataFeedLatestAnswer() public view returns (int256) {... */\n    tag_36:\n        /* \"contracts/FundMe.sol\":1537:1543  int256 */\n      0x00\n        /* \"contracts/FundMe.sol\":1630:1640  int answer */\n      dup1\n        /* \"contracts/FundMe.sol\":1757:1765  dataFeed */\n      0x02\n      0x00\n      swap1\n      sload\n      swap1\n      0x0100\n      exp\n      swap1\n      div\n      0xffffffffffffffffffffffffffffffffffffffff\n      and\n        /* \"contracts/FundMe.sol\":1757:1781  dataFeed.latestRoundData */\n      0xffffffffffffffffffffffffffffffffffffffff\n      and\n      0xfeaf968c\n        /* \"contracts/FundMe.sol\":1757:1783  dataFeed.latestRoundData() */\n      mload(0x40)\n      dup2\n      0xffffffff\n      and\n      0xe0\n      shl\n      dup2\n      mstore\n      0x04\n      add\n      0xa0\n      mload(0x40)\n      dup1\n      dup4\n      sub\n      dup2\n      dup7\n      gas\n      staticcall\n      iszero\n      dup1\n      iszero\n      tag_96\n      jumpi\n      returndatasize\n      0x00\n      dup1\n      returndatacopy\n      revert(0x00, returndatasize)\n    tag_96:\n      pop\n      pop\n      pop\n      pop\n      mload(0x40)\n      returndatasize\n      not(0x1f)\n      0x1f\n      dup3\n      add\n      and\n      dup3\n      add\n      dup1\n      0x40\n      mstore\n      pop\n      dup2\n      add\n      swap1\n      tag_97\n      swap2\n      swap1\n      tag_98\n      jump\t// in\n    tag_97:\n        /* \"contracts/FundMe.sol\":1582:1783  (... */\n      pop\n      pop\n      pop\n      swap2\n      pop\n      pop\n        /* \"contracts/FundMe.sol\":1800:1806  answer */\n      dup1\n        /* \"contracts/FundMe.sol\":1793:1806  return answer */\n      swap2\n      pop\n      pop\n        /* \"contracts/FundMe.sol\":1472:1813  function getChainlinkDataFeedLatestAnswer() public view returns (int256) {... */\n      swap1\n      jump\t// out\n        /* \"contracts/FundMe.sol\":1819:2177  function convertEthToUsd(uint256 ethAmount)... */\n    tag_47:\n        /* \"contracts/FundMe.sol\":1910:1917  uint256 */\n      0x00\n        /* \"contracts/FundMe.sol\":1985:2001  uint256 ethPrice */\n      dup1\n        /* \"contracts/FundMe.sol\":2012:2046  getChainlinkDataFeedLatestAnswer() */\n      tag_100\n        /* \"contracts/FundMe.sol\":2012:2044  getChainlinkDataFeedLatestAnswer */\n      tag_36\n        /* \"contracts/FundMe.sol\":2012:2046  getChainlinkDataFeedLatestAnswer() */\n      jump\t// in\n    tag_100:\n        /* \"contracts/FundMe.sol\":1985:2047  uint256 ethPrice = uint256(getChainlinkDataFeedLatestAnswer()) */\n      swap1\n      pop\n        /* \"contracts/FundMe.sol\":2164:2169  10**8 */\n      0x05f5e100\n        /* \"contracts/FundMe.sol\":2151:2159  ethPrice */\n      dup2\n        /* \"contracts/FundMe.sol\":2139:2148  ethAmount */\n      dup5\n        /* \"contracts/FundMe.sol\":2139:2159  ethAmount * ethPrice */\n      tag_101\n      swap2\n      swap1\n      tag_102\n      jump\t// in\n    tag_101:\n        /* \"contracts/FundMe.sol\":2138:2170  (ethAmount * ethPrice) / (10**8) */\n      tag_103\n      swap2\n      swap1\n      tag_104\n      jump\t// in\n    tag_103:\n        /* \"contracts/FundMe.sol\":2131:2170  return (ethAmount * ethPrice) / (10**8) */\n      swap2\n      pop\n      pop\n        /* \"contracts/FundMe.sol\":1819:2177  function convertEthToUsd(uint256 ethAmount)... */\n      swap2\n      swap1\n      pop\n      jump\t// out\n        /* \"#utility.yul\":88:205   */\n    tag_106:\n        /* \"#utility.yul\":197:198   */\n      0x00\n        /* \"#utility.yul\":194:195   */\n      dup1\n        /* \"#utility.yul\":187:199   */\n      revert\n        /* \"#utility.yul\":334:460   */\n    tag_108:\n        /* \"#utility.yul\":371:378   */\n      0x00\n        /* \"#utility.yul\":411:453   */\n      0xffffffffffffffffffffffffffffffffffffffff\n        /* \"#utility.yul\":404:409   */\n      dup3\n        /* \"#utility.yul\":400:454   */\n      and\n        /* \"#utility.yul\":389:454   */\n      swap1\n      pop\n        /* \"#utility.yul\":334:460   */\n      swap2\n      swap1\n      pop\n      jump\t// out\n        /* \"#utility.yul\":466:562   */\n    tag_109:\n        /* \"#utility.yul\":503:510   */\n      0x00\n        /* \"#utility.yul\":532:556   */\n      tag_152\n        /* \"#utility.yul\":550:555   */\n      dup3\n        /* \"#utility.yul\":532:556   */\n      tag_108\n      jump\t// in\n    tag_152:\n        /* \"#utility.yul\":521:556   */\n      swap1\n      pop\n        /* \"#utility.yul\":466:562   */\n      swap2\n      swap1\n      pop\n      jump\t// out\n        /* \"#utility.yul\":568:690   */\n    tag_110:\n        /* \"#utility.yul\":641:665   */\n      tag_154\n        /* \"#utility.yul\":659:664   */\n      dup2\n        /* \"#utility.yul\":641:665   */\n      tag_109\n      jump\t// in\n    tag_154:\n        /* \"#utility.yul\":634:639   */\n      dup2\n        /* \"#utility.yul\":631:666   */\n      eq\n        /* \"#utility.yul\":621:684   */\n      tag_155\n      jumpi\n        /* \"#utility.yul\":680:681   */\n      0x00\n        /* \"#utility.yul\":677:678   */\n      dup1\n        /* \"#utility.yul\":670:682   */\n      revert\n        /* \"#utility.yul\":621:684   */\n    tag_155:\n        /* \"#utility.yul\":568:690   */\n      pop\n      jump\t// out\n        /* \"#utility.yul\":696:835   */\n    tag_111:\n        /* \"#utility.yul\":742:747   */\n      0x00\n        /* \"#utility.yul\":780:786   */\n      dup2\n        /* \"#utility.yul\":767:787   */\n      calldataload\n        /* \"#utility.yul\":758:787   */\n      swap1\n      pop\n        /* \"#utility.yul\":796:829   */\n      tag_157\n        /* \"#utility.yul\":823:828   */\n      dup2\n        /* \"#utility.yul\":796:829   */\n      tag_110\n      jump\t// in\n    tag_157:\n        /* \"#utility.yul\":696:835   */\n      swap3\n      swap2\n      pop\n      pop\n      jump\t// out\n        /* \"#utility.yul\":841:1170   */\n    tag_16:\n        /* \"#utility.yul\":900:906   */\n      0x00\n        /* \"#utility.yul\":949:951   */\n      0x20\n        /* \"#utility.yul\":937:946   */\n      dup3\n        /* \"#utility.yul\":928:935   */\n      dup5\n        /* \"#utility.yul\":924:947   */\n      sub\n        /* \"#utility.yul\":920:952   */\n      slt\n        /* \"#utility.yul\":917:1036   */\n      iszero\n      tag_159\n      jumpi\n        /* \"#utility.yul\":955:1034   */\n      tag_160\n      tag_106\n      jump\t// in\n    tag_160:\n        /* \"#utility.yul\":917:1036   */\n    tag_159:\n        /* \"#utility.yul\":1075:1076   */\n      0x00\n        /* \"#utility.yul\":1100:1153   */\n      tag_161\n        /* \"#utility.yul\":1145:1152   */\n      dup5\n        /* \"#utility.yul\":1136:1142   */\n      dup3\n        /* \"#utility.yul\":1125:1134   */\n      dup6\n        /* \"#utility.yul\":1121:1143   */\n      add\n        /* \"#utility.yul\":1100:1153   */\n      tag_111\n      jump\t// in\n    tag_161:\n        /* \"#utility.yul\":1090:1153   */\n      swap2\n      pop\n        /* \"#utility.yul\":1046:1163   */\n      pop\n        /* \"#utility.yul\":841:1170   */\n      swap3\n      swap2\n      pop\n      pop\n      jump\t// out\n        /* \"#utility.yul\":1176:1253   */\n    tag_112:\n        /* \"#utility.yul\":1213:1220   */\n      0x00\n        /* \"#utility.yul\":1242:1247   */\n      dup2\n        /* \"#utility.yul\":1231:1247   */\n      swap1\n      pop\n        /* \"#utility.yul\":1176:1253   */\n      swap2\n      swap1\n      pop\n      jump\t// out\n        /* \"#utility.yul\":1259:1377   */\n    tag_113:\n        /* \"#utility.yul\":1346:1370   */\n      tag_164\n        /* \"#utility.yul\":1364:1369   */\n      dup2\n        /* \"#utility.yul\":1346:1370   */\n      tag_112\n      jump\t// in\n    tag_164:\n        /* \"#utility.yul\":1341:1344   */\n      dup3\n        /* \"#utility.yul\":1334:1371   */\n      mstore\n        /* \"#utility.yul\":1259:1377   */\n      pop\n      pop\n      jump\t// out\n        /* \"#utility.yul\":1383:1605   */\n    tag_19:\n        /* \"#utility.yul\":1476:1480   */\n      0x00\n        /* \"#utility.yul\":1514:1516   */\n      0x20\n        /* \"#utility.yul\":1503:1512   */\n      dup3\n        /* \"#utility.yul\":1499:1517   */\n      add\n        /* \"#utility.yul\":1491:1517   */\n      swap1\n      pop\n        /* \"#utility.yul\":1527:1598   */\n      tag_166\n        /* \"#utility.yul\":1595:1596   */\n      0x00\n        /* \"#utility.yul\":1584:1593   */\n      dup4\n        /* \"#utility.yul\":1580:1597   */\n      add\n        /* \"#utility.yul\":1571:1577   */\n      dup5\n        /* \"#utility.yul\":1527:1598   */\n      tag_113\n      jump\t// in\n    tag_166:\n        /* \"#utility.yul\":1383:1605   */\n      swap3\n      swap2\n      pop\n      pop\n      jump\t// out\n        /* \"#utility.yul\":1611:1729   */\n    tag_114:\n        /* \"#utility.yul\":1698:1722   */\n      tag_168\n        /* \"#utility.yul\":1716:1721   */\n      dup2\n        /* \"#utility.yul\":1698:1722   */\n      tag_109\n      jump\t// in\n    tag_168:\n        /* \"#utility.yul\":1693:1696   */\n      dup3\n        /* \"#utility.yul\":1686:1723   */\n      mstore\n        /* \"#utility.yul\":1611:1729   */\n      pop\n      pop\n      jump\t// out\n        /* \"#utility.yul\":1735:1957   */\n    tag_28:\n        /* \"#utility.yul\":1828:1832   */\n      0x00\n        /* \"#utility.yul\":1866:1868   */\n      0x20\n        /* \"#utility.yul\":1855:1864   */\n      dup3\n        /* \"#utility.yul\":1851:1869   */\n      add\n        /* \"#utility.yul\":1843:1869   */\n      swap1\n      pop\n        /* \"#utility.yul\":1879:1950   */\n      tag_170\n        /* \"#utility.yul\":1947:1948   */\n      0x00\n        /* \"#utility.yul\":1936:1945   */\n      dup4\n        /* \"#utility.yul\":1932:1949   */\n      add\n        /* \"#utility.yul\":1923:1929   */\n      dup5\n        /* \"#utility.yul\":1879:1950   */\n      tag_114\n      jump\t// in\n    tag_170:\n        /* \"#utility.yul\":1735:1957   */\n      swap3\n      swap2\n      pop\n      pop\n      jump\t// out\n        /* \"#utility.yul\":1963:2039   */\n    tag_115:\n        /* \"#utility.yul\":1999:2006   */\n      0x00\n        /* \"#utility.yul\":2028:2033   */\n      dup2\n        /* \"#utility.yul\":2017:2033   */\n      swap1\n      pop\n        /* \"#utility.yul\":1963:2039   */\n      swap2\n      swap1\n      pop\n      jump\t// out\n        /* \"#utility.yul\":2045:2160   */\n    tag_116:\n        /* \"#utility.yul\":2130:2153   */\n      tag_173\n        /* \"#utility.yul\":2147:2152   */\n      dup2\n        /* \"#utility.yul\":2130:2153   */\n      tag_115\n      jump\t// in\n    tag_173:\n        /* \"#utility.yul\":2125:2128   */\n      dup3\n        /* \"#utility.yul\":2118:2154   */\n      mstore\n        /* \"#utility.yul\":2045:2160   */\n      pop\n      pop\n      jump\t// out\n        /* \"#utility.yul\":2166:2384   */\n    tag_38:\n        /* \"#utility.yul\":2257:2261   */\n      0x00\n        /* \"#utility.yul\":2295:2297   */\n      0x20\n        /* \"#utility.yul\":2284:2293   */\n      dup3\n        /* \"#utility.yul\":2280:2298   */\n      add\n        /* \"#utility.yul\":2272:2298   */\n      swap1\n      pop\n        /* \"#utility.yul\":2308:2377   */\n      tag_175\n        /* \"#utility.yul\":2374:2375   */\n      0x00\n        /* \"#utility.yul\":2363:2372   */\n      dup4\n        /* \"#utility.yul\":2359:2376   */\n      add\n        /* \"#utility.yul\":2350:2356   */\n      dup5\n        /* \"#utility.yul\":2308:2377   */\n      tag_116\n      jump\t// in\n    tag_175:\n        /* \"#utility.yul\":2166:2384   */\n      swap3\n      swap2\n      pop\n      pop\n      jump\t// out\n        /* \"#utility.yul\":2390:2570   */\n    tag_117:\n        /* \"#utility.yul\":2438:2515   */\n      0x4e487b7100000000000000000000000000000000000000000000000000000000\n        /* \"#utility.yul\":2435:2436   */\n      0x00\n        /* \"#utility.yul\":2428:2516   */\n      mstore\n        /* \"#utility.yul\":2535:2539   */\n      0x11\n        /* \"#utility.yul\":2532:2533   */\n      0x04\n        /* \"#utility.yul\":2525:2540   */\n      mstore\n        /* \"#utility.yul\":2559:2563   */\n      0x24\n        /* \"#utility.yul\":2556:2557   */\n      0x00\n        /* \"#utility.yul\":2549:2564   */\n      revert\n        /* \"#utility.yul\":2576:2767   */\n    tag_41:\n        /* \"#utility.yul\":2616:2619   */\n      0x00\n        /* \"#utility.yul\":2635:2655   */\n      tag_178\n        /* \"#utility.yul\":2653:2654   */\n      dup3\n        /* \"#utility.yul\":2635:2655   */\n      tag_112\n      jump\t// in\n    tag_178:\n        /* \"#utility.yul\":2630:2655   */\n      swap2\n      pop\n        /* \"#utility.yul\":2669:2689   */\n      tag_179\n        /* \"#utility.yul\":2687:2688   */\n      dup4\n        /* \"#utility.yul\":2669:2689   */\n      tag_112\n      jump\t// in\n    tag_179:\n        /* \"#utility.yul\":2664:2689   */\n      swap3\n      pop\n        /* \"#utility.yul\":2712:2713   */\n      dup3\n        /* \"#utility.yul\":2709:2710   */\n      dup3\n        /* \"#utility.yul\":2705:2714   */\n      add\n        /* \"#utility.yul\":2698:2714   */\n      swap1\n      pop\n        /* \"#utility.yul\":2733:2736   */\n      dup1\n        /* \"#utility.yul\":2730:2731   */\n      dup3\n        /* \"#utility.yul\":2727:2737   */\n      gt\n        /* \"#utility.yul\":2724:2760   */\n      iszero\n      tag_180\n      jumpi\n        /* \"#utility.yul\":2740:2758   */\n      tag_181\n      tag_117\n      jump\t// in\n    tag_181:\n        /* \"#utility.yul\":2724:2760   */\n    tag_180:\n        /* \"#utility.yul\":2576:2767   */\n      swap3\n      swap2\n      pop\n      pop\n      jump\t// out\n        /* \"#utility.yul\":2773:2942   */\n    tag_118:\n        /* \"#utility.yul\":2857:2868   */\n      0x00\n        /* \"#utility.yul\":2891:2897   */\n      dup3\n        /* \"#utility.yul\":2886:2889   */\n      dup3\n        /* \"#utility.yul\":2879:2898   */\n      mstore\n        /* \"#utility.yul\":2931:2935   */\n      0x20\n        /* \"#utility.yul\":2926:2929   */\n      dup3\n        /* \"#utility.yul\":2922:2936   */\n      add\n        /* \"#utility.yul\":2907:2936   */\n      swap1\n      pop\n        /* \"#utility.yul\":2773:2942   */\n      swap3\n      swap2\n      pop\n      pop\n      jump\t// out\n        /* \"#utility.yul\":2948:3118   */\n    tag_119:\n        /* \"#utility.yul\":3088:3110   */\n      0x77696e646f77206973206e6f7420636c6f736564000000000000000000000000\n        /* \"#utility.yul\":3084:3085   */\n      0x00\n        /* \"#utility.yul\":3076:3082   */\n      dup3\n        /* \"#utility.yul\":3072:3086   */\n      add\n        /* \"#utility.yul\":3065:3111   */\n      mstore\n        /* \"#utility.yul\":2948:3118   */\n      pop\n      jump\t// out\n        /* \"#utility.yul\":3124:3490   */\n    tag_120:\n        /* \"#utility.yul\":3266:3269   */\n      0x00\n        /* \"#utility.yul\":3287:3354   */\n      tag_185\n        /* \"#utility.yul\":3351:3353   */\n      0x14\n        /* \"#utility.yul\":3346:3349   */\n      dup4\n        /* \"#utility.yul\":3287:3354   */\n      tag_118\n      jump\t// in\n    tag_185:\n        /* \"#utility.yul\":3280:3354   */\n      swap2\n      pop\n        /* \"#utility.yul\":3363:3456   */\n      tag_186\n        /* \"#utility.yul\":3452:3455   */\n      dup3\n        /* \"#utility.yul\":3363:3456   */\n      tag_119\n      jump\t// in\n    tag_186:\n        /* \"#utility.yul\":3481:3483   */\n      0x20\n        /* \"#utility.yul\":3476:3479   */\n      dup3\n        /* \"#utility.yul\":3472:3484   */\n      add\n        /* \"#utility.yul\":3465:3484   */\n      swap1\n      pop\n        /* \"#utility.yul\":3124:3490   */\n      swap2\n      swap1\n      pop\n      jump\t// out\n        /* \"#utility.yul\":3496:3915   */\n    tag_44:\n        /* \"#utility.yul\":3662:3666   */\n      0x00\n        /* \"#utility.yul\":3700:3702   */\n      0x20\n        /* \"#utility.yul\":3689:3698   */\n      dup3\n        /* \"#utility.yul\":3685:3703   */\n      add\n        /* \"#utility.yul\":3677:3703   */\n      swap1\n      pop\n        /* \"#utility.yul\":3749:3758   */\n      dup2\n        /* \"#utility.yul\":3743:3747   */\n      dup2\n        /* \"#utility.yul\":3739:3759   */\n      sub\n        /* \"#utility.yul\":3735:3736   */\n      0x00\n        /* \"#utility.yul\":3724:3733   */\n      dup4\n        /* \"#utility.yul\":3720:3737   */\n      add\n        /* \"#utility.yul\":3713:3760   */\n      mstore\n        /* \"#utility.yul\":3777:3908   */\n      tag_188\n        /* \"#utility.yul\":3903:3907   */\n      dup2\n        /* \"#utility.yul\":3777:3908   */\n      tag_120\n      jump\t// in\n    tag_188:\n        /* \"#utility.yul\":3769:3908   */\n      swap1\n      pop\n        /* \"#utility.yul\":3496:3915   */\n      swap2\n      swap1\n      pop\n      jump\t// out\n        /* \"#utility.yul\":3921:4088   */\n    tag_121:\n        /* \"#utility.yul\":4061:4080   */\n      0x7461726765742069732072656163686564000000000000000000000000000000\n        /* \"#utility.yul\":4057:4058   */\n      0x00\n        /* \"#utility.yul\":4049:4055   */\n      dup3\n        /* \"#utility.yul\":4045:4059   */\n      add\n        /* \"#utility.yul\":4038:4081   */\n      mstore\n        /* \"#utility.yul\":3921:4088   */\n      pop\n      jump\t// out\n        /* \"#utility.yul\":4094:4460   */\n    tag_122:\n        /* \"#utility.yul\":4236:4239   */\n      0x00\n        /* \"#utility.yul\":4257:4324   */\n      tag_191\n        /* \"#utility.yul\":4321:4323   */\n      0x11\n        /* \"#utility.yul\":4316:4319   */\n      dup4\n        /* \"#utility.yul\":4257:4324   */\n      tag_118\n      jump\t// in\n    tag_191:\n        /* \"#utility.yul\":4250:4324   */\n      swap2\n      pop\n        /* \"#utility.yul\":4333:4426   */\n      tag_192\n        /* \"#utility.yul\":4422:4425   */\n      dup3\n        /* \"#utility.yul\":4333:4426   */\n      tag_121\n      jump\t// in\n    tag_192:\n        /* \"#utility.yul\":4451:4453   */\n      0x20\n        /* \"#utility.yul\":4446:4449   */\n      dup3\n        /* \"#utility.yul\":4442:4454   */\n      add\n        /* \"#utility.yul\":4435:4454   */\n      swap1\n      pop\n        /* \"#utility.yul\":4094:4460   */\n      swap2\n      swap1\n      pop\n      jump\t// out\n        /* \"#utility.yul\":4466:4885   */\n    tag_50:\n        /* \"#utility.yul\":4632:4636   */\n      0x00\n        /* \"#utility.yul\":4670:4672   */\n      0x20\n        /* \"#utility.yul\":4659:4668   */\n      dup3\n        /* \"#utility.yul\":4655:4673   */\n      add\n        /* \"#utility.yul\":4647:4673   */\n      swap1\n      pop\n        /* \"#utility.yul\":4719:4728   */\n      dup2\n        /* \"#utility.yul\":4713:4717   */\n      dup2\n        /* \"#utility.yul\":4709:4729   */\n      sub\n        /* \"#utility.yul\":4705:4706   */\n      0x00\n        /* \"#utility.yul\":4694:4703   */\n      dup4\n        /* \"#utility.yul\":4690:4707   */\n      add\n        /* \"#utility.yul\":4683:4730   */\n      mstore\n        /* \"#utility.yul\":4747:4878   */\n      tag_194\n        /* \"#utility.yul\":4873:4877   */\n      dup2\n        /* \"#utility.yul\":4747:4878   */\n      tag_122\n      jump\t// in\n    tag_194:\n        /* \"#utility.yul\":4739:4878   */\n      swap1\n      pop\n        /* \"#utility.yul\":4466:4885   */\n      swap2\n      swap1\n      pop\n      jump\t// out\n        /* \"#utility.yul\":4891:5066   */\n    tag_123:\n        /* \"#utility.yul\":5031:5058   */\n      0x7468657265206973206e6f742066756e6420666f7220796f7500000000000000\n        /* \"#utility.yul\":5027:5028   */\n      0x00\n        /* \"#utility.yul\":5019:5025   */\n      dup3\n        /* \"#utility.yul\":5015:5029   */\n      add\n        /* \"#utility.yul\":5008:5059   */\n      mstore\n        /* \"#utility.yul\":4891:5066   */\n      pop\n      jump\t// out\n        /* \"#utility.yul\":5072:5438   */\n    tag_124:\n        /* \"#utility.yul\":5214:5217   */\n      0x00\n        /* \"#utility.yul\":5235:5302   */\n      tag_197\n        /* \"#utility.yul\":5299:5301   */\n      0x19\n        /* \"#utility.yul\":5294:5297   */\n      dup4\n        /* \"#utility.yul\":5235:5302   */\n      tag_118\n      jump\t// in\n    tag_197:\n        /* \"#utility.yul\":5228:5302   */\n      swap2\n      pop\n        /* \"#utility.yul\":5311:5404   */\n      tag_198\n        /* \"#utility.yul\":5400:5403   */\n      dup3\n        /* \"#utility.yul\":5311:5404   */\n      tag_123\n      jump\t// in\n    tag_198:\n        /* \"#utility.yul\":5429:5431   */\n      0x20\n        /* \"#utility.yul\":5424:5427   */\n      dup3\n        /* \"#utility.yul\":5420:5432   */\n      add\n        /* \"#utility.yul\":5413:5432   */\n      swap1\n      pop\n        /* \"#utility.yul\":5072:5438   */\n      swap2\n      swap1\n      pop\n      jump\t// out\n        /* \"#utility.yul\":5444:5863   */\n    tag_53:\n        /* \"#utility.yul\":5610:5614   */\n      0x00\n        /* \"#utility.yul\":5648:5650   */\n      0x20\n        /* \"#utility.yul\":5637:5646   */\n      dup3\n        /* \"#utility.yul\":5633:5651   */\n      add\n        /* \"#utility.yul\":5625:5651   */\n      swap1\n      pop\n        /* \"#utility.yul\":5697:5706   */\n      dup2\n        /* \"#utility.yul\":5691:5695   */\n      dup2\n        /* \"#utility.yul\":5687:5707   */\n      sub\n        /* \"#utility.yul\":5683:5684   */\n      0x00\n        /* \"#utility.yul\":5672:5681   */\n      dup4\n        /* \"#utility.yul\":5668:5685   */\n      add\n        /* \"#utility.yul\":5661:5708   */\n      mstore\n        /* \"#utility.yul\":5725:5856   */\n      tag_200\n        /* \"#utility.yul\":5851:5855   */\n      dup2\n        /* \"#utility.yul\":5725:5856   */\n      tag_124\n      jump\t// in\n    tag_200:\n        /* \"#utility.yul\":5717:5856   */\n      swap1\n      pop\n        /* \"#utility.yul\":5444:5863   */\n      swap2\n      swap1\n      pop\n      jump\t// out\n        /* \"#utility.yul\":5869:6016   */\n    tag_125:\n        /* \"#utility.yul\":5970:5981   */\n      0x00\n        /* \"#utility.yul\":6007:6010   */\n      dup2\n        /* \"#utility.yul\":5992:6010   */\n      swap1\n      pop\n        /* \"#utility.yul\":5869:6016   */\n      swap3\n      swap2\n      pop\n      pop\n      jump\t// out\n        /* \"#utility.yul\":6022:6136   */\n    tag_126:\n      pop\n      jump\t// out\n        /* \"#utility.yul\":6142:6540   */\n    tag_127:\n        /* \"#utility.yul\":6301:6304   */\n      0x00\n        /* \"#utility.yul\":6322:6405   */\n      tag_204\n        /* \"#utility.yul\":6403:6404   */\n      0x00\n        /* \"#utility.yul\":6398:6401   */\n      dup4\n        /* \"#utility.yul\":6322:6405   */\n      tag_125\n      jump\t// in\n    tag_204:\n        /* \"#utility.yul\":6315:6405   */\n      swap2\n      pop\n        /* \"#utility.yul\":6414:6507   */\n      tag_205\n        /* \"#utility.yul\":6503:6506   */\n      dup3\n        /* \"#utility.yul\":6414:6507   */\n      tag_126\n      jump\t// in\n    tag_205:\n        /* \"#utility.yul\":6532:6533   */\n      0x00\n        /* \"#utility.yul\":6527:6530   */\n      dup3\n        /* \"#utility.yul\":6523:6534   */\n      add\n        /* \"#utility.yul\":6516:6534   */\n      swap1\n      pop\n        /* \"#utility.yul\":6142:6540   */\n      swap2\n      swap1\n      pop\n      jump\t// out\n        /* \"#utility.yul\":6546:6925   */\n    tag_55:\n        /* \"#utility.yul\":6730:6733   */\n      0x00\n        /* \"#utility.yul\":6752:6899   */\n      tag_207\n        /* \"#utility.yul\":6895:6898   */\n      dup3\n        /* \"#utility.yul\":6752:6899   */\n      tag_127\n      jump\t// in\n    tag_207:\n        /* \"#utility.yul\":6745:6899   */\n      swap2\n      pop\n        /* \"#utility.yul\":6916:6919   */\n      dup2\n        /* \"#utility.yul\":6909:6919   */\n      swap1\n      pop\n        /* \"#utility.yul\":6546:6925   */\n      swap2\n      swap1\n      pop\n      jump\t// out\n        /* \"#utility.yul\":6931:7099   */\n    tag_128:\n        /* \"#utility.yul\":7071:7091   */\n      0x7472616e73666572207478206661696c65640000000000000000000000000000\n        /* \"#utility.yul\":7067:7068   */\n      0x00\n        /* \"#utility.yul\":7059:7065   */\n      dup3\n        /* \"#utility.yul\":7055:7069   */\n      add\n        /* \"#utility.yul\":7048:7092   */\n      mstore\n        /* \"#utility.yul\":6931:7099   */\n      pop\n      jump\t// out\n        /* \"#utility.yul\":7105:7471   */\n    tag_129:\n        /* \"#utility.yul\":7247:7250   */\n      0x00\n        /* \"#utility.yul\":7268:7335   */\n      tag_210\n        /* \"#utility.yul\":7332:7334   */\n      0x12\n        /* \"#utility.yul\":7327:7330   */\n      dup4\n        /* \"#utility.yul\":7268:7335   */\n      tag_118\n      jump\t// in\n    tag_210:\n        /* \"#utility.yul\":7261:7335   */\n      swap2\n      pop\n        /* \"#utility.yul\":7344:7437   */\n      tag_211\n        /* \"#utility.yul\":7433:7436   */\n      dup3\n        /* \"#utility.yul\":7344:7437   */\n      tag_128\n      jump\t// in\n    tag_211:\n        /* \"#utility.yul\":7462:7464   */\n      0x20\n        /* \"#utility.yul\":7457:7460   */\n      dup3\n        /* \"#utility.yul\":7453:7465   */\n      add\n        /* \"#utility.yul\":7446:7465   */\n      swap1\n      pop\n        /* \"#utility.yul\":7105:7471   */\n      swap2\n      swap1\n      pop\n      jump\t// out\n        /* \"#utility.yul\":7477:7896   */\n    tag_61:\n        /* \"#utility.yul\":7643:7647   */\n      0x00\n        /* \"#utility.yul\":7681:7683   */\n      0x20\n        /* \"#utility.yul\":7670:7679   */\n      dup3\n        /* \"#utility.yul\":7666:7684   */\n      add\n        /* \"#utility.yul\":7658:7684   */\n      swap1\n      pop\n        /* \"#utility.yul\":7730:7739   */\n      dup2\n        /* \"#utility.yul\":7724:7728   */\n      dup2\n        /* \"#utility.yul\":7720:7740   */\n      sub\n        /* \"#utility.yul\":7716:7717   */\n      0x00\n        /* \"#utility.yul\":7705:7714   */\n      dup4\n        /* \"#utility.yul\":7701:7718   */\n      add\n        /* \"#utility.yul\":7694:7741   */\n      mstore\n        /* \"#utility.yul\":7758:7889   */\n      tag_213\n        /* \"#utility.yul\":7884:7888   */\n      dup2\n        /* \"#utility.yul\":7758:7889   */\n      tag_129\n      jump\t// in\n    tag_213:\n        /* \"#utility.yul\":7750:7889   */\n      swap1\n      pop\n        /* \"#utility.yul\":7477:7896   */\n      swap2\n      swap1\n      pop\n      jump\t// out\n        /* \"#utility.yul\":7902:8130   */\n    tag_130:\n        /* \"#utility.yul\":8042:8076   */\n      0x746869732066756e6374696f6e2063616e206f6e6c792062652063616c6c6564\n        /* \"#utility.yul\":8038:8039   */\n      0x00\n        /* \"#utility.yul\":8030:8036   */\n      dup3\n        /* \"#utility.yul\":8026:8040   */\n      add\n        /* \"#utility.yul\":8019:8077   */\n      mstore\n        /* \"#utility.yul\":8111:8122   */\n      0x206279206f776e65720000000000000000000000000000000000000000000000\n        /* \"#utility.yul\":8106:8108   */\n      0x20\n        /* \"#utility.yul\":8098:8104   */\n      dup3\n        /* \"#utility.yul\":8094:8109   */\n      add\n        /* \"#utility.yul\":8087:8123   */\n      mstore\n        /* \"#utility.yul\":7902:8130   */\n      pop\n      jump\t// out\n        /* \"#utility.yul\":8136:8502   */\n    tag_131:\n        /* \"#utility.yul\":8278:8281   */\n      0x00\n        /* \"#utility.yul\":8299:8366   */\n      tag_216\n        /* \"#utility.yul\":8363:8365   */\n      0x29\n        /* \"#utility.yul\":8358:8361   */\n      dup4\n        /* \"#utility.yul\":8299:8366   */\n      tag_118\n      jump\t// in\n    tag_216:\n        /* \"#utility.yul\":8292:8366   */\n      swap2\n      pop\n        /* \"#utility.yul\":8375:8468   */\n      tag_217\n        /* \"#utility.yul\":8464:8467   */\n      dup3\n        /* \"#utility.yul\":8375:8468   */\n      tag_130\n      jump\t// in\n    tag_217:\n        /* \"#utility.yul\":8493:8495   */\n      0x40\n        /* \"#utility.yul\":8488:8491   */\n      dup3\n        /* \"#utility.yul\":8484:8496   */\n      add\n        /* \"#utility.yul\":8477:8496   */\n      swap1\n      pop\n        /* \"#utility.yul\":8136:8502   */\n      swap2\n      swap1\n      pop\n      jump\t// out\n        /* \"#utility.yul\":8508:8927   */\n    tag_65:\n        /* \"#utility.yul\":8674:8678   */\n      0x00\n        /* \"#utility.yul\":8712:8714   */\n      0x20\n        /* \"#utility.yul\":8701:8710   */\n      dup3\n        /* \"#utility.yul\":8697:8715   */\n      add\n        /* \"#utility.yul\":8689:8715   */\n      swap1\n      pop\n        /* \"#utility.yul\":8761:8770   */\n      dup2\n        /* \"#utility.yul\":8755:8759   */\n      dup2\n        /* \"#utility.yul\":8751:8771   */\n      sub\n        /* \"#utility.yul\":8747:8748   */\n      0x00\n        /* \"#utility.yul\":8736:8745   */\n      dup4\n        /* \"#utility.yul\":8732:8749   */\n      add\n        /* \"#utility.yul\":8725:8772   */\n      mstore\n        /* \"#utility.yul\":8789:8920   */\n      tag_219\n        /* \"#utility.yul\":8915:8919   */\n      dup2\n        /* \"#utility.yul\":8789:8920   */\n      tag_131\n      jump\t// in\n    tag_219:\n        /* \"#utility.yul\":8781:8920   */\n      swap1\n      pop\n        /* \"#utility.yul\":8508:8927   */\n      swap2\n      swap1\n      pop\n      jump\t// out\n        /* \"#utility.yul\":8933:9104   */\n    tag_132:\n        /* \"#utility.yul\":9073:9096   */\n      0x746172676574206973206e6f7420726561636865640000000000000000000000\n        /* \"#utility.yul\":9069:9070   */\n      0x00\n        /* \"#utility.yul\":9061:9067   */\n      dup3\n        /* \"#utility.yul\":9057:9071   */\n      add\n        /* \"#utility.yul\":9050:9097   */\n      mstore\n        /* \"#utility.yul\":8933:9104   */\n      pop\n      jump\t// out\n        /* \"#utility.yul\":9110:9476   */\n    tag_133:\n        /* \"#utility.yul\":9252:9255   */\n      0x00\n        /* \"#utility.yul\":9273:9340   */\n      tag_222\n        /* \"#utility.yul\":9337:9339   */\n      0x15\n        /* \"#utility.yul\":9332:9335   */\n      dup4\n        /* \"#utility.yul\":9273:9340   */\n      tag_118\n      jump\t// in\n    tag_222:\n        /* \"#utility.yul\":9266:9340   */\n      swap2\n      pop\n        /* \"#utility.yul\":9349:9442   */\n      tag_223\n        /* \"#utility.yul\":9438:9441   */\n      dup3\n        /* \"#utility.yul\":9349:9442   */\n      tag_132\n      jump\t// in\n    tag_223:\n        /* \"#utility.yul\":9467:9469   */\n      0x20\n        /* \"#utility.yul\":9462:9465   */\n      dup3\n        /* \"#utility.yul\":9458:9470   */\n      add\n        /* \"#utility.yul\":9451:9470   */\n      swap1\n      pop\n        /* \"#utility.yul\":9110:9476   */\n      swap2\n      swap1\n      pop\n      jump\t// out\n        /* \"#utility.yul\":9482:9901   */\n    tag_78:\n        /* \"#utility.yul\":9648:9652   */\n      0x00\n        /* \"#utility.yul\":9686:9688   */\n      0x20\n        /* \"#utility.yul\":9675:9684   */\n      dup3\n        /* \"#utility.yul\":9671:9689   */\n      add\n        /* \"#utility.yul\":9663:9689   */\n      swap1\n      pop\n        /* \"#utility.yul\":9735:9744   */\n      dup2\n        /* \"#utility.yul\":9729:9733   */\n      dup2\n        /* \"#utility.yul\":9725:9745   */\n      sub\n        /* \"#utility.yul\":9721:9722   */\n      0x00\n        /* \"#utility.yul\":9710:9719   */\n      dup4\n        /* \"#utility.yul\":9706:9723   */\n      add\n        /* \"#utility.yul\":9699:9746   */\n      mstore\n        /* \"#utility.yul\":9763:9894   */\n      tag_225\n        /* \"#utility.yul\":9889:9893   */\n      dup2\n        /* \"#utility.yul\":9763:9894   */\n      tag_133\n      jump\t// in\n    tag_225:\n        /* \"#utility.yul\":9755:9894   */\n      swap1\n      pop\n        /* \"#utility.yul\":9482:9901   */\n      swap2\n      swap1\n      pop\n      jump\t// out\n        /* \"#utility.yul\":9907:10073   */\n    tag_134:\n        /* \"#utility.yul\":10047:10065   */\n      0x77696e646f7720697320636c6f73656400000000000000000000000000000000\n        /* \"#utility.yul\":10043:10044   */\n      0x00\n        /* \"#utility.yul\":10035:10041   */\n      dup3\n        /* \"#utility.yul\":10031:10045   */\n      add\n        /* \"#utility.yul\":10024:10066   */\n      mstore\n        /* \"#utility.yul\":9907:10073   */\n      pop\n      jump\t// out\n        /* \"#utility.yul\":10079:10445   */\n    tag_135:\n        /* \"#utility.yul\":10221:10224   */\n      0x00\n        /* \"#utility.yul\":10242:10309   */\n      tag_228\n        /* \"#utility.yul\":10306:10308   */\n      0x10\n        /* \"#utility.yul\":10301:10304   */\n      dup4\n        /* \"#utility.yul\":10242:10309   */\n      tag_118\n      jump\t// in\n    tag_228:\n        /* \"#utility.yul\":10235:10309   */\n      swap2\n      pop\n        /* \"#utility.yul\":10318:10411   */\n      tag_229\n        /* \"#utility.yul\":10407:10410   */\n      dup3\n        /* \"#utility.yul\":10318:10411   */\n      tag_134\n      jump\t// in\n    tag_229:\n        /* \"#utility.yul\":10436:10438   */\n      0x20\n        /* \"#utility.yul\":10431:10434   */\n      dup3\n        /* \"#utility.yul\":10427:10439   */\n      add\n        /* \"#utility.yul\":10420:10439   */\n      swap1\n      pop\n        /* \"#utility.yul\":10079:10445   */\n      swap2\n      swap1\n      pop\n      jump\t// out\n        /* \"#utility.yul\":10451:10870   */\n    tag_89:\n        /* \"#utility.yul\":10617:10621   */\n      0x00\n        /* \"#utility.yul\":10655:10657   */\n      0x20\n        /* \"#utility.yul\":10644:10653   */\n      dup3\n        /* \"#utility.yul\":10640:10658   */\n      add\n        /* \"#utility.yul\":10632:10658   */\n      swap1\n      pop\n        /* \"#utility.yul\":10704:10713   */\n      dup2\n        /* \"#utility.yul\":10698:10702   */\n      dup2\n        /* \"#utility.yul\":10694:10714   */\n      sub\n        /* \"#utility.yul\":10690:10691   */\n      0x00\n        /* \"#utility.yul\":10679:10688   */\n      dup4\n        /* \"#utility.yul\":10675:10692   */\n      add\n        /* \"#utility.yul\":10668:10715   */\n      mstore\n        /* \"#utility.yul\":10732:10863   */\n      tag_231\n        /* \"#utility.yul\":10858:10862   */\n      dup2\n        /* \"#utility.yul\":10732:10863   */\n      tag_135\n      jump\t// in\n    tag_231:\n        /* \"#utility.yul\":10724:10863   */\n      swap1\n      pop\n        /* \"#utility.yul\":10451:10870   */\n      swap2\n      swap1\n      pop\n      jump\t// out\n        /* \"#utility.yul\":10876:11039   */\n    tag_136:\n        /* \"#utility.yul\":11016:11031   */\n      0x73656e64206d6f72652045544800000000000000000000000000000000000000\n        /* \"#utility.yul\":11012:11013   */\n      0x00\n        /* \"#utility.yul\":11004:11010   */\n      dup3\n        /* \"#utility.yul\":11000:11014   */\n      add\n        /* \"#utility.yul\":10993:11032   */\n      mstore\n        /* \"#utility.yul\":10876:11039   */\n      pop\n      jump\t// out\n        /* \"#utility.yul\":11045:11411   */\n    tag_137:\n        /* \"#utility.yul\":11187:11190   */\n      0x00\n        /* \"#utility.yul\":11208:11275   */\n      tag_234\n        /* \"#utility.yul\":11272:11274   */\n      0x0d\n        /* \"#utility.yul\":11267:11270   */\n      dup4\n        /* \"#utility.yul\":11208:11275   */\n      tag_118\n      jump\t// in\n    tag_234:\n        /* \"#utility.yul\":11201:11275   */\n      swap2\n      pop\n        /* \"#utility.yul\":11284:11377   */\n      tag_235\n        /* \"#utility.yul\":11373:11376   */\n      dup3\n        /* \"#utility.yul\":11284:11377   */\n      tag_136\n      jump\t// in\n    tag_235:\n        /* \"#utility.yul\":11402:11404   */\n      0x20\n        /* \"#utility.yul\":11397:11400   */\n      dup3\n        /* \"#utility.yul\":11393:11405   */\n      add\n        /* \"#utility.yul\":11386:11405   */\n      swap1\n      pop\n        /* \"#utility.yul\":11045:11411   */\n      swap2\n      swap1\n      pop\n      jump\t// out\n        /* \"#utility.yul\":11417:11836   */\n    tag_93:\n        /* \"#utility.yul\":11583:11587   */\n      0x00\n        /* \"#utility.yul\":11621:11623   */\n      0x20\n        /* \"#utility.yul\":11610:11619   */\n      dup3\n        /* \"#utility.yul\":11606:11624   */\n      add\n        /* \"#utility.yul\":11598:11624   */\n      swap1\n      pop\n        /* \"#utility.yul\":11670:11679   */\n      dup2\n        /* \"#utility.yul\":11664:11668   */\n      dup2\n        /* \"#utility.yul\":11660:11680   */\n      sub\n        /* \"#utility.yul\":11656:11657   */\n      0x00\n        /* \"#utility.yul\":11645:11654   */\n      dup4\n        /* \"#utility.yul\":11641:11658   */\n      add\n        /* \"#utility.yul\":11634:11681   */\n      mstore\n        /* \"#utility.yul\":11698:11829   */\n      tag_237\n        /* \"#utility.yul\":11824:11828   */\n      dup2\n        /* \"#utility.yul\":11698:11829   */\n      tag_137\n      jump\t// in\n    tag_237:\n        /* \"#utility.yul\":11690:11829   */\n      swap1\n      pop\n        /* \"#utility.yul\":11417:11836   */\n      swap2\n      swap1\n      pop\n      jump\t// out\n        /* \"#utility.yul\":11842:11947   */\n    tag_138:\n        /* \"#utility.yul\":11878:11885   */\n      0x00\n        /* \"#utility.yul\":11918:11940   */\n      0xffffffffffffffffffff\n        /* \"#utility.yul\":11911:11916   */\n      dup3\n        /* \"#utility.yul\":11907:11941   */\n      and\n        /* \"#utility.yul\":11896:11941   */\n      swap1\n      pop\n        /* \"#utility.yul\":11842:11947   */\n      swap2\n      swap1\n      pop\n      jump\t// out\n        /* \"#utility.yul\":11953:12073   */\n    tag_139:\n        /* \"#utility.yul\":12025:12048   */\n      tag_240\n        /* \"#utility.yul\":12042:12047   */\n      dup2\n        /* \"#utility.yul\":12025:12048   */\n      tag_138\n      jump\t// in\n    tag_240:\n        /* \"#utility.yul\":12018:12023   */\n      dup2\n        /* \"#utility.yul\":12015:12049   */\n      eq\n        /* \"#utility.yul\":12005:12067   */\n      tag_241\n      jumpi\n        /* \"#utility.yul\":12063:12064   */\n      0x00\n        /* \"#utility.yul\":12060:12061   */\n      dup1\n        /* \"#utility.yul\":12053:12065   */\n      revert\n        /* \"#utility.yul\":12005:12067   */\n    tag_241:\n        /* \"#utility.yul\":11953:12073   */\n      pop\n      jump\t// out\n        /* \"#utility.yul\":12079:12220   */\n    tag_140:\n        /* \"#utility.yul\":12135:12140   */\n      0x00\n        /* \"#utility.yul\":12166:12172   */\n      dup2\n        /* \"#utility.yul\":12160:12173   */\n      mload\n        /* \"#utility.yul\":12151:12173   */\n      swap1\n      pop\n        /* \"#utility.yul\":12182:12214   */\n      tag_243\n        /* \"#utility.yul\":12208:12213   */\n      dup2\n        /* \"#utility.yul\":12182:12214   */\n      tag_139\n      jump\t// in\n    tag_243:\n        /* \"#utility.yul\":12079:12220   */\n      swap3\n      swap2\n      pop\n      pop\n      jump\t// out\n        /* \"#utility.yul\":12226:12346   */\n    tag_141:\n        /* \"#utility.yul\":12298:12321   */\n      tag_245\n        /* \"#utility.yul\":12315:12320   */\n      dup2\n        /* \"#utility.yul\":12298:12321   */\n      tag_115\n      jump\t// in\n    tag_245:\n        /* \"#utility.yul\":12291:12296   */\n      dup2\n        /* \"#utility.yul\":12288:12322   */\n      eq\n        /* \"#utility.yul\":12278:12340   */\n      tag_246\n      jumpi\n        /* \"#utility.yul\":12336:12337   */\n      0x00\n        /* \"#utility.yul\":12333:12334   */\n      dup1\n        /* \"#utility.yul\":12326:12338   */\n      revert\n        /* \"#utility.yul\":12278:12340   */\n    tag_246:\n        /* \"#utility.yul\":12226:12346   */\n      pop\n      jump\t// out\n        /* \"#utility.yul\":12352:12493   */\n    tag_142:\n        /* \"#utility.yul\":12408:12413   */\n      0x00\n        /* \"#utility.yul\":12439:12445   */\n      dup2\n        /* \"#utility.yul\":12433:12446   */\n      mload\n        /* \"#utility.yul\":12424:12446   */\n      swap1\n      pop\n        /* \"#utility.yul\":12455:12487   */\n      tag_248\n        /* \"#utility.yul\":12481:12486   */\n      dup2\n        /* \"#utility.yul\":12455:12487   */\n      tag_141\n      jump\t// in\n    tag_248:\n        /* \"#utility.yul\":12352:12493   */\n      swap3\n      swap2\n      pop\n      pop\n      jump\t// out\n        /* \"#utility.yul\":12499:12621   */\n    tag_143:\n        /* \"#utility.yul\":12572:12596   */\n      tag_250\n        /* \"#utility.yul\":12590:12595   */\n      dup2\n        /* \"#utility.yul\":12572:12596   */\n      tag_112\n      jump\t// in\n    tag_250:\n        /* \"#utility.yul\":12565:12570   */\n      dup2\n        /* \"#utility.yul\":12562:12597   */\n      eq\n        /* \"#utility.yul\":12552:12615   */\n      tag_251\n      jumpi\n        /* \"#utility.yul\":12611:12612   */\n      0x00\n        /* \"#utility.yul\":12608:12609   */\n      dup1\n        /* \"#utility.yul\":12601:12613   */\n      revert\n        /* \"#utility.yul\":12552:12615   */\n    tag_251:\n        /* \"#utility.yul\":12499:12621   */\n      pop\n      jump\t// out\n        /* \"#utility.yul\":12627:12770   */\n    tag_144:\n        /* \"#utility.yul\":12684:12689   */\n      0x00\n        /* \"#utility.yul\":12715:12721   */\n      dup2\n        /* \"#utility.yul\":12709:12722   */\n      mload\n        /* \"#utility.yul\":12700:12722   */\n      swap1\n      pop\n        /* \"#utility.yul\":12731:12764   */\n      tag_253\n        /* \"#utility.yul\":12758:12763   */\n      dup2\n        /* \"#utility.yul\":12731:12764   */\n      tag_143\n      jump\t// in\n    tag_253:\n        /* \"#utility.yul\":12627:12770   */\n      swap3\n      swap2\n      pop\n      pop\n      jump\t// out\n        /* \"#utility.yul\":12776:13747   */\n    tag_98:\n        /* \"#utility.yul\":12879:12885   */\n      0x00\n        /* \"#utility.yul\":12887:12893   */\n      dup1\n        /* \"#utility.yul\":12895:12901   */\n      0x00\n        /* \"#utility.yul\":12903:12909   */\n      dup1\n        /* \"#utility.yul\":12911:12917   */\n      0x00\n        /* \"#utility.yul\":12960:12963   */\n      0xa0\n        /* \"#utility.yul\":12948:12957   */\n      dup7\n        /* \"#utility.yul\":12939:12946   */\n      dup9\n        /* \"#utility.yul\":12935:12958   */\n      sub\n        /* \"#utility.yul\":12931:12964   */\n      slt\n        /* \"#utility.yul\":12928:13048   */\n      iszero\n      tag_255\n      jumpi\n        /* \"#utility.yul\":12967:13046   */\n      tag_256\n      tag_106\n      jump\t// in\n    tag_256:\n        /* \"#utility.yul\":12928:13048   */\n    tag_255:\n        /* \"#utility.yul\":13087:13088   */\n      0x00\n        /* \"#utility.yul\":13112:13175   */\n      tag_257\n        /* \"#utility.yul\":13167:13174   */\n      dup9\n        /* \"#utility.yul\":13158:13164   */\n      dup3\n        /* \"#utility.yul\":13147:13156   */\n      dup10\n        /* \"#utility.yul\":13143:13165   */\n      add\n        /* \"#utility.yul\":13112:13175   */\n      tag_140\n      jump\t// in\n    tag_257:\n        /* \"#utility.yul\":13102:13175   */\n      swap6\n      pop\n        /* \"#utility.yul\":13058:13185   */\n      pop\n        /* \"#utility.yul\":13224:13226   */\n      0x20\n        /* \"#utility.yul\":13250:13313   */\n      tag_258\n        /* \"#utility.yul\":13305:13312   */\n      dup9\n        /* \"#utility.yul\":13296:13302   */\n      dup3\n        /* \"#utility.yul\":13285:13294   */\n      dup10\n        /* \"#utility.yul\":13281:13303   */\n      add\n        /* \"#utility.yul\":13250:13313   */\n      tag_142\n      jump\t// in\n    tag_258:\n        /* \"#utility.yul\":13240:13313   */\n      swap5\n      pop\n        /* \"#utility.yul\":13195:13323   */\n      pop\n        /* \"#utility.yul\":13362:13364   */\n      0x40\n        /* \"#utility.yul\":13388:13452   */\n      tag_259\n        /* \"#utility.yul\":13444:13451   */\n      dup9\n        /* \"#utility.yul\":13435:13441   */\n      dup3\n        /* \"#utility.yul\":13424:13433   */\n      dup10\n        /* \"#utility.yul\":13420:13442   */\n      add\n        /* \"#utility.yul\":13388:13452   */\n      tag_144\n      jump\t// in\n    tag_259:\n        /* \"#utility.yul\":13378:13452   */\n      swap4\n      pop\n        /* \"#utility.yul\":13333:13462   */\n      pop\n        /* \"#utility.yul\":13501:13503   */\n      0x60\n        /* \"#utility.yul\":13527:13591   */\n      tag_260\n        /* \"#utility.yul\":13583:13590   */\n      dup9\n        /* \"#utility.yul\":13574:13580   */\n      dup3\n        /* \"#utility.yul\":13563:13572   */\n      dup10\n        /* \"#utility.yul\":13559:13581   */\n      add\n        /* \"#utility.yul\":13527:13591   */\n      tag_144\n      jump\t// in\n    tag_260:\n        /* \"#utility.yul\":13517:13591   */\n      swap3\n      pop\n        /* \"#utility.yul\":13472:13601   */\n      pop\n        /* \"#utility.yul\":13640:13643   */\n      0x80\n        /* \"#utility.yul\":13667:13730   */\n      tag_261\n        /* \"#utility.yul\":13722:13729   */\n      dup9\n        /* \"#utility.yul\":13713:13719   */\n      dup3\n        /* \"#utility.yul\":13702:13711   */\n      dup10\n        /* \"#utility.yul\":13698:13720   */\n      add\n        /* \"#utility.yul\":13667:13730   */\n      tag_140\n      jump\t// in\n    tag_261:\n        /* \"#utility.yul\":13657:13730   */\n      swap2\n      pop\n        /* \"#utility.yul\":13611:13740   */\n      pop\n        /* \"#utility.yul\":12776:13747   */\n      swap3\n      swap6\n      pop\n      swap3\n      swap6\n      swap1\n      swap4\n      pop\n      jump\t// out\n        /* \"#utility.yul\":13753:14163   */\n    tag_102:\n        /* \"#utility.yul\":13793:13800   */\n      0x00\n        /* \"#utility.yul\":13816:13836   */\n      tag_263\n        /* \"#utility.yul\":13834:13835   */\n      dup3\n        /* \"#utility.yul\":13816:13836   */\n      tag_112\n      jump\t// in\n    tag_263:\n        /* \"#utility.yul\":13811:13836   */\n      swap2\n      pop\n        /* \"#utility.yul\":13850:13870   */\n      tag_264\n        /* \"#utility.yul\":13868:13869   */\n      dup4\n        /* \"#utility.yul\":13850:13870   */\n      tag_112\n      jump\t// in\n    tag_264:\n        /* \"#utility.yul\":13845:13870   */\n      swap3\n      pop\n        /* \"#utility.yul\":13905:13906   */\n      dup3\n        /* \"#utility.yul\":13902:13903   */\n      dup3\n        /* \"#utility.yul\":13898:13907   */\n      mul\n        /* \"#utility.yul\":13927:13957   */\n      tag_265\n        /* \"#utility.yul\":13945:13956   */\n      dup2\n        /* \"#utility.yul\":13927:13957   */\n      tag_112\n      jump\t// in\n    tag_265:\n        /* \"#utility.yul\":13916:13957   */\n      swap2\n      pop\n        /* \"#utility.yul\":14106:14107   */\n      dup3\n        /* \"#utility.yul\":14097:14104   */\n      dup3\n        /* \"#utility.yul\":14093:14108   */\n      div\n        /* \"#utility.yul\":14090:14091   */\n      dup5\n        /* \"#utility.yul\":14087:14109   */\n      eq\n        /* \"#utility.yul\":14067:14068   */\n      dup4\n        /* \"#utility.yul\":14060:14069   */\n      iszero\n        /* \"#utility.yul\":14040:14123   */\n      or\n        /* \"#utility.yul\":14017:14156   */\n      tag_266\n      jumpi\n        /* \"#utility.yul\":14136:14154   */\n      tag_267\n      tag_117\n      jump\t// in\n    tag_267:\n        /* \"#utility.yul\":14017:14156   */\n    tag_266:\n        /* \"#utility.yul\":13801:14163   */\n      pop\n        /* \"#utility.yul\":13753:14163   */\n      swap3\n      swap2\n      pop\n      pop\n      jump\t// out\n        /* \"#utility.yul\":14169:14349   */\n    tag_145:\n        /* \"#utility.yul\":14217:14294   */\n      0x4e487b7100000000000000000000000000000000000000000000000000000000\n        /* \"#utility.yul\":14214:14215   */\n      0x00\n        /* \"#utility.yul\":14207:14295   */\n      mstore\n        /* \"#utility.yul\":14314:14318   */\n      0x12\n        /* \"#utility.yul\":14311:14312   */\n      0x04\n        /* \"#utility.yul\":14304:14319   */\n      mstore\n        /* \"#utility.yul\":14338:14342   */\n      0x24\n        /* \"#utility.yul\":14335:14336   */\n      0x00\n        /* \"#utility.yul\":14328:14343   */\n      revert\n        /* \"#utility.yul\":14355:14540   */\n    tag_104:\n        /* \"#utility.yul\":14395:14396   */\n      0x00\n        /* \"#utility.yul\":14412:14432   */\n      tag_270\n        /* \"#utility.yul\":14430:14431   */\n      dup3\n        /* \"#utility.yul\":14412:14432   */\n      tag_112\n      jump\t// in\n    tag_270:\n        /* \"#utility.yul\":14407:14432   */\n      swap2\n      pop\n        /* \"#utility.yul\":14446:14466   */\n      tag_271\n        /* \"#utility.yul\":14464:14465   */\n      dup4\n        /* \"#utility.yul\":14446:14466   */\n      tag_112\n      jump\t// in\n    tag_271:\n        /* \"#utility.yul\":14441:14466   */\n      swap3\n      pop\n        /* \"#utility.yul\":14485:14486   */\n      dup3\n        /* \"#utility.yul\":14475:14510   */\n      tag_272\n      jumpi\n        /* \"#utility.yul\":14490:14508   */\n      tag_273\n      tag_145\n      jump\t// in\n    tag_273:\n        /* \"#utility.yul\":14475:14510   */\n    tag_272:\n        /* \"#utility.yul\":14532:14533   */\n      dup3\n        /* \"#utility.yul\":14529:14530   */\n      dup3\n        /* \"#utility.yul\":14525:14534   */\n      div\n        /* \"#utility.yul\":14520:14534   */\n      swap1\n      pop\n        /* \"#utility.yul\":14355:14540   */\n      swap3\n      swap2\n      pop\n      pop\n      jump\t// out\n\n    auxdata: 0xa2646970667358221220ce9b6edd7c157429ae323ece2a2f92f637312f738de3374ade19c1bf4547df1c64736f6c634300081a0033\n}\n",
				"bytecode": {
					"linkReferences": {},
					"object": "6080604052678ac7230489e8000060015534801561001b575f80fd5b506040516110ea3803806110ea833981810160405281019061003d919061011c565b73694aa1769357215de4fac081bf1f309adc32530660025f6101000a81548173ffffffffffffffffffffffffffffffffffffffff021916908373ffffffffffffffffffffffffffffffffffffffff1602179055503360035f6101000a81548173ffffffffffffffffffffffffffffffffffffffff021916908373ffffffffffffffffffffffffffffffffffffffff160217905550426004819055508060058190555050610147565b5f80fd5b5f819050919050565b6100fb816100e9565b8114610105575f80fd5b50565b5f81519050610116816100f2565b92915050565b5f60208284031215610131576101306100e5565b5b5f61013e84828501610108565b91505092915050565b610f96806101545f395ff3fe60806040526004361061006f575f3560e01c80638da5cb5b1161004d5780638da5cb5b146100ed5780638edd6eb614610117578063b60d42881461012d578063bea4dfb5146101375761006f565b80630ff0a4df146100735780634407e1e8146100895780638863dd1a146100c5575b5f80fd5b34801561007e575f80fd5b50610087610161565b005b348015610094575f80fd5b506100af60048036038101906100aa91906108ec565b6103b3565b6040516100bc919061092f565b60405180910390f35b3480156100d0575f80fd5b506100eb60048036038101906100e691906108ec565b6103c7565b005b3480156100f8575f80fd5b50610101610499565b60405161010e9190610957565b60405180910390f35b348015610122575f80fd5b5061012b6104be565b005b6101356106e1565b005b348015610142575f80fd5b5061014b6107c2565b6040516101589190610988565b60405180910390f35b60055460045461017191906109ce565b4210156101b3576040517f08c379a00000000000000000000000000000000000000000000000000000000081526004016101aa90610a5b565b60405180910390fd5b68056bc75e2d631000006101c64761085f565b10610206576040517f08c379a00000000000000000000000000000000000000000000000000000000081526004016101fd90610ac3565b60405180910390fd5b5f805f3373ffffffffffffffffffffffffffffffffffffffff1673ffffffffffffffffffffffffffffffffffffffff1681526020019081526020015f205490505f8103610288576040517f08c379a000000000000000000000000000000000000000000000000000000000815260040161027f90610b2b565b60405180910390fd5b5f3373ffffffffffffffffffffffffffffffffffffffff165f803373ffffffffffffffffffffffffffffffffffffffff1673ffffffffffffffffffffffffffffffffffffffff1681526020019081526020015f20546040516102e990610b76565b5f6040518083038185875af1925050503d805f8114610323576040519150601f19603f3d011682016040523d82523d5f602084013e610328565b606091505b5050809150508061036e576040517f08c379a000000000000000000000000000000000000000000000000000000000815260040161036590610bd4565b60405180910390fd5b5f805f3373ffffffffffffffffffffffffffffffffffffffff1673ffffffffffffffffffffffffffffffffffffffff1681526020019081526020015f20819055505050565b5f602052805f5260405f205f915090505481565b60035f9054906101000a900473ffffffffffffffffffffffffffffffffffffffff1673ffffffffffffffffffffffffffffffffffffffff163373ffffffffffffffffffffffffffffffffffffffff1614610456576040517f08c379a000000000000000000000000000000000000000000000000000000000815260040161044d90610c62565b60405180910390fd5b8060035f6101000a81548173ffffffffffffffffffffffffffffffffffffffff021916908373ffffffffffffffffffffffffffffffffffffffff16021790555050565b60035f9054906101000a900473ffffffffffffffffffffffffffffffffffffffff1681565b6005546004546104ce91906109ce565b421015610510576040517f08c379a000000000000000000000000000000000000000000000000000000000815260040161050790610a5b565b60405180910390fd5b60035f9054906101000a900473ffffffffffffffffffffffffffffffffffffffff1673ffffffffffffffffffffffffffffffffffffffff163373ffffffffffffffffffffffffffffffffffffffff161461059f576040517f08c379a000000000000000000000000000000000000000000000000000000000815260040161059690610c62565b60405180910390fd5b68056bc75e2d631000006105b24761085f565b10156105f3576040517f08c379a00000000000000000000000000000000000000000000000000000000081526004016105ea90610cca565b60405180910390fd5b5f3373ffffffffffffffffffffffffffffffffffffffff164760405161061890610b76565b5f6040518083038185875af1925050503d805f8114610652576040519150601f19603f3d011682016040523d82523d5f602084013e610657565b606091505b5050809150508061069d576040517f08c379a000000000000000000000000000000000000000000000000000000000815260040161069490610bd4565b60405180910390fd5b5f805f3373ffffffffffffffffffffffffffffffffffffffff1673ffffffffffffffffffffffffffffffffffffffff1681526020019081526020015f208190555050565b6005546004546106f191906109ce565b4210610732576040517f08c379a000000000000000000000000000000000000000000000000000000000815260040161072990610d32565b60405180910390fd5b60015461073e3461085f565b101561077f576040517f08c379a000000000000000000000000000000000000000000000000000000000815260040161077690610d9a565b60405180910390fd5b345f803373ffffffffffffffffffffffffffffffffffffffff1673ffffffffffffffffffffffffffffffffffffffff1681526020019081526020015f2081905550565b5f8060025f9054906101000a900473ffffffffffffffffffffffffffffffffffffffff1673ffffffffffffffffffffffffffffffffffffffff1663feaf968c6040518163ffffffff1660e01b815260040160a060405180830381865afa15801561082e573d5f803e3d5ffd5b505050506040513d601f19601f820116820180604052508101906108529190610e4b565b5050509150508091505090565b5f806108696107c2565b90506305f5e100818461087c9190610ec2565b6108869190610f30565b915050919050565b5f80fd5b5f73ffffffffffffffffffffffffffffffffffffffff82169050919050565b5f6108bb82610892565b9050919050565b6108cb816108b1565b81146108d5575f80fd5b50565b5f813590506108e6816108c2565b92915050565b5f602082840312156109015761090061088e565b5b5f61090e848285016108d8565b91505092915050565b5f819050919050565b61092981610917565b82525050565b5f6020820190506109425f830184610920565b92915050565b610951816108b1565b82525050565b5f60208201905061096a5f830184610948565b92915050565b5f819050919050565b61098281610970565b82525050565b5f60208201905061099b5f830184610979565b92915050565b7f4e487b71000000000000000000000000000000000000000000000000000000005f52601160045260245ffd5b5f6109d882610917565b91506109e383610917565b92508282019050808211156109fb576109fa6109a1565b5b92915050565b5f82825260208201905092915050565b7f77696e646f77206973206e6f7420636c6f7365640000000000000000000000005f82015250565b5f610a45601483610a01565b9150610a5082610a11565b602082019050919050565b5f6020820190508181035f830152610a7281610a39565b9050919050565b7f74617267657420697320726561636865640000000000000000000000000000005f82015250565b5f610aad601183610a01565b9150610ab882610a79565b602082019050919050565b5f6020820190508181035f830152610ada81610aa1565b9050919050565b7f7468657265206973206e6f742066756e6420666f7220796f75000000000000005f82015250565b5f610b15601983610a01565b9150610b2082610ae1565b602082019050919050565b5f6020820190508181035f830152610b4281610b09565b9050919050565b5f81905092915050565b50565b5f610b615f83610b49565b9150610b6c82610b53565b5f82019050919050565b5f610b8082610b56565b9150819050919050565b7f7472616e73666572207478206661696c656400000000000000000000000000005f82015250565b5f610bbe601283610a01565b9150610bc982610b8a565b602082019050919050565b5f6020820190508181035f830152610beb81610bb2565b9050919050565b7f746869732066756e6374696f6e2063616e206f6e6c792062652063616c6c65645f8201527f206279206f776e65720000000000000000000000000000000000000000000000602082015250565b5f610c4c602983610a01565b9150610c5782610bf2565b604082019050919050565b5f6020820190508181035f830152610c7981610c40565b9050919050565b7f746172676574206973206e6f74207265616368656400000000000000000000005f82015250565b5f610cb4601583610a01565b9150610cbf82610c80565b602082019050919050565b5f6020820190508181035f830152610ce181610ca8565b9050919050565b7f77696e646f7720697320636c6f736564000000000000000000000000000000005f82015250565b5f610d1c601083610a01565b9150610d2782610ce8565b602082019050919050565b5f6020820190508181035f830152610d4981610d10565b9050919050565b7f73656e64206d6f726520455448000000000000000000000000000000000000005f82015250565b5f610d84600d83610a01565b9150610d8f82610d50565b602082019050919050565b5f6020820190508181035f830152610db181610d78565b9050919050565b5f69ffffffffffffffffffff82169050919050565b610dd681610db8565b8114610de0575f80fd5b50565b5f81519050610df181610dcd565b92915050565b610e0081610970565b8114610e0a575f80fd5b50565b5f81519050610e1b81610df7565b92915050565b610e2a81610917565b8114610e34575f80fd5b50565b5f81519050610e4581610e21565b92915050565b5f805f805f60a08688031215610e6457610e6361088e565b5b5f610e7188828901610de3565b9550506020610e8288828901610e0d565b9450506040610e9388828901610e37565b9350506060610ea488828901610e37565b9250506080610eb588828901610de3565b9150509295509295909350565b5f610ecc82610917565b9150610ed783610917565b9250828202610ee581610917565b91508282048414831517610efc57610efb6109a1565b5b5092915050565b7f4e487b71000000000000000000000000000000000000000000000000000000005f52601260045260245ffd5b5f610f3a82610917565b9150610f4583610917565b925082610f5557610f54610f03565b5b82820490509291505056fea2646970667358221220ce9b6edd7c157429ae323ece2a2f92f637312f738de3374ade19c1bf4547df1c64736f6c634300081a0033",
					"opcodes": "PUSH1 0x80 PUSH1 0x40 MSTORE PUSH8 0x8AC7230489E80000 PUSH1 0x1 SSTORE CALLVALUE DUP1 ISZERO PUSH2 0x1B JUMPI PUSH0 DUP1 REVERT JUMPDEST POP PUSH1 0x40 MLOAD PUSH2 0x10EA CODESIZE SUB DUP1 PUSH2 0x10EA DUP4 CODECOPY DUP2 DUP2 ADD PUSH1 0x40 MSTORE DUP2 ADD SWAP1 PUSH2 0x3D SWAP2 SWAP1 PUSH2 0x11C JUMP JUMPDEST PUSH20 0x694AA1769357215DE4FAC081BF1F309ADC325306 PUSH1 0x2 PUSH0 PUSH2 0x100 EXP DUP2 SLOAD DUP2 PUSH20 0xFFFFFFFFFFFFFFFFFFFFFFFFFFFFFFFFFFFFFFFF MUL NOT AND SWAP1 DUP4 PUSH20 0xFFFFFFFFFFFFFFFFFFFFFFFFFFFFFFFFFFFFFFFF AND MUL OR SWAP1 SSTORE POP CALLER PUSH1 0x3 PUSH0 PUSH2 0x100 EXP DUP2 SLOAD DUP2 PUSH20 0xFFFFFFFFFFFFFFFFFFFFFFFFFFFFFFFFFFFFFFFF MUL NOT AND SWAP1 DUP4 PUSH20 0xFFFFFFFFFFFFFFFFFFFFFFFFFFFFFFFFFFFFFFFF AND MUL OR SWAP1 SSTORE POP TIMESTAMP PUSH1 0x4 DUP2 SWAP1 SSTORE POP DUP1 PUSH1 0x5 DUP2 SWAP1 SSTORE POP POP PUSH2 0x147 JUMP JUMPDEST PUSH0 DUP1 REVERT JUMPDEST PUSH0 DUP2 SWAP1 POP SWAP2 SWAP1 POP JUMP JUMPDEST PUSH2 0xFB DUP2 PUSH2 0xE9 JUMP JUMPDEST DUP2 EQ PUSH2 0x105 JUMPI PUSH0 DUP1 REVERT JUMPDEST POP JUMP JUMPDEST PUSH0 DUP2 MLOAD SWAP1 POP PUSH2 0x116 DUP2 PUSH2 0xF2 JUMP JUMPDEST SWAP3 SWAP2 POP POP JUMP JUMPDEST PUSH0 PUSH1 0x20 DUP3 DUP5 SUB SLT ISZERO PUSH2 0x131 JUMPI PUSH2 0x130 PUSH2 0xE5 JUMP JUMPDEST JUMPDEST PUSH0 PUSH2 0x13E DUP5 DUP3 DUP6 ADD PUSH2 0x108 JUMP JUMPDEST SWAP2 POP POP SWAP3 SWAP2 POP POP JUMP JUMPDEST PUSH2 0xF96 DUP1 PUSH2 0x154 PUSH0 CODECOPY PUSH0 RETURN INVALID PUSH1 0x80 PUSH1 0x40 MSTORE PUSH1 0x4 CALLDATASIZE LT PUSH2 0x6F JUMPI PUSH0 CALLDATALOAD PUSH1 0xE0 SHR DUP1 PUSH4 0x8DA5CB5B GT PUSH2 0x4D JUMPI DUP1 PUSH4 0x8DA5CB5B EQ PUSH2 0xED JUMPI DUP1 PUSH4 0x8EDD6EB6 EQ PUSH2 0x117 JUMPI DUP1 PUSH4 0xB60D4288 EQ PUSH2 0x12D JUMPI DUP1 PUSH4 0xBEA4DFB5 EQ PUSH2 0x137 JUMPI PUSH2 0x6F JUMP JUMPDEST DUP1 PUSH4 0xFF0A4DF EQ PUSH2 0x73 JUMPI DUP1 PUSH4 0x4407E1E8 EQ PUSH2 0x89 JUMPI DUP1 PUSH4 0x8863DD1A EQ PUSH2 0xC5 JUMPI JUMPDEST PUSH0 DUP1 REVERT JUMPDEST CALLVALUE DUP1 ISZERO PUSH2 0x7E JUMPI PUSH0 DUP1 REVERT JUMPDEST POP PUSH2 0x87 PUSH2 0x161 JUMP JUMPDEST STOP JUMPDEST CALLVALUE DUP1 ISZERO PUSH2 0x94 JUMPI PUSH0 DUP1 REVERT JUMPDEST POP PUSH2 0xAF PUSH1 0x4 DUP1 CALLDATASIZE SUB DUP2 ADD SWAP1 PUSH2 0xAA SWAP2 SWAP1 PUSH2 0x8EC JUMP JUMPDEST PUSH2 0x3B3 JUMP JUMPDEST PUSH1 0x40 MLOAD PUSH2 0xBC SWAP2 SWAP1 PUSH2 0x92F JUMP JUMPDEST PUSH1 0x40 MLOAD DUP1 SWAP2 SUB SWAP1 RETURN JUMPDEST CALLVALUE DUP1 ISZERO PUSH2 0xD0 JUMPI PUSH0 DUP1 REVERT JUMPDEST POP PUSH2 0xEB PUSH1 0x4 DUP1 CALLDATASIZE SUB DUP2 ADD SWAP1 PUSH2 0xE6 SWAP2 SWAP1 PUSH2 0x8EC JUMP JUMPDEST PUSH2 0x3C7 JUMP JUMPDEST STOP JUMPDEST CALLVALUE DUP1 ISZERO PUSH2 0xF8 JUMPI PUSH0 DUP1 REVERT JUMPDEST POP PUSH2 0x101 PUSH2 0x499 JUMP JUMPDEST PUSH1 0x40 MLOAD PUSH2 0x10E SWAP2 SWAP1 PUSH2 0x957 JUMP JUMPDEST PUSH1 0x40 MLOAD DUP1 SWAP2 SUB SWAP1 RETURN JUMPDEST CALLVALUE DUP1 ISZERO PUSH2 0x122 JUMPI PUSH0 DUP1 REVERT JUMPDEST POP PUSH2 0x12B PUSH2 0x4BE JUMP JUMPDEST STOP JUMPDEST PUSH2 0x135 PUSH2 0x6E1 JUMP JUMPDEST STOP JUMPDEST CALLVALUE DUP1 ISZERO PUSH2 0x142 JUMPI PUSH0 DUP1 REVERT JUMPDEST POP PUSH2 0x14B PUSH2 0x7C2 JUMP JUMPDEST PUSH1 0x40 MLOAD PUSH2 0x158 SWAP2 SWAP1 PUSH2 0x988 JUMP JUMPDEST PUSH1 0x40 MLOAD DUP1 SWAP2 SUB SWAP1 RETURN JUMPDEST PUSH1 0x5 SLOAD PUSH1 0x4 SLOAD PUSH2 0x171 SWAP2 SWAP1 PUSH2 0x9CE JUMP JUMPDEST TIMESTAMP LT ISZERO PUSH2 0x1B3 JUMPI PUSH1 0x40 MLOAD PUSH32 0x8C379A000000000000000000000000000000000000000000000000000000000 DUP2 MSTORE PUSH1 0x4 ADD PUSH2 0x1AA SWAP1 PUSH2 0xA5B JUMP JUMPDEST PUSH1 0x40 MLOAD DUP1 SWAP2 SUB SWAP1 REVERT JUMPDEST PUSH9 0x56BC75E2D63100000 PUSH2 0x1C6 SELFBALANCE PUSH2 0x85F JUMP JUMPDEST LT PUSH2 0x206 JUMPI PUSH1 0x40 MLOAD PUSH32 0x8C379A000000000000000000000000000000000000000000000000000000000 DUP2 MSTORE PUSH1 0x4 ADD PUSH2 0x1FD SWAP1 PUSH2 0xAC3 JUMP JUMPDEST PUSH1 0x40 MLOAD DUP1 SWAP2 SUB SWAP1 REVERT JUMPDEST PUSH0 DUP1 PUSH0 CALLER PUSH20 0xFFFFFFFFFFFFFFFFFFFFFFFFFFFFFFFFFFFFFFFF AND PUSH20 0xFFFFFFFFFFFFFFFFFFFFFFFFFFFFFFFFFFFFFFFF AND DUP2 MSTORE PUSH1 0x20 ADD SWAP1 DUP2 MSTORE PUSH1 0x20 ADD PUSH0 KECCAK256 SLOAD SWAP1 POP PUSH0 DUP2 SUB PUSH2 0x288 JUMPI PUSH1 0x40 MLOAD PUSH32 0x8C379A000000000000000000000000000000000000000000000000000000000 DUP2 MSTORE PUSH1 0x4 ADD PUSH2 0x27F SWAP1 PUSH2 0xB2B JUMP JUMPDEST PUSH1 0x40 MLOAD DUP1 SWAP2 SUB SWAP1 REVERT JUMPDEST PUSH0 CALLER PUSH20 0xFFFFFFFFFFFFFFFFFFFFFFFFFFFFFFFFFFFFFFFF AND PUSH0 DUP1 CALLER PUSH20 0xFFFFFFFFFFFFFFFFFFFFFFFFFFFFFFFFFFFFFFFF AND PUSH20 0xFFFFFFFFFFFFFFFFFFFFFFFFFFFFFFFFFFFFFFFF AND DUP2 MSTORE PUSH1 0x20 ADD SWAP1 DUP2 MSTORE PUSH1 0x20 ADD PUSH0 KECCAK256 SLOAD PUSH1 0x40 MLOAD PUSH2 0x2E9 SWAP1 PUSH2 0xB76 JUMP JUMPDEST PUSH0 PUSH1 0x40 MLOAD DUP1 DUP4 SUB DUP2 DUP6 DUP8 GAS CALL SWAP3 POP POP POP RETURNDATASIZE DUP1 PUSH0 DUP2 EQ PUSH2 0x323 JUMPI PUSH1 0x40 MLOAD SWAP2 POP PUSH1 0x1F NOT PUSH1 0x3F RETURNDATASIZE ADD AND DUP3 ADD PUSH1 0x40 MSTORE RETURNDATASIZE DUP3 MSTORE RETURNDATASIZE PUSH0 PUSH1 0x20 DUP5 ADD RETURNDATACOPY PUSH2 0x328 JUMP JUMPDEST PUSH1 0x60 SWAP2 POP JUMPDEST POP POP DUP1 SWAP2 POP POP DUP1 PUSH2 0x36E JUMPI PUSH1 0x40 MLOAD PUSH32 0x8C379A000000000000000000000000000000000000000000000000000000000 DUP2 MSTORE PUSH1 0x4 ADD PUSH2 0x365 SWAP1 PUSH2 0xBD4 JUMP JUMPDEST PUSH1 0x40 MLOAD DUP1 SWAP2 SUB SWAP1 REVERT JUMPDEST PUSH0 DUP1 PUSH0 CALLER PUSH20 0xFFFFFFFFFFFFFFFFFFFFFFFFFFFFFFFFFFFFFFFF AND PUSH20 0xFFFFFFFFFFFFFFFFFFFFFFFFFFFFFFFFFFFFFFFF AND DUP2 MSTORE PUSH1 0x20 ADD SWAP1 DUP2 MSTORE PUSH1 0x20 ADD PUSH0 KECCAK256 DUP2 SWAP1 SSTORE POP POP POP JUMP JUMPDEST PUSH0 PUSH1 0x20 MSTORE DUP1 PUSH0 MSTORE PUSH1 0x40 PUSH0 KECCAK256 PUSH0 SWAP2 POP SWAP1 POP SLOAD DUP2 JUMP JUMPDEST PUSH1 0x3 PUSH0 SWAP1 SLOAD SWAP1 PUSH2 0x100 EXP SWAP1 DIV PUSH20 0xFFFFFFFFFFFFFFFFFFFFFFFFFFFFFFFFFFFFFFFF AND PUSH20 0xFFFFFFFFFFFFFFFFFFFFFFFFFFFFFFFFFFFFFFFF AND CALLER PUSH20 0xFFFFFFFFFFFFFFFFFFFFFFFFFFFFFFFFFFFFFFFF AND EQ PUSH2 0x456 JUMPI PUSH1 0x40 MLOAD PUSH32 0x8C379A000000000000000000000000000000000000000000000000000000000 DUP2 MSTORE PUSH1 0x4 ADD PUSH2 0x44D SWAP1 PUSH2 0xC62 JUMP JUMPDEST PUSH1 0x40 MLOAD DUP1 SWAP2 SUB SWAP1 REVERT JUMPDEST DUP1 PUSH1 0x3 PUSH0 PUSH2 0x100 EXP DUP2 SLOAD DUP2 PUSH20 0xFFFFFFFFFFFFFFFFFFFFFFFFFFFFFFFFFFFFFFFF MUL NOT AND SWAP1 DUP4 PUSH20 0xFFFFFFFFFFFFFFFFFFFFFFFFFFFFFFFFFFFFFFFF AND MUL OR SWAP1 SSTORE POP POP JUMP JUMPDEST PUSH1 0x3 PUSH0 SWAP1 SLOAD SWAP1 PUSH2 0x100 EXP SWAP1 DIV PUSH20 0xFFFFFFFFFFFFFFFFFFFFFFFFFFFFFFFFFFFFFFFF AND DUP2 JUMP JUMPDEST PUSH1 0x5 SLOAD PUSH1 0x4 SLOAD PUSH2 0x4CE SWAP2 SWAP1 PUSH2 0x9CE JUMP JUMPDEST TIMESTAMP LT ISZERO PUSH2 0x510 JUMPI PUSH1 0x40 MLOAD PUSH32 0x8C379A000000000000000000000000000000000000000000000000000000000 DUP2 MSTORE PUSH1 0x4 ADD PUSH2 0x507 SWAP1 PUSH2 0xA5B JUMP JUMPDEST PUSH1 0x40 MLOAD DUP1 SWAP2 SUB SWAP1 REVERT JUMPDEST PUSH1 0x3 PUSH0 SWAP1 SLOAD SWAP1 PUSH2 0x100 EXP SWAP1 DIV PUSH20 0xFFFFFFFFFFFFFFFFFFFFFFFFFFFFFFFFFFFFFFFF AND PUSH20 0xFFFFFFFFFFFFFFFFFFFFFFFFFFFFFFFFFFFFFFFF AND CALLER PUSH20 0xFFFFFFFFFFFFFFFFFFFFFFFFFFFFFFFFFFFFFFFF AND EQ PUSH2 0x59F JUMPI PUSH1 0x40 MLOAD PUSH32 0x8C379A000000000000000000000000000000000000000000000000000000000 DUP2 MSTORE PUSH1 0x4 ADD PUSH2 0x596 SWAP1 PUSH2 0xC62 JUMP JUMPDEST PUSH1 0x40 MLOAD DUP1 SWAP2 SUB SWAP1 REVERT JUMPDEST PUSH9 0x56BC75E2D63100000 PUSH2 0x5B2 SELFBALANCE PUSH2 0x85F JUMP JUMPDEST LT ISZERO PUSH2 0x5F3 JUMPI PUSH1 0x40 MLOAD PUSH32 0x8C379A000000000000000000000000000000000000000000000000000000000 DUP2 MSTORE PUSH1 0x4 ADD PUSH2 0x5EA SWAP1 PUSH2 0xCCA JUMP JUMPDEST PUSH1 0x40 MLOAD DUP1 SWAP2 SUB SWAP1 REVERT JUMPDEST PUSH0 CALLER PUSH20 0xFFFFFFFFFFFFFFFFFFFFFFFFFFFFFFFFFFFFFFFF AND SELFBALANCE PUSH1 0x40 MLOAD PUSH2 0x618 SWAP1 PUSH2 0xB76 JUMP JUMPDEST PUSH0 PUSH1 0x40 MLOAD DUP1 DUP4 SUB DUP2 DUP6 DUP8 GAS CALL SWAP3 POP POP POP RETURNDATASIZE DUP1 PUSH0 DUP2 EQ PUSH2 0x652 JUMPI PUSH1 0x40 MLOAD SWAP2 POP PUSH1 0x1F NOT PUSH1 0x3F RETURNDATASIZE ADD AND DUP3 ADD PUSH1 0x40 MSTORE RETURNDATASIZE DUP3 MSTORE RETURNDATASIZE PUSH0 PUSH1 0x20 DUP5 ADD RETURNDATACOPY PUSH2 0x657 JUMP JUMPDEST PUSH1 0x60 SWAP2 POP JUMPDEST POP POP DUP1 SWAP2 POP POP DUP1 PUSH2 0x69D JUMPI PUSH1 0x40 MLOAD PUSH32 0x8C379A000000000000000000000000000000000000000000000000000000000 DUP2 MSTORE PUSH1 0x4 ADD PUSH2 0x694 SWAP1 PUSH2 0xBD4 JUMP JUMPDEST PUSH1 0x40 MLOAD DUP1 SWAP2 SUB SWAP1 REVERT JUMPDEST PUSH0 DUP1 PUSH0 CALLER PUSH20 0xFFFFFFFFFFFFFFFFFFFFFFFFFFFFFFFFFFFFFFFF AND PUSH20 0xFFFFFFFFFFFFFFFFFFFFFFFFFFFFFFFFFFFFFFFF AND DUP2 MSTORE PUSH1 0x20 ADD SWAP1 DUP2 MSTORE PUSH1 0x20 ADD PUSH0 KECCAK256 DUP2 SWAP1 SSTORE POP POP JUMP JUMPDEST PUSH1 0x5 SLOAD PUSH1 0x4 SLOAD PUSH2 0x6F1 SWAP2 SWAP1 PUSH2 0x9CE JUMP JUMPDEST TIMESTAMP LT PUSH2 0x732 JUMPI PUSH1 0x40 MLOAD PUSH32 0x8C379A000000000000000000000000000000000000000000000000000000000 DUP2 MSTORE PUSH1 0x4 ADD PUSH2 0x729 SWAP1 PUSH2 0xD32 JUMP JUMPDEST PUSH1 0x40 MLOAD DUP1 SWAP2 SUB SWAP1 REVERT JUMPDEST PUSH1 0x1 SLOAD PUSH2 0x73E CALLVALUE PUSH2 0x85F JUMP JUMPDEST LT ISZERO PUSH2 0x77F JUMPI PUSH1 0x40 MLOAD PUSH32 0x8C379A000000000000000000000000000000000000000000000000000000000 DUP2 MSTORE PUSH1 0x4 ADD PUSH2 0x776 SWAP1 PUSH2 0xD9A JUMP JUMPDEST PUSH1 0x40 MLOAD DUP1 SWAP2 SUB SWAP1 REVERT JUMPDEST CALLVALUE PUSH0 DUP1 CALLER PUSH20 0xFFFFFFFFFFFFFFFFFFFFFFFFFFFFFFFFFFFFFFFF AND PUSH20 0xFFFFFFFFFFFFFFFFFFFFFFFFFFFFFFFFFFFFFFFF AND DUP2 MSTORE PUSH1 0x20 ADD SWAP1 DUP2 MSTORE PUSH1 0x20 ADD PUSH0 KECCAK256 DUP2 SWAP1 SSTORE POP JUMP JUMPDEST PUSH0 DUP1 PUSH1 0x2 PUSH0 SWAP1 SLOAD SWAP1 PUSH2 0x100 EXP SWAP1 DIV PUSH20 0xFFFFFFFFFFFFFFFFFFFFFFFFFFFFFFFFFFFFFFFF AND PUSH20 0xFFFFFFFFFFFFFFFFFFFFFFFFFFFFFFFFFFFFFFFF AND PUSH4 0xFEAF968C PUSH1 0x40 MLOAD DUP2 PUSH4 0xFFFFFFFF AND PUSH1 0xE0 SHL DUP2 MSTORE PUSH1 0x4 ADD PUSH1 0xA0 PUSH1 0x40 MLOAD DUP1 DUP4 SUB DUP2 DUP7 GAS STATICCALL ISZERO DUP1 ISZERO PUSH2 0x82E JUMPI RETURNDATASIZE PUSH0 DUP1 RETURNDATACOPY RETURNDATASIZE PUSH0 REVERT JUMPDEST POP POP POP POP PUSH1 0x40 MLOAD RETURNDATASIZE PUSH1 0x1F NOT PUSH1 0x1F DUP3 ADD AND DUP3 ADD DUP1 PUSH1 0x40 MSTORE POP DUP2 ADD SWAP1 PUSH2 0x852 SWAP2 SWAP1 PUSH2 0xE4B JUMP JUMPDEST POP POP POP SWAP2 POP POP DUP1 SWAP2 POP POP SWAP1 JUMP JUMPDEST PUSH0 DUP1 PUSH2 0x869 PUSH2 0x7C2 JUMP JUMPDEST SWAP1 POP PUSH4 0x5F5E100 DUP2 DUP5 PUSH2 0x87C SWAP2 SWAP1 PUSH2 0xEC2 JUMP JUMPDEST PUSH2 0x886 SWAP2 SWAP1 PUSH2 0xF30 JUMP JUMPDEST SWAP2 POP POP SWAP2 SWAP1 POP JUMP JUMPDEST PUSH0 DUP1 REVERT JUMPDEST PUSH0 PUSH20 0xFFFFFFFFFFFFFFFFFFFFFFFFFFFFFFFFFFFFFFFF DUP3 AND SWAP1 POP SWAP2 SWAP1 POP JUMP JUMPDEST PUSH0 PUSH2 0x8BB DUP3 PUSH2 0x892 JUMP JUMPDEST SWAP1 POP SWAP2 SWAP1 POP JUMP JUMPDEST PUSH2 0x8CB DUP2 PUSH2 0x8B1 JUMP JUMPDEST DUP2 EQ PUSH2 0x8D5 JUMPI PUSH0 DUP1 REVERT JUMPDEST POP JUMP JUMPDEST PUSH0 DUP2 CALLDATALOAD SWAP1 POP PUSH2 0x8E6 DUP2 PUSH2 0x8C2 JUMP JUMPDEST SWAP3 SWAP2 POP POP JUMP JUMPDEST PUSH0 PUSH1 0x20 DUP3 DUP5 SUB SLT ISZERO PUSH2 0x901 JUMPI PUSH2 0x900 PUSH2 0x88E JUMP JUMPDEST JUMPDEST PUSH0 PUSH2 0x90E DUP5 DUP3 DUP6 ADD PUSH2 0x8D8 JUMP JUMPDEST SWAP2 POP POP SWAP3 SWAP2 POP POP JUMP JUMPDEST PUSH0 DUP2 SWAP1 POP SWAP2 SWAP1 POP JUMP JUMPDEST PUSH2 0x929 DUP2 PUSH2 0x917 JUMP JUMPDEST DUP3 MSTORE POP POP JUMP JUMPDEST PUSH0 PUSH1 0x20 DUP3 ADD SWAP1 POP PUSH2 0x942 PUSH0 DUP4 ADD DUP5 PUSH2 0x920 JUMP JUMPDEST SWAP3 SWAP2 POP POP JUMP JUMPDEST PUSH2 0x951 DUP2 PUSH2 0x8B1 JUMP JUMPDEST DUP3 MSTORE POP POP JUMP JUMPDEST PUSH0 PUSH1 0x20 DUP3 ADD SWAP1 POP PUSH2 0x96A PUSH0 DUP4 ADD DUP5 PUSH2 0x948 JUMP JUMPDEST SWAP3 SWAP2 POP POP JUMP JUMPDEST PUSH0 DUP2 SWAP1 POP SWAP2 SWAP1 POP JUMP JUMPDEST PUSH2 0x982 DUP2 PUSH2 0x970 JUMP JUMPDEST DUP3 MSTORE POP POP JUMP JUMPDEST PUSH0 PUSH1 0x20 DUP3 ADD SWAP1 POP PUSH2 0x99B PUSH0 DUP4 ADD DUP5 PUSH2 0x979 JUMP JUMPDEST SWAP3 SWAP2 POP POP JUMP JUMPDEST PUSH32 0x4E487B7100000000000000000000000000000000000000000000000000000000 PUSH0 MSTORE PUSH1 0x11 PUSH1 0x4 MSTORE PUSH1 0x24 PUSH0 REVERT JUMPDEST PUSH0 PUSH2 0x9D8 DUP3 PUSH2 0x917 JUMP JUMPDEST SWAP2 POP PUSH2 0x9E3 DUP4 PUSH2 0x917 JUMP JUMPDEST SWAP3 POP DUP3 DUP3 ADD SWAP1 POP DUP1 DUP3 GT ISZERO PUSH2 0x9FB JUMPI PUSH2 0x9FA PUSH2 0x9A1 JUMP JUMPDEST JUMPDEST SWAP3 SWAP2 POP POP JUMP JUMPDEST PUSH0 DUP3 DUP3 MSTORE PUSH1 0x20 DUP3 ADD SWAP1 POP SWAP3 SWAP2 POP POP JUMP JUMPDEST PUSH32 0x77696E646F77206973206E6F7420636C6F736564000000000000000000000000 PUSH0 DUP3 ADD MSTORE POP JUMP JUMPDEST PUSH0 PUSH2 0xA45 PUSH1 0x14 DUP4 PUSH2 0xA01 JUMP JUMPDEST SWAP2 POP PUSH2 0xA50 DUP3 PUSH2 0xA11 JUMP JUMPDEST PUSH1 0x20 DUP3 ADD SWAP1 POP SWAP2 SWAP1 POP JUMP JUMPDEST PUSH0 PUSH1 0x20 DUP3 ADD SWAP1 POP DUP2 DUP2 SUB PUSH0 DUP4 ADD MSTORE PUSH2 0xA72 DUP2 PUSH2 0xA39 JUMP JUMPDEST SWAP1 POP SWAP2 SWAP1 POP JUMP JUMPDEST PUSH32 0x7461726765742069732072656163686564000000000000000000000000000000 PUSH0 DUP3 ADD MSTORE POP JUMP JUMPDEST PUSH0 PUSH2 0xAAD PUSH1 0x11 DUP4 PUSH2 0xA01 JUMP JUMPDEST SWAP2 POP PUSH2 0xAB8 DUP3 PUSH2 0xA79 JUMP JUMPDEST PUSH1 0x20 DUP3 ADD SWAP1 POP SWAP2 SWAP1 POP JUMP JUMPDEST PUSH0 PUSH1 0x20 DUP3 ADD SWAP1 POP DUP2 DUP2 SUB PUSH0 DUP4 ADD MSTORE PUSH2 0xADA DUP2 PUSH2 0xAA1 JUMP JUMPDEST SWAP1 POP SWAP2 SWAP1 POP JUMP JUMPDEST PUSH32 0x7468657265206973206E6F742066756E6420666F7220796F7500000000000000 PUSH0 DUP3 ADD MSTORE POP JUMP JUMPDEST PUSH0 PUSH2 0xB15 PUSH1 0x19 DUP4 PUSH2 0xA01 JUMP JUMPDEST SWAP2 POP PUSH2 0xB20 DUP3 PUSH2 0xAE1 JUMP JUMPDEST PUSH1 0x20 DUP3 ADD SWAP1 POP SWAP2 SWAP1 POP JUMP JUMPDEST PUSH0 PUSH1 0x20 DUP3 ADD SWAP1 POP DUP2 DUP2 SUB PUSH0 DUP4 ADD MSTORE PUSH2 0xB42 DUP2 PUSH2 0xB09 JUMP JUMPDEST SWAP1 POP SWAP2 SWAP1 POP JUMP JUMPDEST PUSH0 DUP2 SWAP1 POP SWAP3 SWAP2 POP POP JUMP JUMPDEST POP JUMP JUMPDEST PUSH0 PUSH2 0xB61 PUSH0 DUP4 PUSH2 0xB49 JUMP JUMPDEST SWAP2 POP PUSH2 0xB6C DUP3 PUSH2 0xB53 JUMP JUMPDEST PUSH0 DUP3 ADD SWAP1 POP SWAP2 SWAP1 POP JUMP JUMPDEST PUSH0 PUSH2 0xB80 DUP3 PUSH2 0xB56 JUMP JUMPDEST SWAP2 POP DUP2 SWAP1 POP SWAP2 SWAP1 POP JUMP JUMPDEST PUSH32 0x7472616E73666572207478206661696C65640000000000000000000000000000 PUSH0 DUP3 ADD MSTORE POP JUMP JUMPDEST PUSH0 PUSH2 0xBBE PUSH1 0x12 DUP4 PUSH2 0xA01 JUMP JUMPDEST SWAP2 POP PUSH2 0xBC9 DUP3 PUSH2 0xB8A JUMP JUMPDEST PUSH1 0x20 DUP3 ADD SWAP1 POP SWAP2 SWAP1 POP JUMP JUMPDEST PUSH0 PUSH1 0x20 DUP3 ADD SWAP1 POP DUP2 DUP2 SUB PUSH0 DUP4 ADD MSTORE PUSH2 0xBEB DUP2 PUSH2 0xBB2 JUMP JUMPDEST SWAP1 POP SWAP2 SWAP1 POP JUMP JUMPDEST PUSH32 0x746869732066756E6374696F6E2063616E206F6E6C792062652063616C6C6564 PUSH0 DUP3 ADD MSTORE PUSH32 0x206279206F776E65720000000000000000000000000000000000000000000000 PUSH1 0x20 DUP3 ADD MSTORE POP JUMP JUMPDEST PUSH0 PUSH2 0xC4C PUSH1 0x29 DUP4 PUSH2 0xA01 JUMP JUMPDEST SWAP2 POP PUSH2 0xC57 DUP3 PUSH2 0xBF2 JUMP JUMPDEST PUSH1 0x40 DUP3 ADD SWAP1 POP SWAP2 SWAP1 POP JUMP JUMPDEST PUSH0 PUSH1 0x20 DUP3 ADD SWAP1 POP DUP2 DUP2 SUB PUSH0 DUP4 ADD MSTORE PUSH2 0xC79 DUP2 PUSH2 0xC40 JUMP JUMPDEST SWAP1 POP SWAP2 SWAP1 POP JUMP JUMPDEST PUSH32 0x746172676574206973206E6F7420726561636865640000000000000000000000 PUSH0 DUP3 ADD MSTORE POP JUMP JUMPDEST PUSH0 PUSH2 0xCB4 PUSH1 0x15 DUP4 PUSH2 0xA01 JUMP JUMPDEST SWAP2 POP PUSH2 0xCBF DUP3 PUSH2 0xC80 JUMP JUMPDEST PUSH1 0x20 DUP3 ADD SWAP1 POP SWAP2 SWAP1 POP JUMP JUMPDEST PUSH0 PUSH1 0x20 DUP3 ADD SWAP1 POP DUP2 DUP2 SUB PUSH0 DUP4 ADD MSTORE PUSH2 0xCE1 DUP2 PUSH2 0xCA8 JUMP JUMPDEST SWAP1 POP SWAP2 SWAP1 POP JUMP JUMPDEST PUSH32 0x77696E646F7720697320636C6F73656400000000000000000000000000000000 PUSH0 DUP3 ADD MSTORE POP JUMP JUMPDEST PUSH0 PUSH2 0xD1C PUSH1 0x10 DUP4 PUSH2 0xA01 JUMP JUMPDEST SWAP2 POP PUSH2 0xD27 DUP3 PUSH2 0xCE8 JUMP JUMPDEST PUSH1 0x20 DUP3 ADD SWAP1 POP SWAP2 SWAP1 POP JUMP JUMPDEST PUSH0 PUSH1 0x20 DUP3 ADD SWAP1 POP DUP2 DUP2 SUB PUSH0 DUP4 ADD MSTORE PUSH2 0xD49 DUP2 PUSH2 0xD10 JUMP JUMPDEST SWAP1 POP SWAP2 SWAP1 POP JUMP JUMPDEST PUSH32 0x73656E64206D6F72652045544800000000000000000000000000000000000000 PUSH0 DUP3 ADD MSTORE POP JUMP JUMPDEST PUSH0 PUSH2 0xD84 PUSH1 0xD DUP4 PUSH2 0xA01 JUMP JUMPDEST SWAP2 POP PUSH2 0xD8F DUP3 PUSH2 0xD50 JUMP JUMPDEST PUSH1 0x20 DUP3 ADD SWAP1 POP SWAP2 SWAP1 POP JUMP JUMPDEST PUSH0 PUSH1 0x20 DUP3 ADD SWAP1 POP DUP2 DUP2 SUB PUSH0 DUP4 ADD MSTORE PUSH2 0xDB1 DUP2 PUSH2 0xD78 JUMP JUMPDEST SWAP1 POP SWAP2 SWAP1 POP JUMP JUMPDEST PUSH0 PUSH10 0xFFFFFFFFFFFFFFFFFFFF DUP3 AND SWAP1 POP SWAP2 SWAP1 POP JUMP JUMPDEST PUSH2 0xDD6 DUP2 PUSH2 0xDB8 JUMP JUMPDEST DUP2 EQ PUSH2 0xDE0 JUMPI PUSH0 DUP1 REVERT JUMPDEST POP JUMP JUMPDEST PUSH0 DUP2 MLOAD SWAP1 POP PUSH2 0xDF1 DUP2 PUSH2 0xDCD JUMP JUMPDEST SWAP3 SWAP2 POP POP JUMP JUMPDEST PUSH2 0xE00 DUP2 PUSH2 0x970 JUMP JUMPDEST DUP2 EQ PUSH2 0xE0A JUMPI PUSH0 DUP1 REVERT JUMPDEST POP JUMP JUMPDEST PUSH0 DUP2 MLOAD SWAP1 POP PUSH2 0xE1B DUP2 PUSH2 0xDF7 JUMP JUMPDEST SWAP3 SWAP2 POP POP JUMP JUMPDEST PUSH2 0xE2A DUP2 PUSH2 0x917 JUMP JUMPDEST DUP2 EQ PUSH2 0xE34 JUMPI PUSH0 DUP1 REVERT JUMPDEST POP JUMP JUMPDEST PUSH0 DUP2 MLOAD SWAP1 POP PUSH2 0xE45 DUP2 PUSH2 0xE21 JUMP JUMPDEST SWAP3 SWAP2 POP POP JUMP JUMPDEST PUSH0 DUP1 PUSH0 DUP1 PUSH0 PUSH1 0xA0 DUP7 DUP9 SUB SLT ISZERO PUSH2 0xE64 JUMPI PUSH2 0xE63 PUSH2 0x88E JUMP JUMPDEST JUMPDEST PUSH0 PUSH2 0xE71 DUP9 DUP3 DUP10 ADD PUSH2 0xDE3 JUMP JUMPDEST SWAP6 POP POP PUSH1 0x20 PUSH2 0xE82 DUP9 DUP3 DUP10 ADD PUSH2 0xE0D JUMP JUMPDEST SWAP5 POP POP PUSH1 0x40 PUSH2 0xE93 DUP9 DUP3 DUP10 ADD PUSH2 0xE37 JUMP JUMPDEST SWAP4 POP POP PUSH1 0x60 PUSH2 0xEA4 DUP9 DUP3 DUP10 ADD PUSH2 0xE37 JUMP JUMPDEST SWAP3 POP POP PUSH1 0x80 PUSH2 0xEB5 DUP9 DUP3 DUP10 ADD PUSH2 0xDE3 JUMP JUMPDEST SWAP2 POP POP SWAP3 SWAP6 POP SWAP3 SWAP6 SWAP1 SWAP4 POP JUMP JUMPDEST PUSH0 PUSH2 0xECC DUP3 PUSH2 0x917 JUMP JUMPDEST SWAP2 POP PUSH2 0xED7 DUP4 PUSH2 0x917 JUMP JUMPDEST SWAP3 POP DUP3 DUP3 MUL PUSH2 0xEE5 DUP2 PUSH2 0x917 JUMP JUMPDEST SWAP2 POP DUP3 DUP3 DIV DUP5 EQ DUP4 ISZERO OR PUSH2 0xEFC JUMPI PUSH2 0xEFB PUSH2 0x9A1 JUMP JUMPDEST JUMPDEST POP SWAP3 SWAP2 POP POP JUMP JUMPDEST PUSH32 0x4E487B7100000000000000000000000000000000000000000000000000000000 PUSH0 MSTORE PUSH1 0x12 PUSH1 0x4 MSTORE PUSH1 0x24 PUSH0 REVERT JUMPDEST PUSH0 PUSH2 0xF3A DUP3 PUSH2 0x917 JUMP JUMPDEST SWAP2 POP PUSH2 0xF45 DUP4 PUSH2 0x917 JUMP JUMPDEST SWAP3 POP DUP3 PUSH2 0xF55 JUMPI PUSH2 0xF54 PUSH2 0xF03 JUMP JUMPDEST JUMPDEST DUP3 DUP3 DIV SWAP1 POP SWAP3 SWAP2 POP POP JUMP INVALID LOG2 PUSH5 0x6970667358 0x22 SLT KECCAK256 0xCE SWAP12 PUSH15 0xDD7C157429AE323ECE2A2F92F63731 0x2F PUSH20 0x8DE3374ADE19C1BF4547DF1C64736F6C63430008 BYTE STOP CALLER "
				},
				"gasEstimates": {
					"creation": {
						"codeDepositCost": "798000",
						"executionCost": "infinite",
						"totalCost": "infinite"
					},
					"external": {
						"fund()": "infinite",
						"funderToAmount(address)": "2824",
						"getChainlinkDataFeedLatestAnswer()": "infinite",
						"getFund()": "infinite",
						"owner()": "2508",
						"reFund()": "infinite",
						"transferOwnerShip(address)": "26929"
					},
					"internal": {
						"convertEthToUsd(uint256)": "infinite"
					}
				},
				"methodIdentifiers": {
					"fund()": "b60d4288",
					"funderToAmount(address)": "4407e1e8",
					"getChainlinkDataFeedLatestAnswer()": "bea4dfb5",
					"getFund()": "8edd6eb6",
					"owner()": "8da5cb5b",
					"reFund()": "0ff0a4df",
					"transferOwnerShip(address)": "8863dd1a"
				}
			},
			"storageLayout": {
				"storage": [
					{
						"astId": 53,
						"contract": "contracts/FundMe.sol:FundMe",
						"label": "funderToAmount",
						"offset": 0,
						"slot": "0",
						"type": "t_mapping(t_address,t_uint256)"
					},
					{
						"astId": 60,
						"contract": "contracts/FundMe.sol:FundMe",
						"label": "MINMUM_VALUE",
						"offset": 0,
						"slot": "1",
						"type": "t_uint256"
					},
					{
						"astId": 63,
						"contract": "contracts/FundMe.sol:FundMe",
						"label": "dataFeed",
						"offset": 0,
						"slot": "2",
						"type": "t_contract(AggregatorV3Interface)45"
					},
					{
						"astId": 72,
						"contract": "contracts/FundMe.sol:FundMe",
						"label": "owner",
						"offset": 0,
						"slot": "3",
						"type": "t_address"
					},
					{
						"astId": 74,
						"contract": "contracts/FundMe.sol:FundMe",
						"label": "deploymentTimestamp",
						"offset": 0,
						"slot": "4",
						"type": "t_uint256"
					},
					{
						"astId": 76,
						"contract": "contracts/FundMe.sol:FundMe",
						"label": "lockTime",
						"offset": 0,
						"slot": "5",
						"type": "t_uint256"
					}
				],
				"types": {
					"t_address": {
						"encoding": "inplace",
						"label": "address",
						"numberOfBytes": "20"
					},
					"t_contract(AggregatorV3Interface)45": {
						"encoding": "inplace",
						"label": "contract AggregatorV3Interface",
						"numberOfBytes": "20"
					},
					"t_mapping(t_address,t_uint256)": {
						"encoding": "mapping",
						"key": "t_address",
						"label": "mapping(address => uint256)",
						"numberOfBytes": "32",
						"value": "t_uint256"
					},
					"t_uint256": {
						"encoding": "inplace",
						"label": "uint256",
						"numberOfBytes": "32"
					}
				}
			},
			"userdoc": {
				"kind": "user",
				"methods": {
					"fund()": {
						"notice": "1.创建一个收款函数"
					},
					"getChainlinkDataFeedLatestAnswer()": {
						"notice": "Returns the latest answer."
					}
				},
				"version": 1
			}
		}
	}
}