{
	"contracts/FundMe.sol": {
		"FundMe": {
			"abi": [
				{
					"inputs": [],
					"stateMutability": "nonpayable",
					"type": "constructor"
				},
				{
					"inputs": [],
					"name": "fund",
					"outputs": [],
					"stateMutability": "payable",
					"type": "function"
				},
				{
					"inputs": [
						{
							"internalType": "address",
							"name": "",
							"type": "address"
						}
					],
					"name": "funderToAmount",
					"outputs": [
						{
							"internalType": "uint256",
							"name": "",
							"type": "uint256"
						}
					],
					"stateMutability": "view",
					"type": "function"
				},
				{
					"inputs": [],
					"name": "getChainlinkDataFeedLatestAnswer",
					"outputs": [
						{
							"internalType": "int256",
							"name": "",
							"type": "int256"
						}
					],
					"stateMutability": "view",
					"type": "function"
				},
				{
					"inputs": [],
					"name": "getFund",
					"outputs": [],
					"stateMutability": "nonpayable",
					"type": "function"
				},
				{
					"inputs": [],
					"name": "owner",
					"outputs": [
						{
							"internalType": "address",
							"name": "",
							"type": "address"
						}
					],
					"stateMutability": "view",
					"type": "function"
				},
				{
					"inputs": [
						{
							"internalType": "address",
							"name": "newOwner",
							"type": "address"
						}
					],
					"name": "transferOwnerShip",
					"outputs": [],
					"stateMutability": "nonpayable",
					"type": "function"
				}
			],
			"devdoc": {
				"kind": "dev",
				"methods": {},
				"version": 1
			},
			"evm": {
				"assembly": "    /* \"contracts/FundMe.sol\":171:2956  contract FundMe {... */\n  mstore(0x40, 0x80)\n    /* \"contracts/FundMe.sol\":272:283  10 * 10**18 */\n  0x8ac7230489e80000\n    /* \"contracts/FundMe.sol\":249:283  uint256 MINMUM_VALUE = 10 * 10**18 */\n  0x01\n  sstore\n    /* \"contracts/FundMe.sol\":436:620  constructor() {... */\n  callvalue\n  dup1\n  iszero\n  tag_1\n  jumpi\n  0x00\n  dup1\n  revert\ntag_1:\n  pop\n    /* \"contracts/FundMe.sol\":533:575  0x694AA1769357215DE4FAC081bf1f309aDC325306 */\n  0x694aa1769357215de4fac081bf1f309adc325306\n    /* \"contracts/FundMe.sol\":487:495  dataFeed */\n  0x02\n  0x00\n    /* \"contracts/FundMe.sol\":487:585  dataFeed = AggregatorV3Interface(... */\n  0x0100\n  exp\n  dup2\n  sload\n  dup2\n  0xffffffffffffffffffffffffffffffffffffffff\n  mul\n  not\n  and\n  swap1\n  dup4\n  0xffffffffffffffffffffffffffffffffffffffff\n  and\n  mul\n  or\n  swap1\n  sstore\n  pop\n    /* \"contracts/FundMe.sol\":603:613  msg.sender */\n  caller\n    /* \"contracts/FundMe.sol\":595:600  owner */\n  0x03\n  0x00\n    /* \"contracts/FundMe.sol\":595:613  owner = msg.sender */\n  0x0100\n  exp\n  dup2\n  sload\n  dup2\n  0xffffffffffffffffffffffffffffffffffffffff\n  mul\n  not\n  and\n  swap1\n  dup4\n  0xffffffffffffffffffffffffffffffffffffffff\n  and\n  mul\n  or\n  swap1\n  sstore\n  pop\n    /* \"contracts/FundMe.sol\":171:2956  contract FundMe {... */\n  dataSize(sub_0)\n  dup1\n  dataOffset(sub_0)\n  0x00\n  codecopy\n  0x00\n  return\nstop\n\nsub_0: assembly {\n        /* \"contracts/FundMe.sol\":171:2956  contract FundMe {... */\n      mstore(0x40, 0x80)\n      jumpi(tag_1, lt(calldatasize, 0x04))\n      shr(0xe0, calldataload(0x00))\n      dup1\n      0x4407e1e8\n      eq\n      tag_2\n      jumpi\n      dup1\n      0x8863dd1a\n      eq\n      tag_3\n      jumpi\n      dup1\n      0x8da5cb5b\n      eq\n      tag_4\n      jumpi\n      dup1\n      0x8edd6eb6\n      eq\n      tag_5\n      jumpi\n      dup1\n      0xb60d4288\n      eq\n      tag_6\n      jumpi\n      dup1\n      0xbea4dfb5\n      eq\n      tag_7\n      jumpi\n    tag_1:\n      0x00\n      dup1\n      revert\n        /* \"contracts/FundMe.sol\":193:242  mapping(address => uint256) public funderToAmount */\n    tag_2:\n      callvalue\n      dup1\n      iszero\n      tag_8\n      jumpi\n      0x00\n      dup1\n      revert\n    tag_8:\n      pop\n      tag_9\n      0x04\n      dup1\n      calldatasize\n      sub\n      dup2\n      add\n      swap1\n      tag_10\n      swap2\n      swap1\n      tag_11\n      jump\t// in\n    tag_10:\n      tag_12\n      jump\t// in\n    tag_9:\n      mload(0x40)\n      tag_13\n      swap2\n      swap1\n      tag_14\n      jump\t// in\n    tag_13:\n      mload(0x40)\n      dup1\n      swap2\n      sub\n      swap1\n      return\n        /* \"contracts/FundMe.sol\":1677:2005  function transferOwnerShip(address newOwner) public {... */\n    tag_3:\n      callvalue\n      dup1\n      iszero\n      tag_15\n      jumpi\n      0x00\n      dup1\n      revert\n    tag_15:\n      pop\n      tag_16\n      0x04\n      dup1\n      calldatasize\n      sub\n      dup2\n      add\n      swap1\n      tag_17\n      swap2\n      swap1\n      tag_11\n      jump\t// in\n    tag_17:\n      tag_18\n      jump\t// in\n    tag_16:\n      stop\n        /* \"contracts/FundMe.sol\":409:429  address public owner */\n    tag_4:\n      callvalue\n      dup1\n      iszero\n      tag_19\n      jumpi\n      0x00\n      dup1\n      revert\n    tag_19:\n      pop\n      tag_20\n      tag_21\n      jump\t// in\n    tag_20:\n      mload(0x40)\n      tag_22\n      swap2\n      swap1\n      tag_23\n      jump\t// in\n    tag_22:\n      mload(0x40)\n      dup1\n      swap2\n      sub\n      swap1\n      return\n        /* \"contracts/FundMe.sol\":2142:2954  function getFund() external {... */\n    tag_5:\n      callvalue\n      dup1\n      iszero\n      tag_24\n      jumpi\n      0x00\n      dup1\n      revert\n    tag_24:\n      pop\n      tag_25\n      tag_26\n      jump\t// in\n    tag_25:\n      stop\n        /* \"contracts/FundMe.sol\":660:910  function fund() external payable {... */\n    tag_6:\n      tag_27\n      tag_28\n      jump\t// in\n    tag_27:\n      stop\n        /* \"contracts/FundMe.sol\":966:1307  function getChainlinkDataFeedLatestAnswer() public view returns (int256) {... */\n    tag_7:\n      callvalue\n      dup1\n      iszero\n      tag_29\n      jumpi\n      0x00\n      dup1\n      revert\n    tag_29:\n      pop\n      tag_30\n      tag_31\n      jump\t// in\n    tag_30:\n      mload(0x40)\n      tag_32\n      swap2\n      swap1\n      tag_33\n      jump\t// in\n    tag_32:\n      mload(0x40)\n      dup1\n      swap2\n      sub\n      swap1\n      return\n        /* \"contracts/FundMe.sol\":193:242  mapping(address => uint256) public funderToAmount */\n    tag_12:\n      mstore(0x20, 0x00)\n      dup1\n      0x00\n      mstore\n      keccak256(0x00, 0x40)\n      0x00\n      swap2\n      pop\n      swap1\n      pop\n      sload\n      dup2\n      jump\t// out\n        /* \"contracts/FundMe.sol\":1677:2005  function transferOwnerShip(address newOwner) public {... */\n    tag_18:\n        /* \"contracts/FundMe.sol\":1774:1779  owner */\n      0x03\n      0x00\n      swap1\n      sload\n      swap1\n      0x0100\n      exp\n      swap1\n      div\n      0xffffffffffffffffffffffffffffffffffffffff\n      and\n        /* \"contracts/FundMe.sol\":1760:1779  msg.sender == owner */\n      0xffffffffffffffffffffffffffffffffffffffff\n      and\n        /* \"contracts/FundMe.sol\":1760:1770  msg.sender */\n      caller\n        /* \"contracts/FundMe.sol\":1760:1779  msg.sender == owner */\n      0xffffffffffffffffffffffffffffffffffffffff\n      and\n      eq\n        /* \"contracts/FundMe.sol\":1739:1846  require(... */\n      tag_35\n      jumpi\n      mload(0x40)\n      0x08c379a000000000000000000000000000000000000000000000000000000000\n      dup2\n      mstore\n      0x04\n      add\n      tag_36\n      swap1\n      tag_37\n      jump\t// in\n    tag_36:\n      mload(0x40)\n      dup1\n      swap2\n      sub\n      swap1\n      revert\n    tag_35:\n        /* \"contracts/FundMe.sol\":1864:1872  newOwner */\n      dup1\n        /* \"contracts/FundMe.sol\":1856:1861  owner */\n      0x03\n      0x00\n        /* \"contracts/FundMe.sol\":1856:1872  owner = newOwner */\n      0x0100\n      exp\n      dup2\n      sload\n      dup2\n      0xffffffffffffffffffffffffffffffffffffffff\n      mul\n      not\n      and\n      swap1\n      dup4\n      0xffffffffffffffffffffffffffffffffffffffff\n      and\n      mul\n      or\n      swap1\n      sstore\n      pop\n        /* \"contracts/FundMe.sol\":390:402  100 * 10**18 */\n      0x056bc75e2d63100000\n        /* \"contracts/FundMe.sol\":1903:1941  convertEthToUsd(address(this).balance) */\n      tag_38\n        /* \"contracts/FundMe.sol\":1919:1940  address(this).balance */\n      selfbalance\n        /* \"contracts/FundMe.sol\":1903:1918  convertEthToUsd */\n      tag_39\n        /* \"contracts/FundMe.sol\":1903:1941  convertEthToUsd(address(this).balance) */\n      jump\t// in\n    tag_38:\n        /* \"contracts/FundMe.sol\":1903:1951  convertEthToUsd(address(this).balance) >= TARGET */\n      lt\n      iszero\n        /* \"contracts/FundMe.sol\":1882:1998  require(... */\n      tag_40\n      jumpi\n      mload(0x40)\n      0x08c379a000000000000000000000000000000000000000000000000000000000\n      dup2\n      mstore\n      0x04\n      add\n      tag_41\n      swap1\n      tag_42\n      jump\t// in\n    tag_41:\n      mload(0x40)\n      dup1\n      swap2\n      sub\n      swap1\n      revert\n    tag_40:\n        /* \"contracts/FundMe.sol\":1677:2005  function transferOwnerShip(address newOwner) public {... */\n      pop\n      jump\t// out\n        /* \"contracts/FundMe.sol\":409:429  address public owner */\n    tag_21:\n      0x03\n      0x00\n      swap1\n      sload\n      swap1\n      0x0100\n      exp\n      swap1\n      div\n      0xffffffffffffffffffffffffffffffffffffffff\n      and\n      dup2\n      jump\t// out\n        /* \"contracts/FundMe.sol\":2142:2954  function getFund() external {... */\n    tag_26:\n        /* \"contracts/FundMe.sol\":390:402  100 * 10**18 */\n      0x056bc75e2d63100000\n        /* \"contracts/FundMe.sol\":2201:2239  convertEthToUsd(address(this).balance) */\n      tag_44\n        /* \"contracts/FundMe.sol\":2217:2238  address(this).balance */\n      selfbalance\n        /* \"contracts/FundMe.sol\":2201:2216  convertEthToUsd */\n      tag_39\n        /* \"contracts/FundMe.sol\":2201:2239  convertEthToUsd(address(this).balance) */\n      jump\t// in\n    tag_44:\n        /* \"contracts/FundMe.sol\":2201:2249  convertEthToUsd(address(this).balance) >= TARGET */\n      lt\n      iszero\n        /* \"contracts/FundMe.sol\":2180:2296  require(... */\n      tag_45\n      jumpi\n      mload(0x40)\n      0x08c379a000000000000000000000000000000000000000000000000000000000\n      dup2\n      mstore\n      0x04\n      add\n      tag_46\n      swap1\n      tag_42\n      jump\t// in\n    tag_46:\n      mload(0x40)\n      dup1\n      swap2\n      sub\n      swap1\n      revert\n    tag_45:\n        /* \"contracts/FundMe.sol\":2341:2346  owner */\n      0x03\n      0x00\n      swap1\n      sload\n      swap1\n      0x0100\n      exp\n      swap1\n      div\n      0xffffffffffffffffffffffffffffffffffffffff\n      and\n        /* \"contracts/FundMe.sol\":2327:2346  msg.sender == owner */\n      0xffffffffffffffffffffffffffffffffffffffff\n      and\n        /* \"contracts/FundMe.sol\":2327:2337  msg.sender */\n      caller\n        /* \"contracts/FundMe.sol\":2327:2346  msg.sender == owner */\n      0xffffffffffffffffffffffffffffffffffffffff\n      and\n      eq\n        /* \"contracts/FundMe.sol\":2306:2413  require(... */\n      tag_47\n      jumpi\n      mload(0x40)\n      0x08c379a000000000000000000000000000000000000000000000000000000000\n      dup2\n      mstore\n      0x04\n      add\n      tag_48\n      swap1\n      tag_37\n      jump\t// in\n    tag_48:\n      mload(0x40)\n      dup1\n      swap2\n      sub\n      swap1\n      revert\n    tag_47:\n        /* \"contracts/FundMe.sol\":2815:2827  bool success */\n      0x00\n        /* \"contracts/FundMe.sol\":2859:2869  msg.sender */\n      caller\n        /* \"contracts/FundMe.sol\":2851:2875  payable(msg.sender).call */\n      0xffffffffffffffffffffffffffffffffffffffff\n      and\n        /* \"contracts/FundMe.sol\":2883:2904  address(this).balance */\n      selfbalance\n        /* \"contracts/FundMe.sol\":2851:2909  payable(msg.sender).call{value: address(this).balance}(\"\") */\n      mload(0x40)\n      tag_49\n      swap1\n      tag_50\n      jump\t// in\n    tag_49:\n      0x00\n      mload(0x40)\n      dup1\n      dup4\n      sub\n      dup2\n      dup6\n      dup8\n      gas\n      call\n      swap3\n      pop\n      pop\n      pop\n      returndatasize\n      dup1\n      0x00\n      dup2\n      eq\n      tag_53\n      jumpi\n      mload(0x40)\n      swap2\n      pop\n      and(add(returndatasize, 0x3f), not(0x1f))\n      dup3\n      add\n      0x40\n      mstore\n      returndatasize\n      dup3\n      mstore\n      returndatasize\n      0x00\n      0x20\n      dup5\n      add\n      returndatacopy\n      jump(tag_52)\n    tag_53:\n      0x60\n      swap2\n      pop\n    tag_52:\n      pop\n        /* \"contracts/FundMe.sol\":2837:2909  (success, ) = payable(msg.sender).call{value: address(this).balance}(\"\") */\n      pop\n      dup1\n      swap2\n      pop\n      pop\n        /* \"contracts/FundMe.sol\":2927:2934  success */\n      dup1\n        /* \"contracts/FundMe.sol\":2919:2947  require(success,\"tx failed\") */\n      tag_54\n      jumpi\n      mload(0x40)\n      0x08c379a000000000000000000000000000000000000000000000000000000000\n      dup2\n      mstore\n      0x04\n      add\n      tag_55\n      swap1\n      tag_56\n      jump\t// in\n    tag_55:\n      mload(0x40)\n      dup1\n      swap2\n      sub\n      swap1\n      revert\n    tag_54:\n        /* \"contracts/FundMe.sol\":2170:2954  {... */\n      pop\n        /* \"contracts/FundMe.sol\":2142:2954  function getFund() external {... */\n      jump\t// out\n        /* \"contracts/FundMe.sol\":660:910  function fund() external payable {... */\n    tag_28:\n        /* \"contracts/FundMe.sol\":778:790  MINMUM_VALUE */\n      sload(0x01)\n        /* \"contracts/FundMe.sol\":748:774  convertEthToUsd(msg.value) */\n      tag_58\n        /* \"contracts/FundMe.sol\":764:773  msg.value */\n      callvalue\n        /* \"contracts/FundMe.sol\":748:763  convertEthToUsd */\n      tag_39\n        /* \"contracts/FundMe.sol\":748:774  convertEthToUsd(msg.value) */\n      jump\t// in\n    tag_58:\n        /* \"contracts/FundMe.sol\":748:790  convertEthToUsd(msg.value) >= MINMUM_VALUE */\n      lt\n      iszero\n        /* \"contracts/FundMe.sol\":740:808  require(convertEthToUsd(msg.value) >= MINMUM_VALUE, \"send more ETH\") */\n      tag_59\n      jumpi\n      mload(0x40)\n      0x08c379a000000000000000000000000000000000000000000000000000000000\n      dup2\n      mstore\n      0x04\n      add\n      tag_60\n      swap1\n      tag_61\n      jump\t// in\n    tag_60:\n      mload(0x40)\n      dup1\n      swap2\n      sub\n      swap1\n      revert\n    tag_59:\n        /* \"contracts/FundMe.sol\":894:903  msg.value */\n      callvalue\n        /* \"contracts/FundMe.sol\":865:879  funderToAmount */\n      0x00\n        /* \"contracts/FundMe.sol\":865:891  funderToAmount[msg.sender] */\n      dup1\n        /* \"contracts/FundMe.sol\":880:890  msg.sender */\n      caller\n        /* \"contracts/FundMe.sol\":865:891  funderToAmount[msg.sender] */\n      0xffffffffffffffffffffffffffffffffffffffff\n      and\n      0xffffffffffffffffffffffffffffffffffffffff\n      and\n      dup2\n      mstore\n      0x20\n      add\n      swap1\n      dup2\n      mstore\n      0x20\n      add\n      0x00\n      keccak256\n        /* \"contracts/FundMe.sol\":865:903  funderToAmount[msg.sender] = msg.value */\n      dup2\n      swap1\n      sstore\n      pop\n        /* \"contracts/FundMe.sol\":660:910  function fund() external payable {... */\n      jump\t// out\n        /* \"contracts/FundMe.sol\":966:1307  function getChainlinkDataFeedLatestAnswer() public view returns (int256) {... */\n    tag_31:\n        /* \"contracts/FundMe.sol\":1031:1037  int256 */\n      0x00\n        /* \"contracts/FundMe.sol\":1124:1134  int answer */\n      dup1\n        /* \"contracts/FundMe.sol\":1251:1259  dataFeed */\n      0x02\n      0x00\n      swap1\n      sload\n      swap1\n      0x0100\n      exp\n      swap1\n      div\n      0xffffffffffffffffffffffffffffffffffffffff\n      and\n        /* \"contracts/FundMe.sol\":1251:1275  dataFeed.latestRoundData */\n      0xffffffffffffffffffffffffffffffffffffffff\n      and\n      0xfeaf968c\n        /* \"contracts/FundMe.sol\":1251:1277  dataFeed.latestRoundData() */\n      mload(0x40)\n      dup2\n      0xffffffff\n      and\n      0xe0\n      shl\n      dup2\n      mstore\n      0x04\n      add\n      0xa0\n      mload(0x40)\n      dup1\n      dup4\n      sub\n      dup2\n      dup7\n      gas\n      staticcall\n      iszero\n      dup1\n      iszero\n      tag_64\n      jumpi\n      returndatasize\n      0x00\n      dup1\n      returndatacopy\n      revert(0x00, returndatasize)\n    tag_64:\n      pop\n      pop\n      pop\n      pop\n      mload(0x40)\n      returndatasize\n      not(0x1f)\n      0x1f\n      dup3\n      add\n      and\n      dup3\n      add\n      dup1\n      0x40\n      mstore\n      pop\n      dup2\n      add\n      swap1\n      tag_65\n      swap2\n      swap1\n      tag_66\n      jump\t// in\n    tag_65:\n        /* \"contracts/FundMe.sol\":1076:1277  (... */\n      pop\n      pop\n      pop\n      swap2\n      pop\n      pop\n        /* \"contracts/FundMe.sol\":1294:1300  answer */\n      dup1\n        /* \"contracts/FundMe.sol\":1287:1300  return answer */\n      swap2\n      pop\n      pop\n        /* \"contracts/FundMe.sol\":966:1307  function getChainlinkDataFeedLatestAnswer() public view returns (int256) {... */\n      swap1\n      jump\t// out\n        /* \"contracts/FundMe.sol\":1313:1671  function convertEthToUsd(uint256 ethAmount)... */\n    tag_39:\n        /* \"contracts/FundMe.sol\":1404:1411  uint256 */\n      0x00\n        /* \"contracts/FundMe.sol\":1479:1495  uint256 ethPrice */\n      dup1\n        /* \"contracts/FundMe.sol\":1506:1540  getChainlinkDataFeedLatestAnswer() */\n      tag_68\n        /* \"contracts/FundMe.sol\":1506:1538  getChainlinkDataFeedLatestAnswer */\n      tag_31\n        /* \"contracts/FundMe.sol\":1506:1540  getChainlinkDataFeedLatestAnswer() */\n      jump\t// in\n    tag_68:\n        /* \"contracts/FundMe.sol\":1479:1541  uint256 ethPrice = uint256(getChainlinkDataFeedLatestAnswer()) */\n      swap1\n      pop\n        /* \"contracts/FundMe.sol\":1658:1663  10**8 */\n      0x05f5e100\n        /* \"contracts/FundMe.sol\":1645:1653  ethPrice */\n      dup2\n        /* \"contracts/FundMe.sol\":1633:1642  ethAmount */\n      dup5\n        /* \"contracts/FundMe.sol\":1633:1653  ethAmount * ethPrice */\n      tag_69\n      swap2\n      swap1\n      tag_70\n      jump\t// in\n    tag_69:\n        /* \"contracts/FundMe.sol\":1632:1664  (ethAmount * ethPrice) / (10**8) */\n      tag_71\n      swap2\n      swap1\n      tag_72\n      jump\t// in\n    tag_71:\n        /* \"contracts/FundMe.sol\":1625:1664  return (ethAmount * ethPrice) / (10**8) */\n      swap2\n      pop\n      pop\n        /* \"contracts/FundMe.sol\":1313:1671  function convertEthToUsd(uint256 ethAmount)... */\n      swap2\n      swap1\n      pop\n      jump\t// out\n        /* \"#utility.yul\":88:205   */\n    tag_74:\n        /* \"#utility.yul\":197:198   */\n      0x00\n        /* \"#utility.yul\":194:195   */\n      dup1\n        /* \"#utility.yul\":187:199   */\n      revert\n        /* \"#utility.yul\":334:460   */\n    tag_76:\n        /* \"#utility.yul\":371:378   */\n      0x00\n        /* \"#utility.yul\":411:453   */\n      0xffffffffffffffffffffffffffffffffffffffff\n        /* \"#utility.yul\":404:409   */\n      dup3\n        /* \"#utility.yul\":400:454   */\n      and\n        /* \"#utility.yul\":389:454   */\n      swap1\n      pop\n        /* \"#utility.yul\":334:460   */\n      swap2\n      swap1\n      pop\n      jump\t// out\n        /* \"#utility.yul\":466:562   */\n    tag_77:\n        /* \"#utility.yul\":503:510   */\n      0x00\n        /* \"#utility.yul\":532:556   */\n      tag_112\n        /* \"#utility.yul\":550:555   */\n      dup3\n        /* \"#utility.yul\":532:556   */\n      tag_76\n      jump\t// in\n    tag_112:\n        /* \"#utility.yul\":521:556   */\n      swap1\n      pop\n        /* \"#utility.yul\":466:562   */\n      swap2\n      swap1\n      pop\n      jump\t// out\n        /* \"#utility.yul\":568:690   */\n    tag_78:\n        /* \"#utility.yul\":641:665   */\n      tag_114\n        /* \"#utility.yul\":659:664   */\n      dup2\n        /* \"#utility.yul\":641:665   */\n      tag_77\n      jump\t// in\n    tag_114:\n        /* \"#utility.yul\":634:639   */\n      dup2\n        /* \"#utility.yul\":631:666   */\n      eq\n        /* \"#utility.yul\":621:684   */\n      tag_115\n      jumpi\n        /* \"#utility.yul\":680:681   */\n      0x00\n        /* \"#utility.yul\":677:678   */\n      dup1\n        /* \"#utility.yul\":670:682   */\n      revert\n        /* \"#utility.yul\":621:684   */\n    tag_115:\n        /* \"#utility.yul\":568:690   */\n      pop\n      jump\t// out\n        /* \"#utility.yul\":696:835   */\n    tag_79:\n        /* \"#utility.yul\":742:747   */\n      0x00\n        /* \"#utility.yul\":780:786   */\n      dup2\n        /* \"#utility.yul\":767:787   */\n      calldataload\n        /* \"#utility.yul\":758:787   */\n      swap1\n      pop\n        /* \"#utility.yul\":796:829   */\n      tag_117\n        /* \"#utility.yul\":823:828   */\n      dup2\n        /* \"#utility.yul\":796:829   */\n      tag_78\n      jump\t// in\n    tag_117:\n        /* \"#utility.yul\":696:835   */\n      swap3\n      swap2\n      pop\n      pop\n      jump\t// out\n        /* \"#utility.yul\":841:1170   */\n    tag_11:\n        /* \"#utility.yul\":900:906   */\n      0x00\n        /* \"#utility.yul\":949:951   */\n      0x20\n        /* \"#utility.yul\":937:946   */\n      dup3\n        /* \"#utility.yul\":928:935   */\n      dup5\n        /* \"#utility.yul\":924:947   */\n      sub\n        /* \"#utility.yul\":920:952   */\n      slt\n        /* \"#utility.yul\":917:1036   */\n      iszero\n      tag_119\n      jumpi\n        /* \"#utility.yul\":955:1034   */\n      tag_120\n      tag_74\n      jump\t// in\n    tag_120:\n        /* \"#utility.yul\":917:1036   */\n    tag_119:\n        /* \"#utility.yul\":1075:1076   */\n      0x00\n        /* \"#utility.yul\":1100:1153   */\n      tag_121\n        /* \"#utility.yul\":1145:1152   */\n      dup5\n        /* \"#utility.yul\":1136:1142   */\n      dup3\n        /* \"#utility.yul\":1125:1134   */\n      dup6\n        /* \"#utility.yul\":1121:1143   */\n      add\n        /* \"#utility.yul\":1100:1153   */\n      tag_79\n      jump\t// in\n    tag_121:\n        /* \"#utility.yul\":1090:1153   */\n      swap2\n      pop\n        /* \"#utility.yul\":1046:1163   */\n      pop\n        /* \"#utility.yul\":841:1170   */\n      swap3\n      swap2\n      pop\n      pop\n      jump\t// out\n        /* \"#utility.yul\":1176:1253   */\n    tag_80:\n        /* \"#utility.yul\":1213:1220   */\n      0x00\n        /* \"#utility.yul\":1242:1247   */\n      dup2\n        /* \"#utility.yul\":1231:1247   */\n      swap1\n      pop\n        /* \"#utility.yul\":1176:1253   */\n      swap2\n      swap1\n      pop\n      jump\t// out\n        /* \"#utility.yul\":1259:1377   */\n    tag_81:\n        /* \"#utility.yul\":1346:1370   */\n      tag_124\n        /* \"#utility.yul\":1364:1369   */\n      dup2\n        /* \"#utility.yul\":1346:1370   */\n      tag_80\n      jump\t// in\n    tag_124:\n        /* \"#utility.yul\":1341:1344   */\n      dup3\n        /* \"#utility.yul\":1334:1371   */\n      mstore\n        /* \"#utility.yul\":1259:1377   */\n      pop\n      pop\n      jump\t// out\n        /* \"#utility.yul\":1383:1605   */\n    tag_14:\n        /* \"#utility.yul\":1476:1480   */\n      0x00\n        /* \"#utility.yul\":1514:1516   */\n      0x20\n        /* \"#utility.yul\":1503:1512   */\n      dup3\n        /* \"#utility.yul\":1499:1517   */\n      add\n        /* \"#utility.yul\":1491:1517   */\n      swap1\n      pop\n        /* \"#utility.yul\":1527:1598   */\n      tag_126\n        /* \"#utility.yul\":1595:1596   */\n      0x00\n        /* \"#utility.yul\":1584:1593   */\n      dup4\n        /* \"#utility.yul\":1580:1597   */\n      add\n        /* \"#utility.yul\":1571:1577   */\n      dup5\n        /* \"#utility.yul\":1527:1598   */\n      tag_81\n      jump\t// in\n    tag_126:\n        /* \"#utility.yul\":1383:1605   */\n      swap3\n      swap2\n      pop\n      pop\n      jump\t// out\n        /* \"#utility.yul\":1611:1729   */\n    tag_82:\n        /* \"#utility.yul\":1698:1722   */\n      tag_128\n        /* \"#utility.yul\":1716:1721   */\n      dup2\n        /* \"#utility.yul\":1698:1722   */\n      tag_77\n      jump\t// in\n    tag_128:\n        /* \"#utility.yul\":1693:1696   */\n      dup3\n        /* \"#utility.yul\":1686:1723   */\n      mstore\n        /* \"#utility.yul\":1611:1729   */\n      pop\n      pop\n      jump\t// out\n        /* \"#utility.yul\":1735:1957   */\n    tag_23:\n        /* \"#utility.yul\":1828:1832   */\n      0x00\n        /* \"#utility.yul\":1866:1868   */\n      0x20\n        /* \"#utility.yul\":1855:1864   */\n      dup3\n        /* \"#utility.yul\":1851:1869   */\n      add\n        /* \"#utility.yul\":1843:1869   */\n      swap1\n      pop\n        /* \"#utility.yul\":1879:1950   */\n      tag_130\n        /* \"#utility.yul\":1947:1948   */\n      0x00\n        /* \"#utility.yul\":1936:1945   */\n      dup4\n        /* \"#utility.yul\":1932:1949   */\n      add\n        /* \"#utility.yul\":1923:1929   */\n      dup5\n        /* \"#utility.yul\":1879:1950   */\n      tag_82\n      jump\t// in\n    tag_130:\n        /* \"#utility.yul\":1735:1957   */\n      swap3\n      swap2\n      pop\n      pop\n      jump\t// out\n        /* \"#utility.yul\":1963:2039   */\n    tag_83:\n        /* \"#utility.yul\":1999:2006   */\n      0x00\n        /* \"#utility.yul\":2028:2033   */\n      dup2\n        /* \"#utility.yul\":2017:2033   */\n      swap1\n      pop\n        /* \"#utility.yul\":1963:2039   */\n      swap2\n      swap1\n      pop\n      jump\t// out\n        /* \"#utility.yul\":2045:2160   */\n    tag_84:\n        /* \"#utility.yul\":2130:2153   */\n      tag_133\n        /* \"#utility.yul\":2147:2152   */\n      dup2\n        /* \"#utility.yul\":2130:2153   */\n      tag_83\n      jump\t// in\n    tag_133:\n        /* \"#utility.yul\":2125:2128   */\n      dup3\n        /* \"#utility.yul\":2118:2154   */\n      mstore\n        /* \"#utility.yul\":2045:2160   */\n      pop\n      pop\n      jump\t// out\n        /* \"#utility.yul\":2166:2384   */\n    tag_33:\n        /* \"#utility.yul\":2257:2261   */\n      0x00\n        /* \"#utility.yul\":2295:2297   */\n      0x20\n        /* \"#utility.yul\":2284:2293   */\n      dup3\n        /* \"#utility.yul\":2280:2298   */\n      add\n        /* \"#utility.yul\":2272:2298   */\n      swap1\n      pop\n        /* \"#utility.yul\":2308:2377   */\n      tag_135\n        /* \"#utility.yul\":2374:2375   */\n      0x00\n        /* \"#utility.yul\":2363:2372   */\n      dup4\n        /* \"#utility.yul\":2359:2376   */\n      add\n        /* \"#utility.yul\":2350:2356   */\n      dup5\n        /* \"#utility.yul\":2308:2377   */\n      tag_84\n      jump\t// in\n    tag_135:\n        /* \"#utility.yul\":2166:2384   */\n      swap3\n      swap2\n      pop\n      pop\n      jump\t// out\n        /* \"#utility.yul\":2390:2559   */\n    tag_85:\n        /* \"#utility.yul\":2474:2485   */\n      0x00\n        /* \"#utility.yul\":2508:2514   */\n      dup3\n        /* \"#utility.yul\":2503:2506   */\n      dup3\n        /* \"#utility.yul\":2496:2515   */\n      mstore\n        /* \"#utility.yul\":2548:2552   */\n      0x20\n        /* \"#utility.yul\":2543:2546   */\n      dup3\n        /* \"#utility.yul\":2539:2553   */\n      add\n        /* \"#utility.yul\":2524:2553   */\n      swap1\n      pop\n        /* \"#utility.yul\":2390:2559   */\n      swap3\n      swap2\n      pop\n      pop\n      jump\t// out\n        /* \"#utility.yul\":2565:2793   */\n    tag_86:\n        /* \"#utility.yul\":2705:2739   */\n      0x746869732066756e6374696f6e2063616e206f6e6c792062652063616c6c6564\n        /* \"#utility.yul\":2701:2702   */\n      0x00\n        /* \"#utility.yul\":2693:2699   */\n      dup3\n        /* \"#utility.yul\":2689:2703   */\n      add\n        /* \"#utility.yul\":2682:2740   */\n      mstore\n        /* \"#utility.yul\":2774:2785   */\n      0x206279206f776e65720000000000000000000000000000000000000000000000\n        /* \"#utility.yul\":2769:2771   */\n      0x20\n        /* \"#utility.yul\":2761:2767   */\n      dup3\n        /* \"#utility.yul\":2757:2772   */\n      add\n        /* \"#utility.yul\":2750:2786   */\n      mstore\n        /* \"#utility.yul\":2565:2793   */\n      pop\n      jump\t// out\n        /* \"#utility.yul\":2799:3165   */\n    tag_87:\n        /* \"#utility.yul\":2941:2944   */\n      0x00\n        /* \"#utility.yul\":2962:3029   */\n      tag_139\n        /* \"#utility.yul\":3026:3028   */\n      0x29\n        /* \"#utility.yul\":3021:3024   */\n      dup4\n        /* \"#utility.yul\":2962:3029   */\n      tag_85\n      jump\t// in\n    tag_139:\n        /* \"#utility.yul\":2955:3029   */\n      swap2\n      pop\n        /* \"#utility.yul\":3038:3131   */\n      tag_140\n        /* \"#utility.yul\":3127:3130   */\n      dup3\n        /* \"#utility.yul\":3038:3131   */\n      tag_86\n      jump\t// in\n    tag_140:\n        /* \"#utility.yul\":3156:3158   */\n      0x40\n        /* \"#utility.yul\":3151:3154   */\n      dup3\n        /* \"#utility.yul\":3147:3159   */\n      add\n        /* \"#utility.yul\":3140:3159   */\n      swap1\n      pop\n        /* \"#utility.yul\":2799:3165   */\n      swap2\n      swap1\n      pop\n      jump\t// out\n        /* \"#utility.yul\":3171:3590   */\n    tag_37:\n        /* \"#utility.yul\":3337:3341   */\n      0x00\n        /* \"#utility.yul\":3375:3377   */\n      0x20\n        /* \"#utility.yul\":3364:3373   */\n      dup3\n        /* \"#utility.yul\":3360:3378   */\n      add\n        /* \"#utility.yul\":3352:3378   */\n      swap1\n      pop\n        /* \"#utility.yul\":3424:3433   */\n      dup2\n        /* \"#utility.yul\":3418:3422   */\n      dup2\n        /* \"#utility.yul\":3414:3434   */\n      sub\n        /* \"#utility.yul\":3410:3411   */\n      0x00\n        /* \"#utility.yul\":3399:3408   */\n      dup4\n        /* \"#utility.yul\":3395:3412   */\n      add\n        /* \"#utility.yul\":3388:3435   */\n      mstore\n        /* \"#utility.yul\":3452:3583   */\n      tag_142\n        /* \"#utility.yul\":3578:3582   */\n      dup2\n        /* \"#utility.yul\":3452:3583   */\n      tag_87\n      jump\t// in\n    tag_142:\n        /* \"#utility.yul\":3444:3583   */\n      swap1\n      pop\n        /* \"#utility.yul\":3171:3590   */\n      swap2\n      swap1\n      pop\n      jump\t// out\n        /* \"#utility.yul\":3596:3767   */\n    tag_88:\n        /* \"#utility.yul\":3736:3759   */\n      0x746172676574206973206e6f7420726561636865640000000000000000000000\n        /* \"#utility.yul\":3732:3733   */\n      0x00\n        /* \"#utility.yul\":3724:3730   */\n      dup3\n        /* \"#utility.yul\":3720:3734   */\n      add\n        /* \"#utility.yul\":3713:3760   */\n      mstore\n        /* \"#utility.yul\":3596:3767   */\n      pop\n      jump\t// out\n        /* \"#utility.yul\":3773:4139   */\n    tag_89:\n        /* \"#utility.yul\":3915:3918   */\n      0x00\n        /* \"#utility.yul\":3936:4003   */\n      tag_145\n        /* \"#utility.yul\":4000:4002   */\n      0x15\n        /* \"#utility.yul\":3995:3998   */\n      dup4\n        /* \"#utility.yul\":3936:4003   */\n      tag_85\n      jump\t// in\n    tag_145:\n        /* \"#utility.yul\":3929:4003   */\n      swap2\n      pop\n        /* \"#utility.yul\":4012:4105   */\n      tag_146\n        /* \"#utility.yul\":4101:4104   */\n      dup3\n        /* \"#utility.yul\":4012:4105   */\n      tag_88\n      jump\t// in\n    tag_146:\n        /* \"#utility.yul\":4130:4132   */\n      0x20\n        /* \"#utility.yul\":4125:4128   */\n      dup3\n        /* \"#utility.yul\":4121:4133   */\n      add\n        /* \"#utility.yul\":4114:4133   */\n      swap1\n      pop\n        /* \"#utility.yul\":3773:4139   */\n      swap2\n      swap1\n      pop\n      jump\t// out\n        /* \"#utility.yul\":4145:4564   */\n    tag_42:\n        /* \"#utility.yul\":4311:4315   */\n      0x00\n        /* \"#utility.yul\":4349:4351   */\n      0x20\n        /* \"#utility.yul\":4338:4347   */\n      dup3\n        /* \"#utility.yul\":4334:4352   */\n      add\n        /* \"#utility.yul\":4326:4352   */\n      swap1\n      pop\n        /* \"#utility.yul\":4398:4407   */\n      dup2\n        /* \"#utility.yul\":4392:4396   */\n      dup2\n        /* \"#utility.yul\":4388:4408   */\n      sub\n        /* \"#utility.yul\":4384:4385   */\n      0x00\n        /* \"#utility.yul\":4373:4382   */\n      dup4\n        /* \"#utility.yul\":4369:4386   */\n      add\n        /* \"#utility.yul\":4362:4409   */\n      mstore\n        /* \"#utility.yul\":4426:4557   */\n      tag_148\n        /* \"#utility.yul\":4552:4556   */\n      dup2\n        /* \"#utility.yul\":4426:4557   */\n      tag_89\n      jump\t// in\n    tag_148:\n        /* \"#utility.yul\":4418:4557   */\n      swap1\n      pop\n        /* \"#utility.yul\":4145:4564   */\n      swap2\n      swap1\n      pop\n      jump\t// out\n        /* \"#utility.yul\":4570:4717   */\n    tag_90:\n        /* \"#utility.yul\":4671:4682   */\n      0x00\n        /* \"#utility.yul\":4708:4711   */\n      dup2\n        /* \"#utility.yul\":4693:4711   */\n      swap1\n      pop\n        /* \"#utility.yul\":4570:4717   */\n      swap3\n      swap2\n      pop\n      pop\n      jump\t// out\n        /* \"#utility.yul\":4723:4837   */\n    tag_91:\n      pop\n      jump\t// out\n        /* \"#utility.yul\":4843:5241   */\n    tag_92:\n        /* \"#utility.yul\":5002:5005   */\n      0x00\n        /* \"#utility.yul\":5023:5106   */\n      tag_152\n        /* \"#utility.yul\":5104:5105   */\n      0x00\n        /* \"#utility.yul\":5099:5102   */\n      dup4\n        /* \"#utility.yul\":5023:5106   */\n      tag_90\n      jump\t// in\n    tag_152:\n        /* \"#utility.yul\":5016:5106   */\n      swap2\n      pop\n        /* \"#utility.yul\":5115:5208   */\n      tag_153\n        /* \"#utility.yul\":5204:5207   */\n      dup3\n        /* \"#utility.yul\":5115:5208   */\n      tag_91\n      jump\t// in\n    tag_153:\n        /* \"#utility.yul\":5233:5234   */\n      0x00\n        /* \"#utility.yul\":5228:5231   */\n      dup3\n        /* \"#utility.yul\":5224:5235   */\n      add\n        /* \"#utility.yul\":5217:5235   */\n      swap1\n      pop\n        /* \"#utility.yul\":4843:5241   */\n      swap2\n      swap1\n      pop\n      jump\t// out\n        /* \"#utility.yul\":5247:5626   */\n    tag_50:\n        /* \"#utility.yul\":5431:5434   */\n      0x00\n        /* \"#utility.yul\":5453:5600   */\n      tag_155\n        /* \"#utility.yul\":5596:5599   */\n      dup3\n        /* \"#utility.yul\":5453:5600   */\n      tag_92\n      jump\t// in\n    tag_155:\n        /* \"#utility.yul\":5446:5600   */\n      swap2\n      pop\n        /* \"#utility.yul\":5617:5620   */\n      dup2\n        /* \"#utility.yul\":5610:5620   */\n      swap1\n      pop\n        /* \"#utility.yul\":5247:5626   */\n      swap2\n      swap1\n      pop\n      jump\t// out\n        /* \"#utility.yul\":5632:5791   */\n    tag_93:\n        /* \"#utility.yul\":5772:5783   */\n      0x7478206661696c65640000000000000000000000000000000000000000000000\n        /* \"#utility.yul\":5768:5769   */\n      0x00\n        /* \"#utility.yul\":5760:5766   */\n      dup3\n        /* \"#utility.yul\":5756:5770   */\n      add\n        /* \"#utility.yul\":5749:5784   */\n      mstore\n        /* \"#utility.yul\":5632:5791   */\n      pop\n      jump\t// out\n        /* \"#utility.yul\":5797:6162   */\n    tag_94:\n        /* \"#utility.yul\":5939:5942   */\n      0x00\n        /* \"#utility.yul\":5960:6026   */\n      tag_158\n        /* \"#utility.yul\":6024:6025   */\n      0x09\n        /* \"#utility.yul\":6019:6022   */\n      dup4\n        /* \"#utility.yul\":5960:6026   */\n      tag_85\n      jump\t// in\n    tag_158:\n        /* \"#utility.yul\":5953:6026   */\n      swap2\n      pop\n        /* \"#utility.yul\":6035:6128   */\n      tag_159\n        /* \"#utility.yul\":6124:6127   */\n      dup3\n        /* \"#utility.yul\":6035:6128   */\n      tag_93\n      jump\t// in\n    tag_159:\n        /* \"#utility.yul\":6153:6155   */\n      0x20\n        /* \"#utility.yul\":6148:6151   */\n      dup3\n        /* \"#utility.yul\":6144:6156   */\n      add\n        /* \"#utility.yul\":6137:6156   */\n      swap1\n      pop\n        /* \"#utility.yul\":5797:6162   */\n      swap2\n      swap1\n      pop\n      jump\t// out\n        /* \"#utility.yul\":6168:6587   */\n    tag_56:\n        /* \"#utility.yul\":6334:6338   */\n      0x00\n        /* \"#utility.yul\":6372:6374   */\n      0x20\n        /* \"#utility.yul\":6361:6370   */\n      dup3\n        /* \"#utility.yul\":6357:6375   */\n      add\n        /* \"#utility.yul\":6349:6375   */\n      swap1\n      pop\n        /* \"#utility.yul\":6421:6430   */\n      dup2\n        /* \"#utility.yul\":6415:6419   */\n      dup2\n        /* \"#utility.yul\":6411:6431   */\n      sub\n        /* \"#utility.yul\":6407:6408   */\n      0x00\n        /* \"#utility.yul\":6396:6405   */\n      dup4\n        /* \"#utility.yul\":6392:6409   */\n      add\n        /* \"#utility.yul\":6385:6432   */\n      mstore\n        /* \"#utility.yul\":6449:6580   */\n      tag_161\n        /* \"#utility.yul\":6575:6579   */\n      dup2\n        /* \"#utility.yul\":6449:6580   */\n      tag_94\n      jump\t// in\n    tag_161:\n        /* \"#utility.yul\":6441:6580   */\n      swap1\n      pop\n        /* \"#utility.yul\":6168:6587   */\n      swap2\n      swap1\n      pop\n      jump\t// out\n        /* \"#utility.yul\":6593:6756   */\n    tag_95:\n        /* \"#utility.yul\":6733:6748   */\n      0x73656e64206d6f72652045544800000000000000000000000000000000000000\n        /* \"#utility.yul\":6729:6730   */\n      0x00\n        /* \"#utility.yul\":6721:6727   */\n      dup3\n        /* \"#utility.yul\":6717:6731   */\n      add\n        /* \"#utility.yul\":6710:6749   */\n      mstore\n        /* \"#utility.yul\":6593:6756   */\n      pop\n      jump\t// out\n        /* \"#utility.yul\":6762:7128   */\n    tag_96:\n        /* \"#utility.yul\":6904:6907   */\n      0x00\n        /* \"#utility.yul\":6925:6992   */\n      tag_164\n        /* \"#utility.yul\":6989:6991   */\n      0x0d\n        /* \"#utility.yul\":6984:6987   */\n      dup4\n        /* \"#utility.yul\":6925:6992   */\n      tag_85\n      jump\t// in\n    tag_164:\n        /* \"#utility.yul\":6918:6992   */\n      swap2\n      pop\n        /* \"#utility.yul\":7001:7094   */\n      tag_165\n        /* \"#utility.yul\":7090:7093   */\n      dup3\n        /* \"#utility.yul\":7001:7094   */\n      tag_95\n      jump\t// in\n    tag_165:\n        /* \"#utility.yul\":7119:7121   */\n      0x20\n        /* \"#utility.yul\":7114:7117   */\n      dup3\n        /* \"#utility.yul\":7110:7122   */\n      add\n        /* \"#utility.yul\":7103:7122   */\n      swap1\n      pop\n        /* \"#utility.yul\":6762:7128   */\n      swap2\n      swap1\n      pop\n      jump\t// out\n        /* \"#utility.yul\":7134:7553   */\n    tag_61:\n        /* \"#utility.yul\":7300:7304   */\n      0x00\n        /* \"#utility.yul\":7338:7340   */\n      0x20\n        /* \"#utility.yul\":7327:7336   */\n      dup3\n        /* \"#utility.yul\":7323:7341   */\n      add\n        /* \"#utility.yul\":7315:7341   */\n      swap1\n      pop\n        /* \"#utility.yul\":7387:7396   */\n      dup2\n        /* \"#utility.yul\":7381:7385   */\n      dup2\n        /* \"#utility.yul\":7377:7397   */\n      sub\n        /* \"#utility.yul\":7373:7374   */\n      0x00\n        /* \"#utility.yul\":7362:7371   */\n      dup4\n        /* \"#utility.yul\":7358:7375   */\n      add\n        /* \"#utility.yul\":7351:7398   */\n      mstore\n        /* \"#utility.yul\":7415:7546   */\n      tag_167\n        /* \"#utility.yul\":7541:7545   */\n      dup2\n        /* \"#utility.yul\":7415:7546   */\n      tag_96\n      jump\t// in\n    tag_167:\n        /* \"#utility.yul\":7407:7546   */\n      swap1\n      pop\n        /* \"#utility.yul\":7134:7553   */\n      swap2\n      swap1\n      pop\n      jump\t// out\n        /* \"#utility.yul\":7559:7664   */\n    tag_97:\n        /* \"#utility.yul\":7595:7602   */\n      0x00\n        /* \"#utility.yul\":7635:7657   */\n      0xffffffffffffffffffff\n        /* \"#utility.yul\":7628:7633   */\n      dup3\n        /* \"#utility.yul\":7624:7658   */\n      and\n        /* \"#utility.yul\":7613:7658   */\n      swap1\n      pop\n        /* \"#utility.yul\":7559:7664   */\n      swap2\n      swap1\n      pop\n      jump\t// out\n        /* \"#utility.yul\":7670:7790   */\n    tag_98:\n        /* \"#utility.yul\":7742:7765   */\n      tag_170\n        /* \"#utility.yul\":7759:7764   */\n      dup2\n        /* \"#utility.yul\":7742:7765   */\n      tag_97\n      jump\t// in\n    tag_170:\n        /* \"#utility.yul\":7735:7740   */\n      dup2\n        /* \"#utility.yul\":7732:7766   */\n      eq\n        /* \"#utility.yul\":7722:7784   */\n      tag_171\n      jumpi\n        /* \"#utility.yul\":7780:7781   */\n      0x00\n        /* \"#utility.yul\":7777:7778   */\n      dup1\n        /* \"#utility.yul\":7770:7782   */\n      revert\n        /* \"#utility.yul\":7722:7784   */\n    tag_171:\n        /* \"#utility.yul\":7670:7790   */\n      pop\n      jump\t// out\n        /* \"#utility.yul\":7796:7937   */\n    tag_99:\n        /* \"#utility.yul\":7852:7857   */\n      0x00\n        /* \"#utility.yul\":7883:7889   */\n      dup2\n        /* \"#utility.yul\":7877:7890   */\n      mload\n        /* \"#utility.yul\":7868:7890   */\n      swap1\n      pop\n        /* \"#utility.yul\":7899:7931   */\n      tag_173\n        /* \"#utility.yul\":7925:7930   */\n      dup2\n        /* \"#utility.yul\":7899:7931   */\n      tag_98\n      jump\t// in\n    tag_173:\n        /* \"#utility.yul\":7796:7937   */\n      swap3\n      swap2\n      pop\n      pop\n      jump\t// out\n        /* \"#utility.yul\":7943:8063   */\n    tag_100:\n        /* \"#utility.yul\":8015:8038   */\n      tag_175\n        /* \"#utility.yul\":8032:8037   */\n      dup2\n        /* \"#utility.yul\":8015:8038   */\n      tag_83\n      jump\t// in\n    tag_175:\n        /* \"#utility.yul\":8008:8013   */\n      dup2\n        /* \"#utility.yul\":8005:8039   */\n      eq\n        /* \"#utility.yul\":7995:8057   */\n      tag_176\n      jumpi\n        /* \"#utility.yul\":8053:8054   */\n      0x00\n        /* \"#utility.yul\":8050:8051   */\n      dup1\n        /* \"#utility.yul\":8043:8055   */\n      revert\n        /* \"#utility.yul\":7995:8057   */\n    tag_176:\n        /* \"#utility.yul\":7943:8063   */\n      pop\n      jump\t// out\n        /* \"#utility.yul\":8069:8210   */\n    tag_101:\n        /* \"#utility.yul\":8125:8130   */\n      0x00\n        /* \"#utility.yul\":8156:8162   */\n      dup2\n        /* \"#utility.yul\":8150:8163   */\n      mload\n        /* \"#utility.yul\":8141:8163   */\n      swap1\n      pop\n        /* \"#utility.yul\":8172:8204   */\n      tag_178\n        /* \"#utility.yul\":8198:8203   */\n      dup2\n        /* \"#utility.yul\":8172:8204   */\n      tag_100\n      jump\t// in\n    tag_178:\n        /* \"#utility.yul\":8069:8210   */\n      swap3\n      swap2\n      pop\n      pop\n      jump\t// out\n        /* \"#utility.yul\":8216:8338   */\n    tag_102:\n        /* \"#utility.yul\":8289:8313   */\n      tag_180\n        /* \"#utility.yul\":8307:8312   */\n      dup2\n        /* \"#utility.yul\":8289:8313   */\n      tag_80\n      jump\t// in\n    tag_180:\n        /* \"#utility.yul\":8282:8287   */\n      dup2\n        /* \"#utility.yul\":8279:8314   */\n      eq\n        /* \"#utility.yul\":8269:8332   */\n      tag_181\n      jumpi\n        /* \"#utility.yul\":8328:8329   */\n      0x00\n        /* \"#utility.yul\":8325:8326   */\n      dup1\n        /* \"#utility.yul\":8318:8330   */\n      revert\n        /* \"#utility.yul\":8269:8332   */\n    tag_181:\n        /* \"#utility.yul\":8216:8338   */\n      pop\n      jump\t// out\n        /* \"#utility.yul\":8344:8487   */\n    tag_103:\n        /* \"#utility.yul\":8401:8406   */\n      0x00\n        /* \"#utility.yul\":8432:8438   */\n      dup2\n        /* \"#utility.yul\":8426:8439   */\n      mload\n        /* \"#utility.yul\":8417:8439   */\n      swap1\n      pop\n        /* \"#utility.yul\":8448:8481   */\n      tag_183\n        /* \"#utility.yul\":8475:8480   */\n      dup2\n        /* \"#utility.yul\":8448:8481   */\n      tag_102\n      jump\t// in\n    tag_183:\n        /* \"#utility.yul\":8344:8487   */\n      swap3\n      swap2\n      pop\n      pop\n      jump\t// out\n        /* \"#utility.yul\":8493:9464   */\n    tag_66:\n        /* \"#utility.yul\":8596:8602   */\n      0x00\n        /* \"#utility.yul\":8604:8610   */\n      dup1\n        /* \"#utility.yul\":8612:8618   */\n      0x00\n        /* \"#utility.yul\":8620:8626   */\n      dup1\n        /* \"#utility.yul\":8628:8634   */\n      0x00\n        /* \"#utility.yul\":8677:8680   */\n      0xa0\n        /* \"#utility.yul\":8665:8674   */\n      dup7\n        /* \"#utility.yul\":8656:8663   */\n      dup9\n        /* \"#utility.yul\":8652:8675   */\n      sub\n        /* \"#utility.yul\":8648:8681   */\n      slt\n        /* \"#utility.yul\":8645:8765   */\n      iszero\n      tag_185\n      jumpi\n        /* \"#utility.yul\":8684:8763   */\n      tag_186\n      tag_74\n      jump\t// in\n    tag_186:\n        /* \"#utility.yul\":8645:8765   */\n    tag_185:\n        /* \"#utility.yul\":8804:8805   */\n      0x00\n        /* \"#utility.yul\":8829:8892   */\n      tag_187\n        /* \"#utility.yul\":8884:8891   */\n      dup9\n        /* \"#utility.yul\":8875:8881   */\n      dup3\n        /* \"#utility.yul\":8864:8873   */\n      dup10\n        /* \"#utility.yul\":8860:8882   */\n      add\n        /* \"#utility.yul\":8829:8892   */\n      tag_99\n      jump\t// in\n    tag_187:\n        /* \"#utility.yul\":8819:8892   */\n      swap6\n      pop\n        /* \"#utility.yul\":8775:8902   */\n      pop\n        /* \"#utility.yul\":8941:8943   */\n      0x20\n        /* \"#utility.yul\":8967:9030   */\n      tag_188\n        /* \"#utility.yul\":9022:9029   */\n      dup9\n        /* \"#utility.yul\":9013:9019   */\n      dup3\n        /* \"#utility.yul\":9002:9011   */\n      dup10\n        /* \"#utility.yul\":8998:9020   */\n      add\n        /* \"#utility.yul\":8967:9030   */\n      tag_101\n      jump\t// in\n    tag_188:\n        /* \"#utility.yul\":8957:9030   */\n      swap5\n      pop\n        /* \"#utility.yul\":8912:9040   */\n      pop\n        /* \"#utility.yul\":9079:9081   */\n      0x40\n        /* \"#utility.yul\":9105:9169   */\n      tag_189\n        /* \"#utility.yul\":9161:9168   */\n      dup9\n        /* \"#utility.yul\":9152:9158   */\n      dup3\n        /* \"#utility.yul\":9141:9150   */\n      dup10\n        /* \"#utility.yul\":9137:9159   */\n      add\n        /* \"#utility.yul\":9105:9169   */\n      tag_103\n      jump\t// in\n    tag_189:\n        /* \"#utility.yul\":9095:9169   */\n      swap4\n      pop\n        /* \"#utility.yul\":9050:9179   */\n      pop\n        /* \"#utility.yul\":9218:9220   */\n      0x60\n        /* \"#utility.yul\":9244:9308   */\n      tag_190\n        /* \"#utility.yul\":9300:9307   */\n      dup9\n        /* \"#utility.yul\":9291:9297   */\n      dup3\n        /* \"#utility.yul\":9280:9289   */\n      dup10\n        /* \"#utility.yul\":9276:9298   */\n      add\n        /* \"#utility.yul\":9244:9308   */\n      tag_103\n      jump\t// in\n    tag_190:\n        /* \"#utility.yul\":9234:9308   */\n      swap3\n      pop\n        /* \"#utility.yul\":9189:9318   */\n      pop\n        /* \"#utility.yul\":9357:9360   */\n      0x80\n        /* \"#utility.yul\":9384:9447   */\n      tag_191\n        /* \"#utility.yul\":9439:9446   */\n      dup9\n        /* \"#utility.yul\":9430:9436   */\n      dup3\n        /* \"#utility.yul\":9419:9428   */\n      dup10\n        /* \"#utility.yul\":9415:9437   */\n      add\n        /* \"#utility.yul\":9384:9447   */\n      tag_99\n      jump\t// in\n    tag_191:\n        /* \"#utility.yul\":9374:9447   */\n      swap2\n      pop\n        /* \"#utility.yul\":9328:9457   */\n      pop\n        /* \"#utility.yul\":8493:9464   */\n      swap3\n      swap6\n      pop\n      swap3\n      swap6\n      swap1\n      swap4\n      pop\n      jump\t// out\n        /* \"#utility.yul\":9470:9650   */\n    tag_104:\n        /* \"#utility.yul\":9518:9595   */\n      0x4e487b7100000000000000000000000000000000000000000000000000000000\n        /* \"#utility.yul\":9515:9516   */\n      0x00\n        /* \"#utility.yul\":9508:9596   */\n      mstore\n        /* \"#utility.yul\":9615:9619   */\n      0x11\n        /* \"#utility.yul\":9612:9613   */\n      0x04\n        /* \"#utility.yul\":9605:9620   */\n      mstore\n        /* \"#utility.yul\":9639:9643   */\n      0x24\n        /* \"#utility.yul\":9636:9637   */\n      0x00\n        /* \"#utility.yul\":9629:9644   */\n      revert\n        /* \"#utility.yul\":9656:10066   */\n    tag_70:\n        /* \"#utility.yul\":9696:9703   */\n      0x00\n        /* \"#utility.yul\":9719:9739   */\n      tag_194\n        /* \"#utility.yul\":9737:9738   */\n      dup3\n        /* \"#utility.yul\":9719:9739   */\n      tag_80\n      jump\t// in\n    tag_194:\n        /* \"#utility.yul\":9714:9739   */\n      swap2\n      pop\n        /* \"#utility.yul\":9753:9773   */\n      tag_195\n        /* \"#utility.yul\":9771:9772   */\n      dup4\n        /* \"#utility.yul\":9753:9773   */\n      tag_80\n      jump\t// in\n    tag_195:\n        /* \"#utility.yul\":9748:9773   */\n      swap3\n      pop\n        /* \"#utility.yul\":9808:9809   */\n      dup3\n        /* \"#utility.yul\":9805:9806   */\n      dup3\n        /* \"#utility.yul\":9801:9810   */\n      mul\n        /* \"#utility.yul\":9830:9860   */\n      tag_196\n        /* \"#utility.yul\":9848:9859   */\n      dup2\n        /* \"#utility.yul\":9830:9860   */\n      tag_80\n      jump\t// in\n    tag_196:\n        /* \"#utility.yul\":9819:9860   */\n      swap2\n      pop\n        /* \"#utility.yul\":10009:10010   */\n      dup3\n        /* \"#utility.yul\":10000:10007   */\n      dup3\n        /* \"#utility.yul\":9996:10011   */\n      div\n        /* \"#utility.yul\":9993:9994   */\n      dup5\n        /* \"#utility.yul\":9990:10012   */\n      eq\n        /* \"#utility.yul\":9970:9971   */\n      dup4\n        /* \"#utility.yul\":9963:9972   */\n      iszero\n        /* \"#utility.yul\":9943:10026   */\n      or\n        /* \"#utility.yul\":9920:10059   */\n      tag_197\n      jumpi\n        /* \"#utility.yul\":10039:10057   */\n      tag_198\n      tag_104\n      jump\t// in\n    tag_198:\n        /* \"#utility.yul\":9920:10059   */\n    tag_197:\n        /* \"#utility.yul\":9704:10066   */\n      pop\n        /* \"#utility.yul\":9656:10066   */\n      swap3\n      swap2\n      pop\n      pop\n      jump\t// out\n        /* \"#utility.yul\":10072:10252   */\n    tag_105:\n        /* \"#utility.yul\":10120:10197   */\n      0x4e487b7100000000000000000000000000000000000000000000000000000000\n        /* \"#utility.yul\":10117:10118   */\n      0x00\n        /* \"#utility.yul\":10110:10198   */\n      mstore\n        /* \"#utility.yul\":10217:10221   */\n      0x12\n        /* \"#utility.yul\":10214:10215   */\n      0x04\n        /* \"#utility.yul\":10207:10222   */\n      mstore\n        /* \"#utility.yul\":10241:10245   */\n      0x24\n        /* \"#utility.yul\":10238:10239   */\n      0x00\n        /* \"#utility.yul\":10231:10246   */\n      revert\n        /* \"#utility.yul\":10258:10443   */\n    tag_72:\n        /* \"#utility.yul\":10298:10299   */\n      0x00\n        /* \"#utility.yul\":10315:10335   */\n      tag_201\n        /* \"#utility.yul\":10333:10334   */\n      dup3\n        /* \"#utility.yul\":10315:10335   */\n      tag_80\n      jump\t// in\n    tag_201:\n        /* \"#utility.yul\":10310:10335   */\n      swap2\n      pop\n        /* \"#utility.yul\":10349:10369   */\n      tag_202\n        /* \"#utility.yul\":10367:10368   */\n      dup4\n        /* \"#utility.yul\":10349:10369   */\n      tag_80\n      jump\t// in\n    tag_202:\n        /* \"#utility.yul\":10344:10369   */\n      swap3\n      pop\n        /* \"#utility.yul\":10388:10389   */\n      dup3\n        /* \"#utility.yul\":10378:10413   */\n      tag_203\n      jumpi\n        /* \"#utility.yul\":10393:10411   */\n      tag_204\n      tag_105\n      jump\t// in\n    tag_204:\n        /* \"#utility.yul\":10378:10413   */\n    tag_203:\n        /* \"#utility.yul\":10435:10436   */\n      dup3\n        /* \"#utility.yul\":10432:10433   */\n      dup3\n        /* \"#utility.yul\":10428:10437   */\n      div\n        /* \"#utility.yul\":10423:10437   */\n      swap1\n      pop\n        /* \"#utility.yul\":10258:10443   */\n      swap3\n      swap2\n      pop\n      pop\n      jump\t// out\n\n    auxdata: 0xa2646970667358221220f50cc0dec5f7fd69d518f5e954b490946e86204c2536c4e27c2eba7e26e02fd564736f6c634300081a0033\n}\n",
				"bytecode": {
					"linkReferences": {},
					"object": "6080604052678ac7230489e80000600155348015601a575f80fd5b5073694aa1769357215de4fac081bf1f309adc32530660025f6101000a81548173ffffffffffffffffffffffffffffffffffffffff021916908373ffffffffffffffffffffffffffffffffffffffff1602179055503360035f6101000a81548173ffffffffffffffffffffffffffffffffffffffff021916908373ffffffffffffffffffffffffffffffffffffffff160217905550610ab0806100bc5f395ff3fe608060405260043610610054575f3560e01c80634407e1e8146100585780638863dd1a146100945780638da5cb5b146100bc5780638edd6eb6146100e6578063b60d4288146100fc578063bea4dfb514610106575b5f80fd5b348015610063575f80fd5b5061007e600480360381019061007991906105d9565b610130565b60405161008b919061061c565b60405180910390f35b34801561009f575f80fd5b506100ba60048036038101906100b591906105d9565b610144565b005b3480156100c7575f80fd5b506100d061026a565b6040516100dd9190610644565b60405180910390f35b3480156100f1575f80fd5b506100fa61028f565b005b61010461041f565b005b348015610111575f80fd5b5061011a6104af565b6040516101279190610675565b60405180910390f35b5f602052805f5260405f205f915090505481565b60035f9054906101000a900473ffffffffffffffffffffffffffffffffffffffff1673ffffffffffffffffffffffffffffffffffffffff163373ffffffffffffffffffffffffffffffffffffffff16146101d3576040517f08c379a00000000000000000000000000000000000000000000000000000000081526004016101ca9061070e565b60405180910390fd5b8060035f6101000a81548173ffffffffffffffffffffffffffffffffffffffff021916908373ffffffffffffffffffffffffffffffffffffffff16021790555068056bc75e2d631000006102264761054c565b1015610267576040517f08c379a000000000000000000000000000000000000000000000000000000000815260040161025e90610776565b60405180910390fd5b50565b60035f9054906101000a900473ffffffffffffffffffffffffffffffffffffffff1681565b68056bc75e2d631000006102a24761054c565b10156102e3576040517f08c379a00000000000000000000000000000000000000000000000000000000081526004016102da90610776565b60405180910390fd5b60035f9054906101000a900473ffffffffffffffffffffffffffffffffffffffff1673ffffffffffffffffffffffffffffffffffffffff163373ffffffffffffffffffffffffffffffffffffffff1614610372576040517f08c379a00000000000000000000000000000000000000000000000000000000081526004016103699061070e565b60405180910390fd5b5f3373ffffffffffffffffffffffffffffffffffffffff1647604051610397906107c1565b5f6040518083038185875af1925050503d805f81146103d1576040519150601f19603f3d011682016040523d82523d5f602084013e6103d6565b606091505b5050809150508061041c576040517f08c379a00000000000000000000000000000000000000000000000000000000081526004016104139061081f565b60405180910390fd5b50565b60015461042b3461054c565b101561046c576040517f08c379a000000000000000000000000000000000000000000000000000000000815260040161046390610887565b60405180910390fd5b345f803373ffffffffffffffffffffffffffffffffffffffff1673ffffffffffffffffffffffffffffffffffffffff1681526020019081526020015f2081905550565b5f8060025f9054906101000a900473ffffffffffffffffffffffffffffffffffffffff1673ffffffffffffffffffffffffffffffffffffffff1663feaf968c6040518163ffffffff1660e01b815260040160a060405180830381865afa15801561051b573d5f803e3d5ffd5b505050506040513d601f19601f8201168201806040525081019061053f9190610938565b5050509150508091505090565b5f806105566104af565b90506305f5e100818461056991906109dc565b6105739190610a4a565b915050919050565b5f80fd5b5f73ffffffffffffffffffffffffffffffffffffffff82169050919050565b5f6105a88261057f565b9050919050565b6105b88161059e565b81146105c2575f80fd5b50565b5f813590506105d3816105af565b92915050565b5f602082840312156105ee576105ed61057b565b5b5f6105fb848285016105c5565b91505092915050565b5f819050919050565b61061681610604565b82525050565b5f60208201905061062f5f83018461060d565b92915050565b61063e8161059e565b82525050565b5f6020820190506106575f830184610635565b92915050565b5f819050919050565b61066f8161065d565b82525050565b5f6020820190506106885f830184610666565b92915050565b5f82825260208201905092915050565b7f746869732066756e6374696f6e2063616e206f6e6c792062652063616c6c65645f8201527f206279206f776e65720000000000000000000000000000000000000000000000602082015250565b5f6106f860298361068e565b91506107038261069e565b604082019050919050565b5f6020820190508181035f830152610725816106ec565b9050919050565b7f746172676574206973206e6f74207265616368656400000000000000000000005f82015250565b5f61076060158361068e565b915061076b8261072c565b602082019050919050565b5f6020820190508181035f83015261078d81610754565b9050919050565b5f81905092915050565b50565b5f6107ac5f83610794565b91506107b78261079e565b5f82019050919050565b5f6107cb826107a1565b9150819050919050565b7f7478206661696c656400000000000000000000000000000000000000000000005f82015250565b5f61080960098361068e565b9150610814826107d5565b602082019050919050565b5f6020820190508181035f830152610836816107fd565b9050919050565b7f73656e64206d6f726520455448000000000000000000000000000000000000005f82015250565b5f610871600d8361068e565b915061087c8261083d565b602082019050919050565b5f6020820190508181035f83015261089e81610865565b9050919050565b5f69ffffffffffffffffffff82169050919050565b6108c3816108a5565b81146108cd575f80fd5b50565b5f815190506108de816108ba565b92915050565b6108ed8161065d565b81146108f7575f80fd5b50565b5f81519050610908816108e4565b92915050565b61091781610604565b8114610921575f80fd5b50565b5f815190506109328161090e565b92915050565b5f805f805f60a086880312156109515761095061057b565b5b5f61095e888289016108d0565b955050602061096f888289016108fa565b945050604061098088828901610924565b935050606061099188828901610924565b92505060806109a2888289016108d0565b9150509295509295909350565b7f4e487b71000000000000000000000000000000000000000000000000000000005f52601160045260245ffd5b5f6109e682610604565b91506109f183610604565b92508282026109ff81610604565b91508282048414831517610a1657610a156109af565b5b5092915050565b7f4e487b71000000000000000000000000000000000000000000000000000000005f52601260045260245ffd5b5f610a5482610604565b9150610a5f83610604565b925082610a6f57610a6e610a1d565b5b82820490509291505056fea2646970667358221220f50cc0dec5f7fd69d518f5e954b490946e86204c2536c4e27c2eba7e26e02fd564736f6c634300081a0033",
					"opcodes": "PUSH1 0x80 PUSH1 0x40 MSTORE PUSH8 0x8AC7230489E80000 PUSH1 0x1 SSTORE CALLVALUE DUP1 ISZERO PUSH1 0x1A JUMPI PUSH0 DUP1 REVERT JUMPDEST POP PUSH20 0x694AA1769357215DE4FAC081BF1F309ADC325306 PUSH1 0x2 PUSH0 PUSH2 0x100 EXP DUP2 SLOAD DUP2 PUSH20 0xFFFFFFFFFFFFFFFFFFFFFFFFFFFFFFFFFFFFFFFF MUL NOT AND SWAP1 DUP4 PUSH20 0xFFFFFFFFFFFFFFFFFFFFFFFFFFFFFFFFFFFFFFFF AND MUL OR SWAP1 SSTORE POP CALLER PUSH1 0x3 PUSH0 PUSH2 0x100 EXP DUP2 SLOAD DUP2 PUSH20 0xFFFFFFFFFFFFFFFFFFFFFFFFFFFFFFFFFFFFFFFF MUL NOT AND SWAP1 DUP4 PUSH20 0xFFFFFFFFFFFFFFFFFFFFFFFFFFFFFFFFFFFFFFFF AND MUL OR SWAP1 SSTORE POP PUSH2 0xAB0 DUP1 PUSH2 0xBC PUSH0 CODECOPY PUSH0 RETURN INVALID PUSH1 0x80 PUSH1 0x40 MSTORE PUSH1 0x4 CALLDATASIZE LT PUSH2 0x54 JUMPI PUSH0 CALLDATALOAD PUSH1 0xE0 SHR DUP1 PUSH4 0x4407E1E8 EQ PUSH2 0x58 JUMPI DUP1 PUSH4 0x8863DD1A EQ PUSH2 0x94 JUMPI DUP1 PUSH4 0x8DA5CB5B EQ PUSH2 0xBC JUMPI DUP1 PUSH4 0x8EDD6EB6 EQ PUSH2 0xE6 JUMPI DUP1 PUSH4 0xB60D4288 EQ PUSH2 0xFC JUMPI DUP1 PUSH4 0xBEA4DFB5 EQ PUSH2 0x106 JUMPI JUMPDEST PUSH0 DUP1 REVERT JUMPDEST CALLVALUE DUP1 ISZERO PUSH2 0x63 JUMPI PUSH0 DUP1 REVERT JUMPDEST POP PUSH2 0x7E PUSH1 0x4 DUP1 CALLDATASIZE SUB DUP2 ADD SWAP1 PUSH2 0x79 SWAP2 SWAP1 PUSH2 0x5D9 JUMP JUMPDEST PUSH2 0x130 JUMP JUMPDEST PUSH1 0x40 MLOAD PUSH2 0x8B SWAP2 SWAP1 PUSH2 0x61C JUMP JUMPDEST PUSH1 0x40 MLOAD DUP1 SWAP2 SUB SWAP1 RETURN JUMPDEST CALLVALUE DUP1 ISZERO PUSH2 0x9F JUMPI PUSH0 DUP1 REVERT JUMPDEST POP PUSH2 0xBA PUSH1 0x4 DUP1 CALLDATASIZE SUB DUP2 ADD SWAP1 PUSH2 0xB5 SWAP2 SWAP1 PUSH2 0x5D9 JUMP JUMPDEST PUSH2 0x144 JUMP JUMPDEST STOP JUMPDEST CALLVALUE DUP1 ISZERO PUSH2 0xC7 JUMPI PUSH0 DUP1 REVERT JUMPDEST POP PUSH2 0xD0 PUSH2 0x26A JUMP JUMPDEST PUSH1 0x40 MLOAD PUSH2 0xDD SWAP2 SWAP1 PUSH2 0x644 JUMP JUMPDEST PUSH1 0x40 MLOAD DUP1 SWAP2 SUB SWAP1 RETURN JUMPDEST CALLVALUE DUP1 ISZERO PUSH2 0xF1 JUMPI PUSH0 DUP1 REVERT JUMPDEST POP PUSH2 0xFA PUSH2 0x28F JUMP JUMPDEST STOP JUMPDEST PUSH2 0x104 PUSH2 0x41F JUMP JUMPDEST STOP JUMPDEST CALLVALUE DUP1 ISZERO PUSH2 0x111 JUMPI PUSH0 DUP1 REVERT JUMPDEST POP PUSH2 0x11A PUSH2 0x4AF JUMP JUMPDEST PUSH1 0x40 MLOAD PUSH2 0x127 SWAP2 SWAP1 PUSH2 0x675 JUMP JUMPDEST PUSH1 0x40 MLOAD DUP1 SWAP2 SUB SWAP1 RETURN JUMPDEST PUSH0 PUSH1 0x20 MSTORE DUP1 PUSH0 MSTORE PUSH1 0x40 PUSH0 KECCAK256 PUSH0 SWAP2 POP SWAP1 POP SLOAD DUP2 JUMP JUMPDEST PUSH1 0x3 PUSH0 SWAP1 SLOAD SWAP1 PUSH2 0x100 EXP SWAP1 DIV PUSH20 0xFFFFFFFFFFFFFFFFFFFFFFFFFFFFFFFFFFFFFFFF AND PUSH20 0xFFFFFFFFFFFFFFFFFFFFFFFFFFFFFFFFFFFFFFFF AND CALLER PUSH20 0xFFFFFFFFFFFFFFFFFFFFFFFFFFFFFFFFFFFFFFFF AND EQ PUSH2 0x1D3 JUMPI PUSH1 0x40 MLOAD PUSH32 0x8C379A000000000000000000000000000000000000000000000000000000000 DUP2 MSTORE PUSH1 0x4 ADD PUSH2 0x1CA SWAP1 PUSH2 0x70E JUMP JUMPDEST PUSH1 0x40 MLOAD DUP1 SWAP2 SUB SWAP1 REVERT JUMPDEST DUP1 PUSH1 0x3 PUSH0 PUSH2 0x100 EXP DUP2 SLOAD DUP2 PUSH20 0xFFFFFFFFFFFFFFFFFFFFFFFFFFFFFFFFFFFFFFFF MUL NOT AND SWAP1 DUP4 PUSH20 0xFFFFFFFFFFFFFFFFFFFFFFFFFFFFFFFFFFFFFFFF AND MUL OR SWAP1 SSTORE POP PUSH9 0x56BC75E2D63100000 PUSH2 0x226 SELFBALANCE PUSH2 0x54C JUMP JUMPDEST LT ISZERO PUSH2 0x267 JUMPI PUSH1 0x40 MLOAD PUSH32 0x8C379A000000000000000000000000000000000000000000000000000000000 DUP2 MSTORE PUSH1 0x4 ADD PUSH2 0x25E SWAP1 PUSH2 0x776 JUMP JUMPDEST PUSH1 0x40 MLOAD DUP1 SWAP2 SUB SWAP1 REVERT JUMPDEST POP JUMP JUMPDEST PUSH1 0x3 PUSH0 SWAP1 SLOAD SWAP1 PUSH2 0x100 EXP SWAP1 DIV PUSH20 0xFFFFFFFFFFFFFFFFFFFFFFFFFFFFFFFFFFFFFFFF AND DUP2 JUMP JUMPDEST PUSH9 0x56BC75E2D63100000 PUSH2 0x2A2 SELFBALANCE PUSH2 0x54C JUMP JUMPDEST LT ISZERO PUSH2 0x2E3 JUMPI PUSH1 0x40 MLOAD PUSH32 0x8C379A000000000000000000000000000000000000000000000000000000000 DUP2 MSTORE PUSH1 0x4 ADD PUSH2 0x2DA SWAP1 PUSH2 0x776 JUMP JUMPDEST PUSH1 0x40 MLOAD DUP1 SWAP2 SUB SWAP1 REVERT JUMPDEST PUSH1 0x3 PUSH0 SWAP1 SLOAD SWAP1 PUSH2 0x100 EXP SWAP1 DIV PUSH20 0xFFFFFFFFFFFFFFFFFFFFFFFFFFFFFFFFFFFFFFFF AND PUSH20 0xFFFFFFFFFFFFFFFFFFFFFFFFFFFFFFFFFFFFFFFF AND CALLER PUSH20 0xFFFFFFFFFFFFFFFFFFFFFFFFFFFFFFFFFFFFFFFF AND EQ PUSH2 0x372 JUMPI PUSH1 0x40 MLOAD PUSH32 0x8C379A000000000000000000000000000000000000000000000000000000000 DUP2 MSTORE PUSH1 0x4 ADD PUSH2 0x369 SWAP1 PUSH2 0x70E JUMP JUMPDEST PUSH1 0x40 MLOAD DUP1 SWAP2 SUB SWAP1 REVERT JUMPDEST PUSH0 CALLER PUSH20 0xFFFFFFFFFFFFFFFFFFFFFFFFFFFFFFFFFFFFFFFF AND SELFBALANCE PUSH1 0x40 MLOAD PUSH2 0x397 SWAP1 PUSH2 0x7C1 JUMP JUMPDEST PUSH0 PUSH1 0x40 MLOAD DUP1 DUP4 SUB DUP2 DUP6 DUP8 GAS CALL SWAP3 POP POP POP RETURNDATASIZE DUP1 PUSH0 DUP2 EQ PUSH2 0x3D1 JUMPI PUSH1 0x40 MLOAD SWAP2 POP PUSH1 0x1F NOT PUSH1 0x3F RETURNDATASIZE ADD AND DUP3 ADD PUSH1 0x40 MSTORE RETURNDATASIZE DUP3 MSTORE RETURNDATASIZE PUSH0 PUSH1 0x20 DUP5 ADD RETURNDATACOPY PUSH2 0x3D6 JUMP JUMPDEST PUSH1 0x60 SWAP2 POP JUMPDEST POP POP DUP1 SWAP2 POP POP DUP1 PUSH2 0x41C JUMPI PUSH1 0x40 MLOAD PUSH32 0x8C379A000000000000000000000000000000000000000000000000000000000 DUP2 MSTORE PUSH1 0x4 ADD PUSH2 0x413 SWAP1 PUSH2 0x81F JUMP JUMPDEST PUSH1 0x40 MLOAD DUP1 SWAP2 SUB SWAP1 REVERT JUMPDEST POP JUMP JUMPDEST PUSH1 0x1 SLOAD PUSH2 0x42B CALLVALUE PUSH2 0x54C JUMP JUMPDEST LT ISZERO PUSH2 0x46C JUMPI PUSH1 0x40 MLOAD PUSH32 0x8C379A000000000000000000000000000000000000000000000000000000000 DUP2 MSTORE PUSH1 0x4 ADD PUSH2 0x463 SWAP1 PUSH2 0x887 JUMP JUMPDEST PUSH1 0x40 MLOAD DUP1 SWAP2 SUB SWAP1 REVERT JUMPDEST CALLVALUE PUSH0 DUP1 CALLER PUSH20 0xFFFFFFFFFFFFFFFFFFFFFFFFFFFFFFFFFFFFFFFF AND PUSH20 0xFFFFFFFFFFFFFFFFFFFFFFFFFFFFFFFFFFFFFFFF AND DUP2 MSTORE PUSH1 0x20 ADD SWAP1 DUP2 MSTORE PUSH1 0x20 ADD PUSH0 KECCAK256 DUP2 SWAP1 SSTORE POP JUMP JUMPDEST PUSH0 DUP1 PUSH1 0x2 PUSH0 SWAP1 SLOAD SWAP1 PUSH2 0x100 EXP SWAP1 DIV PUSH20 0xFFFFFFFFFFFFFFFFFFFFFFFFFFFFFFFFFFFFFFFF AND PUSH20 0xFFFFFFFFFFFFFFFFFFFFFFFFFFFFFFFFFFFFFFFF AND PUSH4 0xFEAF968C PUSH1 0x40 MLOAD DUP2 PUSH4 0xFFFFFFFF AND PUSH1 0xE0 SHL DUP2 MSTORE PUSH1 0x4 ADD PUSH1 0xA0 PUSH1 0x40 MLOAD DUP1 DUP4 SUB DUP2 DUP7 GAS STATICCALL ISZERO DUP1 ISZERO PUSH2 0x51B JUMPI RETURNDATASIZE PUSH0 DUP1 RETURNDATACOPY RETURNDATASIZE PUSH0 REVERT JUMPDEST POP POP POP POP PUSH1 0x40 MLOAD RETURNDATASIZE PUSH1 0x1F NOT PUSH1 0x1F DUP3 ADD AND DUP3 ADD DUP1 PUSH1 0x40 MSTORE POP DUP2 ADD SWAP1 PUSH2 0x53F SWAP2 SWAP1 PUSH2 0x938 JUMP JUMPDEST POP POP POP SWAP2 POP POP DUP1 SWAP2 POP POP SWAP1 JUMP JUMPDEST PUSH0 DUP1 PUSH2 0x556 PUSH2 0x4AF JUMP JUMPDEST SWAP1 POP PUSH4 0x5F5E100 DUP2 DUP5 PUSH2 0x569 SWAP2 SWAP1 PUSH2 0x9DC JUMP JUMPDEST PUSH2 0x573 SWAP2 SWAP1 PUSH2 0xA4A JUMP JUMPDEST SWAP2 POP POP SWAP2 SWAP1 POP JUMP JUMPDEST PUSH0 DUP1 REVERT JUMPDEST PUSH0 PUSH20 0xFFFFFFFFFFFFFFFFFFFFFFFFFFFFFFFFFFFFFFFF DUP3 AND SWAP1 POP SWAP2 SWAP1 POP JUMP JUMPDEST PUSH0 PUSH2 0x5A8 DUP3 PUSH2 0x57F JUMP JUMPDEST SWAP1 POP SWAP2 SWAP1 POP JUMP JUMPDEST PUSH2 0x5B8 DUP2 PUSH2 0x59E JUMP JUMPDEST DUP2 EQ PUSH2 0x5C2 JUMPI PUSH0 DUP1 REVERT JUMPDEST POP JUMP JUMPDEST PUSH0 DUP2 CALLDATALOAD SWAP1 POP PUSH2 0x5D3 DUP2 PUSH2 0x5AF JUMP JUMPDEST SWAP3 SWAP2 POP POP JUMP JUMPDEST PUSH0 PUSH1 0x20 DUP3 DUP5 SUB SLT ISZERO PUSH2 0x5EE JUMPI PUSH2 0x5ED PUSH2 0x57B JUMP JUMPDEST JUMPDEST PUSH0 PUSH2 0x5FB DUP5 DUP3 DUP6 ADD PUSH2 0x5C5 JUMP JUMPDEST SWAP2 POP POP SWAP3 SWAP2 POP POP JUMP JUMPDEST PUSH0 DUP2 SWAP1 POP SWAP2 SWAP1 POP JUMP JUMPDEST PUSH2 0x616 DUP2 PUSH2 0x604 JUMP JUMPDEST DUP3 MSTORE POP POP JUMP JUMPDEST PUSH0 PUSH1 0x20 DUP3 ADD SWAP1 POP PUSH2 0x62F PUSH0 DUP4 ADD DUP5 PUSH2 0x60D JUMP JUMPDEST SWAP3 SWAP2 POP POP JUMP JUMPDEST PUSH2 0x63E DUP2 PUSH2 0x59E JUMP JUMPDEST DUP3 MSTORE POP POP JUMP JUMPDEST PUSH0 PUSH1 0x20 DUP3 ADD SWAP1 POP PUSH2 0x657 PUSH0 DUP4 ADD DUP5 PUSH2 0x635 JUMP JUMPDEST SWAP3 SWAP2 POP POP JUMP JUMPDEST PUSH0 DUP2 SWAP1 POP SWAP2 SWAP1 POP JUMP JUMPDEST PUSH2 0x66F DUP2 PUSH2 0x65D JUMP JUMPDEST DUP3 MSTORE POP POP JUMP JUMPDEST PUSH0 PUSH1 0x20 DUP3 ADD SWAP1 POP PUSH2 0x688 PUSH0 DUP4 ADD DUP5 PUSH2 0x666 JUMP JUMPDEST SWAP3 SWAP2 POP POP JUMP JUMPDEST PUSH0 DUP3 DUP3 MSTORE PUSH1 0x20 DUP3 ADD SWAP1 POP SWAP3 SWAP2 POP POP JUMP JUMPDEST PUSH32 0x746869732066756E6374696F6E2063616E206F6E6C792062652063616C6C6564 PUSH0 DUP3 ADD MSTORE PUSH32 0x206279206F776E65720000000000000000000000000000000000000000000000 PUSH1 0x20 DUP3 ADD MSTORE POP JUMP JUMPDEST PUSH0 PUSH2 0x6F8 PUSH1 0x29 DUP4 PUSH2 0x68E JUMP JUMPDEST SWAP2 POP PUSH2 0x703 DUP3 PUSH2 0x69E JUMP JUMPDEST PUSH1 0x40 DUP3 ADD SWAP1 POP SWAP2 SWAP1 POP JUMP JUMPDEST PUSH0 PUSH1 0x20 DUP3 ADD SWAP1 POP DUP2 DUP2 SUB PUSH0 DUP4 ADD MSTORE PUSH2 0x725 DUP2 PUSH2 0x6EC JUMP JUMPDEST SWAP1 POP SWAP2 SWAP1 POP JUMP JUMPDEST PUSH32 0x746172676574206973206E6F7420726561636865640000000000000000000000 PUSH0 DUP3 ADD MSTORE POP JUMP JUMPDEST PUSH0 PUSH2 0x760 PUSH1 0x15 DUP4 PUSH2 0x68E JUMP JUMPDEST SWAP2 POP PUSH2 0x76B DUP3 PUSH2 0x72C JUMP JUMPDEST PUSH1 0x20 DUP3 ADD SWAP1 POP SWAP2 SWAP1 POP JUMP JUMPDEST PUSH0 PUSH1 0x20 DUP3 ADD SWAP1 POP DUP2 DUP2 SUB PUSH0 DUP4 ADD MSTORE PUSH2 0x78D DUP2 PUSH2 0x754 JUMP JUMPDEST SWAP1 POP SWAP2 SWAP1 POP JUMP JUMPDEST PUSH0 DUP2 SWAP1 POP SWAP3 SWAP2 POP POP JUMP JUMPDEST POP JUMP JUMPDEST PUSH0 PUSH2 0x7AC PUSH0 DUP4 PUSH2 0x794 JUMP JUMPDEST SWAP2 POP PUSH2 0x7B7 DUP3 PUSH2 0x79E JUMP JUMPDEST PUSH0 DUP3 ADD SWAP1 POP SWAP2 SWAP1 POP JUMP JUMPDEST PUSH0 PUSH2 0x7CB DUP3 PUSH2 0x7A1 JUMP JUMPDEST SWAP2 POP DUP2 SWAP1 POP SWAP2 SWAP1 POP JUMP JUMPDEST PUSH32 0x7478206661696C65640000000000000000000000000000000000000000000000 PUSH0 DUP3 ADD MSTORE POP JUMP JUMPDEST PUSH0 PUSH2 0x809 PUSH1 0x9 DUP4 PUSH2 0x68E JUMP JUMPDEST SWAP2 POP PUSH2 0x814 DUP3 PUSH2 0x7D5 JUMP JUMPDEST PUSH1 0x20 DUP3 ADD SWAP1 POP SWAP2 SWAP1 POP JUMP JUMPDEST PUSH0 PUSH1 0x20 DUP3 ADD SWAP1 POP DUP2 DUP2 SUB PUSH0 DUP4 ADD MSTORE PUSH2 0x836 DUP2 PUSH2 0x7FD JUMP JUMPDEST SWAP1 POP SWAP2 SWAP1 POP JUMP JUMPDEST PUSH32 0x73656E64206D6F72652045544800000000000000000000000000000000000000 PUSH0 DUP3 ADD MSTORE POP JUMP JUMPDEST PUSH0 PUSH2 0x871 PUSH1 0xD DUP4 PUSH2 0x68E JUMP JUMPDEST SWAP2 POP PUSH2 0x87C DUP3 PUSH2 0x83D JUMP JUMPDEST PUSH1 0x20 DUP3 ADD SWAP1 POP SWAP2 SWAP1 POP JUMP JUMPDEST PUSH0 PUSH1 0x20 DUP3 ADD SWAP1 POP DUP2 DUP2 SUB PUSH0 DUP4 ADD MSTORE PUSH2 0x89E DUP2 PUSH2 0x865 JUMP JUMPDEST SWAP1 POP SWAP2 SWAP1 POP JUMP JUMPDEST PUSH0 PUSH10 0xFFFFFFFFFFFFFFFFFFFF DUP3 AND SWAP1 POP SWAP2 SWAP1 POP JUMP JUMPDEST PUSH2 0x8C3 DUP2 PUSH2 0x8A5 JUMP JUMPDEST DUP2 EQ PUSH2 0x8CD JUMPI PUSH0 DUP1 REVERT JUMPDEST POP JUMP JUMPDEST PUSH0 DUP2 MLOAD SWAP1 POP PUSH2 0x8DE DUP2 PUSH2 0x8BA JUMP JUMPDEST SWAP3 SWAP2 POP POP JUMP JUMPDEST PUSH2 0x8ED DUP2 PUSH2 0x65D JUMP JUMPDEST DUP2 EQ PUSH2 0x8F7 JUMPI PUSH0 DUP1 REVERT JUMPDEST POP JUMP JUMPDEST PUSH0 DUP2 MLOAD SWAP1 POP PUSH2 0x908 DUP2 PUSH2 0x8E4 JUMP JUMPDEST SWAP3 SWAP2 POP POP JUMP JUMPDEST PUSH2 0x917 DUP2 PUSH2 0x604 JUMP JUMPDEST DUP2 EQ PUSH2 0x921 JUMPI PUSH0 DUP1 REVERT JUMPDEST POP JUMP JUMPDEST PUSH0 DUP2 MLOAD SWAP1 POP PUSH2 0x932 DUP2 PUSH2 0x90E JUMP JUMPDEST SWAP3 SWAP2 POP POP JUMP JUMPDEST PUSH0 DUP1 PUSH0 DUP1 PUSH0 PUSH1 0xA0 DUP7 DUP9 SUB SLT ISZERO PUSH2 0x951 JUMPI PUSH2 0x950 PUSH2 0x57B JUMP JUMPDEST JUMPDEST PUSH0 PUSH2 0x95E DUP9 DUP3 DUP10 ADD PUSH2 0x8D0 JUMP JUMPDEST SWAP6 POP POP PUSH1 0x20 PUSH2 0x96F DUP9 DUP3 DUP10 ADD PUSH2 0x8FA JUMP JUMPDEST SWAP5 POP POP PUSH1 0x40 PUSH2 0x980 DUP9 DUP3 DUP10 ADD PUSH2 0x924 JUMP JUMPDEST SWAP4 POP POP PUSH1 0x60 PUSH2 0x991 DUP9 DUP3 DUP10 ADD PUSH2 0x924 JUMP JUMPDEST SWAP3 POP POP PUSH1 0x80 PUSH2 0x9A2 DUP9 DUP3 DUP10 ADD PUSH2 0x8D0 JUMP JUMPDEST SWAP2 POP POP SWAP3 SWAP6 POP SWAP3 SWAP6 SWAP1 SWAP4 POP JUMP JUMPDEST PUSH32 0x4E487B7100000000000000000000000000000000000000000000000000000000 PUSH0 MSTORE PUSH1 0x11 PUSH1 0x4 MSTORE PUSH1 0x24 PUSH0 REVERT JUMPDEST PUSH0 PUSH2 0x9E6 DUP3 PUSH2 0x604 JUMP JUMPDEST SWAP2 POP PUSH2 0x9F1 DUP4 PUSH2 0x604 JUMP JUMPDEST SWAP3 POP DUP3 DUP3 MUL PUSH2 0x9FF DUP2 PUSH2 0x604 JUMP JUMPDEST SWAP2 POP DUP3 DUP3 DIV DUP5 EQ DUP4 ISZERO OR PUSH2 0xA16 JUMPI PUSH2 0xA15 PUSH2 0x9AF JUMP JUMPDEST JUMPDEST POP SWAP3 SWAP2 POP POP JUMP JUMPDEST PUSH32 0x4E487B7100000000000000000000000000000000000000000000000000000000 PUSH0 MSTORE PUSH1 0x12 PUSH1 0x4 MSTORE PUSH1 0x24 PUSH0 REVERT JUMPDEST PUSH0 PUSH2 0xA54 DUP3 PUSH2 0x604 JUMP JUMPDEST SWAP2 POP PUSH2 0xA5F DUP4 PUSH2 0x604 JUMP JUMPDEST SWAP3 POP DUP3 PUSH2 0xA6F JUMPI PUSH2 0xA6E PUSH2 0xA1D JUMP JUMPDEST JUMPDEST DUP3 DUP3 DIV SWAP1 POP SWAP3 SWAP2 POP POP JUMP INVALID LOG2 PUSH5 0x6970667358 0x22 SLT KECCAK256 CREATE2 0xC 0xC0 0xDE 0xC5 0xF7 REVERT PUSH10 0xD518F5E954B490946E86 KECCAK256 0x4C 0x25 CALLDATASIZE 0xC4 0xE2 PUSH29 0x2EBA7E26E02FD564736F6C634300081A00330000000000000000000000 "
				},
				"gasEstimates": {
					"creation": {
						"codeDepositCost": "547200",
						"executionCost": "71216",
						"totalCost": "618416"
					},
					"external": {
						"fund()": "infinite",
						"funderToAmount(address)": "2779",
						"getChainlinkDataFeedLatestAnswer()": "infinite",
						"getFund()": "infinite",
						"owner()": "2530",
						"transferOwnerShip(address)": "infinite"
					},
					"internal": {
						"convertEthToUsd(uint256)": "infinite"
					}
				},
				"methodIdentifiers": {
					"fund()": "b60d4288",
					"funderToAmount(address)": "4407e1e8",
					"getChainlinkDataFeedLatestAnswer()": "bea4dfb5",
					"getFund()": "8edd6eb6",
					"owner()": "8da5cb5b",
					"transferOwnerShip(address)": "8863dd1a"
				}
			},
			"storageLayout": {
				"storage": [
					{
						"astId": 53,
						"contract": "contracts/FundMe.sol:FundMe",
						"label": "funderToAmount",
						"offset": 0,
						"slot": "0",
						"type": "t_mapping(t_address,t_uint256)"
					},
					{
						"astId": 60,
						"contract": "contracts/FundMe.sol:FundMe",
						"label": "MINMUM_VALUE",
						"offset": 0,
						"slot": "1",
						"type": "t_uint256"
					},
					{
						"astId": 63,
						"contract": "contracts/FundMe.sol:FundMe",
						"label": "dataFeed",
						"offset": 0,
						"slot": "2",
						"type": "t_contract(AggregatorV3Interface)45"
					},
					{
						"astId": 72,
						"contract": "contracts/FundMe.sol:FundMe",
						"label": "owner",
						"offset": 0,
						"slot": "3",
						"type": "t_address"
					}
				],
				"types": {
					"t_address": {
						"encoding": "inplace",
						"label": "address",
						"numberOfBytes": "20"
					},
					"t_contract(AggregatorV3Interface)45": {
						"encoding": "inplace",
						"label": "contract AggregatorV3Interface",
						"numberOfBytes": "20"
					},
					"t_mapping(t_address,t_uint256)": {
						"encoding": "mapping",
						"key": "t_address",
						"label": "mapping(address => uint256)",
						"numberOfBytes": "32",
						"value": "t_uint256"
					},
					"t_uint256": {
						"encoding": "inplace",
						"label": "uint256",
						"numberOfBytes": "32"
					}
				}
			},
			"userdoc": {
				"kind": "user",
				"methods": {
					"getChainlinkDataFeedLatestAnswer()": {
						"notice": "Returns the latest answer."
					}
				},
				"version": 1
			}
		}
	}
}